{
  "_format": "hh-sol-artifact-1",
  "contractName": "BadgeFactoryBCS",
  "sourceName": "contracts/partnerships/BadgeFactoryBCS.sol",
  "abi": [
    {
      "inputs": [
        {
          "internalType": "address",
          "name": "_developer",
          "type": "address"
        },
        {
          "internalType": "string",
          "name": "_baseTokenURI",
          "type": "string"
        }
      ],
      "stateMutability": "nonpayable",
      "type": "constructor"
    },
    {
      "anonymous": false,
      "inputs": [
        {
          "indexed": false,
          "internalType": "string",
          "name": "badgeName",
          "type": "string"
        },
        {
          "indexed": true,
          "internalType": "address",
          "name": "badge",
          "type": "address"
        },
        {
          "indexed": true,
          "internalType": "address",
          "name": "issuer",
          "type": "address"
        },
        {
          "indexed": false,
          "internalType": "string",
          "name": "_data",
          "type": "string"
        }
      ],
      "name": "BadgeCreated",
      "type": "event"
    },
    {
      "anonymous": false,
      "inputs": [
        {
          "indexed": false,
          "internalType": "address",
          "name": "account",
          "type": "address"
        }
      ],
      "name": "Paused",
      "type": "event"
    },
    {
      "anonymous": false,
      "inputs": [
        {
          "indexed": true,
          "internalType": "bytes32",
          "name": "role",
          "type": "bytes32"
        },
        {
          "indexed": true,
          "internalType": "bytes32",
          "name": "previousAdminRole",
          "type": "bytes32"
        },
        {
          "indexed": true,
          "internalType": "bytes32",
          "name": "newAdminRole",
          "type": "bytes32"
        }
      ],
      "name": "RoleAdminChanged",
      "type": "event"
    },
    {
      "anonymous": false,
      "inputs": [
        {
          "indexed": true,
          "internalType": "bytes32",
          "name": "role",
          "type": "bytes32"
        },
        {
          "indexed": true,
          "internalType": "address",
          "name": "account",
          "type": "address"
        },
        {
          "indexed": true,
          "internalType": "address",
          "name": "sender",
          "type": "address"
        }
      ],
      "name": "RoleGranted",
      "type": "event"
    },
    {
      "anonymous": false,
      "inputs": [
        {
          "indexed": true,
          "internalType": "bytes32",
          "name": "role",
          "type": "bytes32"
        },
        {
          "indexed": true,
          "internalType": "address",
          "name": "account",
          "type": "address"
        },
        {
          "indexed": true,
          "internalType": "address",
          "name": "sender",
          "type": "address"
        }
      ],
      "name": "RoleRevoked",
      "type": "event"
    },
    {
      "anonymous": false,
      "inputs": [
        {
          "indexed": false,
          "internalType": "address",
          "name": "account",
          "type": "address"
        }
      ],
      "name": "Unpaused",
      "type": "event"
    },
    {
      "inputs": [],
      "name": "DEFAULT_ADMIN_ROLE",
      "outputs": [
        {
          "internalType": "bytes32",
          "name": "",
          "type": "bytes32"
        }
      ],
      "stateMutability": "view",
      "type": "function"
    },
    {
      "inputs": [],
      "name": "DEV_ROLE",
      "outputs": [
        {
          "internalType": "bytes32",
          "name": "",
          "type": "bytes32"
        }
      ],
      "stateMutability": "view",
      "type": "function"
    },
    {
      "inputs": [],
      "name": "badgeImplementation",
      "outputs": [
        {
          "internalType": "address",
          "name": "",
          "type": "address"
        }
      ],
      "stateMutability": "view",
      "type": "function"
    },
    {
      "inputs": [],
      "name": "baseTokenURI",
      "outputs": [
        {
          "internalType": "string",
          "name": "",
          "type": "string"
        }
      ],
      "stateMutability": "view",
      "type": "function"
    },
    {
      "inputs": [
        {
          "internalType": "string",
          "name": "_guildName",
          "type": "string"
        },
        {
          "internalType": "string",
          "name": "_guildSymbol",
          "type": "string"
        },
        {
          "internalType": "string",
          "name": "_logoImageUrl",
          "type": "string"
        },
        {
          "internalType": "string",
          "name": "_data",
          "type": "string"
        }
      ],
      "name": "createBadge",
      "outputs": [
        {
          "internalType": "address",
          "name": "_lootbox",
          "type": "address"
        }
      ],
      "stateMutability": "nonpayable",
      "type": "function"
    },
    {
      "inputs": [],
      "name": "developer",
      "outputs": [
        {
          "internalType": "address",
          "name": "",
          "type": "address"
        }
      ],
      "stateMutability": "view",
      "type": "function"
    },
    {
      "inputs": [
        {
          "internalType": "bytes32",
          "name": "role",
          "type": "bytes32"
        }
      ],
      "name": "getRoleAdmin",
      "outputs": [
        {
          "internalType": "bytes32",
          "name": "",
          "type": "bytes32"
        }
      ],
      "stateMutability": "view",
      "type": "function"
    },
    {
      "inputs": [
        {
          "internalType": "bytes32",
          "name": "role",
          "type": "bytes32"
        },
        {
          "internalType": "address",
          "name": "account",
          "type": "address"
        }
      ],
      "name": "grantRole",
      "outputs": [],
      "stateMutability": "nonpayable",
      "type": "function"
    },
    {
      "inputs": [
        {
          "internalType": "bytes32",
          "name": "role",
          "type": "bytes32"
        },
        {
          "internalType": "address",
          "name": "account",
          "type": "address"
        }
      ],
      "name": "hasRole",
      "outputs": [
        {
          "internalType": "bool",
          "name": "",
          "type": "bool"
        }
      ],
      "stateMutability": "view",
      "type": "function"
    },
    {
      "inputs": [],
      "name": "pause",
      "outputs": [],
      "stateMutability": "nonpayable",
      "type": "function"
    },
    {
      "inputs": [],
      "name": "paused",
      "outputs": [
        {
          "internalType": "bool",
          "name": "",
          "type": "bool"
        }
      ],
      "stateMutability": "view",
      "type": "function"
    },
    {
      "inputs": [],
      "name": "paymentToken",
      "outputs": [
        {
          "internalType": "address",
          "name": "",
          "type": "address"
        }
      ],
      "stateMutability": "view",
      "type": "function"
    },
    {
      "inputs": [
        {
          "internalType": "bytes32",
          "name": "role",
          "type": "bytes32"
        },
        {
          "internalType": "address",
          "name": "account",
          "type": "address"
        }
      ],
      "name": "renounceRole",
      "outputs": [],
      "stateMutability": "nonpayable",
      "type": "function"
    },
    {
      "inputs": [
        {
          "internalType": "bytes32",
          "name": "role",
          "type": "bytes32"
        },
        {
          "internalType": "address",
          "name": "account",
          "type": "address"
        }
      ],
      "name": "revokeRole",
      "outputs": [],
      "stateMutability": "nonpayable",
      "type": "function"
    },
    {
      "inputs": [],
      "name": "semver",
      "outputs": [
        {
          "internalType": "string",
          "name": "",
          "type": "string"
        }
      ],
      "stateMutability": "view",
      "type": "function"
    },
    {
      "inputs": [
        {
          "internalType": "bytes4",
          "name": "interfaceId",
          "type": "bytes4"
        }
      ],
      "name": "supportsInterface",
      "outputs": [
        {
          "internalType": "bool",
          "name": "",
          "type": "bool"
        }
      ],
      "stateMutability": "view",
      "type": "function"
    },
    {
      "inputs": [],
      "name": "unpause",
      "outputs": [],
      "stateMutability": "nonpayable",
      "type": "function"
    },
    {
      "inputs": [],
      "name": "viewBadges",
      "outputs": [
        {
          "internalType": "bytes32[]",
          "name": "",
          "type": "bytes32[]"
        }
      ],
      "stateMutability": "view",
      "type": "function"
    }
  ],
  "bytecode": "0x60a06040523480156200001157600080fd5b5060405162004ef938038062004ef98339810160408190526200003491620002b2565b6000805460ff1916815581519003620000935760405162461bcd60e51b815260206004820152601e60248201527f4261736520746f6b656e205552492063616e6e6f7420626520656d7074790000604482015260640160405180910390fd5b60408051808201909152600580825264302e302e3160d81b6020909201918252620000c191600391620001e8565b50620000ee7f51b355059847d158e68950419dbcd54fad00bdfd0634c2515a5c533288c7f0a2836200015f565b600480546001600160a01b0319166001600160a01b038416179055604051620001179062000277565b604051809103906000f08015801562000134573d6000803e3d6000fd5b506001600160a01b0316608052805162000156906005906020840190620001e8565b505050620003ee565b60008281526001602090815260408083206001600160a01b038516845290915290205460ff16620001e45760008281526001602081815260408084206001600160a01b0386168086529252808420805460ff19169093179092559051339285917f2f8788117e7eff1d82e926ec794901d17c78024a50270940304540a733656f0d9190a45b5050565b828054620001f690620003b2565b90600052602060002090601f0160209004810192826200021a576000855562000265565b82601f106200023557805160ff191683800117855562000265565b8280016001018555821562000265579182015b828111156200026557825182559160200191906001019062000248565b506200027392915062000285565b5090565b6131658062001d9483390190565b5b8082111562000273576000815560010162000286565b634e487b7160e01b600052604160045260246000fd5b60008060408385031215620002c657600080fd5b82516001600160a01b0381168114620002de57600080fd5b602084810151919350906001600160401b0380821115620002fe57600080fd5b818601915086601f8301126200031357600080fd5b8151818111156200032857620003286200029c565b604051601f8201601f19908116603f011681019083821181831017156200035357620003536200029c565b8160405282815289868487010111156200036c57600080fd5b600093505b8284101562000390578484018601518185018701529285019262000371565b82841115620003a25760008684830101525b8096505050505050509250929050565b600181811c90821680620003c757607f821691505b602082108103620003e857634e487b7160e01b600052602260045260246000fd5b50919050565b6080516119836200041160003960008181610201015261052101526119836000f3fe60806040523480156200001157600080fd5b50600436106200012d5760003560e01c80638456cb5911620000af578063ca4b208b116200007a578063ca4b208b1462000289578063cda493c8146200029d578063d547741f14620002b6578063d547cfb714620002cd578063fcf0f0d314620002d757600080fd5b80638456cb59146200024657806391d148541462000250578063a217fddf1462000267578063c9393450146200027057600080fd5b806336568abe11620000fc57806336568abe14620001da5780633f4ba83a14620001f1578063554b5d6c14620001fb5780635c975abb14620002235780635c9d3a94146200022f57600080fd5b806301ffc9a71462000132578063248a9ca3146200015e5780632f2ff15d14620001945780633013ce2914620001ad575b600080fd5b620001496200014336600462000c5a565b620002ff565b60405190151581526020015b60405180910390f35b620001856200016f36600462000c86565b6000908152600160208190526040909120015490565b60405190815260200162000155565b620001ab620001a536600462000ca0565b62000337565b005b600254620001c1906001600160a01b031681565b6040516001600160a01b03909116815260200162000155565b620001ab620001eb36600462000ca0565b62000367565b620001ab620003ed565b620001c17f000000000000000000000000000000000000000000000000000000000000000081565b60005460ff1662000149565b620001c16200024036600462000d89565b62000427565b620001ab6200063d565b620001496200026136600462000ca0565b62000674565b62000185600081565b6200027a6200069f565b60405162000155919062000e43565b600454620001c1906001600160a01b031681565b620002a7620006f8565b60405162000155919062000eea565b620001ab620002c736600462000ca0565b6200078e565b620002a7620007b9565b620001857f51b355059847d158e68950419dbcd54fad00bdfd0634c2515a5c533288c7f0a281565b60006001600160e01b03198216637965db0b60e01b14806200033157506301ffc9a760e01b6001600160e01b03198316145b92915050565b60008281526001602081905260409091200154620003568133620007c8565b62000362838362000837565b505050565b6001600160a01b0381163314620003dd5760405162461bcd60e51b815260206004820152602f60248201527f416363657373436f6e74726f6c3a2063616e206f6e6c792072656e6f756e636560448201526e103937b632b9903337b91039b2b63360891b60648201526084015b60405180910390fd5b620003e98282620008a5565b5050565b7f51b355059847d158e68950419dbcd54fad00bdfd0634c2515a5c533288c7f0a26200041a8133620007c8565b620004246200090f565b50565b6000805460ff1615620004705760405162461bcd60e51b815260206004820152601060248201526f14185d5cd8589b194e881c185d5cd95960821b6044820152606401620003d4565b8451600003620004c35760405162461bcd60e51b815260206004820152601a60248201527f4775696c64206e616d652063616e6e6f7420626520656d7074790000000000006044820152606401620003d4565b8351600003620005165760405162461bcd60e51b815260206004820152601c60248201527f4775696c642073796d626f6c2063616e6e6f7420626520656d707479000000006044820152606401620003d4565b6004546040516000917f0000000000000000000000000000000000000000000000000000000000000000916302ec327960e31b916200056b918a918a918a916001600160a01b03169060059060240162000f3b565b60408051601f198184030181529181526020820180516001600160e01b03166001600160e01b0319909416939093179092529051620005aa9062000c4c565b620005b792919062001040565b604051809103906000f080158015620005d4573d6000803e3d6000fd5b509050620005e4600682620009a4565b50336001600160a01b0316816001600160a01b03167f2aa3acfa6d8fc607da337c6f666a771925d0bf05efc934e3128c23e851a61fa488866040516200062c9291906200106e565b60405180910390a395945050505050565b7f51b355059847d158e68950419dbcd54fad00bdfd0634c2515a5c533288c7f0a26200066a8133620007c8565b62000424620009c2565b60009182526001602090815260408084206001600160a01b0393909316845291905290205460ff1690565b600680546040805160208084028201810190925282815260609390929091830182828015620006ee57602002820191906000526020600020905b815481526020019060010190808311620006d9575b5050505050905090565b60038054620007079062000eff565b80601f0160208091040260200160405190810160405280929190818152602001828054620007359062000eff565b8015620007865780601f106200075a5761010080835404028352916020019162000786565b820191906000526020600020905b8154815290600101906020018083116200076857829003601f168201915b505050505081565b60008281526001602081905260409091200154620007ad8133620007c8565b620003628383620008a5565b60058054620007079062000eff565b620007d4828262000674565b620003e957620007ef816001600160a01b0316601462000a40565b620007fc83602062000a40565b6040516020016200080f929190620010a0565b60408051601f198184030181529082905262461bcd60e51b8252620003d49160040162000eea565b62000843828262000674565b620003e95760008281526001602081815260408084206001600160a01b0386168086529252808420805460ff19169093179092559051339285917f2f8788117e7eff1d82e926ec794901d17c78024a50270940304540a733656f0d9190a45050565b620008b1828262000674565b15620003e95760008281526001602090815260408083206001600160a01b0385168085529252808320805460ff1916905551339285917ff6391f5c32d9c69d2a47ea670b442974b53935d1edc7fd64eb21e047a839171b9190a45050565b60005460ff166200095a5760405162461bcd60e51b815260206004820152601460248201527314185d5cd8589b194e881b9bdd081c185d5cd95960621b6044820152606401620003d4565b6000805460ff191690557f5db9ee0a495bf2e6ff9c91a7834c1ba4fdd244a5e8aa4e537bd38aeae4b073aa335b6040516001600160a01b03909116815260200160405180910390a1565b6000620009bb836001600160a01b03841662000bfa565b9392505050565b60005460ff161562000a0a5760405162461bcd60e51b815260206004820152601060248201526f14185d5cd8589b194e881c185d5cd95960821b6044820152606401620003d4565b6000805460ff191660011790557f62e78cea01bee320cd4e420270b5ea74000d11b0c9f74754ebdbfc544b05a258620009873390565b6060600062000a518360026200112f565b62000a5e90600262001151565b67ffffffffffffffff81111562000a795762000a7962000cde565b6040519080825280601f01601f19166020018201604052801562000aa4576020820181803683370190505b509050600360fc1b8160008151811062000ac25762000ac26200116c565b60200101906001600160f81b031916908160001a905350600f60fb1b8160018151811062000af45762000af46200116c565b60200101906001600160f81b031916908160001a905350600062000b1a8460026200112f565b62000b2790600162001151565b90505b600181111562000ba9576f181899199a1a9b1b9c1cb0b131b232b360811b85600f166010811062000b5f5762000b5f6200116c565b1a60f81b82828151811062000b785762000b786200116c565b60200101906001600160f81b031916908160001a90535060049490941c9362000ba18162001182565b905062000b2a565b508315620009bb5760405162461bcd60e51b815260206004820181905260248201527f537472696e67733a20686578206c656e67746820696e73756666696369656e746044820152606401620003d4565b600081815260018301602052604081205462000c435750815460018181018455600084815260208082209093018490558454848252828601909352604090209190915562000331565b50600062000331565b6107b1806200119d83390190565b60006020828403121562000c6d57600080fd5b81356001600160e01b031981168114620009bb57600080fd5b60006020828403121562000c9957600080fd5b5035919050565b6000806040838503121562000cb457600080fd5b8235915060208301356001600160a01b038116811462000cd357600080fd5b809150509250929050565b634e487b7160e01b600052604160045260246000fd5b600082601f83011262000d0657600080fd5b813567ffffffffffffffff8082111562000d245762000d2462000cde565b604051601f8301601f19908116603f0116810190828211818310171562000d4f5762000d4f62000cde565b8160405283815286602085880101111562000d6957600080fd5b836020870160208301376000602085830101528094505050505092915050565b6000806000806080858703121562000da057600080fd5b843567ffffffffffffffff8082111562000db957600080fd5b62000dc78883890162000cf4565b9550602087013591508082111562000dde57600080fd5b62000dec8883890162000cf4565b9450604087013591508082111562000e0357600080fd5b62000e118883890162000cf4565b9350606087013591508082111562000e2857600080fd5b5062000e378782880162000cf4565b91505092959194509250565b6020808252825182820181905260009190848201906040850190845b8181101562000e7d5783518352928401929184019160010162000e5f565b50909695505050505050565b60005b8381101562000ea657818101518382015260200162000e8c565b8381111562000eb6576000848401525b50505050565b6000815180845262000ed681602086016020860162000e89565b601f01601f19169290920160200192915050565b602081526000620009bb602083018462000ebc565b600181811c9082168062000f1457607f821691505b60208210810362000f3557634e487b7160e01b600052602260045260246000fd5b50919050565b60a08152600062000f5060a083018862000ebc565b60208382038185015262000f65828962000ebc565b9150838203604085015262000f7b828862000ebc565b6001600160a01b038716606086015284810360808601528554909250600090600181811c908281168062000fb057607f831692505b858310810362000fce57634e487b7160e01b85526022600452602485fd5b82875260208701965080801562000fee576001811462001000576200102d565b60ff198516885286880195506200102d565b60008b81526020902060005b85811015620010275781548a8201529084019088016200100c565b89019650505b50939d9c50505050505050505050505050565b6001600160a01b0383168152604060208201819052600090620010669083018462000ebc565b949350505050565b60408152600062001083604083018562000ebc565b828103602084015262001097818562000ebc565b95945050505050565b7f416363657373436f6e74726f6c3a206163636f756e7420000000000000000000815260008351620010da81601785016020880162000e89565b7001034b99036b4b9b9b4b733903937b6329607d1b60179184019182015283516200110d81602884016020880162000e89565b01602801949350505050565b634e487b7160e01b600052601160045260246000fd5b60008160001904831182151516156200114c576200114c62001119565b500290565b6000821982111562001167576200116762001119565b500190565b634e487b7160e01b600052603260045260246000fd5b60008162001194576200119462001119565b50600019019056fe60806040526040516107b13803806107b183398101604081905261002291610349565b61004d60017f360894a13ba1a3210667c828492db98dca3e2076cc3735a920a3ca505d382bbd610417565b60008051602061076a833981519152146100695761006961043c565b6100758282600061007c565b50506104a1565b610085836100b2565b6000825111806100925750805b156100ad576100ab83836100f260201b6100291760201c565b505b505050565b6100bb8161011e565b6040516001600160a01b038216907fbc7cd75a20ee27fd9adebab32041f755214dbc6bffa90cc0225b39da2e5c2d3b90600090a250565b6060610117838360405180606001604052806027815260200161078a602791396101de565b9392505050565b610131816102bc60201b6100551760201c565b6101985760405162461bcd60e51b815260206004820152602d60248201527f455243313936373a206e657720696d706c656d656e746174696f6e206973206e60448201526c1bdd08184818dbdb9d1c9858dd609a1b60648201526084015b60405180910390fd5b806101bd60008051602061076a83398151915260001b6102cb60201b6100641760201c565b80546001600160a01b0319166001600160a01b039290921691909117905550565b60606001600160a01b0384163b6102465760405162461bcd60e51b815260206004820152602660248201527f416464726573733a2064656c65676174652063616c6c20746f206e6f6e2d636f6044820152651b9d1c9858dd60d21b606482015260840161018f565b600080856001600160a01b0316856040516102619190610452565b600060405180830381855af49150503d806000811461029c576040519150601f19603f3d011682016040523d82523d6000602084013e6102a1565b606091505b5090925090506102b28282866102ce565b9695505050505050565b6001600160a01b03163b151590565b90565b606083156102dd575081610117565b8251156102ed5782518084602001fd5b8160405162461bcd60e51b815260040161018f919061046e565b634e487b7160e01b600052604160045260246000fd5b60005b83811015610338578181015183820152602001610320565b838111156100ab5750506000910152565b6000806040838503121561035c57600080fd5b82516001600160a01b038116811461037357600080fd5b60208401519092506001600160401b038082111561039057600080fd5b818501915085601f8301126103a457600080fd5b8151818111156103b6576103b6610307565b604051601f8201601f19908116603f011681019083821181831017156103de576103de610307565b816040528281528860208487010111156103f757600080fd5b61040883602083016020880161031d565b80955050505050509250929050565b60008282101561043757634e487b7160e01b600052601160045260246000fd5b500390565b634e487b7160e01b600052600160045260246000fd5b6000825161046481846020870161031d565b9190910192915050565b602081526000825180602084015261048d81604085016020870161031d565b601f01601f19169190910160400192915050565b6102ba806104b06000396000f3fe60806040523661001357610011610017565b005b6100115b610027610022610067565b61009f565b565b606061004e838360405180606001604052806027815260200161025e602791396100c3565b9392505050565b6001600160a01b03163b151590565b90565b600061009a7f360894a13ba1a3210667c828492db98dca3e2076cc3735a920a3ca505d382bbc546001600160a01b031690565b905090565b3660008037600080366000845af43d6000803e8080156100be573d6000f35b3d6000fd5b60606001600160a01b0384163b6101305760405162461bcd60e51b815260206004820152602660248201527f416464726573733a2064656c65676174652063616c6c20746f206e6f6e2d636f6044820152651b9d1c9858dd60d21b60648201526084015b60405180910390fd5b600080856001600160a01b03168560405161014b919061020e565b600060405180830381855af49150503d8060008114610186576040519150601f19603f3d011682016040523d82523d6000602084013e61018b565b606091505b509150915061019b8282866101a5565b9695505050505050565b606083156101b457508161004e565b8251156101c45782518084602001fd5b8160405162461bcd60e51b8152600401610127919061022a565b60005b838110156101f95781810151838201526020016101e1565b83811115610208576000848401525b50505050565b600082516102208184602087016101de565b9190910192915050565b60208152600082518060208401526102498160408501602087016101de565b601f01601f1916919091016040019291505056fe416464726573733a206c6f772d6c6576656c2064656c65676174652063616c6c206661696c6564a26469706673582212206a9a8c80cf4acba4b799b5c7fb65ea2dad7950cdf128b00c6f7abfa4a4e576e164736f6c634300080d0033360894a13ba1a3210667c828492db98dca3e2076cc3735a920a3ca505d382bbc416464726573733a206c6f772d6c6576656c2064656c65676174652063616c6c206661696c6564a2646970667358221220dc39b034cb0ba77a3bfbd3bb58a098969e810a8964fba48799cf43d89a2f2ac364736f6c634300080d003360a0604052306080523480156200001557600080fd5b50600054610100900460ff16620000335760005460ff16156200003d565b6200003d620000e2565b620000a55760405162461bcd60e51b815260206004820152602e60248201527f496e697469616c697a61626c653a20636f6e747261637420697320616c72656160448201526d191e481a5b9a5d1a585b1a5e995960921b606482015260840160405180910390fd5b600054610100900460ff16158015620000c8576000805461ffff19166101011790555b8015620000db576000805461ff00191690555b506200010f565b6000620000fa306200010060201b620012e11760201c565b15905090565b6001600160a01b03163b151590565b60805161301e6200014760003960008181610c8901528181610cc901528181610da401528181610de40152610e73015261301e6000f3fe6080604052600436106101fd5760003560e01c806373808f251161010d578063b88d4fde116100a0578063d547741f1161006f578063d547741f14610594578063da1b3cb0146105b4578063e985e9c5146105bc578063fcf0f0d314610605578063fdf27dba1461062757600080fd5b8063b88d4fde14610527578063c87b56dd14610547578063cda493c814610567578063cf721b151461057c57600080fd5b8063a217fddf116100dc578063a217fddf146104c8578063a22cb465146104dd578063ac8070a9146104fd578063b4ce37d21461051257600080fd5b806373808f251461044d5780638456cb591461047e57806391d148541461049357806395d89b41146104b357600080fd5b806336568abe116101905780634f1ef2861161015f5780634f1ef286146103cd57806352d1902d146103e05780635c975abb146103f55780636352211e1461040d57806370a082311461042d57600080fd5b806336568abe146103585780633659cfe6146103785780633f4ba83a1461039857806342842e0e146103ad57600080fd5b8063176193c8116101cc578063176193c8146102ba57806323b872dd146102da578063248a9ca3146102fa5780632f2ff15d1461033857600080fd5b806301ffc9a71461020957806306fdde031461023e578063081812fc14610260578063095ea7b31461029857600080fd5b3661020457005b600080fd5b34801561021557600080fd5b506102296102243660046126a6565b61063e565b60405190151581526020015b60405180910390f35b34801561024a57600080fd5b5061025361064f565b604051610235919061271b565b34801561026c57600080fd5b5061028061027b36600461272e565b6106e1565b6040516001600160a01b039091168152602001610235565b3480156102a457600080fd5b506102b86102b3366004612763565b61077b565b005b3480156102c657600080fd5b506102b86102d5366004612830565b610890565b3480156102e657600080fd5b506102b86102f53660046128ee565b610baa565b34801561030657600080fd5b5061032a61031536600461272e565b600090815260c9602052604090206001015490565b604051908152602001610235565b34801561034457600080fd5b506102b861035336600461292a565b610bdb565b34801561036457600080fd5b506102b861037336600461292a565b610c01565b34801561038457600080fd5b506102b8610393366004612956565b610c7f565b3480156103a457600080fd5b506102b8610d5e565b3480156103b957600080fd5b506102b86103c83660046128ee565b610d7f565b6102b86103db366004612971565b610d9a565b3480156103ec57600080fd5b5061032a610e66565b34801561040157600080fd5b5060975460ff16610229565b34801561041957600080fd5b5061028061042836600461272e565b610f19565b34801561043957600080fd5b5061032a610448366004612956565b610f90565b34801561045957600080fd5b50610229610468366004612956565b6101966020526000908152604090205460ff1681565b34801561048a57600080fd5b506102b8611017565b34801561049f57600080fd5b506102296104ae36600461292a565b611038565b3480156104bf57600080fd5b50610253611063565b3480156104d457600080fd5b5061032a600081565b3480156104e957600080fd5b506102b86104f83660046129bf565b611072565b34801561050957600080fd5b5061025361107d565b34801561051e57600080fd5b5061025361110c565b34801561053357600080fd5b506102b86105423660046129fb565b61111a565b34801561055357600080fd5b5061025361056236600461272e565b611152565b34801561057357600080fd5b50610253611187565b34801561058857600080fd5b506101945461032a9081565b3480156105a057600080fd5b506102b86105af36600461292a565b611195565b61032a6111bb565b3480156105c857600080fd5b506102296105d7366004612a63565b6001600160a01b039182166000908152606a6020908152604080832093909416825291909152205460ff1690565b34801561061157600080fd5b5061032a600080516020612f8283398151915281565b34801561063357600080fd5b5061032a6101925481565b6000610649826112f0565b92915050565b60606065805461065e90612a8d565b80601f016020809104026020016040519081016040528092919081815260200182805461068a90612a8d565b80156106d75780601f106106ac576101008083540402835291602001916106d7565b820191906000526020600020905b8154815290600101906020018083116106ba57829003601f168201915b5050505050905090565b6000818152606760205260408120546001600160a01b031661075f5760405162461bcd60e51b815260206004820152602c60248201527f4552433732313a20617070726f76656420717565727920666f72206e6f6e657860448201526b34b9ba32b73a103a37b5b2b760a11b60648201526084015b60405180910390fd5b506000908152606960205260409020546001600160a01b031690565b600061078682610f19565b9050806001600160a01b0316836001600160a01b0316036107f35760405162461bcd60e51b815260206004820152602160248201527f4552433732313a20617070726f76616c20746f2063757272656e74206f776e656044820152603960f91b6064820152608401610756565b336001600160a01b038216148061080f575061080f81336105d7565b6108815760405162461bcd60e51b815260206004820152603860248201527f4552433732313a20617070726f76652063616c6c6572206973206e6f74206f7760448201527f6e6572206e6f7220617070726f76656420666f7220616c6c00000000000000006064820152608401610756565b61088b8383611315565b505050565b600054610100900460ff166108ab5760005460ff16156108af565b303b155b6109125760405162461bcd60e51b815260206004820152602e60248201527f496e697469616c697a61626c653a20636f6e747261637420697320616c72656160448201526d191e481a5b9a5d1a585b1a5e995960921b6064820152608401610756565b600054610100900460ff16158015610934576000805461ffff19166101011790555b85518690869086906000036109825760405162461bcd60e51b81526020600482015260146024820152734e616d652063616e6e6f7420626520656d70747960601b6044820152606401610756565b81516000036109cc5760405162461bcd60e51b815260206004820152601660248201527553796d626f6c2063616e6e6f7420626520656d70747960501b6044820152606401610756565b8051600003610a1d5760405162461bcd60e51b815260206004820152601860248201527f4c6f676f2055524c2063616e6e6f7420626520656d70747900000000000000006044820152606401610756565b6001600160a01b038616610a735760405162461bcd60e51b815260206004820181905260248201527f446576656c6f7065722063616e6e6f74206265207a65726f20616464726573736044820152606401610756565b8451600003610ac45760405162461bcd60e51b815260206004820152601e60248201527f4261736520746f6b656e205552492063616e6e6f7420626520656d70747900006044820152606401610756565b610ace8989611383565b610ad66113b4565b610ade6113e5565b610ae66113e5565b426101925560408051808201909152600580825264302e302e3160d81b6020909201918252610b1891610191916125f7565b508651610b2d906101939060208a01906125f7565b506000610b393061140c565b90508581604051602001610b4e929190612ae3565b6040516020818303038152906040526101959080519060200190610b739291906125f7565b50610b8c600080516020612f828339815191528861146b565b505050508015610ba2576000805461ff00191690555b505050505050565b610bb433826114f1565b610bd05760405162461bcd60e51b815260040161075690612b28565b61088b8383836115e4565b600082815260c96020526040902060010154610bf7813361178b565b61088b838361146b565b6001600160a01b0381163314610c715760405162461bcd60e51b815260206004820152602f60248201527f416363657373436f6e74726f6c3a2063616e206f6e6c792072656e6f756e636560448201526e103937b632b9903337b91039b2b63360891b6064820152608401610756565b610c7b82826117ef565b5050565b6001600160a01b037f0000000000000000000000000000000000000000000000000000000000000000163003610cc75760405162461bcd60e51b815260040161075690612b79565b7f00000000000000000000000000000000000000000000000000000000000000006001600160a01b0316610d10600080516020612fa2833981519152546001600160a01b031690565b6001600160a01b031614610d365760405162461bcd60e51b815260040161075690612bc5565b610d3f81611856565b60408051600080825260208201909252610d5b9183919061186f565b50565b600080516020612f82833981519152610d77813361178b565b610d5b6119da565b61088b8383836040518060200160405280600081525061111a565b6001600160a01b037f0000000000000000000000000000000000000000000000000000000000000000163003610de25760405162461bcd60e51b815260040161075690612b79565b7f00000000000000000000000000000000000000000000000000000000000000006001600160a01b0316610e2b600080516020612fa2833981519152546001600160a01b031690565b6001600160a01b031614610e515760405162461bcd60e51b815260040161075690612bc5565b610e5a82611856565b610c7b8282600161186f565b6000306001600160a01b037f00000000000000000000000000000000000000000000000000000000000000001614610f065760405162461bcd60e51b815260206004820152603860248201527f555550535570677261646561626c653a206d757374206e6f742062652063616c60448201527f6c6564207468726f7567682064656c656761746563616c6c00000000000000006064820152608401610756565b50600080516020612fa283398151915290565b6000818152606760205260408120546001600160a01b0316806106495760405162461bcd60e51b815260206004820152602960248201527f4552433732313a206f776e657220717565727920666f72206e6f6e657869737460448201526832b73a103a37b5b2b760b91b6064820152608401610756565b60006001600160a01b038216610ffb5760405162461bcd60e51b815260206004820152602a60248201527f4552433732313a2062616c616e636520717565727920666f7220746865207a65604482015269726f206164647265737360b01b6064820152608401610756565b506001600160a01b031660009081526068602052604090205490565b600080516020612f82833981519152611030813361178b565b610d5b611a6d565b600091825260c9602090815260408084206001600160a01b0393909316845291905290205460ff1690565b60606066805461065e90612a8d565b610c7b338383611ac5565b610193805461108b90612a8d565b80601f01602080910402602001604051908101604052809291908181526020018280546110b790612a8d565b80156111045780601f106110d957610100808354040283529160200191611104565b820191906000526020600020905b8154815290600101906020018083116110e757829003601f168201915b505050505081565b610195805461108b90612a8d565b61112433836114f1565b6111405760405162461bcd60e51b815260040161075690612b28565b61114c84848484611b93565b50505050565b606061019561116083611bc6565b604051602001611171929190612c11565b6040516020818303038152906040529050919050565b610191805461108b90612a8d565b600082815260c960205260409020600101546111b1813361178b565b61088b83836117ef565b6000600261015f54036112105760405162461bcd60e51b815260206004820152601f60248201527f5265656e7472616e637947756172643a207265656e7472616e742063616c6c006044820152606401610756565b600261015f5560975460ff16156112395760405162461bcd60e51b815260040161075690612cc5565b336000908152610196602052604090205460ff1615156001036112af5760405162461bcd60e51b815260206004820152602860248201527f4561636820616464726573732063616e206f6e6c79206d696e7420612062616460448201526733b29037b731b29760c11b6064820152608401610756565b60006112bb6101945490565b90506112cc61019480546001019055565b6112d63382611cf2565b9050600161015f5590565b6001600160a01b03163b151590565b60006001600160e01b03198216637965db0b60e01b1480610649575061064982611d0c565b600081815260696020526040902080546001600160a01b0319166001600160a01b038416908117909155819061134a82610f19565b6001600160a01b03167f8c5be1e5ebec7d5bd14f71427d1e84f3dd0314c0f7b2291e5b200ac8c7c3b92560405160405180910390a45050565b600054610100900460ff166113aa5760405162461bcd60e51b815260040161075690612cef565b610c7b8282611d5c565b600054610100900460ff166113db5760405162461bcd60e51b815260040161075690612cef565b6113e3611daa565b565b600054610100900460ff166113e35760405162461bcd60e51b815260040161075690612cef565b6060816000036114365750506040805180820190915260048152630307830360e41b602082015290565b8160005b8115611459578061144a81612d50565b915050600882901c915061143a565b6114638482611ddd565b949350505050565b6114758282611038565b610c7b57600082815260c9602090815260408083206001600160a01b03851684529091529020805460ff191660011790556114ad3390565b6001600160a01b0316816001600160a01b0316837f2f8788117e7eff1d82e926ec794901d17c78024a50270940304540a733656f0d60405160405180910390a45050565b6000818152606760205260408120546001600160a01b031661156a5760405162461bcd60e51b815260206004820152602c60248201527f4552433732313a206f70657261746f7220717565727920666f72206e6f6e657860448201526b34b9ba32b73a103a37b5b2b760a11b6064820152608401610756565b600061157583610f19565b9050806001600160a01b0316846001600160a01b031614806115b05750836001600160a01b03166115a5846106e1565b6001600160a01b0316145b8061146357506001600160a01b038082166000908152606a602090815260408083209388168352929052205460ff16611463565b826001600160a01b03166115f782610f19565b6001600160a01b03161461165b5760405162461bcd60e51b815260206004820152602560248201527f4552433732313a207472616e736665722066726f6d20696e636f72726563742060448201526437bbb732b960d91b6064820152608401610756565b6001600160a01b0382166116bd5760405162461bcd60e51b8152602060048201526024808201527f4552433732313a207472616e7366657220746f20746865207a65726f206164646044820152637265737360e01b6064820152608401610756565b6116c8838383611f80565b6116d3600082611315565b6001600160a01b03831660009081526068602052604081208054600192906116fc908490612d69565b90915550506001600160a01b038216600090815260686020526040812080546001929061172a908490612d80565b909155505060008181526067602052604080822080546001600160a01b0319166001600160a01b0386811691821790925591518493918716917fddf252ad1be2c89b69c2b068fc378daa952ba7f163c4a11628f55a4df523b3ef91a4505050565b6117958282611038565b610c7b576117ad816001600160a01b03166014611ffa565b6117b8836020611ffa565b6040516020016117c9929190612d98565b60408051601f198184030181529082905262461bcd60e51b82526107569160040161271b565b6117f98282611038565b15610c7b57600082815260c9602090815260408083206001600160a01b0385168085529252808320805460ff1916905551339285917ff6391f5c32d9c69d2a47ea670b442974b53935d1edc7fd64eb21e047a839171b9190a45050565b600080516020612f82833981519152610c7b813361178b565b7f4910fdfa16fed3260ed0e7147f7cc6da11a60208b5b9406d12a635614ffd91435460ff16156118a25761088b83612147565b826001600160a01b03166352d1902d6040518163ffffffff1660e01b8152600401602060405180830381865afa9250505080156118fc575060408051601f3d908101601f191682019092526118f991810190612e0d565b60015b61195f5760405162461bcd60e51b815260206004820152602e60248201527f45524331393637557067726164653a206e657720696d706c656d656e7461746960448201526d6f6e206973206e6f74205555505360901b6064820152608401610756565b600080516020612fa283398151915281146119ce5760405162461bcd60e51b815260206004820152602960248201527f45524331393637557067726164653a20756e737570706f727465642070726f786044820152681a58589b195555525160ba1b6064820152608401610756565b5061088b8383836121e3565b60975460ff16611a235760405162461bcd60e51b815260206004820152601460248201527314185d5cd8589b194e881b9bdd081c185d5cd95960621b6044820152606401610756565b6097805460ff191690557f5db9ee0a495bf2e6ff9c91a7834c1ba4fdd244a5e8aa4e537bd38aeae4b073aa335b6040516001600160a01b03909116815260200160405180910390a1565b60975460ff1615611a905760405162461bcd60e51b815260040161075690612cc5565b6097805460ff191660011790557f62e78cea01bee320cd4e420270b5ea74000d11b0c9f74754ebdbfc544b05a258611a503390565b816001600160a01b0316836001600160a01b031603611b265760405162461bcd60e51b815260206004820152601960248201527f4552433732313a20617070726f766520746f2063616c6c6572000000000000006044820152606401610756565b6001600160a01b038381166000818152606a6020908152604080832094871680845294825291829020805460ff191686151590811790915591519182527f17307eab39ab6107e8899845ad3d59bd9653f200f220920489ca2b5937696c31910160405180910390a3505050565b611b9e8484846115e4565b611baa84848484612208565b61114c5760405162461bcd60e51b815260040161075690612e26565b606081600003611bed5750506040805180820190915260018152600360fc1b602082015290565b8160005b8115611c175780611c0181612d50565b9150611c109050600a83612e78565b9150611bf1565b60008167ffffffffffffffff811115611c3257611c3261278d565b6040519080825280601f01601f191660200182016040528015611c5c576020820181803683370190505b509050815b8515611ce957611c72600182612d69565b90506000611c81600a88612e78565b611c8c90600a612e9a565b611c969088612d69565b611ca1906030612eb9565b905060008160f81b905080848481518110611cbe57611cbe612ede565b60200101906001600160f81b031916908160001a905350611ce0600a89612e78565b97505050611c61565b50949350505050565b610c7b828260405180602001604052806000815250612309565b60006001600160e01b031982166380ac58cd60e01b1480611d3d57506001600160e01b03198216635b5e139f60e01b145b8061064957506301ffc9a760e01b6001600160e01b0319831614610649565b600054610100900460ff16611d835760405162461bcd60e51b815260040161075690612cef565b8151611d969060659060208501906125f7565b50805161088b9060669060208401906125f7565b600054610100900460ff16611dd15760405162461bcd60e51b815260040161075690612cef565b6097805460ff19169055565b60606000611dec836002612e9a565b611df7906002612d80565b67ffffffffffffffff811115611e0f57611e0f61278d565b6040519080825280601f01601f191660200182016040528015611e39576020820181803683370190505b509050600360fc1b81600081518110611e5457611e54612ede565b60200101906001600160f81b031916908160001a905350600f60fb1b81600181518110611e8357611e83612ede565b60200101906001600160f81b031916908160001a9053506000611ea7846002612e9a565b611eb2906001612d80565b90505b6001811115611f2a576f181899199a1a9b1b9c1cb0b131b232b360811b85600f1660108110611ee657611ee6612ede565b1a60f81b828281518110611efc57611efc612ede565b60200101906001600160f81b031916908160001a90535060049490941c93611f2381612ef4565b9050611eb5565b508315611f795760405162461bcd60e51b815260206004820181905260248201527f537472696e67733a20686578206c656e67746820696e73756666696369656e746044820152606401610756565b9392505050565b60975460ff1615611fa35760405162461bcd60e51b815260040161075690612cc5565b6001600160a01b0383161561088b5760405162461bcd60e51b815260206004820152601a60248201527f4e4654205472616e7366657273206172652064697361626c65640000000000006044820152606401610756565b60606000612009836002612e9a565b612014906002612d80565b67ffffffffffffffff81111561202c5761202c61278d565b6040519080825280601f01601f191660200182016040528015612056576020820181803683370190505b509050600360fc1b8160008151811061207157612071612ede565b60200101906001600160f81b031916908160001a905350600f60fb1b816001815181106120a0576120a0612ede565b60200101906001600160f81b031916908160001a90535060006120c4846002612e9a565b6120cf906001612d80565b90505b6001811115611f2a576f181899199a1a9b1b9c1cb0b131b232b360811b85600f166010811061210357612103612ede565b1a60f81b82828151811061211957612119612ede565b60200101906001600160f81b031916908160001a90535060049490941c9361214081612ef4565b90506120d2565b6001600160a01b0381163b6121b45760405162461bcd60e51b815260206004820152602d60248201527f455243313936373a206e657720696d706c656d656e746174696f6e206973206e60448201526c1bdd08184818dbdb9d1c9858dd609a1b6064820152608401610756565b600080516020612fa283398151915280546001600160a01b0319166001600160a01b0392909216919091179055565b6121ec8361233c565b6000825111806121f95750805b1561088b5761114c838361237c565b60006001600160a01b0384163b156122fe57604051630a85bd0160e11b81526001600160a01b0385169063150b7a029061224c903390899088908890600401612f0b565b6020604051808303816000875af1925050508015612287575060408051601f3d908101601f1916820190925261228491810190612f48565b60015b6122e4573d8080156122b5576040519150601f19603f3d011682016040523d82523d6000602084013e6122ba565b606091505b5080516000036122dc5760405162461bcd60e51b815260040161075690612e26565b805181602001fd5b6001600160e01b031916630a85bd0160e11b149050611463565b506001949350505050565b6123138383612470565b6123206000848484612208565b61088b5760405162461bcd60e51b815260040161075690612e26565b61234581612147565b6040516001600160a01b038216907fbc7cd75a20ee27fd9adebab32041f755214dbc6bffa90cc0225b39da2e5c2d3b90600090a250565b60606001600160a01b0383163b6123e45760405162461bcd60e51b815260206004820152602660248201527f416464726573733a2064656c65676174652063616c6c20746f206e6f6e2d636f6044820152651b9d1c9858dd60d21b6064820152608401610756565b600080846001600160a01b0316846040516123ff9190612f65565b600060405180830381855af49150503d806000811461243a576040519150601f19603f3d011682016040523d82523d6000602084013e61243f565b606091505b50915091506124678282604051806060016040528060278152602001612fc2602791396125be565b95945050505050565b6001600160a01b0382166124c65760405162461bcd60e51b815260206004820181905260248201527f4552433732313a206d696e7420746f20746865207a65726f20616464726573736044820152606401610756565b6000818152606760205260409020546001600160a01b03161561252b5760405162461bcd60e51b815260206004820152601c60248201527f4552433732313a20746f6b656e20616c7265616479206d696e746564000000006044820152606401610756565b61253760008383611f80565b6001600160a01b0382166000908152606860205260408120805460019290612560908490612d80565b909155505060008181526067602052604080822080546001600160a01b0319166001600160a01b03861690811790915590518392907fddf252ad1be2c89b69c2b068fc378daa952ba7f163c4a11628f55a4df523b3ef908290a45050565b606083156125cd575081611f79565b8251156125dd5782518084602001fd5b8160405162461bcd60e51b8152600401610756919061271b565b82805461260390612a8d565b90600052602060002090601f016020900481019282612625576000855561266b565b82601f1061263e57805160ff191683800117855561266b565b8280016001018555821561266b579182015b8281111561266b578251825591602001919060010190612650565b5061267792915061267b565b5090565b5b80821115612677576000815560010161267c565b6001600160e01b031981168114610d5b57600080fd5b6000602082840312156126b857600080fd5b8135611f7981612690565b60005b838110156126de5781810151838201526020016126c6565b8381111561114c5750506000910152565b600081518084526127078160208601602086016126c3565b601f01601f19169290920160200192915050565b602081526000611f7960208301846126ef565b60006020828403121561274057600080fd5b5035919050565b80356001600160a01b038116811461275e57600080fd5b919050565b6000806040838503121561277657600080fd5b61277f83612747565b946020939093013593505050565b634e487b7160e01b600052604160045260246000fd5b600082601f8301126127b457600080fd5b813567ffffffffffffffff808211156127cf576127cf61278d565b604051601f8301601f19908116603f011681019082821181831017156127f7576127f761278d565b8160405283815286602085880101111561281057600080fd5b836020870160208301376000602085830101528094505050505092915050565b600080600080600060a0868803121561284857600080fd5b853567ffffffffffffffff8082111561286057600080fd5b61286c89838a016127a3565b9650602088013591508082111561288257600080fd5b61288e89838a016127a3565b955060408801359150808211156128a457600080fd5b6128b089838a016127a3565b94506128be60608901612747565b935060808801359150808211156128d457600080fd5b506128e1888289016127a3565b9150509295509295909350565b60008060006060848603121561290357600080fd5b61290c84612747565b925061291a60208501612747565b9150604084013590509250925092565b6000806040838503121561293d57600080fd5b8235915061294d60208401612747565b90509250929050565b60006020828403121561296857600080fd5b611f7982612747565b6000806040838503121561298457600080fd5b61298d83612747565b9150602083013567ffffffffffffffff8111156129a957600080fd5b6129b5858286016127a3565b9150509250929050565b600080604083850312156129d257600080fd5b6129db83612747565b9150602083013580151581146129f057600080fd5b809150509250929050565b60008060008060808587031215612a1157600080fd5b612a1a85612747565b9350612a2860208601612747565b925060408501359150606085013567ffffffffffffffff811115612a4b57600080fd5b612a57878288016127a3565b91505092959194509250565b60008060408385031215612a7657600080fd5b612a7f83612747565b915061294d60208401612747565b600181811c90821680612aa157607f821691505b602082108103612ac157634e487b7160e01b600052602260045260246000fd5b50919050565b60008151612ad98185602086016126c3565b9290920192915050565b60008351612af58184602088016126c3565b8083019050602f60f81b8082528451612b158160018501602089016126c3565b6001920191820152600201949350505050565b60208082526031908201527f4552433732313a207472616e736665722063616c6c6572206973206e6f74206f6040820152701ddb995c881b9bdc88185c1c1c9bdd9959607a1b606082015260800190565b6020808252602c908201527f46756e6374696f6e206d7573742062652063616c6c6564207468726f7567682060408201526b19195b1959d85d1958d85b1b60a21b606082015260800190565b6020808252602c908201527f46756e6374696f6e206d7573742062652063616c6c6564207468726f7567682060408201526b6163746976652070726f787960a01b606082015260800190565b600080845481600182811c915080831680612c2d57607f831692505b60208084108203612c4c57634e487b7160e01b86526022600452602486fd5b818015612c605760018114612c7157612c9e565b60ff19861689528489019650612c9e565b60008b81526020902060005b86811015612c965781548b820152908501908301612c7d565b505084890196505b505050505050612cae8185612ac7565b64173539b7b760d91b815260050195945050505050565b60208082526010908201526f14185d5cd8589b194e881c185d5cd95960821b604082015260600190565b6020808252602b908201527f496e697469616c697a61626c653a20636f6e7472616374206973206e6f74206960408201526a6e697469616c697a696e6760a81b606082015260800190565b634e487b7160e01b600052601160045260246000fd5b600060018201612d6257612d62612d3a565b5060010190565b600082821015612d7b57612d7b612d3a565b500390565b60008219821115612d9357612d93612d3a565b500190565b7f416363657373436f6e74726f6c3a206163636f756e7420000000000000000000815260008351612dd08160178501602088016126c3565b7001034b99036b4b9b9b4b733903937b6329607d1b6017918401918201528351612e018160288401602088016126c3565b01602801949350505050565b600060208284031215612e1f57600080fd5b5051919050565b60208082526032908201527f4552433732313a207472616e7366657220746f206e6f6e20455243373231526560408201527131b2b4bb32b91034b6b83632b6b2b73a32b960711b606082015260800190565b600082612e9557634e487b7160e01b600052601260045260246000fd5b500490565b6000816000190483118215151615612eb457612eb4612d3a565b500290565b600060ff821660ff84168060ff03821115612ed657612ed6612d3a565b019392505050565b634e487b7160e01b600052603260045260246000fd5b600081612f0357612f03612d3a565b506000190190565b6001600160a01b0385811682528416602082015260408101839052608060608201819052600090612f3e908301846126ef565b9695505050505050565b600060208284031215612f5a57600080fd5b8151611f7981612690565b60008251612f778184602087016126c3565b919091019291505056fe51b355059847d158e68950419dbcd54fad00bdfd0634c2515a5c533288c7f0a2360894a13ba1a3210667c828492db98dca3e2076cc3735a920a3ca505d382bbc416464726573733a206c6f772d6c6576656c2064656c65676174652063616c6c206661696c6564a2646970667358221220ec03cb7fb9fe36136cba68e87d88f0c7413c057f7ae2310b4c489dd30319471064736f6c634300080d0033",
  "linkReferences": {},
  "deployedLinkReferences": {}
}