{
  "_format": "hh-sol-artifact-1",
  "contractName": "CrowdSaleFactory",
  "sourceName": "contracts/CrowdSaleFactory.sol",
  "abi": [
    {
      "inputs": [
        {
          "internalType": "address",
          "name": "dao",
          "type": "address"
        },
        {
          "internalType": "address",
          "name": "_fxConstants",
          "type": "address"
        }
      ],
      "stateMutability": "nonpayable",
      "type": "constructor"
    },
    {
      "anonymous": false,
      "inputs": [
        {
          "indexed": false,
          "internalType": "address",
          "name": "crowdsaleAddress",
          "type": "address"
        },
        {
          "indexed": false,
          "internalType": "address",
          "name": "guildToken",
          "type": "address"
        },
        {
          "indexed": false,
          "internalType": "address",
          "name": "dao",
          "type": "address"
        },
        {
          "indexed": false,
          "internalType": "address",
          "name": "developer",
          "type": "address"
        },
        {
          "indexed": false,
          "internalType": "address",
          "name": "treasury",
          "type": "address"
        },
        {
          "indexed": false,
          "internalType": "uint256",
          "name": "startingPrice",
          "type": "uint256"
        },
        {
          "indexed": false,
          "internalType": "address",
          "name": "deployer",
          "type": "address"
        }
      ],
      "name": "CrowdSaleCreated",
      "type": "event"
    },
    {
      "anonymous": false,
      "inputs": [
        {
          "indexed": false,
          "internalType": "address",
          "name": "staffMember",
          "type": "address"
        },
        {
          "indexed": false,
          "internalType": "address",
          "name": "whitelistedBy",
          "type": "address"
        },
        {
          "indexed": false,
          "internalType": "bool",
          "name": "isActive",
          "type": "bool"
        }
      ],
      "name": "FactoryStaffWhitelist",
      "type": "event"
    },
    {
      "anonymous": false,
      "inputs": [
        {
          "indexed": false,
          "internalType": "address",
          "name": "guildOwner",
          "type": "address"
        },
        {
          "indexed": false,
          "internalType": "address",
          "name": "whitelistedBy",
          "type": "address"
        },
        {
          "indexed": false,
          "internalType": "bool",
          "name": "isActive",
          "type": "bool"
        }
      ],
      "name": "GuildOwnerWhitelist",
      "type": "event"
    },
    {
      "anonymous": false,
      "inputs": [
        {
          "indexed": false,
          "internalType": "address",
          "name": "account",
          "type": "address"
        }
      ],
      "name": "Paused",
      "type": "event"
    },
    {
      "anonymous": false,
      "inputs": [
        {
          "indexed": true,
          "internalType": "bytes32",
          "name": "role",
          "type": "bytes32"
        },
        {
          "indexed": true,
          "internalType": "bytes32",
          "name": "previousAdminRole",
          "type": "bytes32"
        },
        {
          "indexed": true,
          "internalType": "bytes32",
          "name": "newAdminRole",
          "type": "bytes32"
        }
      ],
      "name": "RoleAdminChanged",
      "type": "event"
    },
    {
      "anonymous": false,
      "inputs": [
        {
          "indexed": true,
          "internalType": "bytes32",
          "name": "role",
          "type": "bytes32"
        },
        {
          "indexed": true,
          "internalType": "address",
          "name": "account",
          "type": "address"
        },
        {
          "indexed": true,
          "internalType": "address",
          "name": "sender",
          "type": "address"
        }
      ],
      "name": "RoleGranted",
      "type": "event"
    },
    {
      "anonymous": false,
      "inputs": [
        {
          "indexed": true,
          "internalType": "bytes32",
          "name": "role",
          "type": "bytes32"
        },
        {
          "indexed": true,
          "internalType": "address",
          "name": "account",
          "type": "address"
        },
        {
          "indexed": true,
          "internalType": "address",
          "name": "sender",
          "type": "address"
        }
      ],
      "name": "RoleRevoked",
      "type": "event"
    },
    {
      "anonymous": false,
      "inputs": [
        {
          "indexed": false,
          "internalType": "address",
          "name": "account",
          "type": "address"
        }
      ],
      "name": "Unpaused",
      "type": "event"
    },
    {
      "inputs": [],
      "name": "DAO_ROLE",
      "outputs": [
        {
          "internalType": "bytes32",
          "name": "",
          "type": "bytes32"
        }
      ],
      "stateMutability": "view",
      "type": "function"
    },
    {
      "inputs": [],
      "name": "DEFAULT_ADMIN_ROLE",
      "outputs": [
        {
          "internalType": "bytes32",
          "name": "",
          "type": "bytes32"
        }
      ],
      "stateMutability": "view",
      "type": "function"
    },
    {
      "inputs": [],
      "name": "GFX_STAFF_ROLE",
      "outputs": [
        {
          "internalType": "bytes32",
          "name": "",
          "type": "bytes32"
        }
      ],
      "stateMutability": "view",
      "type": "function"
    },
    {
      "inputs": [],
      "name": "GOVERNOR_ROLE",
      "outputs": [
        {
          "internalType": "bytes32",
          "name": "",
          "type": "bytes32"
        }
      ],
      "stateMutability": "view",
      "type": "function"
    },
    {
      "inputs": [],
      "name": "GUILD_OWNER_ROLE",
      "outputs": [
        {
          "internalType": "bytes32",
          "name": "",
          "type": "bytes32"
        }
      ],
      "stateMutability": "view",
      "type": "function"
    },
    {
      "inputs": [
        {
          "internalType": "address",
          "name": "guildToken",
          "type": "address"
        },
        {
          "internalType": "address",
          "name": "guildDao",
          "type": "address"
        },
        {
          "internalType": "address",
          "name": "guildDev",
          "type": "address"
        },
        {
          "internalType": "address",
          "name": "guildTreasury",
          "type": "address"
        },
        {
          "internalType": "uint256",
          "name": "startingPrice",
          "type": "uint256"
        }
      ],
      "name": "createCrowdSale",
      "outputs": [
        {
          "internalType": "address",
          "name": "",
          "type": "address"
        }
      ],
      "stateMutability": "nonpayable",
      "type": "function"
    },
    {
      "inputs": [],
      "name": "fxConstants",
      "outputs": [
        {
          "internalType": "address",
          "name": "",
          "type": "address"
        }
      ],
      "stateMutability": "view",
      "type": "function"
    },
    {
      "inputs": [
        {
          "internalType": "bytes32",
          "name": "role",
          "type": "bytes32"
        }
      ],
      "name": "getRoleAdmin",
      "outputs": [
        {
          "internalType": "bytes32",
          "name": "",
          "type": "bytes32"
        }
      ],
      "stateMutability": "view",
      "type": "function"
    },
    {
      "inputs": [
        {
          "internalType": "bytes32",
          "name": "role",
          "type": "bytes32"
        },
        {
          "internalType": "address",
          "name": "account",
          "type": "address"
        }
      ],
      "name": "grantRole",
      "outputs": [],
      "stateMutability": "nonpayable",
      "type": "function"
    },
    {
      "inputs": [
        {
          "internalType": "bytes32",
          "name": "role",
          "type": "bytes32"
        },
        {
          "internalType": "address",
          "name": "account",
          "type": "address"
        }
      ],
      "name": "hasRole",
      "outputs": [
        {
          "internalType": "bool",
          "name": "",
          "type": "bool"
        }
      ],
      "stateMutability": "view",
      "type": "function"
    },
    {
      "inputs": [],
      "name": "pause",
      "outputs": [],
      "stateMutability": "nonpayable",
      "type": "function"
    },
    {
      "inputs": [],
      "name": "paused",
      "outputs": [
        {
          "internalType": "bool",
          "name": "",
          "type": "bool"
        }
      ],
      "stateMutability": "view",
      "type": "function"
    },
    {
      "inputs": [
        {
          "internalType": "bytes32",
          "name": "role",
          "type": "bytes32"
        },
        {
          "internalType": "address",
          "name": "account",
          "type": "address"
        }
      ],
      "name": "renounceRole",
      "outputs": [],
      "stateMutability": "nonpayable",
      "type": "function"
    },
    {
      "inputs": [
        {
          "internalType": "bytes32",
          "name": "role",
          "type": "bytes32"
        },
        {
          "internalType": "address",
          "name": "account",
          "type": "address"
        }
      ],
      "name": "revokeRole",
      "outputs": [],
      "stateMutability": "nonpayable",
      "type": "function"
    },
    {
      "inputs": [
        {
          "internalType": "bytes4",
          "name": "interfaceId",
          "type": "bytes4"
        }
      ],
      "name": "supportsInterface",
      "outputs": [
        {
          "internalType": "bool",
          "name": "",
          "type": "bool"
        }
      ],
      "stateMutability": "view",
      "type": "function"
    },
    {
      "inputs": [],
      "name": "unpause",
      "outputs": [],
      "stateMutability": "nonpayable",
      "type": "function"
    },
    {
      "inputs": [],
      "name": "viewCrowdSales",
      "outputs": [
        {
          "internalType": "bytes32[]",
          "name": "",
          "type": "bytes32[]"
        }
      ],
      "stateMutability": "view",
      "type": "function"
    },
    {
      "inputs": [
        {
          "internalType": "address",
          "name": "staffMember",
          "type": "address"
        },
        {
          "internalType": "bool",
          "name": "isActive",
          "type": "bool"
        }
      ],
      "name": "whitelistGFXStaff",
      "outputs": [],
      "stateMutability": "nonpayable",
      "type": "function"
    },
    {
      "inputs": [
        {
          "internalType": "address",
          "name": "guildOwner",
          "type": "address"
        },
        {
          "internalType": "bool",
          "name": "isActive",
          "type": "bool"
        }
      ],
      "name": "whitelistGuildOwner",
      "outputs": [],
      "stateMutability": "nonpayable",
      "type": "function"
    }
  ],
  "bytecode": "0x60a06040523480156200001157600080fd5b5060405162003e7938038062003e79833981016040819052620000349162000268565b6000805460ff191690556001600160a01b0382166200009a5760405162461bcd60e51b815260206004820152601a60248201527f44414f20616464726573732063616e6e6f74206265207a65726f00000000000060448201526064015b60405180910390fd5b6001600160a01b038116620000fd5760405162461bcd60e51b815260206004820152602260248201527f4658436f6e7374616e747320616464726573732063616e6e6f74206265207a65604482015261726f60f01b606482015260840162000091565b6040516200010b906200023d565b604051809103906000f08015801562000128573d6000803e3d6000fd5b5060601b6001600160601b031916608052600280546001600160a01b0319166001600160a01b038316179055620001807f3b5d4cc60d3ec3516ee8ae083bd60934f6eb2a6c54b1229985c41bfb092b260383620001b4565b620001ac7f8ae1611d7daa1c9c873feaa39afeb6b3d7220120561f34503d5a3e228d4bd8cc83620001b4565b50506200029f565b60008281526001602090815260408083206001600160a01b038516845290915290205460ff16620002395760008281526001602081815260408084206001600160a01b0386168086529252808420805460ff19169093179092559051339285917f2f8788117e7eff1d82e926ec794901d17c78024a50270940304540a733656f0d9190a45b5050565b6123918062001ae883390190565b80516001600160a01b03811681146200026357600080fd5b919050565b600080604083850312156200027b578182fd5b62000286836200024b565b915062000296602084016200024b565b90509250929050565b60805160601c61182a620002be60003960006104ea015261182a6000f3fe60806040523480156200001157600080fd5b5060043610620001395760003560e01c806391d1485411620000bb578063d547741f116200007a578063d547741f14620002ac578063d9dbee6a14620002c3578063e4a79db314620002da578063e9c2651814620002f1578063f1e26b0c146200030857600080fd5b806391d148541462000237578063a217fddf146200024e578063bb9260611462000257578063bca084af146200026b578063ccc57490146200028457600080fd5b80633f4ba83a11620001085780633f4ba83a14620001d05780635c975abb14620001da57806380fab50114620001e65780638456cb5914620002165780638d280a09146200022057600080fd5b806301ffc9a7146200013e578063248a9ca3146200016a5780632f2ff15d14620001a057806336568abe14620001b9575b600080fd5b620001556200014f36600462000df2565b6200031f565b60405190151581526020015b60405180910390f35b620001916200017b36600462000dab565b6000908152600160208190526040909120015490565b60405190815260200162000161565b620001b7620001b136600462000dc4565b62000357565b005b620001b7620001ca36600462000dc4565b62000387565b620001b76200040d565b60005460ff1662000155565b620001fd620001f736600462000d09565b62000436565b6040516001600160a01b03909116815260200162000161565b620001b7620005c3565b620001b76200023136600462000d6d565b620005e9565b620001556200024836600462000dc4565b620006c1565b62000191600081565b600254620001fd906001600160a01b031681565b62000275620006ec565b60405162000161919062000ef1565b620001917f7935bd0ae54bc31f548c14dba4d37c5c64b3f8ca900cb468fb8abd54d5894f5581565b620001b7620002bd36600462000dc4565b62000745565b62000191600080516020620017b583398151915281565b62000191600080516020620017d583398151915281565b620001916000805160206200179583398151915281565b620001b76200031936600462000d6d565b62000770565b60006001600160e01b03198216637965db0b60e01b14806200035157506301ffc9a760e01b6001600160e01b03198316145b92915050565b6000828152600160208190526040909120015462000376813362000840565b620003828383620008af565b505050565b6001600160a01b0381163314620003fd5760405162461bcd60e51b815260206004820152602f60248201527f416363657373436f6e74726f6c3a2063616e206f6e6c792072656e6f756e636560448201526e103937b632b9903337b91039b2b63360891b60648201526084015b60405180910390fd5b6200040982826200091d565b5050565b6000805160206200179583398151915262000429813362000840565b6200043362000987565b50565b6000600080516020620017b583398151915262000454813362000840565b60005460ff16156200047a5760405162461bcd60e51b8152600401620003f49062000f4c565b600254604080516001600160a01b038a8116602483015289811660448301528881166064830152928316608482015291861660a483015260c48083018690528151808403909101815260e490920181526020820180516001600160e01b031663256dbbc360e21b179052516000917f000000000000000000000000000000000000000000000000000000000000000091620005159062000cde565b6200052292919062000ec3565b604051809103906000f0801580156200053f573d6000803e3d6000fd5b5090506200054f60038262000a1c565b50604080516001600160a01b0383811682528a811660208301528981168284015288811660608301528716608082015260a081018690523360c082015290517f91923c753af8073de16d4defbd871f6efb732420bf135e681ce82a88c0d159bf9181900360e00190a1979650505050505050565b60008051602062001795833981519152620005df813362000840565b6200043362000a3a565b600080516020620017d583398151915262000605813362000840565b60005460ff16156200062b5760405162461bcd60e51b8152600401620003f49062000f4c565b811562000653576200064d600080516020620017b583398151915284620008af565b6200066e565b6200066e600080516020620017b5833981519152846200091d565b604080516001600160a01b0385168152336020820152831515918101919091527f6a35acef00b26637e7fb728cc3feaeef68efbd3b6d1c45b2c4c130917adf3730906060015b60405180910390a1505050565b60009182526001602090815260408084206001600160a01b0393909316845291905290205460ff1690565b6003805460408051602080840282018101909252828152606093909290918301828280156200073b57602002820191906000526020600020905b81548152602001906001019080831162000726575b5050505050905090565b6000828152600160208190526040909120015462000764813362000840565b6200038283836200091d565b600080516020620017958339815191526200078c813362000840565b60005460ff1615620007b25760405162461bcd60e51b8152600401620003f49062000f4c565b8115620007da57620007d4600080516020620017d583398151915284620008af565b620007f5565b620007f5600080516020620017d5833981519152846200091d565b604080516001600160a01b0385168152336020820152831515918101919091527fb543a87c6e9bb29fedbfa2e18b546a7472d439f3066c9e43d255e5fb6f5edf9d90606001620006b4565b6200084c8282620006c1565b620004095762000867816001600160a01b0316601462000a96565b6200087483602062000a96565b6040516020016200088792919062000e4a565b60408051601f198184030181529082905262461bcd60e51b8252620003f49160040162000f37565b620008bb8282620006c1565b620004095760008281526001602081815260408084206001600160a01b0386168086529252808420805460ff19169093179092559051339285917f2f8788117e7eff1d82e926ec794901d17c78024a50270940304540a733656f0d9190a45050565b620009298282620006c1565b15620004095760008281526001602090815260408083206001600160a01b0385168085529252808320805460ff1916905551339285917ff6391f5c32d9c69d2a47ea670b442974b53935d1edc7fd64eb21e047a839171b9190a45050565b60005460ff16620009d25760405162461bcd60e51b815260206004820152601460248201527314185d5cd8589b194e881b9bdd081c185d5cd95960621b6044820152606401620003f4565b6000805460ff191690557f5db9ee0a495bf2e6ff9c91a7834c1ba4fdd244a5e8aa4e537bd38aeae4b073aa335b6040516001600160a01b03909116815260200160405180910390a1565b600062000a33836001600160a01b03841662000c8c565b9392505050565b60005460ff161562000a605760405162461bcd60e51b8152600401620003f49062000f4c565b6000805460ff191660011790557f62e78cea01bee320cd4e420270b5ea74000d11b0c9f74754ebdbfc544b05a258620009ff3390565b6060600062000aa783600262000f91565b62000ab490600262000f76565b67ffffffffffffffff81111562000adb57634e487b7160e01b600052604160045260246000fd5b6040519080825280601f01601f19166020018201604052801562000b06576020820181803683370190505b509050600360fc1b8160008151811062000b3057634e487b7160e01b600052603260045260246000fd5b60200101906001600160f81b031916908160001a905350600f60fb1b8160018151811062000b6e57634e487b7160e01b600052603260045260246000fd5b60200101906001600160f81b031916908160001a905350600062000b9484600262000f91565b62000ba190600162000f76565b90505b600181111562000c3b576f181899199a1a9b1b9c1cb0b131b232b360811b85600f166010811062000be557634e487b7160e01b600052603260045260246000fd5b1a60f81b82828151811062000c0a57634e487b7160e01b600052603260045260246000fd5b60200101906001600160f81b031916908160001a90535060049490941c9362000c338162000fe6565b905062000ba4565b50831562000a335760405162461bcd60e51b815260206004820181905260248201527f537472696e67733a20686578206c656e67746820696e73756666696369656e746044820152606401620003f4565b600081815260018301602052604081205462000cd55750815460018181018455600084815260208082209093018490558454848252828601909352604090209190915562000351565b50600062000351565b61077e806200101783390190565b80356001600160a01b038116811462000d0457600080fd5b919050565b600080600080600060a0868803121562000d21578081fd5b62000d2c8662000cec565b945062000d3c6020870162000cec565b935062000d4c6040870162000cec565b925062000d5c6060870162000cec565b949793965091946080013592915050565b6000806040838503121562000d80578182fd5b62000d8b8362000cec565b91506020830135801515811462000da0578182fd5b809150509250929050565b60006020828403121562000dbd578081fd5b5035919050565b6000806040838503121562000dd7578182fd5b8235915062000de96020840162000cec565b90509250929050565b60006020828403121562000e04578081fd5b81356001600160e01b03198116811462000a33578182fd5b6000815180845262000e3681602086016020860162000fb3565b601f01601f19169290920160200192915050565b7f416363657373436f6e74726f6c3a206163636f756e742000000000000000000081526000835162000e8481601785016020880162000fb3565b7001034b99036b4b9b9b4b733903937b6329607d1b601791840191820152835162000eb781602884016020880162000fb3565b01602801949350505050565b6001600160a01b038316815260406020820181905260009062000ee99083018462000e1c565b949350505050565b6020808252825182820181905260009190848201906040850190845b8181101562000f2b5783518352928401929184019160010162000f0d565b50909695505050505050565b60208152600062000a33602083018462000e1c565b60208082526010908201526f14185d5cd8589b194e881c185d5cd95960821b604082015260600190565b6000821982111562000f8c5762000f8c62001000565b500190565b600081600019048311821515161562000fae5762000fae62001000565b500290565b60005b8381101562000fd057818101518382015260200162000fb6565b8381111562000fe0576000848401525b50505050565b60008162000ff85762000ff862001000565b506000190190565b634e487b7160e01b600052601160045260246000fdfe608060405260405161077e38038061077e83398101604081905261002291610303565b61004d60017f360894a13ba1a3210667c828492db98dca3e2076cc3735a920a3ca505d382bbd61041b565b6000805160206107378339815191521461007757634e487b7160e01b600052600160045260246000fd5b6100838282600061008a565b5050610480565b610093836100c0565b6000825111806100a05750805b156100bb576100b9838361010060201b6100291760201c565b505b505050565b6100c98161012c565b6040516001600160a01b038216907fbc7cd75a20ee27fd9adebab32041f755214dbc6bffa90cc0225b39da2e5c2d3b90600090a250565b60606101258383604051806060016040528060278152602001610757602791396101ec565b9392505050565b61013f816102c160201b6100551760201c565b6101a65760405162461bcd60e51b815260206004820152602d60248201527f455243313936373a206e657720696d706c656d656e746174696f6e206973206e60448201526c1bdd08184818dbdb9d1c9858dd609a1b60648201526084015b60405180910390fd5b806101cb60008051602061073783398151915260001b6102c760201b61005b1760201c565b80546001600160a01b0319166001600160a01b039290921691909117905550565b6060833b61024b5760405162461bcd60e51b815260206004820152602660248201527f416464726573733a2064656c65676174652063616c6c20746f206e6f6e2d636f6044820152651b9d1c9858dd60d21b606482015260840161019d565b600080856001600160a01b03168560405161026691906103cc565b600060405180830381855af49150503d80600081146102a1576040519150601f19603f3d011682016040523d82523d6000602084013e6102a6565b606091505b5090925090506102b78282866102ca565b9695505050505050565b3b151590565b90565b606083156102d9575081610125565b8251156102e95782518084602001fd5b8160405162461bcd60e51b815260040161019d91906103e8565b60008060408385031215610315578182fd5b82516001600160a01b038116811461032b578283fd5b60208401519092506001600160401b0380821115610347578283fd5b818501915085601f83011261035a578283fd5b81518181111561036c5761036c61046a565b604051601f8201601f19908116603f011681019083821181831017156103945761039461046a565b816040528281528860208487010111156103ac578586fd5b6103bd83602083016020880161043e565b80955050505050509250929050565b600082516103de81846020870161043e565b9190910192915050565b602081526000825180602084015261040781604085016020870161043e565b601f01601f19169190910160400192915050565b60008282101561043957634e487b7160e01b81526011600452602481fd5b500390565b60005b83811015610459578181015183820152602001610441565b838111156100b95750506000910152565b634e487b7160e01b600052604160045260246000fd5b6102a88061048f6000396000f3fe60806040523661001357610011610017565b005b6100115b61002761002261005e565b610096565b565b606061004e838360405180606001604052806027815260200161024c602791396100ba565b9392505050565b3b151590565b90565b60006100917f360894a13ba1a3210667c828492db98dca3e2076cc3735a920a3ca505d382bbc546001600160a01b031690565b905090565b3660008037600080366000845af43d6000803e8080156100b5573d6000f35b3d6000fd5b6060833b61011e5760405162461bcd60e51b815260206004820152602660248201527f416464726573733a2064656c65676174652063616c6c20746f206e6f6e2d636f6044820152651b9d1c9858dd60d21b60648201526084015b60405180910390fd5b600080856001600160a01b03168560405161013991906101cc565b600060405180830381855af49150503d8060008114610174576040519150601f19603f3d011682016040523d82523d6000602084013e610179565b606091505b5091509150610189828286610193565b9695505050505050565b606083156101a257508161004e565b8251156101b25782518084602001fd5b8160405162461bcd60e51b815260040161011591906101e8565b600082516101de81846020870161021b565b9190910192915050565b602081526000825180602084015261020781604085016020870161021b565b601f01601f19169190910160400192915050565b60005b8381101561023657818101518382015260200161021e565b83811115610245576000848401525b5050505056fe416464726573733a206c6f772d6c6576656c2064656c65676174652063616c6c206661696c6564a2646970667358221220e81a0599646281ed22237c6e1a71af27aae7c9778a3595bc0dc875135584b7d564736f6c63430008040033360894a13ba1a3210667c828492db98dca3e2076cc3735a920a3ca505d382bbc416464726573733a206c6f772d6c6576656c2064656c65676174652063616c6c206661696c65643b5d4cc60d3ec3516ee8ae083bd60934f6eb2a6c54b1229985c41bfb092b2603a2a0f3abc8d1cdd438391ba04f95e521ce8fb935744f22815da1c0326e73a5fb8ae1611d7daa1c9c873feaa39afeb6b3d7220120561f34503d5a3e228d4bd8cca2646970667358221220f3723b0c94d74d52f0cfba7852702d25a487b97a5482371a17fab3677136fb0b64736f6c6343000804003360a06040523060601b6080523480156200001857600080fd5b50600054610100900460ff16620000365760005460ff161562000040565b62000040620000e5565b620000a85760405162461bcd60e51b815260206004820152602e60248201527f496e697469616c697a61626c653a20636f6e747261637420697320616c72656160448201526d191e481a5b9a5d1a585b1a5e995960921b606482015260840160405180910390fd5b600054610100900460ff16158015620000cb576000805461ffff19166101011790555b8015620000de576000805461ff00191690555b5062000109565b6000620000fd306200010360201b6200103b1760201c565b15905090565b3b151590565b60805160601c6122546200013d600039600081816106af015281816106ef01528181610803015261084301526122546000f3fe6080604052600436106101b75760003560e01c80638ce5d764116100ec578063c9e7deec1161008a578063f057adbb11610064578063f057adbb14610476578063f2220c9e14610489578063f5d54c771461049e578063fdf27dba146104bf57600080fd5b8063c9e7deec1461042c578063d547741f14610443578063e5f3707d1461046357600080fd5b8063a217fddf116100c6578063a217fddf146103ce578063a5558803146103e3578063a607a8d914610404578063bcc6fc0e1461041957600080fd5b80638ce5d7641461037b57806391d148541461038e57806395b6ef0c146103ae57600080fd5b80633f4ba83a116101595780634f1ef286116101335780634f1ef28614610324578063575f8147146103375780635c975abb1461034e5780638456cb591461036657600080fd5b80633f4ba83a146102df57806349343cee146102f45780634ad517bc1461030f57600080fd5b80632d2c5565116101955780632d2c5565146102445780632f2ff15d1461027d57806336568abe1461029f5780633659cfe6146102bf57600080fd5b806301ffc9a7146101bc578063046ad71d146101f1578063248a9ca314610214575b600080fd5b3480156101c857600080fd5b506101dc6101d7366004611dad565b6104d6565b60405190151581526020015b60405180910390f35b3480156101fd57600080fd5b5061020661050d565b6040519081526020016101e8565b34801561022057600080fd5b5061020661022f366004611d66565b60009081526097602052604090206001015490565b34801561025057600080fd5b5061013254610265906001600160a01b031681565b6040516001600160a01b0390911681526020016101e8565b34801561028957600080fd5b5061029d610298366004611d7e565b6105fb565b005b3480156102ab57600080fd5b5061029d6102ba366004611d7e565b610626565b3480156102cb57600080fd5b5061029d6102da366004611bd7565b6106a4565b3480156102eb57600080fd5b5061029d61076d565b34801561030057600080fd5b50610137546101dc9060ff1681565b34801561031b57600080fd5b506102066107a0565b61029d610332366004611c87565b6107f8565b34801561034357600080fd5b506102066101315481565b34801561035a57600080fd5b5060335460ff166101dc565b34801561037257600080fd5b5061029d6108ae565b61029d610389366004611d66565b6108e1565b34801561039a57600080fd5b506101dc6103a9366004611d7e565b610b76565b3480156103ba57600080fd5b5061029d6103c9366004611c0f565b610ba1565b3480156103da57600080fd5b50610206600081565b3480156103ef57600080fd5b5061013454610265906001600160a01b031681565b34801561041057600080fd5b50610206610d1f565b61029d610427366004611d66565b610d77565b34801561043857600080fd5b506102066101365481565b34801561044f57600080fd5b5061029d61045e366004611d7e565b610dfc565b61029d610471366004611bd7565b610e22565b61029d610484366004611d66565b610f5e565b34801561049557600080fd5b50610206610fe3565b3480156104aa57600080fd5b5061013354610265906001600160a01b031681565b3480156104cb57600080fd5b506102066101355481565b60006001600160e01b03198216637965db0b60e01b148061050757506301ffc9a760e01b6001600160e01b03198316145b92915050565b60008060008060008061013060009054906101000a90046001600160a01b03166001600160a01b031663feaf968c6040518163ffffffff1660e01b815260040160a06040518083038186803b15801561056557600080fd5b505afa158015610579573d6000803e3d6000fd5b505050506040513d601f19601f8201168201806040525081019061059d9190611dd5565b94509450945094509450600082116105f15760405162461bcd60e51b8152602060048201526012602482015271526f756e64206e6f7420636f6d706c65746560701b60448201526064015b60405180910390fd5b5091949350505050565b6000828152609760205260409020600101546106178133611041565b61062183836110a5565b505050565b6001600160a01b03811633146106965760405162461bcd60e51b815260206004820152602f60248201527f416363657373436f6e74726f6c3a2063616e206f6e6c792072656e6f756e636560448201526e103937b632b9903337b91039b2b63360891b60648201526084016105e8565b6106a0828261112b565b5050565b306001600160a01b037f00000000000000000000000000000000000000000000000000000000000000001614156106ed5760405162461bcd60e51b81526004016105e890611f09565b7f00000000000000000000000000000000000000000000000000000000000000006001600160a01b031661071f611192565b6001600160a01b0316146107455760405162461bcd60e51b81526004016105e890611f55565b61074e816111c0565b6040805160008082526020820190925261076a918391906111eb565b50565b7f3b5d4cc60d3ec3516ee8ae083bd60934f6eb2a6c54b1229985c41bfb092b26036107988133611041565b61076a611336565b60008060008060008061012f60009054906101000a90046001600160a01b03166001600160a01b031663feaf968c6040518163ffffffff1660e01b815260040160a06040518083038186803b15801561056557600080fd5b306001600160a01b037f00000000000000000000000000000000000000000000000000000000000000001614156108415760405162461bcd60e51b81526004016105e890611f09565b7f00000000000000000000000000000000000000000000000000000000000000006001600160a01b0316610873611192565b6001600160a01b0316146108995760405162461bcd60e51b81526004016105e890611f55565b6108a2826111c0565b6106a0828260016111eb565b7f3b5d4cc60d3ec3516ee8ae083bd60934f6eb2a6c54b1229985c41bfb092b26036108d98133611041565b61076a6113c9565b60335460ff16156109045760405162461bcd60e51b81526004016105e890611fa1565b600061090e6107a0565b9050600061013460009054906101000a90046001600160a01b031690506000816001600160a01b031663bb09d9b76040518163ffffffff1660e01b815260040160206040518083038186803b15801561096657600080fd5b505afa15801561097a573d6000803e3d6000fd5b505050506040513d601f19601f8201168201806040525081019061099e9190611bf3565b905060008190506000610a2586836001600160a01b031663313ce5676040518163ffffffff1660e01b815260040160206040518083038186803b1580156109e457600080fd5b505afa1580156109f8573d6000803e3d6000fd5b505050506040513d601f19601f82011682018060405250810190610a1c9190611e24565b60ff1687611421565b610132546040516323b872dd60e01b81523360048201526001600160a01b039182166024820152604481018990529192508316906323b872dd90606401602060405180830381600087803b158015610a7c57600080fd5b505af1158015610a90573d6000803e3d6000fd5b505050506040513d601f19601f82011682018060405250810190610ab49190611d46565b50610133546040516326995e5f60e21b8152336004820152602481018390526001600160a01b03909116908190639a65797c90604401600060405180830381600087803b158015610b0457600080fd5b505af1158015610b18573d6000803e3d6000fd5b505061013154604080518b81526020810187905280820192909252516001600160a01b03881693503392507f8f7a55179307cea51948432d653dbd53a23fedc388bcb3e04e311f8220d878649181900360600190a350505050505050565b60009182526097602090815260408084206001600160a01b0393909316845291905290205460ff1690565b600054610100900460ff16610bbc5760005460ff1615610bc0565b303b155b610c235760405162461bcd60e51b815260206004820152602e60248201527f496e697469616c697a61626c653a20636f6e747261637420697320616c72656160448201526d191e481a5b9a5d1a585b1a5e995960921b60648201526084016105e8565b600054610100900460ff16158015610c45576000805461ffff19166101011790555b610c4d611469565b610c556114a2565b610c5d6114e1565b426101355561013182905561013280546001600160a01b038086166001600160a01b03199283161790925561013380548a8416908316179055610134805492871692909116919091179055610cd27f3b5d4cc60d3ec3516ee8ae083bd60934f6eb2a6c54b1229985c41bfb092b2603876110a5565b610cfc7f4504b9dfd7400a1522f49a8b4a100552da9236849581fd59b7363eb48c6a474c866110a5565b610d04611508565b8015610d16576000805461ff00191690555b50505050505050565b60008060008060008061012e60009054906101000a90046001600160a01b03166001600160a01b031663feaf968c6040518163ffffffff1660e01b815260040160a06040518083038186803b15801561056557600080fd5b60335460ff1615610d9a5760405162461bcd60e51b81526004016105e890611fa1565b6000610da461050d565b9050600061013460009054906101000a90046001600160a01b031690506000816001600160a01b031663c18920586040518163ffffffff1660e01b815260040160206040518083038186803b15801561096657600080fd5b600082815260976020526040902060010154610e188133611041565b610621838361112b565b60335460ff1615610e455760405162461bcd60e51b81526004016105e890611fa1565b6000610e4f610fe3565b905060126000610e60348385611421565b610132546040519192506001600160a01b0316903480156108fc02916000818181858888f19350505050158015610e9b573d6000803e3d6000fd5b50610133546040516326995e5f60e21b81526001600160a01b03868116600483015260248201849052909116908190639a65797c90604401600060405180830381600087803b158015610eed57600080fd5b505af1158015610f01573d6000803e3d6000fd5b50506101315460408051348152602081018790528082019290925251600093506001600160a01b03891692507f8f7a55179307cea51948432d653dbd53a23fedc388bcb3e04e311f8220d878649181900360600190a35050505050565b60335460ff1615610f815760405162461bcd60e51b81526004016105e890611fa1565b6000610f8b610d1f565b9050600061013460009054906101000a90046001600160a01b031690506000816001600160a01b031663a734f06e6040518163ffffffff1660e01b815260040160206040518083038186803b15801561096657600080fd5b60008060008060008061012d60009054906101000a90046001600160a01b03166001600160a01b031663feaf968c6040518163ffffffff1660e01b815260040160a06040518083038186803b15801561056557600080fd5b3b151590565b61104b8282610b76565b6106a057611063816001600160a01b03166014611773565b61106e836020611773565b60405160200161107f929190611e61565b60408051601f198184030181529082905262461bcd60e51b82526105e891600401611ed6565b6110af8282610b76565b6106a05760008281526097602090815260408083206001600160a01b03851684529091529020805460ff191660011790556110e73390565b6001600160a01b0316816001600160a01b0316837f2f8788117e7eff1d82e926ec794901d17c78024a50270940304540a733656f0d60405160405180910390a45050565b6111358282610b76565b156106a05760008281526097602090815260408083206001600160a01b0385168085529252808320805460ff1916905551339285917ff6391f5c32d9c69d2a47ea670b442974b53935d1edc7fd64eb21e047a839171b9190a45050565b7f360894a13ba1a3210667c828492db98dca3e2076cc3735a920a3ca505d382bbc546001600160a01b031690565b7f4504b9dfd7400a1522f49a8b4a100552da9236849581fd59b7363eb48c6a474c6106a08133611041565b60006111f5611192565b905061120084611955565b60008351118061120d5750815b1561121e5761121c84846119fa565b505b7f4910fdfa16fed3260ed0e7147f7cc6da11a60208b5b9406d12a635614ffd9143805460ff1661132f57805460ff191660011781556040516001600160a01b038316602482015261129d90869060440160408051601f198184030181529190526020810180516001600160e01b0316631b2ce7f360e11b1790526119fa565b50805460ff191681556112ae611192565b6001600160a01b0316826001600160a01b0316146113265760405162461bcd60e51b815260206004820152602f60248201527f45524331393637557067726164653a207570677261646520627265616b73206660448201526e75727468657220757067726164657360881b60648201526084016105e8565b61132f85611ae5565b5050505050565b60335460ff1661137f5760405162461bcd60e51b815260206004820152601460248201527314185d5cd8589b194e881b9bdd081c185d5cd95960621b60448201526064016105e8565b6033805460ff191690557f5db9ee0a495bf2e6ff9c91a7834c1ba4fdd244a5e8aa4e537bd38aeae4b073aa335b6040516001600160a01b03909116815260200160405180910390a1565b60335460ff16156113ec5760405162461bcd60e51b81526004016105e890611fa1565b6033805460ff191660011790557f62e78cea01bee320cd4e420270b5ea74000d11b0c9f74754ebdbfc544b05a2586113ac3390565b610131546000906012906114358583612158565b61144090600a612091565b61144a8588612139565b6114549190612139565b61145e919061202e565b9150505b9392505050565b600054610100900460ff166114905760405162461bcd60e51b81526004016105e890611fcb565b611498611b25565b6114a0611b4c565b565b600054610100900460ff166114c95760405162461bcd60e51b81526004016105e890611fcb565b6114d1611b25565b6114d9611b25565b6114a0611b25565b600054610100900460ff166114d15760405162461bcd60e51b81526004016105e890611fcb565b61013454604080516316b2905360e31b815290516001600160a01b0390921691829163b5948298916004808301926020929190829003018186803b15801561154f57600080fd5b505afa158015611563573d6000803e3d6000fd5b505050506040513d601f19601f820116820180604052508101906115879190611bf3565b61012d60006101000a8154816001600160a01b0302191690836001600160a01b03160217905550806001600160a01b031663bfaa4aad6040518163ffffffff1660e01b815260040160206040518083038186803b1580156115e757600080fd5b505afa1580156115fb573d6000803e3d6000fd5b505050506040513d601f19601f8201168201806040525081019061161f9190611bf3565b61012e60006101000a8154816001600160a01b0302191690836001600160a01b03160217905550806001600160a01b03166315d992066040518163ffffffff1660e01b815260040160206040518083038186803b15801561167f57600080fd5b505afa158015611693573d6000803e3d6000fd5b505050506040513d601f19601f820116820180604052508101906116b79190611bf3565b61012f60006101000a8154816001600160a01b0302191690836001600160a01b03160217905550806001600160a01b0316636c619a086040518163ffffffff1660e01b815260040160206040518083038186803b15801561171757600080fd5b505afa15801561172b573d6000803e3d6000fd5b505050506040513d601f19601f8201168201806040525081019061174f9190611bf3565b61013080546001600160a01b0319166001600160a01b039290921691909117905550565b60606000611782836002612139565b61178d906002612016565b67ffffffffffffffff8111156117b357634e487b7160e01b600052604160045260246000fd5b6040519080825280601f01601f1916602001820160405280156117dd576020820181803683370190505b509050600360fc1b8160008151811061180657634e487b7160e01b600052603260045260246000fd5b60200101906001600160f81b031916908160001a905350600f60fb1b8160018151811061184357634e487b7160e01b600052603260045260246000fd5b60200101906001600160f81b031916908160001a9053506000611867846002612139565b611872906001612016565b90505b6001811115611906576f181899199a1a9b1b9c1cb0b131b232b360811b85600f16601081106118b457634e487b7160e01b600052603260045260246000fd5b1a60f81b8282815181106118d857634e487b7160e01b600052603260045260246000fd5b60200101906001600160f81b031916908160001a90535060049490941c936118ff8161219f565b9050611875565b5083156114625760405162461bcd60e51b815260206004820181905260248201527f537472696e67733a20686578206c656e67746820696e73756666696369656e7460448201526064016105e8565b803b6119b95760405162461bcd60e51b815260206004820152602d60248201527f455243313936373a206e657720696d706c656d656e746174696f6e206973206e60448201526c1bdd08184818dbdb9d1c9858dd609a1b60648201526084016105e8565b7f360894a13ba1a3210667c828492db98dca3e2076cc3735a920a3ca505d382bbc80546001600160a01b0319166001600160a01b0392909216919091179055565b6060823b611a595760405162461bcd60e51b815260206004820152602660248201527f416464726573733a2064656c65676174652063616c6c20746f206e6f6e2d636f6044820152651b9d1c9858dd60d21b60648201526084016105e8565b600080846001600160a01b031684604051611a749190611e45565b600060405180830381855af49150503d8060008114611aaf576040519150601f19603f3d011682016040523d82523d6000602084013e611ab4565b606091505b5091509150611adc82826040518060600160405280602781526020016121f860279139611b7f565b95945050505050565b611aee81611955565b6040516001600160a01b038216907fbc7cd75a20ee27fd9adebab32041f755214dbc6bffa90cc0225b39da2e5c2d3b90600090a250565b600054610100900460ff166114a05760405162461bcd60e51b81526004016105e890611fcb565b600054610100900460ff16611b735760405162461bcd60e51b81526004016105e890611fcb565b6033805460ff19169055565b60608315611b8e575081611462565b825115611b9e5782518084602001fd5b8160405162461bcd60e51b81526004016105e89190611ed6565b805169ffffffffffffffffffff81168114611bd257600080fd5b919050565b600060208284031215611be8578081fd5b8135611462816121e2565b600060208284031215611c04578081fd5b8151611462816121e2565b60008060008060008060c08789031215611c27578182fd5b8635611c32816121e2565b95506020870135611c42816121e2565b94506040870135611c52816121e2565b93506060870135611c62816121e2565b92506080870135611c72816121e2565b8092505060a087013590509295509295509295565b60008060408385031215611c99578182fd5b8235611ca4816121e2565b9150602083013567ffffffffffffffff80821115611cc0578283fd5b818501915085601f830112611cd3578283fd5b813581811115611ce557611ce56121cc565b604051601f8201601f19908116603f01168101908382118183101715611d0d57611d0d6121cc565b81604052828152886020848701011115611d25578586fd5b82602086016020830137856020848301015280955050505050509250929050565b600060208284031215611d57578081fd5b81518015158114611462578182fd5b600060208284031215611d77578081fd5b5035919050565b60008060408385031215611d90578182fd5b823591506020830135611da2816121e2565b809150509250929050565b600060208284031215611dbe578081fd5b81356001600160e01b031981168114611462578182fd5b600080600080600060a08688031215611dec578081fd5b611df586611bb8565b9450602086015193506040860151925060608601519150611e1860808701611bb8565b90509295509295909350565b600060208284031215611e35578081fd5b815160ff81168114611462578182fd5b60008251611e5781846020870161216f565b9190910192915050565b7f416363657373436f6e74726f6c3a206163636f756e7420000000000000000000815260008351611e9981601785016020880161216f565b7001034b99036b4b9b9b4b733903937b6329607d1b6017918401918201528351611eca81602884016020880161216f565b01602801949350505050565b6020815260008251806020840152611ef581604085016020870161216f565b601f01601f19169190910160400192915050565b6020808252602c908201527f46756e6374696f6e206d7573742062652063616c6c6564207468726f7567682060408201526b19195b1959d85d1958d85b1b60a21b606082015260800190565b6020808252602c908201527f46756e6374696f6e206d7573742062652063616c6c6564207468726f7567682060408201526b6163746976652070726f787960a01b606082015260800190565b60208082526010908201526f14185d5cd8589b194e881c185d5cd95960821b604082015260600190565b6020808252602b908201527f496e697469616c697a61626c653a20636f6e7472616374206973206e6f74206960408201526a6e697469616c697a696e6760a81b606082015260800190565b60008219821115612029576120296121b6565b500190565b60008261204957634e487b7160e01b81526012600452602481fd5b500490565b600181815b8085111561208957816000190482111561206f5761206f6121b6565b8085161561207c57918102915b93841c9390800290612053565b509250929050565b600061146283836000826120a757506001610507565b816120b457506000610507565b81600181146120ca57600281146120d4576120f0565b6001915050610507565b60ff8411156120e5576120e56121b6565b50506001821b610507565b5060208310610133831016604e8410600b8410161715612113575081810a610507565b61211d838361204e565b8060001904821115612131576121316121b6565b029392505050565b6000816000190483118215151615612153576121536121b6565b500290565b60008282101561216a5761216a6121b6565b500390565b60005b8381101561218a578181015183820152602001612172565b83811115612199576000848401525b50505050565b6000816121ae576121ae6121b6565b506000190190565b634e487b7160e01b600052601160045260246000fd5b634e487b7160e01b600052604160045260246000fd5b6001600160a01b038116811461076a57600080fdfe416464726573733a206c6f772d6c6576656c2064656c65676174652063616c6c206661696c6564a2646970667358221220ee2de90c083374a70ee862bba599c1324531421534ce92af8cc235cc1dd4806664736f6c63430008040033",
  "linkReferences": {},
  "deployedLinkReferences": {}
}