{
  "_format": "hh-sol-artifact-1",
  "contractName": "DAI",
  "sourceName": "contracts/mock/DAI.sol",
  "abi": [
    {
      "inputs": [
        {
          "internalType": "uint256",
          "name": "chainId_",
          "type": "uint256"
        }
      ],
      "stateMutability": "nonpayable",
      "type": "constructor"
    },
    {
      "anonymous": false,
      "inputs": [
        {
          "indexed": true,
          "internalType": "address",
          "name": "src",
          "type": "address"
        },
        {
          "indexed": true,
          "internalType": "address",
          "name": "guy",
          "type": "address"
        },
        {
          "indexed": false,
          "internalType": "uint256",
          "name": "wad",
          "type": "uint256"
        }
      ],
      "name": "Approval",
      "type": "event"
    },
    {
      "anonymous": true,
      "inputs": [
        {
          "indexed": true,
          "internalType": "bytes4",
          "name": "sig",
          "type": "bytes4"
        },
        {
          "indexed": true,
          "internalType": "address",
          "name": "usr",
          "type": "address"
        },
        {
          "indexed": true,
          "internalType": "bytes32",
          "name": "arg1",
          "type": "bytes32"
        },
        {
          "indexed": true,
          "internalType": "bytes32",
          "name": "arg2",
          "type": "bytes32"
        },
        {
          "indexed": false,
          "internalType": "bytes",
          "name": "data",
          "type": "bytes"
        }
      ],
      "name": "LogNote",
      "type": "event"
    },
    {
      "anonymous": false,
      "inputs": [
        {
          "indexed": true,
          "internalType": "address",
          "name": "src",
          "type": "address"
        },
        {
          "indexed": true,
          "internalType": "address",
          "name": "dst",
          "type": "address"
        },
        {
          "indexed": false,
          "internalType": "uint256",
          "name": "wad",
          "type": "uint256"
        }
      ],
      "name": "Transfer",
      "type": "event"
    },
    {
      "inputs": [],
      "name": "DOMAIN_SEPARATOR",
      "outputs": [
        {
          "internalType": "bytes32",
          "name": "",
          "type": "bytes32"
        }
      ],
      "stateMutability": "view",
      "type": "function"
    },
    {
      "inputs": [],
      "name": "PERMIT_TYPEHASH",
      "outputs": [
        {
          "internalType": "bytes32",
          "name": "",
          "type": "bytes32"
        }
      ],
      "stateMutability": "view",
      "type": "function"
    },
    {
      "inputs": [
        {
          "internalType": "address",
          "name": "usr",
          "type": "address"
        }
      ],
      "name": "addAuth",
      "outputs": [],
      "stateMutability": "nonpayable",
      "type": "function"
    },
    {
      "inputs": [
        {
          "internalType": "uint256",
          "name": "_limit",
          "type": "uint256"
        }
      ],
      "name": "adjustDailyDAILimit",
      "outputs": [],
      "stateMutability": "nonpayable",
      "type": "function"
    },
    {
      "inputs": [
        {
          "internalType": "address",
          "name": "account_",
          "type": "address"
        },
        {
          "internalType": "address",
          "name": "sender_",
          "type": "address"
        }
      ],
      "name": "allowance",
      "outputs": [
        {
          "internalType": "uint256",
          "name": "",
          "type": "uint256"
        }
      ],
      "stateMutability": "view",
      "type": "function"
    },
    {
      "inputs": [
        {
          "internalType": "address",
          "name": "usr_",
          "type": "address"
        },
        {
          "internalType": "uint256",
          "name": "wad_",
          "type": "uint256"
        }
      ],
      "name": "approve",
      "outputs": [
        {
          "internalType": "bool",
          "name": "",
          "type": "bool"
        }
      ],
      "stateMutability": "nonpayable",
      "type": "function"
    },
    {
      "inputs": [
        {
          "internalType": "address",
          "name": "",
          "type": "address"
        }
      ],
      "name": "balanceOf",
      "outputs": [
        {
          "internalType": "uint256",
          "name": "",
          "type": "uint256"
        }
      ],
      "stateMutability": "view",
      "type": "function"
    },
    {
      "inputs": [
        {
          "internalType": "address",
          "name": "usr",
          "type": "address"
        },
        {
          "internalType": "uint256",
          "name": "wad",
          "type": "uint256"
        }
      ],
      "name": "burn",
      "outputs": [],
      "stateMutability": "nonpayable",
      "type": "function"
    },
    {
      "inputs": [
        {
          "internalType": "address",
          "name": "",
          "type": "address"
        }
      ],
      "name": "daiMintedToday",
      "outputs": [
        {
          "internalType": "uint256",
          "name": "",
          "type": "uint256"
        }
      ],
      "stateMutability": "view",
      "type": "function"
    },
    {
      "inputs": [],
      "name": "dailyDAILimit",
      "outputs": [
        {
          "internalType": "uint256",
          "name": "",
          "type": "uint256"
        }
      ],
      "stateMutability": "view",
      "type": "function"
    },
    {
      "inputs": [],
      "name": "decimals",
      "outputs": [
        {
          "internalType": "uint8",
          "name": "",
          "type": "uint8"
        }
      ],
      "stateMutability": "view",
      "type": "function"
    },
    {
      "inputs": [
        {
          "internalType": "address",
          "name": "guy",
          "type": "address"
        }
      ],
      "name": "deny",
      "outputs": [],
      "stateMutability": "nonpayable",
      "type": "function"
    },
    {
      "inputs": [
        {
          "internalType": "address",
          "name": "",
          "type": "address"
        }
      ],
      "name": "lastMintRestart",
      "outputs": [
        {
          "internalType": "uint256",
          "name": "",
          "type": "uint256"
        }
      ],
      "stateMutability": "view",
      "type": "function"
    },
    {
      "inputs": [
        {
          "internalType": "address",
          "name": "usr",
          "type": "address"
        },
        {
          "internalType": "uint256",
          "name": "wad",
          "type": "uint256"
        }
      ],
      "name": "mint",
      "outputs": [],
      "stateMutability": "nonpayable",
      "type": "function"
    },
    {
      "inputs": [
        {
          "internalType": "address",
          "name": "src",
          "type": "address"
        },
        {
          "internalType": "address",
          "name": "dst",
          "type": "address"
        },
        {
          "internalType": "uint256",
          "name": "wad",
          "type": "uint256"
        }
      ],
      "name": "move",
      "outputs": [],
      "stateMutability": "nonpayable",
      "type": "function"
    },
    {
      "inputs": [],
      "name": "name",
      "outputs": [
        {
          "internalType": "string",
          "name": "",
          "type": "string"
        }
      ],
      "stateMutability": "view",
      "type": "function"
    },
    {
      "inputs": [
        {
          "internalType": "address",
          "name": "",
          "type": "address"
        }
      ],
      "name": "nonces",
      "outputs": [
        {
          "internalType": "uint256",
          "name": "",
          "type": "uint256"
        }
      ],
      "stateMutability": "view",
      "type": "function"
    },
    {
      "inputs": [
        {
          "internalType": "address",
          "name": "holder",
          "type": "address"
        },
        {
          "internalType": "address",
          "name": "spender",
          "type": "address"
        },
        {
          "internalType": "uint256",
          "name": "nonce",
          "type": "uint256"
        },
        {
          "internalType": "uint256",
          "name": "expiry",
          "type": "uint256"
        },
        {
          "internalType": "bool",
          "name": "allowed",
          "type": "bool"
        },
        {
          "internalType": "uint8",
          "name": "v",
          "type": "uint8"
        },
        {
          "internalType": "bytes32",
          "name": "r",
          "type": "bytes32"
        },
        {
          "internalType": "bytes32",
          "name": "s",
          "type": "bytes32"
        }
      ],
      "name": "permit",
      "outputs": [],
      "stateMutability": "nonpayable",
      "type": "function"
    },
    {
      "inputs": [
        {
          "internalType": "address",
          "name": "usr",
          "type": "address"
        },
        {
          "internalType": "uint256",
          "name": "wad",
          "type": "uint256"
        }
      ],
      "name": "pull",
      "outputs": [],
      "stateMutability": "nonpayable",
      "type": "function"
    },
    {
      "inputs": [
        {
          "internalType": "address",
          "name": "usr",
          "type": "address"
        },
        {
          "internalType": "uint256",
          "name": "wad",
          "type": "uint256"
        }
      ],
      "name": "push",
      "outputs": [],
      "stateMutability": "nonpayable",
      "type": "function"
    },
    {
      "inputs": [
        {
          "internalType": "address",
          "name": "guy",
          "type": "address"
        }
      ],
      "name": "rely",
      "outputs": [],
      "stateMutability": "nonpayable",
      "type": "function"
    },
    {
      "inputs": [],
      "name": "symbol",
      "outputs": [
        {
          "internalType": "string",
          "name": "",
          "type": "string"
        }
      ],
      "stateMutability": "view",
      "type": "function"
    },
    {
      "inputs": [],
      "name": "totalSupply",
      "outputs": [
        {
          "internalType": "uint256",
          "name": "",
          "type": "uint256"
        }
      ],
      "stateMutability": "view",
      "type": "function"
    },
    {
      "inputs": [
        {
          "internalType": "address",
          "name": "dst",
          "type": "address"
        },
        {
          "internalType": "uint256",
          "name": "wad",
          "type": "uint256"
        }
      ],
      "name": "transfer",
      "outputs": [
        {
          "internalType": "bool",
          "name": "",
          "type": "bool"
        }
      ],
      "stateMutability": "nonpayable",
      "type": "function"
    },
    {
      "inputs": [
        {
          "internalType": "address",
          "name": "src",
          "type": "address"
        },
        {
          "internalType": "address",
          "name": "dst",
          "type": "address"
        },
        {
          "internalType": "uint256",
          "name": "wad",
          "type": "uint256"
        }
      ],
      "name": "transferFrom",
      "outputs": [
        {
          "internalType": "bool",
          "name": "",
          "type": "bool"
        }
      ],
      "stateMutability": "nonpayable",
      "type": "function"
    },
    {
      "inputs": [],
      "name": "version",
      "outputs": [
        {
          "internalType": "string",
          "name": "",
          "type": "string"
        }
      ],
      "stateMutability": "view",
      "type": "function"
    },
    {
      "inputs": [
        {
          "internalType": "address",
          "name": "",
          "type": "address"
        }
      ],
      "name": "wards",
      "outputs": [
        {
          "internalType": "uint256",
          "name": "",
          "type": "uint256"
        }
      ],
      "stateMutability": "view",
      "type": "function"
    }
  ],
  "bytecode": "0x608060405234801561001057600080fd5b5060405161123638038061123683398101604081905261002f9161012f565b33600090815260208181526040918290206001908190558251808401845260128152712230b4902aa9a21029ba30b13632b1b7b4b760711b9083015282518084018452908152603160f81b9082015281517f8b73c3c69bb8fe3d512ecc4cf759cc79239f7b179b0ffacaa9a75d522b39400f818301527f1415ba39944e140ed70f985c5b31680b82734112945dd9c33b789579f6e3ee0e818401527fc89efdaa54c0f20c7adf612882df0950f5a951637e0307cdcb4c672f298b8bc6606082015260808101939093523060a0808501919091528251808503909101815260c0909301909152815191012060085569021e19e0c9bab2400000600255610147565b600060208284031215610140578081fd5b5051919050565b6110e0806101566000396000f3fe608060405234801561001057600080fd5b50600436106101a95760003560e01c8063798247ae116100f9578063a9059cbb11610097578063bf353dbb11610071578063bf353dbb146103fb578063dd62ed3e1461041b578063ef1277e01461042e578063f2d5d56b1461043757600080fd5b8063a9059cbb146103c2578063b753a98c146103d5578063bb35783b146103e857600080fd5b806392bc513c116100d357806392bc513c1461035a57806395d89b411461037a5780639c52a7f11461039c5780639dc29fac146103af57600080fd5b8063798247ae146103075780637ecebe00146103275780638fcbaf0c1461034757600080fd5b806333b3cfc6116101665780635422224e116101405780635422224e146102b457806354fd4d50146102c757806365fae35e146102b457806370a08231146102e757600080fd5b806333b3cfc6146102835780633644e5151461029857806340c10f19146102a157600080fd5b806306fdde03146101ae578063095ea7b3146101f557806318160ddd1461021857806323b872dd1461022f57806330adf81f14610242578063313ce56714610269575b600080fd5b6101df604051806040016040528060128152602001712230b4902aa9a21029ba30b13632b1b7b4b760711b81525081565b6040516101ec9190610fcb565b60405180910390f35b610208610203366004610f8a565b61044a565b60405190151581526020016101ec565b61022160015481565b6040519081526020016101ec565b61020861023d366004610ec8565b61045f565b6102217fea2aa0a1be11a07ed86d755c93467f4f82362b452371d1ba94d1715123511acb81565b610271601281565b60405160ff90911681526020016101ec565b610296610291366004610fb3565b610639565b005b61022160085481565b6102966102af366004610f8a565b61066d565b6102966102c2366004610e7c565b61081e565b6101df604051806040016040528060018152602001603160f81b81525081565b6102216102f5366004610e7c565b60036020526000908152604090205481565b610221610315366004610e7c565b60066020526000908152604090205481565b610221610335366004610e7c565b60056020526000908152604090205481565b610296610355366004610f03565b61086a565b610221610368366004610e7c565b60076020526000908152604090205481565b6101df6040518060400160405280600381526020016244414960e81b81525081565b6102966103aa366004610e7c565b610b5e565b6102966103bd366004610f8a565b610ba7565b6102086103d0366004610f8a565b610d4e565b6102966103e3366004610f8a565b610d5b565b6102966103f6366004610ec8565b610d6b565b610221610409366004610e7c565b60006020819052908152604090205481565b610221610429366004610e96565b610d7c565b61022160025481565b610296610445366004610f8a565b610d88565b60006104568383610d93565b90505b92915050565b6001600160a01b0383166000908152600360205260408120548211156104c75760405162461bcd60e51b81526020600482015260186024820152774461692f696e73756666696369656e742d62616c616e636560401b60448201526064015b60405180910390fd5b6001600160a01b03841633148015906104eb57506000196104e88533610dff565b14155b1561058157816104fb8533610dff565b10156105495760405162461bcd60e51b815260206004820152601a60248201527f4461692f696e73756666696369656e742d616c6c6f77616e636500000000000060448201526064016104be565b61055c6105568533610dff565b83610e2a565b6001600160a01b03851660009081526004602090815260408083203384529091529020555b6001600160a01b0384166000908152600360205260409020546105a49083610e2a565b6001600160a01b0380861660009081526003602052604080822093909355908516815220546105d39083610e45565b6001600160a01b0380851660008181526003602052604090819020939093559151908616907fddf252ad1be2c89b69c2b068fc378daa952ba7f163c4a11628f55a4df523b3ef906106279086815260200190565b60405180910390a35060019392505050565b336000908152602081905260409020546001146106685760405162461bcd60e51b81526004016104be9061101e565b600255565b3360009081526020819052604090205461078c576002543360009081526007602052604090205461069f908390610e45565b1115806106d6575033600090815260066020526040902054611964906106c6904390610e2a565b101580156106d657506002548111155b6107195760405162461bcd60e51b815260206004820152601460248201527313dd995c8819185a5b1e4811105248131a5b5a5d60621b60448201526064016104be565b3360009081526006602052604090205461196490610738904390610e2a565b10610761573360009081526007602090815260408083208490556006909152902043905561078c565b3360009081526007602052604090205461077b9082610e45565b336000908152600760205260409020555b6001600160a01b0382166000908152600360205260409020546107af9082610e45565b6001600160a01b0383166000908152600360205260409020556001546107d59082610e45565b6001556040518181526001600160a01b038316906000907fddf252ad1be2c89b69c2b068fc378daa952ba7f163c4a11628f55a4df523b3ef906020015b60405180910390a35050565b3360009081526020819052604090205460011461084d5760405162461bcd60e51b81526004016104be9061101e565b6001600160a01b0316600090815260208190526040902060019055565b600854604080517fea2aa0a1be11a07ed86d755c93467f4f82362b452371d1ba94d1715123511acb60208201526001600160a01b03808c169282019290925290891660608201526080810188905260a0810187905285151560c08201526000919060e0016040516020818303038152906040528051906020012060405160200161090b92919061190160f01b81526002810192909252602282015260420190565b60408051601f19818403018152919052805160209091012090506001600160a01b0389166109735760405162461bcd60e51b815260206004820152601560248201527404461692f696e76616c69642d616464726573732d3605c1b60448201526064016104be565b60408051600081526020810180835283905260ff861691810191909152606081018490526080810183905260019060a0016020604051602081039080840390855afa1580156109c6573d6000803e3d6000fd5b505050602060405103516001600160a01b0316896001600160a01b031614610a255760405162461bcd60e51b815260206004820152601260248201527111185a4bda5b9d985b1a590b5c195c9b5a5d60721b60448201526064016104be565b851580610a325750854211155b610a735760405162461bcd60e51b815260206004820152601260248201527111185a4bdc195c9b5a5d0b595e1c1a5c995960721b60448201526064016104be565b6001600160a01b0389166000908152600560205260408120805491610a9783611079565b919050558714610add5760405162461bcd60e51b81526020600482015260116024820152704461692f696e76616c69642d6e6f6e636560781b60448201526064016104be565b600085610aeb576000610aef565b6000195b6001600160a01b038b81166000818152600460209081526040808320948f16808452948252918290208590559051848152939450919290917f8c5be1e5ebec7d5bd14f71427d1e84f3dd0314c0f7b2291e5b200ac8c7c3b925910160405180910390a350505050505050505050565b33600090815260208190526040902054600114610b8d5760405162461bcd60e51b81526004016104be9061101e565b6001600160a01b0316600090815260208190526040812055565b6001600160a01b038216600090815260036020526040902054811115610c0a5760405162461bcd60e51b81526020600482015260186024820152774461692f696e73756666696369656e742d62616c616e636560401b60448201526064016104be565b6001600160a01b0382163314801590610c2e5750600019610c2b8333610dff565b14155b15610cc45780610c3e8333610dff565b1015610c8c5760405162461bcd60e51b815260206004820152601a60248201527f4461692f696e73756666696369656e742d616c6c6f77616e636500000000000060448201526064016104be565b610c9f610c998333610dff565b82610e2a565b6001600160a01b03831660009081526004602090815260408083203384529091529020555b6001600160a01b038216600090815260036020526040902054610ce79082610e2a565b6001600160a01b038316600090815260036020526040902055600154610d0d9082610e2a565b6001556040518181526000906001600160a01b038416907fddf252ad1be2c89b69c2b068fc378daa952ba7f163c4a11628f55a4df523b3ef90602001610812565b600061045633848461045f565b610d6633838361045f565b505050565b610d7683838361045f565b50505050565b60006104568383610dff565b610d6682338361045f565b3360008181526004602090815260408083206001600160a01b038716808552925280832085905551919290917f8c5be1e5ebec7d5bd14f71427d1e84f3dd0314c0f7b2291e5b200ac8c7c3b92590610dee9086815260200190565b60405180910390a350600192915050565b6001600160a01b03918216600090815260046020908152604080832093909416825291909152205490565b600082610e378382611062565b915081111561045957600080fd5b600082610e52838261104a565b915081101561045957600080fd5b80356001600160a01b0381168114610e7757600080fd5b919050565b600060208284031215610e8d578081fd5b61045682610e60565b60008060408385031215610ea8578081fd5b610eb183610e60565b9150610ebf60208401610e60565b90509250929050565b600080600060608486031215610edc578081fd5b610ee584610e60565b9250610ef360208501610e60565b9150604084013590509250925092565b600080600080600080600080610100898b031215610f1f578384fd5b610f2889610e60565b9750610f3660208a01610e60565b9650604089013595506060890135945060808901358015158114610f58578485fd5b935060a089013560ff81168114610f6d578384fd5b979a969950949793969295929450505060c08201359160e0013590565b60008060408385031215610f9c578182fd5b610fa583610e60565b946020939093013593505050565b600060208284031215610fc4578081fd5b5035919050565b6000602080835283518082850152825b81811015610ff757858101830151858201604001528201610fdb565b818111156110085783604083870101525b50601f01601f1916929092016040019392505050565b60208082526012908201527111185a4bdb9bdd0b585d5d1a1bdc9a5e995960721b604082015260600190565b6000821982111561105d5761105d611094565b500190565b60008282101561107457611074611094565b500390565b600060001982141561108d5761108d611094565b5060010190565b634e487b7160e01b600052601160045260246000fdfea2646970667358221220c3cdd7c4c0fc1e0827eed4441e220b558a17869fa0c672c028a1ec2c1953201c64736f6c63430008040033",
  "linkReferences": {},
  "deployedLinkReferences": {}
}