{
  "_format": "hh-sol-artifact-1",
  "contractName": "LootboxInstantFactory",
  "sourceName": "contracts/LootboxInstantFactory.sol",
  "abi": [
    {
      "inputs": [
        {
          "internalType": "address",
          "name": "_lootboxDao",
          "type": "address"
        },
        {
          "internalType": "uint256",
          "name": "_ticketPurchaseFee",
          "type": "uint256"
        },
        {
          "internalType": "address",
          "name": "_brokerAddress",
          "type": "address"
        },
        {
          "internalType": "string",
          "name": "_baseTokenURI",
          "type": "string"
        }
      ],
      "stateMutability": "nonpayable",
      "type": "constructor"
    },
    {
      "anonymous": false,
      "inputs": [
        {
          "indexed": false,
          "internalType": "string",
          "name": "lootboxName",
          "type": "string"
        },
        {
          "indexed": true,
          "internalType": "address",
          "name": "lootbox",
          "type": "address"
        },
        {
          "indexed": true,
          "internalType": "address",
          "name": "issuer",
          "type": "address"
        },
        {
          "indexed": true,
          "internalType": "address",
          "name": "treasury",
          "type": "address"
        },
        {
          "indexed": false,
          "internalType": "uint256",
          "name": "targetSharesSold",
          "type": "uint256"
        },
        {
          "indexed": false,
          "internalType": "uint256",
          "name": "maxSharesSold",
          "type": "uint256"
        },
        {
          "indexed": false,
          "internalType": "string",
          "name": "_data",
          "type": "string"
        }
      ],
      "name": "LootboxCreated",
      "type": "event"
    },
    {
      "anonymous": false,
      "inputs": [
        {
          "indexed": false,
          "internalType": "address",
          "name": "account",
          "type": "address"
        }
      ],
      "name": "Paused",
      "type": "event"
    },
    {
      "anonymous": false,
      "inputs": [
        {
          "indexed": true,
          "internalType": "bytes32",
          "name": "role",
          "type": "bytes32"
        },
        {
          "indexed": true,
          "internalType": "bytes32",
          "name": "previousAdminRole",
          "type": "bytes32"
        },
        {
          "indexed": true,
          "internalType": "bytes32",
          "name": "newAdminRole",
          "type": "bytes32"
        }
      ],
      "name": "RoleAdminChanged",
      "type": "event"
    },
    {
      "anonymous": false,
      "inputs": [
        {
          "indexed": true,
          "internalType": "bytes32",
          "name": "role",
          "type": "bytes32"
        },
        {
          "indexed": true,
          "internalType": "address",
          "name": "account",
          "type": "address"
        },
        {
          "indexed": true,
          "internalType": "address",
          "name": "sender",
          "type": "address"
        }
      ],
      "name": "RoleGranted",
      "type": "event"
    },
    {
      "anonymous": false,
      "inputs": [
        {
          "indexed": true,
          "internalType": "bytes32",
          "name": "role",
          "type": "bytes32"
        },
        {
          "indexed": true,
          "internalType": "address",
          "name": "account",
          "type": "address"
        },
        {
          "indexed": true,
          "internalType": "address",
          "name": "sender",
          "type": "address"
        }
      ],
      "name": "RoleRevoked",
      "type": "event"
    },
    {
      "anonymous": false,
      "inputs": [
        {
          "indexed": false,
          "internalType": "address",
          "name": "account",
          "type": "address"
        }
      ],
      "name": "Unpaused",
      "type": "event"
    },
    {
      "inputs": [],
      "name": "DAO_ROLE",
      "outputs": [
        {
          "internalType": "bytes32",
          "name": "",
          "type": "bytes32"
        }
      ],
      "stateMutability": "view",
      "type": "function"
    },
    {
      "inputs": [],
      "name": "DEFAULT_ADMIN_ROLE",
      "outputs": [
        {
          "internalType": "bytes32",
          "name": "",
          "type": "bytes32"
        }
      ],
      "stateMutability": "view",
      "type": "function"
    },
    {
      "inputs": [],
      "name": "baseTokenURI",
      "outputs": [
        {
          "internalType": "string",
          "name": "",
          "type": "string"
        }
      ],
      "stateMutability": "view",
      "type": "function"
    },
    {
      "inputs": [],
      "name": "brokerAddress",
      "outputs": [
        {
          "internalType": "address",
          "name": "",
          "type": "address"
        }
      ],
      "stateMutability": "view",
      "type": "function"
    },
    {
      "inputs": [
        {
          "internalType": "string",
          "name": "_lootboxName",
          "type": "string"
        },
        {
          "internalType": "string",
          "name": "_lootboxSymbol",
          "type": "string"
        },
        {
          "internalType": "uint256",
          "name": "_targetSharesSold",
          "type": "uint256"
        },
        {
          "internalType": "uint256",
          "name": "_maxSharesSold",
          "type": "uint256"
        },
        {
          "internalType": "address",
          "name": "_treasury",
          "type": "address"
        },
        {
          "internalType": "string",
          "name": "_data",
          "type": "string"
        }
      ],
      "name": "createLootbox",
      "outputs": [
        {
          "internalType": "address",
          "name": "_lootbox",
          "type": "address"
        }
      ],
      "stateMutability": "nonpayable",
      "type": "function"
    },
    {
      "inputs": [
        {
          "internalType": "bytes32",
          "name": "role",
          "type": "bytes32"
        }
      ],
      "name": "getRoleAdmin",
      "outputs": [
        {
          "internalType": "bytes32",
          "name": "",
          "type": "bytes32"
        }
      ],
      "stateMutability": "view",
      "type": "function"
    },
    {
      "inputs": [
        {
          "internalType": "bytes32",
          "name": "role",
          "type": "bytes32"
        },
        {
          "internalType": "address",
          "name": "account",
          "type": "address"
        }
      ],
      "name": "grantRole",
      "outputs": [],
      "stateMutability": "nonpayable",
      "type": "function"
    },
    {
      "inputs": [
        {
          "internalType": "bytes32",
          "name": "role",
          "type": "bytes32"
        },
        {
          "internalType": "address",
          "name": "account",
          "type": "address"
        }
      ],
      "name": "hasRole",
      "outputs": [
        {
          "internalType": "bool",
          "name": "",
          "type": "bool"
        }
      ],
      "stateMutability": "view",
      "type": "function"
    },
    {
      "inputs": [],
      "name": "lootboxImplementation",
      "outputs": [
        {
          "internalType": "address",
          "name": "",
          "type": "address"
        }
      ],
      "stateMutability": "view",
      "type": "function"
    },
    {
      "inputs": [],
      "name": "pause",
      "outputs": [],
      "stateMutability": "nonpayable",
      "type": "function"
    },
    {
      "inputs": [],
      "name": "paused",
      "outputs": [
        {
          "internalType": "bool",
          "name": "",
          "type": "bool"
        }
      ],
      "stateMutability": "view",
      "type": "function"
    },
    {
      "inputs": [
        {
          "internalType": "bytes32",
          "name": "role",
          "type": "bytes32"
        },
        {
          "internalType": "address",
          "name": "account",
          "type": "address"
        }
      ],
      "name": "renounceRole",
      "outputs": [],
      "stateMutability": "nonpayable",
      "type": "function"
    },
    {
      "inputs": [
        {
          "internalType": "bytes32",
          "name": "role",
          "type": "bytes32"
        },
        {
          "internalType": "address",
          "name": "account",
          "type": "address"
        }
      ],
      "name": "revokeRole",
      "outputs": [],
      "stateMutability": "nonpayable",
      "type": "function"
    },
    {
      "inputs": [],
      "name": "semver",
      "outputs": [
        {
          "internalType": "string",
          "name": "",
          "type": "string"
        }
      ],
      "stateMutability": "view",
      "type": "function"
    },
    {
      "inputs": [
        {
          "internalType": "bytes4",
          "name": "interfaceId",
          "type": "bytes4"
        }
      ],
      "name": "supportsInterface",
      "outputs": [
        {
          "internalType": "bool",
          "name": "",
          "type": "bool"
        }
      ],
      "stateMutability": "view",
      "type": "function"
    },
    {
      "inputs": [],
      "name": "ticketPurchaseFee",
      "outputs": [
        {
          "internalType": "uint256",
          "name": "",
          "type": "uint256"
        }
      ],
      "stateMutability": "view",
      "type": "function"
    },
    {
      "inputs": [],
      "name": "unpause",
      "outputs": [],
      "stateMutability": "nonpayable",
      "type": "function"
    },
    {
      "inputs": [],
      "name": "viewLootboxes",
      "outputs": [
        {
          "internalType": "bytes32[]",
          "name": "",
          "type": "bytes32[]"
        }
      ],
      "stateMutability": "view",
      "type": "function"
    }
  ],
  "bytecode": "0x60e06040523480156200001157600080fd5b5060405162007bcc38038062007bcc833981016040819052620000349162000405565b6000805460ff191690556001600160a01b038416620000a55760405162461bcd60e51b815260206004820152602260248201527f44414f204c6f6f74626f7820616464726573732063616e6e6f74206265207a65604482015261726f60f01b60648201526084015b60405180910390fd5b6001600160a01b038216620000fd5760405162461bcd60e51b815260206004820152601d60248201527f42726f6b657220616464726573732063616e6e6f74206265207a65726f00000060448201526064016200009c565b6305f5e1008310620001785760405162461bcd60e51b815260206004820152603660248201527f5075726368617365207469636b657420666565206d757374206265206c65737360448201527f207468616e20313030303030303030202831303025290000000000000000000060648201526084016200009c565b8051600003620001cb5760405162461bcd60e51b815260206004820152601e60248201527f4261736520746f6b656e205552492063616e6e6f7420626520656d707479000060448201526064016200009c565b604051620001d9906200031e565b604051809103906000f080158015620001f6573d6000803e3d6000fd5b506001600160a01b03166080526200022f7f3b5d4cc60d3ec3516ee8ae083bd60934f6eb2a6c54b1229985c41bfb092b26038562000295565b60a08390526001600160a01b03821660c0528051620002569060039060208401906200032c565b5060408051808201909152600a808252690c0b8d0b8c0b5c1c9bd960b21b60209092019182526200028a916002916200032c565b50505050506200054d565b60008281526001602090815260408083206001600160a01b038516845290915290205460ff166200031a5760008281526001602081815260408084206001600160a01b0386168086529252808420805460ff19169093179092559051339285917f2f8788117e7eff1d82e926ec794901d17c78024a50270940304540a733656f0d9190a45b5050565b615a51806200217b83390190565b8280546200033a9062000511565b90600052602060002090601f0160209004810192826200035e5760008555620003a9565b82601f106200037957805160ff1916838001178555620003a9565b82800160010185558215620003a9579182015b82811115620003a95782518255916020019190600101906200038c565b50620003b7929150620003bb565b5090565b5b80821115620003b75760008155600101620003bc565b80516001600160a01b0381168114620003ea57600080fd5b919050565b634e487b7160e01b600052604160045260246000fd5b600080600080608085870312156200041c57600080fd5b6200042785620003d2565b935060208086015193506200043f60408701620003d2565b60608701519093506001600160401b03808211156200045d57600080fd5b818801915088601f8301126200047257600080fd5b815181811115620004875762000487620003ef565b604051601f8201601f19908116603f01168101908382118183101715620004b257620004b2620003ef565b816040528281528b86848701011115620004cb57600080fd5b600093505b82841015620004ef5784840186015181850187015292850192620004d0565b82841115620005015760008684830101525b989b979a50959850505050505050565b600181811c908216806200052657607f821691505b6020821081036200054757634e487b7160e01b600052602260045260246000fd5b50919050565b60805160a05160c051611be9620005926000396000818161024501526106a80152600081816102a3015261068701526000818161017d01526106560152611be96000f3fe60806040523480156200001157600080fd5b50600436106200012d5760003560e01c80635c975abb11620000af578063a7c721c5116200007a578063a7c721c5146200029d578063cda493c814620002c5578063d547741f14620002de578063d547cfb714620002f5578063e9c2651814620002ff57600080fd5b80635c975abb14620002675780638456cb59146200027357806391d14854146200027d578063a217fddf146200029457600080fd5b8063248a9ca311620000fc578063248a9ca314620001cf5780632f2ff15d146200020557806336568abe146200021e5780633f4ba83a14620002355780635089f796146200023f57600080fd5b806301ffc9a7146200013257806317088631146200015e57806319dd565714620001775780631aed9ea314620001b8575b600080fd5b620001496200014336600462000e73565b62000327565b60405190151581526020015b60405180910390f35b620001686200035f565b60405162000155919062000e9f565b6200019f7f000000000000000000000000000000000000000000000000000000000000000081565b6040516001600160a01b03909116815260200162000155565b6200019f620001c936600462000fad565b620003b8565b620001f6620001e036600462001064565b6000908152600160208190526040909120015490565b60405190815260200162000155565b6200021c620002163660046200107e565b620007c3565b005b6200021c6200022f3660046200107e565b620007f3565b6200021c62000875565b6200019f7f000000000000000000000000000000000000000000000000000000000000000081565b60005460ff1662000149565b6200021c620008af565b620001496200028e3660046200107e565b620008e6565b620001f6600081565b620001f67f000000000000000000000000000000000000000000000000000000000000000081565b620002cf62000911565b6040516200015591906200110e565b6200021c620002ef3660046200107e565b620009a7565b620002cf620009d2565b620001f67f3b5d4cc60d3ec3516ee8ae083bd60934f6eb2a6c54b1229985c41bfb092b260381565b60006001600160e01b03198216637965db0b60e01b14806200035957506301ffc9a760e01b6001600160e01b03198316145b92915050565b600480546040805160208084028201810190925282815260609390929091830182828015620003ae57602002820191906000526020600020905b81548152602001906001019080831162000399575b5050505050905090565b6000805460ff1615620004055760405162461bcd60e51b815260206004820152601060248201526f14185d5cd8589b194e881c185d5cd95960821b60448201526064015b60405180910390fd5b8651600003620004585760405162461bcd60e51b815260206004820152601c60248201527f4c6f6f74626f78206e616d652063616e6e6f7420626520656d707479000000006044820152606401620003fc565b8551600003620004ab5760405162461bcd60e51b815260206004820152601e60248201527f4c6f6f74626f782073796d626f6c2063616e6e6f7420626520656d70747900006044820152606401620003fc565b6001600160a01b038316620005035760405162461bcd60e51b815260206004820152601f60248201527f547265617375727920616464726573732063616e6e6f74206265207a65726f006044820152606401620003fc565b600085116200056a5760405162461bcd60e51b815260206004820152602c60248201527f5461726765742073686172657320736f6c64206d75737420626520677265617460448201526b6572207468616e207a65726f60a01b6064820152608401620003fc565b60008411620005ce5760405162461bcd60e51b815260206004820152602960248201527f4d61782073686172657320736f6c64206d7573742062652067726561746572206044820152687468616e207a65726f60b81b6064820152608401620003fc565b84841015620006525760405162461bcd60e51b815260206004820152604360248201527f4d61782073686172657320736f6c64206d75737420626520677265617465722060448201527f7468616e206f7220657175616c20746f207461726765742073686172657320736064820152621bdb1960ea1b608482015260a401620003fc565b60007f0000000000000000000000000000000000000000000000000000000000000000633c449e0060e01b898960038a8a8a337f00000000000000000000000000000000000000000000000000000000000000007f0000000000000000000000000000000000000000000000000000000000000000604051602401620006e1999897969594939291906200115f565b60408051601f198184030181529181526020820180516001600160e01b03166001600160e01b0319909416939093179092529051620007209062000e65565b6200072d92919062001298565b604051809103906000f0801580156200074a573d6000803e3d6000fd5b5090506200075a600482620009e1565b50836001600160a01b0316336001600160a01b0316826001600160a01b03167ff39d14fa0aa07a94a72c62bae5fb327d547a62865bdd8fcfa9c5223107c35a7c8b8a8a89604051620007b09493929190620012c6565b60405180910390a4979650505050505050565b60008281526001602081905260409091200154620007e28133620009ff565b620007ee838362000a6e565b505050565b6001600160a01b0381163314620008655760405162461bcd60e51b815260206004820152602f60248201527f416363657373436f6e74726f6c3a2063616e206f6e6c792072656e6f756e636560448201526e103937b632b9903337b91039b2b63360891b6064820152608401620003fc565b62000871828262000adc565b5050565b7f3b5d4cc60d3ec3516ee8ae083bd60934f6eb2a6c54b1229985c41bfb092b2603620008a28133620009ff565b620008ac62000b46565b50565b7f3b5d4cc60d3ec3516ee8ae083bd60934f6eb2a6c54b1229985c41bfb092b2603620008dc8133620009ff565b620008ac62000bdb565b60009182526001602090815260408084206001600160a01b0393909316845291905290205460ff1690565b60028054620009209062001123565b80601f01602080910402602001604051908101604052809291908181526020018280546200094e9062001123565b80156200099f5780601f1062000973576101008083540402835291602001916200099f565b820191906000526020600020905b8154815290600101906020018083116200098157829003601f168201915b505050505081565b60008281526001602081905260409091200154620009c68133620009ff565b620007ee838362000adc565b60038054620009209062001123565b6000620009f8836001600160a01b03841662000c59565b9392505050565b62000a0b8282620008e6565b620008715762000a26816001600160a01b0316601462000cab565b62000a3383602062000cab565b60405160200162000a4692919062001306565b60408051601f198184030181529082905262461bcd60e51b8252620003fc916004016200110e565b62000a7a8282620008e6565b620008715760008281526001602081815260408084206001600160a01b0386168086529252808420805460ff19169093179092559051339285917f2f8788117e7eff1d82e926ec794901d17c78024a50270940304540a733656f0d9190a45050565b62000ae88282620008e6565b15620008715760008281526001602090815260408083206001600160a01b0385168085529252808320805460ff1916905551339285917ff6391f5c32d9c69d2a47ea670b442974b53935d1edc7fd64eb21e047a839171b9190a45050565b60005460ff1662000b915760405162461bcd60e51b815260206004820152601460248201527314185d5cd8589b194e881b9bdd081c185d5cd95960621b6044820152606401620003fc565b6000805460ff191690557f5db9ee0a495bf2e6ff9c91a7834c1ba4fdd244a5e8aa4e537bd38aeae4b073aa335b6040516001600160a01b03909116815260200160405180910390a1565b60005460ff161562000c235760405162461bcd60e51b815260206004820152601060248201526f14185d5cd8589b194e881c185d5cd95960821b6044820152606401620003fc565b6000805460ff191660011790557f62e78cea01bee320cd4e420270b5ea74000d11b0c9f74754ebdbfc544b05a25862000bbe3390565b600081815260018301602052604081205462000ca25750815460018181018455600084815260208082209093018490558454848252828601909352604090209190915562000359565b50600062000359565b6060600062000cbc83600262001395565b62000cc9906002620013b7565b67ffffffffffffffff81111562000ce45762000ce462000ee5565b6040519080825280601f01601f19166020018201604052801562000d0f576020820181803683370190505b509050600360fc1b8160008151811062000d2d5762000d2d620013d2565b60200101906001600160f81b031916908160001a905350600f60fb1b8160018151811062000d5f5762000d5f620013d2565b60200101906001600160f81b031916908160001a905350600062000d8584600262001395565b62000d92906001620013b7565b90505b600181111562000e14576f181899199a1a9b1b9c1cb0b131b232b360811b85600f166010811062000dca5762000dca620013d2565b1a60f81b82828151811062000de35762000de3620013d2565b60200101906001600160f81b031916908160001a90535060049490941c9362000e0c81620013e8565b905062000d95565b508315620009f85760405162461bcd60e51b815260206004820181905260248201527f537472696e67733a20686578206c656e67746820696e73756666696369656e746044820152606401620003fc565b6107b1806200140383390190565b60006020828403121562000e8657600080fd5b81356001600160e01b031981168114620009f857600080fd5b6020808252825182820181905260009190848201906040850190845b8181101562000ed95783518352928401929184019160010162000ebb565b50909695505050505050565b634e487b7160e01b600052604160045260246000fd5b600082601f83011262000f0d57600080fd5b813567ffffffffffffffff8082111562000f2b5762000f2b62000ee5565b604051601f8301601f19908116603f0116810190828211818310171562000f565762000f5662000ee5565b8160405283815286602085880101111562000f7057600080fd5b836020870160208301376000602085830101528094505050505092915050565b80356001600160a01b038116811462000fa857600080fd5b919050565b60008060008060008060c0878903121562000fc757600080fd5b863567ffffffffffffffff8082111562000fe057600080fd5b62000fee8a838b0162000efb565b975060208901359150808211156200100557600080fd5b620010138a838b0162000efb565b965060408901359550606089013594506200103160808a0162000f90565b935060a08901359150808211156200104857600080fd5b506200105789828a0162000efb565b9150509295509295509295565b6000602082840312156200107757600080fd5b5035919050565b600080604083850312156200109257600080fd5b82359150620010a46020840162000f90565b90509250929050565b60005b83811015620010ca578181015183820152602001620010b0565b83811115620010da576000848401525b50505050565b60008151808452620010fa816020860160208601620010ad565b601f01601f19169290920160200192915050565b602081526000620009f86020830184620010e0565b600181811c908216806200113857607f821691505b6020821081036200115957634e487b7160e01b600052602260045260246000fd5b50919050565b6000610120808352620011758184018d620010e0565b905082810360208401526200118b818c620010e0565b9050828103604084015260008a54818160011c90506001821680620011b157607f821691505b602082108103620011d057634e487b7160e01b84526022600452602484fd5b818552602085019450808015620011f05760018114620012035762001233565b60ff198416865260208601945062001233565b60008f81526020902060005b848110156200122d578154888201526001909101906020016200120f565b87019550505b5050505080925050508760608301528660808301526200125e60a08301876001600160a01b03169052565b6001600160a01b03851660c08301528360e08301526200128a6101008301846001600160a01b03169052565b9a9950505050505050505050565b6001600160a01b0383168152604060208201819052600090620012be90830184620010e0565b949350505050565b608081526000620012db6080830187620010e0565b8560208401528460408401528281036060840152620012fb8185620010e0565b979650505050505050565b7f416363657373436f6e74726f6c3a206163636f756e742000000000000000000081526000835162001340816017850160208801620010ad565b7001034b99036b4b9b9b4b733903937b6329607d1b601791840191820152835162001373816028840160208801620010ad565b01602801949350505050565b634e487b7160e01b600052601160045260246000fd5b6000816000190483118215151615620013b257620013b26200137f565b500290565b60008219821115620013cd57620013cd6200137f565b500190565b634e487b7160e01b600052603260045260246000fd5b600081620013fa57620013fa6200137f565b50600019019056fe60806040526040516107b13803806107b183398101604081905261002291610349565b61004d60017f360894a13ba1a3210667c828492db98dca3e2076cc3735a920a3ca505d382bbd610417565b60008051602061076a833981519152146100695761006961043c565b6100758282600061007c565b50506104a1565b610085836100b2565b6000825111806100925750805b156100ad576100ab83836100f260201b6100291760201c565b505b505050565b6100bb8161011e565b6040516001600160a01b038216907fbc7cd75a20ee27fd9adebab32041f755214dbc6bffa90cc0225b39da2e5c2d3b90600090a250565b6060610117838360405180606001604052806027815260200161078a602791396101de565b9392505050565b610131816102bc60201b6100551760201c565b6101985760405162461bcd60e51b815260206004820152602d60248201527f455243313936373a206e657720696d706c656d656e746174696f6e206973206e60448201526c1bdd08184818dbdb9d1c9858dd609a1b60648201526084015b60405180910390fd5b806101bd60008051602061076a83398151915260001b6102cb60201b6100641760201c565b80546001600160a01b0319166001600160a01b039290921691909117905550565b60606001600160a01b0384163b6102465760405162461bcd60e51b815260206004820152602660248201527f416464726573733a2064656c65676174652063616c6c20746f206e6f6e2d636f6044820152651b9d1c9858dd60d21b606482015260840161018f565b600080856001600160a01b0316856040516102619190610452565b600060405180830381855af49150503d806000811461029c576040519150601f19603f3d011682016040523d82523d6000602084013e6102a1565b606091505b5090925090506102b28282866102ce565b9695505050505050565b6001600160a01b03163b151590565b90565b606083156102dd575081610117565b8251156102ed5782518084602001fd5b8160405162461bcd60e51b815260040161018f919061046e565b634e487b7160e01b600052604160045260246000fd5b60005b83811015610338578181015183820152602001610320565b838111156100ab5750506000910152565b6000806040838503121561035c57600080fd5b82516001600160a01b038116811461037357600080fd5b60208401519092506001600160401b038082111561039057600080fd5b818501915085601f8301126103a457600080fd5b8151818111156103b6576103b6610307565b604051601f8201601f19908116603f011681019083821181831017156103de576103de610307565b816040528281528860208487010111156103f757600080fd5b61040883602083016020880161031d565b80955050505050509250929050565b60008282101561043757634e487b7160e01b600052601160045260246000fd5b500390565b634e487b7160e01b600052600160045260246000fd5b6000825161046481846020870161031d565b9190910192915050565b602081526000825180602084015261048d81604085016020870161031d565b601f01601f19169190910160400192915050565b6102ba806104b06000396000f3fe60806040523661001357610011610017565b005b6100115b610027610022610067565b61009f565b565b606061004e838360405180606001604052806027815260200161025e602791396100c3565b9392505050565b6001600160a01b03163b151590565b90565b600061009a7f360894a13ba1a3210667c828492db98dca3e2076cc3735a920a3ca505d382bbc546001600160a01b031690565b905090565b3660008037600080366000845af43d6000803e8080156100be573d6000f35b3d6000fd5b60606001600160a01b0384163b6101305760405162461bcd60e51b815260206004820152602660248201527f416464726573733a2064656c65676174652063616c6c20746f206e6f6e2d636f6044820152651b9d1c9858dd60d21b60648201526084015b60405180910390fd5b600080856001600160a01b03168560405161014b919061020e565b600060405180830381855af49150503d8060008114610186576040519150601f19603f3d011682016040523d82523d6000602084013e61018b565b606091505b509150915061019b8282866101a5565b9695505050505050565b606083156101b457508161004e565b8251156101c45782518084602001fd5b8160405162461bcd60e51b8152600401610127919061022a565b60005b838110156101f95781810151838201526020016101e1565b83811115610208576000848401525b50505050565b600082516102208184602087016101de565b9190910192915050565b60208152600082518060208401526102498160408501602087016101de565b601f01601f1916919091016040019291505056fe416464726573733a206c6f772d6c6576656c2064656c65676174652063616c6c206661696c6564a26469706673582212206a9a8c80cf4acba4b799b5c7fb65ea2dad7950cdf128b00c6f7abfa4a4e576e164736f6c634300080d0033360894a13ba1a3210667c828492db98dca3e2076cc3735a920a3ca505d382bbc416464726573733a206c6f772d6c6576656c2064656c65676174652063616c6c206661696c6564a26469706673582212204488a62d36c9c7f4bba91c4b75a60ca7cf59c0325a39ffb89037847792da54f664736f6c634300080d003360a0604052306080523480156200001557600080fd5b50600054610100900460ff16620000335760005460ff16156200003d565b6200003d620000e2565b620000a55760405162461bcd60e51b815260206004820152602e60248201527f496e697469616c697a61626c653a20636f6e747261637420697320616c72656160448201526d191e481a5b9a5d1a585b1a5e995960921b606482015260840160405180910390fd5b600054610100900460ff16158015620000c8576000805461ffff19166101011790555b8015620000db576000805461ff00191690555b506200010f565b6000620000fa306200010060201b620036c91760201c565b15905090565b6001600160a01b03163b151590565b60805161590a6200014760003960008181611aa301528181611ae3015281816121b1015281816121f101526123b4015261590a6000f3fe60806040526004361061042a5760003560e01c806378d85c4e11610229578063abff01101161012e578063da3537a8116100b6578063e985e9c51161007a578063e985e9c514610c7a578063e9c2651814610cc3578063fbf97c5914610ce5578063fdf27dba14610d13578063ff7808e914610d2a57600080fd5b8063da3537a814610bf7578063dd13745514610c0c578063dd7af03514610c2e578063e6deb18d14610c45578063e88e3f9314610c6557600080fd5b8063c87b56dd116100fd578063c87b56dd14610b76578063ca11016d14610b96578063cc0f178614610bab578063cda493c814610bc2578063d547741f14610bd757600080fd5b8063abff011014610a8f578063ae501c0414610ab0578063b4ce37d214610b41578063b88d4fde14610b5657600080fd5b806393a057cd116101b1578063a07ae16a11610180578063a07ae16a14610a0e578063a217fddf14610a23578063a22cb46514610a38578063a7485cf114610a58578063a7c721c514610a7857600080fd5b806393a057cd146109b457806393de6dc8146109cb57806395d89b41146109e25780639f792340146109f757600080fd5b80638802255f116101f85780638802255f146109215780638c824949146109395780638caa0986146109415780639088feba1461095857806391d148541461099457600080fd5b806378d85c4e146108b3578063816c42f6146108e05780638240b777146108f75780638456cb591461090c57600080fd5b80633f4ba83a1161032f5780635c975abb116102b75780636c9d3b3a116102865780636c9d3b3a146108035780636e70096e146108315780636f2ef95b146108515780636fcf1e651461087e57806370a082311461089357600080fd5b80635c975abb1461077857806361d027b3146107905780636352211e146107b657806369d85d54146107d657600080fd5b806351f0a93f116102fe57806351f0a93f146106fb578063522c21781461071057806352d1902d1461072b578063533573fe14610740578063588dae3c1461075857600080fd5b80633f4ba83a1461069357806342842e0e146106a85780634f1ef286146106c85780634f6ccce7146106db57600080fd5b806323b872dd116103b25780632f745c59116103815780632f745c59146105fc57806336568abe1461061c5780633659cfe61461063c5780633af8e5eb1461065c5780633c449e001461067357600080fd5b806323b872dd1461056c578063248a9ca31461058c5780632a4c03cc146105bc5780632f2ff15d146105dc57600080fd5b8063095ea7b3116103f9578063095ea7b3146104da57806318160ddd146104fc57806318fc77ae1461051b5780631d1438481461052e57806321846c761461054f57600080fd5b806301ffc9a71461043657806305bc64eb1461046b57806306fdde031461048d578063081812fc146104a257600080fd5b3661043157005b600080fd5b34801561044257600080fd5b50610456610451366004614c4c565b610d41565b60405190151581526020015b60405180910390f35b34801561047757600080fd5b50610480610d52565b6040516104629190614cc1565b34801561049957600080fd5b50610480610de1565b3480156104ae57600080fd5b506104c26104bd366004614cd4565b610e73565b6040516001600160a01b039091168152602001610462565b3480156104e657600080fd5b506104fa6104f5366004614d09565b610f0d565b005b34801561050857600080fd5b506099545b604051908152602001610462565b6104fa610529366004614d09565b611022565b34801561053a57600080fd5b506101c9546104c2906001600160a01b031681565b610557611364565b60408051928352602083019190915201610462565b34801561057857600080fd5b506104fa610587366004614d33565b611806565b34801561059857600080fd5b5061050d6105a7366004614cd4565b600090815260fb602052604090206001015490565b3480156105c857600080fd5b506104fa6105d7366004614d6f565b611837565b3480156105e857600080fd5b506104fa6105f7366004614d8a565b61195f565b34801561060857600080fd5b5061050d610617366004614d09565b611985565b34801561062857600080fd5b506104fa610637366004614d8a565b611a1b565b34801561064857600080fd5b506104fa610657366004614d6f565b611a99565b34801561066857600080fd5b5061050d6101c65481565b34801561067f57600080fd5b506104fa61068e366004614e59565b611b78565b34801561069f57600080fd5b506104fa61216b565b3480156106b457600080fd5b506104fa6106c3366004614d33565b61218c565b6104fa6106d6366004614f31565b6121a7565b3480156106e757600080fd5b5061050d6106f6366004614cd4565b612273565b34801561070757600080fd5b5061050d612306565b34801561071c57600080fd5b506101d2546104569060ff1681565b34801561073757600080fd5b5061050d6123a7565b34801561074c57600080fd5b506101d85461050d9081565b34801561076457600080fd5b5061050d610773366004614d6f565b61245a565b34801561078457600080fd5b5060c95460ff16610456565b34801561079c57600080fd5b506101d2546104c29061010090046001600160a01b031681565b3480156107c257600080fd5b506104c26107d1366004614cd4565b612580565b3480156107e257600080fd5b506107f66107f1366004614d6f565b6125f7565b6040516104629190614f7f565b34801561080f57600080fd5b5061050d61081e366004614d6f565b6101d96020526000908152604090205481565b34801561083d57600080fd5b506104fa61084c366004614cd4565b612699565b34801561085d57600080fd5b5061087161086c366004614cd4565b612ad7565b6040516104629190615003565b34801561088a57600080fd5b506104fa612b42565b34801561089f57600080fd5b5061050d6108ae366004614d6f565b612ca1565b3480156108bf57600080fd5b506108d36108ce366004614cd4565b612d28565b6040516104629190615011565b3480156108ec57600080fd5b5061050d6101ce5481565b34801561090357600080fd5b5061050d612f02565b34801561091857600080fd5b506104fa612fb1565b34801561092d57600080fd5b506101d45461050d9081565b6104fa612fd2565b34801561094d57600080fd5b5061050d6101cb5481565b34801561096457600080fd5b5061045661097336600461509e565b6101dd60209081526000928352604080842090915290825290205460ff1681565b3480156109a057600080fd5b506104566109af366004614d8a565b61320e565b3480156109c057600080fd5b5061050d6101cd5481565b3480156109d757600080fd5b5061050d6101ca5481565b3480156109ee57600080fd5b50610480613239565b348015610a0357600080fd5b5061050d6101dc5481565b348015610a1a57600080fd5b506104fa613248565b348015610a2f57600080fd5b5061050d600081565b348015610a4457600080fd5b506104fa610a533660046150ce565b613325565b348015610a6457600080fd5b5061050d610a73366004614cd4565b613330565b348015610a8457600080fd5b5061050d6101d65481565b348015610a9b57600080fd5b506101d5546104c2906001600160a01b031681565b348015610abc57600080fd5b50610b0b610acb366004614cd4565b6101d7602052600090815260409020805460018201546002830154600384015460048501546005909501549394929391926001600160a01b039091169186565b604080519687526020870195909552938501929092526001600160a01b03166060840152608083015260a082015260c001610462565b348015610b4d57600080fd5b50610480613347565b348015610b6257600080fd5b506104fa610b71366004615105565b613355565b348015610b8257600080fd5b50610480610b91366004614cd4565b61338d565b348015610ba257600080fd5b506107f6613422565b348015610bb757600080fd5b5061050d6101c75481565b348015610bce57600080fd5b50610480613479565b348015610be357600080fd5b506104fa610bf2366004614d8a565b613487565b348015610c0357600080fd5b5061050d6134ad565b348015610c1857600080fd5b50610c216134c6565b604051610462919061516d565b348015610c3a57600080fd5b5061050d6101cc5481565b348015610c5157600080fd5b5061050d610c60366004614d6f565b6135c9565b348015610c7157600080fd5b506107f6613673565b348015610c8657600080fd5b50610456610c953660046151af565b6001600160a01b039182166000908152606a6020908152604080832093909416825291909152205460ff1690565b348015610ccf57600080fd5b5061050d60008051602061586e83398151915281565b348015610cf157600080fd5b5061050d610d00366004614cd4565b6101d36020526000908152604090205481565b348015610d1f57600080fd5b5061050d6101c85481565b348015610d3657600080fd5b5061050d6101cf5481565b6000610d4c826136d8565b92915050565b6101c38054610d60906151d9565b80601f0160208091040260200160405190810160405280929190818152602001828054610d8c906151d9565b8015610dd95780601f10610dae57610100808354040283529160200191610dd9565b820191906000526020600020905b815481529060010190602001808311610dbc57829003601f168201915b505050505081565b606060658054610df0906151d9565b80601f0160208091040260200160405190810160405280929190818152602001828054610e1c906151d9565b8015610e695780601f10610e3e57610100808354040283529160200191610e69565b820191906000526020600020905b815481529060010190602001808311610e4c57829003601f168201915b5050505050905090565b6000818152606760205260408120546001600160a01b0316610ef15760405162461bcd60e51b815260206004820152602c60248201527f4552433732313a20617070726f76656420717565727920666f72206e6f6e657860448201526b34b9ba32b73a103a37b5b2b760a11b60648201526084015b60405180910390fd5b506000908152606960205260409020546001600160a01b031690565b6000610f1882612580565b9050806001600160a01b0316836001600160a01b031603610f855760405162461bcd60e51b815260206004820152602160248201527f4552433732313a20617070726f76616c20746f2063757272656e74206f776e656044820152603960f91b6064820152608401610ee8565b336001600160a01b0382161480610fa15750610fa18133610c95565b6110135760405162461bcd60e51b815260206004820152603860248201527f4552433732313a20617070726f76652063616c6c6572206973206e6f74206f7760448201527f6e6572206e6f7220617070726f76656420666f7220616c6c00000000000000006064820152608401610ee8565b61101d83836136fd565b505050565b600261019154036110455760405162461bcd60e51b8152600401610ee89061520d565b60026101915560c95460ff161561106e5760405162461bcd60e51b8152600401610ee890615244565b6101d25460ff16156110925760405162461bcd60e51b8152600401610ee89061526e565b60006101cc54116110b55760405162461bcd60e51b8152600401610ee8906152bf565b341561113d5760405162461bcd60e51b815260206004820152604b60248201527f4465706f73697473206f662065726332302063616e6e6f7420616c736f20696e60448201527f636c756465206e617469766520746f6b656e7320696e207468652073616d652060648201526a3a3930b739b0b1ba34b7b760a91b608482015260a401610ee8565b6111496101da8361376b565b506001600160a01b03821660009081526101d9602052604090205461116f908290615332565b6001600160a01b0383811660008181526101d960209081526040808320959095556101d854855160c08101875281815243818401908152818801858152606080840188815260808086018d81524260a0808901918252898c526101d78b528e8c2089518155975160018901559551600288015592516003870180546001600160a01b03191691909d1617909b55995160048501555160059093019290925588513081529485018490528489019590955283019490945293810186905293519293919233927fce3ede2e266c8c5ec60064c2a65ba25bd2899a334c42b39b742129c49b1ef1c492908290030190a261126b6101d880546001019055565b60405163095ea7b360e01b81523060048201526024810184905284906001600160a01b0382169063095ea7b3906044016020604051808303816000875af11580156112ba573d6000803e3d6000fd5b505050506040513d601f19601f820116820180604052508101906112de919061534a565b506040516323b872dd60e01b8152336004820152306024820152604481018590526001600160a01b038216906323b872dd906064016020604051808303816000875af1158015611332573d6000803e3d6000fd5b505050506040513d601f19601f82011682018060405250810190611356919061534a565b505060016101915550505050565b6000806002610191540361138a5760405162461bcd60e51b8152600401610ee89061520d565b60026101915560c95460ff16156113b35760405162461bcd60e51b8152600401610ee890615244565b6101d25461010090046001600160a01b031633036114135760405162461bcd60e51b815260206004820181905260248201527f54726561737572792063616e6e6f74207075726368617365207469636b6574736044820152606401610ee8565b6101d25460ff1615156001146114915760405162461bcd60e51b815260206004820152603860248201527f5469636b6574732063616e6e6f7420626520707572636861736564206166746560448201527f72207468652066756e6472616973696e6720706572696f6400000000000000006064820152608401610ee8565b600061149c34613330565b90506114a66134ad565b81111561151b5760405162461bcd60e51b815260206004820152603d60248201527f4e6f7420656e6f756768207368617265732072656d61696e696e6720746f207060448201527f757263686173652c20747279206120736d616c6c657220616d6f756e740000006064820152608401610ee8565b60006115276101d45490565b90506115386101d480546001019055565b60008181526101d3602052604090208290556115566101d03361376b565b50816101cc546115669190615332565b6101cc556101cf54611579903490615332565b6101cf556101d2546101ca54604080513081526020810185905290810185905260608101919091526101009091046001600160a01b03169033907faec7d08bcb5e515903dbbba83c84bb270bdbdc5ad261ce0709da4d20226d40639060800160405180910390a360006305f5e1006101d654346115f69190615367565b6116009190615386565b9050600061160e82346153a8565b6101d5546101d2546101ca5460408051308152602081018990523481830152606081018690526080810188905260a081018a905260c0810192909252519394506001600160a01b03928316936101009092049092169133917f3e3034b2cabc46fc365f708d14116816d29867e13940e763b1c3d023f9bcb7eb9181900360e00190a46101d25460405160009161010090046001600160a01b03169083908381818185875af1925050503d80600081146116e3576040519150601f19603f3d011682016040523d82523d6000602084013e6116e8565b606091505b50509050806117445760405162461bcd60e51b815260206004820152602260248201527f547265617375727920636f756c64206e6f742072656365697665207061796d656044820152611b9d60f21b6064820152608401610ee8565b6101d5546040516000916001600160a01b03169085908381818185875af1925050503d8060008114611792576040519150601f19603f3d011682016040523d82523d6000602084013e611797565b606091505b50509050806117e85760405162461bcd60e51b815260206004820181905260248201527f42726f6b657220636f756c64206e6f742072656365697665207061796d656e746044820152606401610ee8565b6117f23386613780565b509295509293505050506001610191559091565b611810338261379a565b61182c5760405162461bcd60e51b8152600401610ee8906153bf565b61101d83838361388d565b60008051602061586e8339815191526118508133613a34565b600261019154036118735760405162461bcd60e51b8152600401610ee89061520d565b60026101915560c95460ff161561189c5760405162461bcd60e51b8152600401610ee890615244565b6101d25460ff16156118c05760405162461bcd60e51b8152600401610ee890615410565b60006118cb8361245a565b9050828115611953576101d25460405163a9059cbb60e01b81526101009091046001600160a01b0390811660048301526024820184905282169063a9059cbb906044016020604051808303816000875af115801561192d573d6000803e3d6000fd5b505050506040513d601f19601f82011682018060405250810190611951919061534a565b505b50506001610191555050565b600082815260fb602052604090206001015461197b8133613a34565b61101d8383613a98565b600061199083612ca1565b82106119f25760405162461bcd60e51b815260206004820152602b60248201527f455243373231456e756d657261626c653a206f776e657220696e646578206f7560448201526a74206f6620626f756e647360a81b6064820152608401610ee8565b506001600160a01b03919091166000908152609760209081526040808320938352929052205490565b6001600160a01b0381163314611a8b5760405162461bcd60e51b815260206004820152602f60248201527f416363657373436f6e74726f6c3a2063616e206f6e6c792072656e6f756e636560448201526e103937b632b9903337b91039b2b63360891b6064820152608401610ee8565b611a958282613b1e565b5050565b6001600160a01b037f0000000000000000000000000000000000000000000000000000000000000000163003611ae15760405162461bcd60e51b8152600401610ee89061545f565b7f00000000000000000000000000000000000000000000000000000000000000006001600160a01b0316611b2a60008051602061588e833981519152546001600160a01b031690565b6001600160a01b031614611b505760405162461bcd60e51b8152600401610ee8906154ab565b611b5981613b85565b60408051600080825260208201909252611b7591839190613b9e565b50565b600054610100900460ff16611b935760005460ff1615611b97565b303b155b611bfa5760405162461bcd60e51b815260206004820152602e60248201527f496e697469616c697a61626c653a20636f6e747261637420697320616c72656160448201526d191e481a5b9a5d1a585b1a5e995960921b6064820152608401610ee8565b600054610100900460ff16158015611c1c576000805461ffff19166101011790555b60408051808201909152600780825266125b9cdd185b9d60ca1b6020909201918252611c4b916101c391614b62565b5060408051808201909152600a80825269302e342e302d64656d6f60b01b6020909201918252611c7e916101c491614b62565b5089518a908a90600003611ccb5760405162461bcd60e51b81526020600482015260146024820152734e616d652063616e6e6f7420626520656d70747960601b6044820152606401610ee8565b8051600003611d155760405162461bcd60e51b815260206004820152601660248201527553796d626f6c2063616e6e6f7420626520656d70747960501b6044820152606401610ee8565b8951600003611d665760405162461bcd60e51b815260206004820152601e60248201527f4261736520746f6b656e205552492063616e6e6f7420626520656d70747900006044820152606401610ee8565b6305f5e1008510611dd85760405162461bcd60e51b815260206004820152603660248201527f5075726368617365207469636b657420666565206d757374206265206c657373604482015275207468616e203130303030303030302028313030252960501b6064820152608401610ee8565b6001600160a01b038716611e3a5760405162461bcd60e51b815260206004820152602360248201527f54726561737572792063616e6e6f7420626520746865207a65726f206164647260448201526265737360e81b6064820152608401610ee8565b6001600160a01b038616611e9a5760405162461bcd60e51b815260206004820152602160248201527f4973737565722063616e6e6f7420626520746865207a65726f206164647265736044820152607360f81b6064820152608401610ee8565b60008811611efc5760405162461bcd60e51b815260206004820152602960248201527f4d61782073686172657320736f6c64206d7573742062652067726561746572206044820152687468616e207a65726f60b81b6064820152608401610ee8565b60008911611f615760405162461bcd60e51b815260206004820152602c60248201527f5461726765742073686172657320736f6c64206d75737420626520677265617460448201526b6572207468616e207a65726f60a01b6064820152608401610ee8565b87891115611fd9576040805162461bcd60e51b81526020600482015260248101919091527f5461726765742073686172657320736f6c64206d757374206265206c6573732060448201527f7468616e206f7220657175616c20746f206d61782073686172657320736f6c646064820152608401610ee8565b6001600160a01b0384166120395760405162461bcd60e51b815260206004820152602160248201527f42726f6b65722063616e6e6f7420626520746865207a65726f206164647265736044820152607360f81b6064820152608401610ee8565b6120438c8c613d09565b61204b613d3a565b612053613d63565b61205b613d3a565b612063613d3a565b426101c85560126101c681905560086101c75564e8d4a510006101ca556101cb5560006101cf8190556101cd8a90556101ce8990556101c980546001600160a01b03808a166001600160a01b0319928316179092556101d280548b8416610100026001600160a81b03199091161760011790556101d68890556101d58054928816929091169190911790556120f730613d92565b90508a8160405160200161210c9291906154f7565b6040516020818303038152906040526101c59080519060200190612131929190614b62565b5061214a60008051602061586e83398151915288613a98565b505050801561215f576000805461ff00191690555b50505050505050505050565b60008051602061586e8339815191526121848133613a34565b611b75613de9565b61101d83838360405180602001604052806000815250613355565b6001600160a01b037f00000000000000000000000000000000000000000000000000000000000000001630036121ef5760405162461bcd60e51b8152600401610ee89061545f565b7f00000000000000000000000000000000000000000000000000000000000000006001600160a01b031661223860008051602061588e833981519152546001600160a01b031690565b6001600160a01b03161461225e5760405162461bcd60e51b8152600401610ee8906154ab565b61226782613b85565b611a9582826001613b9e565b600061227e60995490565b82106122e15760405162461bcd60e51b815260206004820152602c60248201527f455243373231456e756d657261626c653a20676c6f62616c20696e646578206f60448201526b7574206f6620626f756e647360a01b6064820152608401610ee8565b609982815481106122f4576122f4615545565b90600052602060002001549050919050565b600080805b6101d8548110156123a15760008181526101d76020908152604091829020825160c0810184528154815260018201549281019290925260028101549282019290925260038201546001600160a01b0316606082018190526004830154608083015260059092015460a08201529061238e57604081015161238b9084615332565b92505b50806123998161555b565b91505061230b565b50919050565b6000306001600160a01b037f000000000000000000000000000000000000000000000000000000000000000016146124475760405162461bcd60e51b815260206004820152603860248201527f555550535570677261646561626c653a206d757374206e6f742062652063616c60448201527f6c6564207468726f7567682064656c656761746563616c6c00000000000000006064820152608401610ee8565b5060008051602061588e83398151915290565b600080805b6101d8548110156124fd5760008181526101d76020908152604091829020825160c0810184528154815260018201549281019290925260028101549282019290925260038201546001600160a01b03908116606083018190526004840154608084015260059093015460a0830152909190861690036124ea5760808101516124e79084615332565b92505b50806124f58161555b565b91505061245f565b506040516370a0823160e01b8152306004820152839060009083906001600160a01b038416906370a0823190602401602060405180830381865afa158015612549573d6000803e3d6000fd5b505050506040513d601f19601f8201168201806040525081019061256d9190615574565b61257791906153a8565b95945050505050565b6000818152606760205260408120546001600160a01b031680610d4c5760405162461bcd60e51b815260206004820152602960248201527f4552433732313a206f776e657220717565727920666f72206e6f6e657869737460448201526832b73a103a37b5b2b760b91b6064820152608401610ee8565b6060600061260483612ca1565b905060008167ffffffffffffffff81111561262157612621614db6565b60405190808252806020026020018201604052801561264a578160200160208202803683370190505b50905060005b82811015612691576126628582611985565b82828151811061267457612674615545565b6020908102919091010152806126898161555b565b915050612650565b509392505050565b600261019154036126bc5760405162461bcd60e51b8152600401610ee89061520d565b60026101915560c95460ff16156126e55760405162461bcd60e51b8152600401610ee890615244565b6101d25460ff16156127565760405162461bcd60e51b815260206004820152603460248201527f5769746864726177616c732063616e6e6f74206265206d61646520647572696e60448201527319c8199d5b991c985a5cda5b99c81c195c9a5bd960621b6064820152608401610ee8565b3361276082612580565b6001600160a01b0316146127b65760405162461bcd60e51b815260206004820152601a60248201527f596f7520646f206e6f74206f776e2074686973207469636b65740000000000006044820152606401610ee8565b60008181526101d36020526040812054905b6101d854811015612acc5760008181526101d760209081526040808320815160c081018352815481526001808301548286015260028301548285015260038301546001600160a01b031660608301526004830154608083015260059092015460a08201528785526101dd845282852081518652909352922054909160ff909116151514612ab95760008481526101dd60209081526040808320845184529091529020805460ff1916600117905560608101516001600160a01b0316156129925760006101cc5484836080015161289e9190615367565b6128a89190615386565b8251606084015160405192935033927f981eda60172361092f12c75de05c753d28c928d6fb0b4b6492e685a44265fc0a926128ec9230928b9291600091899061558d565b60405180910390a260608201516001600160a01b0381166323b872dd3061291289612580565b6040516001600160e01b031960e085901b1681526001600160a01b03928316600482015291166024820152604481018590526064016020604051808303816000875af1158015612966573d6000803e3d6000fd5b505050506040513d601f19601f8201168201806040525081019061298a919061534a565b505050612ab9565b60006101cc548483604001516129a89190615367565b6129b29190615386565b825160405191925033917f981eda60172361092f12c75de05c753d28c928d6fb0b4b6492e685a44265fc0a916129f29130918a918790600090819061558d565b60405180910390a26000612a0586612580565b6001600160a01b03168260405160006040518083038185875af1925050503d8060008114612a4f576040519150601f19603f3d011682016040523d82523d6000602084013e612a54565b606091505b5050905080612ab65760405162461bcd60e51b815260206004820152602860248201527f5469636b657420686f6c64657220636f756c64206e6f742072656365697665206044820152676561726e696e677360c01b6064820152608401610ee8565b50505b5080612ac48161555b565b9150506127c8565b505060016101915550565b612adf614be2565b5060009081526101d76020908152604091829020825160c0810184528154815260018201549281019290925260028101549282019290925260038201546001600160a01b031660608201526004820154608082015260059091015460a082015290565b60008051602061586e833981519152612b5b8133613a34565b60026101915403612b7e5760405162461bcd60e51b8152600401610ee89061520d565b60026101915560c95460ff1615612ba75760405162461bcd60e51b8152600401610ee890615244565b6101d25460ff1615612bcb5760405162461bcd60e51b8152600401610ee890615410565b6000612bd5612f02565b90508015612c97576101d25460405160009161010090046001600160a01b03169083908381818185875af1925050503d8060008114612c30576040519150601f19603f3d011682016040523d82523d6000602084013e612c35565b606091505b5050905080612acc5760405162461bcd60e51b815260206004820152602860248201527f5472617375727920636f756c64206e6f742072656365697665207472617070656044820152676420746f6b656e7360c01b6064820152608401610ee8565b5050600161019155565b60006001600160a01b038216612d0c5760405162461bcd60e51b815260206004820152602a60248201527f4552433732313a2062616c616e636520717565727920666f7220746865207a65604482015269726f206164647265737360b01b6064820152608401610ee8565b506001600160a01b031660009081526068602052604090205490565b60008181526101d36020526040902054606090612d456101d85490565b67ffffffffffffffff811115612d5d57612d5d614db6565b604051908082528060200260200182016040528015612dd957816020015b612dc66040518060e0016040528060008152602001600081526020016000151581526020016000815260200160006001600160a01b0316815260200160008152602001600081525090565b815260200190600190039081612d7b5790505b50915060005b6101d854811015612efb576101cc5460008281526101d76020526040812060020154909190612e0f908590615367565b612e199190615386565b6101cc5460008481526101d7602052604081206004015492935091612e3f908690615367565b612e499190615386565b6040805160e08101825288815260008681526101d7602081815284832080548286018190528d85526101dd835286852090855282528584205460ff161515958501959095526060840188905260038501546001600160a01b0316608085015260a0840186905291889052905260059091015460c08201528651919250908190879086908110612eda57612eda615545565b60200260200101819052505050508080612ef39061555b565b915050612ddf565b5050919050565b600080805b6101d854811015612f9d5760008181526101d76020908152604091829020825160c0810184528154815260018201549281019290925260028101549282019290925260038201546001600160a01b0316606082018190526004830154608083015260059092015460a082015290612f8a576040810151612f879084615332565b92505b5080612f958161555b565b915050612f07565b506000612faa82476153a8565b9392505050565b60008051602061586e833981519152612fca8133613a34565b611b75613e7c565b60026101915403612ff55760405162461bcd60e51b8152600401610ee89061520d565b60026101915560c95460ff161561301e5760405162461bcd60e51b8152600401610ee890615244565b6101d25460ff16156130425760405162461bcd60e51b8152600401610ee89061526e565b60006101cc54116130655760405162461bcd60e51b8152600401610ee8906152bf565b346101dc546130749190615332565b6101dc5560006130846101d85490565b6040805160c081018252828152436020808301918252348385018181526000606080870182815260808089018481524260a0808c019182528d87526101d78a528c87208c5181559a5160018c0155965160028b0155925160038a0180546001600160a01b0319166001600160a01b039092169190911790555160048901559051600590970196909655875130815294850189905296840192909252948201819052918101919091529293509133917fce3ede2e266c8c5ec60064c2a65ba25bd2899a334c42b39b742129c49b1ef1c4910160405180910390a261316c6101d880546001019055565b604051600090309034908381818185875af1925050503d80600081146131ae576040519150601f19603f3d011682016040523d82523d6000602084013e6131b3565b606091505b5050905080612acc5760405162461bcd60e51b815260206004820152602160248201527f4c6f6f74626f7820636f756c64206e6f742072656365697665207061796d656e6044820152601d60fa1b6064820152608401610ee8565b600091825260fb602090815260408084206001600160a01b0393909316845291905290205460ff1690565b606060668054610df0906151d9565b60008051602061586e8339815191526132618133613a34565b600261019154036132845760405162461bcd60e51b8152600401610ee89061520d565b60026101915560c95460ff16156132ad5760405162461bcd60e51b8152600401610ee890615244565b6101d25460ff1615156001146133115760405162461bcd60e51b8152602060048201526024808201527f46756e6472616973696e6720706572696f642068617320616c726561647920656044820152631b99195960e21b6064820152608401610ee8565b506101d2805460ff19169055600161019155565b611a95338383613ed4565b600060128161333f8483613fa2565b949350505050565b6101c58054610d60906151d9565b61335f338361379a565b61337b5760405162461bcd60e51b8152600401610ee8906153bf565b61338784848484613fe4565b50505050565b60606101c5805461339d906151d9565b80601f01602080910402602001604051908101604052809291908181526020018280546133c9906151d9565b80156134165780601f106133eb57610100808354040283529160200191613416565b820191906000526020600020905b8154815290600101906020018083116133f957829003601f168201915b50505050509050919050565b6101da80546040805160208084028201810190925282815260609390929091830182828015610e6957602002820191906000526020600020905b81548152602001906001019080831161345c575050505050905090565b6101c48054610d60906151d9565b600082815260fb60205260409020600101546134a38133613a34565b61101d8383613b1e565b60006101cc546101ce546134c191906153a8565b905090565b60606134d26101d85490565b67ffffffffffffffff8111156134ea576134ea614db6565b60405190808252806020026020018201604052801561352357816020015b613510614be2565b8152602001906001900390816135085790505b50905060005b6101d8548110156135c55760008181526101d76020908152604091829020825160c0810184528154815260018201549281019290925260028101549282019290925260038201546001600160a01b031660608201526004820154608082015260059091015460a082015282518390839081106135a7576135a7615545565b602002602001018190525080806135bd9061555b565b915050613529565b5090565b600080805b6101d85481101561366c5760008181526101d76020908152604091829020825160c0810184528154815260018201549281019290925260028101549282019290925260038201546001600160a01b03908116606083018190526004840154608084015260059093015460a0830152909190861690036136595760808101516136569084615332565b92505b50806136648161555b565b9150506135ce565b5092915050565b6101d080546040805160208084028201810190925282815260609390929091830182828015610e69576020028201919060005260206000209081548152602001906001019080831161345c575050505050905090565b6001600160a01b03163b151590565b60006001600160e01b03198216637965db0b60e01b1480610d4c5750610d4c82614017565b600081815260696020526040902080546001600160a01b0319166001600160a01b038416908117909155819061373282612580565b6001600160a01b03167f8c5be1e5ebec7d5bd14f71427d1e84f3dd0314c0f7b2291e5b200ac8c7c3b92560405160405180910390a45050565b6000612faa836001600160a01b03841661403c565b611a9582826040518060200160405280600081525061408b565b6000818152606760205260408120546001600160a01b03166138135760405162461bcd60e51b815260206004820152602c60248201527f4552433732313a206f70657261746f7220717565727920666f72206e6f6e657860448201526b34b9ba32b73a103a37b5b2b760a11b6064820152608401610ee8565b600061381e83612580565b9050806001600160a01b0316846001600160a01b031614806138595750836001600160a01b031661384e84610e73565b6001600160a01b0316145b8061333f57506001600160a01b038082166000908152606a602090815260408083209388168352929052205460ff1661333f565b826001600160a01b03166138a082612580565b6001600160a01b0316146139045760405162461bcd60e51b815260206004820152602560248201527f4552433732313a207472616e736665722066726f6d20696e636f72726563742060448201526437bbb732b960d91b6064820152608401610ee8565b6001600160a01b0382166139665760405162461bcd60e51b8152602060048201526024808201527f4552433732313a207472616e7366657220746f20746865207a65726f206164646044820152637265737360e01b6064820152608401610ee8565b6139718383836140be565b61397c6000826136fd565b6001600160a01b03831660009081526068602052604081208054600192906139a59084906153a8565b90915550506001600160a01b03821660009081526068602052604081208054600192906139d3908490615332565b909155505060008181526067602052604080822080546001600160a01b0319166001600160a01b0386811691821790925591518493918716917fddf252ad1be2c89b69c2b068fc378daa952ba7f163c4a11628f55a4df523b3ef91a4505050565b613a3e828261320e565b611a9557613a56816001600160a01b031660146140ec565b613a618360206140ec565b604051602001613a729291906155c8565b60408051601f198184030181529082905262461bcd60e51b8252610ee891600401614cc1565b613aa2828261320e565b611a9557600082815260fb602090815260408083206001600160a01b03851684529091529020805460ff19166001179055613ada3390565b6001600160a01b0316816001600160a01b0316837f2f8788117e7eff1d82e926ec794901d17c78024a50270940304540a733656f0d60405160405180910390a45050565b613b28828261320e565b15611a9557600082815260fb602090815260408083206001600160a01b0385168085529252808320805460ff1916905551339285917ff6391f5c32d9c69d2a47ea670b442974b53935d1edc7fd64eb21e047a839171b9190a45050565b60008051602061586e833981519152611a958133613a34565b7f4910fdfa16fed3260ed0e7147f7cc6da11a60208b5b9406d12a635614ffd91435460ff1615613bd15761101d83614288565b826001600160a01b03166352d1902d6040518163ffffffff1660e01b8152600401602060405180830381865afa925050508015613c2b575060408051601f3d908101601f19168201909252613c2891810190615574565b60015b613c8e5760405162461bcd60e51b815260206004820152602e60248201527f45524331393637557067726164653a206e657720696d706c656d656e7461746960448201526d6f6e206973206e6f74205555505360901b6064820152608401610ee8565b60008051602061588e8339815191528114613cfd5760405162461bcd60e51b815260206004820152602960248201527f45524331393637557067726164653a20756e737570706f727465642070726f786044820152681a58589b195555525160ba1b6064820152608401610ee8565b5061101d838383614324565b600054610100900460ff16613d305760405162461bcd60e51b8152600401610ee89061563d565b611a958282614349565b600054610100900460ff16613d615760405162461bcd60e51b8152600401610ee89061563d565b565b600054610100900460ff16613d8a5760405162461bcd60e51b8152600401610ee89061563d565b613d61614397565b606081600003613dbc5750506040805180820190915260048152630307830360e41b602082015290565b8160005b8115613ddf5780613dd08161555b565b915050600882901c9150613dc0565b61333f84826143ca565b60c95460ff16613e325760405162461bcd60e51b815260206004820152601460248201527314185d5cd8589b194e881b9bdd081c185d5cd95960621b6044820152606401610ee8565b60c9805460ff191690557f5db9ee0a495bf2e6ff9c91a7834c1ba4fdd244a5e8aa4e537bd38aeae4b073aa335b6040516001600160a01b03909116815260200160405180910390a1565b60c95460ff1615613e9f5760405162461bcd60e51b8152600401610ee890615244565b60c9805460ff191660011790557f62e78cea01bee320cd4e420270b5ea74000d11b0c9f74754ebdbfc544b05a258613e5f3390565b816001600160a01b0316836001600160a01b031603613f355760405162461bcd60e51b815260206004820152601960248201527f4552433732313a20617070726f766520746f2063616c6c6572000000000000006044820152606401610ee8565b6001600160a01b038381166000818152606a6020908152604080832094871680845294825291829020805460ff191686151590811790915591519182527f17307eab39ab6107e8899845ad3d59bd9653f200f220920489ca2b5937696c31910160405180910390a3505050565b60006101ca54826101cb546101c654613fbb9190615332565b613fc591906153a8565b613fd090600a61576c565b613fda9085615367565b612faa9190615386565b613fef84848461388d565b613ffb84848484614517565b6133875760405162461bcd60e51b8152600401610ee890615778565b60006001600160e01b0319821663780e9d6360e01b1480610d4c5750610d4c82614618565b600081815260018301602052604081205461408357508154600181810184556000848152602080822090930184905584548482528286019093526040902091909155610d4c565b506000610d4c565b6140958383614668565b6140a26000848484614517565b61101d5760405162461bcd60e51b8152600401610ee890615778565b60c95460ff16156140e15760405162461bcd60e51b8152600401610ee890615244565b61101d8383836147b6565b606060006140fb836002615367565b614106906002615332565b67ffffffffffffffff81111561411e5761411e614db6565b6040519080825280601f01601f191660200182016040528015614148576020820181803683370190505b509050600360fc1b8160008151811061416357614163615545565b60200101906001600160f81b031916908160001a905350600f60fb1b8160018151811061419257614192615545565b60200101906001600160f81b031916908160001a90535060006141b6846002615367565b6141c1906001615332565b90505b6001811115614239576f181899199a1a9b1b9c1cb0b131b232b360811b85600f16601081106141f5576141f5615545565b1a60f81b82828151811061420b5761420b615545565b60200101906001600160f81b031916908160001a90535060049490941c93614232816157ca565b90506141c4565b508315612faa5760405162461bcd60e51b815260206004820181905260248201527f537472696e67733a20686578206c656e67746820696e73756666696369656e746044820152606401610ee8565b6001600160a01b0381163b6142f55760405162461bcd60e51b815260206004820152602d60248201527f455243313936373a206e657720696d706c656d656e746174696f6e206973206e60448201526c1bdd08184818dbdb9d1c9858dd609a1b6064820152608401610ee8565b60008051602061588e83398151915280546001600160a01b0319166001600160a01b0392909216919091179055565b61432d8361486e565b60008251118061433a5750805b1561101d5761338783836148ae565b600054610100900460ff166143705760405162461bcd60e51b8152600401610ee89061563d565b8151614383906065906020850190614b62565b50805161101d906066906020840190614b62565b600054610100900460ff166143be5760405162461bcd60e51b8152600401610ee89061563d565b60c9805460ff19169055565b606060006143d9836002615367565b6143e4906002615332565b67ffffffffffffffff8111156143fc576143fc614db6565b6040519080825280601f01601f191660200182016040528015614426576020820181803683370190505b509050600360fc1b8160008151811061444157614441615545565b60200101906001600160f81b031916908160001a905350600f60fb1b8160018151811061447057614470615545565b60200101906001600160f81b031916908160001a9053506000614494846002615367565b61449f906001615332565b90505b6001811115614239576f181899199a1a9b1b9c1cb0b131b232b360811b85600f16601081106144d3576144d3615545565b1a60f81b8282815181106144e9576144e9615545565b60200101906001600160f81b031916908160001a90535060049490941c93614510816157ca565b90506144a2565b60006001600160a01b0384163b1561460d57604051630a85bd0160e11b81526001600160a01b0385169063150b7a029061455b9033908990889088906004016157e1565b6020604051808303816000875af1925050508015614596575060408051601f3d908101601f191682019092526145939181019061581e565b60015b6145f3573d8080156145c4576040519150601f19603f3d011682016040523d82523d6000602084013e6145c9565b606091505b5080516000036145eb5760405162461bcd60e51b8152600401610ee890615778565b805181602001fd5b6001600160e01b031916630a85bd0160e11b14905061333f565b506001949350505050565b60006001600160e01b031982166380ac58cd60e01b148061464957506001600160e01b03198216635b5e139f60e01b145b80610d4c57506301ffc9a760e01b6001600160e01b0319831614610d4c565b6001600160a01b0382166146be5760405162461bcd60e51b815260206004820181905260248201527f4552433732313a206d696e7420746f20746865207a65726f20616464726573736044820152606401610ee8565b6000818152606760205260409020546001600160a01b0316156147235760405162461bcd60e51b815260206004820152601c60248201527f4552433732313a20746f6b656e20616c7265616479206d696e746564000000006044820152606401610ee8565b61472f600083836140be565b6001600160a01b0382166000908152606860205260408120805460019290614758908490615332565b909155505060008181526067602052604080822080546001600160a01b0319166001600160a01b03861690811790915590518392907fddf252ad1be2c89b69c2b068fc378daa952ba7f163c4a11628f55a4df523b3ef908290a45050565b6001600160a01b0383166148115761480c81609980546000838152609a60205260408120829055600182018355919091527f72a152ddfb8e864297c917af52ea6c1c68aead0fee1a62673fcc7e0c94979d000155565b614834565b816001600160a01b0316836001600160a01b031614614834576148348382614999565b6001600160a01b03821661484b5761101d81614a36565b826001600160a01b0316826001600160a01b03161461101d5761101d8282614ae5565b61487781614288565b6040516001600160a01b038216907fbc7cd75a20ee27fd9adebab32041f755214dbc6bffa90cc0225b39da2e5c2d3b90600090a250565b60606001600160a01b0383163b6149165760405162461bcd60e51b815260206004820152602660248201527f416464726573733a2064656c65676174652063616c6c20746f206e6f6e2d636f6044820152651b9d1c9858dd60d21b6064820152608401610ee8565b600080846001600160a01b031684604051614931919061583b565b600060405180830381855af49150503d806000811461496c576040519150601f19603f3d011682016040523d82523d6000602084013e614971565b606091505b509150915061257782826040518060600160405280602781526020016158ae60279139614b29565b600060016149a684612ca1565b6149b091906153a8565b600083815260986020526040902054909150808214614a03576001600160a01b03841660009081526097602090815260408083208584528252808320548484528184208190558352609890915290208190555b5060009182526098602090815260408084208490556001600160a01b039094168352609781528383209183525290812055565b609954600090614a48906001906153a8565b6000838152609a602052604081205460998054939450909284908110614a7057614a70615545565b906000526020600020015490508060998381548110614a9157614a91615545565b6000918252602080832090910192909255828152609a90915260408082208490558582528120556099805480614ac957614ac9615857565b6001900381819060005260206000200160009055905550505050565b6000614af083612ca1565b6001600160a01b039093166000908152609760209081526040808320868452825280832085905593825260989052919091209190915550565b60608315614b38575081612faa565b825115614b485782518084602001fd5b8160405162461bcd60e51b8152600401610ee89190614cc1565b828054614b6e906151d9565b90600052602060002090601f016020900481019282614b905760008555614bd6565b82601f10614ba957805160ff1916838001178555614bd6565b82800160010185558215614bd6579182015b82811115614bd6578251825591602001919060010190614bbb565b506135c5929150614c21565b6040518060c0016040528060008152602001600081526020016000815260200160006001600160a01b0316815260200160008152602001600081525090565b5b808211156135c55760008155600101614c22565b6001600160e01b031981168114611b7557600080fd5b600060208284031215614c5e57600080fd5b8135612faa81614c36565b60005b83811015614c84578181015183820152602001614c6c565b838111156133875750506000910152565b60008151808452614cad816020860160208601614c69565b601f01601f19169290920160200192915050565b602081526000612faa6020830184614c95565b600060208284031215614ce657600080fd5b5035919050565b80356001600160a01b0381168114614d0457600080fd5b919050565b60008060408385031215614d1c57600080fd5b614d2583614ced565b946020939093013593505050565b600080600060608486031215614d4857600080fd5b614d5184614ced565b9250614d5f60208501614ced565b9150604084013590509250925092565b600060208284031215614d8157600080fd5b612faa82614ced565b60008060408385031215614d9d57600080fd5b82359150614dad60208401614ced565b90509250929050565b634e487b7160e01b600052604160045260246000fd5b600082601f830112614ddd57600080fd5b813567ffffffffffffffff80821115614df857614df8614db6565b604051601f8301601f19908116603f01168101908282118183101715614e2057614e20614db6565b81604052838152866020858801011115614e3957600080fd5b836020870160208301376000602085830101528094505050505092915050565b60008060008060008060008060006101208a8c031215614e7857600080fd5b893567ffffffffffffffff80821115614e9057600080fd5b614e9c8d838e01614dcc565b9a5060208c0135915080821115614eb257600080fd5b614ebe8d838e01614dcc565b995060408c0135915080821115614ed457600080fd5b50614ee18c828d01614dcc565b97505060608a0135955060808a01359450614efe60a08b01614ced565b9350614f0c60c08b01614ced565b925060e08a01359150614f226101008b01614ced565b90509295985092959850929598565b60008060408385031215614f4457600080fd5b614f4d83614ced565b9150602083013567ffffffffffffffff811115614f6957600080fd5b614f7585828601614dcc565b9150509250929050565b6020808252825182820181905260009190848201906040850190845b81811015614fb757835183529284019291840191600101614f9b565b50909695505050505050565b8051825260208082015190830152604080820151908301526060808201516001600160a01b0316908301526080808201519083015260a090810151910152565b60c08101610d4c8284614fc3565b602080825282518282018190526000919060409081850190868401855b8281101561509157815180518552868101518786015285810151151586860152606080820151908601526080808201516001600160a01b03169086015260a0808201519086015260c0908101519085015260e0909301929085019060010161502e565b5091979650505050505050565b600080604083850312156150b157600080fd5b50508035926020909101359150565b8015158114611b7557600080fd5b600080604083850312156150e157600080fd5b6150ea83614ced565b915060208301356150fa816150c0565b809150509250929050565b6000806000806080858703121561511b57600080fd5b61512485614ced565b935061513260208601614ced565b925060408501359150606085013567ffffffffffffffff81111561515557600080fd5b61516187828801614dcc565b91505092959194509250565b6020808252825182820181905260009190848201906040850190845b81811015614fb75761519c838551614fc3565b9284019260c09290920191600101615189565b600080604083850312156151c257600080fd5b6151cb83614ced565b9150614dad60208401614ced565b600181811c908216806151ed57607f821691505b6020821081036123a157634e487b7160e01b600052602260045260246000fd5b6020808252601f908201527f5265656e7472616e637947756172643a207265656e7472616e742063616c6c00604082015260600190565b60208082526010908201526f14185d5cd8589b194e881c185d5cd95960821b604082015260600190565b60208082526031908201527f4465706f736974732063616e6e6f74206265206d61646520647572696e6720666040820152701d5b991c985a5cda5b99c81c195c9a5bd9607a1b606082015260800190565b60208082526037908201527f4e6f207368617265732068617665206265656e20736f6c642e204465706f736960408201527f74732077696c6c206e6f74206265206163636570746564000000000000000000606082015260800190565b634e487b7160e01b600052601160045260246000fd5b600082198211156153455761534561531c565b500190565b60006020828403121561535c57600080fd5b8151612faa816150c0565b60008160001904831182151516156153815761538161531c565b500290565b6000826153a357634e487b7160e01b600052601260045260246000fd5b500490565b6000828210156153ba576153ba61531c565b500390565b60208082526031908201527f4552433732313a207472616e736665722063616c6c6572206973206e6f74206f6040820152701ddb995c881b9bdc88185c1c1c9bdd9959607a1b606082015260800190565b6020808252602f908201527f5265736375652063616e6e6f74206265206d61646520647572696e672066756e60408201526e191c985a5cda5b99c81c195c9a5bd9608a1b606082015260800190565b6020808252602c908201527f46756e6374696f6e206d7573742062652063616c6c6564207468726f7567682060408201526b19195b1959d85d1958d85b1b60a21b606082015260800190565b6020808252602c908201527f46756e6374696f6e206d7573742062652063616c6c6564207468726f7567682060408201526b6163746976652070726f787960a01b606082015260800190565b60008351615509818460208801614c69565b602f60f81b9083019081528351615527816001840160208801614c69565b64173539b7b760d91b60019290910191820152600601949350505050565b634e487b7160e01b600052603260045260246000fd5b60006001820161556d5761556d61531c565b5060010190565b60006020828403121561558657600080fd5b5051919050565b6001600160a01b039687168152602081019590955260408501939093526060840191909152909216608082015260a081019190915260c00190565b7f416363657373436f6e74726f6c3a206163636f756e7420000000000000000000815260008351615600816017850160208801614c69565b7001034b99036b4b9b9b4b733903937b6329607d1b6017918401918201528351615631816028840160208801614c69565b01602801949350505050565b6020808252602b908201527f496e697469616c697a61626c653a20636f6e7472616374206973206e6f74206960408201526a6e697469616c697a696e6760a81b606082015260800190565b600181815b808511156156c35781600019048211156156a9576156a961531c565b808516156156b657918102915b93841c939080029061568d565b509250929050565b6000826156da57506001610d4c565b816156e757506000610d4c565b81600181146156fd576002811461570757615723565b6001915050610d4c565b60ff8411156157185761571861531c565b50506001821b610d4c565b5060208310610133831016604e8410600b8410161715615746575081810a610d4c565b6157508383615688565b80600019048211156157645761576461531c565b029392505050565b6000612faa83836156cb565b60208082526032908201527f4552433732313a207472616e7366657220746f206e6f6e20455243373231526560408201527131b2b4bb32b91034b6b83632b6b2b73a32b960711b606082015260800190565b6000816157d9576157d961531c565b506000190190565b6001600160a01b038581168252841660208201526040810183905260806060820181905260009061581490830184614c95565b9695505050505050565b60006020828403121561583057600080fd5b8151612faa81614c36565b6000825161584d818460208701614c69565b9190910192915050565b634e487b7160e01b600052603160045260246000fdfe3b5d4cc60d3ec3516ee8ae083bd60934f6eb2a6c54b1229985c41bfb092b2603360894a13ba1a3210667c828492db98dca3e2076cc3735a920a3ca505d382bbc416464726573733a206c6f772d6c6576656c2064656c65676174652063616c6c206661696c6564a2646970667358221220f661322b29a531560a270f4cdc8bcac448c68aa65a04ac7d9e83db2f025fef6e64736f6c634300080d0033",
  "linkReferences": {},
  "deployedLinkReferences": {}
}