{
  "_format": "hh-sol-artifact-1",
  "contractName": "LootboxEscrowFactory",
  "sourceName": "contracts/LootboxEscrowFactory.sol",
  "abi": [
    {
      "inputs": [
        {
          "internalType": "address",
          "name": "_lootboxDao",
          "type": "address"
        },
        {
          "internalType": "address",
          "name": "_nativeTokenPriceFeed",
          "type": "address"
        },
        {
          "internalType": "uint256",
          "name": "_ticketPurchaseFee",
          "type": "uint256"
        },
        {
          "internalType": "address",
          "name": "_brokerAddress",
          "type": "address"
        }
      ],
      "stateMutability": "nonpayable",
      "type": "constructor"
    },
    {
      "anonymous": false,
      "inputs": [
        {
          "indexed": true,
          "internalType": "address",
          "name": "lootbox",
          "type": "address"
        },
        {
          "indexed": true,
          "internalType": "address",
          "name": "affiliate",
          "type": "address"
        },
        {
          "indexed": false,
          "internalType": "uint256",
          "name": "affiliateFee",
          "type": "uint256"
        },
        {
          "indexed": false,
          "internalType": "uint256",
          "name": "ticketPurchaseFee",
          "type": "uint256"
        },
        {
          "indexed": false,
          "internalType": "address",
          "name": "lootboxIssuer",
          "type": "address"
        },
        {
          "indexed": false,
          "internalType": "address",
          "name": "lootboxTreasury",
          "type": "address"
        }
      ],
      "name": "AffiliateReceipt",
      "type": "event"
    },
    {
      "anonymous": false,
      "inputs": [
        {
          "indexed": true,
          "internalType": "address",
          "name": "affiliate",
          "type": "address"
        },
        {
          "indexed": true,
          "internalType": "address",
          "name": "whitelistedBy",
          "type": "address"
        },
        {
          "indexed": false,
          "internalType": "uint256",
          "name": "ticketAffiliateFee",
          "type": "uint256"
        },
        {
          "indexed": false,
          "internalType": "uint256",
          "name": "timestamp",
          "type": "uint256"
        }
      ],
      "name": "AffiliateWhitelisted",
      "type": "event"
    },
    {
      "anonymous": false,
      "inputs": [
        {
          "indexed": false,
          "internalType": "string",
          "name": "lootboxName",
          "type": "string"
        },
        {
          "indexed": true,
          "internalType": "address",
          "name": "lootbox",
          "type": "address"
        },
        {
          "indexed": true,
          "internalType": "address",
          "name": "issuer",
          "type": "address"
        },
        {
          "indexed": true,
          "internalType": "address",
          "name": "treasury",
          "type": "address"
        },
        {
          "indexed": false,
          "internalType": "uint256",
          "name": "targetSharesSold",
          "type": "uint256"
        },
        {
          "indexed": false,
          "internalType": "uint256",
          "name": "maxSharesSold",
          "type": "uint256"
        },
        {
          "indexed": false,
          "internalType": "uint256",
          "name": "sharePriceUSD",
          "type": "uint256"
        },
        {
          "indexed": false,
          "internalType": "string",
          "name": "_data",
          "type": "string"
        }
      ],
      "name": "LootboxCreated",
      "type": "event"
    },
    {
      "anonymous": false,
      "inputs": [
        {
          "indexed": false,
          "internalType": "address",
          "name": "account",
          "type": "address"
        }
      ],
      "name": "Paused",
      "type": "event"
    },
    {
      "anonymous": false,
      "inputs": [
        {
          "indexed": true,
          "internalType": "bytes32",
          "name": "role",
          "type": "bytes32"
        },
        {
          "indexed": true,
          "internalType": "bytes32",
          "name": "previousAdminRole",
          "type": "bytes32"
        },
        {
          "indexed": true,
          "internalType": "bytes32",
          "name": "newAdminRole",
          "type": "bytes32"
        }
      ],
      "name": "RoleAdminChanged",
      "type": "event"
    },
    {
      "anonymous": false,
      "inputs": [
        {
          "indexed": true,
          "internalType": "bytes32",
          "name": "role",
          "type": "bytes32"
        },
        {
          "indexed": true,
          "internalType": "address",
          "name": "account",
          "type": "address"
        },
        {
          "indexed": true,
          "internalType": "address",
          "name": "sender",
          "type": "address"
        }
      ],
      "name": "RoleGranted",
      "type": "event"
    },
    {
      "anonymous": false,
      "inputs": [
        {
          "indexed": true,
          "internalType": "bytes32",
          "name": "role",
          "type": "bytes32"
        },
        {
          "indexed": true,
          "internalType": "address",
          "name": "account",
          "type": "address"
        },
        {
          "indexed": true,
          "internalType": "address",
          "name": "sender",
          "type": "address"
        }
      ],
      "name": "RoleRevoked",
      "type": "event"
    },
    {
      "anonymous": false,
      "inputs": [
        {
          "indexed": false,
          "internalType": "address",
          "name": "account",
          "type": "address"
        }
      ],
      "name": "Unpaused",
      "type": "event"
    },
    {
      "inputs": [],
      "name": "DAO_ROLE",
      "outputs": [
        {
          "internalType": "bytes32",
          "name": "",
          "type": "bytes32"
        }
      ],
      "stateMutability": "view",
      "type": "function"
    },
    {
      "inputs": [],
      "name": "DEFAULT_ADMIN_ROLE",
      "outputs": [
        {
          "internalType": "bytes32",
          "name": "",
          "type": "bytes32"
        }
      ],
      "stateMutability": "view",
      "type": "function"
    },
    {
      "inputs": [
        {
          "internalType": "address",
          "name": "affiliate",
          "type": "address"
        },
        {
          "internalType": "uint256",
          "name": "ticketAffiliateFee",
          "type": "uint256"
        }
      ],
      "name": "addAffiliate",
      "outputs": [],
      "stateMutability": "nonpayable",
      "type": "function"
    },
    {
      "inputs": [],
      "name": "brokerAddress",
      "outputs": [
        {
          "internalType": "address",
          "name": "",
          "type": "address"
        }
      ],
      "stateMutability": "view",
      "type": "function"
    },
    {
      "inputs": [
        {
          "internalType": "address",
          "name": "lootbox",
          "type": "address"
        }
      ],
      "name": "checkLootboxAffiliate",
      "outputs": [
        {
          "internalType": "address",
          "name": "",
          "type": "address"
        }
      ],
      "stateMutability": "view",
      "type": "function"
    },
    {
      "inputs": [
        {
          "internalType": "string",
          "name": "_lootboxName",
          "type": "string"
        },
        {
          "internalType": "string",
          "name": "_lootboxSymbol",
          "type": "string"
        },
        {
          "internalType": "uint256",
          "name": "_targetSharesSold",
          "type": "uint256"
        },
        {
          "internalType": "uint256",
          "name": "_maxSharesSold",
          "type": "uint256"
        },
        {
          "internalType": "address",
          "name": "_treasury",
          "type": "address"
        },
        {
          "internalType": "address",
          "name": "_affiliate",
          "type": "address"
        },
        {
          "internalType": "string",
          "name": "_data",
          "type": "string"
        }
      ],
      "name": "createLootbox",
      "outputs": [
        {
          "internalType": "address",
          "name": "_lootbox",
          "type": "address"
        }
      ],
      "stateMutability": "nonpayable",
      "type": "function"
    },
    {
      "inputs": [
        {
          "internalType": "bytes32",
          "name": "role",
          "type": "bytes32"
        }
      ],
      "name": "getRoleAdmin",
      "outputs": [
        {
          "internalType": "bytes32",
          "name": "",
          "type": "bytes32"
        }
      ],
      "stateMutability": "view",
      "type": "function"
    },
    {
      "inputs": [
        {
          "internalType": "bytes32",
          "name": "role",
          "type": "bytes32"
        },
        {
          "internalType": "address",
          "name": "account",
          "type": "address"
        }
      ],
      "name": "grantRole",
      "outputs": [],
      "stateMutability": "nonpayable",
      "type": "function"
    },
    {
      "inputs": [
        {
          "internalType": "bytes32",
          "name": "role",
          "type": "bytes32"
        },
        {
          "internalType": "address",
          "name": "account",
          "type": "address"
        }
      ],
      "name": "hasRole",
      "outputs": [
        {
          "internalType": "bool",
          "name": "",
          "type": "bool"
        }
      ],
      "stateMutability": "view",
      "type": "function"
    },
    {
      "inputs": [],
      "name": "listAffiliates",
      "outputs": [
        {
          "internalType": "bytes32[]",
          "name": "_affiliates",
          "type": "bytes32[]"
        }
      ],
      "stateMutability": "view",
      "type": "function"
    },
    {
      "inputs": [],
      "name": "lootboxImplementation",
      "outputs": [
        {
          "internalType": "address",
          "name": "",
          "type": "address"
        }
      ],
      "stateMutability": "view",
      "type": "function"
    },
    {
      "inputs": [],
      "name": "nativeTokenPriceFeed",
      "outputs": [
        {
          "internalType": "address",
          "name": "",
          "type": "address"
        }
      ],
      "stateMutability": "view",
      "type": "function"
    },
    {
      "inputs": [],
      "name": "pause",
      "outputs": [],
      "stateMutability": "nonpayable",
      "type": "function"
    },
    {
      "inputs": [],
      "name": "paused",
      "outputs": [
        {
          "internalType": "bool",
          "name": "",
          "type": "bool"
        }
      ],
      "stateMutability": "view",
      "type": "function"
    },
    {
      "inputs": [
        {
          "internalType": "bytes32",
          "name": "role",
          "type": "bytes32"
        },
        {
          "internalType": "address",
          "name": "account",
          "type": "address"
        }
      ],
      "name": "renounceRole",
      "outputs": [],
      "stateMutability": "nonpayable",
      "type": "function"
    },
    {
      "inputs": [
        {
          "internalType": "bytes32",
          "name": "role",
          "type": "bytes32"
        },
        {
          "internalType": "address",
          "name": "account",
          "type": "address"
        }
      ],
      "name": "revokeRole",
      "outputs": [],
      "stateMutability": "nonpayable",
      "type": "function"
    },
    {
      "inputs": [],
      "name": "sharePriceUSD",
      "outputs": [
        {
          "internalType": "uint256",
          "name": "",
          "type": "uint256"
        }
      ],
      "stateMutability": "view",
      "type": "function"
    },
    {
      "inputs": [
        {
          "internalType": "bytes4",
          "name": "interfaceId",
          "type": "bytes4"
        }
      ],
      "name": "supportsInterface",
      "outputs": [
        {
          "internalType": "bool",
          "name": "",
          "type": "bool"
        }
      ],
      "stateMutability": "view",
      "type": "function"
    },
    {
      "inputs": [],
      "name": "ticketPurchaseFee",
      "outputs": [
        {
          "internalType": "uint256",
          "name": "",
          "type": "uint256"
        }
      ],
      "stateMutability": "view",
      "type": "function"
    },
    {
      "inputs": [],
      "name": "unpause",
      "outputs": [],
      "stateMutability": "nonpayable",
      "type": "function"
    },
    {
      "inputs": [],
      "name": "viewLootboxes",
      "outputs": [
        {
          "internalType": "bytes32[]",
          "name": "",
          "type": "bytes32[]"
        }
      ],
      "stateMutability": "view",
      "type": "function"
    }
  ],
  "bytecode": "0x6101006040523480156200001257600080fd5b50604051620082173803806200821783398101604081905262000035916200032f565b6000805460ff191690556001600160a01b038416620000a65760405162461bcd60e51b815260206004820152602260248201527f44414f204c6f6f74626f7820616464726573732063616e6e6f74206265207a65604482015261726f60f01b60648201526084015b60405180910390fd5b6001600160a01b038116620000fe5760405162461bcd60e51b815260206004820152601d60248201527f42726f6b657220616464726573732063616e6e6f74206265207a65726f00000060448201526064016200009d565b6001600160a01b0383166200016a5760405162461bcd60e51b815260206004820152602b60248201527f6e6174697665546f6b656e50726963654665656420616464726573732063616e60448201526a6e6f74206265207a65726f60a81b60648201526084016200009d565b6305f5e1008210620001e55760405162461bcd60e51b815260206004820152603660248201527f5075726368617365207469636b657420666565206d757374206265206c65737360448201527f207468616e20313030303030303030202831303025290000000000000000000060648201526084016200009d565b604051620001f39062000304565b604051809103906000f08015801562000210573d6000803e3d6000fd5b5060601b6001600160601b0319166080526200024d7f3b5d4cc60d3ec3516ee8ae083bd60934f6eb2a6c54b1229985c41bfb092b2603856200027b565b624c4b406002556001600160601b0319606093841b811660a05260c09290925290911b1660e0525062000382565b60008281526001602090815260408083206001600160a01b038516845290915290205460ff16620003005760008281526001602081815260408084206001600160a01b0386168086529252808420805460ff19169093179092559051339285917f2f8788117e7eff1d82e926ec794901d17c78024a50270940304540a733656f0d9190a45b5050565b615fe3806200223483390190565b80516001600160a01b03811681146200032a57600080fd5b919050565b6000806000806080858703121562000345578384fd5b620003508562000312565b9350620003606020860162000312565b925060408501519150620003776060860162000312565b905092959194509250565b60805160601c60a05160601c60c05160e05160601c611e45620003ef6000396000818161026901526108550152600081816102ff0152818161080e015281816109a60152610a5d01526000818161033e01526107ed0152600081816101a101526107be0152611e456000f3fe60806040523480156200001157600080fd5b5060043610620001515760003560e01c8063565bae8d11620000c7578063a217fddf1162000086578063a217fddf14620002f0578063a7c721c514620002f9578063d547741f1462000321578063d7c28bb21462000338578063e9c265181462000360578063fd9e62a9146200037757600080fd5b8063565bae8d14620002955780635c975abb14620002ac578063737d568714620002b85780638456cb5914620002cf57806391d1485414620002d957600080fd5b806336568abe116200011457806336568abe146200022b578063372c64d514620002425780633f4ba83a14620002595780635089f79614620002635780635225b69c146200028b57600080fd5b806301ffc9a7146200015657806317088631146200018257806319dd5657146200019b578063248a9ca314620001dc5780632f2ff15d1462000212575b600080fd5b6200016d62000167366004620012ad565b62000381565b60405190151581526020015b60405180910390f35b6200018c620003b9565b60405162000179919062001473565b620001c37f000000000000000000000000000000000000000000000000000000000000000081565b6040516001600160a01b03909116815260200162000179565b62000203620001ed36600462001266565b6000908152600160208190526040909120015490565b60405190815260200162000179565b62000229620002233660046200127f565b62000412565b005b620002296200023c3660046200127f565b62000442565b620001c362000253366004620012d7565b620004c8565b6200022962000a16565b620001c37f000000000000000000000000000000000000000000000000000000000000000081565b6200020360025481565b62000229620002a63660046200123a565b62000a3f565b60005460ff166200016d565b620001c3620002c93660046200121d565b62000b75565b6200022962000bb3565b6200016d620002ea3660046200127f565b62000bd9565b62000203600081565b620002037f000000000000000000000000000000000000000000000000000000000000000081565b62000229620003323660046200127f565b62000c04565b620001c37f000000000000000000000000000000000000000000000000000000000000000081565b6200020360008051602062001df083398151915281565b6200018c62000c2f565b60006001600160e01b03198216637965db0b60e01b1480620003b357506301ffc9a760e01b6001600160e01b03198316145b92915050565b6007805460408051602080840282018101909252828152606093909290918301828280156200040857602002820191906000526020600020905b815481526020019060010190808311620003f3575b5050505050905090565b6000828152600160208190526040909120015462000431813362000ca3565b6200043d838362000d12565b505050565b6001600160a01b0381163314620004b85760405162461bcd60e51b815260206004820152602f60248201527f416363657373436f6e74726f6c3a2063616e206f6e6c792072656e6f756e636560448201526e103937b632b9903337b91039b2b63360891b60648201526084015b60405180910390fd5b620004c4828262000d80565b5050565b6000805460ff1615620005115760405162461bcd60e51b815260206004820152601060248201526f14185d5cd8589b194e881c185d5cd95960821b6044820152606401620004af565b8751620005615760405162461bcd60e51b815260206004820152601c60248201527f4c6f6f74626f78206e616d652063616e6e6f7420626520656d707479000000006044820152606401620004af565b8651620005b15760405162461bcd60e51b815260206004820152601e60248201527f4c6f6f74626f782073796d626f6c2063616e6e6f7420626520656d70747900006044820152606401620004af565b6001600160a01b038316620006095760405162461bcd60e51b815260206004820181905260248201527f416666696c6961746520616464726573732063616e6e6f74206265207a65726f6044820152606401620004af565b60008611620006705760405162461bcd60e51b815260206004820152602c60248201527f5461726765742073686172657320736f6c64206d75737420626520677265617460448201526b6572207468616e207a65726f60a01b6064820152608401620004af565b60008511620006d45760405162461bcd60e51b815260206004820152602960248201527f4d61782073686172657320736f6c64206d7573742062652067726561746572206044820152687468616e207a65726f60b81b6064820152608401620004af565b85851015620007585760405162461bcd60e51b815260206004820152604360248201527f4d61782073686172657320736f6c64206d75737420626520677265617465722060448201527f7468616e206f7220657175616c20746f207461726765742073686172657320736064820152621bdb1960ea1b608482015260a401620004af565b6001600160a01b038416620007ba5760405162461bcd60e51b815260206004820152602160248201527f54726561737572792061646472657373206d7573742062652070726f766964656044820152601960fa1b6064820152608401620004af565b60007f00000000000000000000000000000000000000000000000000000000000000006364fcac4060e01b8a8a8a8a8a337f00000000000000000000000000000000000000000000000000000000000000007f0000000000000000000000000000000000000000000000000000000000000000600360008f6001600160a01b03166001600160a01b03168152602001908152602001600020547f00000000000000000000000000000000000000000000000000000000000000008f604051602401620008919b9a99989796959493929190620014ce565b60408051601f198184030181529181526020820180516001600160e01b03166001600160e01b0319909416939093179092529051620008d09062001163565b620008dd92919062001445565b604051809103906000f080158015620008fa573d6000803e3d6000fd5b5090506200090a60078262000dea565b506001600160a01b038181166000818152600460205260409081902080546001600160a01b0319168885161790556002549051928816923392917fd80450a217cc6610088de7c965dda0dcd24f55a93c4308932fdb6b3fa03202829162000979918f918e918e918c9062001550565b60405180910390a46001600160a01b038481166000818152600360209081526040918290205482519081527f00000000000000000000000000000000000000000000000000000000000000009181019190915233818301528884166060820152905191928416917f0b4c73cb9afffcc1a8fe5a90b0072b37bb1da3a9256116b10867b2115bd6c48b9181900360800190a398975050505050505050565b60008051602062001df083398151915262000a32813362000ca3565b62000a3c62000e08565b50565b60008051602062001df083398151915262000a5b813362000ca3565b7f000000000000000000000000000000000000000000000000000000000000000082111562000b025760405162461bcd60e51b815260206004820152604660248201527f416666696c69617465207469636b657420666565206d757374206265206c657360448201527f73207468616e206f7220657175616c20746f207075726368617365207469636b60648201526565742066656560d01b608482015260a401620004af565b6001600160a01b038316600090815260036020526040902082905562000b2a60058462000dea565b506040805183815242602082015233916001600160a01b038616917f92b63ef4b711e706248082654091a6c515ca36d749b6008a128776a88f03830e910160405180910390a3505050565b600060008051602062001df083398151915262000b93813362000ca3565b50506001600160a01b039081166000908152600460205260409020541690565b60008051602062001df083398151915262000bcf813362000ca3565b62000a3c62000e9d565b60009182526001602090815260408084206001600160a01b0393909316845291905290205460ff1690565b6000828152600160208190526040909120015462000c23813362000ca3565b6200043d838362000d80565b606060008051602062001df083398151915262000c4d813362000ca3565b600580546040805160208084028201810190925282815292919083018282801562000c9857602002820191906000526020600020905b81548152602001906001019080831162000c83575b505050505091505090565b62000caf828262000bd9565b620004c45762000cca816001600160a01b0316601462000f1b565b62000cd783602062000f1b565b60405160200162000cea929190620013cc565b60408051601f198184030181529082905262461bcd60e51b8252620004af91600401620014b9565b62000d1e828262000bd9565b620004c45760008281526001602081815260408084206001600160a01b0386168086529252808420805460ff19169093179092559051339285917f2f8788117e7eff1d82e926ec794901d17c78024a50270940304540a733656f0d9190a45050565b62000d8c828262000bd9565b15620004c45760008281526001602090815260408083206001600160a01b0385168085529252808320805460ff1916905551339285917ff6391f5c32d9c69d2a47ea670b442974b53935d1edc7fd64eb21e047a839171b9190a45050565b600062000e01836001600160a01b03841662001111565b9392505050565b60005460ff1662000e535760405162461bcd60e51b815260206004820152601460248201527314185d5cd8589b194e881b9bdd081c185d5cd95960621b6044820152606401620004af565b6000805460ff191690557f5db9ee0a495bf2e6ff9c91a7834c1ba4fdd244a5e8aa4e537bd38aeae4b073aa335b6040516001600160a01b03909116815260200160405180910390a1565b60005460ff161562000ee55760405162461bcd60e51b815260206004820152601060248201526f14185d5cd8589b194e881c185d5cd95960821b6044820152606401620004af565b6000805460ff191660011790557f62e78cea01bee320cd4e420270b5ea74000d11b0c9f74754ebdbfc544b05a25862000e803390565b6060600062000f2c836002620015b2565b62000f3990600262001597565b67ffffffffffffffff81111562000f6057634e487b7160e01b600052604160045260246000fd5b6040519080825280601f01601f19166020018201604052801562000f8b576020820181803683370190505b509050600360fc1b8160008151811062000fb557634e487b7160e01b600052603260045260246000fd5b60200101906001600160f81b031916908160001a905350600f60fb1b8160018151811062000ff357634e487b7160e01b600052603260045260246000fd5b60200101906001600160f81b031916908160001a905350600062001019846002620015b2565b6200102690600162001597565b90505b6001811115620010c0576f181899199a1a9b1b9c1cb0b131b232b360811b85600f16601081106200106a57634e487b7160e01b600052603260045260246000fd5b1a60f81b8282815181106200108f57634e487b7160e01b600052603260045260246000fd5b60200101906001600160f81b031916908160001a90535060049490941c93620010b88162001607565b905062001029565b50831562000e015760405162461bcd60e51b815260206004820181905260248201527f537472696e67733a20686578206c656e67746820696e73756666696369656e746044820152606401620004af565b60008181526001830160205260408120546200115a57508154600181810184556000848152602080822090930184905584548482528286019093526040902091909155620003b3565b506000620003b3565b6107a2806200164e83390190565b80356001600160a01b03811681146200118957600080fd5b919050565b600082601f8301126200119f578081fd5b813567ffffffffffffffff80821115620011bd57620011bd62001637565b604051601f8301601f19908116603f01168101908282118183101715620011e857620011e862001637565b8160405283815286602085880101111562001201578485fd5b8360208701602083013792830160200193909352509392505050565b6000602082840312156200122f578081fd5b62000e018262001171565b600080604083850312156200124d578081fd5b620012588362001171565b946020939093013593505050565b60006020828403121562001278578081fd5b5035919050565b6000806040838503121562001292578182fd5b82359150620012a46020840162001171565b90509250929050565b600060208284031215620012bf578081fd5b81356001600160e01b03198116811462000e01578182fd5b600080600080600080600060e0888a031215620012f2578283fd5b873567ffffffffffffffff808211156200130a578485fd5b620013188b838c016200118e565b985060208a01359150808211156200132e578485fd5b6200133c8b838c016200118e565b975060408a0135965060608a013595506200135a60808b0162001171565b94506200136a60a08b0162001171565b935060c08a013591508082111562001380578283fd5b506200138f8a828b016200118e565b91505092959891949750929550565b60008151808452620013b8816020860160208601620015d4565b601f01601f19169290920160200192915050565b7f416363657373436f6e74726f6c3a206163636f756e742000000000000000000081526000835162001406816017850160208801620015d4565b7001034b99036b4b9b9b4b733903937b6329607d1b601791840191820152835162001439816028840160208801620015d4565b01602801949350505050565b6001600160a01b03831681526040602082018190526000906200146b908301846200139e565b949350505050565b6020808252825182820181905260009190848201906040850190845b81811015620014ad578351835292840192918401916001016200148f565b50909695505050505050565b60208152600062000e0160208301846200139e565b6000610160808352620014e48184018f6200139e565b90508281036020840152620014fa818e6200139e565b604084019c909c52505060608101989098526001600160a01b03968716608089015294861660a088015292851660c087015260e08601919091526101008501528216610120840152166101409091015292915050565b60a0815260006200156560a08301886200139e565b86602084015285604084015284606084015282810360808401526200158b81856200139e565b98975050505050505050565b60008219821115620015ad57620015ad62001621565b500190565b6000816000190483118215151615620015cf57620015cf62001621565b500290565b60005b83811015620015f1578181015183820152602001620015d7565b8381111562001601576000848401525b50505050565b60008162001619576200161962001621565b506000190190565b634e487b7160e01b600052601160045260246000fd5b634e487b7160e01b600052604160045260246000fdfe60806040526040516107a23803806107a283398101604081905261002291610315565b61004d60017f360894a13ba1a3210667c828492db98dca3e2076cc3735a920a3ca505d382bbd61042d565b60008051602061075b8339815191521461007757634e487b7160e01b600052600160045260246000fd5b6100838282600061008a565b5050610492565b610093836100c0565b6000825111806100a05750805b156100bb576100b9838361010060201b6100291760201c565b505b505050565b6100c98161012c565b6040516001600160a01b038216907fbc7cd75a20ee27fd9adebab32041f755214dbc6bffa90cc0225b39da2e5c2d3b90600090a250565b6060610125838360405180606001604052806027815260200161077b602791396101ec565b9392505050565b61013f816102ca60201b6100551760201c565b6101a65760405162461bcd60e51b815260206004820152602d60248201527f455243313936373a206e657720696d706c656d656e746174696f6e206973206e60448201526c1bdd08184818dbdb9d1c9858dd609a1b60648201526084015b60405180910390fd5b806101cb60008051602061075b83398151915260001b6102d960201b6100641760201c565b80546001600160a01b0319166001600160a01b039290921691909117905550565b60606001600160a01b0384163b6102545760405162461bcd60e51b815260206004820152602660248201527f416464726573733a2064656c65676174652063616c6c20746f206e6f6e2d636f6044820152651b9d1c9858dd60d21b606482015260840161019d565b600080856001600160a01b03168560405161026f91906103de565b600060405180830381855af49150503d80600081146102aa576040519150601f19603f3d011682016040523d82523d6000602084013e6102af565b606091505b5090925090506102c08282866102dc565b9695505050505050565b6001600160a01b03163b151590565b90565b606083156102eb575081610125565b8251156102fb5782518084602001fd5b8160405162461bcd60e51b815260040161019d91906103fa565b60008060408385031215610327578182fd5b82516001600160a01b038116811461033d578283fd5b60208401519092506001600160401b0380821115610359578283fd5b818501915085601f83011261036c578283fd5b81518181111561037e5761037e61047c565b604051601f8201601f19908116603f011681019083821181831017156103a6576103a661047c565b816040528281528860208487010111156103be578586fd5b6103cf836020830160208801610450565b80955050505050509250929050565b600082516103f0818460208701610450565b9190910192915050565b6020815260008251806020840152610419816040850160208701610450565b601f01601f19169190910160400192915050565b60008282101561044b57634e487b7160e01b81526011600452602481fd5b500390565b60005b8381101561046b578181015183820152602001610453565b838111156100b95750506000910152565b634e487b7160e01b600052604160045260246000fd5b6102ba806104a16000396000f3fe60806040523661001357610011610017565b005b6100115b610027610022610067565b61009f565b565b606061004e838360405180606001604052806027815260200161025e602791396100c3565b9392505050565b6001600160a01b03163b151590565b90565b600061009a7f360894a13ba1a3210667c828492db98dca3e2076cc3735a920a3ca505d382bbc546001600160a01b031690565b905090565b3660008037600080366000845af43d6000803e8080156100be573d6000f35b3d6000fd5b60606001600160a01b0384163b6101305760405162461bcd60e51b815260206004820152602660248201527f416464726573733a2064656c65676174652063616c6c20746f206e6f6e2d636f6044820152651b9d1c9858dd60d21b60648201526084015b60405180910390fd5b600080856001600160a01b03168560405161014b91906101de565b600060405180830381855af49150503d8060008114610186576040519150601f19603f3d011682016040523d82523d6000602084013e61018b565b606091505b509150915061019b8282866101a5565b9695505050505050565b606083156101b457508161004e565b8251156101c45782518084602001fd5b8160405162461bcd60e51b815260040161012791906101fa565b600082516101f081846020870161022d565b9190910192915050565b602081526000825180602084015261021981604085016020870161022d565b601f01601f19169190910160400192915050565b60005b83811015610248578181015183820152602001610230565b83811115610257576000848401525b5050505056fe416464726573733a206c6f772d6c6576656c2064656c65676174652063616c6c206661696c6564a2646970667358221220e14c3fee28687df8af621b132b9789cfe2ceb6f7d6de514bb73c2956ffe9d6dd64736f6c63430008040033360894a13ba1a3210667c828492db98dca3e2076cc3735a920a3ca505d382bbc416464726573733a206c6f772d6c6576656c2064656c65676174652063616c6c206661696c65643b5d4cc60d3ec3516ee8ae083bd60934f6eb2a6c54b1229985c41bfb092b2603a264697066735822122061410f46345e9ece76586b7b7a7d4599c4114d1973f0cbeb590f9da180cf460664736f6c6343000804003360a06040523060601b6080523480156200001857600080fd5b50600054610100900460ff16620000365760005460ff161562000040565b62000040620000e5565b620000a85760405162461bcd60e51b815260206004820152602e60248201527f496e697469616c697a61626c653a20636f6e747261637420697320616c72656160448201526d191e481a5b9a5d1a585b1a5e995960921b606482015260840160405180910390fd5b600054610100900460ff16158015620000cb576000805461ffff19166101011790555b8015620000de576000805461ff00191690555b5062000112565b6000620000fd306200010360201b62003b8b1760201c565b15905090565b6001600160a01b03163b151590565b60805160601c615e966200014d60003960008181611b5e01528181611b9e01528181611c7a01528181611cba0152611e8b0152615e966000f3fe6080604052600436106104405760003560e01c806370a0823111610234578063a7c721c51161012e578063da3537a8116100b6578063e985e9c51161007a578063e985e9c514610cc8578063e9c2651814610d11578063fbf97c5914610d33578063fdf27dba14610d61578063ff7808e914610d7857600080fd5b8063da3537a814610c45578063dd13745514610c5a578063dd7af03514610c7c578063e6deb18d14610c93578063e88e3f9314610cb357600080fd5b8063c87b56dd116100fd578063c87b56dd14610bc4578063ca11016d14610be4578063cc0f178614610bf9578063cda493c814610c10578063d547741f14610c2557600080fd5b8063a7c721c514610adb578063abff011014610af2578063ae501c0414610b13578063b88d4fde14610ba457600080fd5b806391d14854116101bc5780639f792340116101805780639f79234014610a5a578063a07ae16a14610a71578063a217fddf14610a86578063a22cb46514610a9b578063a7485cf114610abb57600080fd5b806391d14854146109e257806393a057cd14610a0257806395d89b4114610a195780639792641f14610a2e57806399087d3414610a4557600080fd5b80638240b777116102035780638240b7771461095c5780638456cb59146109715780638802255f146109865780638c8249491461099e5780639088feba146109a657600080fd5b806370a08231146108e157806378d85c4e146109015780637eee38031461092e578063816c42f61461094557600080fd5b806342842e0e11610345578063588dae3c116102cd57806369d85d541161029157806369d85d54146108245780636c9d3b3a146108515780636e70096e1461087f5780636f2ef95b1461089f5780636fcf1e65146108cc57600080fd5b8063588dae3c1461078b5780635c975abb146107ab57806361d027b3146107c35780636352211e146107e457806364fcac401461080457600080fd5b806351f0a93f1161031457806351f0a93f146107175780635225b69c1461072c578063522c21781461074357806352d1902d1461075e578063533573fe1461077357600080fd5b806342842e0e146106a357806345e05f43146106c35780634f1ef286146106e45780634f6ccce7146106f757600080fd5b806323b872dd116103c85780632f745c59116103975780632f745c591461061757806336568abe146106375780633659cfe6146106575780633af8e5eb146106775780633f4ba83a1461068e57600080fd5b806323b872dd14610587578063248a9ca3146105a75780632a4c03cc146105d75780632f2ff15d146105f757600080fd5b8063095ea7b31161040f578063095ea7b3146104f057806318160ddd1461051257806318fc77ae146105315780631d1438481461054457806321846c761461056a57600080fd5b806301ffc9a71461044c57806305bc64eb1461048157806306fdde03146104a3578063081812fc146104b857600080fd5b3661044757005b600080fd5b34801561045857600080fd5b5061046c6104673660046153e8565b610d8f565b60405190151581526020015b60405180910390f35b34801561048d57600080fd5b50610496610da0565b604051610478919061584f565b3480156104af57600080fd5b50610496610e2f565b3480156104c457600080fd5b506104d86104d3366004615396565b610ec1565b6040516001600160a01b039091168152602001610478565b3480156104fc57600080fd5b5061051061050b366004615351565b610f5b565b005b34801561051e57600080fd5b506099545b604051908152602001610478565b61051061053f366004615351565b611071565b34801561055057600080fd5b506101d1546104d89061010090046001600160a01b031681565b6105726113d0565b60408051928352602083019190915201610478565b34801561059357600080fd5b506105106105a236600461522e565b6118b5565b3480156105b357600080fd5b506105236105c2366004615396565b600090815260fb602052604090206001015490565b3480156105e357600080fd5b506105106105f23660046151e2565b6118e6565b34801561060357600080fd5b506105106106123660046153c6565b611a19565b34801561062357600080fd5b50610523610632366004615351565b611a3f565b34801561064357600080fd5b506105106106523660046153c6565b611ad5565b34801561066357600080fd5b506105106106723660046151e2565b611b53565b34801561068357600080fd5b506105236101c55481565b34801561069a57600080fd5b50610510611c33565b3480156106af57600080fd5b506105106106be36600461522e565b611c54565b3480156106cf57600080fd5b506101d6546104d8906001600160a01b031681565b6105106106f2366004615305565b611c6f565b34801561070357600080fd5b50610523610712366004615396565b611d3c565b34801561072357600080fd5b50610523611ddd565b34801561073857600080fd5b506105236101c95481565b34801561074f57600080fd5b506101d15461046c9060ff1681565b34801561076a57600080fd5b50610523611e7e565b34801561077f57600080fd5b506101da546105239081565b34801561079757600080fd5b506105236107a63660046151e2565b611f31565b3480156107b757600080fd5b5060c95460ff1661046c565b3480156107cf57600080fd5b506101d2546104d8906001600160a01b031681565b3480156107f057600080fd5b506104d86107ff366004615396565b612066565b34801561081057600080fd5b5061051061081f366004615420565b6120dd565b34801561083057600080fd5b5061084461083f3660046151e2565b6126be565b604051610478919061573c565b34801561085d57600080fd5b5061052361086c3660046151e2565b6101db6020526000908152604090205481565b34801561088b57600080fd5b5061051061089a366004615396565b61277c565b3480156108ab57600080fd5b506108bf6108ba366004615396565b612bca565b6040516104789190615b8a565b3480156108d857600080fd5b50610510612c35565b3480156108ed57600080fd5b506105236108fc3660046151e2565b612d90565b34801561090d57600080fd5b5061092161091c366004615396565b612e17565b6040516104789190615780565b34801561093a57600080fd5b506105236101d85481565b34801561095157600080fd5b506105236101cc5481565b34801561096857600080fd5b5061052361300d565b34801561097d57600080fd5b506105106130bc565b34801561099257600080fd5b506101d4546105239081565b6105106130dd565b3480156109b257600080fd5b5061046c6109c13660046154fe565b6101df60209081526000928352604080842090915290825290205460ff1681565b3480156109ee57600080fd5b5061046c6109fd3660046153c6565b61330b565b348015610a0e57600080fd5b506105236101cb5481565b348015610a2557600080fd5b50610496613336565b348015610a3a57600080fd5b506105236101ce5481565b348015610a5157600080fd5b50610510613345565b348015610a6657600080fd5b506105236101de5481565b348015610a7d57600080fd5b50610510613542565b348015610a9257600080fd5b50610523600081565b348015610aa757600080fd5b50610510610ab63660046152cf565b613780565b348015610ac757600080fd5b50610523610ad6366004615396565b61378b565b348015610ae757600080fd5b506105236101d75481565b348015610afe57600080fd5b506101d5546104d8906001600160a01b031681565b348015610b1f57600080fd5b50610b6e610b2e366004615396565b6101d9602052600090815260409020805460018201546002830154600384015460048501546005909501549394929391926001600160a01b039091169186565b604080519687526020870195909552938501929092526001600160a01b03166060840152608083015260a082015260c001610478565b348015610bb057600080fd5b50610510610bbf366004615269565b613885565b348015610bd057600080fd5b50610496610bdf366004615396565b6138bd565b348015610bf057600080fd5b506108446138c8565b348015610c0557600080fd5b506105236101c65481565b348015610c1c57600080fd5b5061049661391f565b348015610c3157600080fd5b50610510610c403660046153c6565b61392d565b348015610c5157600080fd5b50610523613953565b348015610c6657600080fd5b50610c6f61396c565b604051610478919061580d565b348015610c8857600080fd5b506105236101ca5481565b348015610c9f57600080fd5b50610523610cae3660046151e2565b613a8b565b348015610cbf57600080fd5b50610844613b35565b348015610cd457600080fd5b5061046c610ce33660046151fc565b6001600160a01b039182166000908152606a6020908152604080832093909416825291909152205460ff1690565b348015610d1d57600080fd5b50610523600080516020615dfa83398151915281565b348015610d3f57600080fd5b50610523610d4e366004615396565b6101d36020526000908152604090205481565b348015610d6d57600080fd5b506105236101c75481565b348015610d8457600080fd5b506105236101cd5481565b6000610d9a82613b9a565b92915050565b6101c38054610dae90615d59565b80601f0160208091040260200160405190810160405280929190818152602001828054610dda90615d59565b8015610e275780601f10610dfc57610100808354040283529160200191610e27565b820191906000526020600020905b815481529060010190602001808311610e0a57829003601f168201915b505050505081565b606060658054610e3e90615d59565b80601f0160208091040260200160405190810160405280929190818152602001828054610e6a90615d59565b8015610eb75780601f10610e8c57610100808354040283529160200191610eb7565b820191906000526020600020905b815481529060010190602001808311610e9a57829003601f168201915b5050505050905090565b6000818152606760205260408120546001600160a01b0316610f3f5760405162461bcd60e51b815260206004820152602c60248201527f4552433732313a20617070726f76656420717565727920666f72206e6f6e657860448201526b34b9ba32b73a103a37b5b2b760a11b60648201526084015b60405180910390fd5b506000908152606960205260409020546001600160a01b031690565b6000610f6682612066565b9050806001600160a01b0316836001600160a01b03161415610fd45760405162461bcd60e51b815260206004820152602160248201527f4552433732313a20617070726f76616c20746f2063757272656e74206f776e656044820152603960f91b6064820152608401610f36565b336001600160a01b0382161480610ff05750610ff08133610ce3565b6110625760405162461bcd60e51b815260206004820152603860248201527f4552433732313a20617070726f76652063616c6c6572206973206e6f74206f7760448201527f6e6572206e6f7220617070726f76656420666f7220616c6c00000000000000006064820152608401610f36565b61106c8383613bbf565b505050565b60026101915414156110955760405162461bcd60e51b8152600401610f3690615b53565b60026101915560c95460ff16156110be5760405162461bcd60e51b8152600401610f369061594c565b6101d15460ff16156110e25760405162461bcd60e51b8152600401610f3690615a24565b60006101ca54116111055760405162461bcd60e51b8152600401610f3690615976565b341561118d5760405162461bcd60e51b815260206004820152604b60248201527f4465706f73697473206f662065726332302063616e6e6f7420616c736f20696e60448201527f636c756465206e617469766520746f6b656e7320696e207468652073616d652060648201526a3a3930b739b0b1ba34b7b760a91b608482015260a401610f36565b6111996101dc83613c2d565b506001600160a01b03821660009081526101db60205260409020546111bf908290615b98565b6001600160a01b03831660009081526101db60205260408120919091556101da546040805160c08101825282815243602080830191825260008385018181526001600160a01b038a811660608701908152608087018b81524260a089019081528a86526101d9909652888520885181559651600188015592516002870155516003860180546001600160a01b03191691909216179055516004840155905160059092019190915591519293509133917fce3ede2e266c8c5ec60064c2a65ba25bd2899a334c42b39b742129c49b1ef1c4916112a29130918791908a908a906156a8565b60405180910390a26112b96101da80546001019055565b60405163095ea7b360e01b81523060048201526024810184905284906001600160a01b0382169063095ea7b390604401602060405180830381600087803b15801561130357600080fd5b505af1158015611317573d6000803e3d6000fd5b505050506040513d601f19601f8201168201806040525081019061133b919061537a565b506040516323b872dd60e01b8152336004820152306024820152604481018590526001600160a01b038216906323b872dd90606401602060405180830381600087803b15801561138a57600080fd5b505af115801561139e573d6000803e3d6000fd5b505050506040513d601f19601f820116820180604052508101906113c2919061537a565b505060016101915550505050565b60008060026101915414156113f75760405162461bcd60e51b8152600401610f3690615b53565b60026101915560c95460ff16156114205760405162461bcd60e51b8152600401610f369061594c565b6101d2546001600160a01b031633141561147c5760405162461bcd60e51b815260206004820181905260248201527f54726561737572792063616e6e6f74207075726368617365207469636b6574736044820152606401610f36565b6101d15460ff1615156001146114fa5760405162461bcd60e51b815260206004820152603860248201527f5469636b6574732063616e6e6f7420626520707572636861736564206166746560448201527f72207468652066756e6472616973696e6720706572696f6400000000000000006064820152608401610f36565b60006115053461378b565b905061150f613953565b81106115835760405162461bcd60e51b815260206004820152603d60248201527f4e6f7420656e6f756768207368617265732072656d61696e696e6720746f207060448201527f757263686173652c20747279206120736d616c6c657220616d6f756e740000006064820152608401610f36565b600061158f6101d45490565b90506115a06101d480546001019055565b60008181526101d3602052604090208290556115be6101cf33613c2d565b50816101ca546115ce9190615b98565b6101ca556101cd546115e1903490615b98565b6101cd556101d2546101c9546040516001600160a01b039092169133917faec7d08bcb5e515903dbbba83c84bb270bdbdc5ad261ce0709da4d20226d40639161162f91309187918991615716565b60405180910390a360006305f5e1006101d8543461164d9190615ce0565b6116579190615bd5565b905060006305f5e1006101d8546101d7546116729190615cff565b61167c9034615ce0565b6116869190615bd5565b90506000826116958334615cff565b61169f9190615cff565b6101d6546101d2546101d5546101c954604080516001600160a01b0393841681523060208201528082018b90523460608201526080810187905260a0810189905260c081018a905260e081018c9052610100810192909252519495509281169391169133917fec9b5b63774dd77ef3e9b139dcae71f2128bd20e0b2d55e2f405302581d4821a918190036101200190a4806101ce5461173e9190615b98565b6101ce556101d5546040516000916001600160a01b03169084908381818185875af1925050503d8060008114611790576040519150601f19603f3d011682016040523d82523d6000602084013e611795565b606091505b50509050806117e65760405162461bcd60e51b815260206004820181905260248201527f42726f6b657220636f756c64206e6f742072656365697665207061796d656e746044820152606401610f36565b6101d6546040516000916001600160a01b03169086908381818185875af1925050503d8060008114611834576040519150601f19603f3d011682016040523d82523d6000602084013e611839565b606091505b50509050806118965760405162461bcd60e51b815260206004820152602360248201527f416666696c6961746520636f756c64206e6f742072656365697665207061796d604482015262195b9d60ea1b6064820152608401610f36565b6118a03387613c42565b50939650939450505050506001610191559091565b6118bf3382613c5c565b6118db5760405162461bcd60e51b8152600401610f36906159d3565b61106c838383613d53565b600080516020615dfa8339815191526118ff8133613efa565b60026101915414156119235760405162461bcd60e51b8152600401610f3690615b53565b60026101915560c95460ff161561194c5760405162461bcd60e51b8152600401610f369061594c565b6101d15460ff16156119705760405162461bcd60e51b8152600401610f3690615a75565b600061197b83611f31565b9050828115611a0d576101d25460405163a9059cbb60e01b81526001600160a01b039182166004820152602481018490529082169063a9059cbb90604401602060405180830381600087803b1580156119d357600080fd5b505af11580156119e7573d6000803e3d6000fd5b505050506040513d601f19601f82011682018060405250810190611a0b919061537a565b505b50506001610191555050565b600082815260fb6020526040902060010154611a358133613efa565b61106c8383613f5e565b6000611a4a83612d90565b8210611aac5760405162461bcd60e51b815260206004820152602b60248201527f455243373231456e756d657261626c653a206f776e657220696e646578206f7560448201526a74206f6620626f756e647360a81b6064820152608401610f36565b506001600160a01b03919091166000908152609760209081526040808320938352929052205490565b6001600160a01b0381163314611b455760405162461bcd60e51b815260206004820152602f60248201527f416363657373436f6e74726f6c3a2063616e206f6e6c792072656e6f756e636560448201526e103937b632b9903337b91039b2b63360891b6064820152608401610f36565b611b4f8282613fe4565b5050565b306001600160a01b037f0000000000000000000000000000000000000000000000000000000000000000161415611b9c5760405162461bcd60e51b8152600401610f36906158b4565b7f00000000000000000000000000000000000000000000000000000000000000006001600160a01b0316611be5600080516020615e1a833981519152546001600160a01b031690565b6001600160a01b031614611c0b5760405162461bcd60e51b8152600401610f3690615900565b611c148161404b565b60408051600080825260208201909252611c3091839190614064565b50565b600080516020615dfa833981519152611c4c8133613efa565b611c306141de565b61106c83838360405180602001604052806000815250613885565b306001600160a01b037f0000000000000000000000000000000000000000000000000000000000000000161415611cb85760405162461bcd60e51b8152600401610f36906158b4565b7f00000000000000000000000000000000000000000000000000000000000000006001600160a01b0316611d01600080516020615e1a833981519152546001600160a01b031690565b6001600160a01b031614611d275760405162461bcd60e51b8152600401610f3690615900565b611d308261404b565b611b4f82826001614064565b6000611d4760995490565b8210611daa5760405162461bcd60e51b815260206004820152602c60248201527f455243373231456e756d657261626c653a20676c6f62616c20696e646578206f60448201526b7574206f6620626f756e647360a01b6064820152608401610f36565b60998281548110611dcb57634e487b7160e01b600052603260045260246000fd5b90600052602060002001549050919050565b600080805b6101da54811015611e785760008181526101d96020908152604091829020825160c0810184528154815260018201549281019290925260028101549282019290925260038201546001600160a01b0316606082018190526004830154608083015260059092015460a082015290611e65576040810151611e629084615b98565b92505b5080611e7081615d8e565b915050611de2565b50919050565b6000306001600160a01b037f00000000000000000000000000000000000000000000000000000000000000001614611f1e5760405162461bcd60e51b815260206004820152603860248201527f555550535570677261646561626c653a206d757374206e6f742062652063616c60448201527f6c6564207468726f7567682064656c656761746563616c6c00000000000000006064820152608401610f36565b50600080516020615e1a83398151915290565b600080805b6101da54811015611fd45760008181526101d96020908152604091829020825160c0810184528154815260018201549281019290925260028101549282019290925260038201546001600160a01b03908116606083018190526004840154608084015260059093015460a083015290919086161415611fc1576080810151611fbe9084615b98565b92505b5080611fcc81615d8e565b915050611f36565b506040516370a0823160e01b8152306004820152839060009083906001600160a01b038416906370a082319060240160206040518083038186803b15801561201b57600080fd5b505afa15801561202f573d6000803e3d6000fd5b505050506040513d601f19601f8201168201806040525081019061205391906153ae565b61205d9190615cff565b95945050505050565b6000818152606760205260408120546001600160a01b031680610d9a5760405162461bcd60e51b815260206004820152602960248201527f4552433732313a206f776e657220717565727920666f72206e6f6e657869737460448201526832b73a103a37b5b2b760b91b6064820152608401610f36565b600054610100900460ff166120f85760005460ff16156120fc565b303b155b61215f5760405162461bcd60e51b815260206004820152602e60248201527f496e697469616c697a61626c653a20636f6e747261637420697320616c72656160448201526d191e481a5b9a5d1a585b1a5e995960921b6064820152608401610f36565b600054610100900460ff16158015612181576000805461ffff19166101011790555b60408051808201909152600680825265457363726f7760d01b60209092019182526121af916101c391615051565b5060408051808201909152600a808252690c0b8ccb8c0b5c1c9bd960b21b60209092019182526121e2916101c491615051565b508b518c908c9061222c5760405162461bcd60e51b81526020600482015260146024820152734e616d652063616e6e6f7420626520656d70747960601b6044820152606401610f36565b80516122735760405162461bcd60e51b815260206004820152601660248201527553796d626f6c2063616e6e6f7420626520656d70747960501b6044820152606401610f36565b6305f5e10087106122e55760405162461bcd60e51b815260206004820152603660248201527f5075726368617365207469636b657420666565206d757374206265206c657373604482015275207468616e203130303030303030302028313030252960501b6064820152608401610f36565b8686111561236a5760405162461bcd60e51b815260206004820152604660248201527f416666696c69617465207469636b657420666565206d757374206265206c657360448201527f73207468616e206f7220657175616c20746f207075726368617365207469636b60648201526565742066656560d01b608482015260a401610f36565b6001600160a01b038a166123cc5760405162461bcd60e51b815260206004820152602360248201527f54726561737572792063616e6e6f7420626520746865207a65726f206164647260448201526265737360e81b6064820152608401610f36565b6001600160a01b03891661242c5760405162461bcd60e51b815260206004820152602160248201527f4973737565722063616e6e6f7420626520746865207a65726f206164647265736044820152607360f81b6064820152608401610f36565b6001600160a01b03881661248e5760405162461bcd60e51b815260206004820152602360248201527f4e617469766520746f6b656e20707269636520666565642069732072657175696044820152621c995960ea1b6064820152608401610f36565b60008b116124f05760405162461bcd60e51b815260206004820152602960248201527f4d61782073686172657320736f6c64206d7573742062652067726561746572206044820152687468616e207a65726f60b81b6064820152608401610f36565b6001600160a01b0385166125505760405162461bcd60e51b815260206004820152602160248201527f42726f6b65722063616e6e6f7420626520746865207a65726f206164647265736044820152607360f81b6064820152608401610f36565b6001600160a01b0384166125b25760405162461bcd60e51b8152602060048201526024808201527f416666696c696174652063616e6e6f7420626520746865207a65726f206164646044820152637265737360e01b6064820152608401610f36565b6125bc8e8e614271565b6125c46142a2565b6125cc6142cb565b6125d46142a2565b6125dc6142a2565b426101c75560126101c55560086101c655624c4b406101c95560006101cd556101cb8c90556101cc8b90556101d180546101c880546001600160a01b03199081166001600160a01b038d8116919091179092556001600160a81b03199092166101008d83160260ff1916176001179092556101d2805482168d84161790556101d78990556101d88890556101d5805482168884161790556101d6805490911691861691909117905561269c600080516020615dfa8339815191528a613f5e565b505080156126b0576000805461ff00191690555b505050505050505050505050565b606060006126cb83612d90565b905060008167ffffffffffffffff8111156126f657634e487b7160e01b600052604160045260246000fd5b60405190808252806020026020018201604052801561271f578160200160208202803683370190505b50905060005b82811015612774576127378582611a3f565b82828151811061275757634e487b7160e01b600052603260045260246000fd5b60209081029190910101528061276c81615d8e565b915050612725565b509392505050565b60026101915414156127a05760405162461bcd60e51b8152600401610f3690615b53565b60026101915560c95460ff16156127c95760405162461bcd60e51b8152600401610f369061594c565b6101d15460ff161561283a5760405162461bcd60e51b815260206004820152603460248201527f5769746864726177616c732063616e6e6f74206265206d61646520647572696e60448201527319c8199d5b991c985a5cda5b99c81c195c9a5bd960621b6064820152608401610f36565b3361284482612066565b6001600160a01b03161461289a5760405162461bcd60e51b815260206004820152601a60248201527f596f7520646f206e6f74206f776e2074686973207469636b65740000000000006044820152606401610f36565b60008181526101d36020526040812054905b6101da54811015612bbf5760008181526101d960209081526040808320815160c081018352815481526001808301548286015260028301548285015260038301546001600160a01b031660608301526004830154608083015260059092015460a08201528785526101df845282852081518652909352922054909160ff909116151514612bac5760008481526101df60209081526040808320845184529091529020805460ff1916600117905560608101516001600160a01b031615612a855760006101ca548483608001516129829190615ce0565b61298c9190615bd5565b8251606084015160405192935033927f981eda60172361092f12c75de05c753d28c928d6fb0b4b6492e685a44265fc0a926129d09230928b929160009189906156db565b60405180910390a260608201516001600160a01b0381166323b872dd306129f689612066565b6040516001600160e01b031960e085901b1681526001600160a01b0392831660048201529116602482015260448101859052606401602060405180830381600087803b158015612a4557600080fd5b505af1158015612a59573d6000803e3d6000fd5b505050506040513d601f19601f82011682018060405250810190612a7d919061537a565b505050612bac565b60006101ca54848360400151612a9b9190615ce0565b612aa59190615bd5565b825160405191925033917f981eda60172361092f12c75de05c753d28c928d6fb0b4b6492e685a44265fc0a91612ae59130918a91879060009081906156db565b60405180910390a26000612af886612066565b6001600160a01b03168260405160006040518083038185875af1925050503d8060008114612b42576040519150601f19603f3d011682016040523d82523d6000602084013e612b47565b606091505b5050905080612ba95760405162461bcd60e51b815260206004820152602860248201527f5469636b657420686f6c64657220636f756c64206e6f742072656365697665206044820152676561726e696e677360c01b6064820152608401610f36565b50505b5080612bb781615d8e565b9150506128ac565b505060016101915550565b612bd26150d1565b5060009081526101d96020908152604091829020825160c0810184528154815260018201549281019290925260028101549282019290925260038201546001600160a01b031660608201526004820154608082015260059091015460a082015290565b600080516020615dfa833981519152612c4e8133613efa565b6002610191541415612c725760405162461bcd60e51b8152600401610f3690615b53565b60026101915560c95460ff1615612c9b5760405162461bcd60e51b8152600401610f369061594c565b6101d15460ff1615612cbf5760405162461bcd60e51b8152600401610f3690615a75565b6000612cc961300d565b90508015612d86576101d2546040516000916001600160a01b03169083908381818185875af1925050503d8060008114612d1f576040519150601f19603f3d011682016040523d82523d6000602084013e612d24565b606091505b5050905080612bbf5760405162461bcd60e51b815260206004820152602860248201527f5472617375727920636f756c64206e6f742072656365697665207472617070656044820152676420746f6b656e7360c01b6064820152608401610f36565b5050600161019155565b60006001600160a01b038216612dfb5760405162461bcd60e51b815260206004820152602a60248201527f4552433732313a2062616c616e636520717565727920666f7220746865207a65604482015269726f206164647265737360b01b6064820152608401610f36565b506001600160a01b031660009081526068602052604090205490565b60008181526101d36020526040902054606090612e346101da5490565b67ffffffffffffffff811115612e5a57634e487b7160e01b600052604160045260246000fd5b604051908082528060200260200182016040528015612ed657816020015b612ec36040518060e0016040528060008152602001600081526020016000151581526020016000815260200160006001600160a01b0316815260200160008152602001600081525090565b815260200190600190039081612e785790505b50915060005b6101da54811015613006576101ca5460008281526101d96020526040812060020154909190612f0c908590615ce0565b612f169190615bd5565b6101ca5460008481526101d9602052604081206004015492935091612f3c908690615ce0565b612f469190615bd5565b6040805160e08101825288815260008681526101d9602081815284832080548286018190528d85526101df835286852090855282528584205460ff161515958501959095526060840188905260038501546001600160a01b0316608085015260a0840186905291889052905260059091015460c08201528651919250908190879086908110612fe557634e487b7160e01b600052603260045260246000fd5b60200260200101819052505050508080612ffe90615d8e565b915050612edc565b5050919050565b600080805b6101da548110156130a85760008181526101d96020908152604091829020825160c0810184528154815260018201549281019290925260028101549282019290925260038201546001600160a01b0316606082018190526004830154608083015260059092015460a0820152906130955760408101516130929084615b98565b92505b50806130a081615d8e565b915050613012565b5060006130b58247615cff565b9392505050565b600080516020615dfa8339815191526130d58133613efa565b611c306142fa565b60026101915414156131015760405162461bcd60e51b8152600401610f3690615b53565b60026101915560c95460ff161561312a5760405162461bcd60e51b8152600401610f369061594c565b6101d15460ff161561314e5760405162461bcd60e51b8152600401610f3690615a24565b60006101ca54116131715760405162461bcd60e51b8152600401610f3690615976565b346101de546131809190615b98565b6101de5560006131906101da5490565b6040805160c08101825282815243602080830191825234838501818152600060608601818152608087018281524260a089019081528a84526101d9909652888320885181559651600188015592516002870155516003860180546001600160a01b0319166001600160a01b039092169190911790559051600485015591516005909301929092559251939450909233927fce3ede2e266c8c5ec60064c2a65ba25bd2899a334c42b39b742129c49b1ef1c49261325292309288929181906156a8565b60405180910390a26132696101da80546001019055565b604051600090309034908381818185875af1925050503d80600081146132ab576040519150601f19603f3d011682016040523d82523d6000602084013e6132b0565b606091505b5050905080612bbf5760405162461bcd60e51b815260206004820152602160248201527f4c6f6f74626f7820636f756c64206e6f742072656365697665207061796d656e6044820152601d60fa1b6064820152608401610f36565b600091825260fb602090815260408084206001600160a01b0393909316845291905290205460ff1690565b606060668054610e3e90615d59565b600080516020615dfa83398151915261335e8133613efa565b60026101915414156133825760405162461bcd60e51b8152600401610f3690615b53565b60026101915560c95460ff16156133ab5760405162461bcd60e51b8152600401610f369061594c565b6101d15460ff1615156001146133d35760405162461bcd60e51b8152600401610f3690615b0f565b6101d1805460ff191690556101ce805460009091556101de546133f7908290615b98565b6101de5560006134076101da5490565b6040805160c081018252828152436020808301918252828401878152600060608501818152608086018281524260a088019081528984526101d9909552878320875181559551600187015592516002860155516003850180546001600160a01b0319166001600160a01b0390921691909117905590516004840155905160059092019190915591519293509133917fce3ede2e266c8c5ec60064c2a65ba25bd2899a334c42b39b742129c49b1ef1c4916134c89130918791899181906156a8565b60405180910390a26134df6101da80546001019055565b6101d1546101cd546101ca546040516101009093046001600160a01b0316927f87550133e5e9a6d009b8215a93d43b1511a87921372d21060f998133bd9be4b79261352e923092899190615716565b60405180910390a250506001610191555050565b600080516020615dfa83398151915261355b8133613efa565b600261019154141561357f5760405162461bcd60e51b8152600401610f3690615b53565b60026101915560c95460ff16156135a85760405162461bcd60e51b8152600401610f369061594c565b6101d15460ff1615156001146135d05760405162461bcd60e51b8152600401610f3690615b0f565b6101cb546101ca54101561365b5760405162461bcd60e51b815260206004820152604660248201527f46756e6472616973696e6720706572696f642063616e206f6e6c7920656e642060448201527f6966207468652066756e6472616973696e672074617267657420686173206265606482015265195b881a1a5d60d21b608482015260a401610f36565b6101d1805460ff1916908190556101ce805460009091556101d2546101cd546101ca5460405193946001600160a01b0393841694610100909104909316927f27f5bdb31297d70b551a9b987c293026b2377a1eacd5bf8adac76067d1fcd0b2926136c9923092889190615716565b60405180910390a36101d2546040516000916001600160a01b03169083908381818185875af1925050503d806000811461371f576040519150601f19603f3d011682016040523d82523d6000602084013e613724565b606091505b5050905080612bbf5760405162461bcd60e51b815260206004820152602260248201527f547265617375727920636f756c64206e6f742072656365697665207061796d656044820152611b9d60f21b6064820152608401610f36565b611b4f338383614352565b6000806000806000806101c860009054906101000a90046001600160a01b03166001600160a01b031663feaf968c6040518163ffffffff1660e01b815260040160a06040518083038186803b1580156137e357600080fd5b505afa1580156137f7573d6000803e3d6000fd5b505050506040513d601f19601f8201168201806040525081019061381b919061551f565b93985091965094509250905060128261386b5760405162461bcd60e51b8152602060048201526012602482015271526f756e64206e6f7420636f6d706c65746560701b6044820152606401610f36565b6000613878898388614421565b9998505050505050505050565b61388f3383613c5c565b6138ab5760405162461bcd60e51b8152600401610f36906159d3565b6138b78484848461445f565b50505050565b6060610d9a82614492565b6101dc80546040805160208084028201810190925282815260609390929091830182828015610eb757602002820191906000526020600020905b815481526020019060010190808311613902575050505050905090565b6101c48054610dae90615d59565b600082815260fb60205260409020600101546139498133613efa565b61106c8383613fe4565b60006101ca546101cc546139679190615cff565b905090565b60606139786101da5490565b67ffffffffffffffff81111561399e57634e487b7160e01b600052604160045260246000fd5b6040519080825280602002602001820160405280156139d757816020015b6139c46150d1565b8152602001906001900390816139bc5790505b50905060005b6101da54811015613a875760008181526101d96020908152604091829020825160c0810184528154815260018201549281019290925260028101549282019290925260038201546001600160a01b031660608201526004820154608082015260059091015460a08201528251839083908110613a6957634e487b7160e01b600052603260045260246000fd5b60200260200101819052508080613a7f90615d8e565b9150506139dd565b5090565b600080805b6101da54811015613b2e5760008181526101d96020908152604091829020825160c0810184528154815260018201549281019290925260028101549282019290925260038201546001600160a01b03908116606083018190526004840154608084015260059093015460a083015290919086161415613b1b576080810151613b189084615b98565b92505b5080613b2681615d8e565b915050613a90565b5092915050565b6101cf80546040805160208084028201810190925282815260609390929091830182828015610eb75760200282019190600052602060002090815481526020019060010190808311613902575050505050905090565b6001600160a01b03163b151590565b60006001600160e01b03198216637965db0b60e01b1480610d9a5750610d9a826145d7565b600081815260696020526040902080546001600160a01b0319166001600160a01b0384169081179091558190613bf482612066565b6001600160a01b03167f8c5be1e5ebec7d5bd14f71427d1e84f3dd0314c0f7b2291e5b200ac8c7c3b92560405160405180910390a45050565b60006130b5836001600160a01b0384166145fc565b611b4f82826040518060200160405280600081525061464b565b6000818152606760205260408120546001600160a01b0316613cd55760405162461bcd60e51b815260206004820152602c60248201527f4552433732313a206f70657261746f7220717565727920666f72206e6f6e657860448201526b34b9ba32b73a103a37b5b2b760a11b6064820152608401610f36565b6000613ce083612066565b9050806001600160a01b0316846001600160a01b03161480613d1b5750836001600160a01b0316613d1084610ec1565b6001600160a01b0316145b80613d4b57506001600160a01b038082166000908152606a602090815260408083209388168352929052205460ff165b949350505050565b826001600160a01b0316613d6682612066565b6001600160a01b031614613dca5760405162461bcd60e51b815260206004820152602560248201527f4552433732313a207472616e736665722066726f6d20696e636f72726563742060448201526437bbb732b960d91b6064820152608401610f36565b6001600160a01b038216613e2c5760405162461bcd60e51b8152602060048201526024808201527f4552433732313a207472616e7366657220746f20746865207a65726f206164646044820152637265737360e01b6064820152608401610f36565b613e3783838361467e565b613e42600082613bbf565b6001600160a01b0383166000908152606860205260408120805460019290613e6b908490615cff565b90915550506001600160a01b0382166000908152606860205260408120805460019290613e99908490615b98565b909155505060008181526067602052604080822080546001600160a01b0319166001600160a01b0386811691821790925591518493918716917fddf252ad1be2c89b69c2b068fc378daa952ba7f163c4a11628f55a4df523b3ef91a4505050565b613f04828261330b565b611b4f57613f1c816001600160a01b031660146146ac565b613f278360206146ac565b604051602001613f389291906155f6565b60408051601f198184030181529082905262461bcd60e51b8252610f369160040161584f565b613f68828261330b565b611b4f57600082815260fb602090815260408083206001600160a01b03851684529091529020805460ff19166001179055613fa03390565b6001600160a01b0316816001600160a01b0316837f2f8788117e7eff1d82e926ec794901d17c78024a50270940304540a733656f0d60405160405180910390a45050565b613fee828261330b565b15611b4f57600082815260fb602090815260408083206001600160a01b0385168085529252808320805460ff1916905551339285917ff6391f5c32d9c69d2a47ea670b442974b53935d1edc7fd64eb21e047a839171b9190a45050565b600080516020615dfa833981519152611b4f8133613efa565b7f4910fdfa16fed3260ed0e7147f7cc6da11a60208b5b9406d12a635614ffd91435460ff16156140975761106c8361488e565b826001600160a01b03166352d1902d6040518163ffffffff1660e01b815260040160206040518083038186803b1580156140d057600080fd5b505afa925050508015614100575060408051601f3d908101601f191682019092526140fd918101906153ae565b60015b6141635760405162461bcd60e51b815260206004820152602e60248201527f45524331393637557067726164653a206e657720696d706c656d656e7461746960448201526d6f6e206973206e6f74205555505360901b6064820152608401610f36565b600080516020615e1a83398151915281146141d25760405162461bcd60e51b815260206004820152602960248201527f45524331393637557067726164653a20756e737570706f727465642070726f786044820152681a58589b195555525160ba1b6064820152608401610f36565b5061106c83838361492a565b60c95460ff166142275760405162461bcd60e51b815260206004820152601460248201527314185d5cd8589b194e881b9bdd081c185d5cd95960621b6044820152606401610f36565b60c9805460ff191690557f5db9ee0a495bf2e6ff9c91a7834c1ba4fdd244a5e8aa4e537bd38aeae4b073aa335b6040516001600160a01b03909116815260200160405180910390a1565b600054610100900460ff166142985760405162461bcd60e51b8152600401610f3690615ac4565b611b4f828261494f565b600054610100900460ff166142c95760405162461bcd60e51b8152600401610f3690615ac4565b565b600054610100900460ff166142f25760405162461bcd60e51b8152600401610f3690615ac4565b6142c961499d565b60c95460ff161561431d5760405162461bcd60e51b8152600401610f369061594c565b60c9805460ff191660011790557f62e78cea01bee320cd4e420270b5ea74000d11b0c9f74754ebdbfc544b05a2586142543390565b816001600160a01b0316836001600160a01b031614156143b45760405162461bcd60e51b815260206004820152601960248201527f4552433732313a20617070726f766520746f2063616c6c6572000000000000006044820152606401610f36565b6001600160a01b038381166000818152606a6020908152604080832094871680845294825291829020805460ff191686151590811790915591519182527f17307eab39ab6107e8899845ad3d59bd9653f200f220920489ca2b5937696c31910160405180910390a3505050565b60006101c954836101c5546144369190615cff565b61444190600a615c38565b61444b8487615ce0565b6144559190615ce0565b613d4b9190615bd5565b61446a848484613d53565b614476848484846149d0565b6138b75760405162461bcd60e51b8152600401610f3690615862565b6060816144b65750506040805180820190915260018152600360fc1b602082015290565b8160005b81156144e057806144ca81615d8e565b91506144d99050600a83615bd5565b91506144ba565b60008167ffffffffffffffff81111561450957634e487b7160e01b600052604160045260246000fd5b6040519080825280601f01601f191660200182016040528015614533576020820181803683370190505b509050815b85156145ce57614549600182615cff565b90506000614558600a88615bd5565b61456390600a615ce0565b61456d9088615cff565b614578906030615bb0565b905060008160f81b9050808484815181106145a357634e487b7160e01b600052603260045260246000fd5b60200101906001600160f81b031916908160001a9053506145c5600a89615bd5565b97505050614538565b50949350505050565b60006001600160e01b0319821663780e9d6360e01b1480610d9a5750610d9a82614add565b600081815260018301602052604081205461464357508154600181810184556000848152602080822090930184905584548482528286019093526040902091909155610d9a565b506000610d9a565b6146558383614b2d565b61466260008484846149d0565b61106c5760405162461bcd60e51b8152600401610f3690615862565b60c95460ff16156146a15760405162461bcd60e51b8152600401610f369061594c565b61106c838383614c7b565b606060006146bb836002615ce0565b6146c6906002615b98565b67ffffffffffffffff8111156146ec57634e487b7160e01b600052604160045260246000fd5b6040519080825280601f01601f191660200182016040528015614716576020820181803683370190505b509050600360fc1b8160008151811061473f57634e487b7160e01b600052603260045260246000fd5b60200101906001600160f81b031916908160001a905350600f60fb1b8160018151811061477c57634e487b7160e01b600052603260045260246000fd5b60200101906001600160f81b031916908160001a90535060006147a0846002615ce0565b6147ab906001615b98565b90505b600181111561483f576f181899199a1a9b1b9c1cb0b131b232b360811b85600f16601081106147ed57634e487b7160e01b600052603260045260246000fd5b1a60f81b82828151811061481157634e487b7160e01b600052603260045260246000fd5b60200101906001600160f81b031916908160001a90535060049490941c9361483881615d42565b90506147ae565b5083156130b55760405162461bcd60e51b815260206004820181905260248201527f537472696e67733a20686578206c656e67746820696e73756666696369656e746044820152606401610f36565b6001600160a01b0381163b6148fb5760405162461bcd60e51b815260206004820152602d60248201527f455243313936373a206e657720696d706c656d656e746174696f6e206973206e60448201526c1bdd08184818dbdb9d1c9858dd609a1b6064820152608401610f36565b600080516020615e1a83398151915280546001600160a01b0319166001600160a01b0392909216919091179055565b61493383614d33565b6000825111806149405750805b1561106c576138b78383614d73565b600054610100900460ff166149765760405162461bcd60e51b8152600401610f3690615ac4565b8151614989906065906020850190615051565b50805161106c906066906020840190615051565b600054610100900460ff166149c45760405162461bcd60e51b8152600401610f3690615ac4565b60c9805460ff19169055565b60006001600160a01b0384163b15614ad257604051630a85bd0160e11b81526001600160a01b0385169063150b7a0290614a1490339089908890889060040161566b565b602060405180830381600087803b158015614a2e57600080fd5b505af1925050508015614a5e575060408051601f3d908101601f19168201909252614a5b91810190615404565b60015b614ab8573d808015614a8c576040519150601f19603f3d011682016040523d82523d6000602084013e614a91565b606091505b508051614ab05760405162461bcd60e51b8152600401610f3690615862565b805181602001fd5b6001600160e01b031916630a85bd0160e11b149050613d4b565b506001949350505050565b60006001600160e01b031982166380ac58cd60e01b1480614b0e57506001600160e01b03198216635b5e139f60e01b145b80610d9a57506301ffc9a760e01b6001600160e01b0319831614610d9a565b6001600160a01b038216614b835760405162461bcd60e51b815260206004820181905260248201527f4552433732313a206d696e7420746f20746865207a65726f20616464726573736044820152606401610f36565b6000818152606760205260409020546001600160a01b031615614be85760405162461bcd60e51b815260206004820152601c60248201527f4552433732313a20746f6b656e20616c7265616479206d696e746564000000006044820152606401610f36565b614bf46000838361467e565b6001600160a01b0382166000908152606860205260408120805460019290614c1d908490615b98565b909155505060008181526067602052604080822080546001600160a01b0319166001600160a01b03861690811790915590518392907fddf252ad1be2c89b69c2b068fc378daa952ba7f163c4a11628f55a4df523b3ef908290a45050565b6001600160a01b038316614cd657614cd181609980546000838152609a60205260408120829055600182018355919091527f72a152ddfb8e864297c917af52ea6c1c68aead0fee1a62673fcc7e0c94979d000155565b614cf9565b816001600160a01b0316836001600160a01b031614614cf957614cf98382614e5e565b6001600160a01b038216614d105761106c81614efb565b826001600160a01b0316826001600160a01b03161461106c5761106c8282614fd4565b614d3c8161488e565b6040516001600160a01b038216907fbc7cd75a20ee27fd9adebab32041f755214dbc6bffa90cc0225b39da2e5c2d3b90600090a250565b60606001600160a01b0383163b614ddb5760405162461bcd60e51b815260206004820152602660248201527f416464726573733a2064656c65676174652063616c6c20746f206e6f6e2d636f6044820152651b9d1c9858dd60d21b6064820152608401610f36565b600080846001600160a01b031684604051614df691906155da565b600060405180830381855af49150503d8060008114614e31576040519150601f19603f3d011682016040523d82523d6000602084013e614e36565b606091505b509150915061205d8282604051806060016040528060278152602001615e3a60279139615018565b60006001614e6b84612d90565b614e759190615cff565b600083815260986020526040902054909150808214614ec8576001600160a01b03841660009081526097602090815260408083208584528252808320548484528184208190558352609890915290208190555b5060009182526098602090815260408084208490556001600160a01b039094168352609781528383209183525290812055565b609954600090614f0d90600190615cff565b6000838152609a602052604081205460998054939450909284908110614f4357634e487b7160e01b600052603260045260246000fd5b906000526020600020015490508060998381548110614f7257634e487b7160e01b600052603260045260246000fd5b6000918252602080832090910192909255828152609a90915260408082208490558582528120556099805480614fb857634e487b7160e01b600052603160045260246000fd5b6001900381819060005260206000200160009055905550505050565b6000614fdf83612d90565b6001600160a01b039093166000908152609760209081526040808320868452825280832085905593825260989052919091209190915550565b606083156150275750816130b5565b8251156150375782518084602001fd5b8160405162461bcd60e51b8152600401610f36919061584f565b82805461505d90615d59565b90600052602060002090601f01602090048101928261507f57600085556150c5565b82601f1061509857805160ff19168380011785556150c5565b828001600101855582156150c5579182015b828111156150c55782518255916020019190600101906150aa565b50613a87929150615110565b6040518060c0016040528060008152602001600081526020016000815260200160006001600160a01b0316815260200160008152602001600081525090565b5b80821115613a875760008155600101615111565b80356001600160a01b038116811461513c57600080fd5b919050565b600082601f830112615151578081fd5b813567ffffffffffffffff8082111561516c5761516c615dbf565b604051601f8301601f19908116603f0116810190828211818310171561519457615194615dbf565b816040528381528660208588010111156151ac578485fd5b8360208701602083013792830160200193909352509392505050565b805169ffffffffffffffffffff8116811461513c57600080fd5b6000602082840312156151f3578081fd5b6130b582615125565b6000806040838503121561520e578081fd5b61521783615125565b915061522560208401615125565b90509250929050565b600080600060608486031215615242578081fd5b61524b84615125565b925061525960208501615125565b9150604084013590509250925092565b6000806000806080858703121561527e578081fd5b61528785615125565b935061529560208601615125565b925060408501359150606085013567ffffffffffffffff8111156152b7578182fd5b6152c387828801615141565b91505092959194509250565b600080604083850312156152e1578182fd5b6152ea83615125565b915060208301356152fa81615dd5565b809150509250929050565b60008060408385031215615317578182fd5b61532083615125565b9150602083013567ffffffffffffffff81111561533b578182fd5b61534785828601615141565b9150509250929050565b60008060408385031215615363578182fd5b61536c83615125565b946020939093013593505050565b60006020828403121561538b578081fd5b81516130b581615dd5565b6000602082840312156153a7578081fd5b5035919050565b6000602082840312156153bf578081fd5b5051919050565b600080604083850312156153d8578081fd5b8235915061522560208401615125565b6000602082840312156153f9578081fd5b81356130b581615de3565b600060208284031215615415578081fd5b81516130b581615de3565b60008060008060008060008060008060006101608c8e031215615441578889fd5b67ffffffffffffffff808d35111561545757898afd5b6154648e8e358f01615141565b9b508060208e0135111561547657898afd5b506154878d60208e01358e01615141565b995060408c0135985060608c013597506154a360808d01615125565b96506154b160a08d01615125565b95506154bf60c08d01615125565b945060e08c013593506101008c013592506154dd6101208d01615125565b91506154ec6101408d01615125565b90509295989b509295989b9093969950565b60008060408385031215615510578182fd5b50508035926020909101359150565b600080600080600060a08688031215615536578283fd5b61553f866151c8565b9450602086015193506040860151925060608601519150615562608087016151c8565b90509295509295909350565b60008151808452615586816020860160208601615d16565b601f01601f19169290920160200192915050565b8051825260208082015190830152604080820151908301526060808201516001600160a01b0316908301526080808201519083015260a090810151910152565b600082516155ec818460208701615d16565b9190910192915050565b7f416363657373436f6e74726f6c3a206163636f756e742000000000000000000081526000835161562e816017850160208801615d16565b7001034b99036b4b9b9b4b733903937b6329607d1b601791840191820152835161565f816028840160208801615d16565b01602801949350505050565b6001600160a01b038581168252841660208201526040810183905260806060820181905260009061569e9083018461556e565b9695505050505050565b6001600160a01b039586168152602081019490945260408401929092529092166060820152608081019190915260a00190565b6001600160a01b039687168152602081019590955260408501939093526060840191909152909216608082015260a081019190915260c00190565b6001600160a01b0394909416845260208401929092526040830152606082015260800190565b6020808252825182820181905260009190848201906040850190845b8181101561577457835183529284019291840191600101615758565b50909695505050505050565b602080825282518282018190526000919060409081850190868401855b8281101561580057815180518552868101518786015285810151151586860152606080820151908601526080808201516001600160a01b03169086015260a0808201519086015260c0908101519085015260e0909301929085019060010161579d565b5091979650505050505050565b6020808252825182820181905260009190848201906040850190845b818110156157745761583c83855161559a565b9284019260c09290920191600101615829565b6020815260006130b5602083018461556e565b60208082526032908201527f4552433732313a207472616e7366657220746f206e6f6e20455243373231526560408201527131b2b4bb32b91034b6b83632b6b2b73a32b960711b606082015260800190565b6020808252602c908201527f46756e6374696f6e206d7573742062652063616c6c6564207468726f7567682060408201526b19195b1959d85d1958d85b1b60a21b606082015260800190565b6020808252602c908201527f46756e6374696f6e206d7573742062652063616c6c6564207468726f7567682060408201526b6163746976652070726f787960a01b606082015260800190565b60208082526010908201526f14185d5cd8589b194e881c185d5cd95960821b604082015260600190565b60208082526037908201527f4e6f207368617265732068617665206265656e20736f6c642e204465706f736960408201527f74732077696c6c206e6f74206265206163636570746564000000000000000000606082015260800190565b60208082526031908201527f4552433732313a207472616e736665722063616c6c6572206973206e6f74206f6040820152701ddb995c881b9bdc88185c1c1c9bdd9959607a1b606082015260800190565b60208082526031908201527f4465706f736974732063616e6e6f74206265206d61646520647572696e6720666040820152701d5b991c985a5cda5b99c81c195c9a5bd9607a1b606082015260800190565b6020808252602f908201527f5265736375652063616e6e6f74206265206d61646520647572696e672066756e60408201526e191c985a5cda5b99c81c195c9a5bd9608a1b606082015260800190565b6020808252602b908201527f496e697469616c697a61626c653a20636f6e7472616374206973206e6f74206960408201526a6e697469616c697a696e6760a81b606082015260800190565b60208082526024908201527f46756e6472616973696e6720706572696f642068617320616c726561647920656040820152631b99195960e21b606082015260800190565b6020808252601f908201527f5265656e7472616e637947756172643a207265656e7472616e742063616c6c00604082015260600190565b60c08101610d9a828461559a565b60008219821115615bab57615bab615da9565b500190565b600060ff821660ff84168060ff03821115615bcd57615bcd615da9565b019392505050565b600082615bf057634e487b7160e01b81526012600452602481fd5b500490565b600181815b80851115615c30578160001904821115615c1657615c16615da9565b80851615615c2357918102915b93841c9390800290615bfa565b509250929050565b60006130b58383600082615c4e57506001610d9a565b81615c5b57506000610d9a565b8160018114615c715760028114615c7b57615c97565b6001915050610d9a565b60ff841115615c8c57615c8c615da9565b50506001821b610d9a565b5060208310610133831016604e8410600b8410161715615cba575081810a610d9a565b615cc48383615bf5565b8060001904821115615cd857615cd8615da9565b029392505050565b6000816000190483118215151615615cfa57615cfa615da9565b500290565b600082821015615d1157615d11615da9565b500390565b60005b83811015615d31578181015183820152602001615d19565b838111156138b75750506000910152565b600081615d5157615d51615da9565b506000190190565b600181811c90821680615d6d57607f821691505b60208210811415611e7857634e487b7160e01b600052602260045260246000fd5b6000600019821415615da257615da2615da9565b5060010190565b634e487b7160e01b600052601160045260246000fd5b634e487b7160e01b600052604160045260246000fd5b8015158114611c3057600080fd5b6001600160e01b031981168114611c3057600080fdfe3b5d4cc60d3ec3516ee8ae083bd60934f6eb2a6c54b1229985c41bfb092b2603360894a13ba1a3210667c828492db98dca3e2076cc3735a920a3ca505d382bbc416464726573733a206c6f772d6c6576656c2064656c65676174652063616c6c206661696c6564a2646970667358221220dce1c0ab7fe235d03eade66dc1ead4185c3afe75656ce8d5a39b6faba578a5bf64736f6c63430008040033",
  "linkReferences": {},
  "deployedLinkReferences": {}
}