{
  "_format": "hh-sol-artifact-1",
  "contractName": "LootboxInstantFactory",
  "sourceName": "contracts/LootboxInstantFactory.sol",
  "abi": [
    {
      "inputs": [
        {
          "internalType": "address",
          "name": "_lootboxDao",
          "type": "address"
        },
        {
          "internalType": "address",
          "name": "_nativeTokenPriceFeed",
          "type": "address"
        },
        {
          "internalType": "uint256",
          "name": "_ticketPurchaseFee",
          "type": "uint256"
        },
        {
          "internalType": "address",
          "name": "_brokerAddress",
          "type": "address"
        }
      ],
      "stateMutability": "nonpayable",
      "type": "constructor"
    },
    {
      "anonymous": false,
      "inputs": [
        {
          "indexed": true,
          "internalType": "address",
          "name": "lootbox",
          "type": "address"
        },
        {
          "indexed": true,
          "internalType": "address",
          "name": "affiliate",
          "type": "address"
        },
        {
          "indexed": false,
          "internalType": "uint256",
          "name": "affiliateFee",
          "type": "uint256"
        },
        {
          "indexed": false,
          "internalType": "uint256",
          "name": "ticketPurchaseFee",
          "type": "uint256"
        },
        {
          "indexed": false,
          "internalType": "address",
          "name": "lootboxIssuer",
          "type": "address"
        },
        {
          "indexed": false,
          "internalType": "address",
          "name": "lootboxTreasury",
          "type": "address"
        }
      ],
      "name": "AffiliateReceipt",
      "type": "event"
    },
    {
      "anonymous": false,
      "inputs": [
        {
          "indexed": true,
          "internalType": "address",
          "name": "affiliate",
          "type": "address"
        },
        {
          "indexed": true,
          "internalType": "address",
          "name": "whitelistedBy",
          "type": "address"
        },
        {
          "indexed": false,
          "internalType": "uint256",
          "name": "ticketAffiliateFee",
          "type": "uint256"
        },
        {
          "indexed": false,
          "internalType": "uint256",
          "name": "timestamp",
          "type": "uint256"
        }
      ],
      "name": "AffiliateWhitelisted",
      "type": "event"
    },
    {
      "anonymous": false,
      "inputs": [
        {
          "indexed": false,
          "internalType": "string",
          "name": "lootboxName",
          "type": "string"
        },
        {
          "indexed": true,
          "internalType": "address",
          "name": "lootbox",
          "type": "address"
        },
        {
          "indexed": true,
          "internalType": "address",
          "name": "issuer",
          "type": "address"
        },
        {
          "indexed": true,
          "internalType": "address",
          "name": "treasury",
          "type": "address"
        },
        {
          "indexed": false,
          "internalType": "uint256",
          "name": "maxSharesSold",
          "type": "uint256"
        },
        {
          "indexed": false,
          "internalType": "uint256",
          "name": "sharePriceUSD",
          "type": "uint256"
        },
        {
          "indexed": false,
          "internalType": "string",
          "name": "_data",
          "type": "string"
        }
      ],
      "name": "LootboxCreated",
      "type": "event"
    },
    {
      "anonymous": false,
      "inputs": [
        {
          "indexed": false,
          "internalType": "address",
          "name": "account",
          "type": "address"
        }
      ],
      "name": "Paused",
      "type": "event"
    },
    {
      "anonymous": false,
      "inputs": [
        {
          "indexed": true,
          "internalType": "bytes32",
          "name": "role",
          "type": "bytes32"
        },
        {
          "indexed": true,
          "internalType": "bytes32",
          "name": "previousAdminRole",
          "type": "bytes32"
        },
        {
          "indexed": true,
          "internalType": "bytes32",
          "name": "newAdminRole",
          "type": "bytes32"
        }
      ],
      "name": "RoleAdminChanged",
      "type": "event"
    },
    {
      "anonymous": false,
      "inputs": [
        {
          "indexed": true,
          "internalType": "bytes32",
          "name": "role",
          "type": "bytes32"
        },
        {
          "indexed": true,
          "internalType": "address",
          "name": "account",
          "type": "address"
        },
        {
          "indexed": true,
          "internalType": "address",
          "name": "sender",
          "type": "address"
        }
      ],
      "name": "RoleGranted",
      "type": "event"
    },
    {
      "anonymous": false,
      "inputs": [
        {
          "indexed": true,
          "internalType": "bytes32",
          "name": "role",
          "type": "bytes32"
        },
        {
          "indexed": true,
          "internalType": "address",
          "name": "account",
          "type": "address"
        },
        {
          "indexed": true,
          "internalType": "address",
          "name": "sender",
          "type": "address"
        }
      ],
      "name": "RoleRevoked",
      "type": "event"
    },
    {
      "anonymous": false,
      "inputs": [
        {
          "indexed": false,
          "internalType": "address",
          "name": "account",
          "type": "address"
        }
      ],
      "name": "Unpaused",
      "type": "event"
    },
    {
      "inputs": [],
      "name": "DAO_ROLE",
      "outputs": [
        {
          "internalType": "bytes32",
          "name": "",
          "type": "bytes32"
        }
      ],
      "stateMutability": "view",
      "type": "function"
    },
    {
      "inputs": [],
      "name": "DEFAULT_ADMIN_ROLE",
      "outputs": [
        {
          "internalType": "bytes32",
          "name": "",
          "type": "bytes32"
        }
      ],
      "stateMutability": "view",
      "type": "function"
    },
    {
      "inputs": [
        {
          "internalType": "address",
          "name": "affiliate",
          "type": "address"
        },
        {
          "internalType": "uint256",
          "name": "ticketAffiliateFee",
          "type": "uint256"
        }
      ],
      "name": "addAffiliate",
      "outputs": [],
      "stateMutability": "nonpayable",
      "type": "function"
    },
    {
      "inputs": [],
      "name": "brokerAddress",
      "outputs": [
        {
          "internalType": "address",
          "name": "",
          "type": "address"
        }
      ],
      "stateMutability": "view",
      "type": "function"
    },
    {
      "inputs": [
        {
          "internalType": "address",
          "name": "lootbox",
          "type": "address"
        }
      ],
      "name": "checkLootboxAffiliate",
      "outputs": [
        {
          "internalType": "address",
          "name": "",
          "type": "address"
        }
      ],
      "stateMutability": "view",
      "type": "function"
    },
    {
      "inputs": [
        {
          "internalType": "string",
          "name": "_lootboxName",
          "type": "string"
        },
        {
          "internalType": "string",
          "name": "_lootboxSymbol",
          "type": "string"
        },
        {
          "internalType": "uint256",
          "name": "_maxSharesSold",
          "type": "uint256"
        },
        {
          "internalType": "address",
          "name": "_treasury",
          "type": "address"
        },
        {
          "internalType": "address",
          "name": "_affiliate",
          "type": "address"
        },
        {
          "internalType": "string",
          "name": "_data",
          "type": "string"
        }
      ],
      "name": "createLootbox",
      "outputs": [
        {
          "internalType": "address",
          "name": "_lootbox",
          "type": "address"
        }
      ],
      "stateMutability": "nonpayable",
      "type": "function"
    },
    {
      "inputs": [
        {
          "internalType": "bytes32",
          "name": "role",
          "type": "bytes32"
        }
      ],
      "name": "getRoleAdmin",
      "outputs": [
        {
          "internalType": "bytes32",
          "name": "",
          "type": "bytes32"
        }
      ],
      "stateMutability": "view",
      "type": "function"
    },
    {
      "inputs": [
        {
          "internalType": "bytes32",
          "name": "role",
          "type": "bytes32"
        },
        {
          "internalType": "address",
          "name": "account",
          "type": "address"
        }
      ],
      "name": "grantRole",
      "outputs": [],
      "stateMutability": "nonpayable",
      "type": "function"
    },
    {
      "inputs": [
        {
          "internalType": "bytes32",
          "name": "role",
          "type": "bytes32"
        },
        {
          "internalType": "address",
          "name": "account",
          "type": "address"
        }
      ],
      "name": "hasRole",
      "outputs": [
        {
          "internalType": "bool",
          "name": "",
          "type": "bool"
        }
      ],
      "stateMutability": "view",
      "type": "function"
    },
    {
      "inputs": [],
      "name": "listAffiliates",
      "outputs": [
        {
          "internalType": "bytes32[]",
          "name": "_affiliates",
          "type": "bytes32[]"
        }
      ],
      "stateMutability": "view",
      "type": "function"
    },
    {
      "inputs": [],
      "name": "lootboxImplementation",
      "outputs": [
        {
          "internalType": "address",
          "name": "",
          "type": "address"
        }
      ],
      "stateMutability": "view",
      "type": "function"
    },
    {
      "inputs": [],
      "name": "nativeTokenPriceFeed",
      "outputs": [
        {
          "internalType": "address",
          "name": "",
          "type": "address"
        }
      ],
      "stateMutability": "view",
      "type": "function"
    },
    {
      "inputs": [],
      "name": "pause",
      "outputs": [],
      "stateMutability": "nonpayable",
      "type": "function"
    },
    {
      "inputs": [],
      "name": "paused",
      "outputs": [
        {
          "internalType": "bool",
          "name": "",
          "type": "bool"
        }
      ],
      "stateMutability": "view",
      "type": "function"
    },
    {
      "inputs": [
        {
          "internalType": "bytes32",
          "name": "role",
          "type": "bytes32"
        },
        {
          "internalType": "address",
          "name": "account",
          "type": "address"
        }
      ],
      "name": "renounceRole",
      "outputs": [],
      "stateMutability": "nonpayable",
      "type": "function"
    },
    {
      "inputs": [
        {
          "internalType": "bytes32",
          "name": "role",
          "type": "bytes32"
        },
        {
          "internalType": "address",
          "name": "account",
          "type": "address"
        }
      ],
      "name": "revokeRole",
      "outputs": [],
      "stateMutability": "nonpayable",
      "type": "function"
    },
    {
      "inputs": [],
      "name": "sharePriceUSD",
      "outputs": [
        {
          "internalType": "uint256",
          "name": "",
          "type": "uint256"
        }
      ],
      "stateMutability": "view",
      "type": "function"
    },
    {
      "inputs": [
        {
          "internalType": "bytes4",
          "name": "interfaceId",
          "type": "bytes4"
        }
      ],
      "name": "supportsInterface",
      "outputs": [
        {
          "internalType": "bool",
          "name": "",
          "type": "bool"
        }
      ],
      "stateMutability": "view",
      "type": "function"
    },
    {
      "inputs": [],
      "name": "ticketPurchaseFee",
      "outputs": [
        {
          "internalType": "uint256",
          "name": "",
          "type": "uint256"
        }
      ],
      "stateMutability": "view",
      "type": "function"
    },
    {
      "inputs": [],
      "name": "unpause",
      "outputs": [],
      "stateMutability": "nonpayable",
      "type": "function"
    },
    {
      "inputs": [],
      "name": "viewLootboxes",
      "outputs": [
        {
          "internalType": "bytes32[]",
          "name": "",
          "type": "bytes32[]"
        }
      ],
      "stateMutability": "view",
      "type": "function"
    }
  ],
  "bytecode": "0x6101006040523480156200001257600080fd5b5060405162007d6038038062007d6083398101604081905262000035916200032f565b6000805460ff191690556001600160a01b038416620000a65760405162461bcd60e51b815260206004820152602260248201527f44414f204c6f6f74626f7820616464726573732063616e6e6f74206265207a65604482015261726f60f01b60648201526084015b60405180910390fd5b6001600160a01b038116620000fe5760405162461bcd60e51b815260206004820152601d60248201527f42726f6b657220616464726573732063616e6e6f74206265207a65726f00000060448201526064016200009d565b6001600160a01b0383166200016a5760405162461bcd60e51b815260206004820152602b60248201527f6e6174697665546f6b656e50726963654665656420616464726573732063616e60448201526a6e6f74206265207a65726f60a81b60648201526084016200009d565b6305f5e1008210620001e55760405162461bcd60e51b815260206004820152603660248201527f5075726368617365207469636b657420666565206d757374206265206c65737360448201527f207468616e20313030303030303030202831303025290000000000000000000060648201526084016200009d565b604051620001f39062000304565b604051809103906000f08015801562000210573d6000803e3d6000fd5b5060601b6001600160601b0319166080526200024d7f3b5d4cc60d3ec3516ee8ae083bd60934f6eb2a6c54b1229985c41bfb092b2603856200027b565b624c4b406002556001600160601b0319606093841b811660a05260c09290925290911b1660e0525062000382565b60008281526001602090815260408083206001600160a01b038516845290915290205460ff16620003005760008281526001602081815260408084206001600160a01b0386168086529252808420805460ff19169093179092559051339285917f2f8788117e7eff1d82e926ec794901d17c78024a50270940304540a733656f0d9190a45b5050565b615c3e806200212283390190565b80516001600160a01b03811681146200032a57600080fd5b919050565b6000806000806080858703121562000345578384fd5b620003508562000312565b9350620003606020860162000312565b925060408501519150620003776060860162000312565b905092959194509250565b60805160601c60a05160601c60c05160e05160601c611d33620003ef6000396000818161025201526109780152600081816102e80152818161050f015281816109310152610ac701526000818161032701526109100152600081816101a101526108e20152611d336000f3fe60806040523480156200001157600080fd5b5060043610620001515760003560e01c80635c975abb11620000c7578063a7c721c51162000086578063a7c721c514620002e2578063d547741f146200030a578063d7c28bb21462000321578063e9c265181462000349578063f9b778ff1462000360578063fd9e62a9146200037757600080fd5b80635c975abb1462000295578063737d568714620002a15780638456cb5914620002b857806391d1485414620002c2578063a217fddf14620002d957600080fd5b806336568abe116200011457806336568abe146200022b5780633f4ba83a14620002425780635089f796146200024c5780635225b69c1462000274578063565bae8d146200027e57600080fd5b806301ffc9a7146200015657806317088631146200018257806319dd5657146200019b578063248a9ca314620001dc5780632f2ff15d1462000212575b600080fd5b6200016d62000167366004620011b4565b62000381565b60405190151581526020015b60405180910390f35b6200018c620003b9565b6040516200017991906200136f565b620001c37f000000000000000000000000000000000000000000000000000000000000000081565b6040516001600160a01b03909116815260200162000179565b62000203620001ed3660046200116d565b6000908152600160208190526040909120015490565b60405190815260200162000179565b620002296200022336600462001186565b62000412565b005b620002296200023c36600462001186565b62000442565b62000229620004c8565b620001c37f000000000000000000000000000000000000000000000000000000000000000081565b6200020360025481565b620002296200028f36600462001141565b620004f1565b60005460ff166200016d565b620001c3620002b236600462001124565b62000627565b6200022962000665565b6200016d620002d336600462001186565b6200068b565b62000203600081565b620002037f000000000000000000000000000000000000000000000000000000000000000081565b620002296200031b36600462001186565b620006b6565b620001c37f000000000000000000000000000000000000000000000000000000000000000081565b6200020360008051602062001cde83398151915281565b620001c362000371366004620011de565b620006e1565b6200018c62000b36565b60006001600160e01b03198216637965db0b60e01b1480620003b357506301ffc9a760e01b6001600160e01b03198316145b92915050565b6007805460408051602080840282018101909252828152606093909290918301828280156200040857602002820191906000526020600020905b815481526020019060010190808311620003f3575b5050505050905090565b6000828152600160208190526040909120015462000431813362000baa565b6200043d838362000c19565b505050565b6001600160a01b0381163314620004b85760405162461bcd60e51b815260206004820152602f60248201527f416363657373436f6e74726f6c3a2063616e206f6e6c792072656e6f756e636560448201526e103937b632b9903337b91039b2b63360891b60648201526084015b60405180910390fd5b620004c4828262000c87565b5050565b60008051602062001cde833981519152620004e4813362000baa565b620004ee62000cf1565b50565b60008051602062001cde8339815191526200050d813362000baa565b7f0000000000000000000000000000000000000000000000000000000000000000821115620005b45760405162461bcd60e51b815260206004820152604660248201527f416666696c69617465207469636b657420666565206d757374206265206c657360448201527f73207468616e206f7220657175616c20746f207075726368617365207469636b60648201526565742066656560d01b608482015260a401620004af565b6001600160a01b0383166000908152600360205260409020829055620005dc60058462000d86565b506040805183815242602082015233916001600160a01b038616917f92b63ef4b711e706248082654091a6c515ca36d749b6008a128776a88f03830e910160405180910390a3505050565b600060008051602062001cde83398151915262000645813362000baa565b50506001600160a01b039081166000908152600460205260409020541690565b60008051602062001cde83398151915262000681813362000baa565b620004ee62000da4565b60009182526001602090815260408084206001600160a01b0393909316845291905290205460ff1690565b60008281526001602081905260409091200154620006d5813362000baa565b6200043d838362000c87565b6000805460ff16156200072a5760405162461bcd60e51b815260206004820152601060248201526f14185d5cd8589b194e881c185d5cd95960821b6044820152606401620004af565b86516200077a5760405162461bcd60e51b815260206004820152601c60248201527f4c6f6f74626f78206e616d652063616e6e6f7420626520656d707479000000006044820152606401620004af565b8551620007ca5760405162461bcd60e51b815260206004820152601e60248201527f4c6f6f74626f782073796d626f6c2063616e6e6f7420626520656d70747900006044820152606401620004af565b6001600160a01b038416620008225760405162461bcd60e51b815260206004820152601f60248201527f547265617375727920616464726573732063616e6e6f74206265207a65726f006044820152606401620004af565b6001600160a01b0383166200087a5760405162461bcd60e51b815260206004820181905260248201527f416666696c6961746520616464726573732063616e6e6f74206265207a65726f6044820152606401620004af565b60008511620008de5760405162461bcd60e51b815260206004820152602960248201527f4d61782073686172657320736f6c64206d7573742062652067726561746572206044820152687468616e207a65726f60b81b6064820152608401620004af565b60007f000000000000000000000000000000000000000000000000000000000000000063ece7205260e01b89898989337f00000000000000000000000000000000000000000000000000000000000000007f0000000000000000000000000000000000000000000000000000000000000000600360008e6001600160a01b03166001600160a01b03168152602001908152602001600020547f00000000000000000000000000000000000000000000000000000000000000008e604051602401620009b39a99989796959493929190620013ca565b60408051601f198184030181529181526020820180516001600160e01b03166001600160e01b0319909416939093179092529051620009f2906200106a565b620009ff92919062001341565b604051809103906000f08015801562000a1c573d6000803e3d6000fd5b50905062000a2c60078262000d86565b506001600160a01b038181166000818152600460205260409081902080546001600160a01b0319168885161790556002549051928816923392917ff39d14fa0aa07a94a72c62bae5fb327d547a62865bdd8fcfa9c5223107c35a7c9162000a9a918e918d91908b9062001445565b60405180910390a46001600160a01b038481166000818152600360209081526040918290205482519081527f00000000000000000000000000000000000000000000000000000000000000009181019190915233818301528884166060820152905191928416917f0b4c73cb9afffcc1a8fe5a90b0072b37bb1da3a9256116b10867b2115bd6c48b9181900360800190a3979650505050505050565b606060008051602062001cde83398151915262000b54813362000baa565b600580546040805160208084028201810190925282815292919083018282801562000b9f57602002820191906000526020600020905b81548152602001906001019080831162000b8a575b505050505091505090565b62000bb682826200068b565b620004c45762000bd1816001600160a01b0316601462000e22565b62000bde83602062000e22565b60405160200162000bf1929190620012c8565b60408051601f198184030181529082905262461bcd60e51b8252620004af91600401620013b5565b62000c2582826200068b565b620004c45760008281526001602081815260408084206001600160a01b0386168086529252808420805460ff19169093179092559051339285917f2f8788117e7eff1d82e926ec794901d17c78024a50270940304540a733656f0d9190a45050565b62000c9382826200068b565b15620004c45760008281526001602090815260408083206001600160a01b0385168085529252808320805460ff1916905551339285917ff6391f5c32d9c69d2a47ea670b442974b53935d1edc7fd64eb21e047a839171b9190a45050565b60005460ff1662000d3c5760405162461bcd60e51b815260206004820152601460248201527314185d5cd8589b194e881b9bdd081c185d5cd95960621b6044820152606401620004af565b6000805460ff191690557f5db9ee0a495bf2e6ff9c91a7834c1ba4fdd244a5e8aa4e537bd38aeae4b073aa335b6040516001600160a01b03909116815260200160405180910390a1565b600062000d9d836001600160a01b03841662001018565b9392505050565b60005460ff161562000dec5760405162461bcd60e51b815260206004820152601060248201526f14185d5cd8589b194e881c185d5cd95960821b6044820152606401620004af565b6000805460ff191660011790557f62e78cea01bee320cd4e420270b5ea74000d11b0c9f74754ebdbfc544b05a25862000d693390565b6060600062000e33836002620014a0565b62000e4090600262001485565b67ffffffffffffffff81111562000e6757634e487b7160e01b600052604160045260246000fd5b6040519080825280601f01601f19166020018201604052801562000e92576020820181803683370190505b509050600360fc1b8160008151811062000ebc57634e487b7160e01b600052603260045260246000fd5b60200101906001600160f81b031916908160001a905350600f60fb1b8160018151811062000efa57634e487b7160e01b600052603260045260246000fd5b60200101906001600160f81b031916908160001a905350600062000f20846002620014a0565b62000f2d90600162001485565b90505b600181111562000fc7576f181899199a1a9b1b9c1cb0b131b232b360811b85600f166010811062000f7157634e487b7160e01b600052603260045260246000fd5b1a60f81b82828151811062000f9657634e487b7160e01b600052603260045260246000fd5b60200101906001600160f81b031916908160001a90535060049490941c9362000fbf81620014f5565b905062000f30565b50831562000d9d5760405162461bcd60e51b815260206004820181905260248201527f537472696e67733a20686578206c656e67746820696e73756666696369656e746044820152606401620004af565b60008181526001830160205260408120546200106157508154600181810184556000848152602080822090930184905584548482528286019093526040902091909155620003b3565b506000620003b3565b6107a2806200153c83390190565b80356001600160a01b03811681146200109057600080fd5b919050565b600082601f830112620010a6578081fd5b813567ffffffffffffffff80821115620010c457620010c462001525565b604051601f8301601f19908116603f01168101908282118183101715620010ef57620010ef62001525565b8160405283815286602085880101111562001108578485fd5b8360208701602083013792830160200193909352509392505050565b60006020828403121562001136578081fd5b62000d9d8262001078565b6000806040838503121562001154578081fd5b6200115f8362001078565b946020939093013593505050565b6000602082840312156200117f578081fd5b5035919050565b6000806040838503121562001199578182fd5b82359150620011ab6020840162001078565b90509250929050565b600060208284031215620011c6578081fd5b81356001600160e01b03198116811462000d9d578182fd5b60008060008060008060c08789031215620011f7578182fd5b863567ffffffffffffffff808211156200120f578384fd5b6200121d8a838b0162001095565b9750602089013591508082111562001233578384fd5b620012418a838b0162001095565b9650604089013595506200125860608a0162001078565b94506200126860808a0162001078565b935060a08901359150808211156200127e578283fd5b506200128d89828a0162001095565b9150509295509295509295565b60008151808452620012b4816020860160208601620014c2565b601f01601f19169290920160200192915050565b7f416363657373436f6e74726f6c3a206163636f756e742000000000000000000081526000835162001302816017850160208801620014c2565b7001034b99036b4b9b9b4b733903937b6329607d1b601791840191820152835162001335816028840160208801620014c2565b01602801949350505050565b6001600160a01b038316815260406020820181905260009062001367908301846200129a565b949350505050565b6020808252825182820181905260009190848201906040850190845b81811015620013a9578351835292840192918401916001016200138b565b50909695505050505050565b60208152600062000d9d60208301846200129a565b6000610140808352620013e08184018e6200129a565b90508281036020840152620013f6818d6200129a565b604084019b909b5250506001600160a01b039788166060820152958716608087015293861660a086015260c085019290925260e084015283166101008301529091166101209091015292915050565b6080815260006200145a60808301876200129a565b85602084015284604084015282810360608401526200147a81856200129a565b979650505050505050565b600082198211156200149b576200149b6200150f565b500190565b6000816000190483118215151615620014bd57620014bd6200150f565b500290565b60005b83811015620014df578181015183820152602001620014c5565b83811115620014ef576000848401525b50505050565b6000816200150757620015076200150f565b506000190190565b634e487b7160e01b600052601160045260246000fd5b634e487b7160e01b600052604160045260246000fdfe60806040526040516107a23803806107a283398101604081905261002291610315565b61004d60017f360894a13ba1a3210667c828492db98dca3e2076cc3735a920a3ca505d382bbd61042d565b60008051602061075b8339815191521461007757634e487b7160e01b600052600160045260246000fd5b6100838282600061008a565b5050610492565b610093836100c0565b6000825111806100a05750805b156100bb576100b9838361010060201b6100291760201c565b505b505050565b6100c98161012c565b6040516001600160a01b038216907fbc7cd75a20ee27fd9adebab32041f755214dbc6bffa90cc0225b39da2e5c2d3b90600090a250565b6060610125838360405180606001604052806027815260200161077b602791396101ec565b9392505050565b61013f816102ca60201b6100551760201c565b6101a65760405162461bcd60e51b815260206004820152602d60248201527f455243313936373a206e657720696d706c656d656e746174696f6e206973206e60448201526c1bdd08184818dbdb9d1c9858dd609a1b60648201526084015b60405180910390fd5b806101cb60008051602061075b83398151915260001b6102d960201b6100641760201c565b80546001600160a01b0319166001600160a01b039290921691909117905550565b60606001600160a01b0384163b6102545760405162461bcd60e51b815260206004820152602660248201527f416464726573733a2064656c65676174652063616c6c20746f206e6f6e2d636f6044820152651b9d1c9858dd60d21b606482015260840161019d565b600080856001600160a01b03168560405161026f91906103de565b600060405180830381855af49150503d80600081146102aa576040519150601f19603f3d011682016040523d82523d6000602084013e6102af565b606091505b5090925090506102c08282866102dc565b9695505050505050565b6001600160a01b03163b151590565b90565b606083156102eb575081610125565b8251156102fb5782518084602001fd5b8160405162461bcd60e51b815260040161019d91906103fa565b60008060408385031215610327578182fd5b82516001600160a01b038116811461033d578283fd5b60208401519092506001600160401b0380821115610359578283fd5b818501915085601f83011261036c578283fd5b81518181111561037e5761037e61047c565b604051601f8201601f19908116603f011681019083821181831017156103a6576103a661047c565b816040528281528860208487010111156103be578586fd5b6103cf836020830160208801610450565b80955050505050509250929050565b600082516103f0818460208701610450565b9190910192915050565b6020815260008251806020840152610419816040850160208701610450565b601f01601f19169190910160400192915050565b60008282101561044b57634e487b7160e01b81526011600452602481fd5b500390565b60005b8381101561046b578181015183820152602001610453565b838111156100b95750506000910152565b634e487b7160e01b600052604160045260246000fd5b6102ba806104a16000396000f3fe60806040523661001357610011610017565b005b6100115b610027610022610067565b61009f565b565b606061004e838360405180606001604052806027815260200161025e602791396100c3565b9392505050565b6001600160a01b03163b151590565b90565b600061009a7f360894a13ba1a3210667c828492db98dca3e2076cc3735a920a3ca505d382bbc546001600160a01b031690565b905090565b3660008037600080366000845af43d6000803e8080156100be573d6000f35b3d6000fd5b60606001600160a01b0384163b6101305760405162461bcd60e51b815260206004820152602660248201527f416464726573733a2064656c65676174652063616c6c20746f206e6f6e2d636f6044820152651b9d1c9858dd60d21b60648201526084015b60405180910390fd5b600080856001600160a01b03168560405161014b91906101de565b600060405180830381855af49150503d8060008114610186576040519150601f19603f3d011682016040523d82523d6000602084013e61018b565b606091505b509150915061019b8282866101a5565b9695505050505050565b606083156101b457508161004e565b8251156101c45782518084602001fd5b8160405162461bcd60e51b815260040161012791906101fa565b600082516101f081846020870161022d565b9190910192915050565b602081526000825180602084015261021981604085016020870161022d565b601f01601f19169190910160400192915050565b60005b83811015610248578181015183820152602001610230565b83811115610257576000848401525b5050505056fe416464726573733a206c6f772d6c6576656c2064656c65676174652063616c6c206661696c6564a2646970667358221220e14c3fee28687df8af621b132b9789cfe2ceb6f7d6de514bb73c2956ffe9d6dd64736f6c63430008040033360894a13ba1a3210667c828492db98dca3e2076cc3735a920a3ca505d382bbc416464726573733a206c6f772d6c6576656c2064656c65676174652063616c6c206661696c65643b5d4cc60d3ec3516ee8ae083bd60934f6eb2a6c54b1229985c41bfb092b2603a264697066735822122097744c4f8b8fde5f9fed533749502cdc109074d7ba3b2e9a76232ace6e9dca4164736f6c6343000804003360a06040523060601b6080523480156200001857600080fd5b50600054610100900460ff16620000365760005460ff161562000040565b62000040620000e5565b620000a85760405162461bcd60e51b815260206004820152602e60248201527f496e697469616c697a61626c653a20636f6e747261637420697320616c72656160448201526d191e481a5b9a5d1a585b1a5e995960921b606482015260840160405180910390fd5b600054610100900460ff16158015620000cb576000805461ffff19166101011790555b8015620000de576000805461ff00191690555b5062000112565b6000620000fd306200010360201b620038931760201c565b15905090565b6001600160a01b03163b151590565b60805160601c615af16200014d60003960008181611bbc01528181611bfc01528181611cd801528181611d180152611ee90152615af16000f3fe60806040526004361061041f5760003560e01c806370a082311161021e578063ae501c0411610123578063dd7af035116100ab578063e9c265181161007a578063e9c2651814610c8d578063ece7205214610caf578063fbf97c5914610ccf578063fdf27dba14610cfd578063ff7808e914610d1457600080fd5b8063dd7af03514610bf8578063e6deb18d14610c0f578063e88e3f9314610c2f578063e985e9c514610c4457600080fd5b8063cc0f1786116100f2578063cc0f178614610b75578063cda493c814610b8c578063d547741f14610ba1578063da3537a814610bc1578063dd13745514610bd657600080fd5b8063ae501c0414610a8f578063b88d4fde14610b20578063c87b56dd14610b40578063ca11016d14610b6057600080fd5b806391d14854116101a6578063a217fddf11610175578063a217fddf14610a02578063a22cb46514610a17578063a7485cf114610a37578063a7c721c514610a57578063abff011014610a6e57600080fd5b806391d14854146109a157806395d89b41146109c15780639f792340146109d6578063a07ae16a146109ed57600080fd5b80638240b777116101ed5780638240b7771461091b5780638456cb59146109305780638802255f146109455780638c8249491461095d5780639088feba1461096557600080fd5b806370a08231146108a057806378d85c4e146108c05780637eee3803146108ed578063816c42f61461090457600080fd5b806342842e0e11610324578063588dae3c116102ac57806369d85d541161027b57806369d85d54146107e35780636c9d3b3a146108105780636e70096e1461083e5780636f2ef95b1461085e5780636fcf1e651461088b57600080fd5b8063588dae3c146107655780635c975abb1461078557806361d027b31461079d5780636352211e146107c357600080fd5b806351f0a93f116102f357806351f0a93f146106f15780635225b69c14610706578063522c21781461071d57806352d1902d14610738578063533573fe1461074d57600080fd5b806342842e0e1461067d57806345e05f431461069d5780634f1ef286146106be5780634f6ccce7146106d157600080fd5b806323b872dd116103a75780632f745c59116103765780632f745c59146105f157806336568abe146106115780633659cfe6146106315780633af8e5eb146106515780633f4ba83a1461066857600080fd5b806323b872dd14610561578063248a9ca3146105815780632a4c03cc146105b15780632f2ff15d146105d157600080fd5b8063095ea7b3116103ee578063095ea7b3146104cf57806318160ddd146104f157806318fc77ae146105105780631d1438481461052357806321846c761461054457600080fd5b806301ffc9a71461042b57806305bc64eb1461046057806306fdde0314610482578063081812fc1461049757600080fd5b3661042657005b600080fd5b34801561043757600080fd5b5061044b6104463660046150eb565b610d2b565b60405190151581526020015b60405180910390f35b34801561046c57600080fd5b50610475610d3c565b60405161045791906154ee565b34801561048e57600080fd5b50610475610dcb565b3480156104a357600080fd5b506104b76104b2366004615099565b610e5d565b6040516001600160a01b039091168152602001610457565b3480156104db57600080fd5b506104ef6104ea366004615054565b610ef7565b005b3480156104fd57600080fd5b506099545b604051908152602001610457565b6104ef61051e366004615054565b61100d565b34801561052f57600080fd5b506101c9546104b7906001600160a01b031681565b61054c61136e565b60408051928352602083019190915201610457565b34801561056d57600080fd5b506104ef61057c366004614f31565b61190e565b34801561058d57600080fd5b5061050261059c366004615099565b600090815260fb602052604090206001015490565b3480156105bd57600080fd5b506104ef6105cc366004614ee5565b61193f565b3480156105dd57600080fd5b506104ef6105ec3660046150c9565b611a77565b3480156105fd57600080fd5b5061050261060c366004615054565b611a9d565b34801561061d57600080fd5b506104ef61062c3660046150c9565b611b33565b34801561063d57600080fd5b506104ef61064c366004614ee5565b611bb1565b34801561065d57600080fd5b506105026101c55481565b34801561067457600080fd5b506104ef611c91565b34801561068957600080fd5b506104ef610698366004614f31565b611cb2565b3480156106a957600080fd5b506101d4546104b7906001600160a01b031681565b6104ef6106cc366004615008565b611ccd565b3480156106dd57600080fd5b506105026106ec366004615099565b611d9a565b3480156106fd57600080fd5b50610502611e3b565b34801561071257600080fd5b506105026101ca5481565b34801561072957600080fd5b506101d05461044b9060ff1681565b34801561074457600080fd5b50610502611edc565b34801561075957600080fd5b506101d8546105029081565b34801561077157600080fd5b50610502610780366004614ee5565b611f8f565b34801561079157600080fd5b5060c95460ff1661044b565b3480156107a957600080fd5b506101d0546104b79061010090046001600160a01b031681565b3480156107cf57600080fd5b506104b76107de366004615099565b6120c4565b3480156107ef57600080fd5b506108036107fe366004614ee5565b61213b565b60405161045791906153db565b34801561081c57600080fd5b5061050261082b366004614ee5565b6101d96020526000908152604090205481565b34801561084a57600080fd5b506104ef610859366004615099565b6121f9565b34801561086a57600080fd5b5061087e610879366004615099565b612647565b60405161045791906157e5565b34801561089757600080fd5b506104ef6126b2565b3480156108ac57600080fd5b506105026108bb366004614ee5565b612812565b3480156108cc57600080fd5b506108e06108db366004615099565b612899565b604051610457919061541f565b3480156108f957600080fd5b506105026101d65481565b34801561091057600080fd5b506105026101cc5481565b34801561092757600080fd5b50610502612a8f565b34801561093c57600080fd5b506104ef612b3e565b34801561095157600080fd5b506101d2546105029081565b6104ef612b5f565b34801561097157600080fd5b5061044b6109803660046151f6565b6101dd60209081526000928352604080842090915290825290205460ff1681565b3480156109ad57600080fd5b5061044b6109bc3660046150c9565b612d9c565b3480156109cd57600080fd5b50610475612dc7565b3480156109e257600080fd5b506105026101dc5481565b3480156109f957600080fd5b506104ef612dd6565b348015610a0e57600080fd5b50610502600081565b348015610a2357600080fd5b506104ef610a32366004614fd2565b612eb4565b348015610a4357600080fd5b50610502610a52366004615099565b612ebf565b348015610a6357600080fd5b506105026101d55481565b348015610a7a57600080fd5b506101d3546104b7906001600160a01b031681565b348015610a9b57600080fd5b50610aea610aaa366004615099565b6101d7602052600090815260409020805460018201546002830154600384015460048501546005909501549394929391926001600160a01b039091169186565b604080519687526020870195909552938501929092526001600160a01b03166060840152608083015260a082015260c001610457565b348015610b2c57600080fd5b506104ef610b3b366004614f6c565b612fb9565b348015610b4c57600080fd5b50610475610b5b366004615099565b612ff1565b348015610b6c57600080fd5b50610803612ffc565b348015610b8157600080fd5b506105026101c65481565b348015610b9857600080fd5b50610475613053565b348015610bad57600080fd5b506104ef610bbc3660046150c9565b613061565b348015610bcd57600080fd5b50610502613087565b348015610be257600080fd5b50610beb6130a0565b60405161045791906154ac565b348015610c0457600080fd5b506105026101cb5481565b348015610c1b57600080fd5b50610502610c2a366004614ee5565b6131bf565b348015610c3b57600080fd5b50610803613269565b348015610c5057600080fd5b5061044b610c5f366004614eff565b6001600160a01b039182166000908152606a6020908152604080832093909416825291909152205460ff1690565b348015610c9957600080fd5b50610502600080516020615a5583398151915281565b348015610cbb57600080fd5b506104ef610cca366004615123565b6132bf565b348015610cdb57600080fd5b50610502610cea366004615099565b6101d16020526000908152604090205481565b348015610d0957600080fd5b506105026101c75481565b348015610d2057600080fd5b506105026101cd5481565b6000610d36826138a2565b92915050565b6101c38054610d4a906159b4565b80601f0160208091040260200160405190810160405280929190818152602001828054610d76906159b4565b8015610dc35780601f10610d9857610100808354040283529160200191610dc3565b820191906000526020600020905b815481529060010190602001808311610da657829003601f168201915b505050505081565b606060658054610dda906159b4565b80601f0160208091040260200160405190810160405280929190818152602001828054610e06906159b4565b8015610e535780601f10610e2857610100808354040283529160200191610e53565b820191906000526020600020905b815481529060010190602001808311610e3657829003601f168201915b5050505050905090565b6000818152606760205260408120546001600160a01b0316610edb5760405162461bcd60e51b815260206004820152602c60248201527f4552433732313a20617070726f76656420717565727920666f72206e6f6e657860448201526b34b9ba32b73a103a37b5b2b760a11b60648201526084015b60405180910390fd5b506000908152606960205260409020546001600160a01b031690565b6000610f02826120c4565b9050806001600160a01b0316836001600160a01b03161415610f705760405162461bcd60e51b815260206004820152602160248201527f4552433732313a20617070726f76616c20746f2063757272656e74206f776e656044820152603960f91b6064820152608401610ed2565b336001600160a01b0382161480610f8c5750610f8c8133610c5f565b610ffe5760405162461bcd60e51b815260206004820152603860248201527f4552433732313a20617070726f76652063616c6c6572206973206e6f74206f7760448201527f6e6572206e6f7220617070726f76656420666f7220616c6c00000000000000006064820152608401610ed2565b61100883836138c7565b505050565b60026101915414156110315760405162461bcd60e51b8152600401610ed2906157ae565b60026101915560c95460ff161561105a5760405162461bcd60e51b8152600401610ed2906155eb565b6101d05460ff161561107e5760405162461bcd60e51b8152600401610ed2906156c3565b60006101cb54116110a15760405162461bcd60e51b8152600401610ed290615615565b34156111295760405162461bcd60e51b815260206004820152604b60248201527f4465706f73697473206f662065726332302063616e6e6f7420616c736f20696e60448201527f636c756465206e617469766520746f6b656e7320696e207468652073616d652060648201526a3a3930b739b0b1ba34b7b760a91b608482015260a401610ed2565b6111356101da83613935565b506001600160a01b03821660009081526101d9602052604090205461115b9082906157f3565b6001600160a01b0383811660008181526101d960209081526040808320959095556101d854855160c08101875281815243818401908152818801858152606080840188815260808086018d81524260a0808901918252898c526101d78b528e8c2089518155975160018901559551600288015592516003870180546001600160a01b03191691909d1617909b55995160048501555160059093019290925588513081529485018490528489019590955283019490945293810186905293519293919233927fce3ede2e266c8c5ec60064c2a65ba25bd2899a334c42b39b742129c49b1ef1c492908290030190a26112576101d880546001019055565b60405163095ea7b360e01b81523060048201526024810184905284906001600160a01b0382169063095ea7b390604401602060405180830381600087803b1580156112a157600080fd5b505af11580156112b5573d6000803e3d6000fd5b505050506040513d601f19601f820116820180604052508101906112d9919061507d565b506040516323b872dd60e01b8152336004820152306024820152604481018590526001600160a01b038216906323b872dd90606401602060405180830381600087803b15801561132857600080fd5b505af115801561133c573d6000803e3d6000fd5b505050506040513d601f19601f82011682018060405250810190611360919061507d565b505060016101915550505050565b60008060026101915414156113955760405162461bcd60e51b8152600401610ed2906157ae565b60026101915560c95460ff16156113be5760405162461bcd60e51b8152600401610ed2906155eb565b6101d05461010090046001600160a01b031633141561141f5760405162461bcd60e51b815260206004820181905260248201527f54726561737572792063616e6e6f74207075726368617365207469636b6574736044820152606401610ed2565b6101d05460ff16151560011461149d5760405162461bcd60e51b815260206004820152603860248201527f5469636b6574732063616e6e6f7420626520707572636861736564206166746560448201527f72207468652066756e6472616973696e6720706572696f6400000000000000006064820152608401610ed2565b60006114a834612ebf565b90506114b2613087565b81106115265760405162461bcd60e51b815260206004820152603d60248201527f4e6f7420656e6f756768207368617265732072656d61696e696e6720746f207060448201527f757263686173652c20747279206120736d616c6c657220616d6f756e740000006064820152608401610ed2565b60006115326101d25490565b90506115436101d280546001019055565b60008181526101d1602052604090208290556115616101ce33613935565b50816101cb5461157191906157f3565b6101cb556101cd546115849034906157f3565b6101cd556101d0546101ca54604080513081526020810185905290810185905260608101919091526101009091046001600160a01b03169033907faec7d08bcb5e515903dbbba83c84bb270bdbdc5ad261ce0709da4d20226d40639060800160405180910390a360006305f5e1006101d65434611601919061593b565b61160b9190615830565b905060006305f5e1006101d6546101d554611626919061595a565b611630903461593b565b61163a9190615830565b9050600082611649833461595a565b611653919061595a565b6101d4546101d0546101d3546101ca54604080516001600160a01b0393841681523060208201528082018b90523460608201526080810187905260a0810189905260c081018a905260e081018c9052610100808201939093529051959650938216949204169133917fec9b5b63774dd77ef3e9b139dcae71f2128bd20e0b2d55e2f405302581d4821a918190036101200190a46101d05460405160009161010090046001600160a01b03169083908381818185875af1925050503d8060008114611739576040519150601f19603f3d011682016040523d82523d6000602084013e61173e565b606091505b505090508061179a5760405162461bcd60e51b815260206004820152602260248201527f547265617375727920636f756c64206e6f742072656365697665207061796d656044820152611b9d60f21b6064820152608401610ed2565b6101d3546040516000916001600160a01b03169085908381818185875af1925050503d80600081146117e8576040519150601f19603f3d011682016040523d82523d6000602084013e6117ed565b606091505b505090508061183e5760405162461bcd60e51b815260206004820181905260248201527f42726f6b657220636f756c64206e6f742072656365697665207061796d656e746044820152606401610ed2565b6101d4546040516000916001600160a01b03169087908381818185875af1925050503d806000811461188c576040519150601f19603f3d011682016040523d82523d6000602084013e611891565b606091505b50509050806118ee5760405162461bcd60e51b815260206004820152602360248201527f416666696c6961746520636f756c64206e6f742072656365697665207061796d604482015262195b9d60ea1b6064820152608401610ed2565b6118f8338861394a565b5094975094955050505050506001610191559091565b6119183382613964565b6119345760405162461bcd60e51b8152600401610ed290615672565b611008838383613a5b565b600080516020615a558339815191526119588133613c02565b600261019154141561197c5760405162461bcd60e51b8152600401610ed2906157ae565b60026101915560c95460ff16156119a55760405162461bcd60e51b8152600401610ed2906155eb565b6101d05460ff16156119c95760405162461bcd60e51b8152600401610ed290615714565b60006119d483611f8f565b9050828115611a6b576101d05460405163a9059cbb60e01b81526101009091046001600160a01b0390811660048301526024820184905282169063a9059cbb90604401602060405180830381600087803b158015611a3157600080fd5b505af1158015611a45573d6000803e3d6000fd5b505050506040513d601f19601f82011682018060405250810190611a69919061507d565b505b50506001610191555050565b600082815260fb6020526040902060010154611a938133613c02565b6110088383613c66565b6000611aa883612812565b8210611b0a5760405162461bcd60e51b815260206004820152602b60248201527f455243373231456e756d657261626c653a206f776e657220696e646578206f7560448201526a74206f6620626f756e647360a81b6064820152608401610ed2565b506001600160a01b03919091166000908152609760209081526040808320938352929052205490565b6001600160a01b0381163314611ba35760405162461bcd60e51b815260206004820152602f60248201527f416363657373436f6e74726f6c3a2063616e206f6e6c792072656e6f756e636560448201526e103937b632b9903337b91039b2b63360891b6064820152608401610ed2565b611bad8282613cec565b5050565b306001600160a01b037f0000000000000000000000000000000000000000000000000000000000000000161415611bfa5760405162461bcd60e51b8152600401610ed290615553565b7f00000000000000000000000000000000000000000000000000000000000000006001600160a01b0316611c43600080516020615a75833981519152546001600160a01b031690565b6001600160a01b031614611c695760405162461bcd60e51b8152600401610ed29061559f565b611c7281613d53565b60408051600080825260208201909252611c8e91839190613d6c565b50565b600080516020615a55833981519152611caa8133613c02565b611c8e613ee6565b61100883838360405180602001604052806000815250612fb9565b306001600160a01b037f0000000000000000000000000000000000000000000000000000000000000000161415611d165760405162461bcd60e51b8152600401610ed290615553565b7f00000000000000000000000000000000000000000000000000000000000000006001600160a01b0316611d5f600080516020615a75833981519152546001600160a01b031690565b6001600160a01b031614611d855760405162461bcd60e51b8152600401610ed29061559f565b611d8e82613d53565b611bad82826001613d6c565b6000611da560995490565b8210611e085760405162461bcd60e51b815260206004820152602c60248201527f455243373231456e756d657261626c653a20676c6f62616c20696e646578206f60448201526b7574206f6620626f756e647360a01b6064820152608401610ed2565b60998281548110611e2957634e487b7160e01b600052603260045260246000fd5b90600052602060002001549050919050565b600080805b6101d854811015611ed65760008181526101d76020908152604091829020825160c0810184528154815260018201549281019290925260028101549282019290925260038201546001600160a01b0316606082018190526004830154608083015260059092015460a082015290611ec3576040810151611ec090846157f3565b92505b5080611ece816159e9565b915050611e40565b50919050565b6000306001600160a01b037f00000000000000000000000000000000000000000000000000000000000000001614611f7c5760405162461bcd60e51b815260206004820152603860248201527f555550535570677261646561626c653a206d757374206e6f742062652063616c60448201527f6c6564207468726f7567682064656c656761746563616c6c00000000000000006064820152608401610ed2565b50600080516020615a7583398151915290565b600080805b6101d8548110156120325760008181526101d76020908152604091829020825160c0810184528154815260018201549281019290925260028101549282019290925260038201546001600160a01b03908116606083018190526004840154608084015260059093015460a08301529091908616141561201f57608081015161201c90846157f3565b92505b508061202a816159e9565b915050611f94565b506040516370a0823160e01b8152306004820152839060009083906001600160a01b038416906370a082319060240160206040518083038186803b15801561207957600080fd5b505afa15801561208d573d6000803e3d6000fd5b505050506040513d601f19601f820116820180604052508101906120b191906150b1565b6120bb919061595a565b95945050505050565b6000818152606760205260408120546001600160a01b031680610d365760405162461bcd60e51b815260206004820152602960248201527f4552433732313a206f776e657220717565727920666f72206e6f6e657869737460448201526832b73a103a37b5b2b760b91b6064820152608401610ed2565b6060600061214883612812565b905060008167ffffffffffffffff81111561217357634e487b7160e01b600052604160045260246000fd5b60405190808252806020026020018201604052801561219c578160200160208202803683370190505b50905060005b828110156121f1576121b48582611a9d565b8282815181106121d457634e487b7160e01b600052603260045260246000fd5b6020908102919091010152806121e9816159e9565b9150506121a2565b509392505050565b600261019154141561221d5760405162461bcd60e51b8152600401610ed2906157ae565b60026101915560c95460ff16156122465760405162461bcd60e51b8152600401610ed2906155eb565b6101d05460ff16156122b75760405162461bcd60e51b815260206004820152603460248201527f5769746864726177616c732063616e6e6f74206265206d61646520647572696e60448201527319c8199d5b991c985a5cda5b99c81c195c9a5bd960621b6064820152608401610ed2565b336122c1826120c4565b6001600160a01b0316146123175760405162461bcd60e51b815260206004820152601a60248201527f596f7520646f206e6f74206f776e2074686973207469636b65740000000000006044820152606401610ed2565b60008181526101d16020526040812054905b6101d85481101561263c5760008181526101d760209081526040808320815160c081018352815481526001808301548286015260028301548285015260038301546001600160a01b031660608301526004830154608083015260059092015460a08201528785526101dd845282852081518652909352922054909160ff9091161515146126295760008481526101dd60209081526040808320845184529091529020805460ff1916600117905560608101516001600160a01b0316156125025760006101cb548483608001516123ff919061593b565b6124099190615830565b8251606084015160405192935033927f981eda60172361092f12c75de05c753d28c928d6fb0b4b6492e685a44265fc0a9261244d9230928b929160009189906153a0565b60405180910390a260608201516001600160a01b0381166323b872dd30612473896120c4565b6040516001600160e01b031960e085901b1681526001600160a01b0392831660048201529116602482015260448101859052606401602060405180830381600087803b1580156124c257600080fd5b505af11580156124d6573d6000803e3d6000fd5b505050506040513d601f19601f820116820180604052508101906124fa919061507d565b505050612629565b60006101cb54848360400151612518919061593b565b6125229190615830565b825160405191925033917f981eda60172361092f12c75de05c753d28c928d6fb0b4b6492e685a44265fc0a916125629130918a91879060009081906153a0565b60405180910390a26000612575866120c4565b6001600160a01b03168260405160006040518083038185875af1925050503d80600081146125bf576040519150601f19603f3d011682016040523d82523d6000602084013e6125c4565b606091505b50509050806126265760405162461bcd60e51b815260206004820152602860248201527f5469636b657420686f6c64657220636f756c64206e6f742072656365697665206044820152676561726e696e677360c01b6064820152608401610ed2565b50505b5080612634816159e9565b915050612329565b505060016101915550565b61264f614d59565b5060009081526101d76020908152604091829020825160c0810184528154815260018201549281019290925260028101549282019290925260038201546001600160a01b031660608201526004820154608082015260059091015460a082015290565b600080516020615a558339815191526126cb8133613c02565b60026101915414156126ef5760405162461bcd60e51b8152600401610ed2906157ae565b60026101915560c95460ff16156127185760405162461bcd60e51b8152600401610ed2906155eb565b6101d05460ff161561273c5760405162461bcd60e51b8152600401610ed290615714565b6000612746612a8f565b90508015612808576101d05460405160009161010090046001600160a01b03169083908381818185875af1925050503d80600081146127a1576040519150601f19603f3d011682016040523d82523d6000602084013e6127a6565b606091505b505090508061263c5760405162461bcd60e51b815260206004820152602860248201527f5472617375727920636f756c64206e6f742072656365697665207472617070656044820152676420746f6b656e7360c01b6064820152608401610ed2565b5050600161019155565b60006001600160a01b03821661287d5760405162461bcd60e51b815260206004820152602a60248201527f4552433732313a2062616c616e636520717565727920666f7220746865207a65604482015269726f206164647265737360b01b6064820152608401610ed2565b506001600160a01b031660009081526068602052604090205490565b60008181526101d160205260409020546060906128b66101d85490565b67ffffffffffffffff8111156128dc57634e487b7160e01b600052604160045260246000fd5b60405190808252806020026020018201604052801561295857816020015b6129456040518060e0016040528060008152602001600081526020016000151581526020016000815260200160006001600160a01b0316815260200160008152602001600081525090565b8152602001906001900390816128fa5790505b50915060005b6101d854811015612a88576101cb5460008281526101d7602052604081206002015490919061298e90859061593b565b6129989190615830565b6101cb5460008481526101d76020526040812060040154929350916129be90869061593b565b6129c89190615830565b6040805160e08101825288815260008681526101d7602081815284832080548286018190528d85526101dd835286852090855282528584205460ff161515958501959095526060840188905260038501546001600160a01b0316608085015260a0840186905291889052905260059091015460c08201528651919250908190879086908110612a6757634e487b7160e01b600052603260045260246000fd5b60200260200101819052505050508080612a80906159e9565b91505061295e565b5050919050565b600080805b6101d854811015612b2a5760008181526101d76020908152604091829020825160c0810184528154815260018201549281019290925260028101549282019290925260038201546001600160a01b0316606082018190526004830154608083015260059092015460a082015290612b17576040810151612b1490846157f3565b92505b5080612b22816159e9565b915050612a94565b506000612b37824761595a565b9392505050565b600080516020615a55833981519152612b578133613c02565b611c8e613f79565b6002610191541415612b835760405162461bcd60e51b8152600401610ed2906157ae565b60026101915560c95460ff1615612bac5760405162461bcd60e51b8152600401610ed2906155eb565b6101d05460ff1615612bd05760405162461bcd60e51b8152600401610ed2906156c3565b60006101cb5411612bf35760405162461bcd60e51b8152600401610ed290615615565b346101dc54612c0291906157f3565b6101dc556000612c126101d85490565b6040805160c081018252828152436020808301918252348385018181526000606080870182815260808089018481524260a0808c019182528d87526101d78a528c87208c5181559a5160018c0155965160028b0155925160038a0180546001600160a01b0319166001600160a01b039092169190911790555160048901559051600590970196909655875130815294850189905296840192909252948201819052918101919091529293509133917fce3ede2e266c8c5ec60064c2a65ba25bd2899a334c42b39b742129c49b1ef1c4910160405180910390a2612cfa6101d880546001019055565b604051600090309034908381818185875af1925050503d8060008114612d3c576040519150601f19603f3d011682016040523d82523d6000602084013e612d41565b606091505b505090508061263c5760405162461bcd60e51b815260206004820152602160248201527f4c6f6f74626f7820636f756c64206e6f742072656365697665207061796d656e6044820152601d60fa1b6064820152608401610ed2565b600091825260fb602090815260408084206001600160a01b0393909316845291905290205460ff1690565b606060668054610dda906159b4565b600080516020615a55833981519152612def8133613c02565b6002610191541415612e135760405162461bcd60e51b8152600401610ed2906157ae565b60026101915560c95460ff1615612e3c5760405162461bcd60e51b8152600401610ed2906155eb565b6101d05460ff161515600114612ea05760405162461bcd60e51b8152602060048201526024808201527f46756e6472616973696e6720706572696f642068617320616c726561647920656044820152631b99195960e21b6064820152608401610ed2565b506101d0805460ff19169055600161019155565b611bad338383613fd1565b6000806000806000806101c860009054906101000a90046001600160a01b03166001600160a01b031663feaf968c6040518163ffffffff1660e01b815260040160a06040518083038186803b158015612f1757600080fd5b505afa158015612f2b573d6000803e3d6000fd5b505050506040513d601f19601f82011682018060405250810190612f4f9190615217565b939850919650945092509050601282612f9f5760405162461bcd60e51b8152602060048201526012602482015271526f756e64206e6f7420636f6d706c65746560701b6044820152606401610ed2565b6000612fac8983886140a0565b9998505050505050505050565b612fc33383613964565b612fdf5760405162461bcd60e51b8152600401610ed290615672565b612feb848484846140de565b50505050565b6060610d3682614111565b6101da80546040805160208084028201810190925282815260609390929091830182828015610e5357602002820191906000526020600020905b815481526020019060010190808311613036575050505050905090565b6101c48054610d4a906159b4565b600082815260fb602052604090206001015461307d8133613c02565b6110088383613cec565b60006101cb546101cc5461309b919061595a565b905090565b60606130ac6101d85490565b67ffffffffffffffff8111156130d257634e487b7160e01b600052604160045260246000fd5b60405190808252806020026020018201604052801561310b57816020015b6130f8614d59565b8152602001906001900390816130f05790505b50905060005b6101d8548110156131bb5760008181526101d76020908152604091829020825160c0810184528154815260018201549281019290925260028101549282019290925260038201546001600160a01b031660608201526004820154608082015260059091015460a0820152825183908390811061319d57634e487b7160e01b600052603260045260246000fd5b602002602001018190525080806131b3906159e9565b915050613111565b5090565b600080805b6101d8548110156132625760008181526101d76020908152604091829020825160c0810184528154815260018201549281019290925260028101549282019290925260038201546001600160a01b03908116606083018190526004840154608084015260059093015460a08301529091908616141561324f57608081015161324c90846157f3565b92505b508061325a816159e9565b9150506131c4565b5092915050565b6101ce80546040805160208084028201810190925282815260609390929091830182828015610e535760200282019190600052602060002090815481526020019060010190808311613036575050505050905090565b600054610100900460ff166132da5760005460ff16156132de565b303b155b6133415760405162461bcd60e51b815260206004820152602e60248201527f496e697469616c697a61626c653a20636f6e747261637420697320616c72656160448201526d191e481a5b9a5d1a585b1a5e995960921b6064820152608401610ed2565b600054610100900460ff16158015613363576000805461ffff19166101011790555b60408051808201909152600780825266125b9cdd185b9d60ca1b6020909201918252613392916101c391614d98565b5060408051808201909152600a808252690c0b8ccb8c0b5c1c9bd960b21b60209092019182526133c5916101c491614d98565b508a518b908b9061340f5760405162461bcd60e51b81526020600482015260146024820152734e616d652063616e6e6f7420626520656d70747960601b6044820152606401610ed2565b80516134565760405162461bcd60e51b815260206004820152601660248201527553796d626f6c2063616e6e6f7420626520656d70747960501b6044820152606401610ed2565b6305f5e10087106134c85760405162461bcd60e51b815260206004820152603660248201527f5075726368617365207469636b657420666565206d757374206265206c657373604482015275207468616e203130303030303030302028313030252960501b6064820152608401610ed2565b8686111561354d5760405162461bcd60e51b815260206004820152604660248201527f416666696c69617465207469636b657420666565206d757374206265206c657360448201527f73207468616e206f7220657175616c20746f207075726368617365207469636b60648201526565742066656560d01b608482015260a401610ed2565b6001600160a01b038a166135af5760405162461bcd60e51b815260206004820152602360248201527f54726561737572792063616e6e6f7420626520746865207a65726f206164647260448201526265737360e81b6064820152608401610ed2565b6001600160a01b03891661360f5760405162461bcd60e51b815260206004820152602160248201527f4973737565722063616e6e6f7420626520746865207a65726f206164647265736044820152607360f81b6064820152608401610ed2565b6001600160a01b0388166136715760405162461bcd60e51b815260206004820152602360248201527f4e617469766520746f6b656e20707269636520666565642069732072657175696044820152621c995960ea1b6064820152608401610ed2565b60008b116136d35760405162461bcd60e51b815260206004820152602960248201527f4d61782073686172657320736f6c64206d7573742062652067726561746572206044820152687468616e207a65726f60b81b6064820152608401610ed2565b6001600160a01b0385166137335760405162461bcd60e51b815260206004820152602160248201527f42726f6b65722063616e6e6f7420626520746865207a65726f206164647265736044820152607360f81b6064820152608401610ed2565b6001600160a01b0384166137955760405162461bcd60e51b8152602060048201526024808201527f416666696c696174652063616e6e6f7420626520746865207a65726f206164646044820152637265737360e01b6064820152608401610ed2565b61379f8d8d614256565b6137a7614287565b6137af6142b0565b6137b7614287565b6137bf614287565b426101c75560126101c55560086101c65560006101cd55624c4b406101ca556101cc8b90556101c980546001600160a01b03199081166001600160a01b038c8116919091179092556101c8805482168b84161790556101d080546001600160a81b0319166101008e8516021760011790556101d58990556101d68890556101d3805482168884161790556101d48054909116918616919091179055613872600080516020615a558339815191528a613c66565b50508015613886576000805461ff00191690555b5050505050505050505050565b6001600160a01b03163b151590565b60006001600160e01b03198216637965db0b60e01b1480610d365750610d36826142df565b600081815260696020526040902080546001600160a01b0319166001600160a01b03841690811790915581906138fc826120c4565b6001600160a01b03167f8c5be1e5ebec7d5bd14f71427d1e84f3dd0314c0f7b2291e5b200ac8c7c3b92560405160405180910390a45050565b6000612b37836001600160a01b038416614304565b611bad828260405180602001604052806000815250614353565b6000818152606760205260408120546001600160a01b03166139dd5760405162461bcd60e51b815260206004820152602c60248201527f4552433732313a206f70657261746f7220717565727920666f72206e6f6e657860448201526b34b9ba32b73a103a37b5b2b760a11b6064820152608401610ed2565b60006139e8836120c4565b9050806001600160a01b0316846001600160a01b03161480613a235750836001600160a01b0316613a1884610e5d565b6001600160a01b0316145b80613a5357506001600160a01b038082166000908152606a602090815260408083209388168352929052205460ff165b949350505050565b826001600160a01b0316613a6e826120c4565b6001600160a01b031614613ad25760405162461bcd60e51b815260206004820152602560248201527f4552433732313a207472616e736665722066726f6d20696e636f72726563742060448201526437bbb732b960d91b6064820152608401610ed2565b6001600160a01b038216613b345760405162461bcd60e51b8152602060048201526024808201527f4552433732313a207472616e7366657220746f20746865207a65726f206164646044820152637265737360e01b6064820152608401610ed2565b613b3f838383614386565b613b4a6000826138c7565b6001600160a01b0383166000908152606860205260408120805460019290613b7390849061595a565b90915550506001600160a01b0382166000908152606860205260408120805460019290613ba19084906157f3565b909155505060008181526067602052604080822080546001600160a01b0319166001600160a01b0386811691821790925591518493918716917fddf252ad1be2c89b69c2b068fc378daa952ba7f163c4a11628f55a4df523b3ef91a4505050565b613c0c8282612d9c565b611bad57613c24816001600160a01b031660146143b4565b613c2f8360206143b4565b604051602001613c409291906152ee565b60408051601f198184030181529082905262461bcd60e51b8252610ed2916004016154ee565b613c708282612d9c565b611bad57600082815260fb602090815260408083206001600160a01b03851684529091529020805460ff19166001179055613ca83390565b6001600160a01b0316816001600160a01b0316837f2f8788117e7eff1d82e926ec794901d17c78024a50270940304540a733656f0d60405160405180910390a45050565b613cf68282612d9c565b15611bad57600082815260fb602090815260408083206001600160a01b0385168085529252808320805460ff1916905551339285917ff6391f5c32d9c69d2a47ea670b442974b53935d1edc7fd64eb21e047a839171b9190a45050565b600080516020615a55833981519152611bad8133613c02565b7f4910fdfa16fed3260ed0e7147f7cc6da11a60208b5b9406d12a635614ffd91435460ff1615613d9f5761100883614596565b826001600160a01b03166352d1902d6040518163ffffffff1660e01b815260040160206040518083038186803b158015613dd857600080fd5b505afa925050508015613e08575060408051601f3d908101601f19168201909252613e05918101906150b1565b60015b613e6b5760405162461bcd60e51b815260206004820152602e60248201527f45524331393637557067726164653a206e657720696d706c656d656e7461746960448201526d6f6e206973206e6f74205555505360901b6064820152608401610ed2565b600080516020615a758339815191528114613eda5760405162461bcd60e51b815260206004820152602960248201527f45524331393637557067726164653a20756e737570706f727465642070726f786044820152681a58589b195555525160ba1b6064820152608401610ed2565b50611008838383614632565b60c95460ff16613f2f5760405162461bcd60e51b815260206004820152601460248201527314185d5cd8589b194e881b9bdd081c185d5cd95960621b6044820152606401610ed2565b60c9805460ff191690557f5db9ee0a495bf2e6ff9c91a7834c1ba4fdd244a5e8aa4e537bd38aeae4b073aa335b6040516001600160a01b03909116815260200160405180910390a1565b60c95460ff1615613f9c5760405162461bcd60e51b8152600401610ed2906155eb565b60c9805460ff191660011790557f62e78cea01bee320cd4e420270b5ea74000d11b0c9f74754ebdbfc544b05a258613f5c3390565b816001600160a01b0316836001600160a01b031614156140335760405162461bcd60e51b815260206004820152601960248201527f4552433732313a20617070726f766520746f2063616c6c6572000000000000006044820152606401610ed2565b6001600160a01b038381166000818152606a6020908152604080832094871680845294825291829020805460ff191686151590811790915591519182527f17307eab39ab6107e8899845ad3d59bd9653f200f220920489ca2b5937696c31910160405180910390a3505050565b60006101ca54836101c5546140b5919061595a565b6140c090600a615893565b6140ca848761593b565b6140d4919061593b565b613a539190615830565b6140e9848484613a5b565b6140f584848484614657565b612feb5760405162461bcd60e51b8152600401610ed290615501565b6060816141355750506040805180820190915260018152600360fc1b602082015290565b8160005b811561415f5780614149816159e9565b91506141589050600a83615830565b9150614139565b60008167ffffffffffffffff81111561418857634e487b7160e01b600052604160045260246000fd5b6040519080825280601f01601f1916602001820160405280156141b2576020820181803683370190505b509050815b851561424d576141c860018261595a565b905060006141d7600a88615830565b6141e290600a61593b565b6141ec908861595a565b6141f790603061580b565b905060008160f81b90508084848151811061422257634e487b7160e01b600052603260045260246000fd5b60200101906001600160f81b031916908160001a905350614244600a89615830565b975050506141b7565b50949350505050565b600054610100900460ff1661427d5760405162461bcd60e51b8152600401610ed290615763565b611bad8282614764565b600054610100900460ff166142ae5760405162461bcd60e51b8152600401610ed290615763565b565b600054610100900460ff166142d75760405162461bcd60e51b8152600401610ed290615763565b6142ae6147b2565b60006001600160e01b0319821663780e9d6360e01b1480610d365750610d36826147e5565b600081815260018301602052604081205461434b57508154600181810184556000848152602080822090930184905584548482528286019093526040902091909155610d36565b506000610d36565b61435d8383614835565b61436a6000848484614657565b6110085760405162461bcd60e51b8152600401610ed290615501565b60c95460ff16156143a95760405162461bcd60e51b8152600401610ed2906155eb565b611008838383614983565b606060006143c383600261593b565b6143ce9060026157f3565b67ffffffffffffffff8111156143f457634e487b7160e01b600052604160045260246000fd5b6040519080825280601f01601f19166020018201604052801561441e576020820181803683370190505b509050600360fc1b8160008151811061444757634e487b7160e01b600052603260045260246000fd5b60200101906001600160f81b031916908160001a905350600f60fb1b8160018151811061448457634e487b7160e01b600052603260045260246000fd5b60200101906001600160f81b031916908160001a90535060006144a884600261593b565b6144b39060016157f3565b90505b6001811115614547576f181899199a1a9b1b9c1cb0b131b232b360811b85600f16601081106144f557634e487b7160e01b600052603260045260246000fd5b1a60f81b82828151811061451957634e487b7160e01b600052603260045260246000fd5b60200101906001600160f81b031916908160001a90535060049490941c936145408161599d565b90506144b6565b508315612b375760405162461bcd60e51b815260206004820181905260248201527f537472696e67733a20686578206c656e67746820696e73756666696369656e746044820152606401610ed2565b6001600160a01b0381163b6146035760405162461bcd60e51b815260206004820152602d60248201527f455243313936373a206e657720696d706c656d656e746174696f6e206973206e60448201526c1bdd08184818dbdb9d1c9858dd609a1b6064820152608401610ed2565b600080516020615a7583398151915280546001600160a01b0319166001600160a01b0392909216919091179055565b61463b83614a3b565b6000825111806146485750805b1561100857612feb8383614a7b565b60006001600160a01b0384163b1561475957604051630a85bd0160e11b81526001600160a01b0385169063150b7a029061469b903390899088908890600401615363565b602060405180830381600087803b1580156146b557600080fd5b505af19250505080156146e5575060408051601f3d908101601f191682019092526146e291810190615107565b60015b61473f573d808015614713576040519150601f19603f3d011682016040523d82523d6000602084013e614718565b606091505b5080516147375760405162461bcd60e51b8152600401610ed290615501565b805181602001fd5b6001600160e01b031916630a85bd0160e11b149050613a53565b506001949350505050565b600054610100900460ff1661478b5760405162461bcd60e51b8152600401610ed290615763565b815161479e906065906020850190614d98565b508051611008906066906020840190614d98565b600054610100900460ff166147d95760405162461bcd60e51b8152600401610ed290615763565b60c9805460ff19169055565b60006001600160e01b031982166380ac58cd60e01b148061481657506001600160e01b03198216635b5e139f60e01b145b80610d3657506301ffc9a760e01b6001600160e01b0319831614610d36565b6001600160a01b03821661488b5760405162461bcd60e51b815260206004820181905260248201527f4552433732313a206d696e7420746f20746865207a65726f20616464726573736044820152606401610ed2565b6000818152606760205260409020546001600160a01b0316156148f05760405162461bcd60e51b815260206004820152601c60248201527f4552433732313a20746f6b656e20616c7265616479206d696e746564000000006044820152606401610ed2565b6148fc60008383614386565b6001600160a01b03821660009081526068602052604081208054600192906149259084906157f3565b909155505060008181526067602052604080822080546001600160a01b0319166001600160a01b03861690811790915590518392907fddf252ad1be2c89b69c2b068fc378daa952ba7f163c4a11628f55a4df523b3ef908290a45050565b6001600160a01b0383166149de576149d981609980546000838152609a60205260408120829055600182018355919091527f72a152ddfb8e864297c917af52ea6c1c68aead0fee1a62673fcc7e0c94979d000155565b614a01565b816001600160a01b0316836001600160a01b031614614a0157614a018382614b66565b6001600160a01b038216614a185761100881614c03565b826001600160a01b0316826001600160a01b031614611008576110088282614cdc565b614a4481614596565b6040516001600160a01b038216907fbc7cd75a20ee27fd9adebab32041f755214dbc6bffa90cc0225b39da2e5c2d3b90600090a250565b60606001600160a01b0383163b614ae35760405162461bcd60e51b815260206004820152602660248201527f416464726573733a2064656c65676174652063616c6c20746f206e6f6e2d636f6044820152651b9d1c9858dd60d21b6064820152608401610ed2565b600080846001600160a01b031684604051614afe91906152d2565b600060405180830381855af49150503d8060008114614b39576040519150601f19603f3d011682016040523d82523d6000602084013e614b3e565b606091505b50915091506120bb8282604051806060016040528060278152602001615a9560279139614d20565b60006001614b7384612812565b614b7d919061595a565b600083815260986020526040902054909150808214614bd0576001600160a01b03841660009081526097602090815260408083208584528252808320548484528184208190558352609890915290208190555b5060009182526098602090815260408084208490556001600160a01b039094168352609781528383209183525290812055565b609954600090614c159060019061595a565b6000838152609a602052604081205460998054939450909284908110614c4b57634e487b7160e01b600052603260045260246000fd5b906000526020600020015490508060998381548110614c7a57634e487b7160e01b600052603260045260246000fd5b6000918252602080832090910192909255828152609a90915260408082208490558582528120556099805480614cc057634e487b7160e01b600052603160045260246000fd5b6001900381819060005260206000200160009055905550505050565b6000614ce783612812565b6001600160a01b039093166000908152609760209081526040808320868452825280832085905593825260989052919091209190915550565b60608315614d2f575081612b37565b825115614d3f5782518084602001fd5b8160405162461bcd60e51b8152600401610ed291906154ee565b6040518060c0016040528060008152602001600081526020016000815260200160006001600160a01b0316815260200160008152602001600081525090565b828054614da4906159b4565b90600052602060002090601f016020900481019282614dc65760008555614e0c565b82601f10614ddf57805160ff1916838001178555614e0c565b82800160010185558215614e0c579182015b82811115614e0c578251825591602001919060010190614df1565b506131bb9291505b808211156131bb5760008155600101614e14565b80356001600160a01b0381168114614e3f57600080fd5b919050565b600082601f830112614e54578081fd5b813567ffffffffffffffff80821115614e6f57614e6f615a1a565b604051601f8301601f19908116603f01168101908282118183101715614e9757614e97615a1a565b81604052838152866020858801011115614eaf578485fd5b8360208701602083013792830160200193909352509392505050565b805169ffffffffffffffffffff81168114614e3f57600080fd5b600060208284031215614ef6578081fd5b612b3782614e28565b60008060408385031215614f11578081fd5b614f1a83614e28565b9150614f2860208401614e28565b90509250929050565b600080600060608486031215614f45578081fd5b614f4e84614e28565b9250614f5c60208501614e28565b9150604084013590509250925092565b60008060008060808587031215614f81578081fd5b614f8a85614e28565b9350614f9860208601614e28565b925060408501359150606085013567ffffffffffffffff811115614fba578182fd5b614fc687828801614e44565b91505092959194509250565b60008060408385031215614fe4578182fd5b614fed83614e28565b91506020830135614ffd81615a30565b809150509250929050565b6000806040838503121561501a578182fd5b61502383614e28565b9150602083013567ffffffffffffffff81111561503e578182fd5b61504a85828601614e44565b9150509250929050565b60008060408385031215615066578182fd5b61506f83614e28565b946020939093013593505050565b60006020828403121561508e578081fd5b8151612b3781615a30565b6000602082840312156150aa578081fd5b5035919050565b6000602082840312156150c2578081fd5b5051919050565b600080604083850312156150db578081fd5b82359150614f2860208401614e28565b6000602082840312156150fc578081fd5b8135612b3781615a3e565b600060208284031215615118578081fd5b8151612b3781615a3e565b6000806000806000806000806000806101408b8d031215615142578788fd5b8a3567ffffffffffffffff8082111561515957898afd5b6151658e838f01614e44565b9b5060208d013591508082111561517a57898afd5b506151878d828e01614e44565b99505060408b0135975061519d60608c01614e28565b96506151ab60808c01614e28565b95506151b960a08c01614e28565b945060c08b0135935060e08b013592506151d66101008c01614e28565b91506151e56101208c01614e28565b90509295989b9194979a5092959850565b60008060408385031215615208578182fd5b50508035926020909101359150565b600080600080600060a0868803121561522e578283fd5b61523786614ecb565b945060208601519350604086015192506060860151915061525a60808701614ecb565b90509295509295909350565b6000815180845261527e816020860160208601615971565b601f01601f19169290920160200192915050565b8051825260208082015190830152604080820151908301526060808201516001600160a01b0316908301526080808201519083015260a090810151910152565b600082516152e4818460208701615971565b9190910192915050565b7f416363657373436f6e74726f6c3a206163636f756e7420000000000000000000815260008351615326816017850160208801615971565b7001034b99036b4b9b9b4b733903937b6329607d1b6017918401918201528351615357816028840160208801615971565b01602801949350505050565b6001600160a01b038581168252841660208201526040810183905260806060820181905260009061539690830184615266565b9695505050505050565b6001600160a01b039687168152602081019590955260408501939093526060840191909152909216608082015260a081019190915260c00190565b6020808252825182820181905260009190848201906040850190845b81811015615413578351835292840192918401916001016153f7565b50909695505050505050565b602080825282518282018190526000919060409081850190868401855b8281101561549f57815180518552868101518786015285810151151586860152606080820151908601526080808201516001600160a01b03169086015260a0808201519086015260c0908101519085015260e0909301929085019060010161543c565b5091979650505050505050565b6020808252825182820181905260009190848201906040850190845b81811015615413576154db838551615292565b9284019260c092909201916001016154c8565b602081526000612b376020830184615266565b60208082526032908201527f4552433732313a207472616e7366657220746f206e6f6e20455243373231526560408201527131b2b4bb32b91034b6b83632b6b2b73a32b960711b606082015260800190565b6020808252602c908201527f46756e6374696f6e206d7573742062652063616c6c6564207468726f7567682060408201526b19195b1959d85d1958d85b1b60a21b606082015260800190565b6020808252602c908201527f46756e6374696f6e206d7573742062652063616c6c6564207468726f7567682060408201526b6163746976652070726f787960a01b606082015260800190565b60208082526010908201526f14185d5cd8589b194e881c185d5cd95960821b604082015260600190565b60208082526037908201527f4e6f207368617265732068617665206265656e20736f6c642e204465706f736960408201527f74732077696c6c206e6f74206265206163636570746564000000000000000000606082015260800190565b60208082526031908201527f4552433732313a207472616e736665722063616c6c6572206973206e6f74206f6040820152701ddb995c881b9bdc88185c1c1c9bdd9959607a1b606082015260800190565b60208082526031908201527f4465706f736974732063616e6e6f74206265206d61646520647572696e6720666040820152701d5b991c985a5cda5b99c81c195c9a5bd9607a1b606082015260800190565b6020808252602f908201527f5265736375652063616e6e6f74206265206d61646520647572696e672066756e60408201526e191c985a5cda5b99c81c195c9a5bd9608a1b606082015260800190565b6020808252602b908201527f496e697469616c697a61626c653a20636f6e7472616374206973206e6f74206960408201526a6e697469616c697a696e6760a81b606082015260800190565b6020808252601f908201527f5265656e7472616e637947756172643a207265656e7472616e742063616c6c00604082015260600190565b60c08101610d368284615292565b6000821982111561580657615806615a04565b500190565b600060ff821660ff84168060ff0382111561582857615828615a04565b019392505050565b60008261584b57634e487b7160e01b81526012600452602481fd5b500490565b600181815b8085111561588b57816000190482111561587157615871615a04565b8085161561587e57918102915b93841c9390800290615855565b509250929050565b6000612b3783836000826158a957506001610d36565b816158b657506000610d36565b81600181146158cc57600281146158d6576158f2565b6001915050610d36565b60ff8411156158e7576158e7615a04565b50506001821b610d36565b5060208310610133831016604e8410600b8410161715615915575081810a610d36565b61591f8383615850565b806000190482111561593357615933615a04565b029392505050565b600081600019048311821515161561595557615955615a04565b500290565b60008282101561596c5761596c615a04565b500390565b60005b8381101561598c578181015183820152602001615974565b83811115612feb5750506000910152565b6000816159ac576159ac615a04565b506000190190565b600181811c908216806159c857607f821691505b60208210811415611ed657634e487b7160e01b600052602260045260246000fd5b60006000198214156159fd576159fd615a04565b5060010190565b634e487b7160e01b600052601160045260246000fd5b634e487b7160e01b600052604160045260246000fd5b8015158114611c8e57600080fd5b6001600160e01b031981168114611c8e57600080fdfe3b5d4cc60d3ec3516ee8ae083bd60934f6eb2a6c54b1229985c41bfb092b2603360894a13ba1a3210667c828492db98dca3e2076cc3735a920a3ca505d382bbc416464726573733a206c6f772d6c6576656c2064656c65676174652063616c6c206661696c6564a26469706673582212209cf7cafb77fa00f4a96755c4a614b3f9e84355852003653529d0bb99c3d74bae64736f6c63430008040033",
  "linkReferences": {},
  "deployedLinkReferences": {}
}