{
  "_format": "hh-sol-artifact-1",
  "contractName": "LootboxEscrowFactory",
  "sourceName": "contracts/LootboxEscrowFactory.sol",
  "abi": [
    {
      "inputs": [
        {
          "internalType": "address",
          "name": "_lootboxDao",
          "type": "address"
        },
        {
          "internalType": "address",
          "name": "_nativeTokenPriceFeed",
          "type": "address"
        },
        {
          "internalType": "uint256",
          "name": "_ticketPurchaseFee",
          "type": "uint256"
        },
        {
          "internalType": "address",
          "name": "_brokerAddress",
          "type": "address"
        }
      ],
      "stateMutability": "nonpayable",
      "type": "constructor"
    },
    {
      "anonymous": false,
      "inputs": [
        {
          "indexed": true,
          "internalType": "address",
          "name": "lootbox",
          "type": "address"
        },
        {
          "indexed": true,
          "internalType": "address",
          "name": "affiliate",
          "type": "address"
        },
        {
          "indexed": false,
          "internalType": "uint256",
          "name": "affiliateFee",
          "type": "uint256"
        },
        {
          "indexed": false,
          "internalType": "uint256",
          "name": "ticketPurchaseFee",
          "type": "uint256"
        },
        {
          "indexed": false,
          "internalType": "address",
          "name": "lootboxIssuer",
          "type": "address"
        },
        {
          "indexed": false,
          "internalType": "address",
          "name": "lootboxTreasury",
          "type": "address"
        }
      ],
      "name": "AffiliateReceipt",
      "type": "event"
    },
    {
      "anonymous": false,
      "inputs": [
        {
          "indexed": true,
          "internalType": "address",
          "name": "affiliate",
          "type": "address"
        },
        {
          "indexed": true,
          "internalType": "address",
          "name": "whitelistedBy",
          "type": "address"
        },
        {
          "indexed": false,
          "internalType": "uint256",
          "name": "ticketAffiliateFee",
          "type": "uint256"
        },
        {
          "indexed": false,
          "internalType": "uint256",
          "name": "timestamp",
          "type": "uint256"
        }
      ],
      "name": "AffiliateWhitelisted",
      "type": "event"
    },
    {
      "anonymous": false,
      "inputs": [
        {
          "indexed": false,
          "internalType": "string",
          "name": "lootboxName",
          "type": "string"
        },
        {
          "indexed": true,
          "internalType": "address",
          "name": "lootbox",
          "type": "address"
        },
        {
          "indexed": true,
          "internalType": "address",
          "name": "issuer",
          "type": "address"
        },
        {
          "indexed": true,
          "internalType": "address",
          "name": "treasury",
          "type": "address"
        },
        {
          "indexed": false,
          "internalType": "uint256",
          "name": "targetSharesSold",
          "type": "uint256"
        },
        {
          "indexed": false,
          "internalType": "uint256",
          "name": "maxSharesSold",
          "type": "uint256"
        },
        {
          "indexed": false,
          "internalType": "uint256",
          "name": "sharePriceUSD",
          "type": "uint256"
        },
        {
          "indexed": false,
          "internalType": "string",
          "name": "_data",
          "type": "string"
        }
      ],
      "name": "LootboxCreated",
      "type": "event"
    },
    {
      "anonymous": false,
      "inputs": [
        {
          "indexed": false,
          "internalType": "address",
          "name": "account",
          "type": "address"
        }
      ],
      "name": "Paused",
      "type": "event"
    },
    {
      "anonymous": false,
      "inputs": [
        {
          "indexed": true,
          "internalType": "bytes32",
          "name": "role",
          "type": "bytes32"
        },
        {
          "indexed": true,
          "internalType": "bytes32",
          "name": "previousAdminRole",
          "type": "bytes32"
        },
        {
          "indexed": true,
          "internalType": "bytes32",
          "name": "newAdminRole",
          "type": "bytes32"
        }
      ],
      "name": "RoleAdminChanged",
      "type": "event"
    },
    {
      "anonymous": false,
      "inputs": [
        {
          "indexed": true,
          "internalType": "bytes32",
          "name": "role",
          "type": "bytes32"
        },
        {
          "indexed": true,
          "internalType": "address",
          "name": "account",
          "type": "address"
        },
        {
          "indexed": true,
          "internalType": "address",
          "name": "sender",
          "type": "address"
        }
      ],
      "name": "RoleGranted",
      "type": "event"
    },
    {
      "anonymous": false,
      "inputs": [
        {
          "indexed": true,
          "internalType": "bytes32",
          "name": "role",
          "type": "bytes32"
        },
        {
          "indexed": true,
          "internalType": "address",
          "name": "account",
          "type": "address"
        },
        {
          "indexed": true,
          "internalType": "address",
          "name": "sender",
          "type": "address"
        }
      ],
      "name": "RoleRevoked",
      "type": "event"
    },
    {
      "anonymous": false,
      "inputs": [
        {
          "indexed": false,
          "internalType": "address",
          "name": "account",
          "type": "address"
        }
      ],
      "name": "Unpaused",
      "type": "event"
    },
    {
      "inputs": [],
      "name": "DAO_ROLE",
      "outputs": [
        {
          "internalType": "bytes32",
          "name": "",
          "type": "bytes32"
        }
      ],
      "stateMutability": "view",
      "type": "function"
    },
    {
      "inputs": [],
      "name": "DEFAULT_ADMIN_ROLE",
      "outputs": [
        {
          "internalType": "bytes32",
          "name": "",
          "type": "bytes32"
        }
      ],
      "stateMutability": "view",
      "type": "function"
    },
    {
      "inputs": [
        {
          "internalType": "address",
          "name": "affiliate",
          "type": "address"
        },
        {
          "internalType": "uint256",
          "name": "ticketAffiliateFee",
          "type": "uint256"
        }
      ],
      "name": "addAffiliate",
      "outputs": [],
      "stateMutability": "nonpayable",
      "type": "function"
    },
    {
      "inputs": [],
      "name": "brokerAddress",
      "outputs": [
        {
          "internalType": "address",
          "name": "",
          "type": "address"
        }
      ],
      "stateMutability": "view",
      "type": "function"
    },
    {
      "inputs": [
        {
          "internalType": "address",
          "name": "lootbox",
          "type": "address"
        }
      ],
      "name": "checkLootboxAffiliate",
      "outputs": [
        {
          "internalType": "address",
          "name": "",
          "type": "address"
        }
      ],
      "stateMutability": "view",
      "type": "function"
    },
    {
      "inputs": [
        {
          "internalType": "string",
          "name": "_lootboxName",
          "type": "string"
        },
        {
          "internalType": "string",
          "name": "_lootboxSymbol",
          "type": "string"
        },
        {
          "internalType": "uint256",
          "name": "_targetSharesSold",
          "type": "uint256"
        },
        {
          "internalType": "uint256",
          "name": "_maxSharesSold",
          "type": "uint256"
        },
        {
          "internalType": "address",
          "name": "_treasury",
          "type": "address"
        },
        {
          "internalType": "address",
          "name": "_affiliate",
          "type": "address"
        },
        {
          "internalType": "string",
          "name": "_data",
          "type": "string"
        }
      ],
      "name": "createLootbox",
      "outputs": [
        {
          "internalType": "address",
          "name": "_lootbox",
          "type": "address"
        }
      ],
      "stateMutability": "nonpayable",
      "type": "function"
    },
    {
      "inputs": [
        {
          "internalType": "bytes32",
          "name": "role",
          "type": "bytes32"
        }
      ],
      "name": "getRoleAdmin",
      "outputs": [
        {
          "internalType": "bytes32",
          "name": "",
          "type": "bytes32"
        }
      ],
      "stateMutability": "view",
      "type": "function"
    },
    {
      "inputs": [
        {
          "internalType": "bytes32",
          "name": "role",
          "type": "bytes32"
        },
        {
          "internalType": "address",
          "name": "account",
          "type": "address"
        }
      ],
      "name": "grantRole",
      "outputs": [],
      "stateMutability": "nonpayable",
      "type": "function"
    },
    {
      "inputs": [
        {
          "internalType": "bytes32",
          "name": "role",
          "type": "bytes32"
        },
        {
          "internalType": "address",
          "name": "account",
          "type": "address"
        }
      ],
      "name": "hasRole",
      "outputs": [
        {
          "internalType": "bool",
          "name": "",
          "type": "bool"
        }
      ],
      "stateMutability": "view",
      "type": "function"
    },
    {
      "inputs": [],
      "name": "listAffiliates",
      "outputs": [
        {
          "internalType": "bytes32[]",
          "name": "_affiliates",
          "type": "bytes32[]"
        }
      ],
      "stateMutability": "view",
      "type": "function"
    },
    {
      "inputs": [],
      "name": "lootboxImplementation",
      "outputs": [
        {
          "internalType": "address",
          "name": "",
          "type": "address"
        }
      ],
      "stateMutability": "view",
      "type": "function"
    },
    {
      "inputs": [],
      "name": "nativeTokenPriceFeed",
      "outputs": [
        {
          "internalType": "address",
          "name": "",
          "type": "address"
        }
      ],
      "stateMutability": "view",
      "type": "function"
    },
    {
      "inputs": [],
      "name": "pause",
      "outputs": [],
      "stateMutability": "nonpayable",
      "type": "function"
    },
    {
      "inputs": [],
      "name": "paused",
      "outputs": [
        {
          "internalType": "bool",
          "name": "",
          "type": "bool"
        }
      ],
      "stateMutability": "view",
      "type": "function"
    },
    {
      "inputs": [
        {
          "internalType": "bytes32",
          "name": "role",
          "type": "bytes32"
        },
        {
          "internalType": "address",
          "name": "account",
          "type": "address"
        }
      ],
      "name": "renounceRole",
      "outputs": [],
      "stateMutability": "nonpayable",
      "type": "function"
    },
    {
      "inputs": [
        {
          "internalType": "bytes32",
          "name": "role",
          "type": "bytes32"
        },
        {
          "internalType": "address",
          "name": "account",
          "type": "address"
        }
      ],
      "name": "revokeRole",
      "outputs": [],
      "stateMutability": "nonpayable",
      "type": "function"
    },
    {
      "inputs": [],
      "name": "sharePriceUSD",
      "outputs": [
        {
          "internalType": "uint256",
          "name": "",
          "type": "uint256"
        }
      ],
      "stateMutability": "view",
      "type": "function"
    },
    {
      "inputs": [
        {
          "internalType": "bytes4",
          "name": "interfaceId",
          "type": "bytes4"
        }
      ],
      "name": "supportsInterface",
      "outputs": [
        {
          "internalType": "bool",
          "name": "",
          "type": "bool"
        }
      ],
      "stateMutability": "view",
      "type": "function"
    },
    {
      "inputs": [],
      "name": "ticketPurchaseFee",
      "outputs": [
        {
          "internalType": "uint256",
          "name": "",
          "type": "uint256"
        }
      ],
      "stateMutability": "view",
      "type": "function"
    },
    {
      "inputs": [],
      "name": "unpause",
      "outputs": [],
      "stateMutability": "nonpayable",
      "type": "function"
    },
    {
      "inputs": [],
      "name": "viewLootboxes",
      "outputs": [
        {
          "internalType": "bytes32[]",
          "name": "",
          "type": "bytes32[]"
        }
      ],
      "stateMutability": "view",
      "type": "function"
    }
  ],
  "bytecode": "0x6101006040523480156200001257600080fd5b5060405162007e6038038062007e6083398101604081905262000035916200032f565b6000805460ff191690556001600160a01b038416620000a65760405162461bcd60e51b815260206004820152602260248201527f44414f204c6f6f74626f7820616464726573732063616e6e6f74206265207a65604482015261726f60f01b60648201526084015b60405180910390fd5b6001600160a01b038116620000fe5760405162461bcd60e51b815260206004820152601d60248201527f42726f6b657220616464726573732063616e6e6f74206265207a65726f00000060448201526064016200009d565b6001600160a01b0383166200016a5760405162461bcd60e51b815260206004820152602b60248201527f6e6174697665546f6b656e50726963654665656420616464726573732063616e60448201526a6e6f74206265207a65726f60a81b60648201526084016200009d565b6305f5e1008210620001e55760405162461bcd60e51b815260206004820152603660248201527f5075726368617365207469636b657420666565206d757374206265206c65737360448201527f207468616e20313030303030303030202831303025290000000000000000000060648201526084016200009d565b604051620001f39062000304565b604051809103906000f08015801562000210573d6000803e3d6000fd5b5060601b6001600160601b0319166080526200024d7f3b5d4cc60d3ec3516ee8ae083bd60934f6eb2a6c54b1229985c41bfb092b2603856200027b565b624c4b406002556001600160601b0319606093841b811660a05260c09290925290911b1660e0525062000382565b60008281526001602090815260408083206001600160a01b038516845290915290205460ff16620003005760008281526001602081815260408084206001600160a01b0386168086529252808420805460ff19169093179092559051339285917f2f8788117e7eff1d82e926ec794901d17c78024a50270940304540a733656f0d9190a45b5050565b615c2c806200223483390190565b80516001600160a01b03811681146200032a57600080fd5b919050565b6000806000806080858703121562000345578384fd5b620003508562000312565b9350620003606020860162000312565b925060408501519150620003776060860162000312565b905092959194509250565b60805160601c60a05160601c60c05160e05160601c611e45620003ef6000396000818161026901526108550152600081816102ff0152818161080e015281816109a60152610a5d01526000818161033e01526107ed0152600081816101a101526107be0152611e456000f3fe60806040523480156200001157600080fd5b5060043610620001515760003560e01c8063565bae8d11620000c7578063a217fddf1162000086578063a217fddf14620002f0578063a7c721c514620002f9578063d547741f1462000321578063d7c28bb21462000338578063e9c265181462000360578063fd9e62a9146200037757600080fd5b8063565bae8d14620002955780635c975abb14620002ac578063737d568714620002b85780638456cb5914620002cf57806391d1485414620002d957600080fd5b806336568abe116200011457806336568abe146200022b578063372c64d514620002425780633f4ba83a14620002595780635089f79614620002635780635225b69c146200028b57600080fd5b806301ffc9a7146200015657806317088631146200018257806319dd5657146200019b578063248a9ca314620001dc5780632f2ff15d1462000212575b600080fd5b6200016d62000167366004620012ad565b62000381565b60405190151581526020015b60405180910390f35b6200018c620003b9565b60405162000179919062001473565b620001c37f000000000000000000000000000000000000000000000000000000000000000081565b6040516001600160a01b03909116815260200162000179565b62000203620001ed36600462001266565b6000908152600160208190526040909120015490565b60405190815260200162000179565b62000229620002233660046200127f565b62000412565b005b620002296200023c3660046200127f565b62000442565b620001c362000253366004620012d7565b620004c8565b6200022962000a16565b620001c37f000000000000000000000000000000000000000000000000000000000000000081565b6200020360025481565b62000229620002a63660046200123a565b62000a3f565b60005460ff166200016d565b620001c3620002c93660046200121d565b62000b75565b6200022962000bb3565b6200016d620002ea3660046200127f565b62000bd9565b62000203600081565b620002037f000000000000000000000000000000000000000000000000000000000000000081565b62000229620003323660046200127f565b62000c04565b620001c37f000000000000000000000000000000000000000000000000000000000000000081565b6200020360008051602062001df083398151915281565b6200018c62000c2f565b60006001600160e01b03198216637965db0b60e01b1480620003b357506301ffc9a760e01b6001600160e01b03198316145b92915050565b6007805460408051602080840282018101909252828152606093909290918301828280156200040857602002820191906000526020600020905b815481526020019060010190808311620003f3575b5050505050905090565b6000828152600160208190526040909120015462000431813362000ca3565b6200043d838362000d12565b505050565b6001600160a01b0381163314620004b85760405162461bcd60e51b815260206004820152602f60248201527f416363657373436f6e74726f6c3a2063616e206f6e6c792072656e6f756e636560448201526e103937b632b9903337b91039b2b63360891b60648201526084015b60405180910390fd5b620004c4828262000d80565b5050565b6000805460ff1615620005115760405162461bcd60e51b815260206004820152601060248201526f14185d5cd8589b194e881c185d5cd95960821b6044820152606401620004af565b8751620005615760405162461bcd60e51b815260206004820152601c60248201527f4c6f6f74626f78206e616d652063616e6e6f7420626520656d707479000000006044820152606401620004af565b8651620005b15760405162461bcd60e51b815260206004820152601e60248201527f4c6f6f74626f782073796d626f6c2063616e6e6f7420626520656d70747900006044820152606401620004af565b6001600160a01b038316620006095760405162461bcd60e51b815260206004820181905260248201527f416666696c6961746520616464726573732063616e6e6f74206265207a65726f6044820152606401620004af565b60008611620006705760405162461bcd60e51b815260206004820152602c60248201527f5461726765742073686172657320736f6c64206d75737420626520677265617460448201526b6572207468616e207a65726f60a01b6064820152608401620004af565b60008511620006d45760405162461bcd60e51b815260206004820152602960248201527f4d61782073686172657320736f6c64206d7573742062652067726561746572206044820152687468616e207a65726f60b81b6064820152608401620004af565b85851015620007585760405162461bcd60e51b815260206004820152604360248201527f4d61782073686172657320736f6c64206d75737420626520677265617465722060448201527f7468616e206f7220657175616c20746f207461726765742073686172657320736064820152621bdb1960ea1b608482015260a401620004af565b6001600160a01b038416620007ba5760405162461bcd60e51b815260206004820152602160248201527f54726561737572792061646472657373206d7573742062652070726f766964656044820152601960fa1b6064820152608401620004af565b60007f00000000000000000000000000000000000000000000000000000000000000006364fcac4060e01b8a8a8a8a8a337f00000000000000000000000000000000000000000000000000000000000000007f0000000000000000000000000000000000000000000000000000000000000000600360008f6001600160a01b03166001600160a01b03168152602001908152602001600020547f00000000000000000000000000000000000000000000000000000000000000008f604051602401620008919b9a99989796959493929190620014ce565b60408051601f198184030181529181526020820180516001600160e01b03166001600160e01b0319909416939093179092529051620008d09062001163565b620008dd92919062001445565b604051809103906000f080158015620008fa573d6000803e3d6000fd5b5090506200090a60078262000dea565b506001600160a01b038181166000818152600460205260409081902080546001600160a01b0319168885161790556002549051928816923392917fd80450a217cc6610088de7c965dda0dcd24f55a93c4308932fdb6b3fa03202829162000979918f918e918e918c9062001550565b60405180910390a46001600160a01b038481166000818152600360209081526040918290205482519081527f00000000000000000000000000000000000000000000000000000000000000009181019190915233818301528884166060820152905191928416917f0b4c73cb9afffcc1a8fe5a90b0072b37bb1da3a9256116b10867b2115bd6c48b9181900360800190a398975050505050505050565b60008051602062001df083398151915262000a32813362000ca3565b62000a3c62000e08565b50565b60008051602062001df083398151915262000a5b813362000ca3565b7f000000000000000000000000000000000000000000000000000000000000000082111562000b025760405162461bcd60e51b815260206004820152604660248201527f416666696c69617465207469636b657420666565206d757374206265206c657360448201527f73207468616e206f7220657175616c20746f207075726368617365207469636b60648201526565742066656560d01b608482015260a401620004af565b6001600160a01b038316600090815260036020526040902082905562000b2a60058462000dea565b506040805183815242602082015233916001600160a01b038616917f92b63ef4b711e706248082654091a6c515ca36d749b6008a128776a88f03830e910160405180910390a3505050565b600060008051602062001df083398151915262000b93813362000ca3565b50506001600160a01b039081166000908152600460205260409020541690565b60008051602062001df083398151915262000bcf813362000ca3565b62000a3c62000e9d565b60009182526001602090815260408084206001600160a01b0393909316845291905290205460ff1690565b6000828152600160208190526040909120015462000c23813362000ca3565b6200043d838362000d80565b606060008051602062001df083398151915262000c4d813362000ca3565b600580546040805160208084028201810190925282815292919083018282801562000c9857602002820191906000526020600020905b81548152602001906001019080831162000c83575b505050505091505090565b62000caf828262000bd9565b620004c45762000cca816001600160a01b0316601462000f1b565b62000cd783602062000f1b565b60405160200162000cea929190620013cc565b60408051601f198184030181529082905262461bcd60e51b8252620004af91600401620014b9565b62000d1e828262000bd9565b620004c45760008281526001602081815260408084206001600160a01b0386168086529252808420805460ff19169093179092559051339285917f2f8788117e7eff1d82e926ec794901d17c78024a50270940304540a733656f0d9190a45050565b62000d8c828262000bd9565b15620004c45760008281526001602090815260408083206001600160a01b0385168085529252808320805460ff1916905551339285917ff6391f5c32d9c69d2a47ea670b442974b53935d1edc7fd64eb21e047a839171b9190a45050565b600062000e01836001600160a01b03841662001111565b9392505050565b60005460ff1662000e535760405162461bcd60e51b815260206004820152601460248201527314185d5cd8589b194e881b9bdd081c185d5cd95960621b6044820152606401620004af565b6000805460ff191690557f5db9ee0a495bf2e6ff9c91a7834c1ba4fdd244a5e8aa4e537bd38aeae4b073aa335b6040516001600160a01b03909116815260200160405180910390a1565b60005460ff161562000ee55760405162461bcd60e51b815260206004820152601060248201526f14185d5cd8589b194e881c185d5cd95960821b6044820152606401620004af565b6000805460ff191660011790557f62e78cea01bee320cd4e420270b5ea74000d11b0c9f74754ebdbfc544b05a25862000e803390565b6060600062000f2c836002620015b2565b62000f3990600262001597565b67ffffffffffffffff81111562000f6057634e487b7160e01b600052604160045260246000fd5b6040519080825280601f01601f19166020018201604052801562000f8b576020820181803683370190505b509050600360fc1b8160008151811062000fb557634e487b7160e01b600052603260045260246000fd5b60200101906001600160f81b031916908160001a905350600f60fb1b8160018151811062000ff357634e487b7160e01b600052603260045260246000fd5b60200101906001600160f81b031916908160001a905350600062001019846002620015b2565b6200102690600162001597565b90505b6001811115620010c0576f181899199a1a9b1b9c1cb0b131b232b360811b85600f16601081106200106a57634e487b7160e01b600052603260045260246000fd5b1a60f81b8282815181106200108f57634e487b7160e01b600052603260045260246000fd5b60200101906001600160f81b031916908160001a90535060049490941c93620010b88162001607565b905062001029565b50831562000e015760405162461bcd60e51b815260206004820181905260248201527f537472696e67733a20686578206c656e67746820696e73756666696369656e746044820152606401620004af565b60008181526001830160205260408120546200115a57508154600181810184556000848152602080822090930184905584548482528286019093526040902091909155620003b3565b506000620003b3565b6107a2806200164e83390190565b80356001600160a01b03811681146200118957600080fd5b919050565b600082601f8301126200119f578081fd5b813567ffffffffffffffff80821115620011bd57620011bd62001637565b604051601f8301601f19908116603f01168101908282118183101715620011e857620011e862001637565b8160405283815286602085880101111562001201578485fd5b8360208701602083013792830160200193909352509392505050565b6000602082840312156200122f578081fd5b62000e018262001171565b600080604083850312156200124d578081fd5b620012588362001171565b946020939093013593505050565b60006020828403121562001278578081fd5b5035919050565b6000806040838503121562001292578182fd5b82359150620012a46020840162001171565b90509250929050565b600060208284031215620012bf578081fd5b81356001600160e01b03198116811462000e01578182fd5b600080600080600080600060e0888a031215620012f2578283fd5b873567ffffffffffffffff808211156200130a578485fd5b620013188b838c016200118e565b985060208a01359150808211156200132e578485fd5b6200133c8b838c016200118e565b975060408a0135965060608a013595506200135a60808b0162001171565b94506200136a60a08b0162001171565b935060c08a013591508082111562001380578283fd5b506200138f8a828b016200118e565b91505092959891949750929550565b60008151808452620013b8816020860160208601620015d4565b601f01601f19169290920160200192915050565b7f416363657373436f6e74726f6c3a206163636f756e742000000000000000000081526000835162001406816017850160208801620015d4565b7001034b99036b4b9b9b4b733903937b6329607d1b601791840191820152835162001439816028840160208801620015d4565b01602801949350505050565b6001600160a01b03831681526040602082018190526000906200146b908301846200139e565b949350505050565b6020808252825182820181905260009190848201906040850190845b81811015620014ad578351835292840192918401916001016200148f565b50909695505050505050565b60208152600062000e0160208301846200139e565b6000610160808352620014e48184018f6200139e565b90508281036020840152620014fa818e6200139e565b604084019c909c52505060608101989098526001600160a01b03968716608089015294861660a088015292851660c087015260e08601919091526101008501528216610120840152166101409091015292915050565b60a0815260006200156560a08301886200139e565b86602084015285604084015284606084015282810360808401526200158b81856200139e565b98975050505050505050565b60008219821115620015ad57620015ad62001621565b500190565b6000816000190483118215151615620015cf57620015cf62001621565b500290565b60005b83811015620015f1578181015183820152602001620015d7565b8381111562001601576000848401525b50505050565b60008162001619576200161962001621565b506000190190565b634e487b7160e01b600052601160045260246000fd5b634e487b7160e01b600052604160045260246000fdfe60806040526040516107a23803806107a283398101604081905261002291610315565b61004d60017f360894a13ba1a3210667c828492db98dca3e2076cc3735a920a3ca505d382bbd61042d565b60008051602061075b8339815191521461007757634e487b7160e01b600052600160045260246000fd5b6100838282600061008a565b5050610492565b610093836100c0565b6000825111806100a05750805b156100bb576100b9838361010060201b6100291760201c565b505b505050565b6100c98161012c565b6040516001600160a01b038216907fbc7cd75a20ee27fd9adebab32041f755214dbc6bffa90cc0225b39da2e5c2d3b90600090a250565b6060610125838360405180606001604052806027815260200161077b602791396101ec565b9392505050565b61013f816102ca60201b6100551760201c565b6101a65760405162461bcd60e51b815260206004820152602d60248201527f455243313936373a206e657720696d706c656d656e746174696f6e206973206e60448201526c1bdd08184818dbdb9d1c9858dd609a1b60648201526084015b60405180910390fd5b806101cb60008051602061075b83398151915260001b6102d960201b6100641760201c565b80546001600160a01b0319166001600160a01b039290921691909117905550565b60606001600160a01b0384163b6102545760405162461bcd60e51b815260206004820152602660248201527f416464726573733a2064656c65676174652063616c6c20746f206e6f6e2d636f6044820152651b9d1c9858dd60d21b606482015260840161019d565b600080856001600160a01b03168560405161026f91906103de565b600060405180830381855af49150503d80600081146102aa576040519150601f19603f3d011682016040523d82523d6000602084013e6102af565b606091505b5090925090506102c08282866102dc565b9695505050505050565b6001600160a01b03163b151590565b90565b606083156102eb575081610125565b8251156102fb5782518084602001fd5b8160405162461bcd60e51b815260040161019d91906103fa565b60008060408385031215610327578182fd5b82516001600160a01b038116811461033d578283fd5b60208401519092506001600160401b0380821115610359578283fd5b818501915085601f83011261036c578283fd5b81518181111561037e5761037e61047c565b604051601f8201601f19908116603f011681019083821181831017156103a6576103a661047c565b816040528281528860208487010111156103be578586fd5b6103cf836020830160208801610450565b80955050505050509250929050565b600082516103f0818460208701610450565b9190910192915050565b6020815260008251806020840152610419816040850160208701610450565b601f01601f19169190910160400192915050565b60008282101561044b57634e487b7160e01b81526011600452602481fd5b500390565b60005b8381101561046b578181015183820152602001610453565b838111156100b95750506000910152565b634e487b7160e01b600052604160045260246000fd5b6102ba806104a16000396000f3fe60806040523661001357610011610017565b005b6100115b610027610022610067565b61009f565b565b606061004e838360405180606001604052806027815260200161025e602791396100c3565b9392505050565b6001600160a01b03163b151590565b90565b600061009a7f360894a13ba1a3210667c828492db98dca3e2076cc3735a920a3ca505d382bbc546001600160a01b031690565b905090565b3660008037600080366000845af43d6000803e8080156100be573d6000f35b3d6000fd5b60606001600160a01b0384163b6101305760405162461bcd60e51b815260206004820152602660248201527f416464726573733a2064656c65676174652063616c6c20746f206e6f6e2d636f6044820152651b9d1c9858dd60d21b60648201526084015b60405180910390fd5b600080856001600160a01b03168560405161014b91906101de565b600060405180830381855af49150503d8060008114610186576040519150601f19603f3d011682016040523d82523d6000602084013e61018b565b606091505b509150915061019b8282866101a5565b9695505050505050565b606083156101b457508161004e565b8251156101c45782518084602001fd5b8160405162461bcd60e51b815260040161012791906101fa565b600082516101f081846020870161022d565b9190910192915050565b602081526000825180602084015261021981604085016020870161022d565b601f01601f19169190910160400192915050565b60005b83811015610248578181015183820152602001610230565b83811115610257576000848401525b5050505056fe416464726573733a206c6f772d6c6576656c2064656c65676174652063616c6c206661696c6564a2646970667358221220e14c3fee28687df8af621b132b9789cfe2ceb6f7d6de514bb73c2956ffe9d6dd64736f6c63430008040033360894a13ba1a3210667c828492db98dca3e2076cc3735a920a3ca505d382bbc416464726573733a206c6f772d6c6576656c2064656c65676174652063616c6c206661696c65643b5d4cc60d3ec3516ee8ae083bd60934f6eb2a6c54b1229985c41bfb092b2603a2646970667358221220410e12e702d534146ec5597d80e5afb18b6670c8c15d2445b41ca576f4e7e54b64736f6c6343000804003360a06040523060601b6080523480156200001857600080fd5b50600054610100900460ff16620000365760005460ff161562000040565b62000040620000e5565b620000a85760405162461bcd60e51b815260206004820152602e60248201527f496e697469616c697a61626c653a20636f6e747261637420697320616c72656160448201526d191e481a5b9a5d1a585b1a5e995960921b606482015260840160405180910390fd5b600054610100900460ff16158015620000cb576000805461ffff19166101011790555b8015620000de576000805461ff00191690555b5062000112565b6000620000fd306200010360201b620037e91760201c565b15905090565b6001600160a01b03163b151590565b60805160601c615adf6200014d60003960008181611a4a01528181611a8a01528181611b6601528181611ba60152611d770152615adf6000f3fe60806040526004361061044b5760003560e01c806378d85c4e11610234578063a7c721c51161012e578063da3537a8116100b6578063e985e9c51161007a578063e985e9c514610d25578063e9c2651814610d6e578063fbf97c5914610d90578063fdf27dba14610dbe578063ff7808e914610dd557600080fd5b8063da3537a814610ca2578063dd13745514610cb7578063dd7af03514610cd9578063e6deb18d14610cf0578063e88e3f9314610d1057600080fd5b8063c87b56dd116100fd578063c87b56dd14610bfb578063ca11016d14610c1b578063cb56a1e114610c30578063cc0f178614610c6b578063d547741f14610c8257600080fd5b8063a7c721c514610b12578063abff011014610b29578063ae501c0414610b4a578063b88d4fde14610bdb57600080fd5b806393a057cd116101bc5780639f792340116101805780639f79234014610a91578063a07ae16a14610aa8578063a217fddf14610abd578063a22cb46514610ad2578063a7485cf114610af257600080fd5b806393a057cd14610a1957806395d89b4114610a305780639792641f14610a4557806399087d3414610a5c5780639b3878c814610a7157600080fd5b80638456cb59116102035780638456cb59146109885780638802255f1461099d5780638c824949146109b55780639088feba146109bd57806391d14854146109f957600080fd5b806378d85c4e146109185780637eee380314610945578063816c42f61461095c5780638240b7771461097357600080fd5b806345e05f43116103455780635c975abb116102cd5780636c9d3b3a116102915780636c9d3b3a146108685780636e70096e146108965780636f2ef95b146108b65780636fcf1e65146108e357806370a08231146108f857600080fd5b80635c975abb146107c257806361d027b3146107da5780636352211e146107fb57806364fcac401461081b57806369d85d541461083b57600080fd5b80635225b69c116103145780635225b69c14610743578063522c21781461075a57806352d1902d14610775578063533573fe1461078a578063588dae3c146107a257600080fd5b806345e05f43146106da5780634f1ef286146106fb5780634f6ccce71461070e57806351f0a93f1461072e57600080fd5b8063248a9ca3116103d357806336568abe1161039757806336568abe1461064e5780633659cfe61461066e5780633af8e5eb1461068e5780633f4ba83a146106a557806342842e0e146106ba57600080fd5b8063248a9ca31461059d5780632a4c03cc146105ce5780632c891b4b146105ee5780632f2ff15d1461060e5780632f745c591461062e57600080fd5b806318160ddd1161041a57806318160ddd1461050857806318fc77ae146105275780631d1438481461053a57806321846c761461056057806323b872dd1461057d57600080fd5b806301ffc9a71461045757806306fdde031461048c578063081812fc146104ae578063095ea7b3146104e657600080fd5b3661045257005b600080fd5b34801561046357600080fd5b50610477610472366004615080565b610dec565b60405190151581526020015b60405180910390f35b34801561049857600080fd5b506104a1610dfd565b60405161048391906154f9565b3480156104ba57600080fd5b506104ce6104c936600461502e565b610e8f565b6040516001600160a01b039091168152602001610483565b3480156104f257600080fd5b50610506610501366004614fe9565b610f29565b005b34801561051457600080fd5b506099545b604051908152602001610483565b610506610535366004614fe9565b61103f565b34801561054657600080fd5b506101cf546104ce9061010090046001600160a01b031681565b61056861134b565b60408051928352602083019190915201610483565b34801561058957600080fd5b50610506610598366004614ec6565b611701565b3480156105a957600080fd5b506105196105b836600461502e565b600090815261012d602052604090206001015490565b3480156105da57600080fd5b506105066105e9366004614e7a565b611732565b3480156105fa57600080fd5b5061051961060936600461502e565b611812565b34801561061a57600080fd5b5061050661062936600461505e565b611904565b34801561063a57600080fd5b50610519610649366004614fe9565b61192b565b34801561065a57600080fd5b5061050661066936600461505e565b6119c1565b34801561067a57600080fd5b50610506610689366004614e7a565b611a3f565b34801561069a57600080fd5b506105196101c35481565b3480156106b157600080fd5b50610506611b1f565b3480156106c657600080fd5b506105066106d5366004614ec6565b611b40565b3480156106e657600080fd5b506101d4546104ce906001600160a01b031681565b610506610709366004614f9d565b611b5b565b34801561071a57600080fd5b5061051961072936600461502e565b611c28565b34801561073a57600080fd5b50610519611cc9565b34801561074f57600080fd5b506105196101c75481565b34801561076657600080fd5b506101cf546104779060ff1681565b34801561078157600080fd5b50610519611d6a565b34801561079657600080fd5b506101d8546105199081565b3480156107ae57600080fd5b506105196107bd366004614e7a565b611e1d565b3480156107ce57600080fd5b5060fb5460ff16610477565b3480156107e657600080fd5b506101d0546104ce906001600160a01b031681565b34801561080757600080fd5b506104ce61081636600461502e565b611f52565b34801561082757600080fd5b506105066108363660046150b8565b611fc9565b34801561084757600080fd5b5061085b610856366004614e7a565b612550565b60405161048391906153e6565b34801561087457600080fd5b50610519610883366004614e7a565b6101d96020526000908152604090205481565b3480156108a257600080fd5b506105066108b136600461502e565b612606565b3480156108c257600080fd5b506108d66108d136600461502e565b612981565b60405161048391906157d3565b3480156108ef57600080fd5b506105066129ec565b34801561090457600080fd5b50610519610913366004614e7a565b612a76565b34801561092457600080fd5b5061093861093336600461502e565b612afd565b604051610483919061542a565b34801561095157600080fd5b506105196101d65481565b34801561096857600080fd5b506105196101ca5481565b34801561097f57600080fd5b50610519612cf3565b34801561099457600080fd5b50610506612da2565b3480156109a957600080fd5b506101d2546105199081565b610506612dc3565b3480156109c957600080fd5b506104776109d83660046151a8565b6101dd60209081526000928352604080842090915290825290205460ff1681565b348015610a0557600080fd5b50610477610a1436600461505e565b612f30565b348015610a2557600080fd5b506105196101c95481565b348015610a3c57600080fd5b506104a1612f5c565b348015610a5157600080fd5b506105196101cc5481565b348015610a6857600080fd5b50610506612f6b565b348015610a7d57600080fd5b50610519610a8c366004615196565b613115565b348015610a9d57600080fd5b506105196101dc5481565b348015610ab457600080fd5b50610506613214565b348015610ac957600080fd5b50610519600081565b348015610ade57600080fd5b50610506610aed366004614f67565b613396565b348015610afe57600080fd5b50610519610b0d36600461502e565b6133a1565b348015610b1e57600080fd5b506105196101d55481565b348015610b3557600080fd5b506101d3546104ce906001600160a01b031681565b348015610b5657600080fd5b50610ba5610b6536600461502e565b6101d7602052600090815260409020805460018201546002830154600384015460048501546005909501549394929391926001600160a01b039091169186565b604080519687526020870195909552938501929092526001600160a01b03166060840152608083015260a082015260c001610483565b348015610be757600080fd5b50610506610bf6366004614f01565b61349b565b348015610c0757600080fd5b506104a1610c1636600461502e565b6134cd565b348015610c2757600080fd5b5061085b6134d8565b348015610c3c57600080fd5b50610c50610c4b36600461502e565b61352f565b60408051938452602084019290925290820152606001610483565b348015610c7757600080fd5b506105196101c45481565b348015610c8e57600080fd5b50610506610c9d36600461505e565b61358a565b348015610cae57600080fd5b506105196135b1565b348015610cc357600080fd5b50610ccc6135ca565b60405161048391906154b7565b348015610ce557600080fd5b506105196101c85481565b348015610cfc57600080fd5b50610519610d0b366004614e7a565b6136e9565b348015610d1c57600080fd5b5061085b613793565b348015610d3157600080fd5b50610477610d40366004614e94565b6001600160a01b039182166000908152606a6020908152604080832093909416825291909152205460ff1690565b348015610d7a57600080fd5b50610519600080516020615a4383398151915281565b348015610d9c57600080fd5b50610519610dab36600461502e565b6101d16020526000908152604090205481565b348015610dca57600080fd5b506105196101c55481565b348015610de157600080fd5b506105196101cb5481565b6000610df7826137f8565b92915050565b606060658054610e0c906159a2565b80601f0160208091040260200160405190810160405280929190818152602001828054610e38906159a2565b8015610e855780601f10610e5a57610100808354040283529160200191610e85565b820191906000526020600020905b815481529060010190602001808311610e6857829003601f168201915b5050505050905090565b6000818152606760205260408120546001600160a01b0316610f0d5760405162461bcd60e51b815260206004820152602c60248201527f4552433732313a20617070726f76656420717565727920666f72206e6f6e657860448201526b34b9ba32b73a103a37b5b2b760a11b60648201526084015b60405180910390fd5b506000908152606960205260409020546001600160a01b031690565b6000610f3482611f52565b9050806001600160a01b0316836001600160a01b03161415610fa25760405162461bcd60e51b815260206004820152602160248201527f4552433732313a20617070726f76616c20746f2063757272656e74206f776e656044820152603960f91b6064820152608401610f04565b336001600160a01b0382161480610fbe5750610fbe8133610d40565b6110305760405162461bcd60e51b815260206004820152603860248201527f4552433732313a20617070726f76652063616c6c6572206973206e6f74206f7760448201527f6e6572206e6f7220617070726f76656420666f7220616c6c00000000000000006064820152608401610f04565b61103a838361381d565b505050565b6101cf5460ff16156110635760405162461bcd60e51b8152600401610f04906156a4565b60006101c854116110865760405162461bcd60e51b8152600401610f04906155f6565b341561110e5760405162461bcd60e51b815260206004820152604b60248201527f4465706f73697473206f662065726332302063616e6e6f7420616c736f20696e60448201527f636c756465206e617469766520746f6b656e7320696e207468652073616d652060648201526a3a3930b739b0b1ba34b7b760a91b608482015260a401610f04565b61111a6101da8361388b565b506001600160a01b03821660009081526101d960205260409020546111409082906157e1565b6001600160a01b03831660009081526101d960205260408120919091556101d8546040805160c08101825282815243602080830191825260008385018181526001600160a01b038a811660608701908152608087018b81524260a089019081528a86526101d7909652888520885181559651600188015592516002870155516003860180546001600160a01b03191691909216179055516004840155905160059092019190915591519293509133917fce3ede2e266c8c5ec60064c2a65ba25bd2899a334c42b39b742129c49b1ef1c4916112239130918791908a908a90615352565b60405180910390a261123a6101d880546001019055565b60405163095ea7b360e01b81523060048201526024810184905284906001600160a01b0382169063095ea7b390604401602060405180830381600087803b15801561128457600080fd5b505af1158015611298573d6000803e3d6000fd5b505050506040513d601f19601f820116820180604052508101906112bc9190615012565b506040516323b872dd60e01b8152336004820152306024820152604481018590526001600160a01b038216906323b872dd90606401602060405180830381600087803b15801561130b57600080fd5b505af115801561131f573d6000803e3d6000fd5b505050506040513d601f19601f820116820180604052508101906113439190615012565b505050505050565b6101d05460009081906001600160a01b03163314156113ac5760405162461bcd60e51b815260206004820181905260248201527f54726561737572792063616e6e6f74207075726368617365207469636b6574736044820152606401610f04565b6101cf5460ff16151560011461142a5760405162461bcd60e51b815260206004820152603860248201527f5469636b6574732063616e6e6f7420626520707572636861736564206166746560448201527f72207468652066756e6472616973696e6720706572696f6400000000000000006064820152608401610f04565b6000611435346133a1565b905061143f6135b1565b81106114b35760405162461bcd60e51b815260206004820152603d60248201527f4e6f7420656e6f756768207368617265732072656d61696e696e6720746f207060448201527f757263686173652c20747279206120736d616c6c657220616d6f756e740000006064820152608401610f04565b60006114bf6101d25490565b90506114d06101d280546001019055565b60008181526101d1602052604090208290556114ee6101cd3361388b565b50816101c8546114fe91906157e1565b6101c8556101cb546115119034906157e1565b6101cb556101d0546101c7546040516001600160a01b039092169133917faec7d08bcb5e515903dbbba83c84bb270bdbdc5ad261ce0709da4d20226d40639161155f913091879189916153c0565b60405180910390a360006305f5e1006101d6543461157d9190615929565b611587919061581e565b905060006305f5e1006101d6546101d5546115a29190615948565b6115ac9034615929565b6115b6919061581e565b90506000826115c58334615948565b6115cf9190615948565b6101d4546101d0546101d3546101c754604080516001600160a01b0393841681523060208201528082018b90523460608201526080810187905260a0810189905260c081018a905260e081018c9052610100810192909252519495509281169391169133917fec9b5b63774dd77ef3e9b139dcae71f2128bd20e0b2d55e2f405302581d4821a918190036101200190a4806101cc5461166e91906157e1565b6101cc556101d3546040516001600160a01b039091169083156108fc029084906000818181858888f193505050501580156116ad573d6000803e3d6000fd5b506101d4546040516001600160a01b039091169084156108fc029085906000818181858888f193505050501580156116e9573d6000803e3d6000fd5b506116f433856138a0565b5091959294509192505050565b61170b33826138ba565b6117275760405162461bcd60e51b8152600401610f0490615653565b61103a8383836139b1565b600080516020615a4383398151915261174b8133613b58565b6101cf5460ff161561176f5760405162461bcd60e51b8152600401610f04906156f5565b600061177a83611e1d565b905082811561180c576101d05460405163a9059cbb60e01b81526001600160a01b039182166004820152602481018490529082169063a9059cbb90604401602060405180830381600087803b1580156117d257600080fd5b505af11580156117e6573d6000803e3d6000fd5b505050506040513d601f19601f8201168201806040525081019061180a9190615012565b505b50505050565b60008181526101d1602052604081205481805b6101d8548110156118fc5760008181526101d760209081526040808320815160c081018352815481526001808301548286015260028301548285015260038301546001600160a01b031660608301526004830154608083015260059092015460a08201528985526101dd845282852081518652909352922054909160ff9091161515146118e95760608101516001600160a01b03166118e9576101c8548482604001516118d29190615929565b6118dc919061581e565b6118e690846157e1565b92505b50806118f4816159d7565b915050611825565b509392505050565b600082815261012d60205260409020600101546119218133613b58565b61103a8383613bbc565b600061193683612a76565b82106119985760405162461bcd60e51b815260206004820152602b60248201527f455243373231456e756d657261626c653a206f776e657220696e646578206f7560448201526a74206f6620626f756e647360a81b6064820152608401610f04565b506001600160a01b03919091166000908152609760209081526040808320938352929052205490565b6001600160a01b0381163314611a315760405162461bcd60e51b815260206004820152602f60248201527f416363657373436f6e74726f6c3a2063616e206f6e6c792072656e6f756e636560448201526e103937b632b9903337b91039b2b63360891b6064820152608401610f04565b611a3b8282613c43565b5050565b306001600160a01b037f0000000000000000000000000000000000000000000000000000000000000000161415611a885760405162461bcd60e51b8152600401610f049061555e565b7f00000000000000000000000000000000000000000000000000000000000000006001600160a01b0316611ad1600080516020615a63833981519152546001600160a01b031690565b6001600160a01b031614611af75760405162461bcd60e51b8152600401610f04906155aa565b611b0081613cab565b60408051600080825260208201909252611b1c91839190613cc4565b50565b600080516020615a43833981519152611b388133613b58565b611b1c613e3e565b61103a8383836040518060200160405280600081525061349b565b306001600160a01b037f0000000000000000000000000000000000000000000000000000000000000000161415611ba45760405162461bcd60e51b8152600401610f049061555e565b7f00000000000000000000000000000000000000000000000000000000000000006001600160a01b0316611bed600080516020615a63833981519152546001600160a01b031690565b6001600160a01b031614611c135760405162461bcd60e51b8152600401610f04906155aa565b611c1c82613cab565b611a3b82826001613cc4565b6000611c3360995490565b8210611c965760405162461bcd60e51b815260206004820152602c60248201527f455243373231456e756d657261626c653a20676c6f62616c20696e646578206f60448201526b7574206f6620626f756e647360a01b6064820152608401610f04565b60998281548110611cb757634e487b7160e01b600052603260045260246000fd5b90600052602060002001549050919050565b600080805b6101d854811015611d645760008181526101d76020908152604091829020825160c0810184528154815260018201549281019290925260028101549282019290925260038201546001600160a01b0316606082018190526004830154608083015260059092015460a082015290611d51576040810151611d4e90846157e1565b92505b5080611d5c816159d7565b915050611cce565b50919050565b6000306001600160a01b037f00000000000000000000000000000000000000000000000000000000000000001614611e0a5760405162461bcd60e51b815260206004820152603860248201527f555550535570677261646561626c653a206d757374206e6f742062652063616c60448201527f6c6564207468726f7567682064656c656761746563616c6c00000000000000006064820152608401610f04565b50600080516020615a6383398151915290565b600080805b6101d854811015611ec05760008181526101d76020908152604091829020825160c0810184528154815260018201549281019290925260028101549282019290925260038201546001600160a01b03908116606083018190526004840154608084015260059093015460a083015290919086161415611ead576080810151611eaa90846157e1565b92505b5080611eb8816159d7565b915050611e22565b506040516370a0823160e01b8152306004820152839060009083906001600160a01b038416906370a082319060240160206040518083038186803b158015611f0757600080fd5b505afa158015611f1b573d6000803e3d6000fd5b505050506040513d601f19601f82011682018060405250810190611f3f9190615046565b611f499190615948565b95945050505050565b6000818152606760205260408120546001600160a01b031680610df75760405162461bcd60e51b815260206004820152602960248201527f4552433732313a206f776e657220717565727920666f72206e6f6e657869737460448201526832b73a103a37b5b2b760b91b6064820152608401610f04565b600054610100900460ff16611fe45760005460ff1615611fe8565b303b155b61204b5760405162461bcd60e51b815260206004820152602e60248201527f496e697469616c697a61626c653a20636f6e747261637420697320616c72656160448201526d191e481a5b9a5d1a585b1a5e995960921b6064820152608401610f04565b600054610100900460ff1615801561206d576000805461ffff19166101011790555b8b518c908c906120b65760405162461bcd60e51b81526020600482015260146024820152734e616d652063616e6e6f7420626520656d70747960601b6044820152606401610f04565b80516120fd5760405162461bcd60e51b815260206004820152601660248201527553796d626f6c2063616e6e6f7420626520656d70747960501b6044820152606401610f04565b6305f5e100871061216f5760405162461bcd60e51b815260206004820152603660248201527f5075726368617365207469636b657420666565206d757374206265206c657373604482015275207468616e203130303030303030302028313030252960501b6064820152608401610f04565b868611156121f45760405162461bcd60e51b815260206004820152604660248201527f416666696c69617465207469636b657420666565206d757374206265206c657360448201527f73207468616e206f7220657175616c20746f207075726368617365207469636b60648201526565742066656560d01b608482015260a401610f04565b6001600160a01b038a166122565760405162461bcd60e51b815260206004820152602360248201527f54726561737572792063616e6e6f7420626520746865207a65726f206164647260448201526265737360e81b6064820152608401610f04565b6001600160a01b0389166122b65760405162461bcd60e51b815260206004820152602160248201527f4973737565722063616e6e6f7420626520746865207a65726f206164647265736044820152607360f81b6064820152608401610f04565b6001600160a01b0388166123185760405162461bcd60e51b815260206004820152602360248201527f4e617469766520746f6b656e20707269636520666565642069732072657175696044820152621c995960ea1b6064820152608401610f04565b60008b1161237a5760405162461bcd60e51b815260206004820152602960248201527f4d61782073686172657320736f6c64206d7573742062652067726561746572206044820152687468616e207a65726f60b81b6064820152608401610f04565b6001600160a01b0385166123da5760405162461bcd60e51b815260206004820152602160248201527f42726f6b65722063616e6e6f7420626520746865207a65726f206164647265736044820152607360f81b6064820152608401610f04565b6001600160a01b03841661243c5760405162461bcd60e51b8152602060048201526024808201527f416666696c696174652063616e6e6f7420626520746865207a65726f206164646044820152637265737360e01b6064820152608401610f04565b6124468e8e613ed1565b61244e613f02565b612456613f02565b61245e613f2b565b612466613f02565b61246e613f02565b426101c55560126101c35560086101c455624c4b406101c75560006101cb556101c98c90556101ca8b90556101cf80546101c680546001600160a01b03199081166001600160a01b038d8116919091179092556001600160a81b03199092166101008d83160260ff1916176001179092556101d0805482168d84161790556101d58990556101d68890556101d3805482168884161790556101d4805490911691861691909117905561252e600080516020615a438339815191528a613bbc565b50508015612542576000805461ff00191690555b505050505050505050505050565b6060600061255d83612a76565b905060008167ffffffffffffffff81111561258857634e487b7160e01b600052604160045260246000fd5b6040519080825280602002602001820160405280156125b1578160200160208202803683370190505b50905060005b828110156118fc576125c9858261192b565b8282815181106125e957634e487b7160e01b600052603260045260246000fd5b6020908102919091010152806125fe816159d7565b9150506125b7565b6101cf5460ff16156126775760405162461bcd60e51b815260206004820152603460248201527f5769746864726177616c732063616e6e6f74206265206d61646520647572696e60448201527319c8199d5b991c985a5cda5b99c81c195c9a5bd960621b6064820152608401610f04565b3361268182611f52565b6001600160a01b0316146126d75760405162461bcd60e51b815260206004820152601a60248201527f596f7520646f206e6f74206f776e2074686973207469636b65740000000000006044820152606401610f04565b60008181526101d16020526040812054905b6101d85481101561103a5760008181526101d760209081526040808320815160c081018352815481526001808301548286015260028301548285015260038301546001600160a01b031660608301526004830154608083015260059092015460a08201528785526101dd845282852081518652909352922054909160ff90911615151461296e5760008481526101dd60209081526040808320845184529091529020805460ff1916600117905560608101516001600160a01b0316156128c25760006101c8548483608001516127bf9190615929565b6127c9919061581e565b8251606084015160405192935033927f981eda60172361092f12c75de05c753d28c928d6fb0b4b6492e685a44265fc0a9261280d9230928b92916000918990615385565b60405180910390a260608201516001600160a01b0381166323b872dd3061283389611f52565b6040516001600160e01b031960e085901b1681526001600160a01b0392831660048201529116602482015260448101859052606401602060405180830381600087803b15801561288257600080fd5b505af1158015612896573d6000803e3d6000fd5b505050506040513d601f19601f820116820180604052508101906128ba9190615012565b50505061296e565b60006101c8548483604001516128d89190615929565b6128e2919061581e565b825160405191925033917f981eda60172361092f12c75de05c753d28c928d6fb0b4b6492e685a44265fc0a916129229130918a9187906000908190615385565b60405180910390a261293385611f52565b6001600160a01b03166108fc829081150290604051600060405180830381858888f1935050505015801561296b573d6000803e3d6000fd5b50505b5080612979816159d7565b9150506126e9565b612989614cee565b5060009081526101d76020908152604091829020825160c0810184528154815260018201549281019290925260028101549282019290925260038201546001600160a01b031660608201526004820154608082015260059091015460a082015290565b600080516020615a43833981519152612a058133613b58565b6101cf5460ff1615612a295760405162461bcd60e51b8152600401610f04906156f5565b6000612a33612cf3565b90508015611a3b576101d0546040516001600160a01b039091169082156108fc029083906000818181858888f1935050505015801561103a573d6000803e3d6000fd5b60006001600160a01b038216612ae15760405162461bcd60e51b815260206004820152602a60248201527f4552433732313a2062616c616e636520717565727920666f7220746865207a65604482015269726f206164647265737360b01b6064820152608401610f04565b506001600160a01b031660009081526068602052604090205490565b60008181526101d16020526040902054606090612b1a6101d85490565b67ffffffffffffffff811115612b4057634e487b7160e01b600052604160045260246000fd5b604051908082528060200260200182016040528015612bbc57816020015b612ba96040518060e0016040528060008152602001600081526020016000151581526020016000815260200160006001600160a01b0316815260200160008152602001600081525090565b815260200190600190039081612b5e5790505b50915060005b6101d854811015612cec576101c85460008281526101d76020526040812060020154909190612bf2908590615929565b612bfc919061581e565b6101c85460008481526101d7602052604081206004015492935091612c22908690615929565b612c2c919061581e565b6040805160e08101825288815260008681526101d7602081815284832080548286018190528d85526101dd835286852090855282528584205460ff161515958501959095526060840188905260038501546001600160a01b0316608085015260a0840186905291889052905260059091015460c08201528651919250908190879086908110612ccb57634e487b7160e01b600052603260045260246000fd5b60200260200101819052505050508080612ce4906159d7565b915050612bc2565b5050919050565b600080805b6101d854811015612d8e5760008181526101d76020908152604091829020825160c0810184528154815260018201549281019290925260028101549282019290925260038201546001600160a01b0316606082018190526004830154608083015260059092015460a082015290612d7b576040810151612d7890846157e1565b92505b5080612d86816159d7565b915050612cf8565b506000612d9b8247615948565b9392505050565b600080516020615a43833981519152612dbb8133613b58565b611b1c613f5a565b6101cf5460ff1615612de75760405162461bcd60e51b8152600401610f04906156a4565b60006101c85411612e0a5760405162461bcd60e51b8152600401610f04906155f6565b346101dc54612e1991906157e1565b6101dc556000612e296101d85490565b6040805160c08101825282815243602080830191825234838501818152600060608601818152608087018281524260a089019081528a84526101d7909652888320885181559651600188015592516002870155516003860180546001600160a01b0319166001600160a01b039092169190911790559051600485015591516005909301929092559251939450909233927fce3ede2e266c8c5ec60064c2a65ba25bd2899a334c42b39b742129c49b1ef1c492612eeb9230928892918190615352565b60405180910390a2612f026101d880546001019055565b604051309081903480156108fc02916000818181858888f1935050505015801561180c573d6000803e3d6000fd5b600091825261012d602090815260408084206001600160a01b0393909316845291905290205460ff1690565b606060668054610e0c906159a2565b600080516020615a43833981519152612f848133613b58565b6101cf5460ff161515600114612fac5760405162461bcd60e51b8152600401610f049061578f565b6101cf805460ff191690556101cc805460009091556101dc54612fd09082906157e1565b6101dc556000612fe06101d85490565b6040805160c081018252828152436020808301918252828401878152600060608501818152608086018281524260a088019081528984526101d7909552878320875181559551600187015592516002860155516003850180546001600160a01b0319166001600160a01b0390921691909117905590516004840155905160059092019190915591519293509133917fce3ede2e266c8c5ec60064c2a65ba25bd2899a334c42b39b742129c49b1ef1c4916130a1913091879189918190615352565b60405180910390a26130b86101d880546001019055565b6101cf546101cb546101c8546040516101009093046001600160a01b0316927f87550133e5e9a6d009b8215a93d43b1511a87921372d21060f998133bd9be4b7926131079230928991906153c0565b60405180910390a250505050565b60008281526101d1602052604081205481805b6101d85481101561320b5760008181526101d760209081526040808320815160c081018352815481526001808301548286015260028301548285015260038301546001600160a01b031660608301526004830154608083015260059092015460a08201528a85526101dd845282852081518652909352922054909160ff9091161515146131f857856001600160a01b031681606001516001600160a01b031614156131f8576101c8548482608001516131e19190615929565b6131eb919061581e565b6131f590846157e1565b92505b5080613203816159d7565b915050613128565b50949350505050565b600080516020615a4383398151915261322d8133613b58565b6101cf5460ff1615156001146132555760405162461bcd60e51b8152600401610f049061578f565b6101c9546101c854116132de5760405162461bcd60e51b815260206004820152604560248201527f46756e6472616973696e6720706572696f642063616e206f6e6c7920656e642060448201527f6966203e353025206f662074686520736861726573536f6c644d617820617265606482015264081cdbdb1960da1b608482015260a401610f04565b6101cf805460ff191690556101cc80546000918290556101d05460405191926001600160a01b039091169183156108fc0291849190818181858888f19350505050158015613330573d6000803e3d6000fd5b506101d0546101cf546101cb546101c8546040516001600160a01b0394851694610100909404909316927f27f5bdb31297d70b551a9b987c293026b2377a1eacd5bf8adac76067d1fcd0b29261338a9230928891906153c0565b60405180910390a35050565b611a3b338383613fd5565b6000806000806000806101c660009054906101000a90046001600160a01b03166001600160a01b031663feaf968c6040518163ffffffff1660e01b815260040160a06040518083038186803b1580156133f957600080fd5b505afa15801561340d573d6000803e3d6000fd5b505050506040513d601f19601f8201168201806040525081019061343191906151c9565b9398509196509450925090506012826134815760405162461bcd60e51b8152602060048201526012602482015271526f756e64206e6f7420636f6d706c65746560701b6044820152606401610f04565b600061348e8983886140a4565b9998505050505050505050565b6134a533836138ba565b6134c15760405162461bcd60e51b8152600401610f0490615653565b61180c848484846140e2565b6060610df782614115565b6101da80546040805160208084028201810190925282815260609390929091830182828015610e8557602002820191906000526020600020905b815481526020019060010190808311613512575050505050905090565b60008181526101d160205260408120546101c85482918291600890839061355783600a615881565b613562856001615929565b61356c9190615929565b613576919061581e565b6101c7549398909750929550919350505050565b600082815261012d60205260409020600101546135a78133613b58565b61103a8383613c43565b60006101c8546101ca546135c59190615948565b905090565b60606135d66101d85490565b67ffffffffffffffff8111156135fc57634e487b7160e01b600052604160045260246000fd5b60405190808252806020026020018201604052801561363557816020015b613622614cee565b81526020019060019003908161361a5790505b50905060005b6101d8548110156136e55760008181526101d76020908152604091829020825160c0810184528154815260018201549281019290925260028101549282019290925260038201546001600160a01b031660608201526004820154608082015260059091015460a082015282518390839081106136c757634e487b7160e01b600052603260045260246000fd5b602002602001018190525080806136dd906159d7565b91505061363b565b5090565b600080805b6101d85481101561378c5760008181526101d76020908152604091829020825160c0810184528154815260018201549281019290925260028101549282019290925260038201546001600160a01b03908116606083018190526004840154608084015260059093015460a08301529091908616141561377957608081015161377690846157e1565b92505b5080613784816159d7565b9150506136ee565b5092915050565b6101cd80546040805160208084028201810190925282815260609390929091830182828015610e855760200282019190600052602060002090815481526020019060010190808311613512575050505050905090565b6001600160a01b03163b151590565b60006001600160e01b03198216637965db0b60e01b1480610df75750610df782614251565b600081815260696020526040902080546001600160a01b0319166001600160a01b038416908117909155819061385282611f52565b6001600160a01b03167f8c5be1e5ebec7d5bd14f71427d1e84f3dd0314c0f7b2291e5b200ac8c7c3b92560405160405180910390a45050565b6000612d9b836001600160a01b038416614276565b611a3b8282604051806020016040528060008152506142c5565b6000818152606760205260408120546001600160a01b03166139335760405162461bcd60e51b815260206004820152602c60248201527f4552433732313a206f70657261746f7220717565727920666f72206e6f6e657860448201526b34b9ba32b73a103a37b5b2b760a11b6064820152608401610f04565b600061393e83611f52565b9050806001600160a01b0316846001600160a01b031614806139795750836001600160a01b031661396e84610e8f565b6001600160a01b0316145b806139a957506001600160a01b038082166000908152606a602090815260408083209388168352929052205460ff165b949350505050565b826001600160a01b03166139c482611f52565b6001600160a01b031614613a285760405162461bcd60e51b815260206004820152602560248201527f4552433732313a207472616e736665722066726f6d20696e636f72726563742060448201526437bbb732b960d91b6064820152608401610f04565b6001600160a01b038216613a8a5760405162461bcd60e51b8152602060048201526024808201527f4552433732313a207472616e7366657220746f20746865207a65726f206164646044820152637265737360e01b6064820152608401610f04565b613a958383836142f8565b613aa060008261381d565b6001600160a01b0383166000908152606860205260408120805460019290613ac9908490615948565b90915550506001600160a01b0382166000908152606860205260408120805460019290613af79084906157e1565b909155505060008181526067602052604080822080546001600160a01b0319166001600160a01b0386811691821790925591518493918716917fddf252ad1be2c89b69c2b068fc378daa952ba7f163c4a11628f55a4df523b3ef91a4505050565b613b628282612f30565b611a3b57613b7a816001600160a01b03166014614349565b613b85836020614349565b604051602001613b969291906152a0565b60408051601f198184030181529082905262461bcd60e51b8252610f04916004016154f9565b613bc68282612f30565b611a3b57600082815261012d602090815260408083206001600160a01b03851684529091529020805460ff19166001179055613bff3390565b6001600160a01b0316816001600160a01b0316837f2f8788117e7eff1d82e926ec794901d17c78024a50270940304540a733656f0d60405160405180910390a45050565b613c4d8282612f30565b15611a3b57600082815261012d602090815260408083206001600160a01b0385168085529252808320805460ff1916905551339285917ff6391f5c32d9c69d2a47ea670b442974b53935d1edc7fd64eb21e047a839171b9190a45050565b600080516020615a43833981519152611a3b8133613b58565b7f4910fdfa16fed3260ed0e7147f7cc6da11a60208b5b9406d12a635614ffd91435460ff1615613cf75761103a8361452b565b826001600160a01b03166352d1902d6040518163ffffffff1660e01b815260040160206040518083038186803b158015613d3057600080fd5b505afa925050508015613d60575060408051601f3d908101601f19168201909252613d5d91810190615046565b60015b613dc35760405162461bcd60e51b815260206004820152602e60248201527f45524331393637557067726164653a206e657720696d706c656d656e7461746960448201526d6f6e206973206e6f74205555505360901b6064820152608401610f04565b600080516020615a638339815191528114613e325760405162461bcd60e51b815260206004820152602960248201527f45524331393637557067726164653a20756e737570706f727465642070726f786044820152681a58589b195555525160ba1b6064820152608401610f04565b5061103a8383836145c7565b60fb5460ff16613e875760405162461bcd60e51b815260206004820152601460248201527314185d5cd8589b194e881b9bdd081c185d5cd95960621b6044820152606401610f04565b60fb805460ff191690557f5db9ee0a495bf2e6ff9c91a7834c1ba4fdd244a5e8aa4e537bd38aeae4b073aa335b6040516001600160a01b03909116815260200160405180910390a1565b600054610100900460ff16613ef85760405162461bcd60e51b8152600401610f0490615744565b611a3b82826145ec565b600054610100900460ff16613f295760405162461bcd60e51b8152600401610f0490615744565b565b600054610100900460ff16613f525760405162461bcd60e51b8152600401610f0490615744565b613f2961463a565b60fb5460ff1615613fa05760405162461bcd60e51b815260206004820152601060248201526f14185d5cd8589b194e881c185d5cd95960821b6044820152606401610f04565b60fb805460ff191660011790557f62e78cea01bee320cd4e420270b5ea74000d11b0c9f74754ebdbfc544b05a258613eb43390565b816001600160a01b0316836001600160a01b031614156140375760405162461bcd60e51b815260206004820152601960248201527f4552433732313a20617070726f766520746f2063616c6c6572000000000000006044820152606401610f04565b6001600160a01b038381166000818152606a6020908152604080832094871680845294825291829020805460ff191686151590811790915591519182527f17307eab39ab6107e8899845ad3d59bd9653f200f220920489ca2b5937696c31910160405180910390a3505050565b60006101c754836101c3546140b99190615948565b6140c490600a615881565b6140ce8487615929565b6140d89190615929565b6139a9919061581e565b6140ed8484846139b1565b6140f98484848461466d565b61180c5760405162461bcd60e51b8152600401610f049061550c565b6060816141395750506040805180820190915260018152600360fc1b602082015290565b8160005b8115614163578061414d816159d7565b915061415c9050600a8361581e565b915061413d565b60008167ffffffffffffffff81111561418c57634e487b7160e01b600052604160045260246000fd5b6040519080825280601f01601f1916602001820160405280156141b6576020820181803683370190505b509050815b851561320b576141cc600182615948565b905060006141db600a8861581e565b6141e690600a615929565b6141f09088615948565b6141fb9060306157f9565b905060008160f81b90508084848151811061422657634e487b7160e01b600052603260045260246000fd5b60200101906001600160f81b031916908160001a905350614248600a8961581e565b975050506141bb565b60006001600160e01b0319821663780e9d6360e01b1480610df75750610df78261477a565b60008181526001830160205260408120546142bd57508154600181810184556000848152602080822090930184905584548482528286019093526040902091909155610df7565b506000610df7565b6142cf83836147ca565b6142dc600084848461466d565b61103a5760405162461bcd60e51b8152600401610f049061550c565b60fb5460ff161561433e5760405162461bcd60e51b815260206004820152601060248201526f14185d5cd8589b194e881c185d5cd95960821b6044820152606401610f04565b61103a838383614918565b60606000614358836002615929565b6143639060026157e1565b67ffffffffffffffff81111561438957634e487b7160e01b600052604160045260246000fd5b6040519080825280601f01601f1916602001820160405280156143b3576020820181803683370190505b509050600360fc1b816000815181106143dc57634e487b7160e01b600052603260045260246000fd5b60200101906001600160f81b031916908160001a905350600f60fb1b8160018151811061441957634e487b7160e01b600052603260045260246000fd5b60200101906001600160f81b031916908160001a905350600061443d846002615929565b6144489060016157e1565b90505b60018111156144dc576f181899199a1a9b1b9c1cb0b131b232b360811b85600f166010811061448a57634e487b7160e01b600052603260045260246000fd5b1a60f81b8282815181106144ae57634e487b7160e01b600052603260045260246000fd5b60200101906001600160f81b031916908160001a90535060049490941c936144d58161598b565b905061444b565b508315612d9b5760405162461bcd60e51b815260206004820181905260248201527f537472696e67733a20686578206c656e67746820696e73756666696369656e746044820152606401610f04565b6001600160a01b0381163b6145985760405162461bcd60e51b815260206004820152602d60248201527f455243313936373a206e657720696d706c656d656e746174696f6e206973206e60448201526c1bdd08184818dbdb9d1c9858dd609a1b6064820152608401610f04565b600080516020615a6383398151915280546001600160a01b0319166001600160a01b0392909216919091179055565b6145d0836149d0565b6000825111806145dd5750805b1561103a5761180c8383614a10565b600054610100900460ff166146135760405162461bcd60e51b8152600401610f0490615744565b8151614626906065906020850190614d2d565b50805161103a906066906020840190614d2d565b600054610100900460ff166146615760405162461bcd60e51b8152600401610f0490615744565b60fb805460ff19169055565b60006001600160a01b0384163b1561476f57604051630a85bd0160e11b81526001600160a01b0385169063150b7a02906146b1903390899088908890600401615315565b602060405180830381600087803b1580156146cb57600080fd5b505af19250505080156146fb575060408051601f3d908101601f191682019092526146f89181019061509c565b60015b614755573d808015614729576040519150601f19603f3d011682016040523d82523d6000602084013e61472e565b606091505b50805161474d5760405162461bcd60e51b8152600401610f049061550c565b805181602001fd5b6001600160e01b031916630a85bd0160e11b1490506139a9565b506001949350505050565b60006001600160e01b031982166380ac58cd60e01b14806147ab57506001600160e01b03198216635b5e139f60e01b145b80610df757506301ffc9a760e01b6001600160e01b0319831614610df7565b6001600160a01b0382166148205760405162461bcd60e51b815260206004820181905260248201527f4552433732313a206d696e7420746f20746865207a65726f20616464726573736044820152606401610f04565b6000818152606760205260409020546001600160a01b0316156148855760405162461bcd60e51b815260206004820152601c60248201527f4552433732313a20746f6b656e20616c7265616479206d696e746564000000006044820152606401610f04565b614891600083836142f8565b6001600160a01b03821660009081526068602052604081208054600192906148ba9084906157e1565b909155505060008181526067602052604080822080546001600160a01b0319166001600160a01b03861690811790915590518392907fddf252ad1be2c89b69c2b068fc378daa952ba7f163c4a11628f55a4df523b3ef908290a45050565b6001600160a01b0383166149735761496e81609980546000838152609a60205260408120829055600182018355919091527f72a152ddfb8e864297c917af52ea6c1c68aead0fee1a62673fcc7e0c94979d000155565b614996565b816001600160a01b0316836001600160a01b031614614996576149968382614afb565b6001600160a01b0382166149ad5761103a81614b98565b826001600160a01b0316826001600160a01b03161461103a5761103a8282614c71565b6149d98161452b565b6040516001600160a01b038216907fbc7cd75a20ee27fd9adebab32041f755214dbc6bffa90cc0225b39da2e5c2d3b90600090a250565b60606001600160a01b0383163b614a785760405162461bcd60e51b815260206004820152602660248201527f416464726573733a2064656c65676174652063616c6c20746f206e6f6e2d636f6044820152651b9d1c9858dd60d21b6064820152608401610f04565b600080846001600160a01b031684604051614a939190615284565b600060405180830381855af49150503d8060008114614ace576040519150601f19603f3d011682016040523d82523d6000602084013e614ad3565b606091505b5091509150611f498282604051806060016040528060278152602001615a8360279139614cb5565b60006001614b0884612a76565b614b129190615948565b600083815260986020526040902054909150808214614b65576001600160a01b03841660009081526097602090815260408083208584528252808320548484528184208190558352609890915290208190555b5060009182526098602090815260408084208490556001600160a01b039094168352609781528383209183525290812055565b609954600090614baa90600190615948565b6000838152609a602052604081205460998054939450909284908110614be057634e487b7160e01b600052603260045260246000fd5b906000526020600020015490508060998381548110614c0f57634e487b7160e01b600052603260045260246000fd5b6000918252602080832090910192909255828152609a90915260408082208490558582528120556099805480614c5557634e487b7160e01b600052603160045260246000fd5b6001900381819060005260206000200160009055905550505050565b6000614c7c83612a76565b6001600160a01b039093166000908152609760209081526040808320868452825280832085905593825260989052919091209190915550565b60608315614cc4575081612d9b565b825115614cd45782518084602001fd5b8160405162461bcd60e51b8152600401610f0491906154f9565b6040518060c0016040528060008152602001600081526020016000815260200160006001600160a01b0316815260200160008152602001600081525090565b828054614d39906159a2565b90600052602060002090601f016020900481019282614d5b5760008555614da1565b82601f10614d7457805160ff1916838001178555614da1565b82800160010185558215614da1579182015b82811115614da1578251825591602001919060010190614d86565b506136e59291505b808211156136e55760008155600101614da9565b80356001600160a01b0381168114614dd457600080fd5b919050565b600082601f830112614de9578081fd5b813567ffffffffffffffff80821115614e0457614e04615a08565b604051601f8301601f19908116603f01168101908282118183101715614e2c57614e2c615a08565b81604052838152866020858801011115614e44578485fd5b8360208701602083013792830160200193909352509392505050565b805169ffffffffffffffffffff81168114614dd457600080fd5b600060208284031215614e8b578081fd5b612d9b82614dbd565b60008060408385031215614ea6578081fd5b614eaf83614dbd565b9150614ebd60208401614dbd565b90509250929050565b600080600060608486031215614eda578081fd5b614ee384614dbd565b9250614ef160208501614dbd565b9150604084013590509250925092565b60008060008060808587031215614f16578081fd5b614f1f85614dbd565b9350614f2d60208601614dbd565b925060408501359150606085013567ffffffffffffffff811115614f4f578182fd5b614f5b87828801614dd9565b91505092959194509250565b60008060408385031215614f79578182fd5b614f8283614dbd565b91506020830135614f9281615a1e565b809150509250929050565b60008060408385031215614faf578182fd5b614fb883614dbd565b9150602083013567ffffffffffffffff811115614fd3578182fd5b614fdf85828601614dd9565b9150509250929050565b60008060408385031215614ffb578182fd5b61500483614dbd565b946020939093013593505050565b600060208284031215615023578081fd5b8151612d9b81615a1e565b60006020828403121561503f578081fd5b5035919050565b600060208284031215615057578081fd5b5051919050565b60008060408385031215615070578081fd5b82359150614ebd60208401614dbd565b600060208284031215615091578081fd5b8135612d9b81615a2c565b6000602082840312156150ad578081fd5b8151612d9b81615a2c565b60008060008060008060008060008060006101608c8e0312156150d9578889fd5b67ffffffffffffffff808d3511156150ef57898afd5b6150fc8e8e358f01614dd9565b9b508060208e0135111561510e57898afd5b5061511f8d60208e01358e01614dd9565b995060408c0135985060608c0135975061513b60808d01614dbd565b965061514960a08d01614dbd565b955061515760c08d01614dbd565b945060e08c013593506101008c013592506151756101208d01614dbd565b91506151846101408d01614dbd565b90509295989b509295989b9093969950565b60008060408385031215615070578182fd5b600080604083850312156151ba578182fd5b50508035926020909101359150565b600080600080600060a086880312156151e0578283fd5b6151e986614e60565b945060208601519350604086015192506060860151915061520c60808701614e60565b90509295509295909350565b6000815180845261523081602086016020860161595f565b601f01601f19169290920160200192915050565b8051825260208082015190830152604080820151908301526060808201516001600160a01b0316908301526080808201519083015260a090810151910152565b6000825161529681846020870161595f565b9190910192915050565b7f416363657373436f6e74726f6c3a206163636f756e74200000000000000000008152600083516152d881601785016020880161595f565b7001034b99036b4b9b9b4b733903937b6329607d1b601791840191820152835161530981602884016020880161595f565b01602801949350505050565b6001600160a01b038581168252841660208201526040810183905260806060820181905260009061534890830184615218565b9695505050505050565b6001600160a01b039586168152602081019490945260408401929092529092166060820152608081019190915260a00190565b6001600160a01b039687168152602081019590955260408501939093526060840191909152909216608082015260a081019190915260c00190565b6001600160a01b0394909416845260208401929092526040830152606082015260800190565b6020808252825182820181905260009190848201906040850190845b8181101561541e57835183529284019291840191600101615402565b50909695505050505050565b602080825282518282018190526000919060409081850190868401855b828110156154aa57815180518552868101518786015285810151151586860152606080820151908601526080808201516001600160a01b03169086015260a0808201519086015260c0908101519085015260e09093019290850190600101615447565b5091979650505050505050565b6020808252825182820181905260009190848201906040850190845b8181101561541e576154e6838551615244565b9284019260c092909201916001016154d3565b602081526000612d9b6020830184615218565b60208082526032908201527f4552433732313a207472616e7366657220746f206e6f6e20455243373231526560408201527131b2b4bb32b91034b6b83632b6b2b73a32b960711b606082015260800190565b6020808252602c908201527f46756e6374696f6e206d7573742062652063616c6c6564207468726f7567682060408201526b19195b1959d85d1958d85b1b60a21b606082015260800190565b6020808252602c908201527f46756e6374696f6e206d7573742062652063616c6c6564207468726f7567682060408201526b6163746976652070726f787960a01b606082015260800190565b60208082526037908201527f4e6f207368617265732068617665206265656e20736f6c642e204465706f736960408201527f74732077696c6c206e6f74206265206163636570746564000000000000000000606082015260800190565b60208082526031908201527f4552433732313a207472616e736665722063616c6c6572206973206e6f74206f6040820152701ddb995c881b9bdc88185c1c1c9bdd9959607a1b606082015260800190565b60208082526031908201527f4465706f736974732063616e6e6f74206265206d61646520647572696e6720666040820152701d5b991c985a5cda5b99c81c195c9a5bd9607a1b606082015260800190565b6020808252602f908201527f5265736375652063616e6e6f74206265206d61646520647572696e672066756e60408201526e191c985a5cda5b99c81c195c9a5bd9608a1b606082015260800190565b6020808252602b908201527f496e697469616c697a61626c653a20636f6e7472616374206973206e6f74206960408201526a6e697469616c697a696e6760a81b606082015260800190565b60208082526024908201527f46756e6472616973696e6720706572696f642068617320616c726561647920656040820152631b99195960e21b606082015260800190565b60c08101610df78284615244565b600082198211156157f4576157f46159f2565b500190565b600060ff821660ff84168060ff03821115615816576158166159f2565b019392505050565b60008261583957634e487b7160e01b81526012600452602481fd5b500490565b600181815b8085111561587957816000190482111561585f5761585f6159f2565b8085161561586c57918102915b93841c9390800290615843565b509250929050565b6000612d9b838360008261589757506001610df7565b816158a457506000610df7565b81600181146158ba57600281146158c4576158e0565b6001915050610df7565b60ff8411156158d5576158d56159f2565b50506001821b610df7565b5060208310610133831016604e8410600b8410161715615903575081810a610df7565b61590d838361583e565b8060001904821115615921576159216159f2565b029392505050565b6000816000190483118215151615615943576159436159f2565b500290565b60008282101561595a5761595a6159f2565b500390565b60005b8381101561597a578181015183820152602001615962565b8381111561180c5750506000910152565b60008161599a5761599a6159f2565b506000190190565b600181811c908216806159b657607f821691505b60208210811415611d6457634e487b7160e01b600052602260045260246000fd5b60006000198214156159eb576159eb6159f2565b5060010190565b634e487b7160e01b600052601160045260246000fd5b634e487b7160e01b600052604160045260246000fd5b8015158114611b1c57600080fd5b6001600160e01b031981168114611b1c57600080fdfe3b5d4cc60d3ec3516ee8ae083bd60934f6eb2a6c54b1229985c41bfb092b2603360894a13ba1a3210667c828492db98dca3e2076cc3735a920a3ca505d382bbc416464726573733a206c6f772d6c6576656c2064656c65676174652063616c6c206661696c6564a2646970667358221220e7ac04d3e574c123789e964d8a540470a8cfeac0a6760f446b35487bc1e51a1b64736f6c63430008040033",
  "linkReferences": {},
  "deployedLinkReferences": {}
}