{
  "_format": "hh-sol-artifact-1",
  "contractName": "LootboxEscrowFactory",
  "sourceName": "contracts/LootboxEscrowFactory.sol",
  "abi": [
    {
      "inputs": [
        {
          "internalType": "address",
          "name": "_lootboxDao",
          "type": "address"
        },
        {
          "internalType": "uint256",
          "name": "_ticketPurchaseFee",
          "type": "uint256"
        },
        {
          "internalType": "address",
          "name": "_brokerAddress",
          "type": "address"
        },
        {
          "internalType": "address",
          "name": "_superstaff",
          "type": "address"
        },
        {
          "internalType": "string",
          "name": "_baseTokenURI",
          "type": "string"
        }
      ],
      "stateMutability": "nonpayable",
      "type": "constructor"
    },
    {
      "anonymous": false,
      "inputs": [
        {
          "indexed": false,
          "internalType": "string",
          "name": "lootboxName",
          "type": "string"
        },
        {
          "indexed": true,
          "internalType": "address",
          "name": "lootbox",
          "type": "address"
        },
        {
          "indexed": true,
          "internalType": "address",
          "name": "issuer",
          "type": "address"
        },
        {
          "indexed": true,
          "internalType": "address",
          "name": "treasury",
          "type": "address"
        },
        {
          "indexed": false,
          "internalType": "uint256",
          "name": "targetSharesSold",
          "type": "uint256"
        },
        {
          "indexed": false,
          "internalType": "uint256",
          "name": "maxSharesSold",
          "type": "uint256"
        },
        {
          "indexed": false,
          "internalType": "string",
          "name": "_data",
          "type": "string"
        }
      ],
      "name": "LootboxCreated",
      "type": "event"
    },
    {
      "anonymous": false,
      "inputs": [
        {
          "indexed": false,
          "internalType": "address",
          "name": "account",
          "type": "address"
        }
      ],
      "name": "Paused",
      "type": "event"
    },
    {
      "anonymous": false,
      "inputs": [
        {
          "indexed": true,
          "internalType": "bytes32",
          "name": "role",
          "type": "bytes32"
        },
        {
          "indexed": true,
          "internalType": "bytes32",
          "name": "previousAdminRole",
          "type": "bytes32"
        },
        {
          "indexed": true,
          "internalType": "bytes32",
          "name": "newAdminRole",
          "type": "bytes32"
        }
      ],
      "name": "RoleAdminChanged",
      "type": "event"
    },
    {
      "anonymous": false,
      "inputs": [
        {
          "indexed": true,
          "internalType": "bytes32",
          "name": "role",
          "type": "bytes32"
        },
        {
          "indexed": true,
          "internalType": "address",
          "name": "account",
          "type": "address"
        },
        {
          "indexed": true,
          "internalType": "address",
          "name": "sender",
          "type": "address"
        }
      ],
      "name": "RoleGranted",
      "type": "event"
    },
    {
      "anonymous": false,
      "inputs": [
        {
          "indexed": true,
          "internalType": "bytes32",
          "name": "role",
          "type": "bytes32"
        },
        {
          "indexed": true,
          "internalType": "address",
          "name": "account",
          "type": "address"
        },
        {
          "indexed": true,
          "internalType": "address",
          "name": "sender",
          "type": "address"
        }
      ],
      "name": "RoleRevoked",
      "type": "event"
    },
    {
      "anonymous": false,
      "inputs": [
        {
          "indexed": false,
          "internalType": "address",
          "name": "account",
          "type": "address"
        }
      ],
      "name": "Unpaused",
      "type": "event"
    },
    {
      "inputs": [],
      "name": "DAO_ROLE",
      "outputs": [
        {
          "internalType": "bytes32",
          "name": "",
          "type": "bytes32"
        }
      ],
      "stateMutability": "view",
      "type": "function"
    },
    {
      "inputs": [],
      "name": "DEFAULT_ADMIN_ROLE",
      "outputs": [
        {
          "internalType": "bytes32",
          "name": "",
          "type": "bytes32"
        }
      ],
      "stateMutability": "view",
      "type": "function"
    },
    {
      "inputs": [],
      "name": "baseTokenURI",
      "outputs": [
        {
          "internalType": "string",
          "name": "",
          "type": "string"
        }
      ],
      "stateMutability": "view",
      "type": "function"
    },
    {
      "inputs": [],
      "name": "brokerAddress",
      "outputs": [
        {
          "internalType": "address",
          "name": "",
          "type": "address"
        }
      ],
      "stateMutability": "view",
      "type": "function"
    },
    {
      "inputs": [
        {
          "internalType": "string",
          "name": "_lootboxName",
          "type": "string"
        },
        {
          "internalType": "string",
          "name": "_lootboxSymbol",
          "type": "string"
        },
        {
          "internalType": "uint256",
          "name": "_targetSharesSold",
          "type": "uint256"
        },
        {
          "internalType": "uint256",
          "name": "_maxSharesSold",
          "type": "uint256"
        },
        {
          "internalType": "address",
          "name": "_treasury",
          "type": "address"
        },
        {
          "internalType": "string",
          "name": "_data",
          "type": "string"
        }
      ],
      "name": "createLootbox",
      "outputs": [
        {
          "internalType": "address",
          "name": "_lootbox",
          "type": "address"
        }
      ],
      "stateMutability": "nonpayable",
      "type": "function"
    },
    {
      "inputs": [
        {
          "internalType": "bytes32",
          "name": "role",
          "type": "bytes32"
        }
      ],
      "name": "getRoleAdmin",
      "outputs": [
        {
          "internalType": "bytes32",
          "name": "",
          "type": "bytes32"
        }
      ],
      "stateMutability": "view",
      "type": "function"
    },
    {
      "inputs": [
        {
          "internalType": "bytes32",
          "name": "role",
          "type": "bytes32"
        },
        {
          "internalType": "address",
          "name": "account",
          "type": "address"
        }
      ],
      "name": "grantRole",
      "outputs": [],
      "stateMutability": "nonpayable",
      "type": "function"
    },
    {
      "inputs": [
        {
          "internalType": "bytes32",
          "name": "role",
          "type": "bytes32"
        },
        {
          "internalType": "address",
          "name": "account",
          "type": "address"
        }
      ],
      "name": "hasRole",
      "outputs": [
        {
          "internalType": "bool",
          "name": "",
          "type": "bool"
        }
      ],
      "stateMutability": "view",
      "type": "function"
    },
    {
      "inputs": [],
      "name": "lootboxImplementation",
      "outputs": [
        {
          "internalType": "address",
          "name": "",
          "type": "address"
        }
      ],
      "stateMutability": "view",
      "type": "function"
    },
    {
      "inputs": [],
      "name": "pause",
      "outputs": [],
      "stateMutability": "nonpayable",
      "type": "function"
    },
    {
      "inputs": [],
      "name": "paused",
      "outputs": [
        {
          "internalType": "bool",
          "name": "",
          "type": "bool"
        }
      ],
      "stateMutability": "view",
      "type": "function"
    },
    {
      "inputs": [
        {
          "internalType": "bytes32",
          "name": "role",
          "type": "bytes32"
        },
        {
          "internalType": "address",
          "name": "account",
          "type": "address"
        }
      ],
      "name": "renounceRole",
      "outputs": [],
      "stateMutability": "nonpayable",
      "type": "function"
    },
    {
      "inputs": [
        {
          "internalType": "bytes32",
          "name": "role",
          "type": "bytes32"
        },
        {
          "internalType": "address",
          "name": "account",
          "type": "address"
        }
      ],
      "name": "revokeRole",
      "outputs": [],
      "stateMutability": "nonpayable",
      "type": "function"
    },
    {
      "inputs": [],
      "name": "semver",
      "outputs": [
        {
          "internalType": "string",
          "name": "",
          "type": "string"
        }
      ],
      "stateMutability": "view",
      "type": "function"
    },
    {
      "inputs": [],
      "name": "superstaff",
      "outputs": [
        {
          "internalType": "address",
          "name": "",
          "type": "address"
        }
      ],
      "stateMutability": "view",
      "type": "function"
    },
    {
      "inputs": [
        {
          "internalType": "bytes4",
          "name": "interfaceId",
          "type": "bytes4"
        }
      ],
      "name": "supportsInterface",
      "outputs": [
        {
          "internalType": "bool",
          "name": "",
          "type": "bool"
        }
      ],
      "stateMutability": "view",
      "type": "function"
    },
    {
      "inputs": [],
      "name": "ticketPurchaseFee",
      "outputs": [
        {
          "internalType": "uint256",
          "name": "",
          "type": "uint256"
        }
      ],
      "stateMutability": "view",
      "type": "function"
    },
    {
      "inputs": [],
      "name": "unpause",
      "outputs": [],
      "stateMutability": "nonpayable",
      "type": "function"
    },
    {
      "inputs": [],
      "name": "viewLootboxes",
      "outputs": [
        {
          "internalType": "bytes32[]",
          "name": "",
          "type": "bytes32[]"
        }
      ],
      "stateMutability": "view",
      "type": "function"
    }
  ],
  "bytecode": "0x6101006040523480156200001257600080fd5b50604051620081ff380380620081ff83398101604081905262000035916200046f565b6000805460ff191690556001600160a01b038516620000a65760405162461bcd60e51b815260206004820152602260248201527f44414f204c6f6f74626f7820616464726573732063616e6e6f74206265207a65604482015261726f60f01b60648201526084015b60405180910390fd5b6001600160a01b038316620000fe5760405162461bcd60e51b815260206004820152601d60248201527f42726f6b657220616464726573732063616e6e6f74206265207a65726f00000060448201526064016200009d565b6001600160a01b038216620001605760405162461bcd60e51b815260206004820152602160248201527f5375706572737461666620616464726573732063616e6e6f74206265207a65726044820152606f60f81b60648201526084016200009d565b6305f5e1008410620001db5760405162461bcd60e51b815260206004820152603660248201527f5075726368617365207469636b657420666565206d757374206265206c65737360448201527f207468616e20313030303030303030202831303025290000000000000000000060648201526084016200009d565b80516000036200022e5760405162461bcd60e51b815260206004820152601e60248201527f4261736520746f6b656e205552492063616e6e6f7420626520656d707479000060448201526064016200009d565b6040516200023c9062000388565b604051809103906000f08015801562000259573d6000803e3d6000fd5b506001600160a01b0316608052620002927f3b5d4cc60d3ec3516ee8ae083bd60934f6eb2a6c54b1229985c41bfb092b260386620002ff565b60a08490526001600160a01b0380841660c052821660e0528051620002bf90600390602084019062000396565b5060408051808201909152600a808252690c0b8d8b8d0b5c1c9bd960b21b6020909201918252620002f39160029162000396565b505050505050620005cc565b60008281526001602090815260408083206001600160a01b038516845290915290205460ff16620003845760008281526001602081815260408084206001600160a01b0386168086529252808420805460ff19169093179092559051339285917f2f8788117e7eff1d82e926ec794901d17c78024a50270940304540a733656f0d9190a45b5050565b61603280620021cd83390190565b828054620003a49062000590565b90600052602060002090601f016020900481019282620003c8576000855562000413565b82601f10620003e357805160ff191683800117855562000413565b8280016001018555821562000413579182015b8281111562000413578251825591602001919060010190620003f6565b506200042192915062000425565b5090565b5b8082111562000421576000815560010162000426565b80516001600160a01b03811681146200045457600080fd5b919050565b634e487b7160e01b600052604160045260246000fd5b600080600080600060a086880312156200048857600080fd5b62000493866200043c565b94506020808701519450620004ab604088016200043c565b9350620004bb606088016200043c565b60808801519093506001600160401b0380821115620004d957600080fd5b818901915089601f830112620004ee57600080fd5b81518181111562000503576200050362000459565b604051601f8201601f19908116603f011681019083821181831017156200052e576200052e62000459565b816040528281528c868487010111156200054757600080fd5b600093505b828410156200056b57848401860151818501870152928501926200054c565b828411156200057d5760008684830101525b8096505050505050509295509295909350565b600181811c90821680620005a557607f821691505b602082108103620005c657634e487b7160e01b600052602260045260246000fd5b50919050565b60805160a05160c05160e051611bab620006226000396000818161025101526106ca01526000818161027901526106a90152600081816102d7015261068801526000818161018901526106570152611bab6000f3fe60806040523480156200001157600080fd5b5060043610620001395760003560e01c80635089f79611620000bb578063a7c721c5116200007a578063a7c721c514620002d1578063cda493c814620002f9578063d547741f1462000312578063d547cfb71462000329578063e9c26518146200033357600080fd5b80635089f79614620002735780635c975abb146200029b5780638456cb5914620002a757806391d1485414620002b1578063a217fddf14620002c857600080fd5b8063248a9ca31162000108578063248a9ca314620001db5780632f2ff15d146200021157806336568abe146200022a5780633f4ba83a146200024157806342b12631146200024b57600080fd5b806301ffc9a7146200013e57806317088631146200016a57806319dd565714620001835780631aed9ea314620001c4575b600080fd5b620001556200014f36600462000eb4565b6200035b565b60405190151581526020015b60405180910390f35b6200017462000393565b60405162000161919062000ee0565b620001ab7f000000000000000000000000000000000000000000000000000000000000000081565b6040516001600160a01b03909116815260200162000161565b620001ab620001d536600462000fee565b620003ec565b62000202620001ec366004620010a5565b6000908152600160208190526040909120015490565b60405190815260200162000161565b6200022862000222366004620010bf565b620007e6565b005b620002286200023b366004620010bf565b62000815565b6200022862000897565b620001ab7f000000000000000000000000000000000000000000000000000000000000000081565b620001ab7f000000000000000000000000000000000000000000000000000000000000000081565b60005460ff1662000155565b62000228620008d0565b62000155620002c2366004620010bf565b62000906565b62000202600081565b620002027f000000000000000000000000000000000000000000000000000000000000000081565b6200030362000931565b6040516200016191906200114f565b6200022862000323366004620010bf565b620009c7565b62000303620009f1565b620002027f3b5d4cc60d3ec3516ee8ae083bd60934f6eb2a6c54b1229985c41bfb092b260381565b60006001600160e01b03198216637965db0b60e01b14806200038d57506301ffc9a760e01b6001600160e01b03198316145b92915050565b600480546040805160208084028201810190925282815260609390929091830182828015620003e257602002820191906000526020600020905b815481526020019060010190808311620003cd575b5050505050905090565b6000620003f862000a00565b86516000036200044f5760405162461bcd60e51b815260206004820152601c60248201527f4c6f6f74626f78206e616d652063616e6e6f7420626520656d7074790000000060448201526064015b60405180910390fd5b8551600003620004a25760405162461bcd60e51b815260206004820152601e60248201527f4c6f6f74626f782073796d626f6c2063616e6e6f7420626520656d7074790000604482015260640162000446565b60008511620005095760405162461bcd60e51b815260206004820152602c60248201527f5461726765742073686172657320736f6c64206d75737420626520677265617460448201526b6572207468616e207a65726f60a01b606482015260840162000446565b600084116200056d5760405162461bcd60e51b815260206004820152602960248201527f4d61782073686172657320736f6c64206d7573742062652067726561746572206044820152687468616e207a65726f60b81b606482015260840162000446565b84841015620005f15760405162461bcd60e51b815260206004820152604360248201527f4d61782073686172657320736f6c64206d75737420626520677265617465722060448201527f7468616e206f7220657175616c20746f207461726765742073686172657320736064820152621bdb1960ea1b608482015260a40162000446565b6001600160a01b038316620006535760405162461bcd60e51b815260206004820152602160248201527f54726561737572792061646472657373206d7573742062652070726f766964656044820152601960fa1b606482015260840162000446565b60007f00000000000000000000000000000000000000000000000000000000000000006316bded3660e01b898960038a8a8a337f00000000000000000000000000000000000000000000000000000000000000007f00000000000000000000000000000000000000000000000000000000000000007f0000000000000000000000000000000000000000000000000000000000000000604051602401620007049a99989796959493929190620011a0565b60408051601f198184030181529181526020820180516001600160e01b03166001600160e01b0319909416939093179092529051620007439062000ea6565b62000750929190620012ea565b604051809103906000f0801580156200076d573d6000803e3d6000fd5b5090506200077d60048262000a4a565b50836001600160a01b0316336001600160a01b0316826001600160a01b03167ff39d14fa0aa07a94a72c62bae5fb327d547a62865bdd8fcfa9c5223107c35a7c8b8a8a89604051620007d3949392919062001318565b60405180910390a4979650505050505050565b60008281526001602081905260409091200154620008048162000a68565b62000810838362000a74565b505050565b6001600160a01b0381163314620008875760405162461bcd60e51b815260206004820152602f60248201527f416363657373436f6e74726f6c3a2063616e206f6e6c792072656e6f756e636560448201526e103937b632b9903337b91039b2b63360891b606482015260840162000446565b62000893828262000ae2565b5050565b7f3b5d4cc60d3ec3516ee8ae083bd60934f6eb2a6c54b1229985c41bfb092b2603620008c38162000a68565b620008cd62000b4c565b50565b7f3b5d4cc60d3ec3516ee8ae083bd60934f6eb2a6c54b1229985c41bfb092b2603620008fc8162000a68565b620008cd62000ba0565b60009182526001602090815260408084206001600160a01b0393909316845291905290205460ff1690565b60028054620009409062001164565b80601f01602080910402602001604051908101604052809291908181526020018280546200096e9062001164565b8015620009bf5780601f106200099357610100808354040283529160200191620009bf565b820191906000526020600020905b815481529060010190602001808311620009a157829003601f168201915b505050505081565b60008281526001602081905260409091200154620009e58162000a68565b62000810838362000ae2565b60038054620009409062001164565b60005460ff161562000a485760405162461bcd60e51b815260206004820152601060248201526f14185d5cd8589b194e881c185d5cd95960821b604482015260640162000446565b565b600062000a61836001600160a01b03841662000be0565b9392505050565b620008cd813362000c32565b62000a80828262000906565b620008935760008281526001602081815260408084206001600160a01b0386168086529252808420805460ff19169093179092559051339285917f2f8788117e7eff1d82e926ec794901d17c78024a50270940304540a733656f0d9190a45050565b62000aee828262000906565b15620008935760008281526001602090815260408083206001600160a01b0385168085529252808320805460ff1916905551339285917ff6391f5c32d9c69d2a47ea670b442974b53935d1edc7fd64eb21e047a839171b9190a45050565b62000b5662000ca1565b6000805460ff191690557f5db9ee0a495bf2e6ff9c91a7834c1ba4fdd244a5e8aa4e537bd38aeae4b073aa335b6040516001600160a01b03909116815260200160405180910390a1565b62000baa62000a00565b6000805460ff191660011790557f62e78cea01bee320cd4e420270b5ea74000d11b0c9f74754ebdbfc544b05a25862000b833390565b600081815260018301602052604081205462000c29575081546001818101845560008481526020808220909301849055845484825282860190935260409020919091556200038d565b5060006200038d565b62000c3e828262000906565b620008935762000c59816001600160a01b0316601462000cec565b62000c6683602062000cec565b60405160200162000c7992919062001358565b60408051601f198184030181529082905262461bcd60e51b825262000446916004016200114f565b60005460ff1662000a485760405162461bcd60e51b815260206004820152601460248201527314185d5cd8589b194e881b9bdd081c185d5cd95960621b604482015260640162000446565b6060600062000cfd836002620013e7565b62000d0a90600262001409565b67ffffffffffffffff81111562000d255762000d2562000f26565b6040519080825280601f01601f19166020018201604052801562000d50576020820181803683370190505b509050600360fc1b8160008151811062000d6e5762000d6e62001424565b60200101906001600160f81b031916908160001a905350600f60fb1b8160018151811062000da05762000da062001424565b60200101906001600160f81b031916908160001a905350600062000dc6846002620013e7565b62000dd390600162001409565b90505b600181111562000e55576f181899199a1a9b1b9c1cb0b131b232b360811b85600f166010811062000e0b5762000e0b62001424565b1a60f81b82828151811062000e245762000e2462001424565b60200101906001600160f81b031916908160001a90535060049490941c9362000e4d816200143a565b905062000dd6565b50831562000a615760405162461bcd60e51b815260206004820181905260248201527f537472696e67733a20686578206c656e67746820696e73756666696369656e74604482015260640162000446565b610721806200145583390190565b60006020828403121562000ec757600080fd5b81356001600160e01b03198116811462000a6157600080fd5b6020808252825182820181905260009190848201906040850190845b8181101562000f1a5783518352928401929184019160010162000efc565b50909695505050505050565b634e487b7160e01b600052604160045260246000fd5b600082601f83011262000f4e57600080fd5b813567ffffffffffffffff8082111562000f6c5762000f6c62000f26565b604051601f8301601f19908116603f0116810190828211818310171562000f975762000f9762000f26565b8160405283815286602085880101111562000fb157600080fd5b836020870160208301376000602085830101528094505050505092915050565b80356001600160a01b038116811462000fe957600080fd5b919050565b60008060008060008060c087890312156200100857600080fd5b863567ffffffffffffffff808211156200102157600080fd5b6200102f8a838b0162000f3c565b975060208901359150808211156200104657600080fd5b620010548a838b0162000f3c565b965060408901359550606089013594506200107260808a0162000fd1565b935060a08901359150808211156200108957600080fd5b506200109889828a0162000f3c565b9150509295509295509295565b600060208284031215620010b857600080fd5b5035919050565b60008060408385031215620010d357600080fd5b82359150620010e56020840162000fd1565b90509250929050565b60005b838110156200110b578181015183820152602001620010f1565b838111156200111b576000848401525b50505050565b600081518084526200113b816020860160208601620010ee565b601f01601f19169290920160200192915050565b60208152600062000a61602083018462001121565b600181811c908216806200117957607f821691505b6020821081036200119a57634e487b7160e01b600052602260045260246000fd5b50919050565b61014081526000620011b761014083018d62001121565b8281036020840152620011cb818d62001121565b9050828103604084015260008b54818160011c905060018216620011ed57607f165b6020811060018316036200120f57634e487b7160e01b83526022600452602483fd5b808452602084019350600182168015620012325760018114620012455762001275565b60ff198316855260208501935062001275565b60008f81526020902060005b838110156200126f5781548782015260019091019060200162001251565b86019450505b50505080925050508860608301528760808301526200129f60a08301886001600160a01b03169052565b6001600160a01b03861660c08301528460e0830152620012cb6101008301856001600160a01b03169052565b6001600160a01b0383166101208301529b9a5050505050505050505050565b6001600160a01b0383168152604060208201819052600090620013109083018462001121565b949350505050565b6080815260006200132d608083018762001121565b85602084015284604084015282810360608401526200134d818562001121565b979650505050505050565b7f416363657373436f6e74726f6c3a206163636f756e742000000000000000000081526000835162001392816017850160208801620010ee565b7001034b99036b4b9b9b4b733903937b6329607d1b6017918401918201528351620013c5816028840160208801620010ee565b01602801949350505050565b634e487b7160e01b600052601160045260246000fd5b6000816000190483118215151615620014045762001404620013d1565b500290565b600082198211156200141f576200141f620013d1565b500190565b634e487b7160e01b600052603260045260246000fd5b6000816200144c576200144c620013d1565b50600019019056fe608060405260405161072138038061072183398101604081905261002291610314565b61002e82826000610035565b5050610431565b61003e8361006b565b60008251118061004b5750805b156100665761006483836100ab60201b6100291760201c565b505b505050565b610074816100d7565b6040516001600160a01b038216907fbc7cd75a20ee27fd9adebab32041f755214dbc6bffa90cc0225b39da2e5c2d3b90600090a250565b60606100d083836040518060600160405280602781526020016106fa602791396101a9565b9392505050565b6100ea8161028760201b6100551760201c565b6101515760405162461bcd60e51b815260206004820152602d60248201527f455243313936373a206e657720696d706c656d656e746174696f6e206973206e60448201526c1bdd08184818dbdb9d1c9858dd609a1b60648201526084015b60405180910390fd5b806101887f360894a13ba1a3210667c828492db98dca3e2076cc3735a920a3ca505d382bbc60001b61029660201b6100641760201c565b80546001600160a01b0319166001600160a01b039290921691909117905550565b60606001600160a01b0384163b6102115760405162461bcd60e51b815260206004820152602660248201527f416464726573733a2064656c65676174652063616c6c20746f206e6f6e2d636f6044820152651b9d1c9858dd60d21b6064820152608401610148565b600080856001600160a01b03168560405161022c91906103e2565b600060405180830381855af49150503d8060008114610267576040519150601f19603f3d011682016040523d82523d6000602084013e61026c565b606091505b50909250905061027d828286610299565b9695505050505050565b6001600160a01b03163b151590565b90565b606083156102a85750816100d0565b8251156102b85782518084602001fd5b8160405162461bcd60e51b815260040161014891906103fe565b634e487b7160e01b600052604160045260246000fd5b60005b838110156103035781810151838201526020016102eb565b838111156100645750506000910152565b6000806040838503121561032757600080fd5b82516001600160a01b038116811461033e57600080fd5b60208401519092506001600160401b038082111561035b57600080fd5b818501915085601f83011261036f57600080fd5b815181811115610381576103816102d2565b604051601f8201601f19908116603f011681019083821181831017156103a9576103a96102d2565b816040528281528860208487010111156103c257600080fd5b6103d38360208301602088016102e8565b80955050505050509250929050565b600082516103f48184602087016102e8565b9190910192915050565b602081526000825180602084015261041d8160408501602087016102e8565b601f01601f19169190910160400192915050565b6102ba806104406000396000f3fe60806040523661001357610011610017565b005b6100115b610027610022610067565b61009f565b565b606061004e838360405180606001604052806027815260200161025e602791396100c3565b9392505050565b6001600160a01b03163b151590565b90565b600061009a7f360894a13ba1a3210667c828492db98dca3e2076cc3735a920a3ca505d382bbc546001600160a01b031690565b905090565b3660008037600080366000845af43d6000803e8080156100be573d6000f35b3d6000fd5b60606001600160a01b0384163b6101305760405162461bcd60e51b815260206004820152602660248201527f416464726573733a2064656c65676174652063616c6c20746f206e6f6e2d636f6044820152651b9d1c9858dd60d21b60648201526084015b60405180910390fd5b600080856001600160a01b03168560405161014b919061020e565b600060405180830381855af49150503d8060008114610186576040519150601f19603f3d011682016040523d82523d6000602084013e61018b565b606091505b509150915061019b8282866101a5565b9695505050505050565b606083156101b457508161004e565b8251156101c45782518084602001fd5b8160405162461bcd60e51b8152600401610127919061022a565b60005b838110156101f95781810151838201526020016101e1565b83811115610208576000848401525b50505050565b600082516102208184602087016101de565b9190910192915050565b60208152600082518060208401526102498160408501602087016101de565b601f01601f1916919091016040019291505056fe416464726573733a206c6f772d6c6576656c2064656c65676174652063616c6c206661696c6564a26469706673582212205be8939c41a2a706b8a66fdf07318197f05f48af48624137857a4dc7d000ff8764736f6c634300080d0033416464726573733a206c6f772d6c6576656c2064656c65676174652063616c6c206661696c6564a26469706673582212206205665ef3aac68202f25d5772854aa94beba22995e0b7bc9a44478e720ba53f64736f6c634300080d003360a0604052306080523480156200001557600080fd5b50600054610100900460ff1615808015620000375750600054600160ff909116105b8062000067575062000054306200014160201b620036e81760201c565b15801562000067575060005460ff166001145b620000cf5760405162461bcd60e51b815260206004820152602e60248201527f496e697469616c697a61626c653a20636f6e747261637420697320616c72656160448201526d191e481a5b9a5d1a585b1a5e995960921b606482015260840160405180910390fd5b6000805460ff191660011790558015620000f3576000805461ff0019166101001790555b80156200013a576000805461ff0019169055604051600181527f7f26b83ff96e1f2b6a682f133852f6798a09c465da95921460cefb38474024989060200160405180910390a15b5062000150565b6001600160a01b03163b151590565b608051615eaa6200018860003960008181611be101528181611c2101528181612065015281816120a501526122680152615eaa6000f3fe6080604052600436106104775760003560e01c806378d85c4e1161024a578063a7c721c511610139578063d547741f116100b6578063e985e9c51161007a578063e985e9c514610dc7578063e9c2651814610e10578063fbf97c5914610e32578063fdf27dba14610e60578063ff7808e914610e7757600080fd5b8063d547741f14610d39578063da3537a814610d59578063dd13745514610d6e578063dd7af03514610d90578063e6deb18d14610da757600080fd5b8063c32487aa116100fd578063c32487aa14610cb6578063c4e85b6314610cd8578063c87b56dd14610ced578063cc0f178614610d0d578063cda493c814610d2457600080fd5b8063a7c721c514610bb8578063abff011014610bcf578063ae501c0414610bf0578063b4ce37d214610c81578063b88d4fde14610c9657600080fd5b806393a057cd116101c75780639f7923401161018b5780639f79234014610b37578063a07ae16a14610b4e578063a217fddf14610b63578063a22cb46514610b78578063a7485cf114610b9857600080fd5b806393a057cd14610ac857806393de6dc814610adf57806395d89b4114610af65780639792641f14610b0b57806399087d3414610b2257600080fd5b80638802255f1161020e5780638802255f14610a355780638c82494914610a4d5780638caa098614610a555780639088feba14610a6c57806391d1485414610aa857600080fd5b806378d85c4e14610993578063816c42f6146109c05780638240b777146109d757806384139c8c146109ec5780638456cb5914610a2057600080fd5b80633f4ba83a11610366578063588dae3c116102e35780636c9d3b3a116102a75780636c9d3b3a146108e35780636e70096e146109115780636f2ef95b146109315780636fcf1e651461095e57806370a082311461097357600080fd5b8063588dae3c1461083d5780635c975abb1461085d57806361d027b3146108755780636352211e1461089657806369d85d54146108b657600080fd5b80634f6ccce71161032a5780634f6ccce7146107c057806351f0a93f146107e0578063522c2178146107f557806352d1902d14610810578063533573fe1461082557600080fd5b80633f4ba83a1461073457806342842e0e1461074957806344848fa4146107695780634b054fb41461079a5780634f1ef286146107ad57600080fd5b806321846c76116103f45780632f745c59116103b85780632f745c59146106a557806336568abe146106c55780633659cfe6146106e55780633af8e5eb146107055780633b95f00f1461071c57600080fd5b806321846c76146105f857806323b872dd14610615578063248a9ca3146106355780632a4c03cc146106655780632f2ff15d1461068557600080fd5b806312923b651161043b57806312923b651461054957806316bded361461058057806318160ddd146105a057806318fc77ae146105bf5780631d143848146105d257600080fd5b806301ffc9a71461048357806305bc64eb146104b857806306fdde03146104da578063081812fc146104ef578063095ea7b31461052757600080fd5b3661047e57005b600080fd5b34801561048f57600080fd5b506104a361049e3660046151c9565b610e8e565b60405190151581526020015b60405180910390f35b3480156104c457600080fd5b506104cd610e9f565b6040516104af919061523e565b3480156104e657600080fd5b506104cd610f2e565b3480156104fb57600080fd5b5061050f61050a366004615251565b610fc0565b6040516001600160a01b0390911681526020016104af565b34801561053357600080fd5b50610547610542366004615286565b610fe7565b005b34801561055557600080fd5b5061050f610564366004615251565b6101d0602052600090815260409020546001600160a01b031681565b34801561058c57600080fd5b5061054761059b366004615353565b611101565b3480156105ac57600080fd5b506099545b6040519081526020016104af565b6105476105cd366004615286565b6115ee565b3480156105de57600080fd5b506101d25461050f9061010090046001600160a01b031681565b610600611634565b604080519283526020830191909152016104af565b34801561062157600080fd5b5061054761063036600461543d565b6119e4565b34801561064157600080fd5b506105b1610650366004615251565b600090815260fb602052604090206001015490565b34801561067157600080fd5b50610547610680366004615479565b611a15565b34801561069157600080fd5b506105476106a0366004615494565b611a9e565b3480156106b157600080fd5b506105b16106c0366004615286565b611ac3565b3480156106d157600080fd5b506105476106e0366004615494565b611b59565b3480156106f157600080fd5b50610547610700366004615479565b611bd7565b34801561071157600080fd5b506105b16101c65481565b34801561072857600080fd5b506101d1546105b19081565b34801561074057600080fd5b50610547611cb6565b34801561075557600080fd5b5061054761076436600461543d565b611cd6565b34801561077557600080fd5b506104a3610784366004615479565b6101dd6020526000908152604090205460ff1681565b6105476107a8366004615286565b611cf1565b6105476107bb3660046154c0565b61205b565b3480156107cc57600080fd5b506105b16107db366004615251565b612127565b3480156107ec57600080fd5b506105b16121ba565b34801561080157600080fd5b506101d2546104a39060ff1681565b34801561081c57600080fd5b506105b161225b565b34801561083157600080fd5b506101d9546105b19081565b34801561084957600080fd5b506105b1610858366004615479565b61230e565b34801561086957600080fd5b5060c95460ff166104a3565b34801561088157600080fd5b506101d35461050f906001600160a01b031681565b3480156108a257600080fd5b5061050f6108b1366004615251565b612434565b3480156108c257600080fd5b506108d66108d1366004615479565b612494565b6040516104af919061550e565b3480156108ef57600080fd5b506105b16108fe366004615479565b6101da6020526000908152604090205481565b34801561091d57600080fd5b5061054761092c366004615251565b612536565b34801561093d57600080fd5b5061095161094c366004615251565b612922565b6040516104af9190615592565b34801561096a57600080fd5b5061054761298d565b34801561097f57600080fd5b506105b161098e366004615479565b612a1d565b34801561099f57600080fd5b506109b36109ae366004615251565b612aa3565b6040516104af91906155a0565b3480156109cc57600080fd5b506105b16101cd5481565b3480156109e357600080fd5b506105b1612c7d565b3480156109f857600080fd5b506105b17fadfdddb55357a51b30395613329be9f598b4863fca87921f7c811f8eca6cbcbd81565b348015610a2c57600080fd5b50610547612d2c565b348015610a4157600080fd5b506101d5546105b19081565b610547612d4c565b348015610a6157600080fd5b506105b16101ca5481565b348015610a7857600080fd5b506104a3610a8736600461562d565b6101dc60209081526000928352604080842090915290825290205460ff1681565b348015610ab457600080fd5b506104a3610ac3366004615494565b612d8f565b348015610ad457600080fd5b506105b16101cc5481565b348015610aeb57600080fd5b506105b16101c95481565b348015610b0257600080fd5b506104cd612dba565b348015610b1757600080fd5b506105b16101cf5481565b348015610b2e57600080fd5b50610547612dc9565b348015610b4357600080fd5b506105b16101db5481565b348015610b5a57600080fd5b50610547613030565b348015610b6f57600080fd5b506105b1600081565b348015610b8457600080fd5b50610547610b9336600461565d565b61321f565b348015610ba457600080fd5b506105b1610bb3366004615251565b61322a565b348015610bc457600080fd5b506105b16101d75481565b348015610bdb57600080fd5b506101d65461050f906001600160a01b031681565b348015610bfc57600080fd5b50610c4b610c0b366004615251565b6101d8602052600090815260409020805460018201546002830154600384015460048501546005909501549394929391926001600160a01b039091169186565b604080519687526020870195909552938501929092526001600160a01b03166060840152608083015260a082015260c0016104af565b348015610c8d57600080fd5b506104cd613241565b348015610ca257600080fd5b50610547610cb1366004615694565b61324f565b348015610cc257600080fd5b506101d3546104a390600160a01b900460ff1681565b348015610ce457600080fd5b50610547613287565b348015610cf957600080fd5b506104cd610d08366004615251565b6134a5565b348015610d1957600080fd5b506105b16101c75481565b348015610d3057600080fd5b506104cd6134ef565b348015610d4557600080fd5b50610547610d54366004615494565b6134fd565b348015610d6557600080fd5b506105b1613522565b348015610d7a57600080fd5b50610d8361353b565b6040516104af91906156fc565b348015610d9c57600080fd5b506105b16101cb5481565b348015610db357600080fd5b506105b1610dc2366004615479565b61363e565b348015610dd357600080fd5b506104a3610de236600461573e565b6001600160a01b039182166000908152606a6020908152604080832093909416825291909152205460ff1690565b348015610e1c57600080fd5b506105b1600080516020615e0e83398151915281565b348015610e3e57600080fd5b506105b1610e4d366004615251565b6101d46020526000908152604090205481565b348015610e6c57600080fd5b506105b16101c85481565b348015610e8357600080fd5b506105b16101ce5481565b6000610e99826136f7565b92915050565b6101c38054610ead90615768565b80601f0160208091040260200160405190810160405280929190818152602001828054610ed990615768565b8015610f265780601f10610efb57610100808354040283529160200191610f26565b820191906000526020600020905b815481529060010190602001808311610f0957829003601f168201915b505050505081565b606060658054610f3d90615768565b80601f0160208091040260200160405190810160405280929190818152602001828054610f6990615768565b8015610fb65780601f10610f8b57610100808354040283529160200191610fb6565b820191906000526020600020905b815481529060010190602001808311610f9957829003601f168201915b5050505050905090565b6000610fcb8261371c565b506000908152606960205260409020546001600160a01b031690565b6000610ff282612434565b9050806001600160a01b0316836001600160a01b0316036110645760405162461bcd60e51b815260206004820152602160248201527f4552433732313a20617070726f76616c20746f2063757272656e74206f776e656044820152603960f91b60648201526084015b60405180910390fd5b336001600160a01b038216148061108057506110808133610de2565b6110f25760405162461bcd60e51b815260206004820152603e60248201527f4552433732313a20617070726f76652063616c6c6572206973206e6f7420746f60448201527f6b656e206f776e6572206e6f7220617070726f76656420666f7220616c6c0000606482015260840161105b565b6110fc838361377b565b505050565b600054610100900460ff16158080156111215750600054600160ff909116105b8061113b5750303b15801561113b575060005460ff166001145b61119e5760405162461bcd60e51b815260206004820152602e60248201527f496e697469616c697a61626c653a20636f6e747261637420697320616c72656160448201526d191e481a5b9a5d1a585b1a5e995960921b606482015260840161105b565b6000805460ff1916600117905580156111c1576000805461ff0019166101001790555b60408051808201909152600680825265457363726f7760d01b60209092019182526111ef916101c3916150df565b5060408051808201909152600a808252690c0b8d8b8d0b5c1c9bd960b21b6020909201918252611222916101c4916150df565b508a516000036112595760405162461bcd60e51b8152602060048201526002602482015261045360f41b604482015260640161105b565b895160000361128f5760405162461bcd60e51b8152602060048201526002602482015261453160f01b604482015260640161105b565b88516000036112c55760405162461bcd60e51b8152602060048201526002602482015261229960f11b604482015260640161105b565b6305f5e10084106112fd5760405162461bcd60e51b8152602060048201526002602482015261453360f01b604482015260640161105b565b6001600160a01b0386166113385760405162461bcd60e51b8152602060048201526002602482015261114d60f21b604482015260640161105b565b6001600160a01b0385166113735760405162461bcd60e51b8152602060048201526002602482015261453560f01b604482015260640161105b565b600087116113a85760405162461bcd60e51b8152602060048201526002602482015261229b60f11b604482015260640161105b565b600088116113dd5760405162461bcd60e51b8152602060048201526002602482015261453760f01b604482015260640161105b565b868811156114125760405162461bcd60e51b815260206004820152600260248201526108a760f31b604482015260640161105b565b6001600160a01b03831661144d5760405162461bcd60e51b8152602060048201526002602482015261453960f01b604482015260640161105b565b6001600160a01b0382166114895760405162461bcd60e51b815260206004820152600360248201526204531360ec1b604482015260640161105b565b6114938b8b6137e9565b61149b61381a565b6114a3613843565b6114ab61381a565b6114b361381a565b426101c85560126101c681905560086101c75564e8d4a510006101c9556101ca5560006101ce556101cc8890556101cd8790556101d280546101d380546001600160a81b03199283166101006001600160a01b038b81169190910260ff191691909117600117909455919091168883161790556101d78590556101d680546001600160a01b0319169185169190911790558851611558906101c59060208c01906150df565b50611571600080516020615e0e83398151915286613872565b61159b7fadfdddb55357a51b30395613329be9f598b4863fca87921f7c811f8eca6cbcbd83613872565b80156115e1576000805461ff0019169055604051600181527f7f26b83ff96e1f2b6a682f133852f6798a09c465da95921460cefb38474024989060200160405180910390a15b5050505050505050505050565b600261019154036116115760405162461bcd60e51b815260040161105b9061579c565b60026101915561161f6138f8565b61162a33838361393e565b5050600161019155565b6000806002610191540361165a5760405162461bcd60e51b815260040161105b9061579c565b6002610191556116686138f8565b600034116116c35760405162461bcd60e51b815260206004820152602260248201527f5075726368617365206d7573742062652067726561746572207468616e207a65604482015261726f60f01b606482015260840161105b565b6101d3546001600160a01b0316330361171e5760405162461bcd60e51b815260206004820181905260248201527f54726561737572792063616e6e6f74207075726368617365207469636b657473604482015260640161105b565b6101d25460ff16151560011461179c5760405162461bcd60e51b815260206004820152603860248201527f5469636b6574732063616e6e6f7420626520707572636861736564206166746560448201527f72207468652066756e6472616973696e6720706572696f640000000000000000606482015260840161105b565b60006305f5e1006101d754346117b291906157e9565b6117bc919061581e565b905060006117ca8234615832565b905060006117d78261322a565b90506117e1613522565b8111156118405760405162461bcd60e51b815260206004820152602760248201527f4e6f7420656e6f756768207368617265732072656d61696e696e6720746f20706044820152667572636861736560c81b606482015260840161105b565b600061184c6101d55490565b905061185d6101d580546001019055565b60008181526101d4602090815260408083208590556101d1805484526101d090925290912080546001600160a01b0319163317905580546001019055816101cb546118a89190615849565b6101cb556101ce546118bb908490615849565b6101ce556101d35460408051308152602081018490529081018490526001600160a01b039091169033907f6a27e1b7df682d1c1dc3b964b500f4dd4c0bfc64128c9a47a8c7ad594301a77a9060600160405180910390a3826101cf546119219190615849565b6101cf556101d6546040516000916001600160a01b03169086908381818185875af1925050503d8060008114611973576040519150601f19603f3d011682016040523d82523d6000602084013e611978565b606091505b50509050806119c95760405162461bcd60e51b815260206004820181905260248201527f42726f6b657220636f756c64206e6f742072656365697665207061796d656e74604482015260640161105b565b6119d33383613c26565b509450925050506001610191559091565b6119ee3382613c40565b611a0a5760405162461bcd60e51b815260040161105b90615861565b6110fc838383613cbe565b60026101915403611a385760405162461bcd60e51b815260040161105b9061579c565b600261019155611a466138f8565b6101d25460ff1615611a805760405162461bcd60e51b815260206004820152600360248201526245323560e81b604482015260640161105b565b6000611a8b8261230e565b9050801561162a5761162a30838361393e565b600082815260fb6020526040902060010154611ab981613e65565b6110fc8383613872565b6000611ace83612a1d565b8210611b305760405162461bcd60e51b815260206004820152602b60248201527f455243373231456e756d657261626c653a206f776e657220696e646578206f7560448201526a74206f6620626f756e647360a81b606482015260840161105b565b506001600160a01b03919091166000908152609760209081526040808320938352929052205490565b6001600160a01b0381163314611bc95760405162461bcd60e51b815260206004820152602f60248201527f416363657373436f6e74726f6c3a2063616e206f6e6c792072656e6f756e636560448201526e103937b632b9903337b91039b2b63360891b606482015260840161105b565b611bd38282613e6f565b5050565b6001600160a01b037f0000000000000000000000000000000000000000000000000000000000000000163003611c1f5760405162461bcd60e51b815260040161105b906158af565b7f00000000000000000000000000000000000000000000000000000000000000006001600160a01b0316611c68600080516020615e2e833981519152546001600160a01b031690565b6001600160a01b031614611c8e5760405162461bcd60e51b815260040161105b906158fb565b611c9781613ed6565b60408051600080825260208201909252611cb391839190613eee565b50565b600080516020615e0e833981519152611cce81613e65565b611cb3614059565b6110fc8383836040518060200160405280600081525061324f565b60026101915403611d145760405162461bcd60e51b815260040161105b9061579c565b600261019155611d226138f8565b6001600160a01b038216611d5e5760405162461bcd60e51b815260206004820152600360248201526245313160e81b604482015260640161105b565b60008111611d945760405162461bcd60e51b815260206004820152600360248201526245313360e81b604482015260640161105b565b60006305f5e1006101d75434611daa91906157e9565b611db4919061581e565b90506000611dc28234615832565b90506000611dcf8261322a565b9050611dd9613522565b811115611e0e5760405162461bcd60e51b8152602060048201526003602482015262114c4d60ea1b604482015260640161105b565b806101cb54611e1d9190615849565b6101cb556101ce54611e30908390615849565b6101ce556101cf54611e43908390615849565b6101cf556101d6546040516000916001600160a01b03169085908381818185875af1925050503d8060008114611e95576040519150601f19603f3d011682016040523d82523d6000602084013e611e9a565b606091505b5050905080611ed15760405162461bcd60e51b815260206004820152600360248201526245313560e81b604482015260640161105b565b336101d06000611ee16101d15490565b815260200190815260200160002060006101000a8154816001600160a01b0302191690836001600160a01b03160217905550611f226101d180546001019055565b816000611f2f878361581e565b905060005b87811015611fdb5787611f48826001615849565b1015611f8057816101d46000611f5e6101d55490565b8152602081019190915260400160002055611f798284615832565b9250611fa7565b826101d46000611f906101d55490565b815260200190815260200160002081905550600092505b611fba89611fb56101d55490565b613c26565b611fc96101d580546001019055565b80611fd381615947565b915050611f34565b506101d3546001600160a01b0316337f6a27e1b7df682d1c1dc3b964b500f4dd4c0bfc64128c9a47a8c7ad594301a77a3060016120186101d55490565b6120229190615832565b604080516001600160a01b0390931683526020830191909152810188905260600160405180910390a35050505050505050600161019155565b6001600160a01b037f00000000000000000000000000000000000000000000000000000000000000001630036120a35760405162461bcd60e51b815260040161105b906158af565b7f00000000000000000000000000000000000000000000000000000000000000006001600160a01b03166120ec600080516020615e2e833981519152546001600160a01b031690565b6001600160a01b0316146121125760405162461bcd60e51b815260040161105b906158fb565b61211b82613ed6565b611bd382826001613eee565b600061213260995490565b82106121955760405162461bcd60e51b815260206004820152602c60248201527f455243373231456e756d657261626c653a20676c6f62616c20696e646578206f60448201526b7574206f6620626f756e647360a01b606482015260840161105b565b609982815481106121a8576121a8615960565b90600052602060002001549050919050565b600080805b6101d9548110156122555760008181526101d86020908152604091829020825160c0810184528154815260018201549281019290925260028101549282019290925260038201546001600160a01b0316606082018190526004830154608083015260059092015460a08201529061224257604081015161223f9084615849565b92505b508061224d81615947565b9150506121bf565b50919050565b6000306001600160a01b037f000000000000000000000000000000000000000000000000000000000000000016146122fb5760405162461bcd60e51b815260206004820152603860248201527f555550535570677261646561626c653a206d757374206e6f742062652063616c60448201527f6c6564207468726f7567682064656c656761746563616c6c0000000000000000606482015260840161105b565b50600080516020615e2e83398151915290565b600080805b6101d9548110156123b15760008181526101d86020908152604091829020825160c0810184528154815260018201549281019290925260028101549282019290925260038201546001600160a01b03908116606083018190526004840154608084015260059093015460a08301529091908616900361239e57608081015161239b9084615849565b92505b50806123a981615947565b915050612313565b506040516370a0823160e01b8152306004820152839060009083906001600160a01b038416906370a0823190602401602060405180830381865afa1580156123fd573d6000803e3d6000fd5b505050506040513d601f19601f820116820180604052508101906124219190615976565b61242b9190615832565b95945050505050565b6000818152606760205260408120546001600160a01b031680610e995760405162461bcd60e51b8152602060048201526018602482015277115490cdcc8c4e881a5b9d985b1a59081d1bdad95b88125160421b604482015260640161105b565b606060006124a183612a1d565b905060008167ffffffffffffffff8111156124be576124be6152b0565b6040519080825280602002602001820160405280156124e7578160200160208202803683370190505b50905060005b8281101561252e576124ff8582611ac3565b82828151811061251157612511615960565b60209081029190910101528061252681615947565b9150506124ed565b509392505050565b600261019154036125595760405162461bcd60e51b815260040161105b9061579c565b6002610191556125676138f8565b6101d25460ff16156125a15760405162461bcd60e51b815260206004820152600360248201526208a64760eb1b604482015260640161105b565b336125ab82612434565b6001600160a01b0316146126015760405162461bcd60e51b815260206004820152601a60248201527f596f7520646f206e6f74206f776e2074686973207469636b6574000000000000604482015260640161105b565b60008181526101d46020526040812054905b6101d9548110156129175760008181526101d860209081526040808320815160c081018352815481526001808301548286015260028301548285015260038301546001600160a01b031660608301526004830154608083015260059092015460a08201528785526101dc845282852081518652909352922054909160ff9091161515146129045760008481526101dc60209081526040808320845184529091529020805460ff1916600117905560608101516001600160a01b0316156127dd5760006101cb548483608001516126e991906157e9565b6126f3919061581e565b8251606084015160405192935033927f981eda60172361092f12c75de05c753d28c928d6fb0b4b6492e685a44265fc0a926127379230928b9291600091899061598f565b60405180910390a260608201516001600160a01b0381166323b872dd3061275d89612434565b6040516001600160e01b031960e085901b1681526001600160a01b03928316600482015291166024820152604481018590526064016020604051808303816000875af11580156127b1573d6000803e3d6000fd5b505050506040513d601f19601f820116820180604052508101906127d591906159ca565b505050612904565b60006101cb548483604001516127f391906157e9565b6127fd919061581e565b825160405191925033917f981eda60172361092f12c75de05c753d28c928d6fb0b4b6492e685a44265fc0a9161283d9130918a918790600090819061598f565b60405180910390a2600061285086612434565b6001600160a01b03168260405160006040518083038185875af1925050503d806000811461289a576040519150601f19603f3d011682016040523d82523d6000602084013e61289f565b606091505b50509050806129015760405162461bcd60e51b815260206004820152602860248201527f5469636b657420686f6c64657220636f756c64206e6f742072656365697665206044820152676561726e696e677360c01b606482015260840161105b565b50505b508061290f81615947565b915050612613565b505060016101915550565b61292a61515f565b5060009081526101d86020908152604091829020825160c0810184528154815260018201549281019290925260028101549282019290925260038201546001600160a01b031660608201526004820154608082015260059091015460a082015290565b600261019154036129b05760405162461bcd60e51b815260040161105b9061579c565b6002610191556129be6138f8565b6101d25460ff16156129f85760405162461bcd60e51b815260206004820152600360248201526222989b60e91b604482015260640161105b565b6000612a02612c7d565b90508015612a1457612a1430826140ab565b50600161019155565b60006001600160a01b038216612a875760405162461bcd60e51b815260206004820152602960248201527f4552433732313a2061646472657373207a65726f206973206e6f7420612076616044820152683634b21037bbb732b960b91b606482015260840161105b565b506001600160a01b031660009081526068602052604090205490565b60008181526101d46020526040902054606090612ac06101d95490565b67ffffffffffffffff811115612ad857612ad86152b0565b604051908082528060200260200182016040528015612b5457816020015b612b416040518060e0016040528060008152602001600081526020016000151581526020016000815260200160006001600160a01b0316815260200160008152602001600081525090565b815260200190600190039081612af65790505b50915060005b6101d954811015612c76576101cb5460008281526101d86020526040812060020154909190612b8a9085906157e9565b612b94919061581e565b6101cb5460008481526101d8602052604081206004015492935091612bba9086906157e9565b612bc4919061581e565b6040805160e08101825288815260008681526101d8602081815284832080548286018190528d85526101dc835286852090855282528584205460ff161515958501959095526060840188905260038501546001600160a01b0316608085015260a0840186905291889052905260059091015460c08201528651919250908190879086908110612c5557612c55615960565b60200260200101819052505050508080612c6e90615947565b915050612b5a565b5050919050565b600080805b6101d954811015612d185760008181526101d86020908152604091829020825160c0810184528154815260018201549281019290925260028101549282019290925260038201546001600160a01b0316606082018190526004830154608083015260059092015460a082015290612d05576040810151612d029084615849565b92505b5080612d1081615947565b915050612c82565b506000612d258247615832565b9392505050565b600080516020615e0e833981519152612d4481613e65565b611cb36142d0565b60026101915403612d6f5760405162461bcd60e51b815260040161105b9061579c565b600261019155612d7d6138f8565b612d8733346140ab565b600161019155565b600091825260fb602090815260408084206001600160a01b0393909316845291905290205460ff1690565b606060668054610f3d90615768565b60026101915403612dec5760405162461bcd60e51b815260040161105b9061579c565b600261019155612dfa6138f8565b6101d25460ff161515600114612e225760405162461bcd60e51b815260040161105b906159e7565b62278d006101c85442612e359190615832565b11612ec457612e52600080516020615e0e83398151915233612d8f565b612ec45760405162461bcd60e51b815260206004820152603860248201527f4f6e6c7920746865206973737565722063616e2063616e63656c20746865206660448201527f756e64726169736572206265666f726520333020646179730000000000000000606482015260840161105b565b6101d2805460ff191690556101cf805460009091556101db54612ee8908290615849565b6101db556000612ef86101d95490565b6040805160c081018252828152436020808301918252828401878152600060608501818152608086018281524260a088019081528984526101d8909552878320875181559551600187015592516002860155516003850180546001600160a01b0319166001600160a01b0390921691909117905590516004840155905160059092019190915591519293509133917fce3ede2e266c8c5ec60064c2a65ba25bd2899a334c42b39b742129c49b1ef1c491612fb9913091879189918190615a2b565b60405180910390a2612fd06101d980546001019055565b6101ce546101cb5460408051308082526020820194909452908101869052606081019190915233907f27f5bdb31297d70b551a9b987c293026b2377a1eacd5bf8adac76067d1fcd0b29060800160405180910390a3505060016101915550565b600261019154036130535760405162461bcd60e51b815260040161105b9061579c565b6002610191556130616138f8565b6101d25460ff1615156001146130895760405162461bcd60e51b815260040161105b906159e7565b6101cc546101cb5410156131145760405162461bcd60e51b815260206004820152604660248201527f46756e6472616973696e6720706572696f642063616e206f6e6c7920656e642060448201527f6966207468652066756e6472616973696e672074617267657420686173206265606482015265195b881a1a5d60d21b608482015260a40161105b565b6101d2805460ff1916908190556101cf805460009091556101d3546101ce546101cb546040805130815260208101939093528201849052606082015291926001600160a01b0391821692610100909104909116907f27f5bdb31297d70b551a9b987c293026b2377a1eacd5bf8adac76067d1fcd0b29060800160405180910390a36101d3546040516000916001600160a01b03169083908381818185875af1925050503d80600081146131e3576040519150601f19603f3d011682016040523d82523d6000602084013e6131e8565b606091505b505090508061162a5760405162461bcd60e51b815260206004820152600360248201526245323760e81b604482015260640161105b565b611bd333838361430d565b600060128161323984836143db565b949350505050565b6101c58054610ead90615768565b6132593383613c40565b6132755760405162461bcd60e51b815260040161105b90615861565b6132818484848461441d565b50505050565b7fadfdddb55357a51b30395613329be9f598b4863fca87921f7c811f8eca6cbcbd6132b181613e65565b60005b6101d95481101561348d5760008181526101d860205260409020600301546001600160a01b0316156133ef5760008181526101d8602052604090819020600301546101d35491516370a0823160e01b815230600482018190526001600160a01b039283169384936323b872dd9391169084906370a0823190602401602060405180830381865afa15801561334c573d6000803e3d6000fd5b505050506040513d601f19601f820116820180604052508101906133709190615976565b6040516001600160e01b031960e086901b1681526001600160a01b03938416600482015292909116602483015260448201526064016020604051808303816000875af11580156133c4573d6000803e3d6000fd5b505050506040513d601f19601f820116820180604052508101906133e891906159ca565b505061347b565b6101d3546040516000916001600160a01b03169047908381818185875af1925050503d806000811461343d576040519150601f19603f3d011682016040523d82523d6000602084013e613442565b606091505b50509050806134795760405162461bcd60e51b815260206004820152600360248201526222991b60e91b604482015260640161105b565b505b8061348581615947565b9150506132b4565b50506101d3805460ff60a01b1916600160a01b179055565b606060006134b4306014614450565b905060006101c5826134c5866145ec565b6040516020016134d793929190615a7a565b60408051601f19818403018152919052949350505050565b6101c48054610ead90615768565b600082815260fb602052604090206001015461351881613e65565b6110fc8383613e6f565b60006101cb546101cd546135369190615832565b905090565b60606135476101d95490565b67ffffffffffffffff81111561355f5761355f6152b0565b60405190808252806020026020018201604052801561359857816020015b61358561515f565b81526020019060019003908161357d5790505b50905060005b6101d95481101561363a5760008181526101d86020908152604091829020825160c0810184528154815260018201549281019290925260028101549282019290925260038201546001600160a01b031660608201526004820154608082015260059091015460a0820152825183908390811061361c5761361c615960565b6020026020010181905250808061363290615947565b91505061359e565b5090565b600080805b6101d9548110156136e15760008181526101d86020908152604091829020825160c0810184528154815260018201549281019290925260028101549282019290925260038201546001600160a01b03908116606083018190526004840154608084015260059093015460a0830152909190861690036136ce5760808101516136cb9084615849565b92505b50806136d981615947565b915050613643565b5092915050565b6001600160a01b03163b151590565b60006001600160e01b03198216637965db0b60e01b1480610e995750610e99826146ed565b6000818152606760205260409020546001600160a01b0316611cb35760405162461bcd60e51b8152602060048201526018602482015277115490cdcc8c4e881a5b9d985b1a59081d1bdad95b88125160421b604482015260640161105b565b600081815260696020526040902080546001600160a01b0319166001600160a01b03841690811790915581906137b082612434565b6001600160a01b03167f8c5be1e5ebec7d5bd14f71427d1e84f3dd0314c0f7b2291e5b200ac8c7c3b92560405160405180910390a45050565b600054610100900460ff166138105760405162461bcd60e51b815260040161105b90615b54565b611bd38282614712565b600054610100900460ff166138415760405162461bcd60e51b815260040161105b90615b54565b565b600054610100900460ff1661386a5760405162461bcd60e51b815260040161105b90615b54565b613841614760565b61387c8282612d8f565b611bd357600082815260fb602090815260408083206001600160a01b03851684529091529020805460ff191660011790556138b43390565b6001600160a01b0316816001600160a01b0316837f2f8788117e7eff1d82e926ec794901d17c78024a50270940304540a733656f0d60405160405180910390a45050565b60c95460ff16156138415760405162461bcd60e51b815260206004820152601060248201526f14185d5cd8589b194e881c185d5cd95960821b604482015260640161105b565b6101d25460ff16156139785760405162461bcd60e51b815260206004820152600360248201526245323160e81b604482015260640161105b565b60006101cb54116139b15760405162461bcd60e51b815260206004820152600360248201526222991960e91b604482015260640161105b565b34156139e55760405162461bcd60e51b815260206004820152600360248201526245323360e81b604482015260640161105b565b60008111613a1b5760405162461bcd60e51b8152602060048201526003602482015262114c8d60ea1b604482015260640161105b565b6001600160a01b03821660009081526101da6020526040902054613a40908290615849565b6001600160a01b0383811660008181526101da60209081526040808320959095556101d954855160c0810187528181524381840190815281880185815260608301968752608083018a81524260a085019081528588526101d890965289872084518155925160018401559051600283015595516003820180546001600160a01b03191691891691909117905594516004860155915160059094019390935593519193928716917fce3ede2e266c8c5ec60064c2a65ba25bd2899a334c42b39b742129c49b1ef1c491613b1991309187918a908a90615a2b565b60405180910390a2613b306101d980546001019055565b60405163095ea7b360e01b81523060048201526024810184905284906001600160a01b0382169063095ea7b3906044016020604051808303816000875af1158015613b7f573d6000803e3d6000fd5b505050506040513d601f19601f82011682018060405250810190613ba391906159ca565b506040516323b872dd60e01b81526001600160a01b038781166004830152306024830152604482018690528216906323b872dd906064016020604051808303816000875af1158015613bf9573d6000803e3d6000fd5b505050506040513d601f19601f82011682018060405250810190613c1d91906159ca565b50505050505050565b611bd3828260405180602001604052806000815250614793565b600080613c4c83612434565b9050806001600160a01b0316846001600160a01b03161480613c9357506001600160a01b038082166000908152606a602090815260408083209388168352929052205460ff165b806132395750836001600160a01b0316613cac84610fc0565b6001600160a01b031614949350505050565b826001600160a01b0316613cd182612434565b6001600160a01b031614613d355760405162461bcd60e51b815260206004820152602560248201527f4552433732313a207472616e736665722066726f6d20696e636f72726563742060448201526437bbb732b960d91b606482015260840161105b565b6001600160a01b038216613d975760405162461bcd60e51b8152602060048201526024808201527f4552433732313a207472616e7366657220746f20746865207a65726f206164646044820152637265737360e01b606482015260840161105b565b613da28383836147c6565b613dad60008261377b565b6001600160a01b0383166000908152606860205260408120805460019290613dd6908490615832565b90915550506001600160a01b0382166000908152606860205260408120805460019290613e04908490615849565b909155505060008181526067602052604080822080546001600160a01b0319166001600160a01b0386811691821790925591518493918716917fddf252ad1be2c89b69c2b068fc378daa952ba7f163c4a11628f55a4df523b3ef91a4505050565b611cb381336147d9565b613e798282612d8f565b15611bd357600082815260fb602090815260408083206001600160a01b0385168085529252808320805460ff1916905551339285917ff6391f5c32d9c69d2a47ea670b442974b53935d1edc7fd64eb21e047a839171b9190a45050565b600080516020615e0e833981519152611bd381613e65565b7f4910fdfa16fed3260ed0e7147f7cc6da11a60208b5b9406d12a635614ffd91435460ff1615613f21576110fc8361483d565b826001600160a01b03166352d1902d6040518163ffffffff1660e01b8152600401602060405180830381865afa925050508015613f7b575060408051601f3d908101601f19168201909252613f7891810190615976565b60015b613fde5760405162461bcd60e51b815260206004820152602e60248201527f45524331393637557067726164653a206e657720696d706c656d656e7461746960448201526d6f6e206973206e6f74205555505360901b606482015260840161105b565b600080516020615e2e833981519152811461404d5760405162461bcd60e51b815260206004820152602960248201527f45524331393637557067726164653a20756e737570706f727465642070726f786044820152681a58589b195555525160ba1b606482015260840161105b565b506110fc8383836148d9565b6140616148fe565b60c9805460ff191690557f5db9ee0a495bf2e6ff9c91a7834c1ba4fdd244a5e8aa4e537bd38aeae4b073aa335b6040516001600160a01b03909116815260200160405180910390a1565b6101d25460ff16156140e55760405162461bcd60e51b815260206004820152600360248201526245313760e81b604482015260640161105b565b60006101cb541161411e5760405162461bcd60e51b815260206004820152600360248201526208a62760eb1b604482015260640161105b565b600081116141545760405162461bcd60e51b815260206004820152600360248201526245313960e81b604482015260640161105b565b806101db546141639190615849565b6101db5560006141736101d95490565b6040805160c081018252828152436020808301918252828401878152600060608501818152608086018281524260a088019081528984526101d8909552878320875181559551600187015592516002860155516003850180546001600160a01b0319166001600160a01b0392831617905591516004850155915160059093019290925592519394509092908616917fce3ede2e266c8c5ec60064c2a65ba25bd2899a334c42b39b742129c49b1ef1c491614234913091879189918190615a2b565b60405180910390a261424b6101d980546001019055565b604051600090309085908381818185875af1925050503d806000811461428d576040519150601f19603f3d011682016040523d82523d6000602084013e614292565b606091505b50509050806142c95760405162461bcd60e51b815260206004820152600360248201526204532360ec1b604482015260640161105b565b5050505050565b6142d86138f8565b60c9805460ff191660011790557f62e78cea01bee320cd4e420270b5ea74000d11b0c9f74754ebdbfc544b05a25861408e3390565b816001600160a01b0316836001600160a01b03160361436e5760405162461bcd60e51b815260206004820152601960248201527f4552433732313a20617070726f766520746f2063616c6c657200000000000000604482015260640161105b565b6001600160a01b038381166000818152606a6020908152604080832094871680845294825291829020805460ff191686151590811790915591519182527f17307eab39ab6107e8899845ad3d59bd9653f200f220920489ca2b5937696c31910160405180910390a3505050565b60006101c954826101ca546101c6546143f49190615849565b6143fe9190615832565b61440990600a615c83565b61441390856157e9565b612d25919061581e565b614428848484613cbe565b61443484848484614947565b6132815760405162461bcd60e51b815260040161105b90615c8f565b6060600061445f8360026157e9565b61446a906002615849565b67ffffffffffffffff811115614482576144826152b0565b6040519080825280601f01601f1916602001820160405280156144ac576020820181803683370190505b509050600360fc1b816000815181106144c7576144c7615960565b60200101906001600160f81b031916908160001a905350600f60fb1b816001815181106144f6576144f6615960565b60200101906001600160f81b031916908160001a905350600061451a8460026157e9565b614525906001615849565b90505b600181111561459d576f181899199a1a9b1b9c1cb0b131b232b360811b85600f166010811061455957614559615960565b1a60f81b82828151811061456f5761456f615960565b60200101906001600160f81b031916908160001a90535060049490941c9361459681615ce1565b9050614528565b508315612d255760405162461bcd60e51b815260206004820181905260248201527f537472696e67733a20686578206c656e67746820696e73756666696369656e74604482015260640161105b565b6060816000036146135750506040805180820190915260018152600360fc1b602082015290565b8160005b811561463d578061462781615947565b91506146369050600a8361581e565b9150614617565b60008167ffffffffffffffff811115614658576146586152b0565b6040519080825280601f01601f191660200182016040528015614682576020820181803683370190505b5090505b841561323957614697600183615832565b91506146a4600a86615cf8565b6146af906030615849565b60f81b8183815181106146c4576146c4615960565b60200101906001600160f81b031916908160001a9053506146e6600a8661581e565b9450614686565b60006001600160e01b0319821663780e9d6360e01b1480610e995750610e9982614a48565b600054610100900460ff166147395760405162461bcd60e51b815260040161105b90615b54565b815161474c9060659060208501906150df565b5080516110fc9060669060208401906150df565b600054610100900460ff166147875760405162461bcd60e51b815260040161105b90615b54565b60c9805460ff19169055565b61479d8383614a98565b6147aa6000848484614947565b6110fc5760405162461bcd60e51b815260040161105b90615c8f565b6147ce6138f8565b6110fc838383614be6565b6147e38282612d8f565b611bd3576147fb816001600160a01b03166014614c9e565b614806836020614c9e565b604051602001614817929190615d0c565b60408051601f198184030181529082905262461bcd60e51b825261105b9160040161523e565b6001600160a01b0381163b6148aa5760405162461bcd60e51b815260206004820152602d60248201527f455243313936373a206e657720696d706c656d656e746174696f6e206973206e60448201526c1bdd08184818dbdb9d1c9858dd609a1b606482015260840161105b565b600080516020615e2e83398151915280546001600160a01b0319166001600160a01b0392909216919091179055565b6148e283614deb565b6000825111806148ef5750805b156110fc576132818383614e2b565b60c95460ff166138415760405162461bcd60e51b815260206004820152601460248201527314185d5cd8589b194e881b9bdd081c185d5cd95960621b604482015260640161105b565b60006001600160a01b0384163b15614a3d57604051630a85bd0160e11b81526001600160a01b0385169063150b7a029061498b903390899088908890600401615d81565b6020604051808303816000875af19250505080156149c6575060408051601f3d908101601f191682019092526149c391810190615dbe565b60015b614a23573d8080156149f4576040519150601f19603f3d011682016040523d82523d6000602084013e6149f9565b606091505b508051600003614a1b5760405162461bcd60e51b815260040161105b90615c8f565b805181602001fd5b6001600160e01b031916630a85bd0160e11b149050613239565b506001949350505050565b60006001600160e01b031982166380ac58cd60e01b1480614a7957506001600160e01b03198216635b5e139f60e01b145b80610e9957506301ffc9a760e01b6001600160e01b0319831614610e99565b6001600160a01b038216614aee5760405162461bcd60e51b815260206004820181905260248201527f4552433732313a206d696e7420746f20746865207a65726f2061646472657373604482015260640161105b565b6000818152606760205260409020546001600160a01b031615614b535760405162461bcd60e51b815260206004820152601c60248201527f4552433732313a20746f6b656e20616c7265616479206d696e74656400000000604482015260640161105b565b614b5f600083836147c6565b6001600160a01b0382166000908152606860205260408120805460019290614b88908490615849565b909155505060008181526067602052604080822080546001600160a01b0319166001600160a01b03861690811790915590518392907fddf252ad1be2c89b69c2b068fc378daa952ba7f163c4a11628f55a4df523b3ef908290a45050565b6001600160a01b038316614c4157614c3c81609980546000838152609a60205260408120829055600182018355919091527f72a152ddfb8e864297c917af52ea6c1c68aead0fee1a62673fcc7e0c94979d000155565b614c64565b816001600160a01b0316836001600160a01b031614614c6457614c648382614f16565b6001600160a01b038216614c7b576110fc81614fb3565b826001600160a01b0316826001600160a01b0316146110fc576110fc8282615062565b60606000614cad8360026157e9565b614cb8906002615849565b67ffffffffffffffff811115614cd057614cd06152b0565b6040519080825280601f01601f191660200182016040528015614cfa576020820181803683370190505b509050600360fc1b81600081518110614d1557614d15615960565b60200101906001600160f81b031916908160001a905350600f60fb1b81600181518110614d4457614d44615960565b60200101906001600160f81b031916908160001a9053506000614d688460026157e9565b614d73906001615849565b90505b600181111561459d576f181899199a1a9b1b9c1cb0b131b232b360811b85600f1660108110614da757614da7615960565b1a60f81b828281518110614dbd57614dbd615960565b60200101906001600160f81b031916908160001a90535060049490941c93614de481615ce1565b9050614d76565b614df48161483d565b6040516001600160a01b038216907fbc7cd75a20ee27fd9adebab32041f755214dbc6bffa90cc0225b39da2e5c2d3b90600090a250565b60606001600160a01b0383163b614e935760405162461bcd60e51b815260206004820152602660248201527f416464726573733a2064656c65676174652063616c6c20746f206e6f6e2d636f6044820152651b9d1c9858dd60d21b606482015260840161105b565b600080846001600160a01b031684604051614eae9190615ddb565b600060405180830381855af49150503d8060008114614ee9576040519150601f19603f3d011682016040523d82523d6000602084013e614eee565b606091505b509150915061242b8282604051806060016040528060278152602001615e4e602791396150a6565b60006001614f2384612a1d565b614f2d9190615832565b600083815260986020526040902054909150808214614f80576001600160a01b03841660009081526097602090815260408083208584528252808320548484528184208190558352609890915290208190555b5060009182526098602090815260408084208490556001600160a01b039094168352609781528383209183525290812055565b609954600090614fc590600190615832565b6000838152609a602052604081205460998054939450909284908110614fed57614fed615960565b90600052602060002001549050806099838154811061500e5761500e615960565b6000918252602080832090910192909255828152609a9091526040808220849055858252812055609980548061504657615046615df7565b6001900381819060005260206000200160009055905550505050565b600061506d83612a1d565b6001600160a01b039093166000908152609760209081526040808320868452825280832085905593825260989052919091209190915550565b606083156150b5575081612d25565b8251156150c55782518084602001fd5b8160405162461bcd60e51b815260040161105b919061523e565b8280546150eb90615768565b90600052602060002090601f01602090048101928261510d5760008555615153565b82601f1061512657805160ff1916838001178555615153565b82800160010185558215615153579182015b82811115615153578251825591602001919060010190615138565b5061363a92915061519e565b6040518060c0016040528060008152602001600081526020016000815260200160006001600160a01b0316815260200160008152602001600081525090565b5b8082111561363a576000815560010161519f565b6001600160e01b031981168114611cb357600080fd5b6000602082840312156151db57600080fd5b8135612d25816151b3565b60005b838110156152015781810151838201526020016151e9565b838111156132815750506000910152565b6000815180845261522a8160208601602086016151e6565b601f01601f19169290920160200192915050565b602081526000612d256020830184615212565b60006020828403121561526357600080fd5b5035919050565b80356001600160a01b038116811461528157600080fd5b919050565b6000806040838503121561529957600080fd5b6152a28361526a565b946020939093013593505050565b634e487b7160e01b600052604160045260246000fd5b600082601f8301126152d757600080fd5b813567ffffffffffffffff808211156152f2576152f26152b0565b604051601f8301601f19908116603f0116810190828211818310171561531a5761531a6152b0565b8160405283815286602085880101111561533357600080fd5b836020870160208301376000602085830101528094505050505092915050565b6000806000806000806000806000806101408b8d03121561537357600080fd5b8a3567ffffffffffffffff8082111561538b57600080fd5b6153978e838f016152c6565b9b5060208d01359150808211156153ad57600080fd5b6153b98e838f016152c6565b9a5060408d01359150808211156153cf57600080fd5b506153dc8d828e016152c6565b98505060608b0135965060808b013595506153f960a08c0161526a565b945061540760c08c0161526a565b935060e08b0135925061541d6101008c0161526a565b915061542c6101208c0161526a565b90509295989b9194979a5092959850565b60008060006060848603121561545257600080fd5b61545b8461526a565b92506154696020850161526a565b9150604084013590509250925092565b60006020828403121561548b57600080fd5b612d258261526a565b600080604083850312156154a757600080fd5b823591506154b76020840161526a565b90509250929050565b600080604083850312156154d357600080fd5b6154dc8361526a565b9150602083013567ffffffffffffffff8111156154f857600080fd5b615504858286016152c6565b9150509250929050565b6020808252825182820181905260009190848201906040850190845b818110156155465783518352928401929184019160010161552a565b50909695505050505050565b8051825260208082015190830152604080820151908301526060808201516001600160a01b0316908301526080808201519083015260a090810151910152565b60c08101610e998284615552565b602080825282518282018190526000919060409081850190868401855b8281101561562057815180518552868101518786015285810151151586860152606080820151908601526080808201516001600160a01b03169086015260a0808201519086015260c0908101519085015260e090930192908501906001016155bd565b5091979650505050505050565b6000806040838503121561564057600080fd5b50508035926020909101359150565b8015158114611cb357600080fd5b6000806040838503121561567057600080fd5b6156798361526a565b915060208301356156898161564f565b809150509250929050565b600080600080608085870312156156aa57600080fd5b6156b38561526a565b93506156c16020860161526a565b925060408501359150606085013567ffffffffffffffff8111156156e457600080fd5b6156f0878288016152c6565b91505092959194509250565b6020808252825182820181905260009190848201906040850190845b818110156155465761572b838551615552565b9284019260c09290920191600101615718565b6000806040838503121561575157600080fd5b61575a8361526a565b91506154b76020840161526a565b600181811c9082168061577c57607f821691505b60208210810361225557634e487b7160e01b600052602260045260246000fd5b6020808252601f908201527f5265656e7472616e637947756172643a207265656e7472616e742063616c6c00604082015260600190565b634e487b7160e01b600052601160045260246000fd5b6000816000190483118215151615615803576158036157d3565b500290565b634e487b7160e01b600052601260045260246000fd5b60008261582d5761582d615808565b500490565b600082821015615844576158446157d3565b500390565b6000821982111561585c5761585c6157d3565b500190565b6020808252602e908201527f4552433732313a2063616c6c6572206973206e6f7420746f6b656e206f776e6560408201526d1c881b9bdc88185c1c1c9bdd995960921b606082015260800190565b6020808252602c908201527f46756e6374696f6e206d7573742062652063616c6c6564207468726f7567682060408201526b19195b1959d85d1958d85b1b60a21b606082015260800190565b6020808252602c908201527f46756e6374696f6e206d7573742062652063616c6c6564207468726f7567682060408201526b6163746976652070726f787960a01b606082015260800190565b600060018201615959576159596157d3565b5060010190565b634e487b7160e01b600052603260045260246000fd5b60006020828403121561598857600080fd5b5051919050565b6001600160a01b039687168152602081019590955260408501939093526060840191909152909216608082015260a081019190915260c00190565b6000602082840312156159dc57600080fd5b8151612d258161564f565b60208082526024908201527f46756e6472616973696e6720706572696f642068617320616c726561647920656040820152631b99195960e21b606082015260800190565b6001600160a01b039586168152602081019490945260408401929092529092166060820152608081019190915260a00190565b60008151615a708185602086016151e6565b9290920192915050565b600080855481600182811c915080831680615a9657607f831692505b60208084108203615ab557634e487b7160e01b86526022600452602486fd5b818015615ac95760018114615ada57615b07565b60ff19861689528489019650615b07565b60008c81526020902060005b86811015615aff5781548b820152908501908301615ae6565b505084890196505b5050602f60f81b855250615b1d81850189615a5e565b602f60f81b81529350615b3281850188615a5e565b9350505050615b488164173539b7b760d91b9052565b60050195945050505050565b6020808252602b908201527f496e697469616c697a61626c653a20636f6e7472616374206973206e6f74206960408201526a6e697469616c697a696e6760a81b606082015260800190565b600181815b80851115615bda578160001904821115615bc057615bc06157d3565b80851615615bcd57918102915b93841c9390800290615ba4565b509250929050565b600082615bf157506001610e99565b81615bfe57506000610e99565b8160018114615c145760028114615c1e57615c3a565b6001915050610e99565b60ff841115615c2f57615c2f6157d3565b50506001821b610e99565b5060208310610133831016604e8410600b8410161715615c5d575081810a610e99565b615c678383615b9f565b8060001904821115615c7b57615c7b6157d3565b029392505050565b6000612d258383615be2565b60208082526032908201527f4552433732313a207472616e7366657220746f206e6f6e20455243373231526560408201527131b2b4bb32b91034b6b83632b6b2b73a32b960711b606082015260800190565b600081615cf057615cf06157d3565b506000190190565b600082615d0757615d07615808565b500690565b7f416363657373436f6e74726f6c3a206163636f756e7420000000000000000000815260008351615d448160178501602088016151e6565b7001034b99036b4b9b9b4b733903937b6329607d1b6017918401918201528351615d758160288401602088016151e6565b01602801949350505050565b6001600160a01b0385811682528416602082015260408101839052608060608201819052600090615db490830184615212565b9695505050505050565b600060208284031215615dd057600080fd5b8151612d25816151b3565b60008251615ded8184602087016151e6565b9190910192915050565b634e487b7160e01b600052603160045260246000fdfe3b5d4cc60d3ec3516ee8ae083bd60934f6eb2a6c54b1229985c41bfb092b2603360894a13ba1a3210667c828492db98dca3e2076cc3735a920a3ca505d382bbc416464726573733a206c6f772d6c6576656c2064656c65676174652063616c6c206661696c6564a26469706673582212203769cbdbb0de96f2305ace299610a32b6fda16c1adfb30950add96bdb724b39564736f6c634300080d0033",
  "linkReferences": {},
  "deployedLinkReferences": {}
}