{
  "_format": "hh-sol-artifact-1",
  "contractName": "LootboxFactory",
  "sourceName": "contracts/LootboxFactory.sol",
  "abi": [
    {
      "inputs": [
        {
          "internalType": "address",
          "name": "_lootboxDao",
          "type": "address"
        },
        {
          "internalType": "address",
          "name": "_nativeTokenPriceFeed",
          "type": "address"
        },
        {
          "internalType": "uint256",
          "name": "_ticketPurchaseFee",
          "type": "uint256"
        },
        {
          "internalType": "address",
          "name": "_brokerAddress",
          "type": "address"
        }
      ],
      "stateMutability": "nonpayable",
      "type": "constructor"
    },
    {
      "anonymous": false,
      "inputs": [
        {
          "indexed": true,
          "internalType": "address",
          "name": "lootbox",
          "type": "address"
        },
        {
          "indexed": true,
          "internalType": "address",
          "name": "affiliate",
          "type": "address"
        },
        {
          "indexed": false,
          "internalType": "uint256",
          "name": "affiliateFee",
          "type": "uint256"
        },
        {
          "indexed": false,
          "internalType": "uint256",
          "name": "ticketPurchaseFee",
          "type": "uint256"
        },
        {
          "indexed": false,
          "internalType": "address",
          "name": "lootboxIssuer",
          "type": "address"
        },
        {
          "indexed": false,
          "internalType": "address",
          "name": "lootboxTreasury",
          "type": "address"
        }
      ],
      "name": "AffiliateReceipt",
      "type": "event"
    },
    {
      "anonymous": false,
      "inputs": [
        {
          "indexed": true,
          "internalType": "address",
          "name": "affiliate",
          "type": "address"
        },
        {
          "indexed": true,
          "internalType": "address",
          "name": "whitelistedBy",
          "type": "address"
        },
        {
          "indexed": false,
          "internalType": "uint256",
          "name": "ticketAffiliateFee",
          "type": "uint256"
        },
        {
          "indexed": false,
          "internalType": "uint256",
          "name": "timestamp",
          "type": "uint256"
        }
      ],
      "name": "AffiliateWhitelisted",
      "type": "event"
    },
    {
      "anonymous": false,
      "inputs": [
        {
          "indexed": false,
          "internalType": "string",
          "name": "lootboxName",
          "type": "string"
        },
        {
          "indexed": true,
          "internalType": "address",
          "name": "lootbox",
          "type": "address"
        },
        {
          "indexed": true,
          "internalType": "address",
          "name": "issuer",
          "type": "address"
        },
        {
          "indexed": true,
          "internalType": "address",
          "name": "treasury",
          "type": "address"
        },
        {
          "indexed": false,
          "internalType": "uint256",
          "name": "maxSharesSold",
          "type": "uint256"
        },
        {
          "indexed": false,
          "internalType": "uint256",
          "name": "sharePriceUSD",
          "type": "uint256"
        }
      ],
      "name": "LootboxCreated",
      "type": "event"
    },
    {
      "anonymous": false,
      "inputs": [
        {
          "indexed": false,
          "internalType": "address",
          "name": "account",
          "type": "address"
        }
      ],
      "name": "Paused",
      "type": "event"
    },
    {
      "anonymous": false,
      "inputs": [
        {
          "indexed": true,
          "internalType": "bytes32",
          "name": "role",
          "type": "bytes32"
        },
        {
          "indexed": true,
          "internalType": "bytes32",
          "name": "previousAdminRole",
          "type": "bytes32"
        },
        {
          "indexed": true,
          "internalType": "bytes32",
          "name": "newAdminRole",
          "type": "bytes32"
        }
      ],
      "name": "RoleAdminChanged",
      "type": "event"
    },
    {
      "anonymous": false,
      "inputs": [
        {
          "indexed": true,
          "internalType": "bytes32",
          "name": "role",
          "type": "bytes32"
        },
        {
          "indexed": true,
          "internalType": "address",
          "name": "account",
          "type": "address"
        },
        {
          "indexed": true,
          "internalType": "address",
          "name": "sender",
          "type": "address"
        }
      ],
      "name": "RoleGranted",
      "type": "event"
    },
    {
      "anonymous": false,
      "inputs": [
        {
          "indexed": true,
          "internalType": "bytes32",
          "name": "role",
          "type": "bytes32"
        },
        {
          "indexed": true,
          "internalType": "address",
          "name": "account",
          "type": "address"
        },
        {
          "indexed": true,
          "internalType": "address",
          "name": "sender",
          "type": "address"
        }
      ],
      "name": "RoleRevoked",
      "type": "event"
    },
    {
      "anonymous": false,
      "inputs": [
        {
          "indexed": false,
          "internalType": "address",
          "name": "account",
          "type": "address"
        }
      ],
      "name": "Unpaused",
      "type": "event"
    },
    {
      "inputs": [],
      "name": "DAO_ROLE",
      "outputs": [
        {
          "internalType": "bytes32",
          "name": "",
          "type": "bytes32"
        }
      ],
      "stateMutability": "view",
      "type": "function"
    },
    {
      "inputs": [],
      "name": "DEFAULT_ADMIN_ROLE",
      "outputs": [
        {
          "internalType": "bytes32",
          "name": "",
          "type": "bytes32"
        }
      ],
      "stateMutability": "view",
      "type": "function"
    },
    {
      "inputs": [
        {
          "internalType": "address",
          "name": "affiliate",
          "type": "address"
        },
        {
          "internalType": "uint256",
          "name": "ticketAffiliateFee",
          "type": "uint256"
        }
      ],
      "name": "addAffiliate",
      "outputs": [],
      "stateMutability": "nonpayable",
      "type": "function"
    },
    {
      "inputs": [],
      "name": "checkFactoryPrivateDetails",
      "outputs": [
        {
          "internalType": "address",
          "name": "_brokerAddress",
          "type": "address"
        },
        {
          "internalType": "uint256",
          "name": "_ticketPurchaseFee",
          "type": "uint256"
        }
      ],
      "stateMutability": "view",
      "type": "function"
    },
    {
      "inputs": [
        {
          "internalType": "address",
          "name": "lootbox",
          "type": "address"
        }
      ],
      "name": "checkLootboxAffiliate",
      "outputs": [
        {
          "internalType": "address",
          "name": "",
          "type": "address"
        }
      ],
      "stateMutability": "view",
      "type": "function"
    },
    {
      "inputs": [
        {
          "internalType": "string",
          "name": "_lootboxName",
          "type": "string"
        },
        {
          "internalType": "string",
          "name": "_lootboxSymbol",
          "type": "string"
        },
        {
          "internalType": "uint256",
          "name": "_maxSharesSold",
          "type": "uint256"
        },
        {
          "internalType": "uint256",
          "name": "_sharePriceUSD",
          "type": "uint256"
        },
        {
          "internalType": "address",
          "name": "_treasury",
          "type": "address"
        },
        {
          "internalType": "address",
          "name": "_affiliate",
          "type": "address"
        }
      ],
      "name": "createLootbox",
      "outputs": [
        {
          "internalType": "address",
          "name": "_lootbox",
          "type": "address"
        }
      ],
      "stateMutability": "nonpayable",
      "type": "function"
    },
    {
      "inputs": [
        {
          "internalType": "bytes32",
          "name": "role",
          "type": "bytes32"
        }
      ],
      "name": "getRoleAdmin",
      "outputs": [
        {
          "internalType": "bytes32",
          "name": "",
          "type": "bytes32"
        }
      ],
      "stateMutability": "view",
      "type": "function"
    },
    {
      "inputs": [
        {
          "internalType": "bytes32",
          "name": "role",
          "type": "bytes32"
        },
        {
          "internalType": "address",
          "name": "account",
          "type": "address"
        }
      ],
      "name": "grantRole",
      "outputs": [],
      "stateMutability": "nonpayable",
      "type": "function"
    },
    {
      "inputs": [
        {
          "internalType": "bytes32",
          "name": "role",
          "type": "bytes32"
        },
        {
          "internalType": "address",
          "name": "account",
          "type": "address"
        }
      ],
      "name": "hasRole",
      "outputs": [
        {
          "internalType": "bool",
          "name": "",
          "type": "bool"
        }
      ],
      "stateMutability": "view",
      "type": "function"
    },
    {
      "inputs": [],
      "name": "listAffiliates",
      "outputs": [
        {
          "internalType": "bytes32[]",
          "name": "_affiliates",
          "type": "bytes32[]"
        }
      ],
      "stateMutability": "view",
      "type": "function"
    },
    {
      "inputs": [],
      "name": "lootboxImplementation",
      "outputs": [
        {
          "internalType": "address",
          "name": "",
          "type": "address"
        }
      ],
      "stateMutability": "view",
      "type": "function"
    },
    {
      "inputs": [],
      "name": "nativeTokenPriceFeed",
      "outputs": [
        {
          "internalType": "address",
          "name": "",
          "type": "address"
        }
      ],
      "stateMutability": "view",
      "type": "function"
    },
    {
      "inputs": [],
      "name": "pause",
      "outputs": [],
      "stateMutability": "nonpayable",
      "type": "function"
    },
    {
      "inputs": [],
      "name": "paused",
      "outputs": [
        {
          "internalType": "bool",
          "name": "",
          "type": "bool"
        }
      ],
      "stateMutability": "view",
      "type": "function"
    },
    {
      "inputs": [
        {
          "internalType": "bytes32",
          "name": "role",
          "type": "bytes32"
        },
        {
          "internalType": "address",
          "name": "account",
          "type": "address"
        }
      ],
      "name": "renounceRole",
      "outputs": [],
      "stateMutability": "nonpayable",
      "type": "function"
    },
    {
      "inputs": [
        {
          "internalType": "bytes32",
          "name": "role",
          "type": "bytes32"
        },
        {
          "internalType": "address",
          "name": "account",
          "type": "address"
        }
      ],
      "name": "revokeRole",
      "outputs": [],
      "stateMutability": "nonpayable",
      "type": "function"
    },
    {
      "inputs": [
        {
          "internalType": "bytes4",
          "name": "interfaceId",
          "type": "bytes4"
        }
      ],
      "name": "supportsInterface",
      "outputs": [
        {
          "internalType": "bool",
          "name": "",
          "type": "bool"
        }
      ],
      "stateMutability": "view",
      "type": "function"
    },
    {
      "inputs": [],
      "name": "unpause",
      "outputs": [],
      "stateMutability": "nonpayable",
      "type": "function"
    },
    {
      "inputs": [],
      "name": "viewLootboxes",
      "outputs": [
        {
          "internalType": "bytes32[]",
          "name": "",
          "type": "bytes32[]"
        }
      ],
      "stateMutability": "view",
      "type": "function"
    }
  ],
  "bytecode": "0x6101006040523480156200001257600080fd5b506040516200794f3803806200794f833981016040819052620000359162000328565b6000805460ff191690556001600160a01b038416620000a65760405162461bcd60e51b815260206004820152602260248201527f44414f204c6f6f74626f7820616464726573732063616e6e6f74206265207a65604482015261726f60f01b60648201526084015b60405180910390fd5b6001600160a01b038116620000fe5760405162461bcd60e51b815260206004820152601d60248201527f42726f6b657220616464726573732063616e6e6f74206265207a65726f00000060448201526064016200009d565b6001600160a01b0383166200016a5760405162461bcd60e51b815260206004820152602b60248201527f6e6174697665546f6b656e50726963654665656420616464726573732063616e60448201526a6e6f74206265207a65726f60a81b60648201526084016200009d565b6305f5e1008210620001e55760405162461bcd60e51b815260206004820152603660248201527f5075726368617365207469636b657420666565206d757374206265206c65737360448201527f207468616e20313030303030303030202831303025290000000000000000000060648201526084016200009d565b604051620001f390620002fd565b604051809103906000f08015801562000210573d6000803e3d6000fd5b5060601b6001600160601b0319166080526200024d7f3b5d4cc60d3ec3516ee8ae083bd60934f6eb2a6c54b1229985c41bfb092b26038562000274565b6001600160601b0319606093841b811660a05260c09290925290911b1660e052506200037b565b60008281526001602090815260408083206001600160a01b038516845290915290205460ff16620002f95760008281526001602081815260408084206001600160a01b0386168086529252808420805460ff19169093179092559051339285917f2f8788117e7eff1d82e926ec794901d17c78024a50270940304540a733656f0d9190a45b5050565b615809806200214683390190565b80516001600160a01b03811681146200032357600080fd5b919050565b600080600080608085870312156200033e578384fd5b62000349856200030b565b935062000359602086016200030b565b92506040850151915062000370606086016200030b565b905092959194509250565b60805160601c60a05160601c60c05160e05160601c611d5e620003e8600039600081816106c60152610b6d01526000818161067f01528181610811015281816109790152610b8f0152600081816102cc015261065e0152600081816101b9015261062f0152611d5e6000f3fe60806040523480156200001157600080fd5b5060043610620001395760003560e01c80635c975abb11620000bb578063d547741f116200007a578063d547741f14620002af578063d7c28bb214620002c6578063e9c2651814620002ee578063fc74afd11462000305578063fd9e62a9146200032f57600080fd5b80635c975abb1462000262578063737d5687146200026e5780638456cb59146200028557806391d14854146200028f578063a217fddf14620002a657600080fd5b8063248a9ca31162000108578063248a9ca314620001db5780632f2ff15d146200021157806336568abe146200022a5780633f4ba83a1462000241578063565bae8d146200024b57600080fd5b806301ffc9a7146200013e57806317088631146200016a57806319a38bd0146200018357806319dd565714620001b3575b600080fd5b620001556200014f36600462001232565b62000339565b60405190151581526020015b60405180910390f35b6200017462000371565b604051620001619190620013d0565b6200019a620001943660046200125c565b620003ca565b6040516001600160a01b03909116815260200162000161565b6200019a7f000000000000000000000000000000000000000000000000000000000000000081565b62000202620001ec366004620011eb565b6000908152600160208190526040909120015490565b60405190815260200162000161565b620002286200022236600462001204565b62000880565b005b620002286200023b36600462001204565b620008b0565b6200022862000932565b620002286200025c366004620011bf565b6200095b565b60005460ff1662000155565b6200019a6200027f366004620011a2565b62000a91565b6200022862000acf565b62000155620002a036600462001204565b62000af5565b62000202600081565b62000228620002c036600462001204565b62000b20565b6200019a7f000000000000000000000000000000000000000000000000000000000000000081565b6200020260008051602062001d0983398151915281565b6200030f62000b4b565b604080516001600160a01b03909316835260208301919091520162000161565b6200017462000bb4565b60006001600160e01b03198216637965db0b60e01b14806200036b57506301ffc9a760e01b6001600160e01b03198316145b92915050565b600680546040805160208084028201810190925282815260609390929091830182828015620003c057602002820191906000526020600020905b815481526020019060010190808311620003ab575b5050505050905090565b6000805460ff1615620004175760405162461bcd60e51b815260206004820152601060248201526f14185d5cd8589b194e881c185d5cd95960821b60448201526064015b60405180910390fd5b8651620004675760405162461bcd60e51b815260206004820152601c60248201527f4c6f6f74626f78206e616d652063616e6e6f7420626520656d7074790000000060448201526064016200040e565b8551620004b75760405162461bcd60e51b815260206004820152601e60248201527f4c6f6f74626f782073796d626f6c2063616e6e6f7420626520656d707479000060448201526064016200040e565b6001600160a01b0383166200050f5760405162461bcd60e51b815260206004820152601f60248201527f547265617375727920616464726573732063616e6e6f74206265207a65726f0060448201526064016200040e565b6001600160a01b038216620005675760405162461bcd60e51b815260206004820181905260248201527f416666696c6961746520616464726573732063616e6e6f74206265207a65726f60448201526064016200040e565b60008511620005cb5760405162461bcd60e51b815260206004820152602960248201527f4d61782073686172657320736f6c64206d7573742062652067726561746572206044820152687468616e207a65726f60b81b60648201526084016200040e565b600084116200062b5760405162461bcd60e51b815260206004820152602560248201527f5368617265207072696365206d7573742062652067726561746572207468616e604482015264207a65726f60d81b60648201526084016200040e565b60007f00000000000000000000000000000000000000000000000000000000000000006364fcac4060e01b8989898989337f00000000000000000000000000000000000000000000000000000000000000007f0000000000000000000000000000000000000000000000000000000000000000600260008e6001600160a01b03166001600160a01b03168152602001908152602001600020547f00000000000000000000000000000000000000000000000000000000000000008e604051602401620007029b9a999897969594939291906200142b565b60408051601f198184030181529181526020820180516001600160e01b03166001600160e01b03199094169390931790925290516200074190620010e8565b6200074e929190620013a2565b604051809103906000f0801580156200076b573d6000803e3d6000fd5b5090506200077b60068262000c28565b506001600160a01b038181166000818152600360205260409081902080546001600160a01b03191687851617905551918616913391907fd4a8b4b7e243de8f01bbb4cc8c4a0aef3410c62acfc63a5b01f50b4b4eb1662890620007e4908d908c908c90620014ad565b60405180910390a46001600160a01b038381166000818152600260209081526040918290205482519081527f00000000000000000000000000000000000000000000000000000000000000009181019190915233818301528784166060820152905191928416917f0b4c73cb9afffcc1a8fe5a90b0072b37bb1da3a9256116b10867b2115bd6c48b9181900360800190a3979650505050505050565b600082815260016020819052604090912001546200089f813362000c46565b620008ab838362000cb5565b505050565b6001600160a01b0381163314620009225760405162461bcd60e51b815260206004820152602f60248201527f416363657373436f6e74726f6c3a2063616e206f6e6c792072656e6f756e636560448201526e103937b632b9903337b91039b2b63360891b60648201526084016200040e565b6200092e828262000d23565b5050565b60008051602062001d098339815191526200094e813362000c46565b6200095862000d8d565b50565b60008051602062001d0983398151915262000977813362000c46565b7f000000000000000000000000000000000000000000000000000000000000000082111562000a1e5760405162461bcd60e51b815260206004820152604660248201527f416666696c69617465207469636b657420666565206d757374206265206c657360448201527f73207468616e206f7220657175616c20746f207075726368617365207469636b60648201526565742066656560d01b608482015260a4016200040e565b6001600160a01b038316600090815260026020526040902082905562000a4660048462000c28565b506040805183815242602082015233916001600160a01b038616917f92b63ef4b711e706248082654091a6c515ca36d749b6008a128776a88f03830e910160405180910390a3505050565b600060008051602062001d0983398151915262000aaf813362000c46565b50506001600160a01b039081166000908152600360205260409020541690565b60008051602062001d0983398151915262000aeb813362000c46565b6200095862000e22565b60009182526001602090815260408084206001600160a01b0393909316845291905290205460ff1690565b6000828152600160208190526040909120015462000b3f813362000c46565b620008ab838362000d23565b60008060008051602062001d0983398151915262000b6a813362000c46565b507f0000000000000000000000000000000000000000000000000000000000000000927f000000000000000000000000000000000000000000000000000000000000000092509050565b606060008051602062001d0983398151915262000bd2813362000c46565b600480546040805160208084028201810190925282815292919083018282801562000c1d57602002820191906000526020600020905b81548152602001906001019080831162000c08575b505050505091505090565b600062000c3f836001600160a01b03841662000ea0565b9392505050565b62000c52828262000af5565b6200092e5762000c6d816001600160a01b0316601462000ef2565b62000c7a83602062000ef2565b60405160200162000c8d92919062001329565b60408051601f198184030181529082905262461bcd60e51b82526200040e9160040162001416565b62000cc1828262000af5565b6200092e5760008281526001602081815260408084206001600160a01b0386168086529252808420805460ff19169093179092559051339285917f2f8788117e7eff1d82e926ec794901d17c78024a50270940304540a733656f0d9190a45050565b62000d2f828262000af5565b156200092e5760008281526001602090815260408083206001600160a01b0385168085529252808320805460ff1916905551339285917ff6391f5c32d9c69d2a47ea670b442974b53935d1edc7fd64eb21e047a839171b9190a45050565b60005460ff1662000dd85760405162461bcd60e51b815260206004820152601460248201527314185d5cd8589b194e881b9bdd081c185d5cd95960621b60448201526064016200040e565b6000805460ff191690557f5db9ee0a495bf2e6ff9c91a7834c1ba4fdd244a5e8aa4e537bd38aeae4b073aa335b6040516001600160a01b03909116815260200160405180910390a1565b60005460ff161562000e6a5760405162461bcd60e51b815260206004820152601060248201526f14185d5cd8589b194e881c185d5cd95960821b60448201526064016200040e565b6000805460ff191660011790557f62e78cea01bee320cd4e420270b5ea74000d11b0c9f74754ebdbfc544b05a25862000e053390565b600081815260018301602052604081205462000ee9575081546001818101845560008481526020808220909301849055845484825282860190935260409020919091556200036b565b5060006200036b565b6060600062000f03836002620014ef565b62000f10906002620014d4565b67ffffffffffffffff81111562000f3757634e487b7160e01b600052604160045260246000fd5b6040519080825280601f01601f19166020018201604052801562000f62576020820181803683370190505b509050600360fc1b8160008151811062000f8c57634e487b7160e01b600052603260045260246000fd5b60200101906001600160f81b031916908160001a905350600f60fb1b8160018151811062000fca57634e487b7160e01b600052603260045260246000fd5b60200101906001600160f81b031916908160001a905350600062000ff0846002620014ef565b62000ffd906001620014d4565b90505b600181111562001097576f181899199a1a9b1b9c1cb0b131b232b360811b85600f16601081106200104157634e487b7160e01b600052603260045260246000fd5b1a60f81b8282815181106200106657634e487b7160e01b600052603260045260246000fd5b60200101906001600160f81b031916908160001a90535060049490941c936200108f8162001544565b905062001000565b50831562000c3f5760405162461bcd60e51b815260206004820181905260248201527f537472696e67733a20686578206c656e67746820696e73756666696369656e7460448201526064016200040e565b61077e806200158b83390190565b80356001600160a01b03811681146200110e57600080fd5b919050565b600082601f83011262001124578081fd5b813567ffffffffffffffff8082111562001142576200114262001574565b604051601f8301601f19908116603f011681019082821181831017156200116d576200116d62001574565b8160405283815286602085880101111562001186578485fd5b8360208701602083013792830160200193909352509392505050565b600060208284031215620011b4578081fd5b62000c3f82620010f6565b60008060408385031215620011d2578081fd5b620011dd83620010f6565b946020939093013593505050565b600060208284031215620011fd578081fd5b5035919050565b6000806040838503121562001217578182fd5b823591506200122960208401620010f6565b90509250929050565b60006020828403121562001244578081fd5b81356001600160e01b03198116811462000c3f578182fd5b60008060008060008060c0878903121562001275578182fd5b863567ffffffffffffffff808211156200128d578384fd5b6200129b8a838b0162001113565b97506020890135915080821115620012b1578384fd5b50620012c089828a0162001113565b9550506040870135935060608701359250620012df60808801620010f6565b9150620012ef60a08801620010f6565b90509295509295509295565b600081518084526200131581602086016020860162001511565b601f01601f19169290920160200192915050565b7f416363657373436f6e74726f6c3a206163636f756e74200000000000000000008152600083516200136381601785016020880162001511565b7001034b99036b4b9b9b4b733903937b6329607d1b60179184019182015283516200139681602884016020880162001511565b01602801949350505050565b6001600160a01b0383168152604060208201819052600090620013c890830184620012fb565b949350505050565b6020808252825182820181905260009190848201906040850190845b818110156200140a57835183529284019291840191600101620013ec565b50909695505050505050565b60208152600062000c3f6020830184620012fb565b6000610160808352620014418184018f620012fb565b9050828103602084015262001457818e620012fb565b604084019c909c52505060608101989098526001600160a01b03968716608089015294861660a088015292851660c087015260e08601919091526101008501528216610120840152166101409091015292915050565b606081526000620014c26060830186620012fb565b60208301949094525060400152919050565b60008219821115620014ea57620014ea6200155e565b500190565b60008160001904831182151516156200150c576200150c6200155e565b500290565b60005b838110156200152e57818101518382015260200162001514565b838111156200153e576000848401525b50505050565b6000816200155657620015566200155e565b506000190190565b634e487b7160e01b600052601160045260246000fd5b634e487b7160e01b600052604160045260246000fdfe608060405260405161077e38038061077e83398101604081905261002291610303565b61004d60017f360894a13ba1a3210667c828492db98dca3e2076cc3735a920a3ca505d382bbd61041b565b6000805160206107378339815191521461007757634e487b7160e01b600052600160045260246000fd5b6100838282600061008a565b5050610480565b610093836100c0565b6000825111806100a05750805b156100bb576100b9838361010060201b6100291760201c565b505b505050565b6100c98161012c565b6040516001600160a01b038216907fbc7cd75a20ee27fd9adebab32041f755214dbc6bffa90cc0225b39da2e5c2d3b90600090a250565b60606101258383604051806060016040528060278152602001610757602791396101ec565b9392505050565b61013f816102c160201b6100551760201c565b6101a65760405162461bcd60e51b815260206004820152602d60248201527f455243313936373a206e657720696d706c656d656e746174696f6e206973206e60448201526c1bdd08184818dbdb9d1c9858dd609a1b60648201526084015b60405180910390fd5b806101cb60008051602061073783398151915260001b6102c760201b61005b1760201c565b80546001600160a01b0319166001600160a01b039290921691909117905550565b6060833b61024b5760405162461bcd60e51b815260206004820152602660248201527f416464726573733a2064656c65676174652063616c6c20746f206e6f6e2d636f6044820152651b9d1c9858dd60d21b606482015260840161019d565b600080856001600160a01b03168560405161026691906103cc565b600060405180830381855af49150503d80600081146102a1576040519150601f19603f3d011682016040523d82523d6000602084013e6102a6565b606091505b5090925090506102b78282866102ca565b9695505050505050565b3b151590565b90565b606083156102d9575081610125565b8251156102e95782518084602001fd5b8160405162461bcd60e51b815260040161019d91906103e8565b60008060408385031215610315578182fd5b82516001600160a01b038116811461032b578283fd5b60208401519092506001600160401b0380821115610347578283fd5b818501915085601f83011261035a578283fd5b81518181111561036c5761036c61046a565b604051601f8201601f19908116603f011681019083821181831017156103945761039461046a565b816040528281528860208487010111156103ac578586fd5b6103bd83602083016020880161043e565b80955050505050509250929050565b600082516103de81846020870161043e565b9190910192915050565b602081526000825180602084015261040781604085016020870161043e565b601f01601f19169190910160400192915050565b60008282101561043957634e487b7160e01b81526011600452602481fd5b500390565b60005b83811015610459578181015183820152602001610441565b838111156100b95750506000910152565b634e487b7160e01b600052604160045260246000fd5b6102a88061048f6000396000f3fe60806040523661001357610011610017565b005b6100115b61002761002261005e565b610096565b565b606061004e838360405180606001604052806027815260200161024c602791396100ba565b9392505050565b3b151590565b90565b60006100917f360894a13ba1a3210667c828492db98dca3e2076cc3735a920a3ca505d382bbc546001600160a01b031690565b905090565b3660008037600080366000845af43d6000803e8080156100b5573d6000f35b3d6000fd5b6060833b61011e5760405162461bcd60e51b815260206004820152602660248201527f416464726573733a2064656c65676174652063616c6c20746f206e6f6e2d636f6044820152651b9d1c9858dd60d21b60648201526084015b60405180910390fd5b600080856001600160a01b03168560405161013991906101cc565b600060405180830381855af49150503d8060008114610174576040519150601f19603f3d011682016040523d82523d6000602084013e610179565b606091505b5091509150610189828286610193565b9695505050505050565b606083156101a257508161004e565b8251156101b25782518084602001fd5b8160405162461bcd60e51b815260040161011591906101e8565b600082516101de81846020870161021b565b9190910192915050565b602081526000825180602084015261020781604085016020870161021b565b601f01601f19169190910160400192915050565b60005b8381101561023657818101518382015260200161021e565b83811115610245576000848401525b5050505056fe416464726573733a206c6f772d6c6576656c2064656c65676174652063616c6c206661696c6564a2646970667358221220e81a0599646281ed22237c6e1a71af27aae7c9778a3595bc0dc875135584b7d564736f6c63430008040033360894a13ba1a3210667c828492db98dca3e2076cc3735a920a3ca505d382bbc416464726573733a206c6f772d6c6576656c2064656c65676174652063616c6c206661696c65643b5d4cc60d3ec3516ee8ae083bd60934f6eb2a6c54b1229985c41bfb092b2603a2646970667358221220cfcf62eebeb9141ee8e808f5c79f5a378ab9486a18b85de30ceef9a403bd0a2c64736f6c6343000804003360a06040523060601b6080523480156200001857600080fd5b50600054610100900460ff16620000365760005460ff161562000040565b62000040620000e5565b620000a85760405162461bcd60e51b815260206004820152602e60248201527f496e697469616c697a61626c653a20636f6e747261637420697320616c72656160448201526d191e481a5b9a5d1a585b1a5e995960921b606482015260840160405180910390fd5b600054610100900460ff16158015620000cb576000805461ffff19166101011790555b8015620000de576000805461ff00191690555b5062000109565b6000620000fd306200010360201b620034591760201c565b15905090565b3b151590565b60805160601c6156cc6200013d600039600081816119e701528181611a2701528181611aec0152611b2c01526156cc6000f3fe6080604052600436106104145760003560e01c806370a082311161021e578063abff011011610123578063dd137455116100ab578063e985e9c51161007a578063e985e9c514610c75578063e9c2651814610cbe578063fbf97c5914610ce0578063fdf27dba14610d0e578063ff7808e914610d2557600080fd5b8063dd13745514610c07578063dd7af03514610c29578063e6deb18d14610c40578063e88e3f9314610c6057600080fd5b8063ca11016d116100f2578063ca11016d14610b6b578063cb56a1e114610b80578063cc0f178614610bbb578063d547741f14610bd2578063da3537a814610bf257600080fd5b8063abff011014610a79578063ae501c0414610a9a578063b88d4fde14610b2b578063c87b56dd14610b4b57600080fd5b806391d14854116101a6578063a07ae16a11610175578063a07ae16a146109f8578063a217fddf14610a0d578063a22cb46514610a22578063a7485cf114610a42578063a7c721c514610a6257600080fd5b806391d148541461098c57806395d89b41146109ac5780639b3878c8146109c15780639f792340146109e157600080fd5b80638240b777116101ed5780638240b777146109065780638456cb591461091b5780638802255f146109305780638c824949146109485780639088feba1461095057600080fd5b806370a082311461088b57806378d85c4e146108ab5780637eee3803146108d8578063816c42f6146108ef57600080fd5b806342842e0e116103245780635c975abb116102ac57806369d85d541161027b57806369d85d54146107ce5780636c9d3b3a146107fb5780636e70096e146108295780636f2ef95b146108495780636fcf1e651461087657600080fd5b80635c975abb1461075057806361d027b3146107685780636352211e1461078e57806364fcac40146107ae57600080fd5b806351f0a93f116102f357806351f0a93f146106d15780635225b69c146106e6578063522c2178146106fd578063533573fe14610718578063588dae3c1461073057600080fd5b806342842e0e1461065d57806345e05f431461067d5780634f1ef2861461069e5780634f6ccce7146106b157600080fd5b8063248a9ca3116103a75780632f745c59116103765780632f745c59146105d157806336568abe146105f15780633659cfe6146106115780633af8e5eb146106315780633f4ba83a1461064857600080fd5b8063248a9ca3146105405780632a4c03cc146105715780632c891b4b146105915780632f2ff15d146105b157600080fd5b806318160ddd116103e357806318160ddd146104d157806318fc77ae146104f057806321846c761461050357806323b872dd1461052057600080fd5b806301ffc9a71461042057806306fdde0314610455578063081812fc14610477578063095ea7b3146104af57600080fd5b3661041b57005b600080fd5b34801561042c57600080fd5b5061044061043b366004614d24565b610d3c565b60405190151581526020015b60405180910390f35b34801561046157600080fd5b5061046a610d4d565b60405161044c919061514a565b34801561048357600080fd5b50610497610492366004614cea565b610ddf565b6040516001600160a01b03909116815260200161044c565b3480156104bb57600080fd5b506104cf6104ca366004614ca5565b610e79565b005b3480156104dd57600080fd5b506099545b60405190815260200161044c565b6104cf6104fe366004614ca5565b610f8f565b61050b61129d565b6040805192835260208301919091520161044c565b34801561052c57600080fd5b506104cf61053b366004614b82565b611699565b34801561054c57600080fd5b506104e261055b366004614cea565b600090815261012d602052604090206001015490565b34801561057d57600080fd5b506104cf61058c366004614b36565b6116ca565b34801561059d57600080fd5b506104e26105ac366004614cea565b6117af565b3480156105bd57600080fd5b506104cf6105cc366004614d02565b6118a1565b3480156105dd57600080fd5b506104e26105ec366004614ca5565b6118c8565b3480156105fd57600080fd5b506104cf61060c366004614d02565b61195e565b34801561061d57600080fd5b506104cf61062c366004614b36565b6119dc565b34801561063d57600080fd5b506104e26101c35481565b34801561065457600080fd5b506104cf611aa5565b34801561066957600080fd5b506104cf610678366004614b82565b611ac6565b34801561068957600080fd5b506101d154610497906001600160a01b031681565b6104cf6106ac366004614c59565b611ae1565b3480156106bd57600080fd5b506104e26106cc366004614cea565b611b97565b3480156106dd57600080fd5b506104e2611c38565b3480156106f257600080fd5b506104e26101c75481565b34801561070957600080fd5b506101cd546104409060ff1681565b34801561072457600080fd5b506101d5546104e29081565b34801561073c57600080fd5b506104e261074b366004614b36565b611cd9565b34801561075c57600080fd5b5060fb5460ff16610440565b34801561077457600080fd5b506101cd546104979061010090046001600160a01b031681565b34801561079a57600080fd5b506104976107a9366004614cea565b611e0e565b3480156107ba57600080fd5b506104cf6107c9366004614d5c565b611e85565b3480156107da57600080fd5b506107ee6107e9366004614b36565b61244e565b60405161044c9190615037565b34801561080757600080fd5b506104e2610816366004614b36565b6101d66020526000908152604090205481565b34801561083557600080fd5b506104cf610844366004614cea565b612504565b34801561085557600080fd5b50610869610864366004614cea565b61287f565b60405161044c91906153e0565b34801561088257600080fd5b506104cf6128ea565b34801561089757600080fd5b506104e26108a6366004614b36565b612978565b3480156108b757600080fd5b506108cb6108c6366004614cea565b6129ff565b60405161044c919061507b565b3480156108e457600080fd5b506104e26101d35481565b3480156108fb57600080fd5b506104e26101c95481565b34801561091257600080fd5b506104e2612bf5565b34801561092757600080fd5b506104cf612ca4565b34801561093c57600080fd5b506101cf546104e29081565b6104cf612cc5565b34801561095c57600080fd5b5061044061096b366004614e52565b6101da60209081526000928352604080842090915290825290205460ff1681565b34801561099857600080fd5b506104406109a7366004614d02565b612e41565b3480156109b857600080fd5b5061046a612e6d565b3480156109cd57600080fd5b506104e26109dc366004614d02565b612e7c565b3480156109ed57600080fd5b506104e26101d95481565b348015610a0457600080fd5b506104cf612f7b565b348015610a1957600080fd5b506104e2600081565b348015610a2e57600080fd5b506104cf610a3d366004614c23565b613006565b348015610a4e57600080fd5b506104e2610a5d366004614cea565b613011565b348015610a6e57600080fd5b506104e26101d25481565b348015610a8557600080fd5b506101d054610497906001600160a01b031681565b348015610aa657600080fd5b50610af5610ab5366004614cea565b6101d4602052600090815260409020805460018201546002830154600384015460048501546005909501549394929391926001600160a01b039091169186565b604080519687526020870195909552938501929092526001600160a01b03166060840152608083015260a082015260c00161044c565b348015610b3757600080fd5b506104cf610b46366004614bbd565b61310b565b348015610b5757600080fd5b5061046a610b66366004614cea565b61313d565b348015610b7757600080fd5b506107ee613148565b348015610b8c57600080fd5b50610ba0610b9b366004614cea565b61319f565b6040805193845260208401929092529082015260600161044c565b348015610bc757600080fd5b506104e26101c45481565b348015610bde57600080fd5b506104cf610bed366004614d02565b6131fa565b348015610bfe57600080fd5b506104e2613221565b348015610c1357600080fd5b50610c1c61323a565b60405161044c9190615108565b348015610c3557600080fd5b506104e26101c85481565b348015610c4c57600080fd5b506104e2610c5b366004614b36565b613359565b348015610c6c57600080fd5b506107ee613403565b348015610c8157600080fd5b50610440610c90366004614b50565b6001600160a01b039182166000908152606a6020908152604080832093909416825291909152205460ff1690565b348015610cca57600080fd5b506104e260008051602061565083398151915281565b348015610cec57600080fd5b506104e2610cfb366004614cea565b6101ce6020526000908152604090205481565b348015610d1a57600080fd5b506104e26101c55481565b348015610d3157600080fd5b506104e26101ca5481565b6000610d478261345f565b92915050565b606060658054610d5c906155af565b80601f0160208091040260200160405190810160405280929190818152602001828054610d88906155af565b8015610dd55780601f10610daa57610100808354040283529160200191610dd5565b820191906000526020600020905b815481529060010190602001808311610db857829003601f168201915b5050505050905090565b6000818152606760205260408120546001600160a01b0316610e5d5760405162461bcd60e51b815260206004820152602c60248201527f4552433732313a20617070726f76656420717565727920666f72206e6f6e657860448201526b34b9ba32b73a103a37b5b2b760a11b60648201526084015b60405180910390fd5b506000908152606960205260409020546001600160a01b031690565b6000610e8482611e0e565b9050806001600160a01b0316836001600160a01b03161415610ef25760405162461bcd60e51b815260206004820152602160248201527f4552433732313a20617070726f76616c20746f2063757272656e74206f776e656044820152603960f91b6064820152608401610e54565b336001600160a01b0382161480610f0e5750610f0e8133610c90565b610f805760405162461bcd60e51b815260206004820152603860248201527f4552433732313a20617070726f76652063616c6c6572206973206e6f74206f7760448201527f6e6572206e6f7220617070726f76656420666f7220616c6c00000000000000006064820152608401610e54565b610f8a8383613484565b505050565b6101cd5460ff1615610fb35760405162461bcd60e51b8152600401610e54906152f5565b60006101c85411610fd65760405162461bcd60e51b8152600401610e5490615247565b341561105e5760405162461bcd60e51b815260206004820152604b60248201527f4465706f73697473206f662065726332302063616e6e6f7420616c736f20696e60448201527f636c756465206e617469766520746f6b656e7320696e207468652073616d652060648201526a3a3930b739b0b1ba34b7b760a91b608482015260a401610e54565b61106a6101d7836134f2565b506001600160a01b03821660009081526101d660205260409020546110909082906153ee565b6001600160a01b0383811660008181526101d660209081526040808320959095556101d554855160c08101875281815243818401908152818801858152606080840188815260808086018d81524260a0808901918252898c526101d48b528e8c2089518155975160018901559551600288015592516003870180546001600160a01b03191691909d1617909b55995160048501555160059093019290925588513081529485018490528489019590955283019490945293810186905293519293919233927fce3ede2e266c8c5ec60064c2a65ba25bd2899a334c42b39b742129c49b1ef1c492908290030190a261118c6101d580546001019055565b60405163095ea7b360e01b81523060048201526024810184905284906001600160a01b0382169063095ea7b390604401602060405180830381600087803b1580156111d657600080fd5b505af11580156111ea573d6000803e3d6000fd5b505050506040513d601f19601f8201168201806040525081019061120e9190614cce565b506040516323b872dd60e01b8152336004820152306024820152604481018590526001600160a01b038216906323b872dd90606401602060405180830381600087803b15801561125d57600080fd5b505af1158015611271573d6000803e3d6000fd5b505050506040513d601f19601f820116820180604052508101906112959190614cce565b505050505050565b6101cd54600090819061010090046001600160a01b03163314156113035760405162461bcd60e51b815260206004820181905260248201527f54726561737572792063616e6e6f74207075726368617365207469636b6574736044820152606401610e54565b6101cd5460ff1615156001146113815760405162461bcd60e51b815260206004820152603860248201527f5469636b6574732063616e6e6f7420626520707572636861736564206166746560448201527f72207468652066756e6472616973696e6720706572696f6400000000000000006064820152608401610e54565b600061138c34613011565b9050611396613221565b811061140a5760405162461bcd60e51b815260206004820152603d60248201527f4e6f7420656e6f756768207368617265732072656d61696e696e6720746f207060448201527f757263686173652c20747279206120736d616c6c657220616d6f756e740000006064820152608401610e54565b60006114166101cf5490565b90506114276101cf80546001019055565b60008181526101ce602052604090208290556114456101cb336134f2565b50816101c85461145591906153ee565b6101c8556101ca546114689034906153ee565b6101ca556101cd546101c754604080513081526020810185905290810185905260608101919091526101009091046001600160a01b03169033907faec7d08bcb5e515903dbbba83c84bb270bdbdc5ad261ce0709da4d20226d40639060800160405180910390a360006305f5e1006101d354346114e59190615536565b6114ef919061542b565b905060006305f5e1006101d3546101d25461150a9190615555565b6115149034615536565b61151e919061542b565b905060008261152d8334615555565b6115379190615555565b6101d1546101cd546101d0546101c754604080516001600160a01b0393841681523060208201528082018b90523460608201526080810187905260a0810189905260c081018a905260e081018c9052610100808201939093529051959650938216949204169133917fec9b5b63774dd77ef3e9b139dcae71f2128bd20e0b2d55e2f405302581d4821a918190036101200190a46101cd546040516101009091046001600160a01b0316906108fc8315029083906000818181858888f19350505050158015611609573d6000803e3d6000fd5b506101d0546040516001600160a01b039091169083156108fc029084906000818181858888f19350505050158015611645573d6000803e3d6000fd5b506101d1546040516001600160a01b039091169084156108fc029085906000818181858888f19350505050158015611681573d6000803e3d6000fd5b5061168c3385613507565b5091959294509192505050565b6116a33382613521565b6116bf5760405162461bcd60e51b8152600401610e54906152a4565b610f8a838383613618565b6000805160206156508339815191526116e381336137c3565b6101cd5460ff16156117075760405162461bcd60e51b8152600401610e5490615346565b600061171283611cd9565b90508281156117a9576101cd5460405163a9059cbb60e01b81526101009091046001600160a01b0390811660048301526024820184905282169063a9059cbb90604401602060405180830381600087803b15801561176f57600080fd5b505af1158015611783573d6000803e3d6000fd5b505050506040513d601f19601f820116820180604052508101906117a79190614cce565b505b50505050565b60008181526101ce602052604081205481805b6101d5548110156118995760008181526101d460209081526040808320815160c081018352815481526001808301548286015260028301548285015260038301546001600160a01b031660608301526004830154608083015260059092015460a08201528985526101da845282852081518652909352922054909160ff9091161515146118865760608101516001600160a01b0316611886576101c85484826040015161186f9190615536565b611879919061542b565b61188390846153ee565b92505b5080611891816155e4565b9150506117c2565b509392505050565b600082815261012d60205260409020600101546118be81336137c3565b610f8a8383613827565b60006118d383612978565b82106119355760405162461bcd60e51b815260206004820152602b60248201527f455243373231456e756d657261626c653a206f776e657220696e646578206f7560448201526a74206f6620626f756e647360a81b6064820152608401610e54565b506001600160a01b03919091166000908152609760209081526040808320938352929052205490565b6001600160a01b03811633146119ce5760405162461bcd60e51b815260206004820152602f60248201527f416363657373436f6e74726f6c3a2063616e206f6e6c792072656e6f756e636560448201526e103937b632b9903337b91039b2b63360891b6064820152608401610e54565b6119d882826138ae565b5050565b306001600160a01b037f0000000000000000000000000000000000000000000000000000000000000000161415611a255760405162461bcd60e51b8152600401610e54906151af565b7f00000000000000000000000000000000000000000000000000000000000000006001600160a01b0316611a57613916565b6001600160a01b031614611a7d5760405162461bcd60e51b8152600401610e54906151fb565b611a8681613944565b60408051600080825260208201909252611aa29183919061395d565b50565b600080516020615650833981519152611abe81336137c3565b611aa2613aa1565b610f8a8383836040518060200160405280600081525061310b565b306001600160a01b037f0000000000000000000000000000000000000000000000000000000000000000161415611b2a5760405162461bcd60e51b8152600401610e54906151af565b7f00000000000000000000000000000000000000000000000000000000000000006001600160a01b0316611b5c613916565b6001600160a01b031614611b825760405162461bcd60e51b8152600401610e54906151fb565b611b8b82613944565b6119d88282600161395d565b6000611ba260995490565b8210611c055760405162461bcd60e51b815260206004820152602c60248201527f455243373231456e756d657261626c653a20676c6f62616c20696e646578206f60448201526b7574206f6620626f756e647360a01b6064820152608401610e54565b60998281548110611c2657634e487b7160e01b600052603260045260246000fd5b90600052602060002001549050919050565b600080805b6101d554811015611cd35760008181526101d46020908152604091829020825160c0810184528154815260018201549281019290925260028101549282019290925260038201546001600160a01b0316606082018190526004830154608083015260059092015460a082015290611cc0576040810151611cbd90846153ee565b92505b5080611ccb816155e4565b915050611c3d565b50919050565b600080805b6101d554811015611d7c5760008181526101d46020908152604091829020825160c0810184528154815260018201549281019290925260028101549282019290925260038201546001600160a01b03908116606083018190526004840154608084015260059093015460a083015290919086161415611d69576080810151611d6690846153ee565b92505b5080611d74816155e4565b915050611cde565b506040516370a0823160e01b8152306004820152839060009083906001600160a01b038416906370a082319060240160206040518083038186803b158015611dc357600080fd5b505afa158015611dd7573d6000803e3d6000fd5b505050506040513d601f19601f82011682018060405250810190611dfb9190614e3a565b611e059190615555565b95945050505050565b6000818152606760205260408120546001600160a01b031680610d475760405162461bcd60e51b815260206004820152602960248201527f4552433732313a206f776e657220717565727920666f72206e6f6e657869737460448201526832b73a103a37b5b2b760b91b6064820152608401610e54565b600054610100900460ff16611ea05760005460ff1615611ea4565b303b155b611f075760405162461bcd60e51b815260206004820152602e60248201527f496e697469616c697a61626c653a20636f6e747261637420697320616c72656160448201526d191e481a5b9a5d1a585b1a5e995960921b6064820152608401610e54565b600054610100900460ff16158015611f29576000805461ffff19166101011790555b8b518c908c90611f725760405162461bcd60e51b81526020600482015260146024820152734e616d652063616e6e6f7420626520656d70747960601b6044820152606401610e54565b8051611fb95760405162461bcd60e51b815260206004820152601660248201527553796d626f6c2063616e6e6f7420626520656d70747960501b6044820152606401610e54565b6305f5e100871061202b5760405162461bcd60e51b815260206004820152603660248201527f5075726368617365207469636b657420666565206d757374206265206c657373604482015275207468616e203130303030303030302028313030252960501b6064820152608401610e54565b868611156120b05760405162461bcd60e51b815260206004820152604660248201527f416666696c69617465207469636b657420666565206d757374206265206c657360448201527f73207468616e206f7220657175616c20746f207075726368617365207469636b60648201526565742066656560d01b608482015260a401610e54565b6001600160a01b038a166121125760405162461bcd60e51b815260206004820152602360248201527f54726561737572792063616e6e6f7420626520746865207a65726f206164647260448201526265737360e81b6064820152608401610e54565b6001600160a01b0389166121725760405162461bcd60e51b815260206004820152602160248201527f4973737565722063616e6e6f7420626520746865207a65726f206164647265736044820152607360f81b6064820152608401610e54565b6001600160a01b0388166121d45760405162461bcd60e51b815260206004820152602360248201527f4e617469766520746f6b656e20707269636520666565642069732072657175696044820152621c995960ea1b6064820152608401610e54565b60008c116122365760405162461bcd60e51b815260206004820152602960248201527f4d61782073686172657320736f6c64206d7573742062652067726561746572206044820152687468616e207a65726f60b81b6064820152608401610e54565b60008b116122945760405162461bcd60e51b815260206004820152602560248201527f5368617265207072696365206d7573742062652067726561746572207468616e604482015264207a65726f60d81b6064820152608401610e54565b6001600160a01b0385166122f45760405162461bcd60e51b815260206004820152602160248201527f42726f6b65722063616e6e6f7420626520746865207a65726f206164647265736044820152607360f81b6064820152608401610e54565b6001600160a01b0384166123565760405162461bcd60e51b8152602060048201526024808201527f416666696c696174652063616e6e6f7420626520746865207a65726f206164646044820152637265737360e01b6064820152608401610e54565b6123608e8e613b34565b612368613b75565b612370613b75565b612378613bb6565b612380613b75565b612388613bed565b426101c55560126101c35560086101c45560006101ca556101c78b90556101c98c90556101c680546001600160a01b03199081166001600160a01b038b8116919091179092556101cd80546001600160a81b0319166101008e8516021760011790556101d28990556101d38890556101d0805482168884161790556101d1805490911691861691909117905561242c6000805160206156508339815191528a613827565b50508015612440576000805461ff00191690555b505050505050505050505050565b6060600061245b83612978565b905060008167ffffffffffffffff81111561248657634e487b7160e01b600052604160045260246000fd5b6040519080825280602002602001820160405280156124af578160200160208202803683370190505b50905060005b82811015611899576124c785826118c8565b8282815181106124e757634e487b7160e01b600052603260045260246000fd5b6020908102919091010152806124fc816155e4565b9150506124b5565b6101cd5460ff16156125755760405162461bcd60e51b815260206004820152603460248201527f5769746864726177616c732063616e6e6f74206265206d61646520647572696e60448201527319c8199d5b991c985a5cda5b99c81c195c9a5bd960621b6064820152608401610e54565b3361257f82611e0e565b6001600160a01b0316146125d55760405162461bcd60e51b815260206004820152601a60248201527f596f7520646f206e6f74206f776e2074686973207469636b65740000000000006044820152606401610e54565b60008181526101ce6020526040812054905b6101d554811015610f8a5760008181526101d460209081526040808320815160c081018352815481526001808301548286015260028301548285015260038301546001600160a01b031660608301526004830154608083015260059092015460a08201528785526101da845282852081518652909352922054909160ff90911615151461286c5760008481526101da60209081526040808320845184529091529020805460ff1916600117905560608101516001600160a01b0316156127c05760006101c8548483608001516126bd9190615536565b6126c7919061542b565b8251606084015160405192935033927f981eda60172361092f12c75de05c753d28c928d6fb0b4b6492e685a44265fc0a9261270b9230928b92916000918990614ffc565b60405180910390a260608201516001600160a01b0381166323b872dd3061273189611e0e565b6040516001600160e01b031960e085901b1681526001600160a01b0392831660048201529116602482015260448101859052606401602060405180830381600087803b15801561278057600080fd5b505af1158015612794573d6000803e3d6000fd5b505050506040513d601f19601f820116820180604052508101906127b89190614cce565b50505061286c565b60006101c8548483604001516127d69190615536565b6127e0919061542b565b825160405191925033917f981eda60172361092f12c75de05c753d28c928d6fb0b4b6492e685a44265fc0a916128209130918a9187906000908190614ffc565b60405180910390a261283185611e0e565b6001600160a01b03166108fc829081150290604051600060405180830381858888f19350505050158015612869573d6000803e3d6000fd5b50505b5080612877816155e4565b9150506125e7565b6128876149aa565b5060009081526101d46020908152604091829020825160c0810184528154815260018201549281019290925260028101549282019290925260038201546001600160a01b031660608201526004820154608082015260059091015460a082015290565b60008051602061565083398151915261290381336137c3565b6101cd5460ff16156129275760405162461bcd60e51b8152600401610e5490615346565b6000612931612bf5565b905080156119d8576101cd546040516101009091046001600160a01b0316906108fc8315029083906000818181858888f19350505050158015610f8a573d6000803e3d6000fd5b60006001600160a01b0382166129e35760405162461bcd60e51b815260206004820152602a60248201527f4552433732313a2062616c616e636520717565727920666f7220746865207a65604482015269726f206164647265737360b01b6064820152608401610e54565b506001600160a01b031660009081526068602052604090205490565b60008181526101ce6020526040902054606090612a1c6101d55490565b67ffffffffffffffff811115612a4257634e487b7160e01b600052604160045260246000fd5b604051908082528060200260200182016040528015612abe57816020015b612aab6040518060e0016040528060008152602001600081526020016000151581526020016000815260200160006001600160a01b0316815260200160008152602001600081525090565b815260200190600190039081612a605790505b50915060005b6101d554811015612bee576101c85460008281526101d46020526040812060020154909190612af4908590615536565b612afe919061542b565b6101c85460008481526101d4602052604081206004015492935091612b24908690615536565b612b2e919061542b565b6040805160e08101825288815260008681526101d4602081815284832080548286018190528d85526101da835286852090855282528584205460ff161515958501959095526060840188905260038501546001600160a01b0316608085015260a0840186905291889052905260059091015460c08201528651919250908190879086908110612bcd57634e487b7160e01b600052603260045260246000fd5b60200260200101819052505050508080612be6906155e4565b915050612ac4565b5050919050565b600080805b6101d554811015612c905760008181526101d46020908152604091829020825160c0810184528154815260018201549281019290925260028101549282019290925260038201546001600160a01b0316606082018190526004830154608083015260059092015460a082015290612c7d576040810151612c7a90846153ee565b92505b5080612c88816155e4565b915050612bfa565b506000612c9d8247615555565b9392505050565b600080516020615650833981519152612cbd81336137c3565b611aa2613c14565b6101cd5460ff1615612ce95760405162461bcd60e51b8152600401610e54906152f5565b60006101c85411612d0c5760405162461bcd60e51b8152600401610e5490615247565b346101d954612d1b91906153ee565b6101d9556000612d2b6101d55490565b6040805160c081018252828152436020808301918252348385018181526000606080870182815260808089018481524260a0808c019182528d87526101d48a528c87208c5181559a5160018c0155965160028b0155925160038a0180546001600160a01b0319166001600160a01b039092169190911790555160048901559051600590970196909655875130815294850189905296840192909252948201819052918101919091529293509133917fce3ede2e266c8c5ec60064c2a65ba25bd2899a334c42b39b742129c49b1ef1c4910160405180910390a2612e136101d580546001019055565b604051309081903480156108fc02916000818181858888f193505050501580156117a9573d6000803e3d6000fd5b600091825261012d602090815260408084206001600160a01b0393909316845291905290205460ff1690565b606060668054610d5c906155af565b60008281526101ce602052604081205481805b6101d554811015612f725760008181526101d460209081526040808320815160c081018352815481526001808301548286015260028301548285015260038301546001600160a01b031660608301526004830154608083015260059092015460a08201528a85526101da845282852081518652909352922054909160ff909116151514612f5f57856001600160a01b031681606001516001600160a01b03161415612f5f576101c854848260800151612f489190615536565b612f52919061542b565b612f5c90846153ee565b92505b5080612f6a816155e4565b915050612e8f565b50949350505050565b600080516020615650833981519152612f9481336137c3565b6101cd5460ff161515600114612ff85760405162461bcd60e51b8152602060048201526024808201527f46756e6472616973696e6720706572696f642068617320616c726561647920656044820152631b99195960e21b6064820152608401610e54565b506101cd805460ff19169055565b6119d8338383613c8f565b6000806000806000806101c660009054906101000a90046001600160a01b03166001600160a01b031663feaf968c6040518163ffffffff1660e01b815260040160a06040518083038186803b15801561306957600080fd5b505afa15801561307d573d6000803e3d6000fd5b505050506040513d601f19601f820116820180604052508101906130a19190614e73565b9398509196509450925090506012826130f15760405162461bcd60e51b8152602060048201526012602482015271526f756e64206e6f7420636f6d706c65746560701b6044820152606401610e54565b60006130fe898388613d5e565b9998505050505050505050565b6131153383613521565b6131315760405162461bcd60e51b8152600401610e54906152a4565b6117a984848484613d9c565b6060610d4782613dcf565b6101d780546040805160208084028201810190925282815260609390929091830182828015610dd557602002820191906000526020600020905b815481526020019060010190808311613182575050505050905090565b60008181526101ce60205260408120546101c8548291829160089083906131c783600a61548e565b6131d2856001615536565b6131dc9190615536565b6131e6919061542b565b6101c7549398909750929550919350505050565b600082815261012d602052604090206001015461321781336137c3565b610f8a83836138ae565b60006101c8546101c9546132359190615555565b905090565b60606132466101d55490565b67ffffffffffffffff81111561326c57634e487b7160e01b600052604160045260246000fd5b6040519080825280602002602001820160405280156132a557816020015b6132926149aa565b81526020019060019003908161328a5790505b50905060005b6101d5548110156133555760008181526101d46020908152604091829020825160c0810184528154815260018201549281019290925260028101549282019290925260038201546001600160a01b031660608201526004820154608082015260059091015460a0820152825183908390811061333757634e487b7160e01b600052603260045260246000fd5b6020026020010181905250808061334d906155e4565b9150506132ab565b5090565b600080805b6101d5548110156133fc5760008181526101d46020908152604091829020825160c0810184528154815260018201549281019290925260028101549282019290925260038201546001600160a01b03908116606083018190526004840154608084015260059093015460a0830152909190861614156133e95760808101516133e690846153ee565b92505b50806133f4816155e4565b91505061335e565b5092915050565b6101cb80546040805160208084028201810190925282815260609390929091830182828015610dd55760200282019190600052602060002090815481526020019060010190808311613182575050505050905090565b3b151590565b60006001600160e01b03198216637965db0b60e01b1480610d475750610d4782613f0b565b600081815260696020526040902080546001600160a01b0319166001600160a01b03841690811790915581906134b982611e0e565b6001600160a01b03167f8c5be1e5ebec7d5bd14f71427d1e84f3dd0314c0f7b2291e5b200ac8c7c3b92560405160405180910390a45050565b6000612c9d836001600160a01b038416613f30565b6119d8828260405180602001604052806000815250613f7f565b6000818152606760205260408120546001600160a01b031661359a5760405162461bcd60e51b815260206004820152602c60248201527f4552433732313a206f70657261746f7220717565727920666f72206e6f6e657860448201526b34b9ba32b73a103a37b5b2b760a11b6064820152608401610e54565b60006135a583611e0e565b9050806001600160a01b0316846001600160a01b031614806135e05750836001600160a01b03166135d584610ddf565b6001600160a01b0316145b8061361057506001600160a01b038082166000908152606a602090815260408083209388168352929052205460ff165b949350505050565b826001600160a01b031661362b82611e0e565b6001600160a01b0316146136935760405162461bcd60e51b815260206004820152602960248201527f4552433732313a207472616e73666572206f6620746f6b656e2074686174206960448201526839903737ba1037bbb760b91b6064820152608401610e54565b6001600160a01b0382166136f55760405162461bcd60e51b8152602060048201526024808201527f4552433732313a207472616e7366657220746f20746865207a65726f206164646044820152637265737360e01b6064820152608401610e54565b613700838383613fb2565b61370b600082613484565b6001600160a01b0383166000908152606860205260408120805460019290613734908490615555565b90915550506001600160a01b03821660009081526068602052604081208054600192906137629084906153ee565b909155505060008181526067602052604080822080546001600160a01b0319166001600160a01b0386811691821790925591518493918716917fddf252ad1be2c89b69c2b068fc378daa952ba7f163c4a11628f55a4df523b3ef91a4505050565b6137cd8282612e41565b6119d8576137e5816001600160a01b03166014614003565b6137f0836020614003565b604051602001613801929190614f4a565b60408051601f198184030181529082905262461bcd60e51b8252610e549160040161514a565b6138318282612e41565b6119d857600082815261012d602090815260408083206001600160a01b03851684529091529020805460ff1916600117905561386a3390565b6001600160a01b0316816001600160a01b0316837f2f8788117e7eff1d82e926ec794901d17c78024a50270940304540a733656f0d60405160405180910390a45050565b6138b88282612e41565b156119d857600082815261012d602090815260408083206001600160a01b0385168085529252808320805460ff1916905551339285917ff6391f5c32d9c69d2a47ea670b442974b53935d1edc7fd64eb21e047a839171b9190a45050565b7f360894a13ba1a3210667c828492db98dca3e2076cc3735a920a3ca505d382bbc546001600160a01b031690565b6000805160206156508339815191526119d881336137c3565b6000613967613916565b9050613972846141e5565b60008351118061397f5750815b156139905761398e848461428a565b505b7f4910fdfa16fed3260ed0e7147f7cc6da11a60208b5b9406d12a635614ffd9143805460ff166117a757805460ff191660011781556040516001600160a01b0383166024820152613a0f90869060440160408051601f198184030181529190526020810180516001600160e01b0316631b2ce7f360e11b17905261428a565b50805460ff19168155613a20613916565b6001600160a01b0316826001600160a01b031614613a985760405162461bcd60e51b815260206004820152602f60248201527f45524331393637557067726164653a207570677261646520627265616b73206660448201526e75727468657220757067726164657360881b6064820152608401610e54565b6117a78561436c565b60fb5460ff16613aea5760405162461bcd60e51b815260206004820152601460248201527314185d5cd8589b194e881b9bdd081c185d5cd95960621b6044820152606401610e54565b60fb805460ff191690557f5db9ee0a495bf2e6ff9c91a7834c1ba4fdd244a5e8aa4e537bd38aeae4b073aa335b6040516001600160a01b03909116815260200160405180910390a1565b600054610100900460ff16613b5b5760405162461bcd60e51b8152600401610e5490615395565b613b636143ac565b613b6b6143ac565b6119d882826143d3565b600054610100900460ff16613b9c5760405162461bcd60e51b8152600401610e5490615395565b613ba46143ac565b613bac6143ac565b613bb46143ac565b565b600054610100900460ff16613bdd5760405162461bcd60e51b8152600401610e5490615395565b613be56143ac565b613bb4614421565b600054610100900460ff16613ba45760405162461bcd60e51b8152600401610e5490615395565b60fb5460ff1615613c5a5760405162461bcd60e51b815260206004820152601060248201526f14185d5cd8589b194e881c185d5cd95960821b6044820152606401610e54565b60fb805460ff191660011790557f62e78cea01bee320cd4e420270b5ea74000d11b0c9f74754ebdbfc544b05a258613b173390565b816001600160a01b0316836001600160a01b03161415613cf15760405162461bcd60e51b815260206004820152601960248201527f4552433732313a20617070726f766520746f2063616c6c6572000000000000006044820152606401610e54565b6001600160a01b038381166000818152606a6020908152604080832094871680845294825291829020805460ff191686151590811790915591519182527f17307eab39ab6107e8899845ad3d59bd9653f200f220920489ca2b5937696c31910160405180910390a3505050565b60006101c754836101c354613d739190615555565b613d7e90600a61548e565b613d888487615536565b613d929190615536565b613610919061542b565b613da7848484613618565b613db384848484614454565b6117a95760405162461bcd60e51b8152600401610e549061515d565b606081613df35750506040805180820190915260018152600360fc1b602082015290565b8160005b8115613e1d5780613e07816155e4565b9150613e169050600a8361542b565b9150613df7565b60008167ffffffffffffffff811115613e4657634e487b7160e01b600052604160045260246000fd5b6040519080825280601f01601f191660200182016040528015613e70576020820181803683370190505b509050815b8515612f7257613e86600182615555565b90506000613e95600a8861542b565b613ea090600a615536565b613eaa9088615555565b613eb5906030615406565b905060008160f81b905080848481518110613ee057634e487b7160e01b600052603260045260246000fd5b60200101906001600160f81b031916908160001a905350613f02600a8961542b565b97505050613e75565b60006001600160e01b0319821663780e9d6360e01b1480610d475750610d4782614561565b6000818152600183016020526040812054613f7757508154600181810184556000848152602080822090930184905584548482528286019093526040902091909155610d47565b506000610d47565b613f8983836145b1565b613f966000848484614454565b610f8a5760405162461bcd60e51b8152600401610e549061515d565b60fb5460ff1615613ff85760405162461bcd60e51b815260206004820152601060248201526f14185d5cd8589b194e881c185d5cd95960821b6044820152606401610e54565b610f8a8383836146ff565b60606000614012836002615536565b61401d9060026153ee565b67ffffffffffffffff81111561404357634e487b7160e01b600052604160045260246000fd5b6040519080825280601f01601f19166020018201604052801561406d576020820181803683370190505b509050600360fc1b8160008151811061409657634e487b7160e01b600052603260045260246000fd5b60200101906001600160f81b031916908160001a905350600f60fb1b816001815181106140d357634e487b7160e01b600052603260045260246000fd5b60200101906001600160f81b031916908160001a90535060006140f7846002615536565b6141029060016153ee565b90505b6001811115614196576f181899199a1a9b1b9c1cb0b131b232b360811b85600f166010811061414457634e487b7160e01b600052603260045260246000fd5b1a60f81b82828151811061416857634e487b7160e01b600052603260045260246000fd5b60200101906001600160f81b031916908160001a90535060049490941c9361418f81615598565b9050614105565b508315612c9d5760405162461bcd60e51b815260206004820181905260248201527f537472696e67733a20686578206c656e67746820696e73756666696369656e746044820152606401610e54565b803b6142495760405162461bcd60e51b815260206004820152602d60248201527f455243313936373a206e657720696d706c656d656e746174696f6e206973206e60448201526c1bdd08184818dbdb9d1c9858dd609a1b6064820152608401610e54565b7f360894a13ba1a3210667c828492db98dca3e2076cc3735a920a3ca505d382bbc80546001600160a01b0319166001600160a01b0392909216919091179055565b6060823b6142e95760405162461bcd60e51b815260206004820152602660248201527f416464726573733a2064656c65676174652063616c6c20746f206e6f6e2d636f6044820152651b9d1c9858dd60d21b6064820152608401610e54565b600080846001600160a01b0316846040516143049190614f2e565b600060405180830381855af49150503d806000811461433f576040519150601f19603f3d011682016040523d82523d6000602084013e614344565b606091505b5091509150611e058282604051806060016040528060278152602001615670602791396147b7565b614375816141e5565b6040516001600160a01b038216907fbc7cd75a20ee27fd9adebab32041f755214dbc6bffa90cc0225b39da2e5c2d3b90600090a250565b600054610100900460ff16613bb45760405162461bcd60e51b8152600401610e5490615395565b600054610100900460ff166143fa5760405162461bcd60e51b8152600401610e5490615395565b815161440d9060659060208501906149e9565b508051610f8a9060669060208401906149e9565b600054610100900460ff166144485760405162461bcd60e51b8152600401610e5490615395565b60fb805460ff19169055565b60006001600160a01b0384163b1561455657604051630a85bd0160e11b81526001600160a01b0385169063150b7a0290614498903390899088908890600401614fbf565b602060405180830381600087803b1580156144b257600080fd5b505af19250505080156144e2575060408051601f3d908101601f191682019092526144df91810190614d40565b60015b61453c573d808015614510576040519150601f19603f3d011682016040523d82523d6000602084013e614515565b606091505b5080516145345760405162461bcd60e51b8152600401610e549061515d565b805181602001fd5b6001600160e01b031916630a85bd0160e11b149050613610565b506001949350505050565b60006001600160e01b031982166380ac58cd60e01b148061459257506001600160e01b03198216635b5e139f60e01b145b80610d4757506301ffc9a760e01b6001600160e01b0319831614610d47565b6001600160a01b0382166146075760405162461bcd60e51b815260206004820181905260248201527f4552433732313a206d696e7420746f20746865207a65726f20616464726573736044820152606401610e54565b6000818152606760205260409020546001600160a01b03161561466c5760405162461bcd60e51b815260206004820152601c60248201527f4552433732313a20746f6b656e20616c7265616479206d696e746564000000006044820152606401610e54565b61467860008383613fb2565b6001600160a01b03821660009081526068602052604081208054600192906146a19084906153ee565b909155505060008181526067602052604080822080546001600160a01b0319166001600160a01b03861690811790915590518392907fddf252ad1be2c89b69c2b068fc378daa952ba7f163c4a11628f55a4df523b3ef908290a45050565b6001600160a01b03831661475a5761475581609980546000838152609a60205260408120829055600182018355919091527f72a152ddfb8e864297c917af52ea6c1c68aead0fee1a62673fcc7e0c94979d000155565b61477d565b816001600160a01b0316836001600160a01b03161461477d5761477d83826147f0565b6001600160a01b03821661479457610f8a8161488d565b826001600160a01b0316826001600160a01b031614610f8a57610f8a8282614966565b606083156147c6575081612c9d565b8251156147d65782518084602001fd5b8160405162461bcd60e51b8152600401610e54919061514a565b600060016147fd84612978565b6148079190615555565b60008381526098602052604090205490915080821461485a576001600160a01b03841660009081526097602090815260408083208584528252808320548484528184208190558352609890915290208190555b5060009182526098602090815260408084208490556001600160a01b039094168352609781528383209183525290812055565b60995460009061489f90600190615555565b6000838152609a6020526040812054609980549394509092849081106148d557634e487b7160e01b600052603260045260246000fd5b90600052602060002001549050806099838154811061490457634e487b7160e01b600052603260045260246000fd5b6000918252602080832090910192909255828152609a9091526040808220849055858252812055609980548061494a57634e487b7160e01b600052603160045260246000fd5b6001900381819060005260206000200160009055905550505050565b600061497183612978565b6001600160a01b039093166000908152609760209081526040808320868452825280832085905593825260989052919091209190915550565b6040518060c0016040528060008152602001600081526020016000815260200160006001600160a01b0316815260200160008152602001600081525090565b8280546149f5906155af565b90600052602060002090601f016020900481019282614a175760008555614a5d565b82601f10614a3057805160ff1916838001178555614a5d565b82800160010185558215614a5d579182015b82811115614a5d578251825591602001919060010190614a42565b506133559291505b808211156133555760008155600101614a65565b80356001600160a01b0381168114614a9057600080fd5b919050565b600082601f830112614aa5578081fd5b813567ffffffffffffffff80821115614ac057614ac0615615565b604051601f8301601f19908116603f01168101908282118183101715614ae857614ae8615615565b81604052838152866020858801011115614b00578485fd5b8360208701602083013792830160200193909352509392505050565b805169ffffffffffffffffffff81168114614a9057600080fd5b600060208284031215614b47578081fd5b612c9d82614a79565b60008060408385031215614b62578081fd5b614b6b83614a79565b9150614b7960208401614a79565b90509250929050565b600080600060608486031215614b96578081fd5b614b9f84614a79565b9250614bad60208501614a79565b9150604084013590509250925092565b60008060008060808587031215614bd2578081fd5b614bdb85614a79565b9350614be960208601614a79565b925060408501359150606085013567ffffffffffffffff811115614c0b578182fd5b614c1787828801614a95565b91505092959194509250565b60008060408385031215614c35578182fd5b614c3e83614a79565b91506020830135614c4e8161562b565b809150509250929050565b60008060408385031215614c6b578182fd5b614c7483614a79565b9150602083013567ffffffffffffffff811115614c8f578182fd5b614c9b85828601614a95565b9150509250929050565b60008060408385031215614cb7578182fd5b614cc083614a79565b946020939093013593505050565b600060208284031215614cdf578081fd5b8151612c9d8161562b565b600060208284031215614cfb578081fd5b5035919050565b60008060408385031215614d14578182fd5b82359150614b7960208401614a79565b600060208284031215614d35578081fd5b8135612c9d81615639565b600060208284031215614d51578081fd5b8151612c9d81615639565b60008060008060008060008060008060006101608c8e031215614d7d578889fd5b67ffffffffffffffff808d351115614d9357898afd5b614da08e8e358f01614a95565b9b508060208e01351115614db257898afd5b50614dc38d60208e01358e01614a95565b995060408c0135985060608c01359750614ddf60808d01614a79565b9650614ded60a08d01614a79565b9550614dfb60c08d01614a79565b945060e08c013593506101008c01359250614e196101208d01614a79565b9150614e286101408d01614a79565b90509295989b509295989b9093969950565b600060208284031215614e4b578081fd5b5051919050565b60008060408385031215614e64578182fd5b50508035926020909101359150565b600080600080600060a08688031215614e8a578283fd5b614e9386614b1c565b9450602086015193506040860151925060608601519150614eb660808701614b1c565b90509295509295909350565b60008151808452614eda81602086016020860161556c565b601f01601f19169290920160200192915050565b8051825260208082015190830152604080820151908301526060808201516001600160a01b0316908301526080808201519083015260a090810151910152565b60008251614f4081846020870161556c565b9190910192915050565b7f416363657373436f6e74726f6c3a206163636f756e7420000000000000000000815260008351614f8281601785016020880161556c565b7001034b99036b4b9b9b4b733903937b6329607d1b6017918401918201528351614fb381602884016020880161556c565b01602801949350505050565b6001600160a01b0385811682528416602082015260408101839052608060608201819052600090614ff290830184614ec2565b9695505050505050565b6001600160a01b039687168152602081019590955260408501939093526060840191909152909216608082015260a081019190915260c00190565b6020808252825182820181905260009190848201906040850190845b8181101561506f57835183529284019291840191600101615053565b50909695505050505050565b602080825282518282018190526000919060409081850190868401855b828110156150fb57815180518552868101518786015285810151151586860152606080820151908601526080808201516001600160a01b03169086015260a0808201519086015260c0908101519085015260e09093019290850190600101615098565b5091979650505050505050565b6020808252825182820181905260009190848201906040850190845b8181101561506f57615137838551614eee565b9284019260c09290920191600101615124565b602081526000612c9d6020830184614ec2565b60208082526032908201527f4552433732313a207472616e7366657220746f206e6f6e20455243373231526560408201527131b2b4bb32b91034b6b83632b6b2b73a32b960711b606082015260800190565b6020808252602c908201527f46756e6374696f6e206d7573742062652063616c6c6564207468726f7567682060408201526b19195b1959d85d1958d85b1b60a21b606082015260800190565b6020808252602c908201527f46756e6374696f6e206d7573742062652063616c6c6564207468726f7567682060408201526b6163746976652070726f787960a01b606082015260800190565b60208082526037908201527f4e6f207368617265732068617665206265656e20736f6c642e204465706f736960408201527f74732077696c6c206e6f74206265206163636570746564000000000000000000606082015260800190565b60208082526031908201527f4552433732313a207472616e736665722063616c6c6572206973206e6f74206f6040820152701ddb995c881b9bdc88185c1c1c9bdd9959607a1b606082015260800190565b60208082526031908201527f4465706f736974732063616e6e6f74206265206d61646520647572696e6720666040820152701d5b991c985a5cda5b99c81c195c9a5bd9607a1b606082015260800190565b6020808252602f908201527f5265736375652063616e6e6f74206265206d61646520647572696e672066756e60408201526e191c985a5cda5b99c81c195c9a5bd9608a1b606082015260800190565b6020808252602b908201527f496e697469616c697a61626c653a20636f6e7472616374206973206e6f74206960408201526a6e697469616c697a696e6760a81b606082015260800190565b60c08101610d478284614eee565b60008219821115615401576154016155ff565b500190565b600060ff821660ff84168060ff03821115615423576154236155ff565b019392505050565b60008261544657634e487b7160e01b81526012600452602481fd5b500490565b600181815b8085111561548657816000190482111561546c5761546c6155ff565b8085161561547957918102915b93841c9390800290615450565b509250929050565b6000612c9d83836000826154a457506001610d47565b816154b157506000610d47565b81600181146154c757600281146154d1576154ed565b6001915050610d47565b60ff8411156154e2576154e26155ff565b50506001821b610d47565b5060208310610133831016604e8410600b8410161715615510575081810a610d47565b61551a838361544b565b806000190482111561552e5761552e6155ff565b029392505050565b6000816000190483118215151615615550576155506155ff565b500290565b600082821015615567576155676155ff565b500390565b60005b8381101561558757818101518382015260200161556f565b838111156117a95750506000910152565b6000816155a7576155a76155ff565b506000190190565b600181811c908216806155c357607f821691505b60208210811415611cd357634e487b7160e01b600052602260045260246000fd5b60006000198214156155f8576155f86155ff565b5060010190565b634e487b7160e01b600052601160045260246000fd5b634e487b7160e01b600052604160045260246000fd5b8015158114611aa257600080fd5b6001600160e01b031981168114611aa257600080fdfe3b5d4cc60d3ec3516ee8ae083bd60934f6eb2a6c54b1229985c41bfb092b2603416464726573733a206c6f772d6c6576656c2064656c65676174652063616c6c206661696c6564a26469706673582212204e736204043f64852c9896d4a0c14780ee120fbd54bf048a4a7cf466d1fb149864736f6c63430008040033",
  "linkReferences": {},
  "deployedLinkReferences": {}
}