{
  "_format": "hh-sol-artifact-1",
  "contractName": "LootboxEscrowFactory",
  "sourceName": "contracts/LootboxEscrowFactory.sol",
  "abi": [
    {
      "inputs": [
        {
          "internalType": "address",
          "name": "_lootboxDao",
          "type": "address"
        },
        {
          "internalType": "address",
          "name": "_nativeTokenPriceFeed",
          "type": "address"
        },
        {
          "internalType": "uint256",
          "name": "_ticketPurchaseFee",
          "type": "uint256"
        },
        {
          "internalType": "address",
          "name": "_brokerAddress",
          "type": "address"
        }
      ],
      "stateMutability": "nonpayable",
      "type": "constructor"
    },
    {
      "anonymous": false,
      "inputs": [
        {
          "indexed": true,
          "internalType": "address",
          "name": "lootbox",
          "type": "address"
        },
        {
          "indexed": true,
          "internalType": "address",
          "name": "affiliate",
          "type": "address"
        },
        {
          "indexed": false,
          "internalType": "uint256",
          "name": "affiliateFee",
          "type": "uint256"
        },
        {
          "indexed": false,
          "internalType": "uint256",
          "name": "ticketPurchaseFee",
          "type": "uint256"
        },
        {
          "indexed": false,
          "internalType": "address",
          "name": "lootboxIssuer",
          "type": "address"
        },
        {
          "indexed": false,
          "internalType": "address",
          "name": "lootboxTreasury",
          "type": "address"
        }
      ],
      "name": "AffiliateReceipt",
      "type": "event"
    },
    {
      "anonymous": false,
      "inputs": [
        {
          "indexed": true,
          "internalType": "address",
          "name": "affiliate",
          "type": "address"
        },
        {
          "indexed": true,
          "internalType": "address",
          "name": "whitelistedBy",
          "type": "address"
        },
        {
          "indexed": false,
          "internalType": "uint256",
          "name": "ticketAffiliateFee",
          "type": "uint256"
        },
        {
          "indexed": false,
          "internalType": "uint256",
          "name": "timestamp",
          "type": "uint256"
        }
      ],
      "name": "AffiliateWhitelisted",
      "type": "event"
    },
    {
      "anonymous": false,
      "inputs": [
        {
          "indexed": false,
          "internalType": "string",
          "name": "lootboxName",
          "type": "string"
        },
        {
          "indexed": true,
          "internalType": "address",
          "name": "lootbox",
          "type": "address"
        },
        {
          "indexed": true,
          "internalType": "address",
          "name": "issuer",
          "type": "address"
        },
        {
          "indexed": true,
          "internalType": "address",
          "name": "treasury",
          "type": "address"
        },
        {
          "indexed": false,
          "internalType": "uint256",
          "name": "targetSharesSold",
          "type": "uint256"
        },
        {
          "indexed": false,
          "internalType": "uint256",
          "name": "maxSharesSold",
          "type": "uint256"
        },
        {
          "indexed": false,
          "internalType": "uint256",
          "name": "sharePriceUSD",
          "type": "uint256"
        },
        {
          "indexed": false,
          "internalType": "string",
          "name": "_data",
          "type": "string"
        }
      ],
      "name": "LootboxCreated",
      "type": "event"
    },
    {
      "anonymous": false,
      "inputs": [
        {
          "indexed": false,
          "internalType": "address",
          "name": "account",
          "type": "address"
        }
      ],
      "name": "Paused",
      "type": "event"
    },
    {
      "anonymous": false,
      "inputs": [
        {
          "indexed": true,
          "internalType": "bytes32",
          "name": "role",
          "type": "bytes32"
        },
        {
          "indexed": true,
          "internalType": "bytes32",
          "name": "previousAdminRole",
          "type": "bytes32"
        },
        {
          "indexed": true,
          "internalType": "bytes32",
          "name": "newAdminRole",
          "type": "bytes32"
        }
      ],
      "name": "RoleAdminChanged",
      "type": "event"
    },
    {
      "anonymous": false,
      "inputs": [
        {
          "indexed": true,
          "internalType": "bytes32",
          "name": "role",
          "type": "bytes32"
        },
        {
          "indexed": true,
          "internalType": "address",
          "name": "account",
          "type": "address"
        },
        {
          "indexed": true,
          "internalType": "address",
          "name": "sender",
          "type": "address"
        }
      ],
      "name": "RoleGranted",
      "type": "event"
    },
    {
      "anonymous": false,
      "inputs": [
        {
          "indexed": true,
          "internalType": "bytes32",
          "name": "role",
          "type": "bytes32"
        },
        {
          "indexed": true,
          "internalType": "address",
          "name": "account",
          "type": "address"
        },
        {
          "indexed": true,
          "internalType": "address",
          "name": "sender",
          "type": "address"
        }
      ],
      "name": "RoleRevoked",
      "type": "event"
    },
    {
      "anonymous": false,
      "inputs": [
        {
          "indexed": false,
          "internalType": "address",
          "name": "account",
          "type": "address"
        }
      ],
      "name": "Unpaused",
      "type": "event"
    },
    {
      "inputs": [],
      "name": "DAO_ROLE",
      "outputs": [
        {
          "internalType": "bytes32",
          "name": "",
          "type": "bytes32"
        }
      ],
      "stateMutability": "view",
      "type": "function"
    },
    {
      "inputs": [],
      "name": "DEFAULT_ADMIN_ROLE",
      "outputs": [
        {
          "internalType": "bytes32",
          "name": "",
          "type": "bytes32"
        }
      ],
      "stateMutability": "view",
      "type": "function"
    },
    {
      "inputs": [
        {
          "internalType": "address",
          "name": "affiliate",
          "type": "address"
        },
        {
          "internalType": "uint256",
          "name": "ticketAffiliateFee",
          "type": "uint256"
        }
      ],
      "name": "addAffiliate",
      "outputs": [],
      "stateMutability": "nonpayable",
      "type": "function"
    },
    {
      "inputs": [],
      "name": "brokerAddress",
      "outputs": [
        {
          "internalType": "address",
          "name": "",
          "type": "address"
        }
      ],
      "stateMutability": "view",
      "type": "function"
    },
    {
      "inputs": [
        {
          "internalType": "address",
          "name": "lootbox",
          "type": "address"
        }
      ],
      "name": "checkLootboxAffiliate",
      "outputs": [
        {
          "internalType": "address",
          "name": "",
          "type": "address"
        }
      ],
      "stateMutability": "view",
      "type": "function"
    },
    {
      "inputs": [
        {
          "internalType": "string",
          "name": "_lootboxName",
          "type": "string"
        },
        {
          "internalType": "string",
          "name": "_lootboxSymbol",
          "type": "string"
        },
        {
          "internalType": "uint256",
          "name": "_targetSharesSold",
          "type": "uint256"
        },
        {
          "internalType": "uint256",
          "name": "_maxSharesSold",
          "type": "uint256"
        },
        {
          "internalType": "address",
          "name": "_treasury",
          "type": "address"
        },
        {
          "internalType": "address",
          "name": "_affiliate",
          "type": "address"
        },
        {
          "internalType": "string",
          "name": "_data",
          "type": "string"
        }
      ],
      "name": "createLootbox",
      "outputs": [
        {
          "internalType": "address",
          "name": "_lootbox",
          "type": "address"
        }
      ],
      "stateMutability": "nonpayable",
      "type": "function"
    },
    {
      "inputs": [
        {
          "internalType": "bytes32",
          "name": "role",
          "type": "bytes32"
        }
      ],
      "name": "getRoleAdmin",
      "outputs": [
        {
          "internalType": "bytes32",
          "name": "",
          "type": "bytes32"
        }
      ],
      "stateMutability": "view",
      "type": "function"
    },
    {
      "inputs": [
        {
          "internalType": "bytes32",
          "name": "role",
          "type": "bytes32"
        },
        {
          "internalType": "address",
          "name": "account",
          "type": "address"
        }
      ],
      "name": "grantRole",
      "outputs": [],
      "stateMutability": "nonpayable",
      "type": "function"
    },
    {
      "inputs": [
        {
          "internalType": "bytes32",
          "name": "role",
          "type": "bytes32"
        },
        {
          "internalType": "address",
          "name": "account",
          "type": "address"
        }
      ],
      "name": "hasRole",
      "outputs": [
        {
          "internalType": "bool",
          "name": "",
          "type": "bool"
        }
      ],
      "stateMutability": "view",
      "type": "function"
    },
    {
      "inputs": [],
      "name": "listAffiliates",
      "outputs": [
        {
          "internalType": "bytes32[]",
          "name": "_affiliates",
          "type": "bytes32[]"
        }
      ],
      "stateMutability": "view",
      "type": "function"
    },
    {
      "inputs": [],
      "name": "lootboxImplementation",
      "outputs": [
        {
          "internalType": "address",
          "name": "",
          "type": "address"
        }
      ],
      "stateMutability": "view",
      "type": "function"
    },
    {
      "inputs": [],
      "name": "nativeTokenPriceFeed",
      "outputs": [
        {
          "internalType": "address",
          "name": "",
          "type": "address"
        }
      ],
      "stateMutability": "view",
      "type": "function"
    },
    {
      "inputs": [],
      "name": "pause",
      "outputs": [],
      "stateMutability": "nonpayable",
      "type": "function"
    },
    {
      "inputs": [],
      "name": "paused",
      "outputs": [
        {
          "internalType": "bool",
          "name": "",
          "type": "bool"
        }
      ],
      "stateMutability": "view",
      "type": "function"
    },
    {
      "inputs": [
        {
          "internalType": "bytes32",
          "name": "role",
          "type": "bytes32"
        },
        {
          "internalType": "address",
          "name": "account",
          "type": "address"
        }
      ],
      "name": "renounceRole",
      "outputs": [],
      "stateMutability": "nonpayable",
      "type": "function"
    },
    {
      "inputs": [
        {
          "internalType": "bytes32",
          "name": "role",
          "type": "bytes32"
        },
        {
          "internalType": "address",
          "name": "account",
          "type": "address"
        }
      ],
      "name": "revokeRole",
      "outputs": [],
      "stateMutability": "nonpayable",
      "type": "function"
    },
    {
      "inputs": [],
      "name": "sharePriceUSD",
      "outputs": [
        {
          "internalType": "uint256",
          "name": "",
          "type": "uint256"
        }
      ],
      "stateMutability": "view",
      "type": "function"
    },
    {
      "inputs": [
        {
          "internalType": "bytes4",
          "name": "interfaceId",
          "type": "bytes4"
        }
      ],
      "name": "supportsInterface",
      "outputs": [
        {
          "internalType": "bool",
          "name": "",
          "type": "bool"
        }
      ],
      "stateMutability": "view",
      "type": "function"
    },
    {
      "inputs": [],
      "name": "ticketPurchaseFee",
      "outputs": [
        {
          "internalType": "uint256",
          "name": "",
          "type": "uint256"
        }
      ],
      "stateMutability": "view",
      "type": "function"
    },
    {
      "inputs": [],
      "name": "unpause",
      "outputs": [],
      "stateMutability": "nonpayable",
      "type": "function"
    },
    {
      "inputs": [],
      "name": "viewLootboxes",
      "outputs": [
        {
          "internalType": "bytes32[]",
          "name": "",
          "type": "bytes32[]"
        }
      ],
      "stateMutability": "view",
      "type": "function"
    }
  ],
  "bytecode": "0x6101006040523480156200001257600080fd5b5060405162007f4338038062007f4383398101604081905262000035916200032f565b6000805460ff191690556001600160a01b038416620000a65760405162461bcd60e51b815260206004820152602260248201527f44414f204c6f6f74626f7820616464726573732063616e6e6f74206265207a65604482015261726f60f01b60648201526084015b60405180910390fd5b6001600160a01b038116620000fe5760405162461bcd60e51b815260206004820152601d60248201527f42726f6b657220616464726573732063616e6e6f74206265207a65726f00000060448201526064016200009d565b6001600160a01b0383166200016a5760405162461bcd60e51b815260206004820152602b60248201527f6e6174697665546f6b656e50726963654665656420616464726573732063616e60448201526a6e6f74206265207a65726f60a81b60648201526084016200009d565b6305f5e1008210620001e55760405162461bcd60e51b815260206004820152603660248201527f5075726368617365207469636b657420666565206d757374206265206c65737360448201527f207468616e20313030303030303030202831303025290000000000000000000060648201526084016200009d565b604051620001f39062000304565b604051809103906000f08015801562000210573d6000803e3d6000fd5b5060601b6001600160601b0319166080526200024d7f3b5d4cc60d3ec3516ee8ae083bd60934f6eb2a6c54b1229985c41bfb092b2603856200027b565b624c4b406002556001600160601b0319606093841b811660a05260c09290925290911b1660e0525062000382565b60008281526001602090815260408083206001600160a01b038516845290915290205460ff16620003005760008281526001602081815260408084206001600160a01b0386168086529252808420805460ff19169093179092559051339285917f2f8788117e7eff1d82e926ec794901d17c78024a50270940304540a733656f0d9190a45b5050565b615d0f806200223483390190565b80516001600160a01b03811681146200032a57600080fd5b919050565b6000806000806080858703121562000345578384fd5b620003508562000312565b9350620003606020860162000312565b925060408501519150620003776060860162000312565b905092959194509250565b60805160601c60a05160601c60c05160e05160601c611e45620003ef6000396000818161026901526108550152600081816102ff0152818161080e015281816109a60152610a5d01526000818161033e01526107ed0152600081816101a101526107be0152611e456000f3fe60806040523480156200001157600080fd5b5060043610620001515760003560e01c8063565bae8d11620000c7578063a217fddf1162000086578063a217fddf14620002f0578063a7c721c514620002f9578063d547741f1462000321578063d7c28bb21462000338578063e9c265181462000360578063fd9e62a9146200037757600080fd5b8063565bae8d14620002955780635c975abb14620002ac578063737d568714620002b85780638456cb5914620002cf57806391d1485414620002d957600080fd5b806336568abe116200011457806336568abe146200022b578063372c64d514620002425780633f4ba83a14620002595780635089f79614620002635780635225b69c146200028b57600080fd5b806301ffc9a7146200015657806317088631146200018257806319dd5657146200019b578063248a9ca314620001dc5780632f2ff15d1462000212575b600080fd5b6200016d62000167366004620012ad565b62000381565b60405190151581526020015b60405180910390f35b6200018c620003b9565b60405162000179919062001473565b620001c37f000000000000000000000000000000000000000000000000000000000000000081565b6040516001600160a01b03909116815260200162000179565b62000203620001ed36600462001266565b6000908152600160208190526040909120015490565b60405190815260200162000179565b62000229620002233660046200127f565b62000412565b005b620002296200023c3660046200127f565b62000442565b620001c362000253366004620012d7565b620004c8565b6200022962000a16565b620001c37f000000000000000000000000000000000000000000000000000000000000000081565b6200020360025481565b62000229620002a63660046200123a565b62000a3f565b60005460ff166200016d565b620001c3620002c93660046200121d565b62000b75565b6200022962000bb3565b6200016d620002ea3660046200127f565b62000bd9565b62000203600081565b620002037f000000000000000000000000000000000000000000000000000000000000000081565b62000229620003323660046200127f565b62000c04565b620001c37f000000000000000000000000000000000000000000000000000000000000000081565b6200020360008051602062001df083398151915281565b6200018c62000c2f565b60006001600160e01b03198216637965db0b60e01b1480620003b357506301ffc9a760e01b6001600160e01b03198316145b92915050565b6007805460408051602080840282018101909252828152606093909290918301828280156200040857602002820191906000526020600020905b815481526020019060010190808311620003f3575b5050505050905090565b6000828152600160208190526040909120015462000431813362000ca3565b6200043d838362000d12565b505050565b6001600160a01b0381163314620004b85760405162461bcd60e51b815260206004820152602f60248201527f416363657373436f6e74726f6c3a2063616e206f6e6c792072656e6f756e636560448201526e103937b632b9903337b91039b2b63360891b60648201526084015b60405180910390fd5b620004c4828262000d80565b5050565b6000805460ff1615620005115760405162461bcd60e51b815260206004820152601060248201526f14185d5cd8589b194e881c185d5cd95960821b6044820152606401620004af565b8751620005615760405162461bcd60e51b815260206004820152601c60248201527f4c6f6f74626f78206e616d652063616e6e6f7420626520656d707479000000006044820152606401620004af565b8651620005b15760405162461bcd60e51b815260206004820152601e60248201527f4c6f6f74626f782073796d626f6c2063616e6e6f7420626520656d70747900006044820152606401620004af565b6001600160a01b038316620006095760405162461bcd60e51b815260206004820181905260248201527f416666696c6961746520616464726573732063616e6e6f74206265207a65726f6044820152606401620004af565b60008611620006705760405162461bcd60e51b815260206004820152602c60248201527f5461726765742073686172657320736f6c64206d75737420626520677265617460448201526b6572207468616e207a65726f60a01b6064820152608401620004af565b60008511620006d45760405162461bcd60e51b815260206004820152602960248201527f4d61782073686172657320736f6c64206d7573742062652067726561746572206044820152687468616e207a65726f60b81b6064820152608401620004af565b85851015620007585760405162461bcd60e51b815260206004820152604360248201527f4d61782073686172657320736f6c64206d75737420626520677265617465722060448201527f7468616e206f7220657175616c20746f207461726765742073686172657320736064820152621bdb1960ea1b608482015260a401620004af565b6001600160a01b038416620007ba5760405162461bcd60e51b815260206004820152602160248201527f54726561737572792061646472657373206d7573742062652070726f766964656044820152601960fa1b6064820152608401620004af565b60007f00000000000000000000000000000000000000000000000000000000000000006364fcac4060e01b8a8a8a8a8a337f00000000000000000000000000000000000000000000000000000000000000007f0000000000000000000000000000000000000000000000000000000000000000600360008f6001600160a01b03166001600160a01b03168152602001908152602001600020547f00000000000000000000000000000000000000000000000000000000000000008f604051602401620008919b9a99989796959493929190620014ce565b60408051601f198184030181529181526020820180516001600160e01b03166001600160e01b0319909416939093179092529051620008d09062001163565b620008dd92919062001445565b604051809103906000f080158015620008fa573d6000803e3d6000fd5b5090506200090a60078262000dea565b506001600160a01b038181166000818152600460205260409081902080546001600160a01b0319168885161790556002549051928816923392917fd80450a217cc6610088de7c965dda0dcd24f55a93c4308932fdb6b3fa03202829162000979918f918e918e918c9062001550565b60405180910390a46001600160a01b038481166000818152600360209081526040918290205482519081527f00000000000000000000000000000000000000000000000000000000000000009181019190915233818301528884166060820152905191928416917f0b4c73cb9afffcc1a8fe5a90b0072b37bb1da3a9256116b10867b2115bd6c48b9181900360800190a398975050505050505050565b60008051602062001df083398151915262000a32813362000ca3565b62000a3c62000e08565b50565b60008051602062001df083398151915262000a5b813362000ca3565b7f000000000000000000000000000000000000000000000000000000000000000082111562000b025760405162461bcd60e51b815260206004820152604660248201527f416666696c69617465207469636b657420666565206d757374206265206c657360448201527f73207468616e206f7220657175616c20746f207075726368617365207469636b60648201526565742066656560d01b608482015260a401620004af565b6001600160a01b038316600090815260036020526040902082905562000b2a60058462000dea565b506040805183815242602082015233916001600160a01b038616917f92b63ef4b711e706248082654091a6c515ca36d749b6008a128776a88f03830e910160405180910390a3505050565b600060008051602062001df083398151915262000b93813362000ca3565b50506001600160a01b039081166000908152600460205260409020541690565b60008051602062001df083398151915262000bcf813362000ca3565b62000a3c62000e9d565b60009182526001602090815260408084206001600160a01b0393909316845291905290205460ff1690565b6000828152600160208190526040909120015462000c23813362000ca3565b6200043d838362000d80565b606060008051602062001df083398151915262000c4d813362000ca3565b600580546040805160208084028201810190925282815292919083018282801562000c9857602002820191906000526020600020905b81548152602001906001019080831162000c83575b505050505091505090565b62000caf828262000bd9565b620004c45762000cca816001600160a01b0316601462000f1b565b62000cd783602062000f1b565b60405160200162000cea929190620013cc565b60408051601f198184030181529082905262461bcd60e51b8252620004af91600401620014b9565b62000d1e828262000bd9565b620004c45760008281526001602081815260408084206001600160a01b0386168086529252808420805460ff19169093179092559051339285917f2f8788117e7eff1d82e926ec794901d17c78024a50270940304540a733656f0d9190a45050565b62000d8c828262000bd9565b15620004c45760008281526001602090815260408083206001600160a01b0385168085529252808320805460ff1916905551339285917ff6391f5c32d9c69d2a47ea670b442974b53935d1edc7fd64eb21e047a839171b9190a45050565b600062000e01836001600160a01b03841662001111565b9392505050565b60005460ff1662000e535760405162461bcd60e51b815260206004820152601460248201527314185d5cd8589b194e881b9bdd081c185d5cd95960621b6044820152606401620004af565b6000805460ff191690557f5db9ee0a495bf2e6ff9c91a7834c1ba4fdd244a5e8aa4e537bd38aeae4b073aa335b6040516001600160a01b03909116815260200160405180910390a1565b60005460ff161562000ee55760405162461bcd60e51b815260206004820152601060248201526f14185d5cd8589b194e881c185d5cd95960821b6044820152606401620004af565b6000805460ff191660011790557f62e78cea01bee320cd4e420270b5ea74000d11b0c9f74754ebdbfc544b05a25862000e803390565b6060600062000f2c836002620015b2565b62000f3990600262001597565b67ffffffffffffffff81111562000f6057634e487b7160e01b600052604160045260246000fd5b6040519080825280601f01601f19166020018201604052801562000f8b576020820181803683370190505b509050600360fc1b8160008151811062000fb557634e487b7160e01b600052603260045260246000fd5b60200101906001600160f81b031916908160001a905350600f60fb1b8160018151811062000ff357634e487b7160e01b600052603260045260246000fd5b60200101906001600160f81b031916908160001a905350600062001019846002620015b2565b6200102690600162001597565b90505b6001811115620010c0576f181899199a1a9b1b9c1cb0b131b232b360811b85600f16601081106200106a57634e487b7160e01b600052603260045260246000fd5b1a60f81b8282815181106200108f57634e487b7160e01b600052603260045260246000fd5b60200101906001600160f81b031916908160001a90535060049490941c93620010b88162001607565b905062001029565b50831562000e015760405162461bcd60e51b815260206004820181905260248201527f537472696e67733a20686578206c656e67746820696e73756666696369656e746044820152606401620004af565b60008181526001830160205260408120546200115a57508154600181810184556000848152602080822090930184905584548482528286019093526040902091909155620003b3565b506000620003b3565b6107a2806200164e83390190565b80356001600160a01b03811681146200118957600080fd5b919050565b600082601f8301126200119f578081fd5b813567ffffffffffffffff80821115620011bd57620011bd62001637565b604051601f8301601f19908116603f01168101908282118183101715620011e857620011e862001637565b8160405283815286602085880101111562001201578485fd5b8360208701602083013792830160200193909352509392505050565b6000602082840312156200122f578081fd5b62000e018262001171565b600080604083850312156200124d578081fd5b620012588362001171565b946020939093013593505050565b60006020828403121562001278578081fd5b5035919050565b6000806040838503121562001292578182fd5b82359150620012a46020840162001171565b90509250929050565b600060208284031215620012bf578081fd5b81356001600160e01b03198116811462000e01578182fd5b600080600080600080600060e0888a031215620012f2578283fd5b873567ffffffffffffffff808211156200130a578485fd5b620013188b838c016200118e565b985060208a01359150808211156200132e578485fd5b6200133c8b838c016200118e565b975060408a0135965060608a013595506200135a60808b0162001171565b94506200136a60a08b0162001171565b935060c08a013591508082111562001380578283fd5b506200138f8a828b016200118e565b91505092959891949750929550565b60008151808452620013b8816020860160208601620015d4565b601f01601f19169290920160200192915050565b7f416363657373436f6e74726f6c3a206163636f756e742000000000000000000081526000835162001406816017850160208801620015d4565b7001034b99036b4b9b9b4b733903937b6329607d1b601791840191820152835162001439816028840160208801620015d4565b01602801949350505050565b6001600160a01b03831681526040602082018190526000906200146b908301846200139e565b949350505050565b6020808252825182820181905260009190848201906040850190845b81811015620014ad578351835292840192918401916001016200148f565b50909695505050505050565b60208152600062000e0160208301846200139e565b6000610160808352620014e48184018f6200139e565b90508281036020840152620014fa818e6200139e565b604084019c909c52505060608101989098526001600160a01b03968716608089015294861660a088015292851660c087015260e08601919091526101008501528216610120840152166101409091015292915050565b60a0815260006200156560a08301886200139e565b86602084015285604084015284606084015282810360808401526200158b81856200139e565b98975050505050505050565b60008219821115620015ad57620015ad62001621565b500190565b6000816000190483118215151615620015cf57620015cf62001621565b500290565b60005b83811015620015f1578181015183820152602001620015d7565b8381111562001601576000848401525b50505050565b60008162001619576200161962001621565b506000190190565b634e487b7160e01b600052601160045260246000fd5b634e487b7160e01b600052604160045260246000fdfe60806040526040516107a23803806107a283398101604081905261002291610315565b61004d60017f360894a13ba1a3210667c828492db98dca3e2076cc3735a920a3ca505d382bbd61042d565b60008051602061075b8339815191521461007757634e487b7160e01b600052600160045260246000fd5b6100838282600061008a565b5050610492565b610093836100c0565b6000825111806100a05750805b156100bb576100b9838361010060201b6100291760201c565b505b505050565b6100c98161012c565b6040516001600160a01b038216907fbc7cd75a20ee27fd9adebab32041f755214dbc6bffa90cc0225b39da2e5c2d3b90600090a250565b6060610125838360405180606001604052806027815260200161077b602791396101ec565b9392505050565b61013f816102ca60201b6100551760201c565b6101a65760405162461bcd60e51b815260206004820152602d60248201527f455243313936373a206e657720696d706c656d656e746174696f6e206973206e60448201526c1bdd08184818dbdb9d1c9858dd609a1b60648201526084015b60405180910390fd5b806101cb60008051602061075b83398151915260001b6102d960201b6100641760201c565b80546001600160a01b0319166001600160a01b039290921691909117905550565b60606001600160a01b0384163b6102545760405162461bcd60e51b815260206004820152602660248201527f416464726573733a2064656c65676174652063616c6c20746f206e6f6e2d636f6044820152651b9d1c9858dd60d21b606482015260840161019d565b600080856001600160a01b03168560405161026f91906103de565b600060405180830381855af49150503d80600081146102aa576040519150601f19603f3d011682016040523d82523d6000602084013e6102af565b606091505b5090925090506102c08282866102dc565b9695505050505050565b6001600160a01b03163b151590565b90565b606083156102eb575081610125565b8251156102fb5782518084602001fd5b8160405162461bcd60e51b815260040161019d91906103fa565b60008060408385031215610327578182fd5b82516001600160a01b038116811461033d578283fd5b60208401519092506001600160401b0380821115610359578283fd5b818501915085601f83011261036c578283fd5b81518181111561037e5761037e61047c565b604051601f8201601f19908116603f011681019083821181831017156103a6576103a661047c565b816040528281528860208487010111156103be578586fd5b6103cf836020830160208801610450565b80955050505050509250929050565b600082516103f0818460208701610450565b9190910192915050565b6020815260008251806020840152610419816040850160208701610450565b601f01601f19169190910160400192915050565b60008282101561044b57634e487b7160e01b81526011600452602481fd5b500390565b60005b8381101561046b578181015183820152602001610453565b838111156100b95750506000910152565b634e487b7160e01b600052604160045260246000fd5b6102ba806104a16000396000f3fe60806040523661001357610011610017565b005b6100115b610027610022610067565b61009f565b565b606061004e838360405180606001604052806027815260200161025e602791396100c3565b9392505050565b6001600160a01b03163b151590565b90565b600061009a7f360894a13ba1a3210667c828492db98dca3e2076cc3735a920a3ca505d382bbc546001600160a01b031690565b905090565b3660008037600080366000845af43d6000803e8080156100be573d6000f35b3d6000fd5b60606001600160a01b0384163b6101305760405162461bcd60e51b815260206004820152602660248201527f416464726573733a2064656c65676174652063616c6c20746f206e6f6e2d636f6044820152651b9d1c9858dd60d21b60648201526084015b60405180910390fd5b600080856001600160a01b03168560405161014b91906101de565b600060405180830381855af49150503d8060008114610186576040519150601f19603f3d011682016040523d82523d6000602084013e61018b565b606091505b509150915061019b8282866101a5565b9695505050505050565b606083156101b457508161004e565b8251156101c45782518084602001fd5b8160405162461bcd60e51b815260040161012791906101fa565b600082516101f081846020870161022d565b9190910192915050565b602081526000825180602084015261021981604085016020870161022d565b601f01601f19169190910160400192915050565b60005b83811015610248578181015183820152602001610230565b83811115610257576000848401525b5050505056fe416464726573733a206c6f772d6c6576656c2064656c65676174652063616c6c206661696c6564a2646970667358221220e14c3fee28687df8af621b132b9789cfe2ceb6f7d6de514bb73c2956ffe9d6dd64736f6c63430008040033360894a13ba1a3210667c828492db98dca3e2076cc3735a920a3ca505d382bbc416464726573733a206c6f772d6c6576656c2064656c65676174652063616c6c206661696c65643b5d4cc60d3ec3516ee8ae083bd60934f6eb2a6c54b1229985c41bfb092b2603a2646970667358221220b175f60cb3fd7bb95569142e770c8b117f61c9f7c7433258359edcff8c771d2764736f6c6343000804003360a06040523060601b6080523480156200001857600080fd5b50600054610100900460ff16620000365760005460ff161562000040565b62000040620000e5565b620000a85760405162461bcd60e51b815260206004820152602e60248201527f496e697469616c697a61626c653a20636f6e747261637420697320616c72656160448201526d191e481a5b9a5d1a585b1a5e995960921b606482015260840160405180910390fd5b600054610100900460ff16158015620000cb576000805461ffff19166101011790555b8015620000de576000805461ff00191690555b5062000112565b6000620000fd306200010360201b620038c71760201c565b15905090565b6001600160a01b03163b151590565b60805160601c615bc26200014d60003960008181611af901528181611b3901528181611c1501528181611c550152611e260152615bc26000f3fe6080604052600436106104565760003560e01c806370a082311161023f578063a7485cf111610139578063da3537a8116100b6578063e985e9c51161007a578063e985e9c514610d45578063e9c2651814610d8e578063fbf97c5914610db0578063fdf27dba14610dde578063ff7808e914610df557600080fd5b8063da3537a814610cc2578063dd13745514610cd7578063dd7af03514610cf9578063e6deb18d14610d10578063e88e3f9314610d3057600080fd5b8063c87b56dd116100fd578063c87b56dd14610c1b578063ca11016d14610c3b578063cb56a1e114610c50578063cc0f178614610c8b578063d547741f14610ca257600080fd5b8063a7485cf114610b12578063a7c721c514610b32578063abff011014610b49578063ae501c0414610b6a578063b88d4fde14610bfb57600080fd5b806391d14854116101c75780639b3878c81161018b5780639b3878c814610a915780639f79234014610ab1578063a07ae16a14610ac8578063a217fddf14610add578063a22cb46514610af257600080fd5b806391d1485414610a1957806393a057cd14610a3957806395d89b4114610a505780639792641f14610a6557806399087d3414610a7c57600080fd5b80638240b7771161020e5780638240b777146109935780638456cb59146109a85780638802255f146109bd5780638c824949146109d55780639088feba146109dd57600080fd5b806370a082311461091857806378d85c4e146109385780637eee380314610965578063816c42f61461097c57600080fd5b806342842e0e11610350578063588dae3c116102d857806369d85d541161029c57806369d85d541461085b5780636c9d3b3a146108885780636e70096e146108b65780636f2ef95b146108d65780636fcf1e651461090357600080fd5b8063588dae3c146107c25780635c975abb146107e257806361d027b3146107fa5780636352211e1461081b57806364fcac401461083b57600080fd5b806351f0a93f1161031f57806351f0a93f1461074e5780635225b69c14610763578063522c21781461077a57806352d1902d14610795578063533573fe146107aa57600080fd5b806342842e0e146106da57806345e05f43146106fa5780634f1ef2861461071b5780634f6ccce71461072e57600080fd5b806323b872dd116103de5780632f745c59116103a25780632f745c591461064e57806336568abe1461066e5780633659cfe61461068e5780633af8e5eb146106ae5780633f4ba83a146106c557600080fd5b806323b872dd1461059d578063248a9ca3146105bd5780632a4c03cc146105ee5780632c891b4b1461060e5780632f2ff15d1461062e57600080fd5b8063095ea7b311610425578063095ea7b31461050657806318160ddd1461052857806318fc77ae146105475780631d1438481461055a57806321846c761461058057600080fd5b806301ffc9a71461046257806305bc64eb1461049757806306fdde03146104b9578063081812fc146104ce57600080fd5b3661045d57005b600080fd5b34801561046e57600080fd5b5061048261047d366004615163565b610e0c565b60405190151581526020015b60405180910390f35b3480156104a357600080fd5b506104ac610e1d565b60405161048e91906155dc565b3480156104c557600080fd5b506104ac610eac565b3480156104da57600080fd5b506104ee6104e9366004615111565b610f3e565b6040516001600160a01b03909116815260200161048e565b34801561051257600080fd5b506105266105213660046150cc565b610fd8565b005b34801561053457600080fd5b506099545b60405190815260200161048e565b6105266105553660046150cc565b6110ee565b34801561056657600080fd5b506101d0546104ee9061010090046001600160a01b031681565b6105886113fa565b6040805192835260208301919091520161048e565b3480156105a957600080fd5b506105266105b8366004614fa9565b6117b0565b3480156105c957600080fd5b506105396105d8366004615111565b600090815261012d602052604090206001015490565b3480156105fa57600080fd5b50610526610609366004614f5d565b6117e1565b34801561061a57600080fd5b50610539610629366004615111565b6118c1565b34801561063a57600080fd5b50610526610649366004615141565b6119b3565b34801561065a57600080fd5b506105396106693660046150cc565b6119da565b34801561067a57600080fd5b50610526610689366004615141565b611a70565b34801561069a57600080fd5b506105266106a9366004614f5d565b611aee565b3480156106ba57600080fd5b506105396101c45481565b3480156106d157600080fd5b50610526611bce565b3480156106e657600080fd5b506105266106f5366004614fa9565b611bef565b34801561070657600080fd5b506101d5546104ee906001600160a01b031681565b610526610729366004615080565b611c0a565b34801561073a57600080fd5b50610539610749366004615111565b611cd7565b34801561075a57600080fd5b50610539611d78565b34801561076f57600080fd5b506105396101c85481565b34801561078657600080fd5b506101d0546104829060ff1681565b3480156107a157600080fd5b50610539611e19565b3480156107b657600080fd5b506101d9546105399081565b3480156107ce57600080fd5b506105396107dd366004614f5d565b611ecc565b3480156107ee57600080fd5b5060fb5460ff16610482565b34801561080657600080fd5b506101d1546104ee906001600160a01b031681565b34801561082757600080fd5b506104ee610836366004615111565b612001565b34801561084757600080fd5b5061052661085636600461519b565b612078565b34801561086757600080fd5b5061087b610876366004614f5d565b61262e565b60405161048e91906154c9565b34801561089457600080fd5b506105396108a3366004614f5d565b6101da6020526000908152604090205481565b3480156108c257600080fd5b506105266108d1366004615111565b6126e4565b3480156108e257600080fd5b506108f66108f1366004615111565b612a5f565b60405161048e91906158b6565b34801561090f57600080fd5b50610526612aca565b34801561092457600080fd5b50610539610933366004614f5d565b612b54565b34801561094457600080fd5b50610958610953366004615111565b612bdb565b60405161048e919061550d565b34801561097157600080fd5b506105396101d75481565b34801561098857600080fd5b506105396101cb5481565b34801561099f57600080fd5b50610539612dd1565b3480156109b457600080fd5b50610526612e80565b3480156109c957600080fd5b506101d3546105399081565b610526612ea1565b3480156109e957600080fd5b506104826109f836600461528b565b6101de60209081526000928352604080842090915290825290205460ff1681565b348015610a2557600080fd5b50610482610a34366004615141565b61300e565b348015610a4557600080fd5b506105396101ca5481565b348015610a5c57600080fd5b506104ac61303a565b348015610a7157600080fd5b506105396101cd5481565b348015610a8857600080fd5b50610526613049565b348015610a9d57600080fd5b50610539610aac366004615279565b6131f3565b348015610abd57600080fd5b506105396101dd5481565b348015610ad457600080fd5b506105266132f2565b348015610ae957600080fd5b50610539600081565b348015610afe57600080fd5b50610526610b0d36600461504a565b613474565b348015610b1e57600080fd5b50610539610b2d366004615111565b61347f565b348015610b3e57600080fd5b506105396101d65481565b348015610b5557600080fd5b506101d4546104ee906001600160a01b031681565b348015610b7657600080fd5b50610bc5610b85366004615111565b6101d8602052600090815260409020805460018201546002830154600384015460048501546005909501549394929391926001600160a01b039091169186565b604080519687526020870195909552938501929092526001600160a01b03166060840152608083015260a082015260c00161048e565b348015610c0757600080fd5b50610526610c16366004614fe4565b613579565b348015610c2757600080fd5b506104ac610c36366004615111565b6135ab565b348015610c4757600080fd5b5061087b6135b6565b348015610c5c57600080fd5b50610c70610c6b366004615111565b61360d565b6040805193845260208401929092529082015260600161048e565b348015610c9757600080fd5b506105396101c55481565b348015610cae57600080fd5b50610526610cbd366004615141565b613668565b348015610cce57600080fd5b5061053961368f565b348015610ce357600080fd5b50610cec6136a8565b60405161048e919061559a565b348015610d0557600080fd5b506105396101c95481565b348015610d1c57600080fd5b50610539610d2b366004614f5d565b6137c7565b348015610d3c57600080fd5b5061087b613871565b348015610d5157600080fd5b50610482610d60366004614f77565b6001600160a01b039182166000908152606a6020908152604080832093909416825291909152205460ff1690565b348015610d9a57600080fd5b50610539600080516020615b2683398151915281565b348015610dbc57600080fd5b50610539610dcb366004615111565b6101d26020526000908152604090205481565b348015610dea57600080fd5b506105396101c65481565b348015610e0157600080fd5b506105396101cc5481565b6000610e17826138d6565b92915050565b6101c38054610e2b90615a85565b80601f0160208091040260200160405190810160405280929190818152602001828054610e5790615a85565b8015610ea45780601f10610e7957610100808354040283529160200191610ea4565b820191906000526020600020905b815481529060010190602001808311610e8757829003601f168201915b505050505081565b606060658054610ebb90615a85565b80601f0160208091040260200160405190810160405280929190818152602001828054610ee790615a85565b8015610f345780601f10610f0957610100808354040283529160200191610f34565b820191906000526020600020905b815481529060010190602001808311610f1757829003601f168201915b5050505050905090565b6000818152606760205260408120546001600160a01b0316610fbc5760405162461bcd60e51b815260206004820152602c60248201527f4552433732313a20617070726f76656420717565727920666f72206e6f6e657860448201526b34b9ba32b73a103a37b5b2b760a11b60648201526084015b60405180910390fd5b506000908152606960205260409020546001600160a01b031690565b6000610fe382612001565b9050806001600160a01b0316836001600160a01b031614156110515760405162461bcd60e51b815260206004820152602160248201527f4552433732313a20617070726f76616c20746f2063757272656e74206f776e656044820152603960f91b6064820152608401610fb3565b336001600160a01b038216148061106d575061106d8133610d60565b6110df5760405162461bcd60e51b815260206004820152603860248201527f4552433732313a20617070726f76652063616c6c6572206973206e6f74206f7760448201527f6e6572206e6f7220617070726f76656420666f7220616c6c00000000000000006064820152608401610fb3565b6110e983836138fb565b505050565b6101d05460ff16156111125760405162461bcd60e51b8152600401610fb390615787565b60006101c954116111355760405162461bcd60e51b8152600401610fb3906156d9565b34156111bd5760405162461bcd60e51b815260206004820152604b60248201527f4465706f73697473206f662065726332302063616e6e6f7420616c736f20696e60448201527f636c756465206e617469766520746f6b656e7320696e207468652073616d652060648201526a3a3930b739b0b1ba34b7b760a91b608482015260a401610fb3565b6111c96101db83613969565b506001600160a01b03821660009081526101da60205260409020546111ef9082906158c4565b6001600160a01b03831660009081526101da60205260408120919091556101d9546040805160c08101825282815243602080830191825260008385018181526001600160a01b038a811660608701908152608087018b81524260a089019081528a86526101d8909652888520885181559651600188015592516002870155516003860180546001600160a01b03191691909216179055516004840155905160059092019190915591519293509133917fce3ede2e266c8c5ec60064c2a65ba25bd2899a334c42b39b742129c49b1ef1c4916112d29130918791908a908a90615435565b60405180910390a26112e96101d980546001019055565b60405163095ea7b360e01b81523060048201526024810184905284906001600160a01b0382169063095ea7b390604401602060405180830381600087803b15801561133357600080fd5b505af1158015611347573d6000803e3d6000fd5b505050506040513d601f19601f8201168201806040525081019061136b91906150f5565b506040516323b872dd60e01b8152336004820152306024820152604481018590526001600160a01b038216906323b872dd90606401602060405180830381600087803b1580156113ba57600080fd5b505af11580156113ce573d6000803e3d6000fd5b505050506040513d601f19601f820116820180604052508101906113f291906150f5565b505050505050565b6101d15460009081906001600160a01b031633141561145b5760405162461bcd60e51b815260206004820181905260248201527f54726561737572792063616e6e6f74207075726368617365207469636b6574736044820152606401610fb3565b6101d05460ff1615156001146114d95760405162461bcd60e51b815260206004820152603860248201527f5469636b6574732063616e6e6f7420626520707572636861736564206166746560448201527f72207468652066756e6472616973696e6720706572696f6400000000000000006064820152608401610fb3565b60006114e43461347f565b90506114ee61368f565b81106115625760405162461bcd60e51b815260206004820152603d60248201527f4e6f7420656e6f756768207368617265732072656d61696e696e6720746f207060448201527f757263686173652c20747279206120736d616c6c657220616d6f756e740000006064820152608401610fb3565b600061156e6101d35490565b905061157f6101d380546001019055565b60008181526101d26020526040902082905561159d6101ce33613969565b50816101c9546115ad91906158c4565b6101c9556101cc546115c09034906158c4565b6101cc556101d1546101c8546040516001600160a01b039092169133917faec7d08bcb5e515903dbbba83c84bb270bdbdc5ad261ce0709da4d20226d40639161160e913091879189916154a3565b60405180910390a360006305f5e1006101d7543461162c9190615a0c565b6116369190615901565b905060006305f5e1006101d7546101d6546116519190615a2b565b61165b9034615a0c565b6116659190615901565b90506000826116748334615a2b565b61167e9190615a2b565b6101d5546101d1546101d4546101c854604080516001600160a01b0393841681523060208201528082018b90523460608201526080810187905260a0810189905260c081018a905260e081018c9052610100810192909252519495509281169391169133917fec9b5b63774dd77ef3e9b139dcae71f2128bd20e0b2d55e2f405302581d4821a918190036101200190a4806101cd5461171d91906158c4565b6101cd556101d4546040516001600160a01b039091169083156108fc029084906000818181858888f1935050505015801561175c573d6000803e3d6000fd5b506101d5546040516001600160a01b039091169084156108fc029085906000818181858888f19350505050158015611798573d6000803e3d6000fd5b506117a3338561397e565b5091959294509192505050565b6117ba3382613998565b6117d65760405162461bcd60e51b8152600401610fb390615736565b6110e9838383613a8f565b600080516020615b268339815191526117fa8133613c36565b6101d05460ff161561181e5760405162461bcd60e51b8152600401610fb3906157d8565b600061182983611ecc565b90508281156118bb576101d15460405163a9059cbb60e01b81526001600160a01b039182166004820152602481018490529082169063a9059cbb90604401602060405180830381600087803b15801561188157600080fd5b505af1158015611895573d6000803e3d6000fd5b505050506040513d601f19601f820116820180604052508101906118b991906150f5565b505b50505050565b60008181526101d2602052604081205481805b6101d9548110156119ab5760008181526101d860209081526040808320815160c081018352815481526001808301548286015260028301548285015260038301546001600160a01b031660608301526004830154608083015260059092015460a08201528985526101de845282852081518652909352922054909160ff9091161515146119985760608101516001600160a01b0316611998576101c9548482604001516119819190615a0c565b61198b9190615901565b61199590846158c4565b92505b50806119a381615aba565b9150506118d4565b509392505050565b600082815261012d60205260409020600101546119d08133613c36565b6110e98383613c9a565b60006119e583612b54565b8210611a475760405162461bcd60e51b815260206004820152602b60248201527f455243373231456e756d657261626c653a206f776e657220696e646578206f7560448201526a74206f6620626f756e647360a81b6064820152608401610fb3565b506001600160a01b03919091166000908152609760209081526040808320938352929052205490565b6001600160a01b0381163314611ae05760405162461bcd60e51b815260206004820152602f60248201527f416363657373436f6e74726f6c3a2063616e206f6e6c792072656e6f756e636560448201526e103937b632b9903337b91039b2b63360891b6064820152608401610fb3565b611aea8282613d21565b5050565b306001600160a01b037f0000000000000000000000000000000000000000000000000000000000000000161415611b375760405162461bcd60e51b8152600401610fb390615641565b7f00000000000000000000000000000000000000000000000000000000000000006001600160a01b0316611b80600080516020615b46833981519152546001600160a01b031690565b6001600160a01b031614611ba65760405162461bcd60e51b8152600401610fb39061568d565b611baf81613d89565b60408051600080825260208201909252611bcb91839190613da2565b50565b600080516020615b26833981519152611be78133613c36565b611bcb613f1c565b6110e983838360405180602001604052806000815250613579565b306001600160a01b037f0000000000000000000000000000000000000000000000000000000000000000161415611c535760405162461bcd60e51b8152600401610fb390615641565b7f00000000000000000000000000000000000000000000000000000000000000006001600160a01b0316611c9c600080516020615b46833981519152546001600160a01b031690565b6001600160a01b031614611cc25760405162461bcd60e51b8152600401610fb39061568d565b611ccb82613d89565b611aea82826001613da2565b6000611ce260995490565b8210611d455760405162461bcd60e51b815260206004820152602c60248201527f455243373231456e756d657261626c653a20676c6f62616c20696e646578206f60448201526b7574206f6620626f756e647360a01b6064820152608401610fb3565b60998281548110611d6657634e487b7160e01b600052603260045260246000fd5b90600052602060002001549050919050565b600080805b6101d954811015611e135760008181526101d86020908152604091829020825160c0810184528154815260018201549281019290925260028101549282019290925260038201546001600160a01b0316606082018190526004830154608083015260059092015460a082015290611e00576040810151611dfd90846158c4565b92505b5080611e0b81615aba565b915050611d7d565b50919050565b6000306001600160a01b037f00000000000000000000000000000000000000000000000000000000000000001614611eb95760405162461bcd60e51b815260206004820152603860248201527f555550535570677261646561626c653a206d757374206e6f742062652063616c60448201527f6c6564207468726f7567682064656c656761746563616c6c00000000000000006064820152608401610fb3565b50600080516020615b4683398151915290565b600080805b6101d954811015611f6f5760008181526101d86020908152604091829020825160c0810184528154815260018201549281019290925260028101549282019290925260038201546001600160a01b03908116606083018190526004840154608084015260059093015460a083015290919086161415611f5c576080810151611f5990846158c4565b92505b5080611f6781615aba565b915050611ed1565b506040516370a0823160e01b8152306004820152839060009083906001600160a01b038416906370a082319060240160206040518083038186803b158015611fb657600080fd5b505afa158015611fca573d6000803e3d6000fd5b505050506040513d601f19601f82011682018060405250810190611fee9190615129565b611ff89190615a2b565b95945050505050565b6000818152606760205260408120546001600160a01b031680610e175760405162461bcd60e51b815260206004820152602960248201527f4552433732313a206f776e657220717565727920666f72206e6f6e657869737460448201526832b73a103a37b5b2b760b91b6064820152608401610fb3565b600054610100900460ff166120935760005460ff1615612097565b303b155b6120fa5760405162461bcd60e51b815260206004820152602e60248201527f496e697469616c697a61626c653a20636f6e747261637420697320616c72656160448201526d191e481a5b9a5d1a585b1a5e995960921b6064820152608401610fb3565b600054610100900460ff1615801561211c576000805461ffff19166101011790555b60408051808201909152600680825265457363726f7760d01b602090920191825261214a916101c391614dcc565b508b518c908c906121945760405162461bcd60e51b81526020600482015260146024820152734e616d652063616e6e6f7420626520656d70747960601b6044820152606401610fb3565b80516121db5760405162461bcd60e51b815260206004820152601660248201527553796d626f6c2063616e6e6f7420626520656d70747960501b6044820152606401610fb3565b6305f5e100871061224d5760405162461bcd60e51b815260206004820152603660248201527f5075726368617365207469636b657420666565206d757374206265206c657373604482015275207468616e203130303030303030302028313030252960501b6064820152608401610fb3565b868611156122d25760405162461bcd60e51b815260206004820152604660248201527f416666696c69617465207469636b657420666565206d757374206265206c657360448201527f73207468616e206f7220657175616c20746f207075726368617365207469636b60648201526565742066656560d01b608482015260a401610fb3565b6001600160a01b038a166123345760405162461bcd60e51b815260206004820152602360248201527f54726561737572792063616e6e6f7420626520746865207a65726f206164647260448201526265737360e81b6064820152608401610fb3565b6001600160a01b0389166123945760405162461bcd60e51b815260206004820152602160248201527f4973737565722063616e6e6f7420626520746865207a65726f206164647265736044820152607360f81b6064820152608401610fb3565b6001600160a01b0388166123f65760405162461bcd60e51b815260206004820152602360248201527f4e617469766520746f6b656e20707269636520666565642069732072657175696044820152621c995960ea1b6064820152608401610fb3565b60008b116124585760405162461bcd60e51b815260206004820152602960248201527f4d61782073686172657320736f6c64206d7573742062652067726561746572206044820152687468616e207a65726f60b81b6064820152608401610fb3565b6001600160a01b0385166124b85760405162461bcd60e51b815260206004820152602160248201527f42726f6b65722063616e6e6f7420626520746865207a65726f206164647265736044820152607360f81b6064820152608401610fb3565b6001600160a01b03841661251a5760405162461bcd60e51b8152602060048201526024808201527f416666696c696174652063616e6e6f7420626520746865207a65726f206164646044820152637265737360e01b6064820152608401610fb3565b6125248e8e613faf565b61252c613fe0565b612534613fe0565b61253c614009565b612544613fe0565b61254c613fe0565b426101c65560126101c45560086101c555624c4b406101c85560006101cc556101ca8c90556101cb8b90556101d080546101c780546001600160a01b03199081166001600160a01b038d8116919091179092556001600160a81b03199092166101008d83160260ff1916176001179092556101d1805482168d84161790556101d68990556101d78890556101d4805482168884161790556101d5805490911691861691909117905561260c600080516020615b268339815191528a613c9a565b50508015612620576000805461ff00191690555b505050505050505050505050565b6060600061263b83612b54565b905060008167ffffffffffffffff81111561266657634e487b7160e01b600052604160045260246000fd5b60405190808252806020026020018201604052801561268f578160200160208202803683370190505b50905060005b828110156119ab576126a785826119da565b8282815181106126c757634e487b7160e01b600052603260045260246000fd5b6020908102919091010152806126dc81615aba565b915050612695565b6101d05460ff16156127555760405162461bcd60e51b815260206004820152603460248201527f5769746864726177616c732063616e6e6f74206265206d61646520647572696e60448201527319c8199d5b991c985a5cda5b99c81c195c9a5bd960621b6064820152608401610fb3565b3361275f82612001565b6001600160a01b0316146127b55760405162461bcd60e51b815260206004820152601a60248201527f596f7520646f206e6f74206f776e2074686973207469636b65740000000000006044820152606401610fb3565b60008181526101d26020526040812054905b6101d9548110156110e95760008181526101d860209081526040808320815160c081018352815481526001808301548286015260028301548285015260038301546001600160a01b031660608301526004830154608083015260059092015460a08201528785526101de845282852081518652909352922054909160ff909116151514612a4c5760008481526101de60209081526040808320845184529091529020805460ff1916600117905560608101516001600160a01b0316156129a05760006101c95484836080015161289d9190615a0c565b6128a79190615901565b8251606084015160405192935033927f981eda60172361092f12c75de05c753d28c928d6fb0b4b6492e685a44265fc0a926128eb9230928b92916000918990615468565b60405180910390a260608201516001600160a01b0381166323b872dd3061291189612001565b6040516001600160e01b031960e085901b1681526001600160a01b0392831660048201529116602482015260448101859052606401602060405180830381600087803b15801561296057600080fd5b505af1158015612974573d6000803e3d6000fd5b505050506040513d601f19601f8201168201806040525081019061299891906150f5565b505050612a4c565b60006101c9548483604001516129b69190615a0c565b6129c09190615901565b825160405191925033917f981eda60172361092f12c75de05c753d28c928d6fb0b4b6492e685a44265fc0a91612a009130918a9187906000908190615468565b60405180910390a2612a1185612001565b6001600160a01b03166108fc829081150290604051600060405180830381858888f19350505050158015612a49573d6000803e3d6000fd5b50505b5080612a5781615aba565b9150506127c7565b612a67614e4c565b5060009081526101d86020908152604091829020825160c0810184528154815260018201549281019290925260028101549282019290925260038201546001600160a01b031660608201526004820154608082015260059091015460a082015290565b600080516020615b26833981519152612ae38133613c36565b6101d05460ff1615612b075760405162461bcd60e51b8152600401610fb3906157d8565b6000612b11612dd1565b90508015611aea576101d1546040516001600160a01b039091169082156108fc029083906000818181858888f193505050501580156110e9573d6000803e3d6000fd5b60006001600160a01b038216612bbf5760405162461bcd60e51b815260206004820152602a60248201527f4552433732313a2062616c616e636520717565727920666f7220746865207a65604482015269726f206164647265737360b01b6064820152608401610fb3565b506001600160a01b031660009081526068602052604090205490565b60008181526101d26020526040902054606090612bf86101d95490565b67ffffffffffffffff811115612c1e57634e487b7160e01b600052604160045260246000fd5b604051908082528060200260200182016040528015612c9a57816020015b612c876040518060e0016040528060008152602001600081526020016000151581526020016000815260200160006001600160a01b0316815260200160008152602001600081525090565b815260200190600190039081612c3c5790505b50915060005b6101d954811015612dca576101c95460008281526101d86020526040812060020154909190612cd0908590615a0c565b612cda9190615901565b6101c95460008481526101d8602052604081206004015492935091612d00908690615a0c565b612d0a9190615901565b6040805160e08101825288815260008681526101d8602081815284832080548286018190528d85526101de835286852090855282528584205460ff161515958501959095526060840188905260038501546001600160a01b0316608085015260a0840186905291889052905260059091015460c08201528651919250908190879086908110612da957634e487b7160e01b600052603260045260246000fd5b60200260200101819052505050508080612dc290615aba565b915050612ca0565b5050919050565b600080805b6101d954811015612e6c5760008181526101d86020908152604091829020825160c0810184528154815260018201549281019290925260028101549282019290925260038201546001600160a01b0316606082018190526004830154608083015260059092015460a082015290612e59576040810151612e5690846158c4565b92505b5080612e6481615aba565b915050612dd6565b506000612e798247615a2b565b9392505050565b600080516020615b26833981519152612e998133613c36565b611bcb614038565b6101d05460ff1615612ec55760405162461bcd60e51b8152600401610fb390615787565b60006101c95411612ee85760405162461bcd60e51b8152600401610fb3906156d9565b346101dd54612ef791906158c4565b6101dd556000612f076101d95490565b6040805160c08101825282815243602080830191825234838501818152600060608601818152608087018281524260a089019081528a84526101d8909652888320885181559651600188015592516002870155516003860180546001600160a01b0319166001600160a01b039092169190911790559051600485015591516005909301929092559251939450909233927fce3ede2e266c8c5ec60064c2a65ba25bd2899a334c42b39b742129c49b1ef1c492612fc99230928892918190615435565b60405180910390a2612fe06101d980546001019055565b604051309081903480156108fc02916000818181858888f193505050501580156118bb573d6000803e3d6000fd5b600091825261012d602090815260408084206001600160a01b0393909316845291905290205460ff1690565b606060668054610ebb90615a85565b600080516020615b268339815191526130628133613c36565b6101d05460ff16151560011461308a5760405162461bcd60e51b8152600401610fb390615872565b6101d0805460ff191690556101cd805460009091556101dd546130ae9082906158c4565b6101dd5560006130be6101d95490565b6040805160c081018252828152436020808301918252828401878152600060608501818152608086018281524260a088019081528984526101d8909552878320875181559551600187015592516002860155516003850180546001600160a01b0319166001600160a01b0390921691909117905590516004840155905160059092019190915591519293509133917fce3ede2e266c8c5ec60064c2a65ba25bd2899a334c42b39b742129c49b1ef1c49161317f913091879189918190615435565b60405180910390a26131966101d980546001019055565b6101d0546101cc546101c9546040516101009093046001600160a01b0316927f87550133e5e9a6d009b8215a93d43b1511a87921372d21060f998133bd9be4b7926131e59230928991906154a3565b60405180910390a250505050565b60008281526101d2602052604081205481805b6101d9548110156132e95760008181526101d860209081526040808320815160c081018352815481526001808301548286015260028301548285015260038301546001600160a01b031660608301526004830154608083015260059092015460a08201528a85526101de845282852081518652909352922054909160ff9091161515146132d657856001600160a01b031681606001516001600160a01b031614156132d6576101c9548482608001516132bf9190615a0c565b6132c99190615901565b6132d390846158c4565b92505b50806132e181615aba565b915050613206565b50949350505050565b600080516020615b2683398151915261330b8133613c36565b6101d05460ff1615156001146133335760405162461bcd60e51b8152600401610fb390615872565b6101ca546101c954116133bc5760405162461bcd60e51b815260206004820152604560248201527f46756e6472616973696e6720706572696f642063616e206f6e6c7920656e642060448201527f6966203e353025206f662074686520736861726573536f6c644d617820617265606482015264081cdbdb1960da1b608482015260a401610fb3565b6101d0805460ff191690556101cd80546000918290556101d15460405191926001600160a01b039091169183156108fc0291849190818181858888f1935050505015801561340e573d6000803e3d6000fd5b506101d1546101d0546101cc546101c9546040516001600160a01b0394851694610100909404909316927f27f5bdb31297d70b551a9b987c293026b2377a1eacd5bf8adac76067d1fcd0b2926134689230928891906154a3565b60405180910390a35050565b611aea3383836140b3565b6000806000806000806101c760009054906101000a90046001600160a01b03166001600160a01b031663feaf968c6040518163ffffffff1660e01b815260040160a06040518083038186803b1580156134d757600080fd5b505afa1580156134eb573d6000803e3d6000fd5b505050506040513d601f19601f8201168201806040525081019061350f91906152ac565b93985091965094509250905060128261355f5760405162461bcd60e51b8152602060048201526012602482015271526f756e64206e6f7420636f6d706c65746560701b6044820152606401610fb3565b600061356c898388614182565b9998505050505050505050565b6135833383613998565b61359f5760405162461bcd60e51b8152600401610fb390615736565b6118bb848484846141c0565b6060610e17826141f3565b6101db80546040805160208084028201810190925282815260609390929091830182828015610f3457602002820191906000526020600020905b8154815260200190600101908083116135f0575050505050905090565b60008181526101d260205260408120546101c95482918291600890839061363583600a615964565b613640856001615a0c565b61364a9190615a0c565b6136549190615901565b6101c8549398909750929550919350505050565b600082815261012d60205260409020600101546136858133613c36565b6110e98383613d21565b60006101c9546101cb546136a39190615a2b565b905090565b60606136b46101d95490565b67ffffffffffffffff8111156136da57634e487b7160e01b600052604160045260246000fd5b60405190808252806020026020018201604052801561371357816020015b613700614e4c565b8152602001906001900390816136f85790505b50905060005b6101d9548110156137c35760008181526101d86020908152604091829020825160c0810184528154815260018201549281019290925260028101549282019290925260038201546001600160a01b031660608201526004820154608082015260059091015460a082015282518390839081106137a557634e487b7160e01b600052603260045260246000fd5b602002602001018190525080806137bb90615aba565b915050613719565b5090565b600080805b6101d95481101561386a5760008181526101d86020908152604091829020825160c0810184528154815260018201549281019290925260028101549282019290925260038201546001600160a01b03908116606083018190526004840154608084015260059093015460a08301529091908616141561385757608081015161385490846158c4565b92505b508061386281615aba565b9150506137cc565b5092915050565b6101ce80546040805160208084028201810190925282815260609390929091830182828015610f3457602002820191906000526020600020908154815260200190600101908083116135f0575050505050905090565b6001600160a01b03163b151590565b60006001600160e01b03198216637965db0b60e01b1480610e175750610e178261432f565b600081815260696020526040902080546001600160a01b0319166001600160a01b038416908117909155819061393082612001565b6001600160a01b03167f8c5be1e5ebec7d5bd14f71427d1e84f3dd0314c0f7b2291e5b200ac8c7c3b92560405160405180910390a45050565b6000612e79836001600160a01b038416614354565b611aea8282604051806020016040528060008152506143a3565b6000818152606760205260408120546001600160a01b0316613a115760405162461bcd60e51b815260206004820152602c60248201527f4552433732313a206f70657261746f7220717565727920666f72206e6f6e657860448201526b34b9ba32b73a103a37b5b2b760a11b6064820152608401610fb3565b6000613a1c83612001565b9050806001600160a01b0316846001600160a01b03161480613a575750836001600160a01b0316613a4c84610f3e565b6001600160a01b0316145b80613a8757506001600160a01b038082166000908152606a602090815260408083209388168352929052205460ff165b949350505050565b826001600160a01b0316613aa282612001565b6001600160a01b031614613b065760405162461bcd60e51b815260206004820152602560248201527f4552433732313a207472616e736665722066726f6d20696e636f72726563742060448201526437bbb732b960d91b6064820152608401610fb3565b6001600160a01b038216613b685760405162461bcd60e51b8152602060048201526024808201527f4552433732313a207472616e7366657220746f20746865207a65726f206164646044820152637265737360e01b6064820152608401610fb3565b613b738383836143d6565b613b7e6000826138fb565b6001600160a01b0383166000908152606860205260408120805460019290613ba7908490615a2b565b90915550506001600160a01b0382166000908152606860205260408120805460019290613bd59084906158c4565b909155505060008181526067602052604080822080546001600160a01b0319166001600160a01b0386811691821790925591518493918716917fddf252ad1be2c89b69c2b068fc378daa952ba7f163c4a11628f55a4df523b3ef91a4505050565b613c40828261300e565b611aea57613c58816001600160a01b03166014614427565b613c63836020614427565b604051602001613c74929190615383565b60408051601f198184030181529082905262461bcd60e51b8252610fb3916004016155dc565b613ca4828261300e565b611aea57600082815261012d602090815260408083206001600160a01b03851684529091529020805460ff19166001179055613cdd3390565b6001600160a01b0316816001600160a01b0316837f2f8788117e7eff1d82e926ec794901d17c78024a50270940304540a733656f0d60405160405180910390a45050565b613d2b828261300e565b15611aea57600082815261012d602090815260408083206001600160a01b0385168085529252808320805460ff1916905551339285917ff6391f5c32d9c69d2a47ea670b442974b53935d1edc7fd64eb21e047a839171b9190a45050565b600080516020615b26833981519152611aea8133613c36565b7f4910fdfa16fed3260ed0e7147f7cc6da11a60208b5b9406d12a635614ffd91435460ff1615613dd5576110e983614609565b826001600160a01b03166352d1902d6040518163ffffffff1660e01b815260040160206040518083038186803b158015613e0e57600080fd5b505afa925050508015613e3e575060408051601f3d908101601f19168201909252613e3b91810190615129565b60015b613ea15760405162461bcd60e51b815260206004820152602e60248201527f45524331393637557067726164653a206e657720696d706c656d656e7461746960448201526d6f6e206973206e6f74205555505360901b6064820152608401610fb3565b600080516020615b468339815191528114613f105760405162461bcd60e51b815260206004820152602960248201527f45524331393637557067726164653a20756e737570706f727465642070726f786044820152681a58589b195555525160ba1b6064820152608401610fb3565b506110e98383836146a5565b60fb5460ff16613f655760405162461bcd60e51b815260206004820152601460248201527314185d5cd8589b194e881b9bdd081c185d5cd95960621b6044820152606401610fb3565b60fb805460ff191690557f5db9ee0a495bf2e6ff9c91a7834c1ba4fdd244a5e8aa4e537bd38aeae4b073aa335b6040516001600160a01b03909116815260200160405180910390a1565b600054610100900460ff16613fd65760405162461bcd60e51b8152600401610fb390615827565b611aea82826146ca565b600054610100900460ff166140075760405162461bcd60e51b8152600401610fb390615827565b565b600054610100900460ff166140305760405162461bcd60e51b8152600401610fb390615827565b614007614718565b60fb5460ff161561407e5760405162461bcd60e51b815260206004820152601060248201526f14185d5cd8589b194e881c185d5cd95960821b6044820152606401610fb3565b60fb805460ff191660011790557f62e78cea01bee320cd4e420270b5ea74000d11b0c9f74754ebdbfc544b05a258613f923390565b816001600160a01b0316836001600160a01b031614156141155760405162461bcd60e51b815260206004820152601960248201527f4552433732313a20617070726f766520746f2063616c6c6572000000000000006044820152606401610fb3565b6001600160a01b038381166000818152606a6020908152604080832094871680845294825291829020805460ff191686151590811790915591519182527f17307eab39ab6107e8899845ad3d59bd9653f200f220920489ca2b5937696c31910160405180910390a3505050565b60006101c854836101c4546141979190615a2b565b6141a290600a615964565b6141ac8487615a0c565b6141b69190615a0c565b613a879190615901565b6141cb848484613a8f565b6141d78484848461474b565b6118bb5760405162461bcd60e51b8152600401610fb3906155ef565b6060816142175750506040805180820190915260018152600360fc1b602082015290565b8160005b8115614241578061422b81615aba565b915061423a9050600a83615901565b915061421b565b60008167ffffffffffffffff81111561426a57634e487b7160e01b600052604160045260246000fd5b6040519080825280601f01601f191660200182016040528015614294576020820181803683370190505b509050815b85156132e9576142aa600182615a2b565b905060006142b9600a88615901565b6142c490600a615a0c565b6142ce9088615a2b565b6142d99060306158dc565b905060008160f81b90508084848151811061430457634e487b7160e01b600052603260045260246000fd5b60200101906001600160f81b031916908160001a905350614326600a89615901565b97505050614299565b60006001600160e01b0319821663780e9d6360e01b1480610e175750610e1782614858565b600081815260018301602052604081205461439b57508154600181810184556000848152602080822090930184905584548482528286019093526040902091909155610e17565b506000610e17565b6143ad83836148a8565b6143ba600084848461474b565b6110e95760405162461bcd60e51b8152600401610fb3906155ef565b60fb5460ff161561441c5760405162461bcd60e51b815260206004820152601060248201526f14185d5cd8589b194e881c185d5cd95960821b6044820152606401610fb3565b6110e98383836149f6565b60606000614436836002615a0c565b6144419060026158c4565b67ffffffffffffffff81111561446757634e487b7160e01b600052604160045260246000fd5b6040519080825280601f01601f191660200182016040528015614491576020820181803683370190505b509050600360fc1b816000815181106144ba57634e487b7160e01b600052603260045260246000fd5b60200101906001600160f81b031916908160001a905350600f60fb1b816001815181106144f757634e487b7160e01b600052603260045260246000fd5b60200101906001600160f81b031916908160001a905350600061451b846002615a0c565b6145269060016158c4565b90505b60018111156145ba576f181899199a1a9b1b9c1cb0b131b232b360811b85600f166010811061456857634e487b7160e01b600052603260045260246000fd5b1a60f81b82828151811061458c57634e487b7160e01b600052603260045260246000fd5b60200101906001600160f81b031916908160001a90535060049490941c936145b381615a6e565b9050614529565b508315612e795760405162461bcd60e51b815260206004820181905260248201527f537472696e67733a20686578206c656e67746820696e73756666696369656e746044820152606401610fb3565b6001600160a01b0381163b6146765760405162461bcd60e51b815260206004820152602d60248201527f455243313936373a206e657720696d706c656d656e746174696f6e206973206e60448201526c1bdd08184818dbdb9d1c9858dd609a1b6064820152608401610fb3565b600080516020615b4683398151915280546001600160a01b0319166001600160a01b0392909216919091179055565b6146ae83614aae565b6000825111806146bb5750805b156110e9576118bb8383614aee565b600054610100900460ff166146f15760405162461bcd60e51b8152600401610fb390615827565b8151614704906065906020850190614dcc565b5080516110e9906066906020840190614dcc565b600054610100900460ff1661473f5760405162461bcd60e51b8152600401610fb390615827565b60fb805460ff19169055565b60006001600160a01b0384163b1561484d57604051630a85bd0160e11b81526001600160a01b0385169063150b7a029061478f9033908990889088906004016153f8565b602060405180830381600087803b1580156147a957600080fd5b505af19250505080156147d9575060408051601f3d908101601f191682019092526147d69181019061517f565b60015b614833573d808015614807576040519150601f19603f3d011682016040523d82523d6000602084013e61480c565b606091505b50805161482b5760405162461bcd60e51b8152600401610fb3906155ef565b805181602001fd5b6001600160e01b031916630a85bd0160e11b149050613a87565b506001949350505050565b60006001600160e01b031982166380ac58cd60e01b148061488957506001600160e01b03198216635b5e139f60e01b145b80610e1757506301ffc9a760e01b6001600160e01b0319831614610e17565b6001600160a01b0382166148fe5760405162461bcd60e51b815260206004820181905260248201527f4552433732313a206d696e7420746f20746865207a65726f20616464726573736044820152606401610fb3565b6000818152606760205260409020546001600160a01b0316156149635760405162461bcd60e51b815260206004820152601c60248201527f4552433732313a20746f6b656e20616c7265616479206d696e746564000000006044820152606401610fb3565b61496f600083836143d6565b6001600160a01b03821660009081526068602052604081208054600192906149989084906158c4565b909155505060008181526067602052604080822080546001600160a01b0319166001600160a01b03861690811790915590518392907fddf252ad1be2c89b69c2b068fc378daa952ba7f163c4a11628f55a4df523b3ef908290a45050565b6001600160a01b038316614a5157614a4c81609980546000838152609a60205260408120829055600182018355919091527f72a152ddfb8e864297c917af52ea6c1c68aead0fee1a62673fcc7e0c94979d000155565b614a74565b816001600160a01b0316836001600160a01b031614614a7457614a748382614bd9565b6001600160a01b038216614a8b576110e981614c76565b826001600160a01b0316826001600160a01b0316146110e9576110e98282614d4f565b614ab781614609565b6040516001600160a01b038216907fbc7cd75a20ee27fd9adebab32041f755214dbc6bffa90cc0225b39da2e5c2d3b90600090a250565b60606001600160a01b0383163b614b565760405162461bcd60e51b815260206004820152602660248201527f416464726573733a2064656c65676174652063616c6c20746f206e6f6e2d636f6044820152651b9d1c9858dd60d21b6064820152608401610fb3565b600080846001600160a01b031684604051614b719190615367565b600060405180830381855af49150503d8060008114614bac576040519150601f19603f3d011682016040523d82523d6000602084013e614bb1565b606091505b5091509150611ff88282604051806060016040528060278152602001615b6660279139614d93565b60006001614be684612b54565b614bf09190615a2b565b600083815260986020526040902054909150808214614c43576001600160a01b03841660009081526097602090815260408083208584528252808320548484528184208190558352609890915290208190555b5060009182526098602090815260408084208490556001600160a01b039094168352609781528383209183525290812055565b609954600090614c8890600190615a2b565b6000838152609a602052604081205460998054939450909284908110614cbe57634e487b7160e01b600052603260045260246000fd5b906000526020600020015490508060998381548110614ced57634e487b7160e01b600052603260045260246000fd5b6000918252602080832090910192909255828152609a90915260408082208490558582528120556099805480614d3357634e487b7160e01b600052603160045260246000fd5b6001900381819060005260206000200160009055905550505050565b6000614d5a83612b54565b6001600160a01b039093166000908152609760209081526040808320868452825280832085905593825260989052919091209190915550565b60608315614da2575081612e79565b825115614db25782518084602001fd5b8160405162461bcd60e51b8152600401610fb391906155dc565b828054614dd890615a85565b90600052602060002090601f016020900481019282614dfa5760008555614e40565b82601f10614e1357805160ff1916838001178555614e40565b82800160010185558215614e40579182015b82811115614e40578251825591602001919060010190614e25565b506137c3929150614e8b565b6040518060c0016040528060008152602001600081526020016000815260200160006001600160a01b0316815260200160008152602001600081525090565b5b808211156137c35760008155600101614e8c565b80356001600160a01b0381168114614eb757600080fd5b919050565b600082601f830112614ecc578081fd5b813567ffffffffffffffff80821115614ee757614ee7615aeb565b604051601f8301601f19908116603f01168101908282118183101715614f0f57614f0f615aeb565b81604052838152866020858801011115614f27578485fd5b8360208701602083013792830160200193909352509392505050565b805169ffffffffffffffffffff81168114614eb757600080fd5b600060208284031215614f6e578081fd5b612e7982614ea0565b60008060408385031215614f89578081fd5b614f9283614ea0565b9150614fa060208401614ea0565b90509250929050565b600080600060608486031215614fbd578081fd5b614fc684614ea0565b9250614fd460208501614ea0565b9150604084013590509250925092565b60008060008060808587031215614ff9578081fd5b61500285614ea0565b935061501060208601614ea0565b925060408501359150606085013567ffffffffffffffff811115615032578182fd5b61503e87828801614ebc565b91505092959194509250565b6000806040838503121561505c578182fd5b61506583614ea0565b9150602083013561507581615b01565b809150509250929050565b60008060408385031215615092578182fd5b61509b83614ea0565b9150602083013567ffffffffffffffff8111156150b6578182fd5b6150c285828601614ebc565b9150509250929050565b600080604083850312156150de578182fd5b6150e783614ea0565b946020939093013593505050565b600060208284031215615106578081fd5b8151612e7981615b01565b600060208284031215615122578081fd5b5035919050565b60006020828403121561513a578081fd5b5051919050565b60008060408385031215615153578081fd5b82359150614fa060208401614ea0565b600060208284031215615174578081fd5b8135612e7981615b0f565b600060208284031215615190578081fd5b8151612e7981615b0f565b60008060008060008060008060008060006101608c8e0312156151bc578889fd5b67ffffffffffffffff808d3511156151d257898afd5b6151df8e8e358f01614ebc565b9b508060208e013511156151f157898afd5b506152028d60208e01358e01614ebc565b995060408c0135985060608c0135975061521e60808d01614ea0565b965061522c60a08d01614ea0565b955061523a60c08d01614ea0565b945060e08c013593506101008c013592506152586101208d01614ea0565b91506152676101408d01614ea0565b90509295989b509295989b9093969950565b60008060408385031215615153578182fd5b6000806040838503121561529d578182fd5b50508035926020909101359150565b600080600080600060a086880312156152c3578283fd5b6152cc86614f43565b94506020860151935060408601519250606086015191506152ef60808701614f43565b90509295509295909350565b60008151808452615313816020860160208601615a42565b601f01601f19169290920160200192915050565b8051825260208082015190830152604080820151908301526060808201516001600160a01b0316908301526080808201519083015260a090810151910152565b60008251615379818460208701615a42565b9190910192915050565b7f416363657373436f6e74726f6c3a206163636f756e74200000000000000000008152600083516153bb816017850160208801615a42565b7001034b99036b4b9b9b4b733903937b6329607d1b60179184019182015283516153ec816028840160208801615a42565b01602801949350505050565b6001600160a01b038581168252841660208201526040810183905260806060820181905260009061542b908301846152fb565b9695505050505050565b6001600160a01b039586168152602081019490945260408401929092529092166060820152608081019190915260a00190565b6001600160a01b039687168152602081019590955260408501939093526060840191909152909216608082015260a081019190915260c00190565b6001600160a01b0394909416845260208401929092526040830152606082015260800190565b6020808252825182820181905260009190848201906040850190845b81811015615501578351835292840192918401916001016154e5565b50909695505050505050565b602080825282518282018190526000919060409081850190868401855b8281101561558d57815180518552868101518786015285810151151586860152606080820151908601526080808201516001600160a01b03169086015260a0808201519086015260c0908101519085015260e0909301929085019060010161552a565b5091979650505050505050565b6020808252825182820181905260009190848201906040850190845b81811015615501576155c9838551615327565b9284019260c092909201916001016155b6565b602081526000612e7960208301846152fb565b60208082526032908201527f4552433732313a207472616e7366657220746f206e6f6e20455243373231526560408201527131b2b4bb32b91034b6b83632b6b2b73a32b960711b606082015260800190565b6020808252602c908201527f46756e6374696f6e206d7573742062652063616c6c6564207468726f7567682060408201526b19195b1959d85d1958d85b1b60a21b606082015260800190565b6020808252602c908201527f46756e6374696f6e206d7573742062652063616c6c6564207468726f7567682060408201526b6163746976652070726f787960a01b606082015260800190565b60208082526037908201527f4e6f207368617265732068617665206265656e20736f6c642e204465706f736960408201527f74732077696c6c206e6f74206265206163636570746564000000000000000000606082015260800190565b60208082526031908201527f4552433732313a207472616e736665722063616c6c6572206973206e6f74206f6040820152701ddb995c881b9bdc88185c1c1c9bdd9959607a1b606082015260800190565b60208082526031908201527f4465706f736974732063616e6e6f74206265206d61646520647572696e6720666040820152701d5b991c985a5cda5b99c81c195c9a5bd9607a1b606082015260800190565b6020808252602f908201527f5265736375652063616e6e6f74206265206d61646520647572696e672066756e60408201526e191c985a5cda5b99c81c195c9a5bd9608a1b606082015260800190565b6020808252602b908201527f496e697469616c697a61626c653a20636f6e7472616374206973206e6f74206960408201526a6e697469616c697a696e6760a81b606082015260800190565b60208082526024908201527f46756e6472616973696e6720706572696f642068617320616c726561647920656040820152631b99195960e21b606082015260800190565b60c08101610e178284615327565b600082198211156158d7576158d7615ad5565b500190565b600060ff821660ff84168060ff038211156158f9576158f9615ad5565b019392505050565b60008261591c57634e487b7160e01b81526012600452602481fd5b500490565b600181815b8085111561595c57816000190482111561594257615942615ad5565b8085161561594f57918102915b93841c9390800290615926565b509250929050565b6000612e79838360008261597a57506001610e17565b8161598757506000610e17565b816001811461599d57600281146159a7576159c3565b6001915050610e17565b60ff8411156159b8576159b8615ad5565b50506001821b610e17565b5060208310610133831016604e8410600b84101617156159e6575081810a610e17565b6159f08383615921565b8060001904821115615a0457615a04615ad5565b029392505050565b6000816000190483118215151615615a2657615a26615ad5565b500290565b600082821015615a3d57615a3d615ad5565b500390565b60005b83811015615a5d578181015183820152602001615a45565b838111156118bb5750506000910152565b600081615a7d57615a7d615ad5565b506000190190565b600181811c90821680615a9957607f821691505b60208210811415611e1357634e487b7160e01b600052602260045260246000fd5b6000600019821415615ace57615ace615ad5565b5060010190565b634e487b7160e01b600052601160045260246000fd5b634e487b7160e01b600052604160045260246000fd5b8015158114611bcb57600080fd5b6001600160e01b031981168114611bcb57600080fdfe3b5d4cc60d3ec3516ee8ae083bd60934f6eb2a6c54b1229985c41bfb092b2603360894a13ba1a3210667c828492db98dca3e2076cc3735a920a3ca505d382bbc416464726573733a206c6f772d6c6576656c2064656c65676174652063616c6c206661696c6564a264697066735822122025fb0070c059129f1488ba93d09ce058c97efda3ea045ae2f9e1e3c78d1214fe64736f6c63430008040033",
  "linkReferences": {},
  "deployedLinkReferences": {}
}