{
  "_format": "hh-sol-artifact-1",
  "contractName": "LootboxInstantFactory",
  "sourceName": "contracts/LootboxInstantFactory.sol",
  "abi": [
    {
      "inputs": [
        {
          "internalType": "address",
          "name": "_lootboxDao",
          "type": "address"
        },
        {
          "internalType": "uint256",
          "name": "_ticketPurchaseFee",
          "type": "uint256"
        },
        {
          "internalType": "address",
          "name": "_brokerAddress",
          "type": "address"
        },
        {
          "internalType": "address",
          "name": "_superstaff",
          "type": "address"
        },
        {
          "internalType": "string",
          "name": "_baseTokenURI",
          "type": "string"
        }
      ],
      "stateMutability": "nonpayable",
      "type": "constructor"
    },
    {
      "anonymous": false,
      "inputs": [
        {
          "indexed": false,
          "internalType": "string",
          "name": "lootboxName",
          "type": "string"
        },
        {
          "indexed": true,
          "internalType": "address",
          "name": "lootbox",
          "type": "address"
        },
        {
          "indexed": true,
          "internalType": "address",
          "name": "issuer",
          "type": "address"
        },
        {
          "indexed": true,
          "internalType": "address",
          "name": "treasury",
          "type": "address"
        },
        {
          "indexed": false,
          "internalType": "uint256",
          "name": "targetSharesSold",
          "type": "uint256"
        },
        {
          "indexed": false,
          "internalType": "uint256",
          "name": "maxSharesSold",
          "type": "uint256"
        },
        {
          "indexed": false,
          "internalType": "string",
          "name": "_data",
          "type": "string"
        }
      ],
      "name": "LootboxCreated",
      "type": "event"
    },
    {
      "anonymous": false,
      "inputs": [
        {
          "indexed": false,
          "internalType": "address",
          "name": "account",
          "type": "address"
        }
      ],
      "name": "Paused",
      "type": "event"
    },
    {
      "anonymous": false,
      "inputs": [
        {
          "indexed": true,
          "internalType": "bytes32",
          "name": "role",
          "type": "bytes32"
        },
        {
          "indexed": true,
          "internalType": "bytes32",
          "name": "previousAdminRole",
          "type": "bytes32"
        },
        {
          "indexed": true,
          "internalType": "bytes32",
          "name": "newAdminRole",
          "type": "bytes32"
        }
      ],
      "name": "RoleAdminChanged",
      "type": "event"
    },
    {
      "anonymous": false,
      "inputs": [
        {
          "indexed": true,
          "internalType": "bytes32",
          "name": "role",
          "type": "bytes32"
        },
        {
          "indexed": true,
          "internalType": "address",
          "name": "account",
          "type": "address"
        },
        {
          "indexed": true,
          "internalType": "address",
          "name": "sender",
          "type": "address"
        }
      ],
      "name": "RoleGranted",
      "type": "event"
    },
    {
      "anonymous": false,
      "inputs": [
        {
          "indexed": true,
          "internalType": "bytes32",
          "name": "role",
          "type": "bytes32"
        },
        {
          "indexed": true,
          "internalType": "address",
          "name": "account",
          "type": "address"
        },
        {
          "indexed": true,
          "internalType": "address",
          "name": "sender",
          "type": "address"
        }
      ],
      "name": "RoleRevoked",
      "type": "event"
    },
    {
      "anonymous": false,
      "inputs": [
        {
          "indexed": false,
          "internalType": "address",
          "name": "account",
          "type": "address"
        }
      ],
      "name": "Unpaused",
      "type": "event"
    },
    {
      "inputs": [],
      "name": "DAO_ROLE",
      "outputs": [
        {
          "internalType": "bytes32",
          "name": "",
          "type": "bytes32"
        }
      ],
      "stateMutability": "view",
      "type": "function"
    },
    {
      "inputs": [],
      "name": "DEFAULT_ADMIN_ROLE",
      "outputs": [
        {
          "internalType": "bytes32",
          "name": "",
          "type": "bytes32"
        }
      ],
      "stateMutability": "view",
      "type": "function"
    },
    {
      "inputs": [],
      "name": "baseTokenURI",
      "outputs": [
        {
          "internalType": "string",
          "name": "",
          "type": "string"
        }
      ],
      "stateMutability": "view",
      "type": "function"
    },
    {
      "inputs": [],
      "name": "brokerAddress",
      "outputs": [
        {
          "internalType": "address",
          "name": "",
          "type": "address"
        }
      ],
      "stateMutability": "view",
      "type": "function"
    },
    {
      "inputs": [
        {
          "internalType": "string",
          "name": "_lootboxName",
          "type": "string"
        },
        {
          "internalType": "string",
          "name": "_lootboxSymbol",
          "type": "string"
        },
        {
          "internalType": "uint256",
          "name": "_targetSharesSold",
          "type": "uint256"
        },
        {
          "internalType": "uint256",
          "name": "_maxSharesSold",
          "type": "uint256"
        },
        {
          "internalType": "address",
          "name": "_treasury",
          "type": "address"
        },
        {
          "internalType": "string",
          "name": "_data",
          "type": "string"
        }
      ],
      "name": "createLootbox",
      "outputs": [
        {
          "internalType": "address",
          "name": "_lootbox",
          "type": "address"
        }
      ],
      "stateMutability": "nonpayable",
      "type": "function"
    },
    {
      "inputs": [
        {
          "internalType": "bytes32",
          "name": "role",
          "type": "bytes32"
        }
      ],
      "name": "getRoleAdmin",
      "outputs": [
        {
          "internalType": "bytes32",
          "name": "",
          "type": "bytes32"
        }
      ],
      "stateMutability": "view",
      "type": "function"
    },
    {
      "inputs": [
        {
          "internalType": "bytes32",
          "name": "role",
          "type": "bytes32"
        },
        {
          "internalType": "address",
          "name": "account",
          "type": "address"
        }
      ],
      "name": "grantRole",
      "outputs": [],
      "stateMutability": "nonpayable",
      "type": "function"
    },
    {
      "inputs": [
        {
          "internalType": "bytes32",
          "name": "role",
          "type": "bytes32"
        },
        {
          "internalType": "address",
          "name": "account",
          "type": "address"
        }
      ],
      "name": "hasRole",
      "outputs": [
        {
          "internalType": "bool",
          "name": "",
          "type": "bool"
        }
      ],
      "stateMutability": "view",
      "type": "function"
    },
    {
      "inputs": [],
      "name": "lootboxImplementation",
      "outputs": [
        {
          "internalType": "address",
          "name": "",
          "type": "address"
        }
      ],
      "stateMutability": "view",
      "type": "function"
    },
    {
      "inputs": [],
      "name": "pause",
      "outputs": [],
      "stateMutability": "nonpayable",
      "type": "function"
    },
    {
      "inputs": [],
      "name": "paused",
      "outputs": [
        {
          "internalType": "bool",
          "name": "",
          "type": "bool"
        }
      ],
      "stateMutability": "view",
      "type": "function"
    },
    {
      "inputs": [
        {
          "internalType": "bytes32",
          "name": "role",
          "type": "bytes32"
        },
        {
          "internalType": "address",
          "name": "account",
          "type": "address"
        }
      ],
      "name": "renounceRole",
      "outputs": [],
      "stateMutability": "nonpayable",
      "type": "function"
    },
    {
      "inputs": [
        {
          "internalType": "bytes32",
          "name": "role",
          "type": "bytes32"
        },
        {
          "internalType": "address",
          "name": "account",
          "type": "address"
        }
      ],
      "name": "revokeRole",
      "outputs": [],
      "stateMutability": "nonpayable",
      "type": "function"
    },
    {
      "inputs": [],
      "name": "semver",
      "outputs": [
        {
          "internalType": "string",
          "name": "",
          "type": "string"
        }
      ],
      "stateMutability": "view",
      "type": "function"
    },
    {
      "inputs": [],
      "name": "superstaff",
      "outputs": [
        {
          "internalType": "address",
          "name": "",
          "type": "address"
        }
      ],
      "stateMutability": "view",
      "type": "function"
    },
    {
      "inputs": [
        {
          "internalType": "bytes4",
          "name": "interfaceId",
          "type": "bytes4"
        }
      ],
      "name": "supportsInterface",
      "outputs": [
        {
          "internalType": "bool",
          "name": "",
          "type": "bool"
        }
      ],
      "stateMutability": "view",
      "type": "function"
    },
    {
      "inputs": [],
      "name": "ticketPurchaseFee",
      "outputs": [
        {
          "internalType": "uint256",
          "name": "",
          "type": "uint256"
        }
      ],
      "stateMutability": "view",
      "type": "function"
    },
    {
      "inputs": [],
      "name": "unpause",
      "outputs": [],
      "stateMutability": "nonpayable",
      "type": "function"
    },
    {
      "inputs": [],
      "name": "viewLootboxes",
      "outputs": [
        {
          "internalType": "bytes32[]",
          "name": "",
          "type": "bytes32[]"
        }
      ],
      "stateMutability": "view",
      "type": "function"
    }
  ],
  "bytecode": "0x6101006040523480156200001257600080fd5b50604051620082a8380380620082a883398101604081905262000035916200046f565b6000805460ff191690556001600160a01b038516620000a65760405162461bcd60e51b815260206004820152602260248201527f44414f204c6f6f74626f7820616464726573732063616e6e6f74206265207a65604482015261726f60f01b60648201526084015b60405180910390fd5b6001600160a01b038316620000fe5760405162461bcd60e51b815260206004820152601d60248201527f42726f6b657220616464726573732063616e6e6f74206265207a65726f00000060448201526064016200009d565b6305f5e1008410620001795760405162461bcd60e51b815260206004820152603660248201527f5075726368617365207469636b657420666565206d757374206265206c65737360448201527f207468616e20313030303030303030202831303025290000000000000000000060648201526084016200009d565b8051600003620001cc5760405162461bcd60e51b815260206004820152601e60248201527f4261736520746f6b656e205552492063616e6e6f7420626520656d707479000060448201526064016200009d565b6001600160a01b0382166200022e5760405162461bcd60e51b815260206004820152602160248201527f5375706572737461666620616464726573732063616e6e6f74206265207a65726044820152606f60f81b60648201526084016200009d565b6040516200023c9062000388565b604051809103906000f08015801562000259573d6000803e3d6000fd5b506001600160a01b0316608052620002927f3b5d4cc60d3ec3516ee8ae083bd60934f6eb2a6c54b1229985c41bfb092b260386620002ff565b60a08490526001600160a01b0380841660c052821660e0528051620002bf90600390602084019062000396565b5060408051808201909152600a80825269302e362e332d64656d6f60b01b6020909201918252620002f39160029162000396565b505050505050620005cc565b60008281526001602090815260408083206001600160a01b038516845290915290205460ff16620003845760008281526001602081815260408084206001600160a01b0386168086529252808420805460ff19169093179092559051339285917f2f8788117e7eff1d82e926ec794901d17c78024a50270940304540a733656f0d9190a45b5050565b616036806200227283390190565b828054620003a49062000590565b90600052602060002090601f016020900481019282620003c8576000855562000413565b82601f10620003e357805160ff191683800117855562000413565b8280016001018555821562000413579182015b8281111562000413578251825591602001919060010190620003f6565b506200042192915062000425565b5090565b5b8082111562000421576000815560010162000426565b80516001600160a01b03811681146200045457600080fd5b919050565b634e487b7160e01b600052604160045260246000fd5b600080600080600060a086880312156200048857600080fd5b62000493866200043c565b94506020808701519450620004ab604088016200043c565b9350620004bb606088016200043c565b60808801519093506001600160401b0380821115620004d957600080fd5b818901915089601f830112620004ee57600080fd5b81518181111562000503576200050362000459565b604051601f8201601f19908116603f011681019083821181831017156200052e576200052e62000459565b816040528281528c868487010111156200054757600080fd5b600093505b828410156200056b57848401860151818501870152928501926200054c565b828411156200057d5760008684830101525b8096505050505050509295509295909350565b600181811c90821680620005a557607f821691505b602082108103620005c657634e487b7160e01b600052602260045260246000fd5b50919050565b60805160a05160c05160e051611c50620006226000396000818161025101526106fd01526000818161027901526106dc0152600081816102d701526106bb015260008181610189015261068a0152611c506000f3fe60806040523480156200001157600080fd5b5060043610620001395760003560e01c80635089f79611620000bb578063a7c721c5116200007a578063a7c721c514620002d1578063cda493c814620002f9578063d547741f1462000312578063d547cfb71462000329578063e9c26518146200033357600080fd5b80635089f79614620002735780635c975abb146200029b5780638456cb5914620002a757806391d1485414620002b1578063a217fddf14620002c857600080fd5b8063248a9ca31162000108578063248a9ca314620001db5780632f2ff15d146200021157806336568abe146200022a5780633f4ba83a146200024157806342b12631146200024b57600080fd5b806301ffc9a7146200013e57806317088631146200016a57806319dd565714620001835780631aed9ea314620001c4575b600080fd5b620001556200014f36600462000ec9565b6200035b565b60405190151581526020015b60405180910390f35b6200017462000393565b60405162000161919062000ef5565b620001ab7f000000000000000000000000000000000000000000000000000000000000000081565b6040516001600160a01b03909116815260200162000161565b620001ab620001d536600462001003565b620003ec565b62000202620001ec366004620010ba565b6000908152600160208190526040909120015490565b60405190815260200162000161565b6200022862000222366004620010d4565b62000819565b005b620002286200023b366004620010d4565b62000849565b62000228620008cb565b620001ab7f000000000000000000000000000000000000000000000000000000000000000081565b620001ab7f000000000000000000000000000000000000000000000000000000000000000081565b60005460ff1662000155565b6200022862000905565b62000155620002c2366004620010d4565b6200093c565b62000202600081565b620002027f000000000000000000000000000000000000000000000000000000000000000081565b6200030362000967565b60405162000161919062001164565b6200022862000323366004620010d4565b620009fd565b6200030362000a28565b620002027f3b5d4cc60d3ec3516ee8ae083bd60934f6eb2a6c54b1229985c41bfb092b260381565b60006001600160e01b03198216637965db0b60e01b14806200038d57506301ffc9a760e01b6001600160e01b03198316145b92915050565b600480546040805160208084028201810190925282815260609390929091830182828015620003e257602002820191906000526020600020905b815481526020019060010190808311620003cd575b5050505050905090565b6000805460ff1615620004395760405162461bcd60e51b815260206004820152601060248201526f14185d5cd8589b194e881c185d5cd95960821b60448201526064015b60405180910390fd5b86516000036200048c5760405162461bcd60e51b815260206004820152601c60248201527f4c6f6f74626f78206e616d652063616e6e6f7420626520656d70747900000000604482015260640162000430565b8551600003620004df5760405162461bcd60e51b815260206004820152601e60248201527f4c6f6f74626f782073796d626f6c2063616e6e6f7420626520656d7074790000604482015260640162000430565b6001600160a01b038316620005375760405162461bcd60e51b815260206004820152601f60248201527f547265617375727920616464726573732063616e6e6f74206265207a65726f00604482015260640162000430565b600085116200059e5760405162461bcd60e51b815260206004820152602c60248201527f5461726765742073686172657320736f6c64206d75737420626520677265617460448201526b6572207468616e207a65726f60a01b606482015260840162000430565b60008411620006025760405162461bcd60e51b815260206004820152602960248201527f4d61782073686172657320736f6c64206d7573742062652067726561746572206044820152687468616e207a65726f60b81b606482015260840162000430565b84841015620006865760405162461bcd60e51b815260206004820152604360248201527f4d61782073686172657320736f6c64206d75737420626520677265617465722060448201527f7468616e206f7220657175616c20746f207461726765742073686172657320736064820152621bdb1960ea1b608482015260a40162000430565b60007f00000000000000000000000000000000000000000000000000000000000000006316bded3660e01b898960038a8a8a337f00000000000000000000000000000000000000000000000000000000000000007f00000000000000000000000000000000000000000000000000000000000000007f0000000000000000000000000000000000000000000000000000000000000000604051602401620007379a99989796959493929190620011b5565b60408051601f198184030181529181526020820180516001600160e01b03166001600160e01b0319909416939093179092529051620007769062000ebb565b62000783929190620012ff565b604051809103906000f080158015620007a0573d6000803e3d6000fd5b509050620007b060048262000a37565b50836001600160a01b0316336001600160a01b0316826001600160a01b03167ff39d14fa0aa07a94a72c62bae5fb327d547a62865bdd8fcfa9c5223107c35a7c8b8a8a896040516200080694939291906200132d565b60405180910390a4979650505050505050565b6000828152600160208190526040909120015462000838813362000a55565b62000844838362000ac4565b505050565b6001600160a01b0381163314620008bb5760405162461bcd60e51b815260206004820152602f60248201527f416363657373436f6e74726f6c3a2063616e206f6e6c792072656e6f756e636560448201526e103937b632b9903337b91039b2b63360891b606482015260840162000430565b620008c7828262000b32565b5050565b7f3b5d4cc60d3ec3516ee8ae083bd60934f6eb2a6c54b1229985c41bfb092b2603620008f8813362000a55565b6200090262000b9c565b50565b7f3b5d4cc60d3ec3516ee8ae083bd60934f6eb2a6c54b1229985c41bfb092b260362000932813362000a55565b6200090262000c31565b60009182526001602090815260408084206001600160a01b0393909316845291905290205460ff1690565b60028054620009769062001179565b80601f0160208091040260200160405190810160405280929190818152602001828054620009a49062001179565b8015620009f55780601f10620009c957610100808354040283529160200191620009f5565b820191906000526020600020905b815481529060010190602001808311620009d757829003601f168201915b505050505081565b6000828152600160208190526040909120015462000a1c813362000a55565b62000844838362000b32565b60038054620009769062001179565b600062000a4e836001600160a01b03841662000caf565b9392505050565b62000a6182826200093c565b620008c75762000a7c816001600160a01b0316601462000d01565b62000a8983602062000d01565b60405160200162000a9c9291906200136d565b60408051601f198184030181529082905262461bcd60e51b8252620004309160040162001164565b62000ad082826200093c565b620008c75760008281526001602081815260408084206001600160a01b0386168086529252808420805460ff19169093179092559051339285917f2f8788117e7eff1d82e926ec794901d17c78024a50270940304540a733656f0d9190a45050565b62000b3e82826200093c565b15620008c75760008281526001602090815260408083206001600160a01b0385168085529252808320805460ff1916905551339285917ff6391f5c32d9c69d2a47ea670b442974b53935d1edc7fd64eb21e047a839171b9190a45050565b60005460ff1662000be75760405162461bcd60e51b815260206004820152601460248201527314185d5cd8589b194e881b9bdd081c185d5cd95960621b604482015260640162000430565b6000805460ff191690557f5db9ee0a495bf2e6ff9c91a7834c1ba4fdd244a5e8aa4e537bd38aeae4b073aa335b6040516001600160a01b03909116815260200160405180910390a1565b60005460ff161562000c795760405162461bcd60e51b815260206004820152601060248201526f14185d5cd8589b194e881c185d5cd95960821b604482015260640162000430565b6000805460ff191660011790557f62e78cea01bee320cd4e420270b5ea74000d11b0c9f74754ebdbfc544b05a25862000c143390565b600081815260018301602052604081205462000cf8575081546001818101845560008481526020808220909301849055845484825282860190935260409020919091556200038d565b5060006200038d565b6060600062000d12836002620013fc565b62000d1f9060026200141e565b67ffffffffffffffff81111562000d3a5762000d3a62000f3b565b6040519080825280601f01601f19166020018201604052801562000d65576020820181803683370190505b509050600360fc1b8160008151811062000d835762000d8362001439565b60200101906001600160f81b031916908160001a905350600f60fb1b8160018151811062000db55762000db562001439565b60200101906001600160f81b031916908160001a905350600062000ddb846002620013fc565b62000de89060016200141e565b90505b600181111562000e6a576f181899199a1a9b1b9c1cb0b131b232b360811b85600f166010811062000e205762000e2062001439565b1a60f81b82828151811062000e395762000e3962001439565b60200101906001600160f81b031916908160001a90535060049490941c9362000e62816200144f565b905062000deb565b50831562000a4e5760405162461bcd60e51b815260206004820181905260248201527f537472696e67733a20686578206c656e67746820696e73756666696369656e74604482015260640162000430565b6107b1806200146a83390190565b60006020828403121562000edc57600080fd5b81356001600160e01b03198116811462000a4e57600080fd5b6020808252825182820181905260009190848201906040850190845b8181101562000f2f5783518352928401929184019160010162000f11565b50909695505050505050565b634e487b7160e01b600052604160045260246000fd5b600082601f83011262000f6357600080fd5b813567ffffffffffffffff8082111562000f815762000f8162000f3b565b604051601f8301601f19908116603f0116810190828211818310171562000fac5762000fac62000f3b565b8160405283815286602085880101111562000fc657600080fd5b836020870160208301376000602085830101528094505050505092915050565b80356001600160a01b038116811462000ffe57600080fd5b919050565b60008060008060008060c087890312156200101d57600080fd5b863567ffffffffffffffff808211156200103657600080fd5b620010448a838b0162000f51565b975060208901359150808211156200105b57600080fd5b620010698a838b0162000f51565b965060408901359550606089013594506200108760808a0162000fe6565b935060a08901359150808211156200109e57600080fd5b50620010ad89828a0162000f51565b9150509295509295509295565b600060208284031215620010cd57600080fd5b5035919050565b60008060408385031215620010e857600080fd5b82359150620010fa6020840162000fe6565b90509250929050565b60005b838110156200112057818101518382015260200162001106565b8381111562001130576000848401525b50505050565b600081518084526200115081602086016020860162001103565b601f01601f19169290920160200192915050565b60208152600062000a4e602083018462001136565b600181811c908216806200118e57607f821691505b602082108103620011af57634e487b7160e01b600052602260045260246000fd5b50919050565b61014081526000620011cc61014083018d62001136565b8281036020840152620011e0818d62001136565b9050828103604084015260008b54818160011c9050600182166200120257607f165b6020811060018316036200122457634e487b7160e01b83526022600452602483fd5b8084526020840193506001821680156200124757600181146200125a576200128a565b60ff19831685526020850193506200128a565b60008f81526020902060005b83811015620012845781548782015260019091019060200162001266565b86019450505b5050508092505050886060830152876080830152620012b460a08301886001600160a01b03169052565b6001600160a01b03861660c08301528460e0830152620012e06101008301856001600160a01b03169052565b6001600160a01b0383166101208301529b9a5050505050505050505050565b6001600160a01b0383168152604060208201819052600090620013259083018462001136565b949350505050565b60808152600062001342608083018762001136565b856020840152846040840152828103606084015262001362818562001136565b979650505050505050565b7f416363657373436f6e74726f6c3a206163636f756e7420000000000000000000815260008351620013a781601785016020880162001103565b7001034b99036b4b9b9b4b733903937b6329607d1b6017918401918201528351620013da81602884016020880162001103565b01602801949350505050565b634e487b7160e01b600052601160045260246000fd5b6000816000190483118215151615620014195762001419620013e6565b500290565b60008219821115620014345762001434620013e6565b500190565b634e487b7160e01b600052603260045260246000fd5b600081620014615762001461620013e6565b50600019019056fe60806040526040516107b13803806107b183398101604081905261002291610349565b61004d60017f360894a13ba1a3210667c828492db98dca3e2076cc3735a920a3ca505d382bbd610417565b60008051602061076a833981519152146100695761006961043c565b6100758282600061007c565b50506104a1565b610085836100b2565b6000825111806100925750805b156100ad576100ab83836100f260201b6100291760201c565b505b505050565b6100bb8161011e565b6040516001600160a01b038216907fbc7cd75a20ee27fd9adebab32041f755214dbc6bffa90cc0225b39da2e5c2d3b90600090a250565b6060610117838360405180606001604052806027815260200161078a602791396101de565b9392505050565b610131816102bc60201b6100551760201c565b6101985760405162461bcd60e51b815260206004820152602d60248201527f455243313936373a206e657720696d706c656d656e746174696f6e206973206e60448201526c1bdd08184818dbdb9d1c9858dd609a1b60648201526084015b60405180910390fd5b806101bd60008051602061076a83398151915260001b6102cb60201b6100641760201c565b80546001600160a01b0319166001600160a01b039290921691909117905550565b60606001600160a01b0384163b6102465760405162461bcd60e51b815260206004820152602660248201527f416464726573733a2064656c65676174652063616c6c20746f206e6f6e2d636f6044820152651b9d1c9858dd60d21b606482015260840161018f565b600080856001600160a01b0316856040516102619190610452565b600060405180830381855af49150503d806000811461029c576040519150601f19603f3d011682016040523d82523d6000602084013e6102a1565b606091505b5090925090506102b28282866102ce565b9695505050505050565b6001600160a01b03163b151590565b90565b606083156102dd575081610117565b8251156102ed5782518084602001fd5b8160405162461bcd60e51b815260040161018f919061046e565b634e487b7160e01b600052604160045260246000fd5b60005b83811015610338578181015183820152602001610320565b838111156100ab5750506000910152565b6000806040838503121561035c57600080fd5b82516001600160a01b038116811461037357600080fd5b60208401519092506001600160401b038082111561039057600080fd5b818501915085601f8301126103a457600080fd5b8151818111156103b6576103b6610307565b604051601f8201601f19908116603f011681019083821181831017156103de576103de610307565b816040528281528860208487010111156103f757600080fd5b61040883602083016020880161031d565b80955050505050509250929050565b60008282101561043757634e487b7160e01b600052601160045260246000fd5b500390565b634e487b7160e01b600052600160045260246000fd5b6000825161046481846020870161031d565b9190910192915050565b602081526000825180602084015261048d81604085016020870161031d565b601f01601f19169190910160400192915050565b6102ba806104b06000396000f3fe60806040523661001357610011610017565b005b6100115b610027610022610067565b61009f565b565b606061004e838360405180606001604052806027815260200161025e602791396100c3565b9392505050565b6001600160a01b03163b151590565b90565b600061009a7f360894a13ba1a3210667c828492db98dca3e2076cc3735a920a3ca505d382bbc546001600160a01b031690565b905090565b3660008037600080366000845af43d6000803e8080156100be573d6000f35b3d6000fd5b60606001600160a01b0384163b6101305760405162461bcd60e51b815260206004820152602660248201527f416464726573733a2064656c65676174652063616c6c20746f206e6f6e2d636f6044820152651b9d1c9858dd60d21b60648201526084015b60405180910390fd5b600080856001600160a01b03168560405161014b919061020e565b600060405180830381855af49150503d8060008114610186576040519150601f19603f3d011682016040523d82523d6000602084013e61018b565b606091505b509150915061019b8282866101a5565b9695505050505050565b606083156101b457508161004e565b8251156101c45782518084602001fd5b8160405162461bcd60e51b8152600401610127919061022a565b60005b838110156101f95781810151838201526020016101e1565b83811115610208576000848401525b50505050565b600082516102208184602087016101de565b9190910192915050565b60208152600082518060208401526102498160408501602087016101de565b601f01601f1916919091016040019291505056fe416464726573733a206c6f772d6c6576656c2064656c65676174652063616c6c206661696c6564a26469706673582212206a9a8c80cf4acba4b799b5c7fb65ea2dad7950cdf128b00c6f7abfa4a4e576e164736f6c634300080d0033360894a13ba1a3210667c828492db98dca3e2076cc3735a920a3ca505d382bbc416464726573733a206c6f772d6c6576656c2064656c65676174652063616c6c206661696c6564a2646970667358221220d69df5748885cabe1a7ff83a15b72ef79f5496112b95a2d19d4bece94e72084764736f6c634300080d003360a0604052306080523480156200001557600080fd5b50600054610100900460ff16620000335760005460ff16156200003d565b6200003d620000e2565b620000a55760405162461bcd60e51b815260206004820152602e60248201527f496e697469616c697a61626c653a20636f6e747261637420697320616c72656160448201526d191e481a5b9a5d1a585b1a5e995960921b606482015260840160405180910390fd5b600054610100900460ff16158015620000c8576000805461ffff19166101011790555b8015620000db576000805461ff00191690555b506200010f565b6000620000fa306200010060201b6200362f1760201c565b15905090565b6001600160a01b03163b151590565b608051615eef6200014760003960008181611ece01528181611f0e015281816123d00152818161241001526125d30152615eef6000f3fe6080604052600436106104565760003560e01c806370a082311161023f578063a22cb46511610139578063d547741f116100b6578063e985e9c51161007a578063e985e9c514610d66578063e9c2651814610daf578063fbf97c5914610dd1578063fdf27dba14610dff578063ff7808e914610e1657600080fd5b8063d547741f14610cd8578063da3537a814610cf8578063dd13745514610d0d578063dd7af03514610d2f578063e6deb18d14610d4657600080fd5b8063b4ce37d2116100fd578063b4ce37d214610c57578063b88d4fde14610c6c578063c87b56dd14610c8c578063cc0f178614610cac578063cda493c814610cc357600080fd5b8063a22cb46514610b4e578063a7485cf114610b6e578063a7c721c514610b8e578063abff011014610ba5578063ae501c0414610bc657600080fd5b80639088feba116101c75780639c2ed2451161018b5780639c2ed24514610ab95780639f79234014610ad9578063a07ae16a14610af0578063a1b2a2bc14610b05578063a217fddf14610b3957600080fd5b80639088feba14610a1a57806391d1485414610a5657806393a057cd14610a7657806393de6dc814610a8d57806395d89b4114610aa457600080fd5b806384139c8c1161020e57806384139c8c1461099a5780638456cb59146109ce5780638802255f146109e35780638c824949146109fb5780638caa098614610a0357600080fd5b806370a082311461092157806378d85c4e14610941578063816c42f61461096e5780638240b7771461098557600080fd5b80633b95f00f11610350578063533573fe116102d857806369d85d541161029c57806369d85d54146108645780636c9d3b3a146108915780636e70096e146108bf5780636f2ef95b146108df5780636fcf1e651461090c57600080fd5b8063533573fe146107ce578063588dae3c146107e65780635c975abb1461080657806361d027b31461081e5780636352211e1461084457600080fd5b80634f1ef2861161031f5780634f1ef286146107565780634f6ccce71461076957806351f0a93f14610789578063522c21781461079e57806352d1902d146107b957600080fd5b80633b95f00f146106f65780633f4ba83a1461070e57806342842e0e146107235780634b054fb41461074357600080fd5b80631d143848116103de5780632f2ff15d116103a25780632f2ff15d1461065f5780632f745c591461067f57806336568abe1461069f5780633659cfe6146106bf5780633af8e5eb146106df57600080fd5b80631d143848146105b157806321846c76146105d257806323b872dd146105ef578063248a9ca31461060f5780632a4c03cc1461063f57600080fd5b8063095ea7b311610425578063095ea7b31461050657806312923b651461052857806316bded361461055f57806318160ddd1461057f57806318fc77ae1461059e57600080fd5b806301ffc9a71461046257806305bc64eb1461049757806306fdde03146104b9578063081812fc146104ce57600080fd5b3661045d57005b600080fd5b34801561046e57600080fd5b5061048261047d366004615116565b610e2d565b60405190151581526020015b60405180910390f35b3480156104a357600080fd5b506104ac610e3e565b60405161048e919061518b565b3480156104c557600080fd5b506104ac610ecd565b3480156104da57600080fd5b506104ee6104e936600461519e565b610f5f565b6040516001600160a01b03909116815260200161048e565b34801561051257600080fd5b506105266105213660046151d3565b610ff9565b005b34801561053457600080fd5b506104ee61054336600461519e565b6101d0602052600090815260409020546001600160a01b031681565b34801561056b57600080fd5b5061052661057a3660046152a0565b61110e565b34801561058b57600080fd5b506099545b60405190815260200161048e565b6105266105ac3660046151d3565b61175e565b3480156105bd57600080fd5b506101c9546104ee906001600160a01b031681565b6105da6117bf565b6040805192835260208301919091520161048e565b3480156105fb57600080fd5b5061052661060a36600461538a565b611ccb565b34801561061b57600080fd5b5061059061062a36600461519e565b600090815260fb602052604090206001015490565b34801561064b57600080fd5b5061052661065a3660046153c6565b611cfc565b34801561066b57600080fd5b5061052661067a3660046153e1565b611d8a565b34801561068b57600080fd5b5061059061069a3660046151d3565b611db0565b3480156106ab57600080fd5b506105266106ba3660046153e1565b611e46565b3480156106cb57600080fd5b506105266106da3660046153c6565b611ec4565b3480156106eb57600080fd5b506105906101c65481565b34801561070257600080fd5b506101d1546105909081565b34801561071a57600080fd5b50610526611fa3565b34801561072f57600080fd5b5061052661073e36600461538a565b611fc4565b6105266107513660046151d3565b611fdf565b61052661076436600461540d565b6123c6565b34801561077557600080fd5b5061059061078436600461519e565b612492565b34801561079557600080fd5b50610590612525565b3480156107aa57600080fd5b506101d2546104829060ff1681565b3480156107c557600080fd5b506105906125c6565b3480156107da57600080fd5b506101d8546105909081565b3480156107f257600080fd5b506105906108013660046153c6565b612679565b34801561081257600080fd5b5060c95460ff16610482565b34801561082a57600080fd5b506101d2546104ee9061010090046001600160a01b031681565b34801561085057600080fd5b506104ee61085f36600461519e565b61279f565b34801561087057600080fd5b5061088461087f3660046153c6565b612816565b60405161048e919061545b565b34801561089d57600080fd5b506105906108ac3660046153c6565b6101d96020526000908152604090205481565b3480156108cb57600080fd5b506105266108da36600461519e565b6128b8565b3480156108eb57600080fd5b506108ff6108fa36600461519e565b612cf6565b60405161048e91906154df565b34801561091857600080fd5b50610526612d61565b34801561092d57600080fd5b5061059061093c3660046153c6565b612df6565b34801561094d57600080fd5b5061096161095c36600461519e565b612e7d565b60405161048e91906154ed565b34801561097a57600080fd5b506105906101ce5481565b34801561099157600080fd5b50610590613057565b3480156109a657600080fd5b506105907fadfdddb55357a51b30395613329be9f598b4863fca87921f7c811f8eca6cbcbd81565b3480156109da57600080fd5b50610526613106565b3480156109ef57600080fd5b506101d4546105909081565b610526613127565b348015610a0f57600080fd5b506105906101cb5481565b348015610a2657600080fd5b50610482610a3536600461557a565b6101db60209081526000928352604080842090915290825290205460ff1681565b348015610a6257600080fd5b50610482610a713660046153e1565b613185565b348015610a8257600080fd5b506105906101cd5481565b348015610a9957600080fd5b506105906101ca5481565b348015610ab057600080fd5b506104ac6131b0565b348015610ac557600080fd5b50610526610ad43660046155aa565b6131bf565b348015610ae557600080fd5b506105906101da5481565b348015610afc57600080fd5b50610526613244565b348015610b1157600080fd5b506105907f5b66ba6c89bff8e7fd4e7050b9174d7e57d4f17942bf4186aa7566b5a93c8ffd81565b348015610b4557600080fd5b50610590600081565b348015610b5a57600080fd5b50610526610b693660046155aa565b613383565b348015610b7a57600080fd5b50610590610b8936600461519e565b61338e565b348015610b9a57600080fd5b506105906101d65481565b348015610bb157600080fd5b506101d5546104ee906001600160a01b031681565b348015610bd257600080fd5b50610c21610be136600461519e565b6101d7602052600090815260409020805460018201546002830154600384015460048501546005909501549394929391926001600160a01b039091169186565b604080519687526020870195909552938501929092526001600160a01b03166060840152608083015260a082015260c00161048e565b348015610c6357600080fd5b506104ac6133a5565b348015610c7857600080fd5b50610526610c873660046155e1565b6133b3565b348015610c9857600080fd5b506104ac610ca736600461519e565b6133eb565b348015610cb857600080fd5b506105906101c75481565b348015610ccf57600080fd5b506104ac613435565b348015610ce457600080fd5b50610526610cf33660046153e1565b613443565b348015610d0457600080fd5b50610590613469565b348015610d1957600080fd5b50610d22613482565b60405161048e9190615649565b348015610d3b57600080fd5b506105906101cc5481565b348015610d5257600080fd5b50610590610d613660046153c6565b613585565b348015610d7257600080fd5b50610482610d8136600461568b565b6001600160a01b039182166000908152606a6020908152604080832093909416825291909152205460ff1690565b348015610dbb57600080fd5b50610590600080516020615e5383398151915281565b348015610ddd57600080fd5b50610590610dec36600461519e565b6101d36020526000908152604090205481565b348015610e0b57600080fd5b506105906101c85481565b348015610e2257600080fd5b506105906101cf5481565b6000610e388261363e565b92915050565b6101c38054610e4c906156b5565b80601f0160208091040260200160405190810160405280929190818152602001828054610e78906156b5565b8015610ec55780601f10610e9a57610100808354040283529160200191610ec5565b820191906000526020600020905b815481529060010190602001808311610ea857829003601f168201915b505050505081565b606060658054610edc906156b5565b80601f0160208091040260200160405190810160405280929190818152602001828054610f08906156b5565b8015610f555780601f10610f2a57610100808354040283529160200191610f55565b820191906000526020600020905b815481529060010190602001808311610f3857829003601f168201915b5050505050905090565b6000818152606760205260408120546001600160a01b0316610fdd5760405162461bcd60e51b815260206004820152602c60248201527f4552433732313a20617070726f76656420717565727920666f72206e6f6e657860448201526b34b9ba32b73a103a37b5b2b760a11b60648201526084015b60405180910390fd5b506000908152606960205260409020546001600160a01b031690565b60006110048261279f565b9050806001600160a01b0316836001600160a01b0316036110715760405162461bcd60e51b815260206004820152602160248201527f4552433732313a20617070726f76616c20746f2063757272656e74206f776e656044820152603960f91b6064820152608401610fd4565b336001600160a01b038216148061108d575061108d8133610d81565b6110ff5760405162461bcd60e51b815260206004820152603860248201527f4552433732313a20617070726f76652063616c6c6572206973206e6f74206f7760448201527f6e6572206e6f7220617070726f76656420666f7220616c6c00000000000000006064820152608401610fd4565b6111098383613663565b505050565b600054610100900460ff166111295760005460ff161561112d565b303b155b6111905760405162461bcd60e51b815260206004820152602e60248201527f496e697469616c697a61626c653a20636f6e747261637420697320616c72656160448201526d191e481a5b9a5d1a585b1a5e995960921b6064820152608401610fd4565b600054610100900460ff161580156111b2576000805461ffff19166101011790555b60408051808201909152600780825266125b9cdd185b9d60ca1b60209092019182526111e1916101c39161502c565b5060408051808201909152600a80825269302e362e332d64656d6f60b01b6020909201918252611214916101c49161502c565b508a518b908b906000036112615760405162461bcd60e51b81526020600482015260146024820152734e616d652063616e6e6f7420626520656d70747960601b6044820152606401610fd4565b80516000036112ab5760405162461bcd60e51b815260206004820152601660248201527553796d626f6c2063616e6e6f7420626520656d70747960501b6044820152606401610fd4565b8a516000036112fc5760405162461bcd60e51b815260206004820152601e60248201527f4261736520746f6b656e205552492063616e6e6f7420626520656d70747900006044820152606401610fd4565b6305f5e100861061136e5760405162461bcd60e51b815260206004820152603660248201527f5075726368617365207469636b657420666565206d757374206265206c657373604482015275207468616e203130303030303030302028313030252960501b6064820152608401610fd4565b6001600160a01b0388166113d05760405162461bcd60e51b815260206004820152602360248201527f54726561737572792063616e6e6f7420626520746865207a65726f206164647260448201526265737360e81b6064820152608401610fd4565b6001600160a01b0387166114305760405162461bcd60e51b815260206004820152602160248201527f4973737565722063616e6e6f7420626520746865207a65726f206164647265736044820152607360f81b6064820152608401610fd4565b600089116114925760405162461bcd60e51b815260206004820152602960248201527f4d61782073686172657320736f6c64206d7573742062652067726561746572206044820152687468616e207a65726f60b81b6064820152608401610fd4565b60008a116114f75760405162461bcd60e51b815260206004820152602c60248201527f5461726765742073686172657320736f6c64206d75737420626520677265617460448201526b6572207468616e207a65726f60a01b6064820152608401610fd4565b888a111561156f576040805162461bcd60e51b81526020600482015260248101919091527f5461726765742073686172657320736f6c64206d757374206265206c6573732060448201527f7468616e206f7220657175616c20746f206d61782073686172657320736f6c646064820152608401610fd4565b6001600160a01b0385166115cf5760405162461bcd60e51b815260206004820152602160248201527f42726f6b65722063616e6e6f7420626520746865207a65726f206164647265736044820152607360f81b6064820152608401610fd4565b6001600160a01b0384166116335760405162461bcd60e51b815260206004820152602560248201527f537570657273746166662063616e6e6f7420626520746865207a65726f206164604482015264647265737360d81b6064820152608401610fd4565b61163d8d8d6136d1565b611645613702565b61164d61372b565b611655613702565b61165d613702565b426101c85560126101c681905560086101c75564e8d4a510006101ca556101cb5560006101cf556101cd8a90556101ce8990556101c980546001600160a01b03808a166001600160a01b0319928316179092556101d280548b8416610100026001600160a81b03199091161760011790556101d68890556101d58054928816929091169190911790558a516116fa906101c59060208e019061502c565b50611713600080516020615e538339815191528861375a565b61173d7fadfdddb55357a51b30395613329be9f598b4863fca87921f7c811f8eca6cbcbd8561375a565b50508015611751576000805461ff00191690555b5050505050505050505050565b600261019154036117815760405162461bcd60e51b8152600401610fd4906156e9565b60026101915560c95460ff16156117aa5760405162461bcd60e51b8152600401610fd490615720565b6117b53383836137e0565b5050600161019155565b600080600261019154036117e55760405162461bcd60e51b8152600401610fd4906156e9565b60026101915560c95460ff161561180e5760405162461bcd60e51b8152600401610fd490615720565b600034116118695760405162461bcd60e51b815260206004820152602260248201527f5075726368617365206d7573742062652067726561746572207468616e207a65604482015261726f60f01b6064820152608401610fd4565b6101d25461010090046001600160a01b031633036118c95760405162461bcd60e51b815260206004820181905260248201527f54726561737572792063616e6e6f74207075726368617365207469636b6574736044820152606401610fd4565b6101d25460ff1615156001146119475760405162461bcd60e51b815260206004820152603860248201527f5469636b6574732063616e6e6f7420626520707572636861736564206166746560448201527f72207468652066756e6472616973696e6720706572696f6400000000000000006064820152608401610fd4565b60006305f5e1006101d6543461195d9190615760565b6119679190615795565b9050600061197582346157a9565b905060006119828261338e565b905061198c613469565b811115611a015760405162461bcd60e51b815260206004820152603d60248201527f4e6f7420656e6f756768207368617265732072656d61696e696e6720746f207060448201527f757263686173652c20747279206120736d616c6c657220616d6f756e740000006064820152608401610fd4565b6000611a0d6101d45490565b9050611a1e6101d480546001019055565b60008181526101d3602090815260408083208590556101d1805484526101d090925290912080546001600160a01b0319163317905580546001019055816101cc54611a6991906157c0565b6101cc556101cf54611a7c9084906157c0565b6101cf556101d25460408051308152602081018490529081018490526101009091046001600160a01b03169033907f6a27e1b7df682d1c1dc3b964b500f4dd4c0bfc64128c9a47a8c7ad594301a77a9060600160405180910390a36101d5546101d2546101ca5460408051308152602081018690523481830152606081018890526080810189905260a0810187905260c0810192909252516001600160a01b03938416936101009093049092169133917f3e3034b2cabc46fc365f708d14116816d29867e13940e763b1c3d023f9bcb7eb919081900360e00190a46101d25460405160009161010090046001600160a01b03169085908381818185875af1925050503d8060008114611baa576040519150601f19603f3d011682016040523d82523d6000602084013e611baf565b606091505b5050905080611c0b5760405162461bcd60e51b815260206004820152602260248201527f547265617375727920636f756c64206e6f742072656365697665207061796d656044820152611b9d60f21b6064820152608401610fd4565b6101d5546040516000916001600160a01b03169087908381818185875af1925050503d8060008114611c59576040519150601f19603f3d011682016040523d82523d6000602084013e611c5e565b606091505b5050905080611caf5760405162461bcd60e51b815260206004820181905260248201527f42726f6b657220636f756c64206e6f742072656365697665207061796d656e746044820152606401610fd4565b611cb93384613ae9565b50506001610191559590945092505050565b611cd53382613b03565b611cf15760405162461bcd60e51b8152600401610fd4906157d8565b611109838383613bf6565b60026101915403611d1f5760405162461bcd60e51b8152600401610fd4906156e9565b60026101915560c95460ff1615611d485760405162461bcd60e51b8152600401610fd490615720565b6101d25460ff1615611d6c5760405162461bcd60e51b8152600401610fd490615829565b6000611d7782612679565b905080156117b5576117b53083836137e0565b600082815260fb6020526040902060010154611da68133613d9d565b611109838361375a565b6000611dbb83612df6565b8210611e1d5760405162461bcd60e51b815260206004820152602b60248201527f455243373231456e756d657261626c653a206f776e657220696e646578206f7560448201526a74206f6620626f756e647360a81b6064820152608401610fd4565b506001600160a01b03919091166000908152609760209081526040808320938352929052205490565b6001600160a01b0381163314611eb65760405162461bcd60e51b815260206004820152602f60248201527f416363657373436f6e74726f6c3a2063616e206f6e6c792072656e6f756e636560448201526e103937b632b9903337b91039b2b63360891b6064820152608401610fd4565b611ec08282613e01565b5050565b6001600160a01b037f0000000000000000000000000000000000000000000000000000000000000000163003611f0c5760405162461bcd60e51b8152600401610fd490615878565b7f00000000000000000000000000000000000000000000000000000000000000006001600160a01b0316611f55600080516020615e73833981519152546001600160a01b031690565b6001600160a01b031614611f7b5760405162461bcd60e51b8152600401610fd4906158c4565b611f8481613e68565b60408051600080825260208201909252611fa091839190613e81565b50565b600080516020615e53833981519152611fbc8133613d9d565b611fa0613fec565b611109838383604051806020016040528060008152506133b3565b600261019154036120025760405162461bcd60e51b8152600401610fd4906156e9565b60026101915560c95460ff161561202b5760405162461bcd60e51b8152600401610fd490615720565b6001600160a01b0382166120815760405162461bcd60e51b815260206004820152601f60248201527f43616e6e6f74206d696e7420746f20746865207a65726f2061646472657373006044820152606401610fd4565b600081116120c85760405162461bcd60e51b81526020600482015260146024820152734d757374206d696e742061207175616e7469747960601b6044820152606401610fd4565b60006305f5e1006101d654346120de9190615760565b6120e89190615795565b905060006120f682346157a9565b905060006121038261338e565b905061210d613469565b81111561216c5760405162461bcd60e51b815260206004820152602760248201527f4e6f7420656e6f756768207368617265732072656d61696e696e6720746f20706044820152667572636861736560c81b6064820152608401610fd4565b806101cc5461217b91906157c0565b6101cc556101cf5461218e9083906157c0565b6101cf556101d5546040516000916001600160a01b03169085908381818185875af1925050503d80600081146121e0576040519150601f19603f3d011682016040523d82523d6000602084013e6121e5565b606091505b50509050806122365760405162461bcd60e51b815260206004820181905260248201527f42726f6b657220636f756c64206e6f742072656365697665207061796d656e746044820152606401610fd4565b336101d060006122466101d15490565b815260200190815260200160002060006101000a8154816001600160a01b0302191690836001600160a01b031602179055506122876101d180546001019055565b8160006122948783615795565b905060005b8781101561234057876122ad8260016157c0565b10156122e557816101d360006122c36101d45490565b81526020810191909152604001600020556122de82846157a9565b925061230c565b826101d360006122f56101d45490565b815260200190815260200160002081905550600092505b61231f8961231a6101d45490565b613ae9565b61232e6101d480546001019055565b8061233881615910565b915050612299565b506101d2546001600160a01b0361010090910416337f6a27e1b7df682d1c1dc3b964b500f4dd4c0bfc64128c9a47a8c7ad594301a77a3060016123836101d45490565b61238d91906157a9565b604080516001600160a01b0390931683526020830191909152810188905260600160405180910390a35050505050505050600161019155565b6001600160a01b037f000000000000000000000000000000000000000000000000000000000000000016300361240e5760405162461bcd60e51b8152600401610fd490615878565b7f00000000000000000000000000000000000000000000000000000000000000006001600160a01b0316612457600080516020615e73833981519152546001600160a01b031690565b6001600160a01b03161461247d5760405162461bcd60e51b8152600401610fd4906158c4565b61248682613e68565b611ec082826001613e81565b600061249d60995490565b82106125005760405162461bcd60e51b815260206004820152602c60248201527f455243373231456e756d657261626c653a20676c6f62616c20696e646578206f60448201526b7574206f6620626f756e647360a01b6064820152608401610fd4565b6099828154811061251357612513615929565b90600052602060002001549050919050565b600080805b6101d8548110156125c05760008181526101d76020908152604091829020825160c0810184528154815260018201549281019290925260028101549282019290925260038201546001600160a01b0316606082018190526004830154608083015260059092015460a0820152906125ad5760408101516125aa90846157c0565b92505b50806125b881615910565b91505061252a565b50919050565b6000306001600160a01b037f000000000000000000000000000000000000000000000000000000000000000016146126665760405162461bcd60e51b815260206004820152603860248201527f555550535570677261646561626c653a206d757374206e6f742062652063616c60448201527f6c6564207468726f7567682064656c656761746563616c6c00000000000000006064820152608401610fd4565b50600080516020615e7383398151915290565b600080805b6101d85481101561271c5760008181526101d76020908152604091829020825160c0810184528154815260018201549281019290925260028101549282019290925260038201546001600160a01b03908116606083018190526004840154608084015260059093015460a08301529091908616900361270957608081015161270690846157c0565b92505b508061271481615910565b91505061267e565b506040516370a0823160e01b8152306004820152839060009083906001600160a01b038416906370a0823190602401602060405180830381865afa158015612768573d6000803e3d6000fd5b505050506040513d601f19601f8201168201806040525081019061278c919061593f565b61279691906157a9565b95945050505050565b6000818152606760205260408120546001600160a01b031680610e385760405162461bcd60e51b815260206004820152602960248201527f4552433732313a206f776e657220717565727920666f72206e6f6e657869737460448201526832b73a103a37b5b2b760b91b6064820152608401610fd4565b6060600061282383612df6565b905060008167ffffffffffffffff811115612840576128406151fd565b604051908082528060200260200182016040528015612869578160200160208202803683370190505b50905060005b828110156128b0576128818582611db0565b82828151811061289357612893615929565b6020908102919091010152806128a881615910565b91505061286f565b509392505050565b600261019154036128db5760405162461bcd60e51b8152600401610fd4906156e9565b60026101915560c95460ff16156129045760405162461bcd60e51b8152600401610fd490615720565b6101d25460ff16156129755760405162461bcd60e51b815260206004820152603460248201527f5769746864726177616c732063616e6e6f74206265206d61646520647572696e60448201527319c8199d5b991c985a5cda5b99c81c195c9a5bd960621b6064820152608401610fd4565b3361297f8261279f565b6001600160a01b0316146129d55760405162461bcd60e51b815260206004820152601a60248201527f596f7520646f206e6f74206f776e2074686973207469636b65740000000000006044820152606401610fd4565b60008181526101d36020526040812054905b6101d854811015612ceb5760008181526101d760209081526040808320815160c081018352815481526001808301548286015260028301548285015260038301546001600160a01b031660608301526004830154608083015260059092015460a08201528785526101db845282852081518652909352922054909160ff909116151514612cd85760008481526101db60209081526040808320845184529091529020805460ff1916600117905560608101516001600160a01b031615612bb15760006101cc54848360800151612abd9190615760565b612ac79190615795565b8251606084015160405192935033927f981eda60172361092f12c75de05c753d28c928d6fb0b4b6492e685a44265fc0a92612b0b9230928b92916000918990615958565b60405180910390a260608201516001600160a01b0381166323b872dd30612b318961279f565b6040516001600160e01b031960e085901b1681526001600160a01b03928316600482015291166024820152604481018590526064016020604051808303816000875af1158015612b85573d6000803e3d6000fd5b505050506040513d601f19601f82011682018060405250810190612ba99190615993565b505050612cd8565b60006101cc54848360400151612bc79190615760565b612bd19190615795565b825160405191925033917f981eda60172361092f12c75de05c753d28c928d6fb0b4b6492e685a44265fc0a91612c119130918a9187906000908190615958565b60405180910390a26000612c248661279f565b6001600160a01b03168260405160006040518083038185875af1925050503d8060008114612c6e576040519150601f19603f3d011682016040523d82523d6000602084013e612c73565b606091505b5050905080612cd55760405162461bcd60e51b815260206004820152602860248201527f5469636b657420686f6c64657220636f756c64206e6f742072656365697665206044820152676561726e696e677360c01b6064820152608401610fd4565b50505b5080612ce381615910565b9150506129e7565b505060016101915550565b612cfe6150ac565b5060009081526101d76020908152604091829020825160c0810184528154815260018201549281019290925260028101549282019290925260038201546001600160a01b031660608201526004820154608082015260059091015460a082015290565b60026101915403612d845760405162461bcd60e51b8152600401610fd4906156e9565b60026101915560c95460ff1615612dad5760405162461bcd60e51b8152600401610fd490615720565b6101d25460ff1615612dd15760405162461bcd60e51b8152600401610fd490615829565b6000612ddb613057565b90508015612ded57612ded308261407f565b50600161019155565b60006001600160a01b038216612e615760405162461bcd60e51b815260206004820152602a60248201527f4552433732313a2062616c616e636520717565727920666f7220746865207a65604482015269726f206164647265737360b01b6064820152608401610fd4565b506001600160a01b031660009081526068602052604090205490565b60008181526101d36020526040902054606090612e9a6101d85490565b67ffffffffffffffff811115612eb257612eb26151fd565b604051908082528060200260200182016040528015612f2e57816020015b612f1b6040518060e0016040528060008152602001600081526020016000151581526020016000815260200160006001600160a01b0316815260200160008152602001600081525090565b815260200190600190039081612ed05790505b50915060005b6101d854811015613050576101cc5460008281526101d76020526040812060020154909190612f64908590615760565b612f6e9190615795565b6101cc5460008481526101d7602052604081206004015492935091612f94908690615760565b612f9e9190615795565b6040805160e08101825288815260008681526101d7602081815284832080548286018190528d85526101db835286852090855282528584205460ff161515958501959095526060840188905260038501546001600160a01b0316608085015260a0840186905291889052905260059091015460c0820152865191925090819087908690811061302f5761302f615929565b6020026020010181905250505050808061304890615910565b915050612f34565b5050919050565b600080805b6101d8548110156130f25760008181526101d76020908152604091829020825160c0810184528154815260018201549281019290925260028101549282019290925260038201546001600160a01b0316606082018190526004830154608083015260059092015460a0820152906130df5760408101516130dc90846157c0565b92505b50806130ea81615910565b91505061305c565b5060006130ff82476157a9565b9392505050565b600080516020615e5383398151915261311f8133613d9d565b611fa0614294565b6002610191540361314a5760405162461bcd60e51b8152600401610fd4906156e9565b60026101915560c95460ff16156131735760405162461bcd60e51b8152600401610fd490615720565b61317d333461407f565b600161019155565b600091825260fb602090815260408084206001600160a01b0393909316845291905290205460ff1690565b606060668054610edc906156b5565b7fadfdddb55357a51b30395613329be9f598b4863fca87921f7c811f8eca6cbcbd6131ea8133613d9d565b811561321a576111097f5b66ba6c89bff8e7fd4e7050b9174d7e57d4f17942bf4186aa7566b5a93c8ffd8461375a565b6111097f5b66ba6c89bff8e7fd4e7050b9174d7e57d4f17942bf4186aa7566b5a93c8ffd84613e01565b600080516020615e5383398151915261325d8133613d9d565b600261019154036132805760405162461bcd60e51b8152600401610fd4906156e9565b60026101915560c95460ff16156132a95760405162461bcd60e51b8152600401610fd490615720565b6101d25460ff16151560011461330d5760405162461bcd60e51b8152602060048201526024808201527f46756e6472616973696e6720706572696f642068617320616c726561647920656044820152631b99195960e21b6064820152608401610fd4565b6101d2805460ff1916908190556101c9546101cf546101cc546040805130815260208101939093528201526101009092046001600160a01b03908116929116907fe06b6479cff265c168ef9764c695105085ad9b91f722c1ea9b57e7b10b82ea299060600160405180910390a350600161019155565b611ec03383836142ec565b600060128161339d84836143ba565b949350505050565b6101c58054610e4c906156b5565b6133bd3383613b03565b6133d95760405162461bcd60e51b8152600401610fd4906157d8565b6133e5848484846143fc565b50505050565b606060006133fa30601461442f565b905060006101c58261340b866145cb565b60405160200161341d939291906159cc565b60408051601f19818403018152919052949350505050565b6101c48054610e4c906156b5565b600082815260fb602052604090206001015461345f8133613d9d565b6111098383613e01565b60006101cc546101ce5461347d91906157a9565b905090565b606061348e6101d85490565b67ffffffffffffffff8111156134a6576134a66151fd565b6040519080825280602002602001820160405280156134df57816020015b6134cc6150ac565b8152602001906001900390816134c45790505b50905060005b6101d8548110156135815760008181526101d76020908152604091829020825160c0810184528154815260018201549281019290925260028101549282019290925260038201546001600160a01b031660608201526004820154608082015260059091015460a0820152825183908390811061356357613563615929565b6020026020010181905250808061357990615910565b9150506134e5565b5090565b600080805b6101d8548110156136285760008181526101d76020908152604091829020825160c0810184528154815260018201549281019290925260028101549282019290925260038201546001600160a01b03908116606083018190526004840154608084015260059093015460a08301529091908616900361361557608081015161361290846157c0565b92505b508061362081615910565b91505061358a565b5092915050565b6001600160a01b03163b151590565b60006001600160e01b03198216637965db0b60e01b1480610e385750610e38826146cc565b600081815260696020526040902080546001600160a01b0319166001600160a01b03841690811790915581906136988261279f565b6001600160a01b03167f8c5be1e5ebec7d5bd14f71427d1e84f3dd0314c0f7b2291e5b200ac8c7c3b92560405160405180910390a45050565b600054610100900460ff166136f85760405162461bcd60e51b8152600401610fd490615aa6565b611ec082826146f1565b600054610100900460ff166137295760405162461bcd60e51b8152600401610fd490615aa6565b565b600054610100900460ff166137525760405162461bcd60e51b8152600401610fd490615aa6565b61372961473f565b6137648282613185565b611ec057600082815260fb602090815260408083206001600160a01b03851684529091529020805460ff1916600117905561379c3390565b6001600160a01b0316816001600160a01b0316837f2f8788117e7eff1d82e926ec794901d17c78024a50270940304540a733656f0d60405160405180910390a45050565b6101d25460ff16156138045760405162461bcd60e51b8152600401610fd490615af1565b60006101cc54116138275760405162461bcd60e51b8152600401610fd490615b42565b34156138af5760405162461bcd60e51b815260206004820152604b60248201527f4465706f73697473206f662065726332302063616e6e6f7420616c736f20696e60448201527f636c756465206e617469766520746f6b656e7320696e207468652073616d652060648201526a3a3930b739b0b1ba34b7b760a91b608482015260a401610fd4565b600081116138cf5760405162461bcd60e51b8152600401610fd490615b9f565b6001600160a01b03821660009081526101d960205260409020546138f49082906157c0565b6001600160a01b0383811660008181526101d960209081526040808320959095556101d854855160c08101875281815243818401908152818801858152606080840188815260808086018d81524260a0808901918252898c526101d78b528e8c2089518155975160018901559551600288015592516003870180546001600160a01b031916918e1691909117905551600486015590516005909401939093558951308152958601859052858a019690965294840195909552938201879052945192938816927fce3ede2e266c8c5ec60064c2a65ba25bd2899a334c42b39b742129c49b1ef1c4929181900390910190a26139f36101d880546001019055565b60405163095ea7b360e01b81523060048201526024810184905284906001600160a01b0382169063095ea7b3906044016020604051808303816000875af1158015613a42573d6000803e3d6000fd5b505050506040513d601f19601f82011682018060405250810190613a669190615993565b506040516323b872dd60e01b81526001600160a01b038781166004830152306024830152604482018690528216906323b872dd906064016020604051808303816000875af1158015613abc573d6000803e3d6000fd5b505050506040513d601f19601f82011682018060405250810190613ae09190615993565b50505050505050565b611ec0828260405180602001604052806000815250614772565b6000818152606760205260408120546001600160a01b0316613b7c5760405162461bcd60e51b815260206004820152602c60248201527f4552433732313a206f70657261746f7220717565727920666f72206e6f6e657860448201526b34b9ba32b73a103a37b5b2b760a11b6064820152608401610fd4565b6000613b878361279f565b9050806001600160a01b0316846001600160a01b03161480613bc25750836001600160a01b0316613bb784610f5f565b6001600160a01b0316145b8061339d57506001600160a01b038082166000908152606a602090815260408083209388168352929052205460ff1661339d565b826001600160a01b0316613c098261279f565b6001600160a01b031614613c6d5760405162461bcd60e51b815260206004820152602560248201527f4552433732313a207472616e736665722066726f6d20696e636f72726563742060448201526437bbb732b960d91b6064820152608401610fd4565b6001600160a01b038216613ccf5760405162461bcd60e51b8152602060048201526024808201527f4552433732313a207472616e7366657220746f20746865207a65726f206164646044820152637265737360e01b6064820152608401610fd4565b613cda8383836147a5565b613ce5600082613663565b6001600160a01b0383166000908152606860205260408120805460019290613d0e9084906157a9565b90915550506001600160a01b0382166000908152606860205260408120805460019290613d3c9084906157c0565b909155505060008181526067602052604080822080546001600160a01b0319166001600160a01b0386811691821790925591518493918716917fddf252ad1be2c89b69c2b068fc378daa952ba7f163c4a11628f55a4df523b3ef91a4505050565b613da78282613185565b611ec057613dbf816001600160a01b031660146147d3565b613dca8360206147d3565b604051602001613ddb929190615be4565b60408051601f198184030181529082905262461bcd60e51b8252610fd49160040161518b565b613e0b8282613185565b15611ec057600082815260fb602090815260408083206001600160a01b0385168085529252808320805460ff1916905551339285917ff6391f5c32d9c69d2a47ea670b442974b53935d1edc7fd64eb21e047a839171b9190a45050565b600080516020615e53833981519152611ec08133613d9d565b7f4910fdfa16fed3260ed0e7147f7cc6da11a60208b5b9406d12a635614ffd91435460ff1615613eb45761110983614920565b826001600160a01b03166352d1902d6040518163ffffffff1660e01b8152600401602060405180830381865afa925050508015613f0e575060408051601f3d908101601f19168201909252613f0b9181019061593f565b60015b613f715760405162461bcd60e51b815260206004820152602e60248201527f45524331393637557067726164653a206e657720696d706c656d656e7461746960448201526d6f6e206973206e6f74205555505360901b6064820152608401610fd4565b600080516020615e738339815191528114613fe05760405162461bcd60e51b815260206004820152602960248201527f45524331393637557067726164653a20756e737570706f727465642070726f786044820152681a58589b195555525160ba1b6064820152608401610fd4565b506111098383836149bc565b60c95460ff166140355760405162461bcd60e51b815260206004820152601460248201527314185d5cd8589b194e881b9bdd081c185d5cd95960621b6044820152606401610fd4565b60c9805460ff191690557f5db9ee0a495bf2e6ff9c91a7834c1ba4fdd244a5e8aa4e537bd38aeae4b073aa335b6040516001600160a01b03909116815260200160405180910390a1565b6101d25460ff16156140a35760405162461bcd60e51b8152600401610fd490615af1565b60006101cc54116140c65760405162461bcd60e51b8152600401610fd490615b42565b600081116140e65760405162461bcd60e51b8152600401610fd490615b9f565b806101da546140f591906157c0565b6101da5560006141056101d85490565b6040805160c0810182528281524360208083019182528284018781526000606080860182815260808088018481524260a0808b019182528c87526101d789528b87208b518155995160018b0155965160028a015592516003890180546001600160a01b0319166001600160a01b0392831617905590516004890155915160059097019690965587513081529485018990529684018a90528301819052928201929092529394509092918616917fce3ede2e266c8c5ec60064c2a65ba25bd2899a334c42b39b742129c49b1ef1c4910160405180910390a26141eb6101d880546001019055565b604051600090309085908381818185875af1925050503d806000811461422d576040519150601f19603f3d011682016040523d82523d6000602084013e614232565b606091505b505090508061428d5760405162461bcd60e51b815260206004820152602160248201527f4c6f6f74626f7820636f756c64206e6f742072656365697665207061796d656e6044820152601d60fa1b6064820152608401610fd4565b5050505050565b60c95460ff16156142b75760405162461bcd60e51b8152600401610fd490615720565b60c9805460ff191660011790557f62e78cea01bee320cd4e420270b5ea74000d11b0c9f74754ebdbfc544b05a2586140623390565b816001600160a01b0316836001600160a01b03160361434d5760405162461bcd60e51b815260206004820152601960248201527f4552433732313a20617070726f766520746f2063616c6c6572000000000000006044820152606401610fd4565b6001600160a01b038381166000818152606a6020908152604080832094871680845294825291829020805460ff191686151590811790915591519182527f17307eab39ab6107e8899845ad3d59bd9653f200f220920489ca2b5937696c31910160405180910390a3505050565b60006101ca54826101cb546101c6546143d391906157c0565b6143dd91906157a9565b6143e890600a615d3d565b6143f29085615760565b6130ff9190615795565b614407848484613bf6565b614413848484846149e1565b6133e55760405162461bcd60e51b8152600401610fd490615d49565b6060600061443e836002615760565b6144499060026157c0565b67ffffffffffffffff811115614461576144616151fd565b6040519080825280601f01601f19166020018201604052801561448b576020820181803683370190505b509050600360fc1b816000815181106144a6576144a6615929565b60200101906001600160f81b031916908160001a905350600f60fb1b816001815181106144d5576144d5615929565b60200101906001600160f81b031916908160001a90535060006144f9846002615760565b6145049060016157c0565b90505b600181111561457c576f181899199a1a9b1b9c1cb0b131b232b360811b85600f166010811061453857614538615929565b1a60f81b82828151811061454e5761454e615929565b60200101906001600160f81b031916908160001a90535060049490941c9361457581615d9b565b9050614507565b5083156130ff5760405162461bcd60e51b815260206004820181905260248201527f537472696e67733a20686578206c656e67746820696e73756666696369656e746044820152606401610fd4565b6060816000036145f25750506040805180820190915260018152600360fc1b602082015290565b8160005b811561461c578061460681615910565b91506146159050600a83615795565b91506145f6565b60008167ffffffffffffffff811115614637576146376151fd565b6040519080825280601f01601f191660200182016040528015614661576020820181803683370190505b5090505b841561339d576146766001836157a9565b9150614683600a86615db2565b61468e9060306157c0565b60f81b8183815181106146a3576146a3615929565b60200101906001600160f81b031916908160001a9053506146c5600a86615795565b9450614665565b60006001600160e01b0319821663780e9d6360e01b1480610e385750610e3882614ae2565b600054610100900460ff166147185760405162461bcd60e51b8152600401610fd490615aa6565b815161472b90606590602085019061502c565b50805161110990606690602084019061502c565b600054610100900460ff166147665760405162461bcd60e51b8152600401610fd490615aa6565b60c9805460ff19169055565b61477c8383614b32565b61478960008484846149e1565b6111095760405162461bcd60e51b8152600401610fd490615d49565b60c95460ff16156147c85760405162461bcd60e51b8152600401610fd490615720565b611109838383614c80565b606060006147e2836002615760565b6147ed9060026157c0565b67ffffffffffffffff811115614805576148056151fd565b6040519080825280601f01601f19166020018201604052801561482f576020820181803683370190505b509050600360fc1b8160008151811061484a5761484a615929565b60200101906001600160f81b031916908160001a905350600f60fb1b8160018151811061487957614879615929565b60200101906001600160f81b031916908160001a905350600061489d846002615760565b6148a89060016157c0565b90505b600181111561457c576f181899199a1a9b1b9c1cb0b131b232b360811b85600f16601081106148dc576148dc615929565b1a60f81b8282815181106148f2576148f2615929565b60200101906001600160f81b031916908160001a90535060049490941c9361491981615d9b565b90506148ab565b6001600160a01b0381163b61498d5760405162461bcd60e51b815260206004820152602d60248201527f455243313936373a206e657720696d706c656d656e746174696f6e206973206e60448201526c1bdd08184818dbdb9d1c9858dd609a1b6064820152608401610fd4565b600080516020615e7383398151915280546001600160a01b0319166001600160a01b0392909216919091179055565b6149c583614d38565b6000825111806149d25750805b15611109576133e58383614d78565b60006001600160a01b0384163b15614ad757604051630a85bd0160e11b81526001600160a01b0385169063150b7a0290614a25903390899088908890600401615dc6565b6020604051808303816000875af1925050508015614a60575060408051601f3d908101601f19168201909252614a5d91810190615e03565b60015b614abd573d808015614a8e576040519150601f19603f3d011682016040523d82523d6000602084013e614a93565b606091505b508051600003614ab55760405162461bcd60e51b8152600401610fd490615d49565b805181602001fd5b6001600160e01b031916630a85bd0160e11b14905061339d565b506001949350505050565b60006001600160e01b031982166380ac58cd60e01b1480614b1357506001600160e01b03198216635b5e139f60e01b145b80610e3857506301ffc9a760e01b6001600160e01b0319831614610e38565b6001600160a01b038216614b885760405162461bcd60e51b815260206004820181905260248201527f4552433732313a206d696e7420746f20746865207a65726f20616464726573736044820152606401610fd4565b6000818152606760205260409020546001600160a01b031615614bed5760405162461bcd60e51b815260206004820152601c60248201527f4552433732313a20746f6b656e20616c7265616479206d696e746564000000006044820152606401610fd4565b614bf9600083836147a5565b6001600160a01b0382166000908152606860205260408120805460019290614c229084906157c0565b909155505060008181526067602052604080822080546001600160a01b0319166001600160a01b03861690811790915590518392907fddf252ad1be2c89b69c2b068fc378daa952ba7f163c4a11628f55a4df523b3ef908290a45050565b6001600160a01b038316614cdb57614cd681609980546000838152609a60205260408120829055600182018355919091527f72a152ddfb8e864297c917af52ea6c1c68aead0fee1a62673fcc7e0c94979d000155565b614cfe565b816001600160a01b0316836001600160a01b031614614cfe57614cfe8382614e63565b6001600160a01b038216614d155761110981614f00565b826001600160a01b0316826001600160a01b031614611109576111098282614faf565b614d4181614920565b6040516001600160a01b038216907fbc7cd75a20ee27fd9adebab32041f755214dbc6bffa90cc0225b39da2e5c2d3b90600090a250565b60606001600160a01b0383163b614de05760405162461bcd60e51b815260206004820152602660248201527f416464726573733a2064656c65676174652063616c6c20746f206e6f6e2d636f6044820152651b9d1c9858dd60d21b6064820152608401610fd4565b600080846001600160a01b031684604051614dfb9190615e20565b600060405180830381855af49150503d8060008114614e36576040519150601f19603f3d011682016040523d82523d6000602084013e614e3b565b606091505b50915091506127968282604051806060016040528060278152602001615e9360279139614ff3565b60006001614e7084612df6565b614e7a91906157a9565b600083815260986020526040902054909150808214614ecd576001600160a01b03841660009081526097602090815260408083208584528252808320548484528184208190558352609890915290208190555b5060009182526098602090815260408084208490556001600160a01b039094168352609781528383209183525290812055565b609954600090614f12906001906157a9565b6000838152609a602052604081205460998054939450909284908110614f3a57614f3a615929565b906000526020600020015490508060998381548110614f5b57614f5b615929565b6000918252602080832090910192909255828152609a90915260408082208490558582528120556099805480614f9357614f93615e3c565b6001900381819060005260206000200160009055905550505050565b6000614fba83612df6565b6001600160a01b039093166000908152609760209081526040808320868452825280832085905593825260989052919091209190915550565b606083156150025750816130ff565b8251156150125782518084602001fd5b8160405162461bcd60e51b8152600401610fd4919061518b565b828054615038906156b5565b90600052602060002090601f01602090048101928261505a57600085556150a0565b82601f1061507357805160ff19168380011785556150a0565b828001600101855582156150a0579182015b828111156150a0578251825591602001919060010190615085565b506135819291506150eb565b6040518060c0016040528060008152602001600081526020016000815260200160006001600160a01b0316815260200160008152602001600081525090565b5b8082111561358157600081556001016150ec565b6001600160e01b031981168114611fa057600080fd5b60006020828403121561512857600080fd5b81356130ff81615100565b60005b8381101561514e578181015183820152602001615136565b838111156133e55750506000910152565b60008151808452615177816020860160208601615133565b601f01601f19169290920160200192915050565b6020815260006130ff602083018461515f565b6000602082840312156151b057600080fd5b5035919050565b80356001600160a01b03811681146151ce57600080fd5b919050565b600080604083850312156151e657600080fd5b6151ef836151b7565b946020939093013593505050565b634e487b7160e01b600052604160045260246000fd5b600082601f83011261522457600080fd5b813567ffffffffffffffff8082111561523f5761523f6151fd565b604051601f8301601f19908116603f01168101908282118183101715615267576152676151fd565b8160405283815286602085880101111561528057600080fd5b836020870160208301376000602085830101528094505050505092915050565b6000806000806000806000806000806101408b8d0312156152c057600080fd5b8a3567ffffffffffffffff808211156152d857600080fd5b6152e48e838f01615213565b9b5060208d01359150808211156152fa57600080fd5b6153068e838f01615213565b9a5060408d013591508082111561531c57600080fd5b506153298d828e01615213565b98505060608b0135965060808b0135955061534660a08c016151b7565b945061535460c08c016151b7565b935060e08b0135925061536a6101008c016151b7565b91506153796101208c016151b7565b90509295989b9194979a5092959850565b60008060006060848603121561539f57600080fd5b6153a8846151b7565b92506153b6602085016151b7565b9150604084013590509250925092565b6000602082840312156153d857600080fd5b6130ff826151b7565b600080604083850312156153f457600080fd5b82359150615404602084016151b7565b90509250929050565b6000806040838503121561542057600080fd5b615429836151b7565b9150602083013567ffffffffffffffff81111561544557600080fd5b61545185828601615213565b9150509250929050565b6020808252825182820181905260009190848201906040850190845b8181101561549357835183529284019291840191600101615477565b50909695505050505050565b8051825260208082015190830152604080820151908301526060808201516001600160a01b0316908301526080808201519083015260a090810151910152565b60c08101610e38828461549f565b602080825282518282018190526000919060409081850190868401855b8281101561556d57815180518552868101518786015285810151151586860152606080820151908601526080808201516001600160a01b03169086015260a0808201519086015260c0908101519085015260e0909301929085019060010161550a565b5091979650505050505050565b6000806040838503121561558d57600080fd5b50508035926020909101359150565b8015158114611fa057600080fd5b600080604083850312156155bd57600080fd5b6155c6836151b7565b915060208301356155d68161559c565b809150509250929050565b600080600080608085870312156155f757600080fd5b615600856151b7565b935061560e602086016151b7565b925060408501359150606085013567ffffffffffffffff81111561563157600080fd5b61563d87828801615213565b91505092959194509250565b6020808252825182820181905260009190848201906040850190845b818110156154935761567883855161549f565b9284019260c09290920191600101615665565b6000806040838503121561569e57600080fd5b6156a7836151b7565b9150615404602084016151b7565b600181811c908216806156c957607f821691505b6020821081036125c057634e487b7160e01b600052602260045260246000fd5b6020808252601f908201527f5265656e7472616e637947756172643a207265656e7472616e742063616c6c00604082015260600190565b60208082526010908201526f14185d5cd8589b194e881c185d5cd95960821b604082015260600190565b634e487b7160e01b600052601160045260246000fd5b600081600019048311821515161561577a5761577a61574a565b500290565b634e487b7160e01b600052601260045260246000fd5b6000826157a4576157a461577f565b500490565b6000828210156157bb576157bb61574a565b500390565b600082198211156157d3576157d361574a565b500190565b60208082526031908201527f4552433732313a207472616e736665722063616c6c6572206973206e6f74206f6040820152701ddb995c881b9bdc88185c1c1c9bdd9959607a1b606082015260800190565b6020808252602f908201527f5265736375652063616e6e6f74206265206d61646520647572696e672066756e60408201526e191c985a5cda5b99c81c195c9a5bd9608a1b606082015260800190565b6020808252602c908201527f46756e6374696f6e206d7573742062652063616c6c6564207468726f7567682060408201526b19195b1959d85d1958d85b1b60a21b606082015260800190565b6020808252602c908201527f46756e6374696f6e206d7573742062652063616c6c6564207468726f7567682060408201526b6163746976652070726f787960a01b606082015260800190565b6000600182016159225761592261574a565b5060010190565b634e487b7160e01b600052603260045260246000fd5b60006020828403121561595157600080fd5b5051919050565b6001600160a01b039687168152602081019590955260408501939093526060840191909152909216608082015260a081019190915260c00190565b6000602082840312156159a557600080fd5b81516130ff8161559c565b600081516159c2818560208601615133565b9290920192915050565b600080855481600182811c9150808316806159e857607f831692505b60208084108203615a0757634e487b7160e01b86526022600452602486fd5b818015615a1b5760018114615a2c57615a59565b60ff19861689528489019650615a59565b60008c81526020902060005b86811015615a515781548b820152908501908301615a38565b505084890196505b5050602f60f81b855250615a6f818501896159b0565b602f60f81b81529350615a84818501886159b0565b9350505050615a9a8164173539b7b760d91b9052565b60050195945050505050565b6020808252602b908201527f496e697469616c697a61626c653a20636f6e7472616374206973206e6f74206960408201526a6e697469616c697a696e6760a81b606082015260800190565b60208082526031908201527f4465706f736974732063616e6e6f74206265206d61646520647572696e6720666040820152701d5b991c985a5cda5b99c81c195c9a5bd9607a1b606082015260800190565b60208082526037908201527f4e6f207368617265732068617665206265656e20736f6c642e204465706f736960408201527f74732077696c6c206e6f74206265206163636570746564000000000000000000606082015260800190565b60208082526025908201527f4465706f73697420616d6f756e74206d75737420626520677265617465722074604082015264068616e20360dc1b606082015260800190565b7f416363657373436f6e74726f6c3a206163636f756e7420000000000000000000815260008351615c1c816017850160208801615133565b7001034b99036b4b9b9b4b733903937b6329607d1b6017918401918201528351615c4d816028840160208801615133565b01602801949350505050565b600181815b80851115615c94578160001904821115615c7a57615c7a61574a565b80851615615c8757918102915b93841c9390800290615c5e565b509250929050565b600082615cab57506001610e38565b81615cb857506000610e38565b8160018114615cce5760028114615cd857615cf4565b6001915050610e38565b60ff841115615ce957615ce961574a565b50506001821b610e38565b5060208310610133831016604e8410600b8410161715615d17575081810a610e38565b615d218383615c59565b8060001904821115615d3557615d3561574a565b029392505050565b60006130ff8383615c9c565b60208082526032908201527f4552433732313a207472616e7366657220746f206e6f6e20455243373231526560408201527131b2b4bb32b91034b6b83632b6b2b73a32b960711b606082015260800190565b600081615daa57615daa61574a565b506000190190565b600082615dc157615dc161577f565b500690565b6001600160a01b0385811682528416602082015260408101839052608060608201819052600090615df99083018461515f565b9695505050505050565b600060208284031215615e1557600080fd5b81516130ff81615100565b60008251615e32818460208701615133565b9190910192915050565b634e487b7160e01b600052603160045260246000fdfe3b5d4cc60d3ec3516ee8ae083bd60934f6eb2a6c54b1229985c41bfb092b2603360894a13ba1a3210667c828492db98dca3e2076cc3735a920a3ca505d382bbc416464726573733a206c6f772d6c6576656c2064656c65676174652063616c6c206661696c6564a264697066735822122086c4b08c7172011c1fed353368d70767a18c5128140e5426c7335d91da0ef86d64736f6c634300080d0033",
  "linkReferences": {},
  "deployedLinkReferences": {}
}