{
  "_format": "hh-sol-artifact-1",
  "contractName": "LootboxEscrowFactory",
  "sourceName": "contracts/LootboxEscrowFactory.sol",
  "abi": [
    {
      "inputs": [
        {
          "internalType": "address",
          "name": "_lootboxDao",
          "type": "address"
        },
        {
          "internalType": "uint256",
          "name": "_ticketPurchaseFee",
          "type": "uint256"
        },
        {
          "internalType": "address",
          "name": "_brokerAddress",
          "type": "address"
        },
        {
          "internalType": "string",
          "name": "_baseTokenURI",
          "type": "string"
        }
      ],
      "stateMutability": "nonpayable",
      "type": "constructor"
    },
    {
      "anonymous": false,
      "inputs": [
        {
          "indexed": false,
          "internalType": "string",
          "name": "lootboxName",
          "type": "string"
        },
        {
          "indexed": true,
          "internalType": "address",
          "name": "lootbox",
          "type": "address"
        },
        {
          "indexed": true,
          "internalType": "address",
          "name": "issuer",
          "type": "address"
        },
        {
          "indexed": true,
          "internalType": "address",
          "name": "treasury",
          "type": "address"
        },
        {
          "indexed": false,
          "internalType": "uint256",
          "name": "targetSharesSold",
          "type": "uint256"
        },
        {
          "indexed": false,
          "internalType": "uint256",
          "name": "maxSharesSold",
          "type": "uint256"
        },
        {
          "indexed": false,
          "internalType": "string",
          "name": "_data",
          "type": "string"
        }
      ],
      "name": "LootboxCreated",
      "type": "event"
    },
    {
      "anonymous": false,
      "inputs": [
        {
          "indexed": false,
          "internalType": "address",
          "name": "account",
          "type": "address"
        }
      ],
      "name": "Paused",
      "type": "event"
    },
    {
      "anonymous": false,
      "inputs": [
        {
          "indexed": true,
          "internalType": "bytes32",
          "name": "role",
          "type": "bytes32"
        },
        {
          "indexed": true,
          "internalType": "bytes32",
          "name": "previousAdminRole",
          "type": "bytes32"
        },
        {
          "indexed": true,
          "internalType": "bytes32",
          "name": "newAdminRole",
          "type": "bytes32"
        }
      ],
      "name": "RoleAdminChanged",
      "type": "event"
    },
    {
      "anonymous": false,
      "inputs": [
        {
          "indexed": true,
          "internalType": "bytes32",
          "name": "role",
          "type": "bytes32"
        },
        {
          "indexed": true,
          "internalType": "address",
          "name": "account",
          "type": "address"
        },
        {
          "indexed": true,
          "internalType": "address",
          "name": "sender",
          "type": "address"
        }
      ],
      "name": "RoleGranted",
      "type": "event"
    },
    {
      "anonymous": false,
      "inputs": [
        {
          "indexed": true,
          "internalType": "bytes32",
          "name": "role",
          "type": "bytes32"
        },
        {
          "indexed": true,
          "internalType": "address",
          "name": "account",
          "type": "address"
        },
        {
          "indexed": true,
          "internalType": "address",
          "name": "sender",
          "type": "address"
        }
      ],
      "name": "RoleRevoked",
      "type": "event"
    },
    {
      "anonymous": false,
      "inputs": [
        {
          "indexed": false,
          "internalType": "address",
          "name": "account",
          "type": "address"
        }
      ],
      "name": "Unpaused",
      "type": "event"
    },
    {
      "inputs": [],
      "name": "DAO_ROLE",
      "outputs": [
        {
          "internalType": "bytes32",
          "name": "",
          "type": "bytes32"
        }
      ],
      "stateMutability": "view",
      "type": "function"
    },
    {
      "inputs": [],
      "name": "DEFAULT_ADMIN_ROLE",
      "outputs": [
        {
          "internalType": "bytes32",
          "name": "",
          "type": "bytes32"
        }
      ],
      "stateMutability": "view",
      "type": "function"
    },
    {
      "inputs": [],
      "name": "baseTokenURI",
      "outputs": [
        {
          "internalType": "string",
          "name": "",
          "type": "string"
        }
      ],
      "stateMutability": "view",
      "type": "function"
    },
    {
      "inputs": [],
      "name": "brokerAddress",
      "outputs": [
        {
          "internalType": "address",
          "name": "",
          "type": "address"
        }
      ],
      "stateMutability": "view",
      "type": "function"
    },
    {
      "inputs": [
        {
          "internalType": "string",
          "name": "_lootboxName",
          "type": "string"
        },
        {
          "internalType": "string",
          "name": "_lootboxSymbol",
          "type": "string"
        },
        {
          "internalType": "uint256",
          "name": "_targetSharesSold",
          "type": "uint256"
        },
        {
          "internalType": "uint256",
          "name": "_maxSharesSold",
          "type": "uint256"
        },
        {
          "internalType": "address",
          "name": "_treasury",
          "type": "address"
        },
        {
          "internalType": "string",
          "name": "_data",
          "type": "string"
        }
      ],
      "name": "createLootbox",
      "outputs": [
        {
          "internalType": "address",
          "name": "_lootbox",
          "type": "address"
        }
      ],
      "stateMutability": "nonpayable",
      "type": "function"
    },
    {
      "inputs": [
        {
          "internalType": "bytes32",
          "name": "role",
          "type": "bytes32"
        }
      ],
      "name": "getRoleAdmin",
      "outputs": [
        {
          "internalType": "bytes32",
          "name": "",
          "type": "bytes32"
        }
      ],
      "stateMutability": "view",
      "type": "function"
    },
    {
      "inputs": [
        {
          "internalType": "bytes32",
          "name": "role",
          "type": "bytes32"
        },
        {
          "internalType": "address",
          "name": "account",
          "type": "address"
        }
      ],
      "name": "grantRole",
      "outputs": [],
      "stateMutability": "nonpayable",
      "type": "function"
    },
    {
      "inputs": [
        {
          "internalType": "bytes32",
          "name": "role",
          "type": "bytes32"
        },
        {
          "internalType": "address",
          "name": "account",
          "type": "address"
        }
      ],
      "name": "hasRole",
      "outputs": [
        {
          "internalType": "bool",
          "name": "",
          "type": "bool"
        }
      ],
      "stateMutability": "view",
      "type": "function"
    },
    {
      "inputs": [],
      "name": "lootboxImplementation",
      "outputs": [
        {
          "internalType": "address",
          "name": "",
          "type": "address"
        }
      ],
      "stateMutability": "view",
      "type": "function"
    },
    {
      "inputs": [],
      "name": "pause",
      "outputs": [],
      "stateMutability": "nonpayable",
      "type": "function"
    },
    {
      "inputs": [],
      "name": "paused",
      "outputs": [
        {
          "internalType": "bool",
          "name": "",
          "type": "bool"
        }
      ],
      "stateMutability": "view",
      "type": "function"
    },
    {
      "inputs": [
        {
          "internalType": "bytes32",
          "name": "role",
          "type": "bytes32"
        },
        {
          "internalType": "address",
          "name": "account",
          "type": "address"
        }
      ],
      "name": "renounceRole",
      "outputs": [],
      "stateMutability": "nonpayable",
      "type": "function"
    },
    {
      "inputs": [
        {
          "internalType": "bytes32",
          "name": "role",
          "type": "bytes32"
        },
        {
          "internalType": "address",
          "name": "account",
          "type": "address"
        }
      ],
      "name": "revokeRole",
      "outputs": [],
      "stateMutability": "nonpayable",
      "type": "function"
    },
    {
      "inputs": [
        {
          "internalType": "bytes4",
          "name": "interfaceId",
          "type": "bytes4"
        }
      ],
      "name": "supportsInterface",
      "outputs": [
        {
          "internalType": "bool",
          "name": "",
          "type": "bool"
        }
      ],
      "stateMutability": "view",
      "type": "function"
    },
    {
      "inputs": [],
      "name": "ticketPurchaseFee",
      "outputs": [
        {
          "internalType": "uint256",
          "name": "",
          "type": "uint256"
        }
      ],
      "stateMutability": "view",
      "type": "function"
    },
    {
      "inputs": [],
      "name": "unpause",
      "outputs": [],
      "stateMutability": "nonpayable",
      "type": "function"
    },
    {
      "inputs": [],
      "name": "viewLootboxes",
      "outputs": [
        {
          "internalType": "bytes32[]",
          "name": "",
          "type": "bytes32[]"
        }
      ],
      "stateMutability": "view",
      "type": "function"
    }
  ],
  "bytecode": "0x60e06040523480156200001157600080fd5b5060405162007f6d38038062007f6d8339810160408190526200003491620003d1565b6000805460ff191690556001600160a01b038416620000a55760405162461bcd60e51b815260206004820152602260248201527f44414f204c6f6f74626f7820616464726573732063616e6e6f74206265207a65604482015261726f60f01b60648201526084015b60405180910390fd5b6001600160a01b038216620000fd5760405162461bcd60e51b815260206004820152601d60248201527f42726f6b657220616464726573732063616e6e6f74206265207a65726f00000060448201526064016200009c565b6305f5e1008310620001785760405162461bcd60e51b815260206004820152603660248201527f5075726368617365207469636b657420666565206d757374206265206c65737360448201527f207468616e20313030303030303030202831303025290000000000000000000060648201526084016200009c565b8051600003620001cb5760405162461bcd60e51b815260206004820152601e60248201527f4261736520746f6b656e205552492063616e6e6f7420626520656d707479000060448201526064016200009c565b604051620001d990620002ea565b604051809103906000f080158015620001f6573d6000803e3d6000fd5b506001600160a01b03166080526200022f7f3b5d4cc60d3ec3516ee8ae083bd60934f6eb2a6c54b1229985c41bfb092b26038562000261565b60a08390526001600160a01b03821660c052805162000256906002906020840190620002f8565b505050505062000519565b60008281526001602090815260408083206001600160a01b038516845290915290205460ff16620002e65760008281526001602081815260408084206001600160a01b0386168086529252808420805460ff19169093179092559051339285917f2f8788117e7eff1d82e926ec794901d17c78024a50270940304540a733656f0d9190a45b5050565b615e41806200212c83390190565b8280546200030690620004dd565b90600052602060002090601f0160209004810192826200032a576000855562000375565b82601f106200034557805160ff191683800117855562000375565b8280016001018555821562000375579182015b828111156200037557825182559160200191906001019062000358565b506200038392915062000387565b5090565b5b8082111562000383576000815560010162000388565b80516001600160a01b0381168114620003b657600080fd5b919050565b634e487b7160e01b600052604160045260246000fd5b60008060008060808587031215620003e857600080fd5b620003f3856200039e565b935060208086015193506200040b604087016200039e565b60608701519093506001600160401b03808211156200042957600080fd5b818801915088601f8301126200043e57600080fd5b815181811115620004535762000453620003bb565b604051601f8201601f19908116603f011681019083821181831017156200047e576200047e620003bb565b816040528281528b868487010111156200049757600080fd5b600093505b82841015620004bb57848401860151818501870152928501926200049c565b82841115620004cd5760008684830101525b989b979a50959850505050505050565b600181811c90821680620004f257607f821691505b6020821081036200051357634e487b7160e01b600052602260045260246000fd5b50919050565b60805160a05160c051611bce6200055e60003960008181610239015261069c015260008181610297015261067b015260008181610171015261064a0152611bce6000f3fe60806040523480156200001157600080fd5b5060043610620001215760003560e01c80635089f79611620000af578063a217fddf116200007a578063a217fddf1462000288578063a7c721c51462000291578063d547741f14620002b9578063d547cfb714620002d0578063e9c2651814620002e957600080fd5b80635089f79614620002335780635c975abb146200025b5780638456cb59146200026757806391d14854146200027157600080fd5b8063248a9ca311620000f0578063248a9ca314620001c35780632f2ff15d14620001f957806336568abe14620002125780633f4ba83a146200022957600080fd5b806301ffc9a7146200012657806317088631146200015257806319dd5657146200016b5780631aed9ea314620001ac575b600080fd5b6200013d6200013736600462000e58565b62000311565b60405190151581526020015b60405180910390f35b6200015c62000349565b60405162000149919062000e84565b620001937f000000000000000000000000000000000000000000000000000000000000000081565b6040516001600160a01b03909116815260200162000149565b62000193620001bd36600462000f92565b620003a2565b620001ea620001d436600462001049565b6000908152600160208190526040909120015490565b60405190815260200162000149565b620002106200020a36600462001063565b620007b7565b005b620002106200022336600462001063565b620007e7565b6200021062000869565b620001937f000000000000000000000000000000000000000000000000000000000000000081565b60005460ff166200013d565b62000210620008a3565b6200013d6200028236600462001063565b620008da565b620001ea600081565b620001ea7f000000000000000000000000000000000000000000000000000000000000000081565b62000210620002ca36600462001063565b62000905565b620002da62000930565b604051620001499190620010f3565b620001ea7f3b5d4cc60d3ec3516ee8ae083bd60934f6eb2a6c54b1229985c41bfb092b260381565b60006001600160e01b03198216637965db0b60e01b14806200034357506301ffc9a760e01b6001600160e01b03198316145b92915050565b6003805460408051602080840282018101909252828152606093909290918301828280156200039857602002820191906000526020600020905b81548152602001906001019080831162000383575b5050505050905090565b6000805460ff1615620003ef5760405162461bcd60e51b815260206004820152601060248201526f14185d5cd8589b194e881c185d5cd95960821b60448201526064015b60405180910390fd5b8651600003620004425760405162461bcd60e51b815260206004820152601c60248201527f4c6f6f74626f78206e616d652063616e6e6f7420626520656d707479000000006044820152606401620003e6565b8551600003620004955760405162461bcd60e51b815260206004820152601e60248201527f4c6f6f74626f782073796d626f6c2063616e6e6f7420626520656d70747900006044820152606401620003e6565b60008511620004fc5760405162461bcd60e51b815260206004820152602c60248201527f5461726765742073686172657320736f6c64206d75737420626520677265617460448201526b6572207468616e207a65726f60a01b6064820152608401620003e6565b60008411620005605760405162461bcd60e51b815260206004820152602960248201527f4d61782073686172657320736f6c64206d7573742062652067726561746572206044820152687468616e207a65726f60b81b6064820152608401620003e6565b84841015620005e45760405162461bcd60e51b815260206004820152604360248201527f4d61782073686172657320736f6c64206d75737420626520677265617465722060448201527f7468616e206f7220657175616c20746f207461726765742073686172657320736064820152621bdb1960ea1b608482015260a401620003e6565b6001600160a01b038316620006465760405162461bcd60e51b815260206004820152602160248201527f54726561737572792061646472657373206d7573742062652070726f766964656044820152601960fa1b6064820152608401620003e6565b60007f0000000000000000000000000000000000000000000000000000000000000000633c449e0060e01b898960028a8a8a337f00000000000000000000000000000000000000000000000000000000000000007f0000000000000000000000000000000000000000000000000000000000000000604051602401620006d59998979695949392919062001144565b60408051601f198184030181529181526020820180516001600160e01b03166001600160e01b0319909416939093179092529051620007149062000e4a565b620007219291906200127d565b604051809103906000f0801580156200073e573d6000803e3d6000fd5b5090506200074e600382620009c6565b50836001600160a01b0316336001600160a01b0316826001600160a01b03167ff39d14fa0aa07a94a72c62bae5fb327d547a62865bdd8fcfa9c5223107c35a7c8b8a8a89604051620007a49493929190620012ab565b60405180910390a4979650505050505050565b60008281526001602081905260409091200154620007d68133620009e4565b620007e2838362000a53565b505050565b6001600160a01b0381163314620008595760405162461bcd60e51b815260206004820152602f60248201527f416363657373436f6e74726f6c3a2063616e206f6e6c792072656e6f756e636560448201526e103937b632b9903337b91039b2b63360891b6064820152608401620003e6565b62000865828262000ac1565b5050565b7f3b5d4cc60d3ec3516ee8ae083bd60934f6eb2a6c54b1229985c41bfb092b2603620008968133620009e4565b620008a062000b2b565b50565b7f3b5d4cc60d3ec3516ee8ae083bd60934f6eb2a6c54b1229985c41bfb092b2603620008d08133620009e4565b620008a062000bc0565b60009182526001602090815260408084206001600160a01b0393909316845291905290205460ff1690565b60008281526001602081905260409091200154620009248133620009e4565b620007e2838362000ac1565b600280546200093f9062001108565b80601f01602080910402602001604051908101604052809291908181526020018280546200096d9062001108565b8015620009be5780601f106200099257610100808354040283529160200191620009be565b820191906000526020600020905b815481529060010190602001808311620009a057829003601f168201915b505050505081565b6000620009dd836001600160a01b03841662000c3e565b9392505050565b620009f08282620008da565b620008655762000a0b816001600160a01b0316601462000c90565b62000a1883602062000c90565b60405160200162000a2b929190620012eb565b60408051601f198184030181529082905262461bcd60e51b8252620003e691600401620010f3565b62000a5f8282620008da565b620008655760008281526001602081815260408084206001600160a01b0386168086529252808420805460ff19169093179092559051339285917f2f8788117e7eff1d82e926ec794901d17c78024a50270940304540a733656f0d9190a45050565b62000acd8282620008da565b15620008655760008281526001602090815260408083206001600160a01b0385168085529252808320805460ff1916905551339285917ff6391f5c32d9c69d2a47ea670b442974b53935d1edc7fd64eb21e047a839171b9190a45050565b60005460ff1662000b765760405162461bcd60e51b815260206004820152601460248201527314185d5cd8589b194e881b9bdd081c185d5cd95960621b6044820152606401620003e6565b6000805460ff191690557f5db9ee0a495bf2e6ff9c91a7834c1ba4fdd244a5e8aa4e537bd38aeae4b073aa335b6040516001600160a01b03909116815260200160405180910390a1565b60005460ff161562000c085760405162461bcd60e51b815260206004820152601060248201526f14185d5cd8589b194e881c185d5cd95960821b6044820152606401620003e6565b6000805460ff191660011790557f62e78cea01bee320cd4e420270b5ea74000d11b0c9f74754ebdbfc544b05a25862000ba33390565b600081815260018301602052604081205462000c875750815460018181018455600084815260208082209093018490558454848252828601909352604090209190915562000343565b50600062000343565b6060600062000ca18360026200137a565b62000cae9060026200139c565b67ffffffffffffffff81111562000cc95762000cc962000eca565b6040519080825280601f01601f19166020018201604052801562000cf4576020820181803683370190505b509050600360fc1b8160008151811062000d125762000d12620013b7565b60200101906001600160f81b031916908160001a905350600f60fb1b8160018151811062000d445762000d44620013b7565b60200101906001600160f81b031916908160001a905350600062000d6a8460026200137a565b62000d779060016200139c565b90505b600181111562000df9576f181899199a1a9b1b9c1cb0b131b232b360811b85600f166010811062000daf5762000daf620013b7565b1a60f81b82828151811062000dc85762000dc8620013b7565b60200101906001600160f81b031916908160001a90535060049490941c9362000df181620013cd565b905062000d7a565b508315620009dd5760405162461bcd60e51b815260206004820181905260248201527f537472696e67733a20686578206c656e67746820696e73756666696369656e746044820152606401620003e6565b6107b180620013e883390190565b60006020828403121562000e6b57600080fd5b81356001600160e01b031981168114620009dd57600080fd5b6020808252825182820181905260009190848201906040850190845b8181101562000ebe5783518352928401929184019160010162000ea0565b50909695505050505050565b634e487b7160e01b600052604160045260246000fd5b600082601f83011262000ef257600080fd5b813567ffffffffffffffff8082111562000f105762000f1062000eca565b604051601f8301601f19908116603f0116810190828211818310171562000f3b5762000f3b62000eca565b8160405283815286602085880101111562000f5557600080fd5b836020870160208301376000602085830101528094505050505092915050565b80356001600160a01b038116811462000f8d57600080fd5b919050565b60008060008060008060c0878903121562000fac57600080fd5b863567ffffffffffffffff8082111562000fc557600080fd5b62000fd38a838b0162000ee0565b9750602089013591508082111562000fea57600080fd5b62000ff88a838b0162000ee0565b965060408901359550606089013594506200101660808a0162000f75565b935060a08901359150808211156200102d57600080fd5b506200103c89828a0162000ee0565b9150509295509295509295565b6000602082840312156200105c57600080fd5b5035919050565b600080604083850312156200107757600080fd5b82359150620010896020840162000f75565b90509250929050565b60005b83811015620010af57818101518382015260200162001095565b83811115620010bf576000848401525b50505050565b60008151808452620010df81602086016020860162001092565b601f01601f19169290920160200192915050565b602081526000620009dd6020830184620010c5565b600181811c908216806200111d57607f821691505b6020821081036200113e57634e487b7160e01b600052602260045260246000fd5b50919050565b60006101208083526200115a8184018d620010c5565b9050828103602084015262001170818c620010c5565b9050828103604084015260008a54818160011c905060018216806200119657607f821691505b602082108103620011b557634e487b7160e01b84526022600452602484fd5b818552602085019450808015620011d55760018114620011e85762001218565b60ff198416865260208601945062001218565b60008f81526020902060005b848110156200121257815488820152600190910190602001620011f4565b87019550505b5050505080925050508760608301528660808301526200124360a08301876001600160a01b03169052565b6001600160a01b03851660c08301528360e08301526200126f6101008301846001600160a01b03169052565b9a9950505050505050505050565b6001600160a01b0383168152604060208201819052600090620012a390830184620010c5565b949350505050565b608081526000620012c06080830187620010c5565b8560208401528460408401528281036060840152620012e08185620010c5565b979650505050505050565b7f416363657373436f6e74726f6c3a206163636f756e74200000000000000000008152600083516200132581601785016020880162001092565b7001034b99036b4b9b9b4b733903937b6329607d1b60179184019182015283516200135881602884016020880162001092565b01602801949350505050565b634e487b7160e01b600052601160045260246000fd5b600081600019048311821515161562001397576200139762001364565b500290565b60008219821115620013b257620013b262001364565b500190565b634e487b7160e01b600052603260045260246000fd5b600081620013df57620013df62001364565b50600019019056fe60806040526040516107b13803806107b183398101604081905261002291610349565b61004d60017f360894a13ba1a3210667c828492db98dca3e2076cc3735a920a3ca505d382bbd610417565b60008051602061076a833981519152146100695761006961043c565b6100758282600061007c565b50506104a1565b610085836100b2565b6000825111806100925750805b156100ad576100ab83836100f260201b6100291760201c565b505b505050565b6100bb8161011e565b6040516001600160a01b038216907fbc7cd75a20ee27fd9adebab32041f755214dbc6bffa90cc0225b39da2e5c2d3b90600090a250565b6060610117838360405180606001604052806027815260200161078a602791396101de565b9392505050565b610131816102bc60201b6100551760201c565b6101985760405162461bcd60e51b815260206004820152602d60248201527f455243313936373a206e657720696d706c656d656e746174696f6e206973206e60448201526c1bdd08184818dbdb9d1c9858dd609a1b60648201526084015b60405180910390fd5b806101bd60008051602061076a83398151915260001b6102cb60201b6100641760201c565b80546001600160a01b0319166001600160a01b039290921691909117905550565b60606001600160a01b0384163b6102465760405162461bcd60e51b815260206004820152602660248201527f416464726573733a2064656c65676174652063616c6c20746f206e6f6e2d636f6044820152651b9d1c9858dd60d21b606482015260840161018f565b600080856001600160a01b0316856040516102619190610452565b600060405180830381855af49150503d806000811461029c576040519150601f19603f3d011682016040523d82523d6000602084013e6102a1565b606091505b5090925090506102b28282866102ce565b9695505050505050565b6001600160a01b03163b151590565b90565b606083156102dd575081610117565b8251156102ed5782518084602001fd5b8160405162461bcd60e51b815260040161018f919061046e565b634e487b7160e01b600052604160045260246000fd5b60005b83811015610338578181015183820152602001610320565b838111156100ab5750506000910152565b6000806040838503121561035c57600080fd5b82516001600160a01b038116811461037357600080fd5b60208401519092506001600160401b038082111561039057600080fd5b818501915085601f8301126103a457600080fd5b8151818111156103b6576103b6610307565b604051601f8201601f19908116603f011681019083821181831017156103de576103de610307565b816040528281528860208487010111156103f757600080fd5b61040883602083016020880161031d565b80955050505050509250929050565b60008282101561043757634e487b7160e01b600052601160045260246000fd5b500390565b634e487b7160e01b600052600160045260246000fd5b6000825161046481846020870161031d565b9190910192915050565b602081526000825180602084015261048d81604085016020870161031d565b601f01601f19169190910160400192915050565b6102ba806104b06000396000f3fe60806040523661001357610011610017565b005b6100115b610027610022610067565b61009f565b565b606061004e838360405180606001604052806027815260200161025e602791396100c3565b9392505050565b6001600160a01b03163b151590565b90565b600061009a7f360894a13ba1a3210667c828492db98dca3e2076cc3735a920a3ca505d382bbc546001600160a01b031690565b905090565b3660008037600080366000845af43d6000803e8080156100be573d6000f35b3d6000fd5b60606001600160a01b0384163b6101305760405162461bcd60e51b815260206004820152602660248201527f416464726573733a2064656c65676174652063616c6c20746f206e6f6e2d636f6044820152651b9d1c9858dd60d21b60648201526084015b60405180910390fd5b600080856001600160a01b03168560405161014b919061020e565b600060405180830381855af49150503d8060008114610186576040519150601f19603f3d011682016040523d82523d6000602084013e61018b565b606091505b509150915061019b8282866101a5565b9695505050505050565b606083156101b457508161004e565b8251156101c45782518084602001fd5b8160405162461bcd60e51b8152600401610127919061022a565b60005b838110156101f95781810151838201526020016101e1565b83811115610208576000848401525b50505050565b600082516102208184602087016101de565b9190910192915050565b60208152600082518060208401526102498160408501602087016101de565b601f01601f1916919091016040019291505056fe416464726573733a206c6f772d6c6576656c2064656c65676174652063616c6c206661696c6564a26469706673582212206a9a8c80cf4acba4b799b5c7fb65ea2dad7950cdf128b00c6f7abfa4a4e576e164736f6c634300080d0033360894a13ba1a3210667c828492db98dca3e2076cc3735a920a3ca505d382bbc416464726573733a206c6f772d6c6576656c2064656c65676174652063616c6c206661696c6564a2646970667358221220f95b44ae7d70173f1335398f5ea03e19861d4043d47b69aebcdeb575813f953d64736f6c634300080d003360a0604052306080523480156200001557600080fd5b50600054610100900460ff16620000335760005460ff16156200003d565b6200003d620000e2565b620000a55760405162461bcd60e51b815260206004820152602e60248201527f496e697469616c697a61626c653a20636f6e747261637420697320616c72656160448201526d191e481a5b9a5d1a585b1a5e995960921b606482015260840160405180910390fd5b600054610100900460ff16158015620000c8576000805461ffff19166101011790555b8015620000db576000805461ff00191690555b506200010f565b6000620000fa306200010060201b62003a1c1760201c565b15905090565b6001600160a01b03163b151590565b608051615cfa6200014760003960008181611a2001528181611a60015281816121340152818161217401526123370152615cfa6000f3fe6080604052600436106104405760003560e01c8063816c42f611610234578063abff01101161012e578063da3537a8116100b6578063e985e9c51161007a578063e985e9c514610cbc578063e9c2651814610d05578063fbf97c5914610d27578063fdf27dba14610d55578063ff7808e914610d6c57600080fd5b8063da3537a814610c39578063dd13745514610c4e578063dd7af03514610c70578063e6deb18d14610c87578063e88e3f9314610ca757600080fd5b8063c87b56dd116100fd578063c87b56dd14610bb8578063ca11016d14610bd8578063cc0f178614610bed578063cda493c814610c04578063d547741f14610c1957600080fd5b8063abff011014610ad1578063ae501c0414610af2578063b4ce37d214610b83578063b88d4fde14610b9857600080fd5b806393de6dc8116101bc578063a07ae16a11610180578063a07ae16a14610a50578063a217fddf14610a65578063a22cb46514610a7a578063a7485cf114610a9a578063a7c721c514610aba57600080fd5b806393de6dc8146109e157806395d89b41146109f85780639792641f14610a0d57806399087d3414610a245780639f79234014610a3957600080fd5b80638c824949116102035780638c8249491461094f5780638caa0986146109575780639088feba1461096e57806391d14854146109aa57806393a057cd146109ca57600080fd5b8063816c42f6146108f65780638240b7771461090d5780638456cb59146109225780638802255f1461093757600080fd5b80633f4ba83a116103455780635c975abb116102cd5780636e70096e116102915780636e70096e146108475780636f2ef95b146108675780636fcf1e651461089457806370a08231146108a957806378d85c4e146108c957600080fd5b80635c975abb1461079357806361d027b3146107ab5780636352211e146107cc57806369d85d54146107ec5780636c9d3b3a1461081957600080fd5b806351f0a93f1161031457806351f0a93f14610716578063522c21781461072b57806352d1902d14610746578063533573fe1461075b578063588dae3c1461077357600080fd5b80633f4ba83a146106ae57806342842e0e146106c35780634f1ef286146106e35780634f6ccce7146106f657600080fd5b806323b872dd116103c85780632f745c59116103975780632f745c591461061757806336568abe146106375780633659cfe6146106575780633af8e5eb146106775780633c449e001461068e57600080fd5b806323b872dd14610587578063248a9ca3146105a75780632a4c03cc146105d75780632f2ff15d146105f757600080fd5b8063095ea7b31161040f578063095ea7b3146104f057806318160ddd1461051257806318fc77ae146105315780631d1438481461054457806321846c761461056a57600080fd5b806301ffc9a71461044c57806305bc64eb1461048157806306fdde03146104a3578063081812fc146104b857600080fd5b3661044757005b600080fd5b34801561045857600080fd5b5061046c610467366004614f9f565b610d83565b60405190151581526020015b60405180910390f35b34801561048d57600080fd5b50610496610d94565b6040516104789190615014565b3480156104af57600080fd5b50610496610e23565b3480156104c457600080fd5b506104d86104d3366004615027565b610eb5565b6040516001600160a01b039091168152602001610478565b3480156104fc57600080fd5b5061051061050b36600461505c565b610f4f565b005b34801561051e57600080fd5b506099545b604051908152602001610478565b61051061053f36600461505c565b611064565b34801561055057600080fd5b506101d2546104d89061010090046001600160a01b031681565b6105726113a4565b60408051928352602083019190915201610478565b34801561059357600080fd5b506105106105a2366004615086565b611788565b3480156105b357600080fd5b506105236105c2366004615027565b600090815260fb602052604090206001015490565b3480156105e357600080fd5b506105106105f23660046150c2565b6117b9565b34801561060357600080fd5b506105106106123660046150dd565b6118dc565b34801561062357600080fd5b5061052361063236600461505c565b611902565b34801561064357600080fd5b506105106106523660046150dd565b611998565b34801561066357600080fd5b506105106106723660046150c2565b611a16565b34801561068357600080fd5b506105236101c65481565b34801561069a57600080fd5b506105106106a93660046151ac565b611af5565b3480156106ba57600080fd5b506105106120ee565b3480156106cf57600080fd5b506105106106de366004615086565b61210f565b6105106106f1366004615284565b61212a565b34801561070257600080fd5b50610523610711366004615027565b6121f6565b34801561072257600080fd5b50610523612289565b34801561073757600080fd5b506101d25461046c9060ff1681565b34801561075257600080fd5b5061052361232a565b34801561076757600080fd5b506101d9546105239081565b34801561077f57600080fd5b5061052361078e3660046150c2565b6123dd565b34801561079f57600080fd5b5060c95460ff1661046c565b3480156107b757600080fd5b506101d3546104d8906001600160a01b031681565b3480156107d857600080fd5b506104d86107e7366004615027565b612503565b3480156107f857600080fd5b5061080c6108073660046150c2565b61257a565b60405161047891906152d2565b34801561082557600080fd5b506105236108343660046150c2565b6101da6020526000908152604090205481565b34801561085357600080fd5b50610510610862366004615027565b61261c565b34801561087357600080fd5b50610887610882366004615027565b612a5a565b6040516104789190615356565b3480156108a057600080fd5b50610510612ac5565b3480156108b557600080fd5b506105236108c43660046150c2565b612c1f565b3480156108d557600080fd5b506108e96108e4366004615027565b612ca6565b6040516104789190615364565b34801561090257600080fd5b506105236101cd5481565b34801561091957600080fd5b50610523612e80565b34801561092e57600080fd5b50610510612f2f565b34801561094357600080fd5b506101d5546105239081565b610510612f50565b34801561096357600080fd5b506105236101ca5481565b34801561097a57600080fd5b5061046c6109893660046153f1565b6101de60209081526000928352604080842090915290825290205460ff1681565b3480156109b657600080fd5b5061046c6109c53660046150dd565b61317d565b3480156109d657600080fd5b506105236101cc5481565b3480156109ed57600080fd5b506105236101c95481565b348015610a0457600080fd5b506104966131a8565b348015610a1957600080fd5b506105236101cf5481565b348015610a3057600080fd5b506105106131b7565b348015610a4557600080fd5b506105236101dd5481565b348015610a5c57600080fd5b5061051061343b565b348015610a7157600080fd5b50610523600081565b348015610a8657600080fd5b50610510610a95366004615421565b613678565b348015610aa657600080fd5b50610523610ab5366004615027565b613683565b348015610ac657600080fd5b506105236101d75481565b348015610add57600080fd5b506101d6546104d8906001600160a01b031681565b348015610afe57600080fd5b50610b4d610b0d366004615027565b6101d8602052600090815260409020805460018201546002830154600384015460048501546005909501549394929391926001600160a01b039091169186565b604080519687526020870195909552938501929092526001600160a01b03166060840152608083015260a082015260c001610478565b348015610b8f57600080fd5b5061049661369a565b348015610ba457600080fd5b50610510610bb3366004615458565b6136a8565b348015610bc457600080fd5b50610496610bd3366004615027565b6136e0565b348015610be457600080fd5b5061080c613775565b348015610bf957600080fd5b506105236101c75481565b348015610c1057600080fd5b506104966137cc565b348015610c2557600080fd5b50610510610c343660046150dd565b6137da565b348015610c4557600080fd5b50610523613800565b348015610c5a57600080fd5b50610c63613819565b60405161047891906154c0565b348015610c7c57600080fd5b506105236101cb5481565b348015610c9357600080fd5b50610523610ca23660046150c2565b61391c565b348015610cb357600080fd5b5061080c6139c6565b348015610cc857600080fd5b5061046c610cd7366004615502565b6001600160a01b039182166000908152606a6020908152604080832093909416825291909152205460ff1690565b348015610d1157600080fd5b50610523600080516020615c5e83398151915281565b348015610d3357600080fd5b50610523610d42366004615027565b6101d46020526000908152604090205481565b348015610d6157600080fd5b506105236101c85481565b348015610d7857600080fd5b506105236101ce5481565b6000610d8e82613a2b565b92915050565b6101c38054610da29061552c565b80601f0160208091040260200160405190810160405280929190818152602001828054610dce9061552c565b8015610e1b5780601f10610df057610100808354040283529160200191610e1b565b820191906000526020600020905b815481529060010190602001808311610dfe57829003601f168201915b505050505081565b606060658054610e329061552c565b80601f0160208091040260200160405190810160405280929190818152602001828054610e5e9061552c565b8015610eab5780601f10610e8057610100808354040283529160200191610eab565b820191906000526020600020905b815481529060010190602001808311610e8e57829003601f168201915b5050505050905090565b6000818152606760205260408120546001600160a01b0316610f335760405162461bcd60e51b815260206004820152602c60248201527f4552433732313a20617070726f76656420717565727920666f72206e6f6e657860448201526b34b9ba32b73a103a37b5b2b760a11b60648201526084015b60405180910390fd5b506000908152606960205260409020546001600160a01b031690565b6000610f5a82612503565b9050806001600160a01b0316836001600160a01b031603610fc75760405162461bcd60e51b815260206004820152602160248201527f4552433732313a20617070726f76616c20746f2063757272656e74206f776e656044820152603960f91b6064820152608401610f2a565b336001600160a01b0382161480610fe35750610fe38133610cd7565b6110555760405162461bcd60e51b815260206004820152603860248201527f4552433732313a20617070726f76652063616c6c6572206973206e6f74206f7760448201527f6e6572206e6f7220617070726f76656420666f7220616c6c00000000000000006064820152608401610f2a565b61105f8383613a50565b505050565b600261019154036110875760405162461bcd60e51b8152600401610f2a90615560565b60026101915560c95460ff16156110b05760405162461bcd60e51b8152600401610f2a90615597565b6101d25460ff16156110d45760405162461bcd60e51b8152600401610f2a906155c1565b60006101cb54116110f75760405162461bcd60e51b8152600401610f2a90615612565b341561117f5760405162461bcd60e51b815260206004820152604b60248201527f4465706f73697473206f662065726332302063616e6e6f7420616c736f20696e60448201527f636c756465206e617469766520746f6b656e7320696e207468652073616d652060648201526a3a3930b739b0b1ba34b7b760a91b608482015260a401610f2a565b61118b6101db83613abe565b506001600160a01b03821660009081526101da60205260409020546111b1908290615685565b6001600160a01b03831660009081526101da60205260408120919091556101d9546040805160c08101825282815243602080830191825260008385018181526001600160a01b038a811660608701908152608087018b81524260a089019081528a86526101d8909652888520885181559651600188015592516002870155516003860180546001600160a01b03191691909216179055516004840155905160059092019190915591519293509133917fce3ede2e266c8c5ec60064c2a65ba25bd2899a334c42b39b742129c49b1ef1c4916112949130918791908a908a9061569d565b60405180910390a26112ab6101d980546001019055565b60405163095ea7b360e01b81523060048201526024810184905284906001600160a01b0382169063095ea7b3906044016020604051808303816000875af11580156112fa573d6000803e3d6000fd5b505050506040513d601f19601f8201168201806040525081019061131e91906156d0565b506040516323b872dd60e01b8152336004820152306024820152604481018590526001600160a01b038216906323b872dd906064016020604051808303816000875af1158015611372573d6000803e3d6000fd5b505050506040513d601f19601f8201168201806040525081019061139691906156d0565b505060016101915550505050565b600080600261019154036113ca5760405162461bcd60e51b8152600401610f2a90615560565b60026101915560c95460ff16156113f35760405162461bcd60e51b8152600401610f2a90615597565b6101d3546001600160a01b0316330361144e5760405162461bcd60e51b815260206004820181905260248201527f54726561737572792063616e6e6f74207075726368617365207469636b6574736044820152606401610f2a565b6101d25460ff1615156001146114cc5760405162461bcd60e51b815260206004820152603860248201527f5469636b6574732063616e6e6f7420626520707572636861736564206166746560448201527f72207468652066756e6472616973696e6720706572696f6400000000000000006064820152608401610f2a565b60006114d734613683565b90506114e1613800565b8111156115565760405162461bcd60e51b815260206004820152603d60248201527f4e6f7420656e6f756768207368617265732072656d61696e696e6720746f207060448201527f757263686173652c20747279206120736d616c6c657220616d6f756e740000006064820152608401610f2a565b60006115626101d55490565b90506115736101d580546001019055565b60008181526101d4602052604090208290556115916101d033613abe565b50816101cb546115a19190615685565b6101cb556101ce546115b4903490615685565b6101ce556101d3546101c9546040516001600160a01b039092169133917faec7d08bcb5e515903dbbba83c84bb270bdbdc5ad261ce0709da4d20226d406391611602913091879189916156ed565b60405180910390a360006305f5e1006101d754346116209190615713565b61162a9190615732565b905060006116388234615754565b6101d6546101d3546101c95460408051308152602081018990523481830152606081018690526080810188905260a081018a905260c0810192909252519394506001600160a01b0392831693929091169133917f3e3034b2cabc46fc365f708d14116816d29867e13940e763b1c3d023f9bcb7eb919081900360e00190a4806101cf546116c59190615685565b6101cf556101d6546040516000916001600160a01b03169084908381818185875af1925050503d8060008114611717576040519150601f19603f3d011682016040523d82523d6000602084013e61171c565b606091505b505090508061176d5760405162461bcd60e51b815260206004820181905260248201527f42726f6b657220636f756c64206e6f742072656365697665207061796d656e746044820152606401610f2a565b6117773385613ad3565b505060016101915550939092509050565b6117923382613aed565b6117ae5760405162461bcd60e51b8152600401610f2a9061576b565b61105f838383613be0565b600080516020615c5e8339815191526117d28133613d87565b600261019154036117f55760405162461bcd60e51b8152600401610f2a90615560565b60026101915560c95460ff161561181e5760405162461bcd60e51b8152600401610f2a90615597565b6101d25460ff16156118425760405162461bcd60e51b8152600401610f2a906157bc565b600061184d836123dd565b90508281156118d0576101d35460405163a9059cbb60e01b81526001600160a01b039182166004820152602481018490529082169063a9059cbb906044016020604051808303816000875af11580156118aa573d6000803e3d6000fd5b505050506040513d601f19601f820116820180604052508101906118ce91906156d0565b505b50506001610191555050565b600082815260fb60205260409020600101546118f88133613d87565b61105f8383613deb565b600061190d83612c1f565b821061196f5760405162461bcd60e51b815260206004820152602b60248201527f455243373231456e756d657261626c653a206f776e657220696e646578206f7560448201526a74206f6620626f756e647360a81b6064820152608401610f2a565b506001600160a01b03919091166000908152609760209081526040808320938352929052205490565b6001600160a01b0381163314611a085760405162461bcd60e51b815260206004820152602f60248201527f416363657373436f6e74726f6c3a2063616e206f6e6c792072656e6f756e636560448201526e103937b632b9903337b91039b2b63360891b6064820152608401610f2a565b611a128282613e71565b5050565b6001600160a01b037f0000000000000000000000000000000000000000000000000000000000000000163003611a5e5760405162461bcd60e51b8152600401610f2a9061580b565b7f00000000000000000000000000000000000000000000000000000000000000006001600160a01b0316611aa7600080516020615c7e833981519152546001600160a01b031690565b6001600160a01b031614611acd5760405162461bcd60e51b8152600401610f2a90615857565b611ad681613ed8565b60408051600080825260208201909252611af291839190613ef1565b50565b600054610100900460ff16611b105760005460ff1615611b14565b303b155b611b775760405162461bcd60e51b815260206004820152602e60248201527f496e697469616c697a61626c653a20636f6e747261637420697320616c72656160448201526d191e481a5b9a5d1a585b1a5e995960921b6064820152608401610f2a565b600054610100900460ff16158015611b99576000805461ffff19166101011790555b60408051808201909152600680825265457363726f7760d01b6020909201918252611bc7916101c391614eb5565b5060408051808201909152600a808252690c0b8ccb8c0b5c1c9bd960b21b6020909201918252611bfa916101c491614eb5565b5089518a908a90600003611c475760405162461bcd60e51b81526020600482015260146024820152734e616d652063616e6e6f7420626520656d70747960601b6044820152606401610f2a565b8051600003611c915760405162461bcd60e51b815260206004820152601660248201527553796d626f6c2063616e6e6f7420626520656d70747960501b6044820152606401610f2a565b8951600003611ce25760405162461bcd60e51b815260206004820152601e60248201527f4261736520746f6b656e205552492063616e6e6f7420626520656d70747900006044820152606401610f2a565b6305f5e1008510611d545760405162461bcd60e51b815260206004820152603660248201527f5075726368617365207469636b657420666565206d757374206265206c657373604482015275207468616e203130303030303030302028313030252960501b6064820152608401610f2a565b6001600160a01b038716611db65760405162461bcd60e51b815260206004820152602360248201527f54726561737572792063616e6e6f7420626520746865207a65726f206164647260448201526265737360e81b6064820152608401610f2a565b6001600160a01b038616611e165760405162461bcd60e51b815260206004820152602160248201527f4973737565722063616e6e6f7420626520746865207a65726f206164647265736044820152607360f81b6064820152608401610f2a565b60008811611e785760405162461bcd60e51b815260206004820152602960248201527f4d61782073686172657320736f6c64206d7573742062652067726561746572206044820152687468616e207a65726f60b81b6064820152608401610f2a565b60008911611edd5760405162461bcd60e51b815260206004820152602c60248201527f5461726765742073686172657320736f6c64206d75737420626520677265617460448201526b6572207468616e207a65726f60a01b6064820152608401610f2a565b87891115611f55576040805162461bcd60e51b81526020600482015260248101919091527f5461726765742073686172657320736f6c64206d757374206265206c6573732060448201527f7468616e206f7220657175616c20746f206d61782073686172657320736f6c646064820152608401610f2a565b6001600160a01b038416611fb55760405162461bcd60e51b815260206004820152602160248201527f42726f6b65722063616e6e6f7420626520746865207a65726f206164647265736044820152607360f81b6064820152608401610f2a565b611fbf8c8c61405c565b611fc761408d565b611fcf6140b6565b611fd761408d565b611fdf61408d565b426101c85560126101c681905560086101c755633b9aca006101c9556101ca5560006101ce8190556101cc8a90556101cd8990556101d280546001600160a81b0319166101006001600160a01b038a81169190910260ff1916919091176001179091556101d380546001600160a01b03199081168b8416179091556101d78890556101d6805490911691871691909117905561207a306140e5565b90508a8160405160200161208f9291906158a3565b6040516020818303038152906040526101c590805190602001906120b4929190614eb5565b506120cd600080516020615c5e83398151915288613deb565b50505080156120e2576000805461ff00191690555b50505050505050505050565b600080516020615c5e8339815191526121078133613d87565b611af261413c565b61105f838383604051806020016040528060008152506136a8565b6001600160a01b037f00000000000000000000000000000000000000000000000000000000000000001630036121725760405162461bcd60e51b8152600401610f2a9061580b565b7f00000000000000000000000000000000000000000000000000000000000000006001600160a01b03166121bb600080516020615c7e833981519152546001600160a01b031690565b6001600160a01b0316146121e15760405162461bcd60e51b8152600401610f2a90615857565b6121ea82613ed8565b611a1282826001613ef1565b600061220160995490565b82106122645760405162461bcd60e51b815260206004820152602c60248201527f455243373231456e756d657261626c653a20676c6f62616c20696e646578206f60448201526b7574206f6620626f756e647360a01b6064820152608401610f2a565b60998281548110612277576122776158f1565b90600052602060002001549050919050565b600080805b6101d9548110156123245760008181526101d86020908152604091829020825160c0810184528154815260018201549281019290925260028101549282019290925260038201546001600160a01b0316606082018190526004830154608083015260059092015460a08201529061231157604081015161230e9084615685565b92505b508061231c81615907565b91505061228e565b50919050565b6000306001600160a01b037f000000000000000000000000000000000000000000000000000000000000000016146123ca5760405162461bcd60e51b815260206004820152603860248201527f555550535570677261646561626c653a206d757374206e6f742062652063616c60448201527f6c6564207468726f7567682064656c656761746563616c6c00000000000000006064820152608401610f2a565b50600080516020615c7e83398151915290565b600080805b6101d9548110156124805760008181526101d86020908152604091829020825160c0810184528154815260018201549281019290925260028101549282019290925260038201546001600160a01b03908116606083018190526004840154608084015260059093015460a08301529091908616900361246d57608081015161246a9084615685565b92505b508061247881615907565b9150506123e2565b506040516370a0823160e01b8152306004820152839060009083906001600160a01b038416906370a0823190602401602060405180830381865afa1580156124cc573d6000803e3d6000fd5b505050506040513d601f19601f820116820180604052508101906124f09190615920565b6124fa9190615754565b95945050505050565b6000818152606760205260408120546001600160a01b031680610d8e5760405162461bcd60e51b815260206004820152602960248201527f4552433732313a206f776e657220717565727920666f72206e6f6e657869737460448201526832b73a103a37b5b2b760b91b6064820152608401610f2a565b6060600061258783612c1f565b905060008167ffffffffffffffff8111156125a4576125a4615109565b6040519080825280602002602001820160405280156125cd578160200160208202803683370190505b50905060005b82811015612614576125e58582611902565b8282815181106125f7576125f76158f1565b60209081029190910101528061260c81615907565b9150506125d3565b509392505050565b6002610191540361263f5760405162461bcd60e51b8152600401610f2a90615560565b60026101915560c95460ff16156126685760405162461bcd60e51b8152600401610f2a90615597565b6101d25460ff16156126d95760405162461bcd60e51b815260206004820152603460248201527f5769746864726177616c732063616e6e6f74206265206d61646520647572696e60448201527319c8199d5b991c985a5cda5b99c81c195c9a5bd960621b6064820152608401610f2a565b336126e382612503565b6001600160a01b0316146127395760405162461bcd60e51b815260206004820152601a60248201527f596f7520646f206e6f74206f776e2074686973207469636b65740000000000006044820152606401610f2a565b60008181526101d46020526040812054905b6101d954811015612a4f5760008181526101d860209081526040808320815160c081018352815481526001808301548286015260028301548285015260038301546001600160a01b031660608301526004830154608083015260059092015460a08201528785526101de845282852081518652909352922054909160ff909116151514612a3c5760008481526101de60209081526040808320845184529091529020805460ff1916600117905560608101516001600160a01b0316156129155760006101cb548483608001516128219190615713565b61282b9190615732565b8251606084015160405192935033927f981eda60172361092f12c75de05c753d28c928d6fb0b4b6492e685a44265fc0a9261286f9230928b92916000918990615939565b60405180910390a260608201516001600160a01b0381166323b872dd3061289589612503565b6040516001600160e01b031960e085901b1681526001600160a01b03928316600482015291166024820152604481018590526064016020604051808303816000875af11580156128e9573d6000803e3d6000fd5b505050506040513d601f19601f8201168201806040525081019061290d91906156d0565b505050612a3c565b60006101cb5484836040015161292b9190615713565b6129359190615732565b825160405191925033917f981eda60172361092f12c75de05c753d28c928d6fb0b4b6492e685a44265fc0a916129759130918a9187906000908190615939565b60405180910390a2600061298886612503565b6001600160a01b03168260405160006040518083038185875af1925050503d80600081146129d2576040519150601f19603f3d011682016040523d82523d6000602084013e6129d7565b606091505b5050905080612a395760405162461bcd60e51b815260206004820152602860248201527f5469636b657420686f6c64657220636f756c64206e6f742072656365697665206044820152676561726e696e677360c01b6064820152608401610f2a565b50505b5080612a4781615907565b91505061274b565b505060016101915550565b612a62614f35565b5060009081526101d86020908152604091829020825160c0810184528154815260018201549281019290925260028101549282019290925260038201546001600160a01b031660608201526004820154608082015260059091015460a082015290565b600080516020615c5e833981519152612ade8133613d87565b60026101915403612b015760405162461bcd60e51b8152600401610f2a90615560565b60026101915560c95460ff1615612b2a5760405162461bcd60e51b8152600401610f2a90615597565b6101d25460ff1615612b4e5760405162461bcd60e51b8152600401610f2a906157bc565b6000612b58612e80565b90508015612c15576101d3546040516000916001600160a01b03169083908381818185875af1925050503d8060008114612bae576040519150601f19603f3d011682016040523d82523d6000602084013e612bb3565b606091505b5050905080612a4f5760405162461bcd60e51b815260206004820152602860248201527f5472617375727920636f756c64206e6f742072656365697665207472617070656044820152676420746f6b656e7360c01b6064820152608401610f2a565b5050600161019155565b60006001600160a01b038216612c8a5760405162461bcd60e51b815260206004820152602a60248201527f4552433732313a2062616c616e636520717565727920666f7220746865207a65604482015269726f206164647265737360b01b6064820152608401610f2a565b506001600160a01b031660009081526068602052604090205490565b60008181526101d46020526040902054606090612cc36101d95490565b67ffffffffffffffff811115612cdb57612cdb615109565b604051908082528060200260200182016040528015612d5757816020015b612d446040518060e0016040528060008152602001600081526020016000151581526020016000815260200160006001600160a01b0316815260200160008152602001600081525090565b815260200190600190039081612cf95790505b50915060005b6101d954811015612e79576101cb5460008281526101d86020526040812060020154909190612d8d908590615713565b612d979190615732565b6101cb5460008481526101d8602052604081206004015492935091612dbd908690615713565b612dc79190615732565b6040805160e08101825288815260008681526101d8602081815284832080548286018190528d85526101de835286852090855282528584205460ff161515958501959095526060840188905260038501546001600160a01b0316608085015260a0840186905291889052905260059091015460c08201528651919250908190879086908110612e5857612e586158f1565b60200260200101819052505050508080612e7190615907565b915050612d5d565b5050919050565b600080805b6101d954811015612f1b5760008181526101d86020908152604091829020825160c0810184528154815260018201549281019290925260028101549282019290925260038201546001600160a01b0316606082018190526004830154608083015260059092015460a082015290612f08576040810151612f059084615685565b92505b5080612f1381615907565b915050612e85565b506000612f288247615754565b9392505050565b600080516020615c5e833981519152612f488133613d87565b611af26141cf565b60026101915403612f735760405162461bcd60e51b8152600401610f2a90615560565b60026101915560c95460ff1615612f9c5760405162461bcd60e51b8152600401610f2a90615597565b6101d25460ff1615612fc05760405162461bcd60e51b8152600401610f2a906155c1565b60006101cb5411612fe35760405162461bcd60e51b8152600401610f2a90615612565b346101dd54612ff29190615685565b6101dd5560006130026101d95490565b6040805160c08101825282815243602080830191825234838501818152600060608601818152608087018281524260a089019081528a84526101d8909652888320885181559651600188015592516002870155516003860180546001600160a01b0319166001600160a01b039092169190911790559051600485015591516005909301929092559251939450909233927fce3ede2e266c8c5ec60064c2a65ba25bd2899a334c42b39b742129c49b1ef1c4926130c4923092889291819061569d565b60405180910390a26130db6101d980546001019055565b604051600090309034908381818185875af1925050503d806000811461311d576040519150601f19603f3d011682016040523d82523d6000602084013e613122565b606091505b5050905080612a4f5760405162461bcd60e51b815260206004820152602160248201527f4c6f6f74626f7820636f756c64206e6f742072656365697665207061796d656e6044820152601d60fa1b6064820152608401610f2a565b600091825260fb602090815260408084206001600160a01b0393909316845291905290205460ff1690565b606060668054610e329061552c565b600261019154036131da5760405162461bcd60e51b8152600401610f2a90615560565b60026101915560c95460ff16156132035760405162461bcd60e51b8152600401610f2a90615597565b6101d25460ff16151560011461322b5760405162461bcd60e51b8152600401610f2a90615974565b62278d006101c8544261323e9190615754565b116132cd5761325b600080516020615c5e8339815191523361317d565b6132cd5760405162461bcd60e51b815260206004820152603860248201527f4f6e6c7920746865206973737565722063616e2063616e63656c20746865206660448201527f756e64726169736572206265666f7265203330206461797300000000000000006064820152608401610f2a565b6101d2805460ff191690556101cf805460009091556101dd546132f1908290615685565b6101dd5560006133016101d95490565b6040805160c081018252828152436020808301918252828401878152600060608501818152608086018281524260a088019081528984526101d8909552878320875181559551600187015592516002860155516003850180546001600160a01b0319166001600160a01b0390921691909117905590516004840155905160059092019190915591519293509133917fce3ede2e266c8c5ec60064c2a65ba25bd2899a334c42b39b742129c49b1ef1c4916133c291309187918991819061569d565b60405180910390a26133d96101d980546001019055565b6101d2546101ce546101cb546040516101009093046001600160a01b0316927f87550133e5e9a6d009b8215a93d43b1511a87921372d21060f998133bd9be4b7926134289230928991906156ed565b60405180910390a2505060016101915550565b600080516020615c5e8339815191526134548133613d87565b600261019154036134775760405162461bcd60e51b8152600401610f2a90615560565b60026101915560c95460ff16156134a05760405162461bcd60e51b8152600401610f2a90615597565b6101d25460ff1615156001146134c85760405162461bcd60e51b8152600401610f2a90615974565b6101cc546101cb5410156135535760405162461bcd60e51b815260206004820152604660248201527f46756e6472616973696e6720706572696f642063616e206f6e6c7920656e642060448201527f6966207468652066756e6472616973696e672074617267657420686173206265606482015265195b881a1a5d60d21b608482015260a401610f2a565b6101d2805460ff1916908190556101cf805460009091556101d3546101ce546101cb5460405193946001600160a01b0393841694610100909104909316927f27f5bdb31297d70b551a9b987c293026b2377a1eacd5bf8adac76067d1fcd0b2926135c19230928891906156ed565b60405180910390a36101d3546040516000916001600160a01b03169083908381818185875af1925050503d8060008114613617576040519150601f19603f3d011682016040523d82523d6000602084013e61361c565b606091505b5050905080612a4f5760405162461bcd60e51b815260206004820152602260248201527f547265617375727920636f756c64206e6f742072656365697665207061796d656044820152611b9d60f21b6064820152608401610f2a565b611a12338383614227565b600060128161369284836142f5565b949350505050565b6101c58054610da29061552c565b6136b23383613aed565b6136ce5760405162461bcd60e51b8152600401610f2a9061576b565b6136da84848484614337565b50505050565b60606101c580546136f09061552c565b80601f016020809104026020016040519081016040528092919081815260200182805461371c9061552c565b80156137695780601f1061373e57610100808354040283529160200191613769565b820191906000526020600020905b81548152906001019060200180831161374c57829003601f168201915b50505050509050919050565b6101db80546040805160208084028201810190925282815260609390929091830182828015610eab57602002820191906000526020600020905b8154815260200190600101908083116137af575050505050905090565b6101c48054610da29061552c565b600082815260fb60205260409020600101546137f68133613d87565b61105f8383613e71565b60006101cb546101cd546138149190615754565b905090565b60606138256101d95490565b67ffffffffffffffff81111561383d5761383d615109565b60405190808252806020026020018201604052801561387657816020015b613863614f35565b81526020019060019003908161385b5790505b50905060005b6101d9548110156139185760008181526101d86020908152604091829020825160c0810184528154815260018201549281019290925260028101549282019290925260038201546001600160a01b031660608201526004820154608082015260059091015460a082015282518390839081106138fa576138fa6158f1565b6020026020010181905250808061391090615907565b91505061387c565b5090565b600080805b6101d9548110156139bf5760008181526101d86020908152604091829020825160c0810184528154815260018201549281019290925260028101549282019290925260038201546001600160a01b03908116606083018190526004840154608084015260059093015460a0830152909190861690036139ac5760808101516139a99084615685565b92505b50806139b781615907565b915050613921565b5092915050565b6101d080546040805160208084028201810190925282815260609390929091830182828015610eab57602002820191906000526020600020908154815260200190600101908083116137af575050505050905090565b6001600160a01b03163b151590565b60006001600160e01b03198216637965db0b60e01b1480610d8e5750610d8e8261436a565b600081815260696020526040902080546001600160a01b0319166001600160a01b0384169081179091558190613a8582612503565b6001600160a01b03167f8c5be1e5ebec7d5bd14f71427d1e84f3dd0314c0f7b2291e5b200ac8c7c3b92560405160405180910390a45050565b6000612f28836001600160a01b03841661438f565b611a128282604051806020016040528060008152506143de565b6000818152606760205260408120546001600160a01b0316613b665760405162461bcd60e51b815260206004820152602c60248201527f4552433732313a206f70657261746f7220717565727920666f72206e6f6e657860448201526b34b9ba32b73a103a37b5b2b760a11b6064820152608401610f2a565b6000613b7183612503565b9050806001600160a01b0316846001600160a01b03161480613bac5750836001600160a01b0316613ba184610eb5565b6001600160a01b0316145b8061369257506001600160a01b038082166000908152606a602090815260408083209388168352929052205460ff16613692565b826001600160a01b0316613bf382612503565b6001600160a01b031614613c575760405162461bcd60e51b815260206004820152602560248201527f4552433732313a207472616e736665722066726f6d20696e636f72726563742060448201526437bbb732b960d91b6064820152608401610f2a565b6001600160a01b038216613cb95760405162461bcd60e51b8152602060048201526024808201527f4552433732313a207472616e7366657220746f20746865207a65726f206164646044820152637265737360e01b6064820152608401610f2a565b613cc4838383614411565b613ccf600082613a50565b6001600160a01b0383166000908152606860205260408120805460019290613cf8908490615754565b90915550506001600160a01b0382166000908152606860205260408120805460019290613d26908490615685565b909155505060008181526067602052604080822080546001600160a01b0319166001600160a01b0386811691821790925591518493918716917fddf252ad1be2c89b69c2b068fc378daa952ba7f163c4a11628f55a4df523b3ef91a4505050565b613d91828261317d565b611a1257613da9816001600160a01b0316601461443f565b613db483602061443f565b604051602001613dc59291906159b8565b60408051601f198184030181529082905262461bcd60e51b8252610f2a91600401615014565b613df5828261317d565b611a1257600082815260fb602090815260408083206001600160a01b03851684529091529020805460ff19166001179055613e2d3390565b6001600160a01b0316816001600160a01b0316837f2f8788117e7eff1d82e926ec794901d17c78024a50270940304540a733656f0d60405160405180910390a45050565b613e7b828261317d565b15611a1257600082815260fb602090815260408083206001600160a01b0385168085529252808320805460ff1916905551339285917ff6391f5c32d9c69d2a47ea670b442974b53935d1edc7fd64eb21e047a839171b9190a45050565b600080516020615c5e833981519152611a128133613d87565b7f4910fdfa16fed3260ed0e7147f7cc6da11a60208b5b9406d12a635614ffd91435460ff1615613f245761105f836145db565b826001600160a01b03166352d1902d6040518163ffffffff1660e01b8152600401602060405180830381865afa925050508015613f7e575060408051601f3d908101601f19168201909252613f7b91810190615920565b60015b613fe15760405162461bcd60e51b815260206004820152602e60248201527f45524331393637557067726164653a206e657720696d706c656d656e7461746960448201526d6f6e206973206e6f74205555505360901b6064820152608401610f2a565b600080516020615c7e83398151915281146140505760405162461bcd60e51b815260206004820152602960248201527f45524331393637557067726164653a20756e737570706f727465642070726f786044820152681a58589b195555525160ba1b6064820152608401610f2a565b5061105f838383614677565b600054610100900460ff166140835760405162461bcd60e51b8152600401610f2a90615a2d565b611a12828261469c565b600054610100900460ff166140b45760405162461bcd60e51b8152600401610f2a90615a2d565b565b600054610100900460ff166140dd5760405162461bcd60e51b8152600401610f2a90615a2d565b6140b46146ea565b60608160000361410f5750506040805180820190915260048152630307830360e41b602082015290565b8160005b8115614132578061412381615907565b915050600882901c9150614113565b613692848261471d565b60c95460ff166141855760405162461bcd60e51b815260206004820152601460248201527314185d5cd8589b194e881b9bdd081c185d5cd95960621b6044820152606401610f2a565b60c9805460ff191690557f5db9ee0a495bf2e6ff9c91a7834c1ba4fdd244a5e8aa4e537bd38aeae4b073aa335b6040516001600160a01b03909116815260200160405180910390a1565b60c95460ff16156141f25760405162461bcd60e51b8152600401610f2a90615597565b60c9805460ff191660011790557f62e78cea01bee320cd4e420270b5ea74000d11b0c9f74754ebdbfc544b05a2586141b23390565b816001600160a01b0316836001600160a01b0316036142885760405162461bcd60e51b815260206004820152601960248201527f4552433732313a20617070726f766520746f2063616c6c6572000000000000006044820152606401610f2a565b6001600160a01b038381166000818152606a6020908152604080832094871680845294825291829020805460ff191686151590811790915591519182527f17307eab39ab6107e8899845ad3d59bd9653f200f220920489ca2b5937696c31910160405180910390a3505050565b60006101c954826101ca546101c65461430e9190615685565b6143189190615754565b61432390600a615b5c565b61432d9085615713565b612f289190615732565b614342848484613be0565b61434e8484848461486a565b6136da5760405162461bcd60e51b8152600401610f2a90615b68565b60006001600160e01b0319821663780e9d6360e01b1480610d8e5750610d8e8261496b565b60008181526001830160205260408120546143d657508154600181810184556000848152602080822090930184905584548482528286019093526040902091909155610d8e565b506000610d8e565b6143e883836149bb565b6143f5600084848461486a565b61105f5760405162461bcd60e51b8152600401610f2a90615b68565b60c95460ff16156144345760405162461bcd60e51b8152600401610f2a90615597565b61105f838383614b09565b6060600061444e836002615713565b614459906002615685565b67ffffffffffffffff81111561447157614471615109565b6040519080825280601f01601f19166020018201604052801561449b576020820181803683370190505b509050600360fc1b816000815181106144b6576144b66158f1565b60200101906001600160f81b031916908160001a905350600f60fb1b816001815181106144e5576144e56158f1565b60200101906001600160f81b031916908160001a9053506000614509846002615713565b614514906001615685565b90505b600181111561458c576f181899199a1a9b1b9c1cb0b131b232b360811b85600f1660108110614548576145486158f1565b1a60f81b82828151811061455e5761455e6158f1565b60200101906001600160f81b031916908160001a90535060049490941c9361458581615bba565b9050614517565b508315612f285760405162461bcd60e51b815260206004820181905260248201527f537472696e67733a20686578206c656e67746820696e73756666696369656e746044820152606401610f2a565b6001600160a01b0381163b6146485760405162461bcd60e51b815260206004820152602d60248201527f455243313936373a206e657720696d706c656d656e746174696f6e206973206e60448201526c1bdd08184818dbdb9d1c9858dd609a1b6064820152608401610f2a565b600080516020615c7e83398151915280546001600160a01b0319166001600160a01b0392909216919091179055565b61468083614bc1565b60008251118061468d5750805b1561105f576136da8383614c01565b600054610100900460ff166146c35760405162461bcd60e51b8152600401610f2a90615a2d565b81516146d6906065906020850190614eb5565b50805161105f906066906020840190614eb5565b600054610100900460ff166147115760405162461bcd60e51b8152600401610f2a90615a2d565b60c9805460ff19169055565b6060600061472c836002615713565b614737906002615685565b67ffffffffffffffff81111561474f5761474f615109565b6040519080825280601f01601f191660200182016040528015614779576020820181803683370190505b509050600360fc1b81600081518110614794576147946158f1565b60200101906001600160f81b031916908160001a905350600f60fb1b816001815181106147c3576147c36158f1565b60200101906001600160f81b031916908160001a90535060006147e7846002615713565b6147f2906001615685565b90505b600181111561458c576f181899199a1a9b1b9c1cb0b131b232b360811b85600f1660108110614826576148266158f1565b1a60f81b82828151811061483c5761483c6158f1565b60200101906001600160f81b031916908160001a90535060049490941c9361486381615bba565b90506147f5565b60006001600160a01b0384163b1561496057604051630a85bd0160e11b81526001600160a01b0385169063150b7a02906148ae903390899088908890600401615bd1565b6020604051808303816000875af19250505080156148e9575060408051601f3d908101601f191682019092526148e691810190615c0e565b60015b614946573d808015614917576040519150601f19603f3d011682016040523d82523d6000602084013e61491c565b606091505b50805160000361493e5760405162461bcd60e51b8152600401610f2a90615b68565b805181602001fd5b6001600160e01b031916630a85bd0160e11b149050613692565b506001949350505050565b60006001600160e01b031982166380ac58cd60e01b148061499c57506001600160e01b03198216635b5e139f60e01b145b80610d8e57506301ffc9a760e01b6001600160e01b0319831614610d8e565b6001600160a01b038216614a115760405162461bcd60e51b815260206004820181905260248201527f4552433732313a206d696e7420746f20746865207a65726f20616464726573736044820152606401610f2a565b6000818152606760205260409020546001600160a01b031615614a765760405162461bcd60e51b815260206004820152601c60248201527f4552433732313a20746f6b656e20616c7265616479206d696e746564000000006044820152606401610f2a565b614a8260008383614411565b6001600160a01b0382166000908152606860205260408120805460019290614aab908490615685565b909155505060008181526067602052604080822080546001600160a01b0319166001600160a01b03861690811790915590518392907fddf252ad1be2c89b69c2b068fc378daa952ba7f163c4a11628f55a4df523b3ef908290a45050565b6001600160a01b038316614b6457614b5f81609980546000838152609a60205260408120829055600182018355919091527f72a152ddfb8e864297c917af52ea6c1c68aead0fee1a62673fcc7e0c94979d000155565b614b87565b816001600160a01b0316836001600160a01b031614614b8757614b878382614cec565b6001600160a01b038216614b9e5761105f81614d89565b826001600160a01b0316826001600160a01b03161461105f5761105f8282614e38565b614bca816145db565b6040516001600160a01b038216907fbc7cd75a20ee27fd9adebab32041f755214dbc6bffa90cc0225b39da2e5c2d3b90600090a250565b60606001600160a01b0383163b614c695760405162461bcd60e51b815260206004820152602660248201527f416464726573733a2064656c65676174652063616c6c20746f206e6f6e2d636f6044820152651b9d1c9858dd60d21b6064820152608401610f2a565b600080846001600160a01b031684604051614c849190615c2b565b600060405180830381855af49150503d8060008114614cbf576040519150601f19603f3d011682016040523d82523d6000602084013e614cc4565b606091505b50915091506124fa8282604051806060016040528060278152602001615c9e60279139614e7c565b60006001614cf984612c1f565b614d039190615754565b600083815260986020526040902054909150808214614d56576001600160a01b03841660009081526097602090815260408083208584528252808320548484528184208190558352609890915290208190555b5060009182526098602090815260408084208490556001600160a01b039094168352609781528383209183525290812055565b609954600090614d9b90600190615754565b6000838152609a602052604081205460998054939450909284908110614dc357614dc36158f1565b906000526020600020015490508060998381548110614de457614de46158f1565b6000918252602080832090910192909255828152609a90915260408082208490558582528120556099805480614e1c57614e1c615c47565b6001900381819060005260206000200160009055905550505050565b6000614e4383612c1f565b6001600160a01b039093166000908152609760209081526040808320868452825280832085905593825260989052919091209190915550565b60608315614e8b575081612f28565b825115614e9b5782518084602001fd5b8160405162461bcd60e51b8152600401610f2a9190615014565b828054614ec19061552c565b90600052602060002090601f016020900481019282614ee35760008555614f29565b82601f10614efc57805160ff1916838001178555614f29565b82800160010185558215614f29579182015b82811115614f29578251825591602001919060010190614f0e565b50613918929150614f74565b6040518060c0016040528060008152602001600081526020016000815260200160006001600160a01b0316815260200160008152602001600081525090565b5b808211156139185760008155600101614f75565b6001600160e01b031981168114611af257600080fd5b600060208284031215614fb157600080fd5b8135612f2881614f89565b60005b83811015614fd7578181015183820152602001614fbf565b838111156136da5750506000910152565b60008151808452615000816020860160208601614fbc565b601f01601f19169290920160200192915050565b602081526000612f286020830184614fe8565b60006020828403121561503957600080fd5b5035919050565b80356001600160a01b038116811461505757600080fd5b919050565b6000806040838503121561506f57600080fd5b61507883615040565b946020939093013593505050565b60008060006060848603121561509b57600080fd5b6150a484615040565b92506150b260208501615040565b9150604084013590509250925092565b6000602082840312156150d457600080fd5b612f2882615040565b600080604083850312156150f057600080fd5b8235915061510060208401615040565b90509250929050565b634e487b7160e01b600052604160045260246000fd5b600082601f83011261513057600080fd5b813567ffffffffffffffff8082111561514b5761514b615109565b604051601f8301601f19908116603f0116810190828211818310171561517357615173615109565b8160405283815286602085880101111561518c57600080fd5b836020870160208301376000602085830101528094505050505092915050565b60008060008060008060008060006101208a8c0312156151cb57600080fd5b893567ffffffffffffffff808211156151e357600080fd5b6151ef8d838e0161511f565b9a5060208c013591508082111561520557600080fd5b6152118d838e0161511f565b995060408c013591508082111561522757600080fd5b506152348c828d0161511f565b97505060608a0135955060808a0135945061525160a08b01615040565b935061525f60c08b01615040565b925060e08a013591506152756101008b01615040565b90509295985092959850929598565b6000806040838503121561529757600080fd5b6152a083615040565b9150602083013567ffffffffffffffff8111156152bc57600080fd5b6152c88582860161511f565b9150509250929050565b6020808252825182820181905260009190848201906040850190845b8181101561530a578351835292840192918401916001016152ee565b50909695505050505050565b8051825260208082015190830152604080820151908301526060808201516001600160a01b0316908301526080808201519083015260a090810151910152565b60c08101610d8e8284615316565b602080825282518282018190526000919060409081850190868401855b828110156153e457815180518552868101518786015285810151151586860152606080820151908601526080808201516001600160a01b03169086015260a0808201519086015260c0908101519085015260e09093019290850190600101615381565b5091979650505050505050565b6000806040838503121561540457600080fd5b50508035926020909101359150565b8015158114611af257600080fd5b6000806040838503121561543457600080fd5b61543d83615040565b9150602083013561544d81615413565b809150509250929050565b6000806000806080858703121561546e57600080fd5b61547785615040565b935061548560208601615040565b925060408501359150606085013567ffffffffffffffff8111156154a857600080fd5b6154b48782880161511f565b91505092959194509250565b6020808252825182820181905260009190848201906040850190845b8181101561530a576154ef838551615316565b9284019260c092909201916001016154dc565b6000806040838503121561551557600080fd5b61551e83615040565b915061510060208401615040565b600181811c9082168061554057607f821691505b60208210810361232457634e487b7160e01b600052602260045260246000fd5b6020808252601f908201527f5265656e7472616e637947756172643a207265656e7472616e742063616c6c00604082015260600190565b60208082526010908201526f14185d5cd8589b194e881c185d5cd95960821b604082015260600190565b60208082526031908201527f4465706f736974732063616e6e6f74206265206d61646520647572696e6720666040820152701d5b991c985a5cda5b99c81c195c9a5bd9607a1b606082015260800190565b60208082526037908201527f4e6f207368617265732068617665206265656e20736f6c642e204465706f736960408201527f74732077696c6c206e6f74206265206163636570746564000000000000000000606082015260800190565b634e487b7160e01b600052601160045260246000fd5b600082198211156156985761569861566f565b500190565b6001600160a01b039586168152602081019490945260408401929092529092166060820152608081019190915260a00190565b6000602082840312156156e257600080fd5b8151612f2881615413565b6001600160a01b0394909416845260208401929092526040830152606082015260800190565b600081600019048311821515161561572d5761572d61566f565b500290565b60008261574f57634e487b7160e01b600052601260045260246000fd5b500490565b6000828210156157665761576661566f565b500390565b60208082526031908201527f4552433732313a207472616e736665722063616c6c6572206973206e6f74206f6040820152701ddb995c881b9bdc88185c1c1c9bdd9959607a1b606082015260800190565b6020808252602f908201527f5265736375652063616e6e6f74206265206d61646520647572696e672066756e60408201526e191c985a5cda5b99c81c195c9a5bd9608a1b606082015260800190565b6020808252602c908201527f46756e6374696f6e206d7573742062652063616c6c6564207468726f7567682060408201526b19195b1959d85d1958d85b1b60a21b606082015260800190565b6020808252602c908201527f46756e6374696f6e206d7573742062652063616c6c6564207468726f7567682060408201526b6163746976652070726f787960a01b606082015260800190565b600083516158b5818460208801614fbc565b602f60f81b90830190815283516158d3816001840160208801614fbc565b64173539b7b760d91b60019290910191820152600601949350505050565b634e487b7160e01b600052603260045260246000fd5b6000600182016159195761591961566f565b5060010190565b60006020828403121561593257600080fd5b5051919050565b6001600160a01b039687168152602081019590955260408501939093526060840191909152909216608082015260a081019190915260c00190565b60208082526024908201527f46756e6472616973696e6720706572696f642068617320616c726561647920656040820152631b99195960e21b606082015260800190565b7f416363657373436f6e74726f6c3a206163636f756e74200000000000000000008152600083516159f0816017850160208801614fbc565b7001034b99036b4b9b9b4b733903937b6329607d1b6017918401918201528351615a21816028840160208801614fbc565b01602801949350505050565b6020808252602b908201527f496e697469616c697a61626c653a20636f6e7472616374206973206e6f74206960408201526a6e697469616c697a696e6760a81b606082015260800190565b600181815b80851115615ab3578160001904821115615a9957615a9961566f565b80851615615aa657918102915b93841c9390800290615a7d565b509250929050565b600082615aca57506001610d8e565b81615ad757506000610d8e565b8160018114615aed5760028114615af757615b13565b6001915050610d8e565b60ff841115615b0857615b0861566f565b50506001821b610d8e565b5060208310610133831016604e8410600b8410161715615b36575081810a610d8e565b615b408383615a78565b8060001904821115615b5457615b5461566f565b029392505050565b6000612f288383615abb565b60208082526032908201527f4552433732313a207472616e7366657220746f206e6f6e20455243373231526560408201527131b2b4bb32b91034b6b83632b6b2b73a32b960711b606082015260800190565b600081615bc957615bc961566f565b506000190190565b6001600160a01b0385811682528416602082015260408101839052608060608201819052600090615c0490830184614fe8565b9695505050505050565b600060208284031215615c2057600080fd5b8151612f2881614f89565b60008251615c3d818460208701614fbc565b9190910192915050565b634e487b7160e01b600052603160045260246000fdfe3b5d4cc60d3ec3516ee8ae083bd60934f6eb2a6c54b1229985c41bfb092b2603360894a13ba1a3210667c828492db98dca3e2076cc3735a920a3ca505d382bbc416464726573733a206c6f772d6c6576656c2064656c65676174652063616c6c206661696c6564a26469706673582212200d2ec02e95ef230521249160deb977781ed96207670de63bfd2ef23aa9cdaf3064736f6c634300080d0033",
  "linkReferences": {},
  "deployedLinkReferences": {}
}