{
  "_format": "hh-sol-artifact-1",
  "contractName": "LootboxInstantFactory",
  "sourceName": "contracts/LootboxInstantFactory.sol",
  "abi": [
    {
      "inputs": [
        {
          "internalType": "address",
          "name": "_lootboxDao",
          "type": "address"
        },
        {
          "internalType": "uint256",
          "name": "_ticketPurchaseFee",
          "type": "uint256"
        },
        {
          "internalType": "address",
          "name": "_brokerAddress",
          "type": "address"
        },
        {
          "internalType": "address",
          "name": "_superstaff",
          "type": "address"
        },
        {
          "internalType": "string",
          "name": "_baseTokenURI",
          "type": "string"
        }
      ],
      "stateMutability": "nonpayable",
      "type": "constructor"
    },
    {
      "anonymous": false,
      "inputs": [
        {
          "indexed": false,
          "internalType": "string",
          "name": "lootboxName",
          "type": "string"
        },
        {
          "indexed": true,
          "internalType": "address",
          "name": "lootbox",
          "type": "address"
        },
        {
          "indexed": true,
          "internalType": "address",
          "name": "issuer",
          "type": "address"
        },
        {
          "indexed": true,
          "internalType": "address",
          "name": "treasury",
          "type": "address"
        },
        {
          "indexed": false,
          "internalType": "uint256",
          "name": "targetSharesSold",
          "type": "uint256"
        },
        {
          "indexed": false,
          "internalType": "uint256",
          "name": "maxSharesSold",
          "type": "uint256"
        },
        {
          "indexed": false,
          "internalType": "string",
          "name": "_data",
          "type": "string"
        }
      ],
      "name": "LootboxCreated",
      "type": "event"
    },
    {
      "anonymous": false,
      "inputs": [
        {
          "indexed": false,
          "internalType": "address",
          "name": "account",
          "type": "address"
        }
      ],
      "name": "Paused",
      "type": "event"
    },
    {
      "anonymous": false,
      "inputs": [
        {
          "indexed": true,
          "internalType": "bytes32",
          "name": "role",
          "type": "bytes32"
        },
        {
          "indexed": true,
          "internalType": "bytes32",
          "name": "previousAdminRole",
          "type": "bytes32"
        },
        {
          "indexed": true,
          "internalType": "bytes32",
          "name": "newAdminRole",
          "type": "bytes32"
        }
      ],
      "name": "RoleAdminChanged",
      "type": "event"
    },
    {
      "anonymous": false,
      "inputs": [
        {
          "indexed": true,
          "internalType": "bytes32",
          "name": "role",
          "type": "bytes32"
        },
        {
          "indexed": true,
          "internalType": "address",
          "name": "account",
          "type": "address"
        },
        {
          "indexed": true,
          "internalType": "address",
          "name": "sender",
          "type": "address"
        }
      ],
      "name": "RoleGranted",
      "type": "event"
    },
    {
      "anonymous": false,
      "inputs": [
        {
          "indexed": true,
          "internalType": "bytes32",
          "name": "role",
          "type": "bytes32"
        },
        {
          "indexed": true,
          "internalType": "address",
          "name": "account",
          "type": "address"
        },
        {
          "indexed": true,
          "internalType": "address",
          "name": "sender",
          "type": "address"
        }
      ],
      "name": "RoleRevoked",
      "type": "event"
    },
    {
      "anonymous": false,
      "inputs": [
        {
          "indexed": false,
          "internalType": "address",
          "name": "account",
          "type": "address"
        }
      ],
      "name": "Unpaused",
      "type": "event"
    },
    {
      "inputs": [],
      "name": "DAO_ROLE",
      "outputs": [
        {
          "internalType": "bytes32",
          "name": "",
          "type": "bytes32"
        }
      ],
      "stateMutability": "view",
      "type": "function"
    },
    {
      "inputs": [],
      "name": "DEFAULT_ADMIN_ROLE",
      "outputs": [
        {
          "internalType": "bytes32",
          "name": "",
          "type": "bytes32"
        }
      ],
      "stateMutability": "view",
      "type": "function"
    },
    {
      "inputs": [],
      "name": "baseTokenURI",
      "outputs": [
        {
          "internalType": "string",
          "name": "",
          "type": "string"
        }
      ],
      "stateMutability": "view",
      "type": "function"
    },
    {
      "inputs": [],
      "name": "brokerAddress",
      "outputs": [
        {
          "internalType": "address",
          "name": "",
          "type": "address"
        }
      ],
      "stateMutability": "view",
      "type": "function"
    },
    {
      "inputs": [
        {
          "internalType": "string",
          "name": "_lootboxName",
          "type": "string"
        },
        {
          "internalType": "string",
          "name": "_lootboxSymbol",
          "type": "string"
        },
        {
          "internalType": "uint256",
          "name": "_targetSharesSold",
          "type": "uint256"
        },
        {
          "internalType": "uint256",
          "name": "_maxSharesSold",
          "type": "uint256"
        },
        {
          "internalType": "address",
          "name": "_treasury",
          "type": "address"
        },
        {
          "internalType": "string",
          "name": "_data",
          "type": "string"
        }
      ],
      "name": "createLootbox",
      "outputs": [
        {
          "internalType": "address",
          "name": "_lootbox",
          "type": "address"
        }
      ],
      "stateMutability": "nonpayable",
      "type": "function"
    },
    {
      "inputs": [
        {
          "internalType": "bytes32",
          "name": "role",
          "type": "bytes32"
        }
      ],
      "name": "getRoleAdmin",
      "outputs": [
        {
          "internalType": "bytes32",
          "name": "",
          "type": "bytes32"
        }
      ],
      "stateMutability": "view",
      "type": "function"
    },
    {
      "inputs": [
        {
          "internalType": "bytes32",
          "name": "role",
          "type": "bytes32"
        },
        {
          "internalType": "address",
          "name": "account",
          "type": "address"
        }
      ],
      "name": "grantRole",
      "outputs": [],
      "stateMutability": "nonpayable",
      "type": "function"
    },
    {
      "inputs": [
        {
          "internalType": "bytes32",
          "name": "role",
          "type": "bytes32"
        },
        {
          "internalType": "address",
          "name": "account",
          "type": "address"
        }
      ],
      "name": "hasRole",
      "outputs": [
        {
          "internalType": "bool",
          "name": "",
          "type": "bool"
        }
      ],
      "stateMutability": "view",
      "type": "function"
    },
    {
      "inputs": [],
      "name": "lootboxImplementation",
      "outputs": [
        {
          "internalType": "address",
          "name": "",
          "type": "address"
        }
      ],
      "stateMutability": "view",
      "type": "function"
    },
    {
      "inputs": [],
      "name": "pause",
      "outputs": [],
      "stateMutability": "nonpayable",
      "type": "function"
    },
    {
      "inputs": [],
      "name": "paused",
      "outputs": [
        {
          "internalType": "bool",
          "name": "",
          "type": "bool"
        }
      ],
      "stateMutability": "view",
      "type": "function"
    },
    {
      "inputs": [
        {
          "internalType": "bytes32",
          "name": "role",
          "type": "bytes32"
        },
        {
          "internalType": "address",
          "name": "account",
          "type": "address"
        }
      ],
      "name": "renounceRole",
      "outputs": [],
      "stateMutability": "nonpayable",
      "type": "function"
    },
    {
      "inputs": [
        {
          "internalType": "bytes32",
          "name": "role",
          "type": "bytes32"
        },
        {
          "internalType": "address",
          "name": "account",
          "type": "address"
        }
      ],
      "name": "revokeRole",
      "outputs": [],
      "stateMutability": "nonpayable",
      "type": "function"
    },
    {
      "inputs": [],
      "name": "semver",
      "outputs": [
        {
          "internalType": "string",
          "name": "",
          "type": "string"
        }
      ],
      "stateMutability": "view",
      "type": "function"
    },
    {
      "inputs": [],
      "name": "superstaff",
      "outputs": [
        {
          "internalType": "address",
          "name": "",
          "type": "address"
        }
      ],
      "stateMutability": "view",
      "type": "function"
    },
    {
      "inputs": [
        {
          "internalType": "bytes4",
          "name": "interfaceId",
          "type": "bytes4"
        }
      ],
      "name": "supportsInterface",
      "outputs": [
        {
          "internalType": "bool",
          "name": "",
          "type": "bool"
        }
      ],
      "stateMutability": "view",
      "type": "function"
    },
    {
      "inputs": [],
      "name": "ticketPurchaseFee",
      "outputs": [
        {
          "internalType": "uint256",
          "name": "",
          "type": "uint256"
        }
      ],
      "stateMutability": "view",
      "type": "function"
    },
    {
      "inputs": [],
      "name": "unpause",
      "outputs": [],
      "stateMutability": "nonpayable",
      "type": "function"
    },
    {
      "inputs": [],
      "name": "viewLootboxes",
      "outputs": [
        {
          "internalType": "bytes32[]",
          "name": "",
          "type": "bytes32[]"
        }
      ],
      "stateMutability": "view",
      "type": "function"
    }
  ],
  "bytecode": "0x6101006040523480156200001257600080fd5b50604051620082ac380380620082ac83398101604081905262000035916200046f565b6000805460ff191690556001600160a01b038516620000a65760405162461bcd60e51b815260206004820152602260248201527f44414f204c6f6f74626f7820616464726573732063616e6e6f74206265207a65604482015261726f60f01b60648201526084015b60405180910390fd5b6001600160a01b038316620000fe5760405162461bcd60e51b815260206004820152601d60248201527f42726f6b657220616464726573732063616e6e6f74206265207a65726f00000060448201526064016200009d565b6305f5e1008410620001795760405162461bcd60e51b815260206004820152603660248201527f5075726368617365207469636b657420666565206d757374206265206c65737360448201527f207468616e20313030303030303030202831303025290000000000000000000060648201526084016200009d565b8051600003620001cc5760405162461bcd60e51b815260206004820152601e60248201527f4261736520746f6b656e205552492063616e6e6f7420626520656d707479000060448201526064016200009d565b6001600160a01b0382166200022e5760405162461bcd60e51b815260206004820152602160248201527f5375706572737461666620616464726573732063616e6e6f74206265207a65726044820152606f60f81b60648201526084016200009d565b6040516200023c9062000388565b604051809103906000f08015801562000259573d6000803e3d6000fd5b506001600160a01b0316608052620002927f3b5d4cc60d3ec3516ee8ae083bd60934f6eb2a6c54b1229985c41bfb092b260386620002ff565b60a08490526001600160a01b0380841660c052821660e0528051620002bf90600390602084019062000396565b5060408051808201909152600a808252690c0b8d0b8c0b5c1c9bd960b21b6020909201918252620002f39160029162000396565b505050505050620005cc565b60008281526001602090815260408083206001600160a01b038516845290915290205460ff16620003845760008281526001602081815260408084206001600160a01b0386168086529252808420805460ff19169093179092559051339285917f2f8788117e7eff1d82e926ec794901d17c78024a50270940304540a733656f0d9190a45b5050565b61603a806200227283390190565b828054620003a49062000590565b90600052602060002090601f016020900481019282620003c8576000855562000413565b82601f10620003e357805160ff191683800117855562000413565b8280016001018555821562000413579182015b8281111562000413578251825591602001919060010190620003f6565b506200042192915062000425565b5090565b5b8082111562000421576000815560010162000426565b80516001600160a01b03811681146200045457600080fd5b919050565b634e487b7160e01b600052604160045260246000fd5b600080600080600060a086880312156200048857600080fd5b62000493866200043c565b94506020808701519450620004ab604088016200043c565b9350620004bb606088016200043c565b60808801519093506001600160401b0380821115620004d957600080fd5b818901915089601f830112620004ee57600080fd5b81518181111562000503576200050362000459565b604051601f8201601f19908116603f011681019083821181831017156200052e576200052e62000459565b816040528281528c868487010111156200054757600080fd5b600093505b828410156200056b57848401860151818501870152928501926200054c565b828411156200057d5760008684830101525b8096505050505050509295509295909350565b600181811c90821680620005a557607f821691505b602082108103620005c657634e487b7160e01b600052602260045260246000fd5b50919050565b60805160a05160c05160e051611c50620006226000396000818161025101526106fd01526000818161027901526106dc0152600081816102d701526106bb015260008181610189015261068a0152611c506000f3fe60806040523480156200001157600080fd5b5060043610620001395760003560e01c80635089f79611620000bb578063a7c721c5116200007a578063a7c721c514620002d1578063cda493c814620002f9578063d547741f1462000312578063d547cfb71462000329578063e9c26518146200033357600080fd5b80635089f79614620002735780635c975abb146200029b5780638456cb5914620002a757806391d1485414620002b1578063a217fddf14620002c857600080fd5b8063248a9ca31162000108578063248a9ca314620001db5780632f2ff15d146200021157806336568abe146200022a5780633f4ba83a146200024157806342b12631146200024b57600080fd5b806301ffc9a7146200013e57806317088631146200016a57806319dd565714620001835780631aed9ea314620001c4575b600080fd5b620001556200014f36600462000ec9565b6200035b565b60405190151581526020015b60405180910390f35b6200017462000393565b60405162000161919062000ef5565b620001ab7f000000000000000000000000000000000000000000000000000000000000000081565b6040516001600160a01b03909116815260200162000161565b620001ab620001d536600462001003565b620003ec565b62000202620001ec366004620010ba565b6000908152600160208190526040909120015490565b60405190815260200162000161565b6200022862000222366004620010d4565b62000819565b005b620002286200023b366004620010d4565b62000849565b62000228620008cb565b620001ab7f000000000000000000000000000000000000000000000000000000000000000081565b620001ab7f000000000000000000000000000000000000000000000000000000000000000081565b60005460ff1662000155565b6200022862000905565b62000155620002c2366004620010d4565b6200093c565b62000202600081565b620002027f000000000000000000000000000000000000000000000000000000000000000081565b6200030362000967565b60405162000161919062001164565b6200022862000323366004620010d4565b620009fd565b6200030362000a28565b620002027f3b5d4cc60d3ec3516ee8ae083bd60934f6eb2a6c54b1229985c41bfb092b260381565b60006001600160e01b03198216637965db0b60e01b14806200038d57506301ffc9a760e01b6001600160e01b03198316145b92915050565b600480546040805160208084028201810190925282815260609390929091830182828015620003e257602002820191906000526020600020905b815481526020019060010190808311620003cd575b5050505050905090565b6000805460ff1615620004395760405162461bcd60e51b815260206004820152601060248201526f14185d5cd8589b194e881c185d5cd95960821b60448201526064015b60405180910390fd5b86516000036200048c5760405162461bcd60e51b815260206004820152601c60248201527f4c6f6f74626f78206e616d652063616e6e6f7420626520656d70747900000000604482015260640162000430565b8551600003620004df5760405162461bcd60e51b815260206004820152601e60248201527f4c6f6f74626f782073796d626f6c2063616e6e6f7420626520656d7074790000604482015260640162000430565b6001600160a01b038316620005375760405162461bcd60e51b815260206004820152601f60248201527f547265617375727920616464726573732063616e6e6f74206265207a65726f00604482015260640162000430565b600085116200059e5760405162461bcd60e51b815260206004820152602c60248201527f5461726765742073686172657320736f6c64206d75737420626520677265617460448201526b6572207468616e207a65726f60a01b606482015260840162000430565b60008411620006025760405162461bcd60e51b815260206004820152602960248201527f4d61782073686172657320736f6c64206d7573742062652067726561746572206044820152687468616e207a65726f60b81b606482015260840162000430565b84841015620006865760405162461bcd60e51b815260206004820152604360248201527f4d61782073686172657320736f6c64206d75737420626520677265617465722060448201527f7468616e206f7220657175616c20746f207461726765742073686172657320736064820152621bdb1960ea1b608482015260a40162000430565b60007f00000000000000000000000000000000000000000000000000000000000000006316bded3660e01b898960038a8a8a337f00000000000000000000000000000000000000000000000000000000000000007f00000000000000000000000000000000000000000000000000000000000000007f0000000000000000000000000000000000000000000000000000000000000000604051602401620007379a99989796959493929190620011b5565b60408051601f198184030181529181526020820180516001600160e01b03166001600160e01b0319909416939093179092529051620007769062000ebb565b62000783929190620012ff565b604051809103906000f080158015620007a0573d6000803e3d6000fd5b509050620007b060048262000a37565b50836001600160a01b0316336001600160a01b0316826001600160a01b03167ff39d14fa0aa07a94a72c62bae5fb327d547a62865bdd8fcfa9c5223107c35a7c8b8a8a896040516200080694939291906200132d565b60405180910390a4979650505050505050565b6000828152600160208190526040909120015462000838813362000a55565b62000844838362000ac4565b505050565b6001600160a01b0381163314620008bb5760405162461bcd60e51b815260206004820152602f60248201527f416363657373436f6e74726f6c3a2063616e206f6e6c792072656e6f756e636560448201526e103937b632b9903337b91039b2b63360891b606482015260840162000430565b620008c7828262000b32565b5050565b7f3b5d4cc60d3ec3516ee8ae083bd60934f6eb2a6c54b1229985c41bfb092b2603620008f8813362000a55565b6200090262000b9c565b50565b7f3b5d4cc60d3ec3516ee8ae083bd60934f6eb2a6c54b1229985c41bfb092b260362000932813362000a55565b6200090262000c31565b60009182526001602090815260408084206001600160a01b0393909316845291905290205460ff1690565b60028054620009769062001179565b80601f0160208091040260200160405190810160405280929190818152602001828054620009a49062001179565b8015620009f55780601f10620009c957610100808354040283529160200191620009f5565b820191906000526020600020905b815481529060010190602001808311620009d757829003601f168201915b505050505081565b6000828152600160208190526040909120015462000a1c813362000a55565b62000844838362000b32565b60038054620009769062001179565b600062000a4e836001600160a01b03841662000caf565b9392505050565b62000a6182826200093c565b620008c75762000a7c816001600160a01b0316601462000d01565b62000a8983602062000d01565b60405160200162000a9c9291906200136d565b60408051601f198184030181529082905262461bcd60e51b8252620004309160040162001164565b62000ad082826200093c565b620008c75760008281526001602081815260408084206001600160a01b0386168086529252808420805460ff19169093179092559051339285917f2f8788117e7eff1d82e926ec794901d17c78024a50270940304540a733656f0d9190a45050565b62000b3e82826200093c565b15620008c75760008281526001602090815260408083206001600160a01b0385168085529252808320805460ff1916905551339285917ff6391f5c32d9c69d2a47ea670b442974b53935d1edc7fd64eb21e047a839171b9190a45050565b60005460ff1662000be75760405162461bcd60e51b815260206004820152601460248201527314185d5cd8589b194e881b9bdd081c185d5cd95960621b604482015260640162000430565b6000805460ff191690557f5db9ee0a495bf2e6ff9c91a7834c1ba4fdd244a5e8aa4e537bd38aeae4b073aa335b6040516001600160a01b03909116815260200160405180910390a1565b60005460ff161562000c795760405162461bcd60e51b815260206004820152601060248201526f14185d5cd8589b194e881c185d5cd95960821b604482015260640162000430565b6000805460ff191660011790557f62e78cea01bee320cd4e420270b5ea74000d11b0c9f74754ebdbfc544b05a25862000c143390565b600081815260018301602052604081205462000cf8575081546001818101845560008481526020808220909301849055845484825282860190935260409020919091556200038d565b5060006200038d565b6060600062000d12836002620013fc565b62000d1f9060026200141e565b67ffffffffffffffff81111562000d3a5762000d3a62000f3b565b6040519080825280601f01601f19166020018201604052801562000d65576020820181803683370190505b509050600360fc1b8160008151811062000d835762000d8362001439565b60200101906001600160f81b031916908160001a905350600f60fb1b8160018151811062000db55762000db562001439565b60200101906001600160f81b031916908160001a905350600062000ddb846002620013fc565b62000de89060016200141e565b90505b600181111562000e6a576f181899199a1a9b1b9c1cb0b131b232b360811b85600f166010811062000e205762000e2062001439565b1a60f81b82828151811062000e395762000e3962001439565b60200101906001600160f81b031916908160001a90535060049490941c9362000e62816200144f565b905062000deb565b50831562000a4e5760405162461bcd60e51b815260206004820181905260248201527f537472696e67733a20686578206c656e67746820696e73756666696369656e74604482015260640162000430565b6107b1806200146a83390190565b60006020828403121562000edc57600080fd5b81356001600160e01b03198116811462000a4e57600080fd5b6020808252825182820181905260009190848201906040850190845b8181101562000f2f5783518352928401929184019160010162000f11565b50909695505050505050565b634e487b7160e01b600052604160045260246000fd5b600082601f83011262000f6357600080fd5b813567ffffffffffffffff8082111562000f815762000f8162000f3b565b604051601f8301601f19908116603f0116810190828211818310171562000fac5762000fac62000f3b565b8160405283815286602085880101111562000fc657600080fd5b836020870160208301376000602085830101528094505050505092915050565b80356001600160a01b038116811462000ffe57600080fd5b919050565b60008060008060008060c087890312156200101d57600080fd5b863567ffffffffffffffff808211156200103657600080fd5b620010448a838b0162000f51565b975060208901359150808211156200105b57600080fd5b620010698a838b0162000f51565b965060408901359550606089013594506200108760808a0162000fe6565b935060a08901359150808211156200109e57600080fd5b50620010ad89828a0162000f51565b9150509295509295509295565b600060208284031215620010cd57600080fd5b5035919050565b60008060408385031215620010e857600080fd5b82359150620010fa6020840162000fe6565b90509250929050565b60005b838110156200112057818101518382015260200162001106565b8381111562001130576000848401525b50505050565b600081518084526200115081602086016020860162001103565b601f01601f19169290920160200192915050565b60208152600062000a4e602083018462001136565b600181811c908216806200118e57607f821691505b602082108103620011af57634e487b7160e01b600052602260045260246000fd5b50919050565b61014081526000620011cc61014083018d62001136565b8281036020840152620011e0818d62001136565b9050828103604084015260008b54818160011c9050600182166200120257607f165b6020811060018316036200122457634e487b7160e01b83526022600452602483fd5b8084526020840193506001821680156200124757600181146200125a576200128a565b60ff19831685526020850193506200128a565b60008f81526020902060005b83811015620012845781548782015260019091019060200162001266565b86019450505b5050508092505050886060830152876080830152620012b460a08301886001600160a01b03169052565b6001600160a01b03861660c08301528460e0830152620012e06101008301856001600160a01b03169052565b6001600160a01b0383166101208301529b9a5050505050505050505050565b6001600160a01b0383168152604060208201819052600090620013259083018462001136565b949350505050565b60808152600062001342608083018762001136565b856020840152846040840152828103606084015262001362818562001136565b979650505050505050565b7f416363657373436f6e74726f6c3a206163636f756e7420000000000000000000815260008351620013a781601785016020880162001103565b7001034b99036b4b9b9b4b733903937b6329607d1b6017918401918201528351620013da81602884016020880162001103565b01602801949350505050565b634e487b7160e01b600052601160045260246000fd5b6000816000190483118215151615620014195762001419620013e6565b500290565b60008219821115620014345762001434620013e6565b500190565b634e487b7160e01b600052603260045260246000fd5b600081620014615762001461620013e6565b50600019019056fe60806040526040516107b13803806107b183398101604081905261002291610349565b61004d60017f360894a13ba1a3210667c828492db98dca3e2076cc3735a920a3ca505d382bbd610417565b60008051602061076a833981519152146100695761006961043c565b6100758282600061007c565b50506104a1565b610085836100b2565b6000825111806100925750805b156100ad576100ab83836100f260201b6100291760201c565b505b505050565b6100bb8161011e565b6040516001600160a01b038216907fbc7cd75a20ee27fd9adebab32041f755214dbc6bffa90cc0225b39da2e5c2d3b90600090a250565b6060610117838360405180606001604052806027815260200161078a602791396101de565b9392505050565b610131816102bc60201b6100551760201c565b6101985760405162461bcd60e51b815260206004820152602d60248201527f455243313936373a206e657720696d706c656d656e746174696f6e206973206e60448201526c1bdd08184818dbdb9d1c9858dd609a1b60648201526084015b60405180910390fd5b806101bd60008051602061076a83398151915260001b6102cb60201b6100641760201c565b80546001600160a01b0319166001600160a01b039290921691909117905550565b60606001600160a01b0384163b6102465760405162461bcd60e51b815260206004820152602660248201527f416464726573733a2064656c65676174652063616c6c20746f206e6f6e2d636f6044820152651b9d1c9858dd60d21b606482015260840161018f565b600080856001600160a01b0316856040516102619190610452565b600060405180830381855af49150503d806000811461029c576040519150601f19603f3d011682016040523d82523d6000602084013e6102a1565b606091505b5090925090506102b28282866102ce565b9695505050505050565b6001600160a01b03163b151590565b90565b606083156102dd575081610117565b8251156102ed5782518084602001fd5b8160405162461bcd60e51b815260040161018f919061046e565b634e487b7160e01b600052604160045260246000fd5b60005b83811015610338578181015183820152602001610320565b838111156100ab5750506000910152565b6000806040838503121561035c57600080fd5b82516001600160a01b038116811461037357600080fd5b60208401519092506001600160401b038082111561039057600080fd5b818501915085601f8301126103a457600080fd5b8151818111156103b6576103b6610307565b604051601f8201601f19908116603f011681019083821181831017156103de576103de610307565b816040528281528860208487010111156103f757600080fd5b61040883602083016020880161031d565b80955050505050509250929050565b60008282101561043757634e487b7160e01b600052601160045260246000fd5b500390565b634e487b7160e01b600052600160045260246000fd5b6000825161046481846020870161031d565b9190910192915050565b602081526000825180602084015261048d81604085016020870161031d565b601f01601f19169190910160400192915050565b6102ba806104b06000396000f3fe60806040523661001357610011610017565b005b6100115b610027610022610067565b61009f565b565b606061004e838360405180606001604052806027815260200161025e602791396100c3565b9392505050565b6001600160a01b03163b151590565b90565b600061009a7f360894a13ba1a3210667c828492db98dca3e2076cc3735a920a3ca505d382bbc546001600160a01b031690565b905090565b3660008037600080366000845af43d6000803e8080156100be573d6000f35b3d6000fd5b60606001600160a01b0384163b6101305760405162461bcd60e51b815260206004820152602660248201527f416464726573733a2064656c65676174652063616c6c20746f206e6f6e2d636f6044820152651b9d1c9858dd60d21b60648201526084015b60405180910390fd5b600080856001600160a01b03168560405161014b919061020e565b600060405180830381855af49150503d8060008114610186576040519150601f19603f3d011682016040523d82523d6000602084013e61018b565b606091505b509150915061019b8282866101a5565b9695505050505050565b606083156101b457508161004e565b8251156101c45782518084602001fd5b8160405162461bcd60e51b8152600401610127919061022a565b60005b838110156101f95781810151838201526020016101e1565b83811115610208576000848401525b50505050565b600082516102208184602087016101de565b9190910192915050565b60208152600082518060208401526102498160408501602087016101de565b601f01601f1916919091016040019291505056fe416464726573733a206c6f772d6c6576656c2064656c65676174652063616c6c206661696c6564a26469706673582212206a9a8c80cf4acba4b799b5c7fb65ea2dad7950cdf128b00c6f7abfa4a4e576e164736f6c634300080d0033360894a13ba1a3210667c828492db98dca3e2076cc3735a920a3ca505d382bbc416464726573733a206c6f772d6c6576656c2064656c65676174652063616c6c206661696c6564a2646970667358221220233b99616ec888aef4a86487677b2f7cc0f5a0892c7f43959c58f15b50ce8d9864736f6c634300080d003360a0604052306080523480156200001557600080fd5b50600054610100900460ff16620000335760005460ff16156200003d565b6200003d620000e2565b620000a55760405162461bcd60e51b815260206004820152602e60248201527f496e697469616c697a61626c653a20636f6e747261637420697320616c72656160448201526d191e481a5b9a5d1a585b1a5e995960921b606482015260840160405180910390fd5b600054610100900460ff16158015620000c8576000805461ffff19166101011790555b8015620000db576000805461ff00191690555b506200010f565b6000620000fa306200010060201b620036131760201c565b15905090565b6001600160a01b03163b151590565b608051615ef36200014760003960008181611ebc01528181611efc015281816123d80152818161241801526125db0152615ef36000f3fe6080604052600436106104565760003560e01c806370a082311161023f578063a22cb46511610139578063d547741f116100b6578063e985e9c51161007a578063e985e9c514610d54578063e9c2651814610d9d578063fbf97c5914610dbf578063fdf27dba14610ded578063ff7808e914610e0457600080fd5b8063d547741f14610cc6578063da3537a814610ce6578063dd13745514610cfb578063dd7af03514610d1d578063e6deb18d14610d3457600080fd5b8063b4ce37d2116100fd578063b4ce37d214610c45578063b88d4fde14610c5a578063c87b56dd14610c7a578063cc0f178614610c9a578063cda493c814610cb157600080fd5b8063a22cb46514610b3c578063a7485cf114610b5c578063a7c721c514610b7c578063abff011014610b93578063ae501c0414610bb457600080fd5b80639088feba116101c75780639c2ed2451161018b5780639c2ed24514610ab95780639f79234014610ad9578063a07ae16a14610af0578063a1b2a2bc14610b05578063a217fddf14610b2757600080fd5b80639088feba14610a1a57806391d1485414610a5657806393a057cd14610a7657806393de6dc814610a8d57806395d89b4114610aa457600080fd5b806384139c8c1161020e57806384139c8c1461099a5780638456cb59146109ce5780638802255f146109e35780638c824949146109fb5780638caa098614610a0357600080fd5b806370a082311461092157806378d85c4e14610941578063816c42f61461096e5780638240b7771461098557600080fd5b80633b95f00f11610350578063533573fe116102d857806369d85d541161029c57806369d85d54146108645780636c9d3b3a146108915780636e70096e146108bf5780636f2ef95b146108df5780636fcf1e651461090c57600080fd5b8063533573fe146107ce578063588dae3c146107e65780635c975abb1461080657806361d027b31461081e5780636352211e1461084457600080fd5b80634f1ef2861161031f5780634f1ef286146107565780634f6ccce71461076957806351f0a93f14610789578063522c21781461079e57806352d1902d146107b957600080fd5b80633b95f00f146106f65780633f4ba83a1461070e57806342842e0e146107235780634b054fb41461074357600080fd5b80631d143848116103de5780632f2ff15d116103a25780632f2ff15d1461065f5780632f745c591461067f57806336568abe1461069f5780633659cfe6146106bf5780633af8e5eb146106df57600080fd5b80631d143848146105b157806321846c76146105d257806323b872dd146105ef578063248a9ca31461060f5780632a4c03cc1461063f57600080fd5b8063095ea7b311610425578063095ea7b31461050657806312923b651461052857806316bded361461055f57806318160ddd1461057f57806318fc77ae1461059e57600080fd5b806301ffc9a71461046257806305bc64eb1461049757806306fdde03146104b9578063081812fc146104ce57600080fd5b3661045d57005b600080fd5b34801561046e57600080fd5b5061048261047d3660046150fa565b610e1b565b60405190151581526020015b60405180910390f35b3480156104a357600080fd5b506104ac610e2c565b60405161048e919061516f565b3480156104c557600080fd5b506104ac610ebb565b3480156104da57600080fd5b506104ee6104e9366004615182565b610f4d565b6040516001600160a01b03909116815260200161048e565b34801561051257600080fd5b506105266105213660046151b7565b610fe7565b005b34801561053457600080fd5b506104ee610543366004615182565b6101d0602052600090815260409020546001600160a01b031681565b34801561056b57600080fd5b5061052661057a366004615284565b6110fc565b34801561058b57600080fd5b506099545b60405190815260200161048e565b6105266105ac3660046151b7565b61174c565b3480156105bd57600080fd5b506101c9546104ee906001600160a01b031681565b6105da6117ad565b6040805192835260208301919091520161048e565b3480156105fb57600080fd5b5061052661060a36600461536e565b611cb9565b34801561061b57600080fd5b5061059061062a366004615182565b600090815260fb602052604090206001015490565b34801561064b57600080fd5b5061052661065a3660046153aa565b611cea565b34801561066b57600080fd5b5061052661067a3660046153c5565b611d78565b34801561068b57600080fd5b5061059061069a3660046151b7565b611d9e565b3480156106ab57600080fd5b506105266106ba3660046153c5565b611e34565b3480156106cb57600080fd5b506105266106da3660046153aa565b611eb2565b3480156106eb57600080fd5b506105906101c65481565b34801561070257600080fd5b506101d1546105909081565b34801561071a57600080fd5b50610526611f91565b34801561072f57600080fd5b5061052661073e36600461536e565b611fb2565b6105266107513660046151b7565b611fcd565b6105266107643660046153f1565b6123ce565b34801561077557600080fd5b50610590610784366004615182565b61249a565b34801561079557600080fd5b5061059061252d565b3480156107aa57600080fd5b506101d2546104829060ff1681565b3480156107c557600080fd5b506105906125ce565b3480156107da57600080fd5b506101d8546105909081565b3480156107f257600080fd5b506105906108013660046153aa565b612681565b34801561081257600080fd5b5060c95460ff16610482565b34801561082a57600080fd5b506101d2546104ee9061010090046001600160a01b031681565b34801561085057600080fd5b506104ee61085f366004615182565b6127a7565b34801561087057600080fd5b5061088461087f3660046153aa565b61281e565b60405161048e919061543f565b34801561089d57600080fd5b506105906108ac3660046153aa565b6101d96020526000908152604090205481565b3480156108cb57600080fd5b506105266108da366004615182565b6128c0565b3480156108eb57600080fd5b506108ff6108fa366004615182565b612cfe565b60405161048e91906154c3565b34801561091857600080fd5b50610526612d69565b34801561092d57600080fd5b5061059061093c3660046153aa565b612dfe565b34801561094d57600080fd5b5061096161095c366004615182565b612e85565b60405161048e91906154d1565b34801561097a57600080fd5b506105906101ce5481565b34801561099157600080fd5b5061059061305f565b3480156109a657600080fd5b506105907fadfdddb55357a51b30395613329be9f598b4863fca87921f7c811f8eca6cbcbd81565b3480156109da57600080fd5b5061052661310e565b3480156109ef57600080fd5b506101d4546105909081565b61052661312f565b348015610a0f57600080fd5b506105906101cb5481565b348015610a2657600080fd5b50610482610a3536600461555e565b6101db60209081526000928352604080842090915290825290205460ff1681565b348015610a6257600080fd5b50610482610a713660046153c5565b61318d565b348015610a8257600080fd5b506105906101cd5481565b348015610a9957600080fd5b506105906101ca5481565b348015610ab057600080fd5b506104ac6131b8565b348015610ac557600080fd5b50610526610ad436600461558e565b6131c7565b348015610ae557600080fd5b506105906101da5481565b348015610afc57600080fd5b50610526613228565b348015610b1157600080fd5b50610590600080516020615e7783398151915281565b348015610b3357600080fd5b50610590600081565b348015610b4857600080fd5b50610526610b5736600461558e565b613367565b348015610b6857600080fd5b50610590610b77366004615182565b613372565b348015610b8857600080fd5b506105906101d65481565b348015610b9f57600080fd5b506101d5546104ee906001600160a01b031681565b348015610bc057600080fd5b50610c0f610bcf366004615182565b6101d7602052600090815260409020805460018201546002830154600384015460048501546005909501549394929391926001600160a01b039091169186565b604080519687526020870195909552938501929092526001600160a01b03166060840152608083015260a082015260c00161048e565b348015610c5157600080fd5b506104ac613389565b348015610c6657600080fd5b50610526610c753660046155c5565b613397565b348015610c8657600080fd5b506104ac610c95366004615182565b6133cf565b348015610ca657600080fd5b506105906101c75481565b348015610cbd57600080fd5b506104ac613419565b348015610cd257600080fd5b50610526610ce13660046153c5565b613427565b348015610cf257600080fd5b5061059061344d565b348015610d0757600080fd5b50610d10613466565b60405161048e919061562d565b348015610d2957600080fd5b506105906101cc5481565b348015610d4057600080fd5b50610590610d4f3660046153aa565b613569565b348015610d6057600080fd5b50610482610d6f36600461566f565b6001600160a01b039182166000908152606a6020908152604080832093909416825291909152205460ff1690565b348015610da957600080fd5b50610590600080516020615e3783398151915281565b348015610dcb57600080fd5b50610590610dda366004615182565b6101d36020526000908152604090205481565b348015610df957600080fd5b506105906101c85481565b348015610e1057600080fd5b506105906101cf5481565b6000610e2682613622565b92915050565b6101c38054610e3a90615699565b80601f0160208091040260200160405190810160405280929190818152602001828054610e6690615699565b8015610eb35780601f10610e8857610100808354040283529160200191610eb3565b820191906000526020600020905b815481529060010190602001808311610e9657829003601f168201915b505050505081565b606060658054610eca90615699565b80601f0160208091040260200160405190810160405280929190818152602001828054610ef690615699565b8015610f435780601f10610f1857610100808354040283529160200191610f43565b820191906000526020600020905b815481529060010190602001808311610f2657829003601f168201915b5050505050905090565b6000818152606760205260408120546001600160a01b0316610fcb5760405162461bcd60e51b815260206004820152602c60248201527f4552433732313a20617070726f76656420717565727920666f72206e6f6e657860448201526b34b9ba32b73a103a37b5b2b760a11b60648201526084015b60405180910390fd5b506000908152606960205260409020546001600160a01b031690565b6000610ff2826127a7565b9050806001600160a01b0316836001600160a01b03160361105f5760405162461bcd60e51b815260206004820152602160248201527f4552433732313a20617070726f76616c20746f2063757272656e74206f776e656044820152603960f91b6064820152608401610fc2565b336001600160a01b038216148061107b575061107b8133610d6f565b6110ed5760405162461bcd60e51b815260206004820152603860248201527f4552433732313a20617070726f76652063616c6c6572206973206e6f74206f7760448201527f6e6572206e6f7220617070726f76656420666f7220616c6c00000000000000006064820152608401610fc2565b6110f78383613647565b505050565b600054610100900460ff166111175760005460ff161561111b565b303b155b61117e5760405162461bcd60e51b815260206004820152602e60248201527f496e697469616c697a61626c653a20636f6e747261637420697320616c72656160448201526d191e481a5b9a5d1a585b1a5e995960921b6064820152608401610fc2565b600054610100900460ff161580156111a0576000805461ffff19166101011790555b60408051808201909152600780825266125b9cdd185b9d60ca1b60209092019182526111cf916101c391615010565b5060408051808201909152600a808252690c0b8d4b8c0b5c1c9bd960b21b6020909201918252611202916101c491615010565b508a518b908b9060000361124f5760405162461bcd60e51b81526020600482015260146024820152734e616d652063616e6e6f7420626520656d70747960601b6044820152606401610fc2565b80516000036112995760405162461bcd60e51b815260206004820152601660248201527553796d626f6c2063616e6e6f7420626520656d70747960501b6044820152606401610fc2565b8a516000036112ea5760405162461bcd60e51b815260206004820152601e60248201527f4261736520746f6b656e205552492063616e6e6f7420626520656d70747900006044820152606401610fc2565b6305f5e100861061135c5760405162461bcd60e51b815260206004820152603660248201527f5075726368617365207469636b657420666565206d757374206265206c657373604482015275207468616e203130303030303030302028313030252960501b6064820152608401610fc2565b6001600160a01b0388166113be5760405162461bcd60e51b815260206004820152602360248201527f54726561737572792063616e6e6f7420626520746865207a65726f206164647260448201526265737360e81b6064820152608401610fc2565b6001600160a01b03871661141e5760405162461bcd60e51b815260206004820152602160248201527f4973737565722063616e6e6f7420626520746865207a65726f206164647265736044820152607360f81b6064820152608401610fc2565b600089116114805760405162461bcd60e51b815260206004820152602960248201527f4d61782073686172657320736f6c64206d7573742062652067726561746572206044820152687468616e207a65726f60b81b6064820152608401610fc2565b60008a116114e55760405162461bcd60e51b815260206004820152602c60248201527f5461726765742073686172657320736f6c64206d75737420626520677265617460448201526b6572207468616e207a65726f60a01b6064820152608401610fc2565b888a111561155d576040805162461bcd60e51b81526020600482015260248101919091527f5461726765742073686172657320736f6c64206d757374206265206c6573732060448201527f7468616e206f7220657175616c20746f206d61782073686172657320736f6c646064820152608401610fc2565b6001600160a01b0385166115bd5760405162461bcd60e51b815260206004820152602160248201527f42726f6b65722063616e6e6f7420626520746865207a65726f206164647265736044820152607360f81b6064820152608401610fc2565b6001600160a01b0384166116215760405162461bcd60e51b815260206004820152602560248201527f537570657273746166662063616e6e6f7420626520746865207a65726f206164604482015264647265737360d81b6064820152608401610fc2565b61162b8d8d6136b5565b6116336136e6565b61163b61370f565b6116436136e6565b61164b6136e6565b426101c85560126101c681905560086101c75564e8d4a510006101ca556101cb5560006101cf556101cd8a90556101ce8990556101c980546001600160a01b03808a166001600160a01b0319928316179092556101d280548b8416610100026001600160a81b03199091161760011790556101d68890556101d58054928816929091169190911790558a516116e8906101c59060208e0190615010565b50611701600080516020615e378339815191528861373e565b61172b7fadfdddb55357a51b30395613329be9f598b4863fca87921f7c811f8eca6cbcbd8561373e565b5050801561173f576000805461ff00191690555b5050505050505050505050565b6002610191540361176f5760405162461bcd60e51b8152600401610fc2906156cd565b60026101915560c95460ff16156117985760405162461bcd60e51b8152600401610fc290615704565b6117a33383836137c4565b5050600161019155565b600080600261019154036117d35760405162461bcd60e51b8152600401610fc2906156cd565b60026101915560c95460ff16156117fc5760405162461bcd60e51b8152600401610fc290615704565b600034116118575760405162461bcd60e51b815260206004820152602260248201527f5075726368617365206d7573742062652067726561746572207468616e207a65604482015261726f60f01b6064820152608401610fc2565b6101d25461010090046001600160a01b031633036118b75760405162461bcd60e51b815260206004820181905260248201527f54726561737572792063616e6e6f74207075726368617365207469636b6574736044820152606401610fc2565b6101d25460ff1615156001146119355760405162461bcd60e51b815260206004820152603860248201527f5469636b6574732063616e6e6f7420626520707572636861736564206166746560448201527f72207468652066756e6472616973696e6720706572696f6400000000000000006064820152608401610fc2565b60006305f5e1006101d6543461194b9190615744565b6119559190615779565b90506000611963823461578d565b9050600061197082613372565b905061197a61344d565b8111156119ef5760405162461bcd60e51b815260206004820152603d60248201527f4e6f7420656e6f756768207368617265732072656d61696e696e6720746f207060448201527f757263686173652c20747279206120736d616c6c657220616d6f756e740000006064820152608401610fc2565b60006119fb6101d45490565b9050611a0c6101d480546001019055565b60008181526101d3602090815260408083208590556101d1805484526101d090925290912080546001600160a01b0319163317905580546001019055816101cc54611a5791906157a4565b6101cc556101cf54611a6a9084906157a4565b6101cf556101d25460408051308152602081018490529081018490526101009091046001600160a01b03169033907f6a27e1b7df682d1c1dc3b964b500f4dd4c0bfc64128c9a47a8c7ad594301a77a9060600160405180910390a36101d5546101d2546101ca5460408051308152602081018690523481830152606081018890526080810189905260a0810187905260c0810192909252516001600160a01b03938416936101009093049092169133917f3e3034b2cabc46fc365f708d14116816d29867e13940e763b1c3d023f9bcb7eb919081900360e00190a46101d25460405160009161010090046001600160a01b03169085908381818185875af1925050503d8060008114611b98576040519150601f19603f3d011682016040523d82523d6000602084013e611b9d565b606091505b5050905080611bf95760405162461bcd60e51b815260206004820152602260248201527f547265617375727920636f756c64206e6f742072656365697665207061796d656044820152611b9d60f21b6064820152608401610fc2565b6101d5546040516000916001600160a01b03169087908381818185875af1925050503d8060008114611c47576040519150601f19603f3d011682016040523d82523d6000602084013e611c4c565b606091505b5050905080611c9d5760405162461bcd60e51b815260206004820181905260248201527f42726f6b657220636f756c64206e6f742072656365697665207061796d656e746044820152606401610fc2565b611ca73384613acd565b50506001610191559590945092505050565b611cc33382613ae7565b611cdf5760405162461bcd60e51b8152600401610fc2906157bc565b6110f7838383613bda565b60026101915403611d0d5760405162461bcd60e51b8152600401610fc2906156cd565b60026101915560c95460ff1615611d365760405162461bcd60e51b8152600401610fc290615704565b6101d25460ff1615611d5a5760405162461bcd60e51b8152600401610fc29061580d565b6000611d6582612681565b905080156117a3576117a33083836137c4565b600082815260fb6020526040902060010154611d948133613d81565b6110f7838361373e565b6000611da983612dfe565b8210611e0b5760405162461bcd60e51b815260206004820152602b60248201527f455243373231456e756d657261626c653a206f776e657220696e646578206f7560448201526a74206f6620626f756e647360a81b6064820152608401610fc2565b506001600160a01b03919091166000908152609760209081526040808320938352929052205490565b6001600160a01b0381163314611ea45760405162461bcd60e51b815260206004820152602f60248201527f416363657373436f6e74726f6c3a2063616e206f6e6c792072656e6f756e636560448201526e103937b632b9903337b91039b2b63360891b6064820152608401610fc2565b611eae8282613de5565b5050565b6001600160a01b037f0000000000000000000000000000000000000000000000000000000000000000163003611efa5760405162461bcd60e51b8152600401610fc29061585c565b7f00000000000000000000000000000000000000000000000000000000000000006001600160a01b0316611f43600080516020615e57833981519152546001600160a01b031690565b6001600160a01b031614611f695760405162461bcd60e51b8152600401610fc2906158a8565b611f7281613e4c565b60408051600080825260208201909252611f8e91839190613e65565b50565b600080516020615e37833981519152611faa8133613d81565b611f8e613fd0565b6110f783838360405180602001604052806000815250613397565b60026101915403611ff05760405162461bcd60e51b8152600401610fc2906156cd565b60026101915560c95460ff16156120195760405162461bcd60e51b8152600401610fc290615704565b600080516020615e778339815191526120328133613d81565b6001600160a01b0383166120885760405162461bcd60e51b815260206004820152601f60248201527f43616e6e6f74206d696e7420746f20746865207a65726f2061646472657373006044820152606401610fc2565b600082116120cf5760405162461bcd60e51b81526020600482015260146024820152734d757374206d696e742061207175616e7469747960601b6044820152606401610fc2565b60006305f5e1006101d654346120e59190615744565b6120ef9190615779565b905060006120fd823461578d565b9050600061210a82613372565b905061211461344d565b8111156121735760405162461bcd60e51b815260206004820152602760248201527f4e6f7420656e6f756768207368617265732072656d61696e696e6720746f20706044820152667572636861736560c81b6064820152608401610fc2565b806101cc5461218291906157a4565b6101cc556101cf546121959083906157a4565b6101cf556101d5546040516000916001600160a01b03169085908381818185875af1925050503d80600081146121e7576040519150601f19603f3d011682016040523d82523d6000602084013e6121ec565b606091505b505090508061223d5760405162461bcd60e51b815260206004820181905260248201527f42726f6b657220636f756c64206e6f742072656365697665207061796d656e746044820152606401610fc2565b336101d0600061224d6101d15490565b815260200190815260200160002060006101000a8154816001600160a01b0302191690836001600160a01b0316021790555061228e6101d180546001019055565b81600061229b8883615779565b905060005b8881101561234757886122b48260016157a4565b10156122ec57816101d360006122ca6101d45490565b81526020810191909152604001600020556122e5828461578d565b9250612313565b826101d360006122fc6101d45490565b815260200190815260200160002081905550600092505b612326336123216101d45490565b613acd565b6123356101d480546001019055565b8061233f816158f4565b9150506122a0565b506101d2546001600160a01b0361010090910416337f6a27e1b7df682d1c1dc3b964b500f4dd4c0bfc64128c9a47a8c7ad594301a77a30600161238a6101d45490565b612394919061578d565b604080516001600160a01b0390931683526020830191909152810188905260600160405180910390a3505050505050505060016101915550565b6001600160a01b037f00000000000000000000000000000000000000000000000000000000000000001630036124165760405162461bcd60e51b8152600401610fc29061585c565b7f00000000000000000000000000000000000000000000000000000000000000006001600160a01b031661245f600080516020615e57833981519152546001600160a01b031690565b6001600160a01b0316146124855760405162461bcd60e51b8152600401610fc2906158a8565b61248e82613e4c565b611eae82826001613e65565b60006124a560995490565b82106125085760405162461bcd60e51b815260206004820152602c60248201527f455243373231456e756d657261626c653a20676c6f62616c20696e646578206f60448201526b7574206f6620626f756e647360a01b6064820152608401610fc2565b6099828154811061251b5761251b61590d565b90600052602060002001549050919050565b600080805b6101d8548110156125c85760008181526101d76020908152604091829020825160c0810184528154815260018201549281019290925260028101549282019290925260038201546001600160a01b0316606082018190526004830154608083015260059092015460a0820152906125b55760408101516125b290846157a4565b92505b50806125c0816158f4565b915050612532565b50919050565b6000306001600160a01b037f0000000000000000000000000000000000000000000000000000000000000000161461266e5760405162461bcd60e51b815260206004820152603860248201527f555550535570677261646561626c653a206d757374206e6f742062652063616c60448201527f6c6564207468726f7567682064656c656761746563616c6c00000000000000006064820152608401610fc2565b50600080516020615e5783398151915290565b600080805b6101d8548110156127245760008181526101d76020908152604091829020825160c0810184528154815260018201549281019290925260028101549282019290925260038201546001600160a01b03908116606083018190526004840154608084015260059093015460a08301529091908616900361271157608081015161270e90846157a4565b92505b508061271c816158f4565b915050612686565b506040516370a0823160e01b8152306004820152839060009083906001600160a01b038416906370a0823190602401602060405180830381865afa158015612770573d6000803e3d6000fd5b505050506040513d601f19601f820116820180604052508101906127949190615923565b61279e919061578d565b95945050505050565b6000818152606760205260408120546001600160a01b031680610e265760405162461bcd60e51b815260206004820152602960248201527f4552433732313a206f776e657220717565727920666f72206e6f6e657869737460448201526832b73a103a37b5b2b760b91b6064820152608401610fc2565b6060600061282b83612dfe565b905060008167ffffffffffffffff811115612848576128486151e1565b604051908082528060200260200182016040528015612871578160200160208202803683370190505b50905060005b828110156128b8576128898582611d9e565b82828151811061289b5761289b61590d565b6020908102919091010152806128b0816158f4565b915050612877565b509392505050565b600261019154036128e35760405162461bcd60e51b8152600401610fc2906156cd565b60026101915560c95460ff161561290c5760405162461bcd60e51b8152600401610fc290615704565b6101d25460ff161561297d5760405162461bcd60e51b815260206004820152603460248201527f5769746864726177616c732063616e6e6f74206265206d61646520647572696e60448201527319c8199d5b991c985a5cda5b99c81c195c9a5bd960621b6064820152608401610fc2565b33612987826127a7565b6001600160a01b0316146129dd5760405162461bcd60e51b815260206004820152601a60248201527f596f7520646f206e6f74206f776e2074686973207469636b65740000000000006044820152606401610fc2565b60008181526101d36020526040812054905b6101d854811015612cf35760008181526101d760209081526040808320815160c081018352815481526001808301548286015260028301548285015260038301546001600160a01b031660608301526004830154608083015260059092015460a08201528785526101db845282852081518652909352922054909160ff909116151514612ce05760008481526101db60209081526040808320845184529091529020805460ff1916600117905560608101516001600160a01b031615612bb95760006101cc54848360800151612ac59190615744565b612acf9190615779565b8251606084015160405192935033927f981eda60172361092f12c75de05c753d28c928d6fb0b4b6492e685a44265fc0a92612b139230928b9291600091899061593c565b60405180910390a260608201516001600160a01b0381166323b872dd30612b39896127a7565b6040516001600160e01b031960e085901b1681526001600160a01b03928316600482015291166024820152604481018590526064016020604051808303816000875af1158015612b8d573d6000803e3d6000fd5b505050506040513d601f19601f82011682018060405250810190612bb19190615977565b505050612ce0565b60006101cc54848360400151612bcf9190615744565b612bd99190615779565b825160405191925033917f981eda60172361092f12c75de05c753d28c928d6fb0b4b6492e685a44265fc0a91612c199130918a918790600090819061593c565b60405180910390a26000612c2c866127a7565b6001600160a01b03168260405160006040518083038185875af1925050503d8060008114612c76576040519150601f19603f3d011682016040523d82523d6000602084013e612c7b565b606091505b5050905080612cdd5760405162461bcd60e51b815260206004820152602860248201527f5469636b657420686f6c64657220636f756c64206e6f742072656365697665206044820152676561726e696e677360c01b6064820152608401610fc2565b50505b5080612ceb816158f4565b9150506129ef565b505060016101915550565b612d06615090565b5060009081526101d76020908152604091829020825160c0810184528154815260018201549281019290925260028101549282019290925260038201546001600160a01b031660608201526004820154608082015260059091015460a082015290565b60026101915403612d8c5760405162461bcd60e51b8152600401610fc2906156cd565b60026101915560c95460ff1615612db55760405162461bcd60e51b8152600401610fc290615704565b6101d25460ff1615612dd95760405162461bcd60e51b8152600401610fc29061580d565b6000612de361305f565b90508015612df557612df53082614063565b50600161019155565b60006001600160a01b038216612e695760405162461bcd60e51b815260206004820152602a60248201527f4552433732313a2062616c616e636520717565727920666f7220746865207a65604482015269726f206164647265737360b01b6064820152608401610fc2565b506001600160a01b031660009081526068602052604090205490565b60008181526101d36020526040902054606090612ea26101d85490565b67ffffffffffffffff811115612eba57612eba6151e1565b604051908082528060200260200182016040528015612f3657816020015b612f236040518060e0016040528060008152602001600081526020016000151581526020016000815260200160006001600160a01b0316815260200160008152602001600081525090565b815260200190600190039081612ed85790505b50915060005b6101d854811015613058576101cc5460008281526101d76020526040812060020154909190612f6c908590615744565b612f769190615779565b6101cc5460008481526101d7602052604081206004015492935091612f9c908690615744565b612fa69190615779565b6040805160e08101825288815260008681526101d7602081815284832080548286018190528d85526101db835286852090855282528584205460ff161515958501959095526060840188905260038501546001600160a01b0316608085015260a0840186905291889052905260059091015460c082015286519192509081908790869081106130375761303761590d565b60200260200101819052505050508080613050906158f4565b915050612f3c565b5050919050565b600080805b6101d8548110156130fa5760008181526101d76020908152604091829020825160c0810184528154815260018201549281019290925260028101549282019290925260038201546001600160a01b0316606082018190526004830154608083015260059092015460a0820152906130e75760408101516130e490846157a4565b92505b50806130f2816158f4565b915050613064565b506000613107824761578d565b9392505050565b600080516020615e378339815191526131278133613d81565b611f8e614278565b600261019154036131525760405162461bcd60e51b8152600401610fc2906156cd565b60026101915560c95460ff161561317b5760405162461bcd60e51b8152600401610fc290615704565b6131853334614063565b600161019155565b600091825260fb602090815260408084206001600160a01b0393909316845291905290205460ff1690565b606060668054610eca90615699565b7fadfdddb55357a51b30395613329be9f598b4863fca87921f7c811f8eca6cbcbd6131f28133613d81565b8115613210576110f7600080516020615e778339815191528461373e565b6110f7600080516020615e7783398151915284613de5565b600080516020615e378339815191526132418133613d81565b600261019154036132645760405162461bcd60e51b8152600401610fc2906156cd565b60026101915560c95460ff161561328d5760405162461bcd60e51b8152600401610fc290615704565b6101d25460ff1615156001146132f15760405162461bcd60e51b8152602060048201526024808201527f46756e6472616973696e6720706572696f642068617320616c726561647920656044820152631b99195960e21b6064820152608401610fc2565b6101d2805460ff1916908190556101c9546101cf546101cc546040805130815260208101939093528201526101009092046001600160a01b03908116929116907fe06b6479cff265c168ef9764c695105085ad9b91f722c1ea9b57e7b10b82ea299060600160405180910390a350600161019155565b611eae3383836142d0565b6000601281613381848361439e565b949350505050565b6101c58054610e3a90615699565b6133a13383613ae7565b6133bd5760405162461bcd60e51b8152600401610fc2906157bc565b6133c9848484846143e0565b50505050565b606060006133de306014614413565b905060006101c5826133ef866145af565b604051602001613401939291906159b0565b60408051601f19818403018152919052949350505050565b6101c48054610e3a90615699565b600082815260fb60205260409020600101546134438133613d81565b6110f78383613de5565b60006101cc546101ce54613461919061578d565b905090565b60606134726101d85490565b67ffffffffffffffff81111561348a5761348a6151e1565b6040519080825280602002602001820160405280156134c357816020015b6134b0615090565b8152602001906001900390816134a85790505b50905060005b6101d8548110156135655760008181526101d76020908152604091829020825160c0810184528154815260018201549281019290925260028101549282019290925260038201546001600160a01b031660608201526004820154608082015260059091015460a082015282518390839081106135475761354761590d565b6020026020010181905250808061355d906158f4565b9150506134c9565b5090565b600080805b6101d85481101561360c5760008181526101d76020908152604091829020825160c0810184528154815260018201549281019290925260028101549282019290925260038201546001600160a01b03908116606083018190526004840154608084015260059093015460a0830152909190861690036135f95760808101516135f690846157a4565b92505b5080613604816158f4565b91505061356e565b5092915050565b6001600160a01b03163b151590565b60006001600160e01b03198216637965db0b60e01b1480610e265750610e26826146b0565b600081815260696020526040902080546001600160a01b0319166001600160a01b038416908117909155819061367c826127a7565b6001600160a01b03167f8c5be1e5ebec7d5bd14f71427d1e84f3dd0314c0f7b2291e5b200ac8c7c3b92560405160405180910390a45050565b600054610100900460ff166136dc5760405162461bcd60e51b8152600401610fc290615a8a565b611eae82826146d5565b600054610100900460ff1661370d5760405162461bcd60e51b8152600401610fc290615a8a565b565b600054610100900460ff166137365760405162461bcd60e51b8152600401610fc290615a8a565b61370d614723565b613748828261318d565b611eae57600082815260fb602090815260408083206001600160a01b03851684529091529020805460ff191660011790556137803390565b6001600160a01b0316816001600160a01b0316837f2f8788117e7eff1d82e926ec794901d17c78024a50270940304540a733656f0d60405160405180910390a45050565b6101d25460ff16156137e85760405162461bcd60e51b8152600401610fc290615ad5565b60006101cc541161380b5760405162461bcd60e51b8152600401610fc290615b26565b34156138935760405162461bcd60e51b815260206004820152604b60248201527f4465706f73697473206f662065726332302063616e6e6f7420616c736f20696e60448201527f636c756465206e617469766520746f6b656e7320696e207468652073616d652060648201526a3a3930b739b0b1ba34b7b760a91b608482015260a401610fc2565b600081116138b35760405162461bcd60e51b8152600401610fc290615b83565b6001600160a01b03821660009081526101d960205260409020546138d89082906157a4565b6001600160a01b0383811660008181526101d960209081526040808320959095556101d854855160c08101875281815243818401908152818801858152606080840188815260808086018d81524260a0808901918252898c526101d78b528e8c2089518155975160018901559551600288015592516003870180546001600160a01b031916918e1691909117905551600486015590516005909401939093558951308152958601859052858a019690965294840195909552938201879052945192938816927fce3ede2e266c8c5ec60064c2a65ba25bd2899a334c42b39b742129c49b1ef1c4929181900390910190a26139d76101d880546001019055565b60405163095ea7b360e01b81523060048201526024810184905284906001600160a01b0382169063095ea7b3906044016020604051808303816000875af1158015613a26573d6000803e3d6000fd5b505050506040513d601f19601f82011682018060405250810190613a4a9190615977565b506040516323b872dd60e01b81526001600160a01b038781166004830152306024830152604482018690528216906323b872dd906064016020604051808303816000875af1158015613aa0573d6000803e3d6000fd5b505050506040513d601f19601f82011682018060405250810190613ac49190615977565b50505050505050565b611eae828260405180602001604052806000815250614756565b6000818152606760205260408120546001600160a01b0316613b605760405162461bcd60e51b815260206004820152602c60248201527f4552433732313a206f70657261746f7220717565727920666f72206e6f6e657860448201526b34b9ba32b73a103a37b5b2b760a11b6064820152608401610fc2565b6000613b6b836127a7565b9050806001600160a01b0316846001600160a01b03161480613ba65750836001600160a01b0316613b9b84610f4d565b6001600160a01b0316145b8061338157506001600160a01b038082166000908152606a602090815260408083209388168352929052205460ff16613381565b826001600160a01b0316613bed826127a7565b6001600160a01b031614613c515760405162461bcd60e51b815260206004820152602560248201527f4552433732313a207472616e736665722066726f6d20696e636f72726563742060448201526437bbb732b960d91b6064820152608401610fc2565b6001600160a01b038216613cb35760405162461bcd60e51b8152602060048201526024808201527f4552433732313a207472616e7366657220746f20746865207a65726f206164646044820152637265737360e01b6064820152608401610fc2565b613cbe838383614789565b613cc9600082613647565b6001600160a01b0383166000908152606860205260408120805460019290613cf290849061578d565b90915550506001600160a01b0382166000908152606860205260408120805460019290613d209084906157a4565b909155505060008181526067602052604080822080546001600160a01b0319166001600160a01b0386811691821790925591518493918716917fddf252ad1be2c89b69c2b068fc378daa952ba7f163c4a11628f55a4df523b3ef91a4505050565b613d8b828261318d565b611eae57613da3816001600160a01b031660146147b7565b613dae8360206147b7565b604051602001613dbf929190615bc8565b60408051601f198184030181529082905262461bcd60e51b8252610fc29160040161516f565b613def828261318d565b15611eae57600082815260fb602090815260408083206001600160a01b0385168085529252808320805460ff1916905551339285917ff6391f5c32d9c69d2a47ea670b442974b53935d1edc7fd64eb21e047a839171b9190a45050565b600080516020615e37833981519152611eae8133613d81565b7f4910fdfa16fed3260ed0e7147f7cc6da11a60208b5b9406d12a635614ffd91435460ff1615613e98576110f783614904565b826001600160a01b03166352d1902d6040518163ffffffff1660e01b8152600401602060405180830381865afa925050508015613ef2575060408051601f3d908101601f19168201909252613eef91810190615923565b60015b613f555760405162461bcd60e51b815260206004820152602e60248201527f45524331393637557067726164653a206e657720696d706c656d656e7461746960448201526d6f6e206973206e6f74205555505360901b6064820152608401610fc2565b600080516020615e578339815191528114613fc45760405162461bcd60e51b815260206004820152602960248201527f45524331393637557067726164653a20756e737570706f727465642070726f786044820152681a58589b195555525160ba1b6064820152608401610fc2565b506110f78383836149a0565b60c95460ff166140195760405162461bcd60e51b815260206004820152601460248201527314185d5cd8589b194e881b9bdd081c185d5cd95960621b6044820152606401610fc2565b60c9805460ff191690557f5db9ee0a495bf2e6ff9c91a7834c1ba4fdd244a5e8aa4e537bd38aeae4b073aa335b6040516001600160a01b03909116815260200160405180910390a1565b6101d25460ff16156140875760405162461bcd60e51b8152600401610fc290615ad5565b60006101cc54116140aa5760405162461bcd60e51b8152600401610fc290615b26565b600081116140ca5760405162461bcd60e51b8152600401610fc290615b83565b806101da546140d991906157a4565b6101da5560006140e96101d85490565b6040805160c0810182528281524360208083019182528284018781526000606080860182815260808088018481524260a0808b019182528c87526101d789528b87208b518155995160018b0155965160028a015592516003890180546001600160a01b0319166001600160a01b0392831617905590516004890155915160059097019690965587513081529485018990529684018a90528301819052928201929092529394509092918616917fce3ede2e266c8c5ec60064c2a65ba25bd2899a334c42b39b742129c49b1ef1c4910160405180910390a26141cf6101d880546001019055565b604051600090309085908381818185875af1925050503d8060008114614211576040519150601f19603f3d011682016040523d82523d6000602084013e614216565b606091505b50509050806142715760405162461bcd60e51b815260206004820152602160248201527f4c6f6f74626f7820636f756c64206e6f742072656365697665207061796d656e6044820152601d60fa1b6064820152608401610fc2565b5050505050565b60c95460ff161561429b5760405162461bcd60e51b8152600401610fc290615704565b60c9805460ff191660011790557f62e78cea01bee320cd4e420270b5ea74000d11b0c9f74754ebdbfc544b05a2586140463390565b816001600160a01b0316836001600160a01b0316036143315760405162461bcd60e51b815260206004820152601960248201527f4552433732313a20617070726f766520746f2063616c6c6572000000000000006044820152606401610fc2565b6001600160a01b038381166000818152606a6020908152604080832094871680845294825291829020805460ff191686151590811790915591519182527f17307eab39ab6107e8899845ad3d59bd9653f200f220920489ca2b5937696c31910160405180910390a3505050565b60006101ca54826101cb546101c6546143b791906157a4565b6143c1919061578d565b6143cc90600a615d21565b6143d69085615744565b6131079190615779565b6143eb848484613bda565b6143f7848484846149c5565b6133c95760405162461bcd60e51b8152600401610fc290615d2d565b60606000614422836002615744565b61442d9060026157a4565b67ffffffffffffffff811115614445576144456151e1565b6040519080825280601f01601f19166020018201604052801561446f576020820181803683370190505b509050600360fc1b8160008151811061448a5761448a61590d565b60200101906001600160f81b031916908160001a905350600f60fb1b816001815181106144b9576144b961590d565b60200101906001600160f81b031916908160001a90535060006144dd846002615744565b6144e89060016157a4565b90505b6001811115614560576f181899199a1a9b1b9c1cb0b131b232b360811b85600f166010811061451c5761451c61590d565b1a60f81b8282815181106145325761453261590d565b60200101906001600160f81b031916908160001a90535060049490941c9361455981615d7f565b90506144eb565b5083156131075760405162461bcd60e51b815260206004820181905260248201527f537472696e67733a20686578206c656e67746820696e73756666696369656e746044820152606401610fc2565b6060816000036145d65750506040805180820190915260018152600360fc1b602082015290565b8160005b811561460057806145ea816158f4565b91506145f99050600a83615779565b91506145da565b60008167ffffffffffffffff81111561461b5761461b6151e1565b6040519080825280601f01601f191660200182016040528015614645576020820181803683370190505b5090505b84156133815761465a60018361578d565b9150614667600a86615d96565b6146729060306157a4565b60f81b8183815181106146875761468761590d565b60200101906001600160f81b031916908160001a9053506146a9600a86615779565b9450614649565b60006001600160e01b0319821663780e9d6360e01b1480610e265750610e2682614ac6565b600054610100900460ff166146fc5760405162461bcd60e51b8152600401610fc290615a8a565b815161470f906065906020850190615010565b5080516110f7906066906020840190615010565b600054610100900460ff1661474a5760405162461bcd60e51b8152600401610fc290615a8a565b60c9805460ff19169055565b6147608383614b16565b61476d60008484846149c5565b6110f75760405162461bcd60e51b8152600401610fc290615d2d565b60c95460ff16156147ac5760405162461bcd60e51b8152600401610fc290615704565b6110f7838383614c64565b606060006147c6836002615744565b6147d19060026157a4565b67ffffffffffffffff8111156147e9576147e96151e1565b6040519080825280601f01601f191660200182016040528015614813576020820181803683370190505b509050600360fc1b8160008151811061482e5761482e61590d565b60200101906001600160f81b031916908160001a905350600f60fb1b8160018151811061485d5761485d61590d565b60200101906001600160f81b031916908160001a9053506000614881846002615744565b61488c9060016157a4565b90505b6001811115614560576f181899199a1a9b1b9c1cb0b131b232b360811b85600f16601081106148c0576148c061590d565b1a60f81b8282815181106148d6576148d661590d565b60200101906001600160f81b031916908160001a90535060049490941c936148fd81615d7f565b905061488f565b6001600160a01b0381163b6149715760405162461bcd60e51b815260206004820152602d60248201527f455243313936373a206e657720696d706c656d656e746174696f6e206973206e60448201526c1bdd08184818dbdb9d1c9858dd609a1b6064820152608401610fc2565b600080516020615e5783398151915280546001600160a01b0319166001600160a01b0392909216919091179055565b6149a983614d1c565b6000825111806149b65750805b156110f7576133c98383614d5c565b60006001600160a01b0384163b15614abb57604051630a85bd0160e11b81526001600160a01b0385169063150b7a0290614a09903390899088908890600401615daa565b6020604051808303816000875af1925050508015614a44575060408051601f3d908101601f19168201909252614a4191810190615de7565b60015b614aa1573d808015614a72576040519150601f19603f3d011682016040523d82523d6000602084013e614a77565b606091505b508051600003614a995760405162461bcd60e51b8152600401610fc290615d2d565b805181602001fd5b6001600160e01b031916630a85bd0160e11b149050613381565b506001949350505050565b60006001600160e01b031982166380ac58cd60e01b1480614af757506001600160e01b03198216635b5e139f60e01b145b80610e2657506301ffc9a760e01b6001600160e01b0319831614610e26565b6001600160a01b038216614b6c5760405162461bcd60e51b815260206004820181905260248201527f4552433732313a206d696e7420746f20746865207a65726f20616464726573736044820152606401610fc2565b6000818152606760205260409020546001600160a01b031615614bd15760405162461bcd60e51b815260206004820152601c60248201527f4552433732313a20746f6b656e20616c7265616479206d696e746564000000006044820152606401610fc2565b614bdd60008383614789565b6001600160a01b0382166000908152606860205260408120805460019290614c069084906157a4565b909155505060008181526067602052604080822080546001600160a01b0319166001600160a01b03861690811790915590518392907fddf252ad1be2c89b69c2b068fc378daa952ba7f163c4a11628f55a4df523b3ef908290a45050565b6001600160a01b038316614cbf57614cba81609980546000838152609a60205260408120829055600182018355919091527f72a152ddfb8e864297c917af52ea6c1c68aead0fee1a62673fcc7e0c94979d000155565b614ce2565b816001600160a01b0316836001600160a01b031614614ce257614ce28382614e47565b6001600160a01b038216614cf9576110f781614ee4565b826001600160a01b0316826001600160a01b0316146110f7576110f78282614f93565b614d2581614904565b6040516001600160a01b038216907fbc7cd75a20ee27fd9adebab32041f755214dbc6bffa90cc0225b39da2e5c2d3b90600090a250565b60606001600160a01b0383163b614dc45760405162461bcd60e51b815260206004820152602660248201527f416464726573733a2064656c65676174652063616c6c20746f206e6f6e2d636f6044820152651b9d1c9858dd60d21b6064820152608401610fc2565b600080846001600160a01b031684604051614ddf9190615e04565b600060405180830381855af49150503d8060008114614e1a576040519150601f19603f3d011682016040523d82523d6000602084013e614e1f565b606091505b509150915061279e8282604051806060016040528060278152602001615e9760279139614fd7565b60006001614e5484612dfe565b614e5e919061578d565b600083815260986020526040902054909150808214614eb1576001600160a01b03841660009081526097602090815260408083208584528252808320548484528184208190558352609890915290208190555b5060009182526098602090815260408084208490556001600160a01b039094168352609781528383209183525290812055565b609954600090614ef69060019061578d565b6000838152609a602052604081205460998054939450909284908110614f1e57614f1e61590d565b906000526020600020015490508060998381548110614f3f57614f3f61590d565b6000918252602080832090910192909255828152609a90915260408082208490558582528120556099805480614f7757614f77615e20565b6001900381819060005260206000200160009055905550505050565b6000614f9e83612dfe565b6001600160a01b039093166000908152609760209081526040808320868452825280832085905593825260989052919091209190915550565b60608315614fe6575081613107565b825115614ff65782518084602001fd5b8160405162461bcd60e51b8152600401610fc2919061516f565b82805461501c90615699565b90600052602060002090601f01602090048101928261503e5760008555615084565b82601f1061505757805160ff1916838001178555615084565b82800160010185558215615084579182015b82811115615084578251825591602001919060010190615069565b506135659291506150cf565b6040518060c0016040528060008152602001600081526020016000815260200160006001600160a01b0316815260200160008152602001600081525090565b5b8082111561356557600081556001016150d0565b6001600160e01b031981168114611f8e57600080fd5b60006020828403121561510c57600080fd5b8135613107816150e4565b60005b8381101561513257818101518382015260200161511a565b838111156133c95750506000910152565b6000815180845261515b816020860160208601615117565b601f01601f19169290920160200192915050565b6020815260006131076020830184615143565b60006020828403121561519457600080fd5b5035919050565b80356001600160a01b03811681146151b257600080fd5b919050565b600080604083850312156151ca57600080fd5b6151d38361519b565b946020939093013593505050565b634e487b7160e01b600052604160045260246000fd5b600082601f83011261520857600080fd5b813567ffffffffffffffff80821115615223576152236151e1565b604051601f8301601f19908116603f0116810190828211818310171561524b5761524b6151e1565b8160405283815286602085880101111561526457600080fd5b836020870160208301376000602085830101528094505050505092915050565b6000806000806000806000806000806101408b8d0312156152a457600080fd5b8a3567ffffffffffffffff808211156152bc57600080fd5b6152c88e838f016151f7565b9b5060208d01359150808211156152de57600080fd5b6152ea8e838f016151f7565b9a5060408d013591508082111561530057600080fd5b5061530d8d828e016151f7565b98505060608b0135965060808b0135955061532a60a08c0161519b565b945061533860c08c0161519b565b935060e08b0135925061534e6101008c0161519b565b915061535d6101208c0161519b565b90509295989b9194979a5092959850565b60008060006060848603121561538357600080fd5b61538c8461519b565b925061539a6020850161519b565b9150604084013590509250925092565b6000602082840312156153bc57600080fd5b6131078261519b565b600080604083850312156153d857600080fd5b823591506153e86020840161519b565b90509250929050565b6000806040838503121561540457600080fd5b61540d8361519b565b9150602083013567ffffffffffffffff81111561542957600080fd5b615435858286016151f7565b9150509250929050565b6020808252825182820181905260009190848201906040850190845b818110156154775783518352928401929184019160010161545b565b50909695505050505050565b8051825260208082015190830152604080820151908301526060808201516001600160a01b0316908301526080808201519083015260a090810151910152565b60c08101610e268284615483565b602080825282518282018190526000919060409081850190868401855b8281101561555157815180518552868101518786015285810151151586860152606080820151908601526080808201516001600160a01b03169086015260a0808201519086015260c0908101519085015260e090930192908501906001016154ee565b5091979650505050505050565b6000806040838503121561557157600080fd5b50508035926020909101359150565b8015158114611f8e57600080fd5b600080604083850312156155a157600080fd5b6155aa8361519b565b915060208301356155ba81615580565b809150509250929050565b600080600080608085870312156155db57600080fd5b6155e48561519b565b93506155f26020860161519b565b925060408501359150606085013567ffffffffffffffff81111561561557600080fd5b615621878288016151f7565b91505092959194509250565b6020808252825182820181905260009190848201906040850190845b818110156154775761565c838551615483565b9284019260c09290920191600101615649565b6000806040838503121561568257600080fd5b61568b8361519b565b91506153e86020840161519b565b600181811c908216806156ad57607f821691505b6020821081036125c857634e487b7160e01b600052602260045260246000fd5b6020808252601f908201527f5265656e7472616e637947756172643a207265656e7472616e742063616c6c00604082015260600190565b60208082526010908201526f14185d5cd8589b194e881c185d5cd95960821b604082015260600190565b634e487b7160e01b600052601160045260246000fd5b600081600019048311821515161561575e5761575e61572e565b500290565b634e487b7160e01b600052601260045260246000fd5b60008261578857615788615763565b500490565b60008282101561579f5761579f61572e565b500390565b600082198211156157b7576157b761572e565b500190565b60208082526031908201527f4552433732313a207472616e736665722063616c6c6572206973206e6f74206f6040820152701ddb995c881b9bdc88185c1c1c9bdd9959607a1b606082015260800190565b6020808252602f908201527f5265736375652063616e6e6f74206265206d61646520647572696e672066756e60408201526e191c985a5cda5b99c81c195c9a5bd9608a1b606082015260800190565b6020808252602c908201527f46756e6374696f6e206d7573742062652063616c6c6564207468726f7567682060408201526b19195b1959d85d1958d85b1b60a21b606082015260800190565b6020808252602c908201527f46756e6374696f6e206d7573742062652063616c6c6564207468726f7567682060408201526b6163746976652070726f787960a01b606082015260800190565b6000600182016159065761590661572e565b5060010190565b634e487b7160e01b600052603260045260246000fd5b60006020828403121561593557600080fd5b5051919050565b6001600160a01b039687168152602081019590955260408501939093526060840191909152909216608082015260a081019190915260c00190565b60006020828403121561598957600080fd5b815161310781615580565b600081516159a6818560208601615117565b9290920192915050565b600080855481600182811c9150808316806159cc57607f831692505b602080841082036159eb57634e487b7160e01b86526022600452602486fd5b8180156159ff5760018114615a1057615a3d565b60ff19861689528489019650615a3d565b60008c81526020902060005b86811015615a355781548b820152908501908301615a1c565b505084890196505b5050602f60f81b855250615a5381850189615994565b602f60f81b81529350615a6881850188615994565b9350505050615a7e8164173539b7b760d91b9052565b60050195945050505050565b6020808252602b908201527f496e697469616c697a61626c653a20636f6e7472616374206973206e6f74206960408201526a6e697469616c697a696e6760a81b606082015260800190565b60208082526031908201527f4465706f736974732063616e6e6f74206265206d61646520647572696e6720666040820152701d5b991c985a5cda5b99c81c195c9a5bd9607a1b606082015260800190565b60208082526037908201527f4e6f207368617265732068617665206265656e20736f6c642e204465706f736960408201527f74732077696c6c206e6f74206265206163636570746564000000000000000000606082015260800190565b60208082526025908201527f4465706f73697420616d6f756e74206d75737420626520677265617465722074604082015264068616e20360dc1b606082015260800190565b7f416363657373436f6e74726f6c3a206163636f756e7420000000000000000000815260008351615c00816017850160208801615117565b7001034b99036b4b9b9b4b733903937b6329607d1b6017918401918201528351615c31816028840160208801615117565b01602801949350505050565b600181815b80851115615c78578160001904821115615c5e57615c5e61572e565b80851615615c6b57918102915b93841c9390800290615c42565b509250929050565b600082615c8f57506001610e26565b81615c9c57506000610e26565b8160018114615cb25760028114615cbc57615cd8565b6001915050610e26565b60ff841115615ccd57615ccd61572e565b50506001821b610e26565b5060208310610133831016604e8410600b8410161715615cfb575081810a610e26565b615d058383615c3d565b8060001904821115615d1957615d1961572e565b029392505050565b60006131078383615c80565b60208082526032908201527f4552433732313a207472616e7366657220746f206e6f6e20455243373231526560408201527131b2b4bb32b91034b6b83632b6b2b73a32b960711b606082015260800190565b600081615d8e57615d8e61572e565b506000190190565b600082615da557615da5615763565b500690565b6001600160a01b0385811682528416602082015260408101839052608060608201819052600090615ddd90830184615143565b9695505050505050565b600060208284031215615df957600080fd5b8151613107816150e4565b60008251615e16818460208701615117565b9190910192915050565b634e487b7160e01b600052603160045260246000fdfe3b5d4cc60d3ec3516ee8ae083bd60934f6eb2a6c54b1229985c41bfb092b2603360894a13ba1a3210667c828492db98dca3e2076cc3735a920a3ca505d382bbc5b66ba6c89bff8e7fd4e7050b9174d7e57d4f17942bf4186aa7566b5a93c8ffd416464726573733a206c6f772d6c6576656c2064656c65676174652063616c6c206661696c6564a2646970667358221220cb15e1af7950742715375f40e32c0c38de32e6e09b071814ca2883241b94da2964736f6c634300080d0033",
  "linkReferences": {},
  "deployedLinkReferences": {}
}