{
  "_format": "hh-sol-artifact-1",
  "contractName": "LootboxEscrowFactory",
  "sourceName": "contracts/LootboxEscrowFactory.sol",
  "abi": [
    {
      "inputs": [
        {
          "internalType": "address",
          "name": "_lootboxDao",
          "type": "address"
        },
        {
          "internalType": "uint256",
          "name": "_ticketPurchaseFee",
          "type": "uint256"
        },
        {
          "internalType": "address",
          "name": "_brokerAddress",
          "type": "address"
        },
        {
          "internalType": "string",
          "name": "_baseTokenURI",
          "type": "string"
        }
      ],
      "stateMutability": "nonpayable",
      "type": "constructor"
    },
    {
      "anonymous": false,
      "inputs": [
        {
          "indexed": false,
          "internalType": "string",
          "name": "lootboxName",
          "type": "string"
        },
        {
          "indexed": true,
          "internalType": "address",
          "name": "lootbox",
          "type": "address"
        },
        {
          "indexed": true,
          "internalType": "address",
          "name": "issuer",
          "type": "address"
        },
        {
          "indexed": true,
          "internalType": "address",
          "name": "treasury",
          "type": "address"
        },
        {
          "indexed": false,
          "internalType": "uint256",
          "name": "targetSharesSold",
          "type": "uint256"
        },
        {
          "indexed": false,
          "internalType": "uint256",
          "name": "maxSharesSold",
          "type": "uint256"
        },
        {
          "indexed": false,
          "internalType": "string",
          "name": "_data",
          "type": "string"
        }
      ],
      "name": "LootboxCreated",
      "type": "event"
    },
    {
      "anonymous": false,
      "inputs": [
        {
          "indexed": false,
          "internalType": "address",
          "name": "account",
          "type": "address"
        }
      ],
      "name": "Paused",
      "type": "event"
    },
    {
      "anonymous": false,
      "inputs": [
        {
          "indexed": true,
          "internalType": "bytes32",
          "name": "role",
          "type": "bytes32"
        },
        {
          "indexed": true,
          "internalType": "bytes32",
          "name": "previousAdminRole",
          "type": "bytes32"
        },
        {
          "indexed": true,
          "internalType": "bytes32",
          "name": "newAdminRole",
          "type": "bytes32"
        }
      ],
      "name": "RoleAdminChanged",
      "type": "event"
    },
    {
      "anonymous": false,
      "inputs": [
        {
          "indexed": true,
          "internalType": "bytes32",
          "name": "role",
          "type": "bytes32"
        },
        {
          "indexed": true,
          "internalType": "address",
          "name": "account",
          "type": "address"
        },
        {
          "indexed": true,
          "internalType": "address",
          "name": "sender",
          "type": "address"
        }
      ],
      "name": "RoleGranted",
      "type": "event"
    },
    {
      "anonymous": false,
      "inputs": [
        {
          "indexed": true,
          "internalType": "bytes32",
          "name": "role",
          "type": "bytes32"
        },
        {
          "indexed": true,
          "internalType": "address",
          "name": "account",
          "type": "address"
        },
        {
          "indexed": true,
          "internalType": "address",
          "name": "sender",
          "type": "address"
        }
      ],
      "name": "RoleRevoked",
      "type": "event"
    },
    {
      "anonymous": false,
      "inputs": [
        {
          "indexed": false,
          "internalType": "address",
          "name": "account",
          "type": "address"
        }
      ],
      "name": "Unpaused",
      "type": "event"
    },
    {
      "inputs": [],
      "name": "DAO_ROLE",
      "outputs": [
        {
          "internalType": "bytes32",
          "name": "",
          "type": "bytes32"
        }
      ],
      "stateMutability": "view",
      "type": "function"
    },
    {
      "inputs": [],
      "name": "DEFAULT_ADMIN_ROLE",
      "outputs": [
        {
          "internalType": "bytes32",
          "name": "",
          "type": "bytes32"
        }
      ],
      "stateMutability": "view",
      "type": "function"
    },
    {
      "inputs": [],
      "name": "baseTokenURI",
      "outputs": [
        {
          "internalType": "string",
          "name": "",
          "type": "string"
        }
      ],
      "stateMutability": "view",
      "type": "function"
    },
    {
      "inputs": [],
      "name": "brokerAddress",
      "outputs": [
        {
          "internalType": "address",
          "name": "",
          "type": "address"
        }
      ],
      "stateMutability": "view",
      "type": "function"
    },
    {
      "inputs": [
        {
          "internalType": "string",
          "name": "_lootboxName",
          "type": "string"
        },
        {
          "internalType": "string",
          "name": "_lootboxSymbol",
          "type": "string"
        },
        {
          "internalType": "uint256",
          "name": "_targetSharesSold",
          "type": "uint256"
        },
        {
          "internalType": "uint256",
          "name": "_maxSharesSold",
          "type": "uint256"
        },
        {
          "internalType": "address",
          "name": "_treasury",
          "type": "address"
        },
        {
          "internalType": "string",
          "name": "_data",
          "type": "string"
        }
      ],
      "name": "createLootbox",
      "outputs": [
        {
          "internalType": "address",
          "name": "_lootbox",
          "type": "address"
        }
      ],
      "stateMutability": "nonpayable",
      "type": "function"
    },
    {
      "inputs": [
        {
          "internalType": "bytes32",
          "name": "role",
          "type": "bytes32"
        }
      ],
      "name": "getRoleAdmin",
      "outputs": [
        {
          "internalType": "bytes32",
          "name": "",
          "type": "bytes32"
        }
      ],
      "stateMutability": "view",
      "type": "function"
    },
    {
      "inputs": [
        {
          "internalType": "bytes32",
          "name": "role",
          "type": "bytes32"
        },
        {
          "internalType": "address",
          "name": "account",
          "type": "address"
        }
      ],
      "name": "grantRole",
      "outputs": [],
      "stateMutability": "nonpayable",
      "type": "function"
    },
    {
      "inputs": [
        {
          "internalType": "bytes32",
          "name": "role",
          "type": "bytes32"
        },
        {
          "internalType": "address",
          "name": "account",
          "type": "address"
        }
      ],
      "name": "hasRole",
      "outputs": [
        {
          "internalType": "bool",
          "name": "",
          "type": "bool"
        }
      ],
      "stateMutability": "view",
      "type": "function"
    },
    {
      "inputs": [],
      "name": "lootboxImplementation",
      "outputs": [
        {
          "internalType": "address",
          "name": "",
          "type": "address"
        }
      ],
      "stateMutability": "view",
      "type": "function"
    },
    {
      "inputs": [],
      "name": "pause",
      "outputs": [],
      "stateMutability": "nonpayable",
      "type": "function"
    },
    {
      "inputs": [],
      "name": "paused",
      "outputs": [
        {
          "internalType": "bool",
          "name": "",
          "type": "bool"
        }
      ],
      "stateMutability": "view",
      "type": "function"
    },
    {
      "inputs": [
        {
          "internalType": "bytes32",
          "name": "role",
          "type": "bytes32"
        },
        {
          "internalType": "address",
          "name": "account",
          "type": "address"
        }
      ],
      "name": "renounceRole",
      "outputs": [],
      "stateMutability": "nonpayable",
      "type": "function"
    },
    {
      "inputs": [
        {
          "internalType": "bytes32",
          "name": "role",
          "type": "bytes32"
        },
        {
          "internalType": "address",
          "name": "account",
          "type": "address"
        }
      ],
      "name": "revokeRole",
      "outputs": [],
      "stateMutability": "nonpayable",
      "type": "function"
    },
    {
      "inputs": [],
      "name": "semver",
      "outputs": [
        {
          "internalType": "string",
          "name": "",
          "type": "string"
        }
      ],
      "stateMutability": "view",
      "type": "function"
    },
    {
      "inputs": [
        {
          "internalType": "bytes4",
          "name": "interfaceId",
          "type": "bytes4"
        }
      ],
      "name": "supportsInterface",
      "outputs": [
        {
          "internalType": "bool",
          "name": "",
          "type": "bool"
        }
      ],
      "stateMutability": "view",
      "type": "function"
    },
    {
      "inputs": [],
      "name": "ticketPurchaseFee",
      "outputs": [
        {
          "internalType": "uint256",
          "name": "",
          "type": "uint256"
        }
      ],
      "stateMutability": "view",
      "type": "function"
    },
    {
      "inputs": [],
      "name": "unpause",
      "outputs": [],
      "stateMutability": "nonpayable",
      "type": "function"
    },
    {
      "inputs": [],
      "name": "viewLootboxes",
      "outputs": [
        {
          "internalType": "bytes32[]",
          "name": "",
          "type": "bytes32[]"
        }
      ],
      "stateMutability": "view",
      "type": "function"
    }
  ],
  "bytecode": "0x60e06040523480156200001157600080fd5b506040516200805c3803806200805c833981016040819052620000349162000405565b6000805460ff191690556001600160a01b038416620000a55760405162461bcd60e51b815260206004820152602260248201527f44414f204c6f6f74626f7820616464726573732063616e6e6f74206265207a65604482015261726f60f01b60648201526084015b60405180910390fd5b6001600160a01b038216620000fd5760405162461bcd60e51b815260206004820152601d60248201527f42726f6b657220616464726573732063616e6e6f74206265207a65726f00000060448201526064016200009c565b6305f5e1008310620001785760405162461bcd60e51b815260206004820152603660248201527f5075726368617365207469636b657420666565206d757374206265206c65737360448201527f207468616e20313030303030303030202831303025290000000000000000000060648201526084016200009c565b8051600003620001cb5760405162461bcd60e51b815260206004820152601e60248201527f4261736520746f6b656e205552492063616e6e6f7420626520656d707479000060448201526064016200009c565b604051620001d9906200031e565b604051809103906000f080158015620001f6573d6000803e3d6000fd5b506001600160a01b03166080526200022f7f3b5d4cc60d3ec3516ee8ae083bd60934f6eb2a6c54b1229985c41bfb092b26038562000295565b60a08390526001600160a01b03821660c0528051620002569060039060208401906200032c565b5060408051808201909152600a808252690c0b8d0b8c0b5c1c9bd960b21b60209092019182526200028a916002916200032c565b50505050506200054d565b60008281526001602090815260408083206001600160a01b038516845290915290205460ff166200031a5760008281526001602081815260408084206001600160a01b0386168086529252808420805460ff19169093179092559051339285917f2f8788117e7eff1d82e926ec794901d17c78024a50270940304540a733656f0d9190a45b5050565b615ed7806200218583390190565b8280546200033a9062000511565b90600052602060002090601f0160209004810192826200035e5760008555620003a9565b82601f106200037957805160ff1916838001178555620003a9565b82800160010185558215620003a9579182015b82811115620003a95782518255916020019190600101906200038c565b50620003b7929150620003bb565b5090565b5b80821115620003b75760008155600101620003bc565b80516001600160a01b0381168114620003ea57600080fd5b919050565b634e487b7160e01b600052604160045260246000fd5b600080600080608085870312156200041c57600080fd5b6200042785620003d2565b935060208086015193506200043f60408701620003d2565b60608701519093506001600160401b03808211156200045d57600080fd5b818801915088601f8301126200047257600080fd5b815181811115620004875762000487620003ef565b604051601f8201601f19908116603f01168101908382118183101715620004b257620004b2620003ef565b816040528281528b86848701011115620004cb57600080fd5b600093505b82841015620004ef5784840186015181850187015292850192620004d0565b82841115620005015760008684830101525b989b979a50959850505050505050565b600181811c908216806200052657607f821691505b6020821081036200054757634e487b7160e01b600052602260045260246000fd5b50919050565b60805160a05160c051611bf3620005926000396000818161024501526106b20152600081816102a3015261069101526000818161017d01526106600152611bf36000f3fe60806040523480156200001157600080fd5b50600436106200012d5760003560e01c80635c975abb11620000af578063a7c721c5116200007a578063a7c721c5146200029d578063cda493c814620002c5578063d547741f14620002de578063d547cfb714620002f5578063e9c2651814620002ff57600080fd5b80635c975abb14620002675780638456cb59146200027357806391d14854146200027d578063a217fddf146200029457600080fd5b8063248a9ca311620000fc578063248a9ca314620001cf5780632f2ff15d146200020557806336568abe146200021e5780633f4ba83a14620002355780635089f796146200023f57600080fd5b806301ffc9a7146200013257806317088631146200015e57806319dd565714620001775780631aed9ea314620001b8575b600080fd5b620001496200014336600462000e7d565b62000327565b60405190151581526020015b60405180910390f35b620001686200035f565b60405162000155919062000ea9565b6200019f7f000000000000000000000000000000000000000000000000000000000000000081565b6040516001600160a01b03909116815260200162000155565b6200019f620001c936600462000fb7565b620003b8565b620001f6620001e03660046200106e565b6000908152600160208190526040909120015490565b60405190815260200162000155565b6200021c6200021636600462001088565b620007cd565b005b6200021c6200022f36600462001088565b620007fd565b6200021c6200087f565b6200019f7f000000000000000000000000000000000000000000000000000000000000000081565b60005460ff1662000149565b6200021c620008b9565b620001496200028e36600462001088565b620008f0565b620001f6600081565b620001f67f000000000000000000000000000000000000000000000000000000000000000081565b620002cf6200091b565b60405162000155919062001118565b6200021c620002ef36600462001088565b620009b1565b620002cf620009dc565b620001f67f3b5d4cc60d3ec3516ee8ae083bd60934f6eb2a6c54b1229985c41bfb092b260381565b60006001600160e01b03198216637965db0b60e01b14806200035957506301ffc9a760e01b6001600160e01b03198316145b92915050565b600480546040805160208084028201810190925282815260609390929091830182828015620003ae57602002820191906000526020600020905b81548152602001906001019080831162000399575b5050505050905090565b6000805460ff1615620004055760405162461bcd60e51b815260206004820152601060248201526f14185d5cd8589b194e881c185d5cd95960821b60448201526064015b60405180910390fd5b8651600003620004585760405162461bcd60e51b815260206004820152601c60248201527f4c6f6f74626f78206e616d652063616e6e6f7420626520656d707479000000006044820152606401620003fc565b8551600003620004ab5760405162461bcd60e51b815260206004820152601e60248201527f4c6f6f74626f782073796d626f6c2063616e6e6f7420626520656d70747900006044820152606401620003fc565b60008511620005125760405162461bcd60e51b815260206004820152602c60248201527f5461726765742073686172657320736f6c64206d75737420626520677265617460448201526b6572207468616e207a65726f60a01b6064820152608401620003fc565b60008411620005765760405162461bcd60e51b815260206004820152602960248201527f4d61782073686172657320736f6c64206d7573742062652067726561746572206044820152687468616e207a65726f60b81b6064820152608401620003fc565b84841015620005fa5760405162461bcd60e51b815260206004820152604360248201527f4d61782073686172657320736f6c64206d75737420626520677265617465722060448201527f7468616e206f7220657175616c20746f207461726765742073686172657320736064820152621bdb1960ea1b608482015260a401620003fc565b6001600160a01b0383166200065c5760405162461bcd60e51b815260206004820152602160248201527f54726561737572792061646472657373206d7573742062652070726f766964656044820152601960fa1b6064820152608401620003fc565b60007f0000000000000000000000000000000000000000000000000000000000000000633c449e0060e01b898960038a8a8a337f00000000000000000000000000000000000000000000000000000000000000007f0000000000000000000000000000000000000000000000000000000000000000604051602401620006eb9998979695949392919062001169565b60408051601f198184030181529181526020820180516001600160e01b03166001600160e01b03199094169390931790925290516200072a9062000e6f565b62000737929190620012a2565b604051809103906000f08015801562000754573d6000803e3d6000fd5b50905062000764600482620009eb565b50836001600160a01b0316336001600160a01b0316826001600160a01b03167ff39d14fa0aa07a94a72c62bae5fb327d547a62865bdd8fcfa9c5223107c35a7c8b8a8a89604051620007ba9493929190620012d0565b60405180910390a4979650505050505050565b60008281526001602081905260409091200154620007ec813362000a09565b620007f8838362000a78565b505050565b6001600160a01b03811633146200086f5760405162461bcd60e51b815260206004820152602f60248201527f416363657373436f6e74726f6c3a2063616e206f6e6c792072656e6f756e636560448201526e103937b632b9903337b91039b2b63360891b6064820152608401620003fc565b6200087b828262000ae6565b5050565b7f3b5d4cc60d3ec3516ee8ae083bd60934f6eb2a6c54b1229985c41bfb092b2603620008ac813362000a09565b620008b662000b50565b50565b7f3b5d4cc60d3ec3516ee8ae083bd60934f6eb2a6c54b1229985c41bfb092b2603620008e6813362000a09565b620008b662000be5565b60009182526001602090815260408084206001600160a01b0393909316845291905290205460ff1690565b600280546200092a906200112d565b80601f016020809104026020016040519081016040528092919081815260200182805462000958906200112d565b8015620009a95780601f106200097d57610100808354040283529160200191620009a9565b820191906000526020600020905b8154815290600101906020018083116200098b57829003601f168201915b505050505081565b60008281526001602081905260409091200154620009d0813362000a09565b620007f8838362000ae6565b600380546200092a906200112d565b600062000a02836001600160a01b03841662000c63565b9392505050565b62000a158282620008f0565b6200087b5762000a30816001600160a01b0316601462000cb5565b62000a3d83602062000cb5565b60405160200162000a5092919062001310565b60408051601f198184030181529082905262461bcd60e51b8252620003fc9160040162001118565b62000a848282620008f0565b6200087b5760008281526001602081815260408084206001600160a01b0386168086529252808420805460ff19169093179092559051339285917f2f8788117e7eff1d82e926ec794901d17c78024a50270940304540a733656f0d9190a45050565b62000af28282620008f0565b156200087b5760008281526001602090815260408083206001600160a01b0385168085529252808320805460ff1916905551339285917ff6391f5c32d9c69d2a47ea670b442974b53935d1edc7fd64eb21e047a839171b9190a45050565b60005460ff1662000b9b5760405162461bcd60e51b815260206004820152601460248201527314185d5cd8589b194e881b9bdd081c185d5cd95960621b6044820152606401620003fc565b6000805460ff191690557f5db9ee0a495bf2e6ff9c91a7834c1ba4fdd244a5e8aa4e537bd38aeae4b073aa335b6040516001600160a01b03909116815260200160405180910390a1565b60005460ff161562000c2d5760405162461bcd60e51b815260206004820152601060248201526f14185d5cd8589b194e881c185d5cd95960821b6044820152606401620003fc565b6000805460ff191660011790557f62e78cea01bee320cd4e420270b5ea74000d11b0c9f74754ebdbfc544b05a25862000bc83390565b600081815260018301602052604081205462000cac5750815460018181018455600084815260208082209093018490558454848252828601909352604090209190915562000359565b50600062000359565b6060600062000cc68360026200139f565b62000cd3906002620013c1565b67ffffffffffffffff81111562000cee5762000cee62000eef565b6040519080825280601f01601f19166020018201604052801562000d19576020820181803683370190505b509050600360fc1b8160008151811062000d375762000d37620013dc565b60200101906001600160f81b031916908160001a905350600f60fb1b8160018151811062000d695762000d69620013dc565b60200101906001600160f81b031916908160001a905350600062000d8f8460026200139f565b62000d9c906001620013c1565b90505b600181111562000e1e576f181899199a1a9b1b9c1cb0b131b232b360811b85600f166010811062000dd45762000dd4620013dc565b1a60f81b82828151811062000ded5762000ded620013dc565b60200101906001600160f81b031916908160001a90535060049490941c9362000e1681620013f2565b905062000d9f565b50831562000a025760405162461bcd60e51b815260206004820181905260248201527f537472696e67733a20686578206c656e67746820696e73756666696369656e746044820152606401620003fc565b6107b1806200140d83390190565b60006020828403121562000e9057600080fd5b81356001600160e01b03198116811462000a0257600080fd5b6020808252825182820181905260009190848201906040850190845b8181101562000ee35783518352928401929184019160010162000ec5565b50909695505050505050565b634e487b7160e01b600052604160045260246000fd5b600082601f83011262000f1757600080fd5b813567ffffffffffffffff8082111562000f355762000f3562000eef565b604051601f8301601f19908116603f0116810190828211818310171562000f605762000f6062000eef565b8160405283815286602085880101111562000f7a57600080fd5b836020870160208301376000602085830101528094505050505092915050565b80356001600160a01b038116811462000fb257600080fd5b919050565b60008060008060008060c0878903121562000fd157600080fd5b863567ffffffffffffffff8082111562000fea57600080fd5b62000ff88a838b0162000f05565b975060208901359150808211156200100f57600080fd5b6200101d8a838b0162000f05565b965060408901359550606089013594506200103b60808a0162000f9a565b935060a08901359150808211156200105257600080fd5b506200106189828a0162000f05565b9150509295509295509295565b6000602082840312156200108157600080fd5b5035919050565b600080604083850312156200109c57600080fd5b82359150620010ae6020840162000f9a565b90509250929050565b60005b83811015620010d4578181015183820152602001620010ba565b83811115620010e4576000848401525b50505050565b6000815180845262001104816020860160208601620010b7565b601f01601f19169290920160200192915050565b60208152600062000a026020830184620010ea565b600181811c908216806200114257607f821691505b6020821081036200116357634e487b7160e01b600052602260045260246000fd5b50919050565b60006101208083526200117f8184018d620010ea565b9050828103602084015262001195818c620010ea565b9050828103604084015260008a54818160011c90506001821680620011bb57607f821691505b602082108103620011da57634e487b7160e01b84526022600452602484fd5b818552602085019450808015620011fa57600181146200120d576200123d565b60ff19841686526020860194506200123d565b60008f81526020902060005b84811015620012375781548882015260019091019060200162001219565b87019550505b5050505080925050508760608301528660808301526200126860a08301876001600160a01b03169052565b6001600160a01b03851660c08301528360e0830152620012946101008301846001600160a01b03169052565b9a9950505050505050505050565b6001600160a01b0383168152604060208201819052600090620012c890830184620010ea565b949350505050565b608081526000620012e56080830187620010ea565b8560208401528460408401528281036060840152620013058185620010ea565b979650505050505050565b7f416363657373436f6e74726f6c3a206163636f756e74200000000000000000008152600083516200134a816017850160208801620010b7565b7001034b99036b4b9b9b4b733903937b6329607d1b60179184019182015283516200137d816028840160208801620010b7565b01602801949350505050565b634e487b7160e01b600052601160045260246000fd5b6000816000190483118215151615620013bc57620013bc62001389565b500290565b60008219821115620013d757620013d762001389565b500190565b634e487b7160e01b600052603260045260246000fd5b60008162001404576200140462001389565b50600019019056fe60806040526040516107b13803806107b183398101604081905261002291610349565b61004d60017f360894a13ba1a3210667c828492db98dca3e2076cc3735a920a3ca505d382bbd610417565b60008051602061076a833981519152146100695761006961043c565b6100758282600061007c565b50506104a1565b610085836100b2565b6000825111806100925750805b156100ad576100ab83836100f260201b6100291760201c565b505b505050565b6100bb8161011e565b6040516001600160a01b038216907fbc7cd75a20ee27fd9adebab32041f755214dbc6bffa90cc0225b39da2e5c2d3b90600090a250565b6060610117838360405180606001604052806027815260200161078a602791396101de565b9392505050565b610131816102bc60201b6100551760201c565b6101985760405162461bcd60e51b815260206004820152602d60248201527f455243313936373a206e657720696d706c656d656e746174696f6e206973206e60448201526c1bdd08184818dbdb9d1c9858dd609a1b60648201526084015b60405180910390fd5b806101bd60008051602061076a83398151915260001b6102cb60201b6100641760201c565b80546001600160a01b0319166001600160a01b039290921691909117905550565b60606001600160a01b0384163b6102465760405162461bcd60e51b815260206004820152602660248201527f416464726573733a2064656c65676174652063616c6c20746f206e6f6e2d636f6044820152651b9d1c9858dd60d21b606482015260840161018f565b600080856001600160a01b0316856040516102619190610452565b600060405180830381855af49150503d806000811461029c576040519150601f19603f3d011682016040523d82523d6000602084013e6102a1565b606091505b5090925090506102b28282866102ce565b9695505050505050565b6001600160a01b03163b151590565b90565b606083156102dd575081610117565b8251156102ed5782518084602001fd5b8160405162461bcd60e51b815260040161018f919061046e565b634e487b7160e01b600052604160045260246000fd5b60005b83811015610338578181015183820152602001610320565b838111156100ab5750506000910152565b6000806040838503121561035c57600080fd5b82516001600160a01b038116811461037357600080fd5b60208401519092506001600160401b038082111561039057600080fd5b818501915085601f8301126103a457600080fd5b8151818111156103b6576103b6610307565b604051601f8201601f19908116603f011681019083821181831017156103de576103de610307565b816040528281528860208487010111156103f757600080fd5b61040883602083016020880161031d565b80955050505050509250929050565b60008282101561043757634e487b7160e01b600052601160045260246000fd5b500390565b634e487b7160e01b600052600160045260246000fd5b6000825161046481846020870161031d565b9190910192915050565b602081526000825180602084015261048d81604085016020870161031d565b601f01601f19169190910160400192915050565b6102ba806104b06000396000f3fe60806040523661001357610011610017565b005b6100115b610027610022610067565b61009f565b565b606061004e838360405180606001604052806027815260200161025e602791396100c3565b9392505050565b6001600160a01b03163b151590565b90565b600061009a7f360894a13ba1a3210667c828492db98dca3e2076cc3735a920a3ca505d382bbc546001600160a01b031690565b905090565b3660008037600080366000845af43d6000803e8080156100be573d6000f35b3d6000fd5b60606001600160a01b0384163b6101305760405162461bcd60e51b815260206004820152602660248201527f416464726573733a2064656c65676174652063616c6c20746f206e6f6e2d636f6044820152651b9d1c9858dd60d21b60648201526084015b60405180910390fd5b600080856001600160a01b03168560405161014b919061020e565b600060405180830381855af49150503d8060008114610186576040519150601f19603f3d011682016040523d82523d6000602084013e61018b565b606091505b509150915061019b8282866101a5565b9695505050505050565b606083156101b457508161004e565b8251156101c45782518084602001fd5b8160405162461bcd60e51b8152600401610127919061022a565b60005b838110156101f95781810151838201526020016101e1565b83811115610208576000848401525b50505050565b600082516102208184602087016101de565b9190910192915050565b60208152600082518060208401526102498160408501602087016101de565b601f01601f1916919091016040019291505056fe416464726573733a206c6f772d6c6576656c2064656c65676174652063616c6c206661696c6564a26469706673582212206a9a8c80cf4acba4b799b5c7fb65ea2dad7950cdf128b00c6f7abfa4a4e576e164736f6c634300080d0033360894a13ba1a3210667c828492db98dca3e2076cc3735a920a3ca505d382bbc416464726573733a206c6f772d6c6576656c2064656c65676174652063616c6c206661696c6564a2646970667358221220f4cdad4554a9f2e36ee907d080aa40d0db1943c6cf5fbc7c236fa1aeea4dae3764736f6c634300080d003360a0604052306080523480156200001557600080fd5b50600054610100900460ff16620000335760005460ff16156200003d565b6200003d620000e2565b620000a55760405162461bcd60e51b815260206004820152602e60248201527f496e697469616c697a61626c653a20636f6e747261637420697320616c72656160448201526d191e481a5b9a5d1a585b1a5e995960921b606482015260840160405180910390fd5b600054610100900460ff16158015620000c8576000805461ffff19166101011790555b8015620000db576000805461ff00191690555b506200010f565b6000620000fa306200010060201b620033f11760201c565b15905090565b6001600160a01b03163b151590565b608051615d9062000147600039600081816117050152818161174501528181611de801528181611e280152611feb0152615d906000f3fe6080604052600436106104405760003560e01c8063816c42f611610234578063abff01101161012e578063da3537a8116100b6578063e985e9c51161007a578063e985e9c514610cbc578063e9c2651814610d05578063fbf97c5914610d27578063fdf27dba14610d55578063ff7808e914610d6c57600080fd5b8063da3537a814610c39578063dd13745514610c4e578063dd7af03514610c70578063e6deb18d14610c87578063e88e3f9314610ca757600080fd5b8063c87b56dd116100fd578063c87b56dd14610bb8578063ca11016d14610bd8578063cc0f178614610bed578063cda493c814610c04578063d547741f14610c1957600080fd5b8063abff011014610ad1578063ae501c0414610af2578063b4ce37d214610b83578063b88d4fde14610b9857600080fd5b806393de6dc8116101bc578063a07ae16a11610180578063a07ae16a14610a50578063a217fddf14610a65578063a22cb46514610a7a578063a7485cf114610a9a578063a7c721c514610aba57600080fd5b806393de6dc8146109e157806395d89b41146109f85780639792641f14610a0d57806399087d3414610a245780639f79234014610a3957600080fd5b80638c824949116102035780638c8249491461094f5780638caa0986146109575780639088feba1461096e57806391d14854146109aa57806393a057cd146109ca57600080fd5b8063816c42f6146108f65780638240b7771461090d5780638456cb59146109225780638802255f1461093757600080fd5b80633f4ba83a116103455780635c975abb116102cd5780636e70096e116102915780636e70096e146108475780636f2ef95b146108675780636fcf1e651461089457806370a08231146108a957806378d85c4e146108c957600080fd5b80635c975abb1461079357806361d027b3146107ab5780636352211e146107cc57806369d85d54146107ec5780636c9d3b3a1461081957600080fd5b806351f0a93f1161031457806351f0a93f14610716578063522c21781461072b57806352d1902d14610746578063533573fe1461075b578063588dae3c1461077357600080fd5b80633f4ba83a146106ae57806342842e0e146106c35780634f1ef286146106e35780634f6ccce7146106f657600080fd5b806323b872dd116103c85780632f745c59116103975780632f745c591461061757806336568abe146106375780633659cfe6146106575780633af8e5eb146106775780633c449e001461068e57600080fd5b806323b872dd14610587578063248a9ca3146105a75780632a4c03cc146105d75780632f2ff15d146105f757600080fd5b8063095ea7b31161040f578063095ea7b3146104f057806318160ddd1461051257806318fc77ae146105315780631d1438481461054457806321846c761461056a57600080fd5b806301ffc9a71461044c57806305bc64eb1461048157806306fdde03146104a3578063081812fc146104b857600080fd5b3661044757005b600080fd5b34801561045857600080fd5b5061046c610467366004614f2c565b610d83565b60405190151581526020015b60405180910390f35b34801561048d57600080fd5b50610496610d94565b6040516104789190614fa1565b3480156104af57600080fd5b50610496610e23565b3480156104c457600080fd5b506104d86104d3366004614fb4565b610eb5565b6040516001600160a01b039091168152602001610478565b3480156104fc57600080fd5b5061051061050b366004614fe9565b610f4f565b005b34801561051e57600080fd5b506099545b604051908152602001610478565b61051061053f366004614fe9565b611064565b34801561055057600080fd5b506101d2546104d89061010090046001600160a01b031681565b6105726110c5565b60408051928352602083019190915201610478565b34801561059357600080fd5b506105106105a2366004615013565b611502565b3480156105b357600080fd5b506105236105c2366004614fb4565b600090815260fb602052604090206001015490565b3480156105e357600080fd5b506105106105f236600461504f565b611533565b34801561060357600080fd5b5061051061061236600461506a565b6115c1565b34801561062357600080fd5b50610523610632366004614fe9565b6115e7565b34801561064357600080fd5b5061051061065236600461506a565b61167d565b34801561066357600080fd5b5061051061067236600461504f565b6116fb565b34801561068357600080fd5b506105236101c65481565b34801561069a57600080fd5b506105106106a9366004615139565b6117da565b3480156106ba57600080fd5b50610510611da2565b3480156106cf57600080fd5b506105106106de366004615013565b611dc3565b6105106106f1366004615211565b611dde565b34801561070257600080fd5b50610523610711366004614fb4565b611eaa565b34801561072257600080fd5b50610523611f3d565b34801561073757600080fd5b506101d25461046c9060ff1681565b34801561075257600080fd5b50610523611fde565b34801561076757600080fd5b506101d9546105239081565b34801561077f57600080fd5b5061052361078e36600461504f565b612091565b34801561079f57600080fd5b5060c95460ff1661046c565b3480156107b757600080fd5b506101d3546104d8906001600160a01b031681565b3480156107d857600080fd5b506104d86107e7366004614fb4565b6121b7565b3480156107f857600080fd5b5061080c61080736600461504f565b61222e565b604051610478919061525f565b34801561082557600080fd5b5061052361083436600461504f565b6101da6020526000908152604090205481565b34801561085357600080fd5b50610510610862366004614fb4565b6122d0565b34801561087357600080fd5b50610887610882366004614fb4565b61270e565b60405161047891906152e3565b3480156108a057600080fd5b50610510612779565b3480156108b557600080fd5b506105236108c436600461504f565b61280e565b3480156108d557600080fd5b506108e96108e4366004614fb4565b612895565b60405161047891906152f1565b34801561090257600080fd5b506105236101cd5481565b34801561091957600080fd5b50610523612a6f565b34801561092e57600080fd5b50610510612b1e565b34801561094357600080fd5b506101d5546105239081565b610510612b3f565b34801561096357600080fd5b506105236101ca5481565b34801561097a57600080fd5b5061046c61098936600461537e565b6101de60209081526000928352604080842090915290825290205460ff1681565b3480156109b657600080fd5b5061046c6109c536600461506a565b612b9d565b3480156109d657600080fd5b506105236101cc5481565b3480156109ed57600080fd5b506105236101c95481565b348015610a0457600080fd5b50610496612bc8565b348015610a1957600080fd5b506105236101cf5481565b348015610a3057600080fd5b50610510612bd7565b348015610a4557600080fd5b506105236101dd5481565b348015610a5c57600080fd5b50610510612e5b565b348015610a7157600080fd5b50610523600081565b348015610a8657600080fd5b50610510610a953660046153ae565b613098565b348015610aa657600080fd5b50610523610ab5366004614fb4565b6130a3565b348015610ac657600080fd5b506105236101d75481565b348015610add57600080fd5b506101d6546104d8906001600160a01b031681565b348015610afe57600080fd5b50610b4d610b0d366004614fb4565b6101d8602052600090815260409020805460018201546002830154600384015460048501546005909501549394929391926001600160a01b039091169186565b604080519687526020870195909552938501929092526001600160a01b03166060840152608083015260a082015260c001610478565b348015610b8f57600080fd5b506104966130ba565b348015610ba457600080fd5b50610510610bb33660046153e5565b6130c8565b348015610bc457600080fd5b50610496610bd3366004614fb4565b613100565b348015610be457600080fd5b5061080c61314a565b348015610bf957600080fd5b506105236101c75481565b348015610c1057600080fd5b506104966131a1565b348015610c2557600080fd5b50610510610c3436600461506a565b6131af565b348015610c4557600080fd5b506105236131d5565b348015610c5a57600080fd5b50610c636131ee565b604051610478919061544d565b348015610c7c57600080fd5b506105236101cb5481565b348015610c9357600080fd5b50610523610ca236600461504f565b6132f1565b348015610cb357600080fd5b5061080c61339b565b348015610cc857600080fd5b5061046c610cd736600461548f565b6001600160a01b039182166000908152606a6020908152604080832093909416825291909152205460ff1690565b348015610d1157600080fd5b50610523600080516020615cf483398151915281565b348015610d3357600080fd5b50610523610d42366004614fb4565b6101d46020526000908152604090205481565b348015610d6157600080fd5b506105236101c85481565b348015610d7857600080fd5b506105236101ce5481565b6000610d8e82613400565b92915050565b6101c38054610da2906154b9565b80601f0160208091040260200160405190810160405280929190818152602001828054610dce906154b9565b8015610e1b5780601f10610df057610100808354040283529160200191610e1b565b820191906000526020600020905b815481529060010190602001808311610dfe57829003601f168201915b505050505081565b606060658054610e32906154b9565b80601f0160208091040260200160405190810160405280929190818152602001828054610e5e906154b9565b8015610eab5780601f10610e8057610100808354040283529160200191610eab565b820191906000526020600020905b815481529060010190602001808311610e8e57829003601f168201915b5050505050905090565b6000818152606760205260408120546001600160a01b0316610f335760405162461bcd60e51b815260206004820152602c60248201527f4552433732313a20617070726f76656420717565727920666f72206e6f6e657860448201526b34b9ba32b73a103a37b5b2b760a11b60648201526084015b60405180910390fd5b506000908152606960205260409020546001600160a01b031690565b6000610f5a826121b7565b9050806001600160a01b0316836001600160a01b031603610fc75760405162461bcd60e51b815260206004820152602160248201527f4552433732313a20617070726f76616c20746f2063757272656e74206f776e656044820152603960f91b6064820152608401610f2a565b336001600160a01b0382161480610fe35750610fe38133610cd7565b6110555760405162461bcd60e51b815260206004820152603860248201527f4552433732313a20617070726f76652063616c6c6572206973206e6f74206f7760448201527f6e6572206e6f7220617070726f76656420666f7220616c6c00000000000000006064820152608401610f2a565b61105f8383613425565b505050565b600261019154036110875760405162461bcd60e51b8152600401610f2a906154ed565b60026101915560c95460ff16156110b05760405162461bcd60e51b8152600401610f2a90615524565b6110bb338383613493565b5050600161019155565b600080600261019154036110eb5760405162461bcd60e51b8152600401610f2a906154ed565b60026101915560c95460ff16156111145760405162461bcd60e51b8152600401610f2a90615524565b6000341161116f5760405162461bcd60e51b815260206004820152602260248201527f5075726368617365206d7573742062652067726561746572207468616e207a65604482015261726f60f01b6064820152608401610f2a565b6101d3546001600160a01b031633036111ca5760405162461bcd60e51b815260206004820181905260248201527f54726561737572792063616e6e6f74207075726368617365207469636b6574736044820152606401610f2a565b6101d25460ff1615156001146112485760405162461bcd60e51b815260206004820152603860248201527f5469636b6574732063616e6e6f7420626520707572636861736564206166746560448201527f72207468652066756e6472616973696e6720706572696f6400000000000000006064820152608401610f2a565b60006305f5e1006101d7543461125e9190615564565b6112689190615599565b9050600061127682346155ad565b90506000611283826130a3565b905061128d6131d5565b8111156113025760405162461bcd60e51b815260206004820152603d60248201527f4e6f7420656e6f756768207368617265732072656d61696e696e6720746f207060448201527f757263686173652c20747279206120736d616c6c657220616d6f756e740000006064820152608401610f2a565b600061130e6101d55490565b905061131f6101d580546001019055565b60008181526101d46020526040902082905561133d6101d03361379a565b50816101cb5461134d91906155c4565b6101cb556101ce546113609084906155c4565b6101ce556101d3546101c9546040516001600160a01b039092169133917faec7d08bcb5e515903dbbba83c84bb270bdbdc5ad261ce0709da4d20226d4063916113ae913091879189916155dc565b60405180910390a36101d6546101d3546101c95460408051308152602081018690523481830152606081018890526080810189905260a0810187905260c0810192909252516001600160a01b03938416939092169133917f3e3034b2cabc46fc365f708d14116816d29867e13940e763b1c3d023f9bcb7eb919081900360e00190a4826101cf5461143f91906155c4565b6101cf556101d6546040516000916001600160a01b03169086908381818185875af1925050503d8060008114611491576040519150601f19603f3d011682016040523d82523d6000602084013e611496565b606091505b50509050806114e75760405162461bcd60e51b815260206004820181905260248201527f42726f6b657220636f756c64206e6f742072656365697665207061796d656e746044820152606401610f2a565b6114f133836137af565b509450925050506001610191559091565b61150c33826137c9565b6115285760405162461bcd60e51b8152600401610f2a90615602565b61105f8383836138bc565b600261019154036115565760405162461bcd60e51b8152600401610f2a906154ed565b60026101915560c95460ff161561157f5760405162461bcd60e51b8152600401610f2a90615524565b6101d25460ff16156115a35760405162461bcd60e51b8152600401610f2a90615653565b60006115ae82612091565b905080156110bb576110bb308383613493565b600082815260fb60205260409020600101546115dd8133613a63565b61105f8383613ac7565b60006115f28361280e565b82106116545760405162461bcd60e51b815260206004820152602b60248201527f455243373231456e756d657261626c653a206f776e657220696e646578206f7560448201526a74206f6620626f756e647360a81b6064820152608401610f2a565b506001600160a01b03919091166000908152609760209081526040808320938352929052205490565b6001600160a01b03811633146116ed5760405162461bcd60e51b815260206004820152602f60248201527f416363657373436f6e74726f6c3a2063616e206f6e6c792072656e6f756e636560448201526e103937b632b9903337b91039b2b63360891b6064820152608401610f2a565b6116f78282613b4d565b5050565b6001600160a01b037f00000000000000000000000000000000000000000000000000000000000000001630036117435760405162461bcd60e51b8152600401610f2a906156a2565b7f00000000000000000000000000000000000000000000000000000000000000006001600160a01b031661178c600080516020615d14833981519152546001600160a01b031690565b6001600160a01b0316146117b25760405162461bcd60e51b8152600401610f2a906156ee565b6117bb81613bb4565b604080516000808252602082019092526117d791839190613bcd565b50565b600054610100900460ff166117f55760005460ff16156117f9565b303b155b61185c5760405162461bcd60e51b815260206004820152602e60248201527f496e697469616c697a61626c653a20636f6e747261637420697320616c72656160448201526d191e481a5b9a5d1a585b1a5e995960921b6064820152608401610f2a565b600054610100900460ff1615801561187e576000805461ffff19166101011790555b60408051808201909152600680825265457363726f7760d01b60209092019182526118ac916101c391614e42565b5060408051808201909152600a80825269302e352e302d64656d6f60b01b60209092019182526118df916101c491614e42565b5089518a908a9060000361192c5760405162461bcd60e51b81526020600482015260146024820152734e616d652063616e6e6f7420626520656d70747960601b6044820152606401610f2a565b80516000036119765760405162461bcd60e51b815260206004820152601660248201527553796d626f6c2063616e6e6f7420626520656d70747960501b6044820152606401610f2a565b89516000036119c75760405162461bcd60e51b815260206004820152601e60248201527f4261736520746f6b656e205552492063616e6e6f7420626520656d70747900006044820152606401610f2a565b6305f5e1008510611a395760405162461bcd60e51b815260206004820152603660248201527f5075726368617365207469636b657420666565206d757374206265206c657373604482015275207468616e203130303030303030302028313030252960501b6064820152608401610f2a565b6001600160a01b038716611a9b5760405162461bcd60e51b815260206004820152602360248201527f54726561737572792063616e6e6f7420626520746865207a65726f206164647260448201526265737360e81b6064820152608401610f2a565b6001600160a01b038616611afb5760405162461bcd60e51b815260206004820152602160248201527f4973737565722063616e6e6f7420626520746865207a65726f206164647265736044820152607360f81b6064820152608401610f2a565b60008811611b5d5760405162461bcd60e51b815260206004820152602960248201527f4d61782073686172657320736f6c64206d7573742062652067726561746572206044820152687468616e207a65726f60b81b6064820152608401610f2a565b60008911611bc25760405162461bcd60e51b815260206004820152602c60248201527f5461726765742073686172657320736f6c64206d75737420626520677265617460448201526b6572207468616e207a65726f60a01b6064820152608401610f2a565b87891115611c3a576040805162461bcd60e51b81526020600482015260248101919091527f5461726765742073686172657320736f6c64206d757374206265206c6573732060448201527f7468616e206f7220657175616c20746f206d61782073686172657320736f6c646064820152608401610f2a565b6001600160a01b038416611c9a5760405162461bcd60e51b815260206004820152602160248201527f42726f6b65722063616e6e6f7420626520746865207a65726f206164647265736044820152607360f81b6064820152608401610f2a565b611ca48c8c613d38565b611cac613d69565b611cb4613d92565b611cbc613d69565b611cc4613d69565b426101c85560126101c681905560086101c75564e8d4a510006101c9556101ca5560006101ce556101cc8990556101cd8890556101d280546001600160a81b0319166101006001600160a01b038981169190910260ff1916919091176001179091556101d380546001600160a01b03199081168a8416179091556101d78790556101d680549091169186169190911790558951611d69906101c59060208d0190614e42565b50611d82600080516020615cf483398151915287613ac7565b50508015611d96576000805461ff00191690555b50505050505050505050565b600080516020615cf4833981519152611dbb8133613a63565b6117d7613dc1565b61105f838383604051806020016040528060008152506130c8565b6001600160a01b037f0000000000000000000000000000000000000000000000000000000000000000163003611e265760405162461bcd60e51b8152600401610f2a906156a2565b7f00000000000000000000000000000000000000000000000000000000000000006001600160a01b0316611e6f600080516020615d14833981519152546001600160a01b031690565b6001600160a01b031614611e955760405162461bcd60e51b8152600401610f2a906156ee565b611e9e82613bb4565b6116f782826001613bcd565b6000611eb560995490565b8210611f185760405162461bcd60e51b815260206004820152602c60248201527f455243373231456e756d657261626c653a20676c6f62616c20696e646578206f60448201526b7574206f6620626f756e647360a01b6064820152608401610f2a565b60998281548110611f2b57611f2b61573a565b90600052602060002001549050919050565b600080805b6101d954811015611fd85760008181526101d86020908152604091829020825160c0810184528154815260018201549281019290925260028101549282019290925260038201546001600160a01b0316606082018190526004830154608083015260059092015460a082015290611fc5576040810151611fc290846155c4565b92505b5080611fd081615750565b915050611f42565b50919050565b6000306001600160a01b037f0000000000000000000000000000000000000000000000000000000000000000161461207e5760405162461bcd60e51b815260206004820152603860248201527f555550535570677261646561626c653a206d757374206e6f742062652063616c60448201527f6c6564207468726f7567682064656c656761746563616c6c00000000000000006064820152608401610f2a565b50600080516020615d1483398151915290565b600080805b6101d9548110156121345760008181526101d86020908152604091829020825160c0810184528154815260018201549281019290925260028101549282019290925260038201546001600160a01b03908116606083018190526004840154608084015260059093015460a08301529091908616900361212157608081015161211e90846155c4565b92505b508061212c81615750565b915050612096565b506040516370a0823160e01b8152306004820152839060009083906001600160a01b038416906370a0823190602401602060405180830381865afa158015612180573d6000803e3d6000fd5b505050506040513d601f19601f820116820180604052508101906121a49190615769565b6121ae91906155ad565b95945050505050565b6000818152606760205260408120546001600160a01b031680610d8e5760405162461bcd60e51b815260206004820152602960248201527f4552433732313a206f776e657220717565727920666f72206e6f6e657869737460448201526832b73a103a37b5b2b760b91b6064820152608401610f2a565b6060600061223b8361280e565b905060008167ffffffffffffffff81111561225857612258615096565b604051908082528060200260200182016040528015612281578160200160208202803683370190505b50905060005b828110156122c85761229985826115e7565b8282815181106122ab576122ab61573a565b6020908102919091010152806122c081615750565b915050612287565b509392505050565b600261019154036122f35760405162461bcd60e51b8152600401610f2a906154ed565b60026101915560c95460ff161561231c5760405162461bcd60e51b8152600401610f2a90615524565b6101d25460ff161561238d5760405162461bcd60e51b815260206004820152603460248201527f5769746864726177616c732063616e6e6f74206265206d61646520647572696e60448201527319c8199d5b991c985a5cda5b99c81c195c9a5bd960621b6064820152608401610f2a565b33612397826121b7565b6001600160a01b0316146123ed5760405162461bcd60e51b815260206004820152601a60248201527f596f7520646f206e6f74206f776e2074686973207469636b65740000000000006044820152606401610f2a565b60008181526101d46020526040812054905b6101d9548110156127035760008181526101d860209081526040808320815160c081018352815481526001808301548286015260028301548285015260038301546001600160a01b031660608301526004830154608083015260059092015460a08201528785526101de845282852081518652909352922054909160ff9091161515146126f05760008481526101de60209081526040808320845184529091529020805460ff1916600117905560608101516001600160a01b0316156125c95760006101cb548483608001516124d59190615564565b6124df9190615599565b8251606084015160405192935033927f981eda60172361092f12c75de05c753d28c928d6fb0b4b6492e685a44265fc0a926125239230928b92916000918990615782565b60405180910390a260608201516001600160a01b0381166323b872dd30612549896121b7565b6040516001600160e01b031960e085901b1681526001600160a01b03928316600482015291166024820152604481018590526064016020604051808303816000875af115801561259d573d6000803e3d6000fd5b505050506040513d601f19601f820116820180604052508101906125c191906157bd565b5050506126f0565b60006101cb548483604001516125df9190615564565b6125e99190615599565b825160405191925033917f981eda60172361092f12c75de05c753d28c928d6fb0b4b6492e685a44265fc0a916126299130918a9187906000908190615782565b60405180910390a2600061263c866121b7565b6001600160a01b03168260405160006040518083038185875af1925050503d8060008114612686576040519150601f19603f3d011682016040523d82523d6000602084013e61268b565b606091505b50509050806126ed5760405162461bcd60e51b815260206004820152602860248201527f5469636b657420686f6c64657220636f756c64206e6f742072656365697665206044820152676561726e696e677360c01b6064820152608401610f2a565b50505b50806126fb81615750565b9150506123ff565b505060016101915550565b612716614ec2565b5060009081526101d86020908152604091829020825160c0810184528154815260018201549281019290925260028101549282019290925260038201546001600160a01b031660608201526004820154608082015260059091015460a082015290565b6002610191540361279c5760405162461bcd60e51b8152600401610f2a906154ed565b60026101915560c95460ff16156127c55760405162461bcd60e51b8152600401610f2a90615524565b6101d25460ff16156127e95760405162461bcd60e51b8152600401610f2a90615653565b60006127f3612a6f565b90508015612805576128053082613e54565b50600161019155565b60006001600160a01b0382166128795760405162461bcd60e51b815260206004820152602a60248201527f4552433732313a2062616c616e636520717565727920666f7220746865207a65604482015269726f206164647265737360b01b6064820152608401610f2a565b506001600160a01b031660009081526068602052604090205490565b60008181526101d460205260409020546060906128b26101d95490565b67ffffffffffffffff8111156128ca576128ca615096565b60405190808252806020026020018201604052801561294657816020015b6129336040518060e0016040528060008152602001600081526020016000151581526020016000815260200160006001600160a01b0316815260200160008152602001600081525090565b8152602001906001900390816128e85790505b50915060005b6101d954811015612a68576101cb5460008281526101d8602052604081206002015490919061297c908590615564565b6129869190615599565b6101cb5460008481526101d86020526040812060040154929350916129ac908690615564565b6129b69190615599565b6040805160e08101825288815260008681526101d8602081815284832080548286018190528d85526101de835286852090855282528584205460ff161515958501959095526060840188905260038501546001600160a01b0316608085015260a0840186905291889052905260059091015460c08201528651919250908190879086908110612a4757612a4761573a565b60200260200101819052505050508080612a6090615750565b91505061294c565b5050919050565b600080805b6101d954811015612b0a5760008181526101d86020908152604091829020825160c0810184528154815260018201549281019290925260028101549282019290925260038201546001600160a01b0316606082018190526004830154608083015260059092015460a082015290612af7576040810151612af490846155c4565b92505b5080612b0281615750565b915050612a74565b506000612b1782476155ad565b9392505050565b600080516020615cf4833981519152612b378133613a63565b6117d761405b565b60026101915403612b625760405162461bcd60e51b8152600401610f2a906154ed565b60026101915560c95460ff1615612b8b5760405162461bcd60e51b8152600401610f2a90615524565b612b953334613e54565b600161019155565b600091825260fb602090815260408084206001600160a01b0393909316845291905290205460ff1690565b606060668054610e32906154b9565b60026101915403612bfa5760405162461bcd60e51b8152600401610f2a906154ed565b60026101915560c95460ff1615612c235760405162461bcd60e51b8152600401610f2a90615524565b6101d25460ff161515600114612c4b5760405162461bcd60e51b8152600401610f2a906157da565b62278d006101c85442612c5e91906155ad565b11612ced57612c7b600080516020615cf483398151915233612b9d565b612ced5760405162461bcd60e51b815260206004820152603860248201527f4f6e6c7920746865206973737565722063616e2063616e63656c20746865206660448201527f756e64726169736572206265666f7265203330206461797300000000000000006064820152608401610f2a565b6101d2805460ff191690556101cf805460009091556101dd54612d119082906155c4565b6101dd556000612d216101d95490565b6040805160c081018252828152436020808301918252828401878152600060608501818152608086018281524260a088019081528984526101d8909552878320875181559551600187015592516002860155516003850180546001600160a01b0319166001600160a01b0390921691909117905590516004840155905160059092019190915591519293509133917fce3ede2e266c8c5ec60064c2a65ba25bd2899a334c42b39b742129c49b1ef1c491612de291309187918991819061581e565b60405180910390a2612df96101d980546001019055565b6101d2546101ce546101cb546040516101009093046001600160a01b0316927f87550133e5e9a6d009b8215a93d43b1511a87921372d21060f998133bd9be4b792612e489230928991906155dc565b60405180910390a2505060016101915550565b600080516020615cf4833981519152612e748133613a63565b60026101915403612e975760405162461bcd60e51b8152600401610f2a906154ed565b60026101915560c95460ff1615612ec05760405162461bcd60e51b8152600401610f2a90615524565b6101d25460ff161515600114612ee85760405162461bcd60e51b8152600401610f2a906157da565b6101cc546101cb541015612f735760405162461bcd60e51b815260206004820152604660248201527f46756e6472616973696e6720706572696f642063616e206f6e6c7920656e642060448201527f6966207468652066756e6472616973696e672074617267657420686173206265606482015265195b881a1a5d60d21b608482015260a401610f2a565b6101d2805460ff1916908190556101cf805460009091556101d3546101ce546101cb5460405193946001600160a01b0393841694610100909104909316927f27f5bdb31297d70b551a9b987c293026b2377a1eacd5bf8adac76067d1fcd0b292612fe19230928891906155dc565b60405180910390a36101d3546040516000916001600160a01b03169083908381818185875af1925050503d8060008114613037576040519150601f19603f3d011682016040523d82523d6000602084013e61303c565b606091505b50509050806127035760405162461bcd60e51b815260206004820152602260248201527f547265617375727920636f756c64206e6f742072656365697665207061796d656044820152611b9d60f21b6064820152608401610f2a565b6116f73383836140b3565b60006012816130b28483614181565b949350505050565b6101c58054610da2906154b9565b6130d233836137c9565b6130ee5760405162461bcd60e51b8152600401610f2a90615602565b6130fa848484846141c3565b50505050565b6060600061310f3060146141f6565b905060006101c58261312086614392565b6040516020016131329392919061586d565b60408051601f19818403018152919052949350505050565b6101db80546040805160208084028201810190925282815260609390929091830182828015610eab57602002820191906000526020600020905b815481526020019060010190808311613184575050505050905090565b6101c48054610da2906154b9565b600082815260fb60205260409020600101546131cb8133613a63565b61105f8383613b4d565b60006101cb546101cd546131e991906155ad565b905090565b60606131fa6101d95490565b67ffffffffffffffff81111561321257613212615096565b60405190808252806020026020018201604052801561324b57816020015b613238614ec2565b8152602001906001900390816132305790505b50905060005b6101d9548110156132ed5760008181526101d86020908152604091829020825160c0810184528154815260018201549281019290925260028101549282019290925260038201546001600160a01b031660608201526004820154608082015260059091015460a082015282518390839081106132cf576132cf61573a565b602002602001018190525080806132e590615750565b915050613251565b5090565b600080805b6101d9548110156133945760008181526101d86020908152604091829020825160c0810184528154815260018201549281019290925260028101549282019290925260038201546001600160a01b03908116606083018190526004840154608084015260059093015460a08301529091908616900361338157608081015161337e90846155c4565b92505b508061338c81615750565b9150506132f6565b5092915050565b6101d080546040805160208084028201810190925282815260609390929091830182828015610eab5760200282019190600052602060002090815481526020019060010190808311613184575050505050905090565b6001600160a01b03163b151590565b60006001600160e01b03198216637965db0b60e01b1480610d8e5750610d8e82614493565b600081815260696020526040902080546001600160a01b0319166001600160a01b038416908117909155819061345a826121b7565b6001600160a01b03167f8c5be1e5ebec7d5bd14f71427d1e84f3dd0314c0f7b2291e5b200ac8c7c3b92560405160405180910390a45050565b6101d25460ff16156134b75760405162461bcd60e51b8152600401610f2a90615947565b60006101cb54116134da5760405162461bcd60e51b8152600401610f2a90615998565b34156135625760405162461bcd60e51b815260206004820152604b60248201527f4465706f73697473206f662065726332302063616e6e6f7420616c736f20696e60448201527f636c756465206e617469766520746f6b656e7320696e207468652073616d652060648201526a3a3930b739b0b1ba34b7b760a91b608482015260a401610f2a565b600081116135825760405162461bcd60e51b8152600401610f2a906159f5565b61358e6101db8361379a565b506001600160a01b03821660009081526101da60205260409020546135b49082906155c4565b6001600160a01b0383811660008181526101da60209081526040808320959095556101d954855160c0810187528181524381840190815281880185815260608301968752608083018a81524260a085019081528588526101d890965289872084518155925160018401559051600283015595516003820180546001600160a01b03191691891691909117905594516004860155915160059094019390935593519193928716917fce3ede2e266c8c5ec60064c2a65ba25bd2899a334c42b39b742129c49b1ef1c49161368d91309187918a908a9061581e565b60405180910390a26136a46101d980546001019055565b60405163095ea7b360e01b81523060048201526024810184905284906001600160a01b0382169063095ea7b3906044016020604051808303816000875af11580156136f3573d6000803e3d6000fd5b505050506040513d601f19601f8201168201806040525081019061371791906157bd565b506040516323b872dd60e01b81526001600160a01b038781166004830152306024830152604482018690528216906323b872dd906064016020604051808303816000875af115801561376d573d6000803e3d6000fd5b505050506040513d601f19601f8201168201806040525081019061379191906157bd565b50505050505050565b6000612b17836001600160a01b0384166144b8565b6116f7828260405180602001604052806000815250614507565b6000818152606760205260408120546001600160a01b03166138425760405162461bcd60e51b815260206004820152602c60248201527f4552433732313a206f70657261746f7220717565727920666f72206e6f6e657860448201526b34b9ba32b73a103a37b5b2b760a11b6064820152608401610f2a565b600061384d836121b7565b9050806001600160a01b0316846001600160a01b031614806138885750836001600160a01b031661387d84610eb5565b6001600160a01b0316145b806130b257506001600160a01b038082166000908152606a602090815260408083209388168352929052205460ff166130b2565b826001600160a01b03166138cf826121b7565b6001600160a01b0316146139335760405162461bcd60e51b815260206004820152602560248201527f4552433732313a207472616e736665722066726f6d20696e636f72726563742060448201526437bbb732b960d91b6064820152608401610f2a565b6001600160a01b0382166139955760405162461bcd60e51b8152602060048201526024808201527f4552433732313a207472616e7366657220746f20746865207a65726f206164646044820152637265737360e01b6064820152608401610f2a565b6139a083838361453a565b6139ab600082613425565b6001600160a01b03831660009081526068602052604081208054600192906139d49084906155ad565b90915550506001600160a01b0382166000908152606860205260408120805460019290613a029084906155c4565b909155505060008181526067602052604080822080546001600160a01b0319166001600160a01b0386811691821790925591518493918716917fddf252ad1be2c89b69c2b068fc378daa952ba7f163c4a11628f55a4df523b3ef91a4505050565b613a6d8282612b9d565b6116f757613a85816001600160a01b03166014614568565b613a90836020614568565b604051602001613aa1929190615a3a565b60408051601f198184030181529082905262461bcd60e51b8252610f2a91600401614fa1565b613ad18282612b9d565b6116f757600082815260fb602090815260408083206001600160a01b03851684529091529020805460ff19166001179055613b093390565b6001600160a01b0316816001600160a01b0316837f2f8788117e7eff1d82e926ec794901d17c78024a50270940304540a733656f0d60405160405180910390a45050565b613b578282612b9d565b156116f757600082815260fb602090815260408083206001600160a01b0385168085529252808320805460ff1916905551339285917ff6391f5c32d9c69d2a47ea670b442974b53935d1edc7fd64eb21e047a839171b9190a45050565b600080516020615cf48339815191526116f78133613a63565b7f4910fdfa16fed3260ed0e7147f7cc6da11a60208b5b9406d12a635614ffd91435460ff1615613c005761105f836146b5565b826001600160a01b03166352d1902d6040518163ffffffff1660e01b8152600401602060405180830381865afa925050508015613c5a575060408051601f3d908101601f19168201909252613c5791810190615769565b60015b613cbd5760405162461bcd60e51b815260206004820152602e60248201527f45524331393637557067726164653a206e657720696d706c656d656e7461746960448201526d6f6e206973206e6f74205555505360901b6064820152608401610f2a565b600080516020615d148339815191528114613d2c5760405162461bcd60e51b815260206004820152602960248201527f45524331393637557067726164653a20756e737570706f727465642070726f786044820152681a58589b195555525160ba1b6064820152608401610f2a565b5061105f838383614751565b600054610100900460ff16613d5f5760405162461bcd60e51b8152600401610f2a90615aaf565b6116f78282614776565b600054610100900460ff16613d905760405162461bcd60e51b8152600401610f2a90615aaf565b565b600054610100900460ff16613db95760405162461bcd60e51b8152600401610f2a90615aaf565b613d906147c4565b60c95460ff16613e0a5760405162461bcd60e51b815260206004820152601460248201527314185d5cd8589b194e881b9bdd081c185d5cd95960621b6044820152606401610f2a565b60c9805460ff191690557f5db9ee0a495bf2e6ff9c91a7834c1ba4fdd244a5e8aa4e537bd38aeae4b073aa335b6040516001600160a01b03909116815260200160405180910390a1565b6101d25460ff1615613e785760405162461bcd60e51b8152600401610f2a90615947565b60006101cb5411613e9b5760405162461bcd60e51b8152600401610f2a90615998565b60008111613ebb5760405162461bcd60e51b8152600401610f2a906159f5565b806101dd54613eca91906155c4565b6101dd556000613eda6101d95490565b6040805160c081018252828152436020808301918252828401878152600060608501818152608086018281524260a088019081528984526101d8909552878320875181559551600187015592516002860155516003850180546001600160a01b0319166001600160a01b0392831617905591516004850155915160059093019290925592519394509092908616917fce3ede2e266c8c5ec60064c2a65ba25bd2899a334c42b39b742129c49b1ef1c491613f9b91309187918991819061581e565b60405180910390a2613fb26101d980546001019055565b604051600090309085908381818185875af1925050503d8060008114613ff4576040519150601f19603f3d011682016040523d82523d6000602084013e613ff9565b606091505b50509050806140545760405162461bcd60e51b815260206004820152602160248201527f4c6f6f74626f7820636f756c64206e6f742072656365697665207061796d656e6044820152601d60fa1b6064820152608401610f2a565b5050505050565b60c95460ff161561407e5760405162461bcd60e51b8152600401610f2a90615524565b60c9805460ff191660011790557f62e78cea01bee320cd4e420270b5ea74000d11b0c9f74754ebdbfc544b05a258613e373390565b816001600160a01b0316836001600160a01b0316036141145760405162461bcd60e51b815260206004820152601960248201527f4552433732313a20617070726f766520746f2063616c6c6572000000000000006044820152606401610f2a565b6001600160a01b038381166000818152606a6020908152604080832094871680845294825291829020805460ff191686151590811790915591519182527f17307eab39ab6107e8899845ad3d59bd9653f200f220920489ca2b5937696c31910160405180910390a3505050565b60006101c954826101ca546101c65461419a91906155c4565b6141a491906155ad565b6141af90600a615bde565b6141b99085615564565b612b179190615599565b6141ce8484846138bc565b6141da848484846147f7565b6130fa5760405162461bcd60e51b8152600401610f2a90615bea565b60606000614205836002615564565b6142109060026155c4565b67ffffffffffffffff81111561422857614228615096565b6040519080825280601f01601f191660200182016040528015614252576020820181803683370190505b509050600360fc1b8160008151811061426d5761426d61573a565b60200101906001600160f81b031916908160001a905350600f60fb1b8160018151811061429c5761429c61573a565b60200101906001600160f81b031916908160001a90535060006142c0846002615564565b6142cb9060016155c4565b90505b6001811115614343576f181899199a1a9b1b9c1cb0b131b232b360811b85600f16601081106142ff576142ff61573a565b1a60f81b8282815181106143155761431561573a565b60200101906001600160f81b031916908160001a90535060049490941c9361433c81615c3c565b90506142ce565b508315612b175760405162461bcd60e51b815260206004820181905260248201527f537472696e67733a20686578206c656e67746820696e73756666696369656e746044820152606401610f2a565b6060816000036143b95750506040805180820190915260018152600360fc1b602082015290565b8160005b81156143e357806143cd81615750565b91506143dc9050600a83615599565b91506143bd565b60008167ffffffffffffffff8111156143fe576143fe615096565b6040519080825280601f01601f191660200182016040528015614428576020820181803683370190505b5090505b84156130b25761443d6001836155ad565b915061444a600a86615c53565b6144559060306155c4565b60f81b81838151811061446a5761446a61573a565b60200101906001600160f81b031916908160001a90535061448c600a86615599565b945061442c565b60006001600160e01b0319821663780e9d6360e01b1480610d8e5750610d8e826148f8565b60008181526001830160205260408120546144ff57508154600181810184556000848152602080822090930184905584548482528286019093526040902091909155610d8e565b506000610d8e565b6145118383614948565b61451e60008484846147f7565b61105f5760405162461bcd60e51b8152600401610f2a90615bea565b60c95460ff161561455d5760405162461bcd60e51b8152600401610f2a90615524565b61105f838383614a96565b60606000614577836002615564565b6145829060026155c4565b67ffffffffffffffff81111561459a5761459a615096565b6040519080825280601f01601f1916602001820160405280156145c4576020820181803683370190505b509050600360fc1b816000815181106145df576145df61573a565b60200101906001600160f81b031916908160001a905350600f60fb1b8160018151811061460e5761460e61573a565b60200101906001600160f81b031916908160001a9053506000614632846002615564565b61463d9060016155c4565b90505b6001811115614343576f181899199a1a9b1b9c1cb0b131b232b360811b85600f16601081106146715761467161573a565b1a60f81b8282815181106146875761468761573a565b60200101906001600160f81b031916908160001a90535060049490941c936146ae81615c3c565b9050614640565b6001600160a01b0381163b6147225760405162461bcd60e51b815260206004820152602d60248201527f455243313936373a206e657720696d706c656d656e746174696f6e206973206e60448201526c1bdd08184818dbdb9d1c9858dd609a1b6064820152608401610f2a565b600080516020615d1483398151915280546001600160a01b0319166001600160a01b0392909216919091179055565b61475a83614b4e565b6000825111806147675750805b1561105f576130fa8383614b8e565b600054610100900460ff1661479d5760405162461bcd60e51b8152600401610f2a90615aaf565b81516147b0906065906020850190614e42565b50805161105f906066906020840190614e42565b600054610100900460ff166147eb5760405162461bcd60e51b8152600401610f2a90615aaf565b60c9805460ff19169055565b60006001600160a01b0384163b156148ed57604051630a85bd0160e11b81526001600160a01b0385169063150b7a029061483b903390899088908890600401615c67565b6020604051808303816000875af1925050508015614876575060408051601f3d908101601f1916820190925261487391810190615ca4565b60015b6148d3573d8080156148a4576040519150601f19603f3d011682016040523d82523d6000602084013e6148a9565b606091505b5080516000036148cb5760405162461bcd60e51b8152600401610f2a90615bea565b805181602001fd5b6001600160e01b031916630a85bd0160e11b1490506130b2565b506001949350505050565b60006001600160e01b031982166380ac58cd60e01b148061492957506001600160e01b03198216635b5e139f60e01b145b80610d8e57506301ffc9a760e01b6001600160e01b0319831614610d8e565b6001600160a01b03821661499e5760405162461bcd60e51b815260206004820181905260248201527f4552433732313a206d696e7420746f20746865207a65726f20616464726573736044820152606401610f2a565b6000818152606760205260409020546001600160a01b031615614a035760405162461bcd60e51b815260206004820152601c60248201527f4552433732313a20746f6b656e20616c7265616479206d696e746564000000006044820152606401610f2a565b614a0f6000838361453a565b6001600160a01b0382166000908152606860205260408120805460019290614a389084906155c4565b909155505060008181526067602052604080822080546001600160a01b0319166001600160a01b03861690811790915590518392907fddf252ad1be2c89b69c2b068fc378daa952ba7f163c4a11628f55a4df523b3ef908290a45050565b6001600160a01b038316614af157614aec81609980546000838152609a60205260408120829055600182018355919091527f72a152ddfb8e864297c917af52ea6c1c68aead0fee1a62673fcc7e0c94979d000155565b614b14565b816001600160a01b0316836001600160a01b031614614b1457614b148382614c79565b6001600160a01b038216614b2b5761105f81614d16565b826001600160a01b0316826001600160a01b03161461105f5761105f8282614dc5565b614b57816146b5565b6040516001600160a01b038216907fbc7cd75a20ee27fd9adebab32041f755214dbc6bffa90cc0225b39da2e5c2d3b90600090a250565b60606001600160a01b0383163b614bf65760405162461bcd60e51b815260206004820152602660248201527f416464726573733a2064656c65676174652063616c6c20746f206e6f6e2d636f6044820152651b9d1c9858dd60d21b6064820152608401610f2a565b600080846001600160a01b031684604051614c119190615cc1565b600060405180830381855af49150503d8060008114614c4c576040519150601f19603f3d011682016040523d82523d6000602084013e614c51565b606091505b50915091506121ae8282604051806060016040528060278152602001615d3460279139614e09565b60006001614c868461280e565b614c9091906155ad565b600083815260986020526040902054909150808214614ce3576001600160a01b03841660009081526097602090815260408083208584528252808320548484528184208190558352609890915290208190555b5060009182526098602090815260408084208490556001600160a01b039094168352609781528383209183525290812055565b609954600090614d28906001906155ad565b6000838152609a602052604081205460998054939450909284908110614d5057614d5061573a565b906000526020600020015490508060998381548110614d7157614d7161573a565b6000918252602080832090910192909255828152609a90915260408082208490558582528120556099805480614da957614da9615cdd565b6001900381819060005260206000200160009055905550505050565b6000614dd08361280e565b6001600160a01b039093166000908152609760209081526040808320868452825280832085905593825260989052919091209190915550565b60608315614e18575081612b17565b825115614e285782518084602001fd5b8160405162461bcd60e51b8152600401610f2a9190614fa1565b828054614e4e906154b9565b90600052602060002090601f016020900481019282614e705760008555614eb6565b82601f10614e8957805160ff1916838001178555614eb6565b82800160010185558215614eb6579182015b82811115614eb6578251825591602001919060010190614e9b565b506132ed929150614f01565b6040518060c0016040528060008152602001600081526020016000815260200160006001600160a01b0316815260200160008152602001600081525090565b5b808211156132ed5760008155600101614f02565b6001600160e01b0319811681146117d757600080fd5b600060208284031215614f3e57600080fd5b8135612b1781614f16565b60005b83811015614f64578181015183820152602001614f4c565b838111156130fa5750506000910152565b60008151808452614f8d816020860160208601614f49565b601f01601f19169290920160200192915050565b602081526000612b176020830184614f75565b600060208284031215614fc657600080fd5b5035919050565b80356001600160a01b0381168114614fe457600080fd5b919050565b60008060408385031215614ffc57600080fd5b61500583614fcd565b946020939093013593505050565b60008060006060848603121561502857600080fd5b61503184614fcd565b925061503f60208501614fcd565b9150604084013590509250925092565b60006020828403121561506157600080fd5b612b1782614fcd565b6000806040838503121561507d57600080fd5b8235915061508d60208401614fcd565b90509250929050565b634e487b7160e01b600052604160045260246000fd5b600082601f8301126150bd57600080fd5b813567ffffffffffffffff808211156150d8576150d8615096565b604051601f8301601f19908116603f0116810190828211818310171561510057615100615096565b8160405283815286602085880101111561511957600080fd5b836020870160208301376000602085830101528094505050505092915050565b60008060008060008060008060006101208a8c03121561515857600080fd5b893567ffffffffffffffff8082111561517057600080fd5b61517c8d838e016150ac565b9a5060208c013591508082111561519257600080fd5b61519e8d838e016150ac565b995060408c01359150808211156151b457600080fd5b506151c18c828d016150ac565b97505060608a0135955060808a013594506151de60a08b01614fcd565b93506151ec60c08b01614fcd565b925060e08a013591506152026101008b01614fcd565b90509295985092959850929598565b6000806040838503121561522457600080fd5b61522d83614fcd565b9150602083013567ffffffffffffffff81111561524957600080fd5b615255858286016150ac565b9150509250929050565b6020808252825182820181905260009190848201906040850190845b818110156152975783518352928401929184019160010161527b565b50909695505050505050565b8051825260208082015190830152604080820151908301526060808201516001600160a01b0316908301526080808201519083015260a090810151910152565b60c08101610d8e82846152a3565b602080825282518282018190526000919060409081850190868401855b8281101561537157815180518552868101518786015285810151151586860152606080820151908601526080808201516001600160a01b03169086015260a0808201519086015260c0908101519085015260e0909301929085019060010161530e565b5091979650505050505050565b6000806040838503121561539157600080fd5b50508035926020909101359150565b80151581146117d757600080fd5b600080604083850312156153c157600080fd5b6153ca83614fcd565b915060208301356153da816153a0565b809150509250929050565b600080600080608085870312156153fb57600080fd5b61540485614fcd565b935061541260208601614fcd565b925060408501359150606085013567ffffffffffffffff81111561543557600080fd5b615441878288016150ac565b91505092959194509250565b6020808252825182820181905260009190848201906040850190845b818110156152975761547c8385516152a3565b9284019260c09290920191600101615469565b600080604083850312156154a257600080fd5b6154ab83614fcd565b915061508d60208401614fcd565b600181811c908216806154cd57607f821691505b602082108103611fd857634e487b7160e01b600052602260045260246000fd5b6020808252601f908201527f5265656e7472616e637947756172643a207265656e7472616e742063616c6c00604082015260600190565b60208082526010908201526f14185d5cd8589b194e881c185d5cd95960821b604082015260600190565b634e487b7160e01b600052601160045260246000fd5b600081600019048311821515161561557e5761557e61554e565b500290565b634e487b7160e01b600052601260045260246000fd5b6000826155a8576155a8615583565b500490565b6000828210156155bf576155bf61554e565b500390565b600082198211156155d7576155d761554e565b500190565b6001600160a01b0394909416845260208401929092526040830152606082015260800190565b60208082526031908201527f4552433732313a207472616e736665722063616c6c6572206973206e6f74206f6040820152701ddb995c881b9bdc88185c1c1c9bdd9959607a1b606082015260800190565b6020808252602f908201527f5265736375652063616e6e6f74206265206d61646520647572696e672066756e60408201526e191c985a5cda5b99c81c195c9a5bd9608a1b606082015260800190565b6020808252602c908201527f46756e6374696f6e206d7573742062652063616c6c6564207468726f7567682060408201526b19195b1959d85d1958d85b1b60a21b606082015260800190565b6020808252602c908201527f46756e6374696f6e206d7573742062652063616c6c6564207468726f7567682060408201526b6163746976652070726f787960a01b606082015260800190565b634e487b7160e01b600052603260045260246000fd5b6000600182016157625761576261554e565b5060010190565b60006020828403121561577b57600080fd5b5051919050565b6001600160a01b039687168152602081019590955260408501939093526060840191909152909216608082015260a081019190915260c00190565b6000602082840312156157cf57600080fd5b8151612b17816153a0565b60208082526024908201527f46756e6472616973696e6720706572696f642068617320616c726561647920656040820152631b99195960e21b606082015260800190565b6001600160a01b039586168152602081019490945260408401929092529092166060820152608081019190915260a00190565b60008151615863818560208601614f49565b9290920192915050565b600080855481600182811c91508083168061588957607f831692505b602080841082036158a857634e487b7160e01b86526022600452602486fd5b8180156158bc57600181146158cd576158fa565b60ff198616895284890196506158fa565b60008c81526020902060005b868110156158f25781548b8201529085019083016158d9565b505084890196505b5050602f60f81b85525061591081850189615851565b602f60f81b8152935061592581850188615851565b935050505061593b8164173539b7b760d91b9052565b60050195945050505050565b60208082526031908201527f4465706f736974732063616e6e6f74206265206d61646520647572696e6720666040820152701d5b991c985a5cda5b99c81c195c9a5bd9607a1b606082015260800190565b60208082526037908201527f4e6f207368617265732068617665206265656e20736f6c642e204465706f736960408201527f74732077696c6c206e6f74206265206163636570746564000000000000000000606082015260800190565b60208082526025908201527f4465706f73697420616d6f756e74206d75737420626520677265617465722074604082015264068616e20360dc1b606082015260800190565b7f416363657373436f6e74726f6c3a206163636f756e7420000000000000000000815260008351615a72816017850160208801614f49565b7001034b99036b4b9b9b4b733903937b6329607d1b6017918401918201528351615aa3816028840160208801614f49565b01602801949350505050565b6020808252602b908201527f496e697469616c697a61626c653a20636f6e7472616374206973206e6f74206960408201526a6e697469616c697a696e6760a81b606082015260800190565b600181815b80851115615b35578160001904821115615b1b57615b1b61554e565b80851615615b2857918102915b93841c9390800290615aff565b509250929050565b600082615b4c57506001610d8e565b81615b5957506000610d8e565b8160018114615b6f5760028114615b7957615b95565b6001915050610d8e565b60ff841115615b8a57615b8a61554e565b50506001821b610d8e565b5060208310610133831016604e8410600b8410161715615bb8575081810a610d8e565b615bc28383615afa565b8060001904821115615bd657615bd661554e565b029392505050565b6000612b178383615b3d565b60208082526032908201527f4552433732313a207472616e7366657220746f206e6f6e20455243373231526560408201527131b2b4bb32b91034b6b83632b6b2b73a32b960711b606082015260800190565b600081615c4b57615c4b61554e565b506000190190565b600082615c6257615c62615583565b500690565b6001600160a01b0385811682528416602082015260408101839052608060608201819052600090615c9a90830184614f75565b9695505050505050565b600060208284031215615cb657600080fd5b8151612b1781614f16565b60008251615cd3818460208701614f49565b9190910192915050565b634e487b7160e01b600052603160045260246000fdfe3b5d4cc60d3ec3516ee8ae083bd60934f6eb2a6c54b1229985c41bfb092b2603360894a13ba1a3210667c828492db98dca3e2076cc3735a920a3ca505d382bbc416464726573733a206c6f772d6c6576656c2064656c65676174652063616c6c206661696c6564a2646970667358221220528e396d1c12a3fe5bf61da534d7b06bb03c72e18a38b54db53efc7bbc243f1e64736f6c634300080d0033",
  "linkReferences": {},
  "deployedLinkReferences": {}
}