{
  "_format": "hh-sol-artifact-1",
  "contractName": "LootboxInstantFactory",
  "sourceName": "contracts/LootboxInstantFactory.sol",
  "abi": [
    {
      "inputs": [
        {
          "internalType": "address",
          "name": "_lootboxDao",
          "type": "address"
        },
        {
          "internalType": "address",
          "name": "_nativeTokenPriceFeed",
          "type": "address"
        },
        {
          "internalType": "uint256",
          "name": "_ticketPurchaseFee",
          "type": "uint256"
        },
        {
          "internalType": "address",
          "name": "_brokerAddress",
          "type": "address"
        }
      ],
      "stateMutability": "nonpayable",
      "type": "constructor"
    },
    {
      "anonymous": false,
      "inputs": [
        {
          "indexed": true,
          "internalType": "address",
          "name": "lootbox",
          "type": "address"
        },
        {
          "indexed": true,
          "internalType": "address",
          "name": "affiliate",
          "type": "address"
        },
        {
          "indexed": false,
          "internalType": "uint256",
          "name": "affiliateFee",
          "type": "uint256"
        },
        {
          "indexed": false,
          "internalType": "uint256",
          "name": "ticketPurchaseFee",
          "type": "uint256"
        },
        {
          "indexed": false,
          "internalType": "address",
          "name": "lootboxIssuer",
          "type": "address"
        },
        {
          "indexed": false,
          "internalType": "address",
          "name": "lootboxTreasury",
          "type": "address"
        }
      ],
      "name": "AffiliateReceipt",
      "type": "event"
    },
    {
      "anonymous": false,
      "inputs": [
        {
          "indexed": true,
          "internalType": "address",
          "name": "affiliate",
          "type": "address"
        },
        {
          "indexed": true,
          "internalType": "address",
          "name": "whitelistedBy",
          "type": "address"
        },
        {
          "indexed": false,
          "internalType": "uint256",
          "name": "ticketAffiliateFee",
          "type": "uint256"
        },
        {
          "indexed": false,
          "internalType": "uint256",
          "name": "timestamp",
          "type": "uint256"
        }
      ],
      "name": "AffiliateWhitelisted",
      "type": "event"
    },
    {
      "anonymous": false,
      "inputs": [
        {
          "indexed": false,
          "internalType": "string",
          "name": "lootboxName",
          "type": "string"
        },
        {
          "indexed": true,
          "internalType": "address",
          "name": "lootbox",
          "type": "address"
        },
        {
          "indexed": true,
          "internalType": "address",
          "name": "issuer",
          "type": "address"
        },
        {
          "indexed": true,
          "internalType": "address",
          "name": "treasury",
          "type": "address"
        },
        {
          "indexed": false,
          "internalType": "uint256",
          "name": "maxSharesSold",
          "type": "uint256"
        },
        {
          "indexed": false,
          "internalType": "uint256",
          "name": "sharePriceUSD",
          "type": "uint256"
        },
        {
          "indexed": false,
          "internalType": "string",
          "name": "_data",
          "type": "string"
        }
      ],
      "name": "LootboxCreated",
      "type": "event"
    },
    {
      "anonymous": false,
      "inputs": [
        {
          "indexed": false,
          "internalType": "address",
          "name": "account",
          "type": "address"
        }
      ],
      "name": "Paused",
      "type": "event"
    },
    {
      "anonymous": false,
      "inputs": [
        {
          "indexed": true,
          "internalType": "bytes32",
          "name": "role",
          "type": "bytes32"
        },
        {
          "indexed": true,
          "internalType": "bytes32",
          "name": "previousAdminRole",
          "type": "bytes32"
        },
        {
          "indexed": true,
          "internalType": "bytes32",
          "name": "newAdminRole",
          "type": "bytes32"
        }
      ],
      "name": "RoleAdminChanged",
      "type": "event"
    },
    {
      "anonymous": false,
      "inputs": [
        {
          "indexed": true,
          "internalType": "bytes32",
          "name": "role",
          "type": "bytes32"
        },
        {
          "indexed": true,
          "internalType": "address",
          "name": "account",
          "type": "address"
        },
        {
          "indexed": true,
          "internalType": "address",
          "name": "sender",
          "type": "address"
        }
      ],
      "name": "RoleGranted",
      "type": "event"
    },
    {
      "anonymous": false,
      "inputs": [
        {
          "indexed": true,
          "internalType": "bytes32",
          "name": "role",
          "type": "bytes32"
        },
        {
          "indexed": true,
          "internalType": "address",
          "name": "account",
          "type": "address"
        },
        {
          "indexed": true,
          "internalType": "address",
          "name": "sender",
          "type": "address"
        }
      ],
      "name": "RoleRevoked",
      "type": "event"
    },
    {
      "anonymous": false,
      "inputs": [
        {
          "indexed": false,
          "internalType": "address",
          "name": "account",
          "type": "address"
        }
      ],
      "name": "Unpaused",
      "type": "event"
    },
    {
      "inputs": [],
      "name": "DAO_ROLE",
      "outputs": [
        {
          "internalType": "bytes32",
          "name": "",
          "type": "bytes32"
        }
      ],
      "stateMutability": "view",
      "type": "function"
    },
    {
      "inputs": [],
      "name": "DEFAULT_ADMIN_ROLE",
      "outputs": [
        {
          "internalType": "bytes32",
          "name": "",
          "type": "bytes32"
        }
      ],
      "stateMutability": "view",
      "type": "function"
    },
    {
      "inputs": [
        {
          "internalType": "address",
          "name": "affiliate",
          "type": "address"
        },
        {
          "internalType": "uint256",
          "name": "ticketAffiliateFee",
          "type": "uint256"
        }
      ],
      "name": "addAffiliate",
      "outputs": [],
      "stateMutability": "nonpayable",
      "type": "function"
    },
    {
      "inputs": [],
      "name": "brokerAddress",
      "outputs": [
        {
          "internalType": "address",
          "name": "",
          "type": "address"
        }
      ],
      "stateMutability": "view",
      "type": "function"
    },
    {
      "inputs": [
        {
          "internalType": "address",
          "name": "lootbox",
          "type": "address"
        }
      ],
      "name": "checkLootboxAffiliate",
      "outputs": [
        {
          "internalType": "address",
          "name": "",
          "type": "address"
        }
      ],
      "stateMutability": "view",
      "type": "function"
    },
    {
      "inputs": [
        {
          "internalType": "string",
          "name": "_lootboxName",
          "type": "string"
        },
        {
          "internalType": "string",
          "name": "_lootboxSymbol",
          "type": "string"
        },
        {
          "internalType": "uint256",
          "name": "_maxSharesSold",
          "type": "uint256"
        },
        {
          "internalType": "address",
          "name": "_treasury",
          "type": "address"
        },
        {
          "internalType": "address",
          "name": "_affiliate",
          "type": "address"
        },
        {
          "internalType": "string",
          "name": "_data",
          "type": "string"
        }
      ],
      "name": "createLootbox",
      "outputs": [
        {
          "internalType": "address",
          "name": "_lootbox",
          "type": "address"
        }
      ],
      "stateMutability": "nonpayable",
      "type": "function"
    },
    {
      "inputs": [
        {
          "internalType": "bytes32",
          "name": "role",
          "type": "bytes32"
        }
      ],
      "name": "getRoleAdmin",
      "outputs": [
        {
          "internalType": "bytes32",
          "name": "",
          "type": "bytes32"
        }
      ],
      "stateMutability": "view",
      "type": "function"
    },
    {
      "inputs": [
        {
          "internalType": "bytes32",
          "name": "role",
          "type": "bytes32"
        },
        {
          "internalType": "address",
          "name": "account",
          "type": "address"
        }
      ],
      "name": "grantRole",
      "outputs": [],
      "stateMutability": "nonpayable",
      "type": "function"
    },
    {
      "inputs": [
        {
          "internalType": "bytes32",
          "name": "role",
          "type": "bytes32"
        },
        {
          "internalType": "address",
          "name": "account",
          "type": "address"
        }
      ],
      "name": "hasRole",
      "outputs": [
        {
          "internalType": "bool",
          "name": "",
          "type": "bool"
        }
      ],
      "stateMutability": "view",
      "type": "function"
    },
    {
      "inputs": [],
      "name": "listAffiliates",
      "outputs": [
        {
          "internalType": "bytes32[]",
          "name": "_affiliates",
          "type": "bytes32[]"
        }
      ],
      "stateMutability": "view",
      "type": "function"
    },
    {
      "inputs": [],
      "name": "lootboxImplementation",
      "outputs": [
        {
          "internalType": "address",
          "name": "",
          "type": "address"
        }
      ],
      "stateMutability": "view",
      "type": "function"
    },
    {
      "inputs": [],
      "name": "nativeTokenPriceFeed",
      "outputs": [
        {
          "internalType": "address",
          "name": "",
          "type": "address"
        }
      ],
      "stateMutability": "view",
      "type": "function"
    },
    {
      "inputs": [],
      "name": "pause",
      "outputs": [],
      "stateMutability": "nonpayable",
      "type": "function"
    },
    {
      "inputs": [],
      "name": "paused",
      "outputs": [
        {
          "internalType": "bool",
          "name": "",
          "type": "bool"
        }
      ],
      "stateMutability": "view",
      "type": "function"
    },
    {
      "inputs": [
        {
          "internalType": "bytes32",
          "name": "role",
          "type": "bytes32"
        },
        {
          "internalType": "address",
          "name": "account",
          "type": "address"
        }
      ],
      "name": "renounceRole",
      "outputs": [],
      "stateMutability": "nonpayable",
      "type": "function"
    },
    {
      "inputs": [
        {
          "internalType": "bytes32",
          "name": "role",
          "type": "bytes32"
        },
        {
          "internalType": "address",
          "name": "account",
          "type": "address"
        }
      ],
      "name": "revokeRole",
      "outputs": [],
      "stateMutability": "nonpayable",
      "type": "function"
    },
    {
      "inputs": [],
      "name": "sharePriceUSD",
      "outputs": [
        {
          "internalType": "uint256",
          "name": "",
          "type": "uint256"
        }
      ],
      "stateMutability": "view",
      "type": "function"
    },
    {
      "inputs": [
        {
          "internalType": "bytes4",
          "name": "interfaceId",
          "type": "bytes4"
        }
      ],
      "name": "supportsInterface",
      "outputs": [
        {
          "internalType": "bool",
          "name": "",
          "type": "bool"
        }
      ],
      "stateMutability": "view",
      "type": "function"
    },
    {
      "inputs": [],
      "name": "ticketPurchaseFee",
      "outputs": [
        {
          "internalType": "uint256",
          "name": "",
          "type": "uint256"
        }
      ],
      "stateMutability": "view",
      "type": "function"
    },
    {
      "inputs": [],
      "name": "unpause",
      "outputs": [],
      "stateMutability": "nonpayable",
      "type": "function"
    },
    {
      "inputs": [],
      "name": "viewLootboxes",
      "outputs": [
        {
          "internalType": "bytes32[]",
          "name": "",
          "type": "bytes32[]"
        }
      ],
      "stateMutability": "view",
      "type": "function"
    }
  ],
  "bytecode": "0x6101006040523480156200001257600080fd5b5060405162007d7738038062007d7783398101604081905262000035916200032f565b6000805460ff191690556001600160a01b038416620000a65760405162461bcd60e51b815260206004820152602260248201527f44414f204c6f6f74626f7820616464726573732063616e6e6f74206265207a65604482015261726f60f01b60648201526084015b60405180910390fd5b6001600160a01b038116620000fe5760405162461bcd60e51b815260206004820152601d60248201527f42726f6b657220616464726573732063616e6e6f74206265207a65726f00000060448201526064016200009d565b6001600160a01b0383166200016a5760405162461bcd60e51b815260206004820152602b60248201527f6e6174697665546f6b656e50726963654665656420616464726573732063616e60448201526a6e6f74206265207a65726f60a81b60648201526084016200009d565b6305f5e1008210620001e55760405162461bcd60e51b815260206004820152603660248201527f5075726368617365207469636b657420666565206d757374206265206c65737360448201527f207468616e20313030303030303030202831303025290000000000000000000060648201526084016200009d565b604051620001f39062000304565b604051809103906000f08015801562000210573d6000803e3d6000fd5b5060601b6001600160601b0319166080526200024d7f3b5d4cc60d3ec3516ee8ae083bd60934f6eb2a6c54b1229985c41bfb092b2603856200027b565b624c4b406002556001600160601b0319606093841b811660a05260c09290925290911b1660e0525062000382565b60008281526001602090815260408083206001600160a01b038516845290915290205460ff16620003005760008281526001602081815260408084206001600160a01b0386168086529252808420805460ff19169093179092559051339285917f2f8788117e7eff1d82e926ec794901d17c78024a50270940304540a733656f0d9190a45b5050565b615c4a806200212d83390190565b80516001600160a01b03811681146200032a57600080fd5b919050565b6000806000806080858703121562000345578384fd5b620003508562000312565b9350620003606020860162000312565b925060408501519150620003776060860162000312565b905092959194509250565b60805160601c60a05160601c60c05160e05160601c611d3e620003ef60003960008181610252015261097b0152600081816102e80152818161050f015281816109340152610acb01526000818161032701526109130152600081816101a101526108e20152611d3e6000f3fe60806040523480156200001157600080fd5b5060043610620001515760003560e01c80635c975abb11620000c7578063a7c721c51162000086578063a7c721c514620002e2578063d547741f146200030a578063d7c28bb21462000321578063e9c265181462000349578063f9b778ff1462000360578063fd9e62a9146200037757600080fd5b80635c975abb1462000295578063737d568714620002a15780638456cb5914620002b857806391d1485414620002c2578063a217fddf14620002d957600080fd5b806336568abe116200011457806336568abe146200022b5780633f4ba83a14620002425780635089f796146200024c5780635225b69c1462000274578063565bae8d146200027e57600080fd5b806301ffc9a7146200015657806317088631146200018257806319dd5657146200019b578063248a9ca314620001dc5780632f2ff15d1462000212575b600080fd5b6200016d62000167366004620011b8565b62000381565b60405190151581526020015b60405180910390f35b6200018c620003b9565b60405162000179919062001373565b620001c37f000000000000000000000000000000000000000000000000000000000000000081565b6040516001600160a01b03909116815260200162000179565b62000203620001ed36600462001171565b6000908152600160208190526040909120015490565b60405190815260200162000179565b62000229620002233660046200118a565b62000412565b005b620002296200023c3660046200118a565b62000442565b62000229620004c8565b620001c37f000000000000000000000000000000000000000000000000000000000000000081565b6200020360025481565b620002296200028f36600462001145565b620004f1565b60005460ff166200016d565b620001c3620002b236600462001128565b62000627565b6200022962000665565b6200016d620002d33660046200118a565b6200068b565b62000203600081565b620002037f000000000000000000000000000000000000000000000000000000000000000081565b620002296200031b3660046200118a565b620006b6565b620001c37f000000000000000000000000000000000000000000000000000000000000000081565b6200020360008051602062001ce983398151915281565b620001c362000371366004620011e2565b620006e1565b6200018c62000b3a565b60006001600160e01b03198216637965db0b60e01b1480620003b357506301ffc9a760e01b6001600160e01b03198316145b92915050565b6007805460408051602080840282018101909252828152606093909290918301828280156200040857602002820191906000526020600020905b815481526020019060010190808311620003f3575b5050505050905090565b6000828152600160208190526040909120015462000431813362000bae565b6200043d838362000c1d565b505050565b6001600160a01b0381163314620004b85760405162461bcd60e51b815260206004820152602f60248201527f416363657373436f6e74726f6c3a2063616e206f6e6c792072656e6f756e636560448201526e103937b632b9903337b91039b2b63360891b60648201526084015b60405180910390fd5b620004c4828262000c8b565b5050565b60008051602062001ce9833981519152620004e4813362000bae565b620004ee62000cf5565b50565b60008051602062001ce98339815191526200050d813362000bae565b7f0000000000000000000000000000000000000000000000000000000000000000821115620005b45760405162461bcd60e51b815260206004820152604660248201527f416666696c69617465207469636b657420666565206d757374206265206c657360448201527f73207468616e206f7220657175616c20746f207075726368617365207469636b60648201526565742066656560d01b608482015260a401620004af565b6001600160a01b0383166000908152600360205260409020829055620005dc60058462000d8a565b506040805183815242602082015233916001600160a01b038616917f92b63ef4b711e706248082654091a6c515ca36d749b6008a128776a88f03830e910160405180910390a3505050565b600060008051602062001ce983398151915262000645813362000bae565b50506001600160a01b039081166000908152600460205260409020541690565b60008051602062001ce983398151915262000681813362000bae565b620004ee62000da8565b60009182526001602090815260408084206001600160a01b0393909316845291905290205460ff1690565b60008281526001602081905260409091200154620006d5813362000bae565b6200043d838362000c8b565b6000805460ff16156200072a5760405162461bcd60e51b815260206004820152601060248201526f14185d5cd8589b194e881c185d5cd95960821b6044820152606401620004af565b86516200077a5760405162461bcd60e51b815260206004820152601c60248201527f4c6f6f74626f78206e616d652063616e6e6f7420626520656d707479000000006044820152606401620004af565b8551620007ca5760405162461bcd60e51b815260206004820152601e60248201527f4c6f6f74626f782073796d626f6c2063616e6e6f7420626520656d70747900006044820152606401620004af565b6001600160a01b038416620008225760405162461bcd60e51b815260206004820152601f60248201527f547265617375727920616464726573732063616e6e6f74206265207a65726f006044820152606401620004af565b6001600160a01b0383166200087a5760405162461bcd60e51b815260206004820181905260248201527f416666696c6961746520616464726573732063616e6e6f74206265207a65726f6044820152606401620004af565b60008511620008de5760405162461bcd60e51b815260206004820152602960248201527f4d61782073686172657320736f6c64206d7573742062652067726561746572206044820152687468616e207a65726f60b81b6064820152608401620004af565b60007f00000000000000000000000000000000000000000000000000000000000000006364fcac4060e01b8989896002548a337f00000000000000000000000000000000000000000000000000000000000000007f0000000000000000000000000000000000000000000000000000000000000000600360008f6001600160a01b03166001600160a01b03168152602001908152602001600020547f00000000000000000000000000000000000000000000000000000000000000008f604051602401620009b79b9a99989796959493929190620013ce565b60408051601f198184030181529181526020820180516001600160e01b03166001600160e01b0319909416939093179092529051620009f6906200106e565b62000a0392919062001345565b604051809103906000f08015801562000a20573d6000803e3d6000fd5b50905062000a3060078262000d8a565b506001600160a01b038181166000818152600460205260409081902080546001600160a01b0319168885161790556002549051928816923392917ff39d14fa0aa07a94a72c62bae5fb327d547a62865bdd8fcfa9c5223107c35a7c9162000a9e918e918d91908b9062001450565b60405180910390a46001600160a01b038481166000818152600360209081526040918290205482519081527f00000000000000000000000000000000000000000000000000000000000000009181019190915233818301528884166060820152905191928416917f0b4c73cb9afffcc1a8fe5a90b0072b37bb1da3a9256116b10867b2115bd6c48b9181900360800190a3979650505050505050565b606060008051602062001ce983398151915262000b58813362000bae565b600580546040805160208084028201810190925282815292919083018282801562000ba357602002820191906000526020600020905b81548152602001906001019080831162000b8e575b505050505091505090565b62000bba82826200068b565b620004c45762000bd5816001600160a01b0316601462000e26565b62000be283602062000e26565b60405160200162000bf5929190620012cc565b60408051601f198184030181529082905262461bcd60e51b8252620004af91600401620013b9565b62000c2982826200068b565b620004c45760008281526001602081815260408084206001600160a01b0386168086529252808420805460ff19169093179092559051339285917f2f8788117e7eff1d82e926ec794901d17c78024a50270940304540a733656f0d9190a45050565b62000c9782826200068b565b15620004c45760008281526001602090815260408083206001600160a01b0385168085529252808320805460ff1916905551339285917ff6391f5c32d9c69d2a47ea670b442974b53935d1edc7fd64eb21e047a839171b9190a45050565b60005460ff1662000d405760405162461bcd60e51b815260206004820152601460248201527314185d5cd8589b194e881b9bdd081c185d5cd95960621b6044820152606401620004af565b6000805460ff191690557f5db9ee0a495bf2e6ff9c91a7834c1ba4fdd244a5e8aa4e537bd38aeae4b073aa335b6040516001600160a01b03909116815260200160405180910390a1565b600062000da1836001600160a01b0384166200101c565b9392505050565b60005460ff161562000df05760405162461bcd60e51b815260206004820152601060248201526f14185d5cd8589b194e881c185d5cd95960821b6044820152606401620004af565b6000805460ff191660011790557f62e78cea01bee320cd4e420270b5ea74000d11b0c9f74754ebdbfc544b05a25862000d6d3390565b6060600062000e37836002620014ab565b62000e4490600262001490565b67ffffffffffffffff81111562000e6b57634e487b7160e01b600052604160045260246000fd5b6040519080825280601f01601f19166020018201604052801562000e96576020820181803683370190505b509050600360fc1b8160008151811062000ec057634e487b7160e01b600052603260045260246000fd5b60200101906001600160f81b031916908160001a905350600f60fb1b8160018151811062000efe57634e487b7160e01b600052603260045260246000fd5b60200101906001600160f81b031916908160001a905350600062000f24846002620014ab565b62000f3190600162001490565b90505b600181111562000fcb576f181899199a1a9b1b9c1cb0b131b232b360811b85600f166010811062000f7557634e487b7160e01b600052603260045260246000fd5b1a60f81b82828151811062000f9a57634e487b7160e01b600052603260045260246000fd5b60200101906001600160f81b031916908160001a90535060049490941c9362000fc38162001500565b905062000f34565b50831562000da15760405162461bcd60e51b815260206004820181905260248201527f537472696e67733a20686578206c656e67746820696e73756666696369656e746044820152606401620004af565b60008181526001830160205260408120546200106557508154600181810184556000848152602080822090930184905584548482528286019093526040902091909155620003b3565b506000620003b3565b6107a2806200154783390190565b80356001600160a01b03811681146200109457600080fd5b919050565b600082601f830112620010aa578081fd5b813567ffffffffffffffff80821115620010c857620010c862001530565b604051601f8301601f19908116603f01168101908282118183101715620010f357620010f362001530565b816040528381528660208588010111156200110c578485fd5b8360208701602083013792830160200193909352509392505050565b6000602082840312156200113a578081fd5b62000da1826200107c565b6000806040838503121562001158578081fd5b62001163836200107c565b946020939093013593505050565b60006020828403121562001183578081fd5b5035919050565b600080604083850312156200119d578182fd5b82359150620011af602084016200107c565b90509250929050565b600060208284031215620011ca578081fd5b81356001600160e01b03198116811462000da1578182fd5b60008060008060008060c08789031215620011fb578182fd5b863567ffffffffffffffff8082111562001213578384fd5b620012218a838b0162001099565b9750602089013591508082111562001237578384fd5b620012458a838b0162001099565b9650604089013595506200125c60608a016200107c565b94506200126c60808a016200107c565b935060a089013591508082111562001282578283fd5b506200129189828a0162001099565b9150509295509295509295565b60008151808452620012b8816020860160208601620014cd565b601f01601f19169290920160200192915050565b7f416363657373436f6e74726f6c3a206163636f756e742000000000000000000081526000835162001306816017850160208801620014cd565b7001034b99036b4b9b9b4b733903937b6329607d1b601791840191820152835162001339816028840160208801620014cd565b01602801949350505050565b6001600160a01b03831681526040602082018190526000906200136b908301846200129e565b949350505050565b6020808252825182820181905260009190848201906040850190845b81811015620013ad578351835292840192918401916001016200138f565b50909695505050505050565b60208152600062000da160208301846200129e565b6000610160808352620013e48184018f6200129e565b90508281036020840152620013fa818e6200129e565b604084019c909c52505060608101989098526001600160a01b03968716608089015294861660a088015292851660c087015260e08601919091526101008501528216610120840152166101409091015292915050565b6080815260006200146560808301876200129e565b85602084015284604084015282810360608401526200148581856200129e565b979650505050505050565b60008219821115620014a657620014a66200151a565b500190565b6000816000190483118215151615620014c857620014c86200151a565b500290565b60005b83811015620014ea578181015183820152602001620014d0565b83811115620014fa576000848401525b50505050565b6000816200151257620015126200151a565b506000190190565b634e487b7160e01b600052601160045260246000fd5b634e487b7160e01b600052604160045260246000fdfe60806040526040516107a23803806107a283398101604081905261002291610315565b61004d60017f360894a13ba1a3210667c828492db98dca3e2076cc3735a920a3ca505d382bbd61042d565b60008051602061075b8339815191521461007757634e487b7160e01b600052600160045260246000fd5b6100838282600061008a565b5050610492565b610093836100c0565b6000825111806100a05750805b156100bb576100b9838361010060201b6100291760201c565b505b505050565b6100c98161012c565b6040516001600160a01b038216907fbc7cd75a20ee27fd9adebab32041f755214dbc6bffa90cc0225b39da2e5c2d3b90600090a250565b6060610125838360405180606001604052806027815260200161077b602791396101ec565b9392505050565b61013f816102ca60201b6100551760201c565b6101a65760405162461bcd60e51b815260206004820152602d60248201527f455243313936373a206e657720696d706c656d656e746174696f6e206973206e60448201526c1bdd08184818dbdb9d1c9858dd609a1b60648201526084015b60405180910390fd5b806101cb60008051602061075b83398151915260001b6102d960201b6100641760201c565b80546001600160a01b0319166001600160a01b039290921691909117905550565b60606001600160a01b0384163b6102545760405162461bcd60e51b815260206004820152602660248201527f416464726573733a2064656c65676174652063616c6c20746f206e6f6e2d636f6044820152651b9d1c9858dd60d21b606482015260840161019d565b600080856001600160a01b03168560405161026f91906103de565b600060405180830381855af49150503d80600081146102aa576040519150601f19603f3d011682016040523d82523d6000602084013e6102af565b606091505b5090925090506102c08282866102dc565b9695505050505050565b6001600160a01b03163b151590565b90565b606083156102eb575081610125565b8251156102fb5782518084602001fd5b8160405162461bcd60e51b815260040161019d91906103fa565b60008060408385031215610327578182fd5b82516001600160a01b038116811461033d578283fd5b60208401519092506001600160401b0380821115610359578283fd5b818501915085601f83011261036c578283fd5b81518181111561037e5761037e61047c565b604051601f8201601f19908116603f011681019083821181831017156103a6576103a661047c565b816040528281528860208487010111156103be578586fd5b6103cf836020830160208801610450565b80955050505050509250929050565b600082516103f0818460208701610450565b9190910192915050565b6020815260008251806020840152610419816040850160208701610450565b601f01601f19169190910160400192915050565b60008282101561044b57634e487b7160e01b81526011600452602481fd5b500390565b60005b8381101561046b578181015183820152602001610453565b838111156100b95750506000910152565b634e487b7160e01b600052604160045260246000fd5b6102ba806104a16000396000f3fe60806040523661001357610011610017565b005b6100115b610027610022610067565b61009f565b565b606061004e838360405180606001604052806027815260200161025e602791396100c3565b9392505050565b6001600160a01b03163b151590565b90565b600061009a7f360894a13ba1a3210667c828492db98dca3e2076cc3735a920a3ca505d382bbc546001600160a01b031690565b905090565b3660008037600080366000845af43d6000803e8080156100be573d6000f35b3d6000fd5b60606001600160a01b0384163b6101305760405162461bcd60e51b815260206004820152602660248201527f416464726573733a2064656c65676174652063616c6c20746f206e6f6e2d636f6044820152651b9d1c9858dd60d21b60648201526084015b60405180910390fd5b600080856001600160a01b03168560405161014b91906101de565b600060405180830381855af49150503d8060008114610186576040519150601f19603f3d011682016040523d82523d6000602084013e61018b565b606091505b509150915061019b8282866101a5565b9695505050505050565b606083156101b457508161004e565b8251156101c45782518084602001fd5b8160405162461bcd60e51b815260040161012791906101fa565b600082516101f081846020870161022d565b9190910192915050565b602081526000825180602084015261021981604085016020870161022d565b601f01601f19169190910160400192915050565b60005b83811015610248578181015183820152602001610230565b83811115610257576000848401525b5050505056fe416464726573733a206c6f772d6c6576656c2064656c65676174652063616c6c206661696c6564a2646970667358221220e14c3fee28687df8af621b132b9789cfe2ceb6f7d6de514bb73c2956ffe9d6dd64736f6c63430008040033360894a13ba1a3210667c828492db98dca3e2076cc3735a920a3ca505d382bbc416464726573733a206c6f772d6c6576656c2064656c65676174652063616c6c206661696c65643b5d4cc60d3ec3516ee8ae083bd60934f6eb2a6c54b1229985c41bfb092b2603a26469706673582212202c8e4bdd90f6297f82b0dc8b9c4039bcbed70b7ca5a82e05912225a7b8c017a364736f6c6343000804003360a06040523060601b6080523480156200001857600080fd5b50600054610100900460ff16620000365760005460ff161562000040565b62000040620000e5565b620000a85760405162461bcd60e51b815260206004820152602e60248201527f496e697469616c697a61626c653a20636f6e747261637420697320616c72656160448201526d191e481a5b9a5d1a585b1a5e995960921b606482015260840160405180910390fd5b600054610100900460ff16158015620000cb576000805461ffff19166101011790555b8015620000de576000805461ff00191690555b5062000112565b6000620000fd306200010360201b6200388f1760201c565b15905090565b6001600160a01b03163b151590565b60805160601c615afd6200014d60003960008181611b9c01528181611bdc01528181611cb801528181611cf80152611ec90152615afd6000f3fe6080604052600436106104145760003560e01c80636f2ef95b1161021e578063a7c721c511610123578063dd137455116100ab578063e985e9c51161007a578063e985e9c514610c44578063e9c2651814610c8d578063fbf97c5914610caf578063fdf27dba14610cdd578063ff7808e914610cf457600080fd5b8063dd13745514610bd6578063dd7af03514610bf8578063e6deb18d14610c0f578063e88e3f9314610c2f57600080fd5b8063c87b56dd116100f2578063c87b56dd14610b55578063ca11016d14610b75578063cc0f178614610b8a578063d547741f14610ba1578063da3537a814610bc157600080fd5b8063a7c721c514610a6c578063abff011014610a83578063ae501c0414610aa4578063b88d4fde14610b3557600080fd5b80638c824949116101a65780639f792340116101755780639f792340146109eb578063a07ae16a14610a02578063a217fddf14610a17578063a22cb46514610a2c578063a7485cf114610a4c57600080fd5b80638c824949146109725780639088feba1461097a57806391d14854146109b657806395d89b41146109d657600080fd5b80637eee3803116101ed5780637eee380314610902578063816c42f6146109195780638240b777146109305780638456cb59146109455780638802255f1461095a57600080fd5b80636f2ef95b146108735780636fcf1e65146108a057806370a08231146108b557806378d85c4e146108d557600080fd5b80633f4ba83a11610324578063533573fe116102ac5780636352211e1161027b5780636352211e146107b857806364fcac40146107d857806369d85d54146107f85780636c9d3b3a146108255780636e70096e1461085357600080fd5b8063533573fe14610742578063588dae3c1461075a5780635c975abb1461077a57806361d027b31461079257600080fd5b80634f6ccce7116102f35780634f6ccce7146106c657806351f0a93f146106e65780635225b69c146106fb578063522c21781461071257806352d1902d1461072d57600080fd5b80633f4ba83a1461065d57806342842e0e1461067257806345e05f43146106925780634f1ef286146106b357600080fd5b806321846c76116103a75780632f2ff15d116103765780632f2ff15d146105c65780632f745c59146105e657806336568abe146106065780633659cfe6146106265780633af8e5eb1461064657600080fd5b806321846c761461053957806323b872dd14610556578063248a9ca3146105765780632a4c03cc146105a657600080fd5b8063095ea7b3116103e3578063095ea7b3146104c457806318160ddd146104e657806318fc77ae146105055780631d1438481461051857600080fd5b806301ffc9a71461042057806305bc64eb1461045557806306fdde0314610477578063081812fc1461048c57600080fd5b3661041b57005b600080fd5b34801561042c57600080fd5b5061044061043b3660046150ec565b610d0b565b60405190151581526020015b60405180910390f35b34801561046157600080fd5b5061046a610d1c565b60405161044c91906154fa565b34801561048357600080fd5b5061046a610dab565b34801561049857600080fd5b506104ac6104a736600461509a565b610e3d565b6040516001600160a01b03909116815260200161044c565b3480156104d057600080fd5b506104e46104df366004615055565b610ed7565b005b3480156104f257600080fd5b506099545b60405190815260200161044c565b6104e4610513366004615055565b610fed565b34801561052457600080fd5b506101c8546104ac906001600160a01b031681565b61054161134e565b6040805192835260208301919091520161044c565b34801561056257600080fd5b506104e4610571366004614f32565b6118ee565b34801561058257600080fd5b506104f761059136600461509a565b600090815260fb602052604090206001015490565b3480156105b257600080fd5b506104e46105c1366004614ee6565b61191f565b3480156105d257600080fd5b506104e46105e13660046150ca565b611a57565b3480156105f257600080fd5b506104f7610601366004615055565b611a7d565b34801561061257600080fd5b506104e46106213660046150ca565b611b13565b34801561063257600080fd5b506104e4610641366004614ee6565b611b91565b34801561065257600080fd5b506104f76101c45481565b34801561066957600080fd5b506104e4611c71565b34801561067e57600080fd5b506104e461068d366004614f32565b611c92565b34801561069e57600080fd5b506101d3546104ac906001600160a01b031681565b6104e46106c1366004615009565b611cad565b3480156106d257600080fd5b506104f76106e136600461509a565b611d7a565b3480156106f257600080fd5b506104f7611e1b565b34801561070757600080fd5b506104f76101c95481565b34801561071e57600080fd5b506101cf546104409060ff1681565b34801561073957600080fd5b506104f7611ebc565b34801561074e57600080fd5b506101d7546104f79081565b34801561076657600080fd5b506104f7610775366004614ee6565b611f6f565b34801561078657600080fd5b5060c95460ff16610440565b34801561079e57600080fd5b506101cf546104ac9061010090046001600160a01b031681565b3480156107c457600080fd5b506104ac6107d336600461509a565b6120a4565b3480156107e457600080fd5b506104e46107f3366004615124565b61211b565b34801561080457600080fd5b50610818610813366004614ee6565b612719565b60405161044c91906153e7565b34801561083157600080fd5b506104f7610840366004614ee6565b6101d86020526000908152604090205481565b34801561085f57600080fd5b506104e461086e36600461509a565b6127d7565b34801561087f57600080fd5b5061089361088e36600461509a565b612c25565b60405161044c91906157f1565b3480156108ac57600080fd5b506104e4612c90565b3480156108c157600080fd5b506104f76108d0366004614ee6565b612df0565b3480156108e157600080fd5b506108f56108f036600461509a565b612e77565b60405161044c919061542b565b34801561090e57600080fd5b506104f76101d55481565b34801561092557600080fd5b506104f76101cb5481565b34801561093c57600080fd5b506104f761306d565b34801561095157600080fd5b506104e461311c565b34801561096657600080fd5b506101d1546104f79081565b6104e461313d565b34801561098657600080fd5b50610440610995366004615202565b6101dc60209081526000928352604080842090915290825290205460ff1681565b3480156109c257600080fd5b506104406109d13660046150ca565b61337a565b3480156109e257600080fd5b5061046a6133a5565b3480156109f757600080fd5b506104f76101db5481565b348015610a0e57600080fd5b506104e46133b4565b348015610a2357600080fd5b506104f7600081565b348015610a3857600080fd5b506104e4610a47366004614fd3565b613492565b348015610a5857600080fd5b506104f7610a6736600461509a565b61349d565b348015610a7857600080fd5b506104f76101d45481565b348015610a8f57600080fd5b506101d2546104ac906001600160a01b031681565b348015610ab057600080fd5b50610aff610abf36600461509a565b6101d6602052600090815260409020805460018201546002830154600384015460048501546005909501549394929391926001600160a01b039091169186565b604080519687526020870195909552938501929092526001600160a01b03166060840152608083015260a082015260c00161044c565b348015610b4157600080fd5b506104e4610b50366004614f6d565b613597565b348015610b6157600080fd5b5061046a610b7036600461509a565b6135cf565b348015610b8157600080fd5b506108186135da565b348015610b9657600080fd5b506104f76101c55481565b348015610bad57600080fd5b506104e4610bbc3660046150ca565b613631565b348015610bcd57600080fd5b506104f7613657565b348015610be257600080fd5b50610beb613670565b60405161044c91906154b8565b348015610c0457600080fd5b506104f76101ca5481565b348015610c1b57600080fd5b506104f7610c2a366004614ee6565b61378f565b348015610c3b57600080fd5b50610818613839565b348015610c5057600080fd5b50610440610c5f366004614f00565b6001600160a01b039182166000908152606a6020908152604080832093909416825291909152205460ff1690565b348015610c9957600080fd5b506104f7600080516020615a6183398151915281565b348015610cbb57600080fd5b506104f7610cca36600461509a565b6101d06020526000908152604090205481565b348015610ce957600080fd5b506104f76101c65481565b348015610d0057600080fd5b506104f76101cc5481565b6000610d168261389e565b92915050565b6101c38054610d2a906159c0565b80601f0160208091040260200160405190810160405280929190818152602001828054610d56906159c0565b8015610da35780601f10610d7857610100808354040283529160200191610da3565b820191906000526020600020905b815481529060010190602001808311610d8657829003601f168201915b505050505081565b606060658054610dba906159c0565b80601f0160208091040260200160405190810160405280929190818152602001828054610de6906159c0565b8015610e335780601f10610e0857610100808354040283529160200191610e33565b820191906000526020600020905b815481529060010190602001808311610e1657829003601f168201915b5050505050905090565b6000818152606760205260408120546001600160a01b0316610ebb5760405162461bcd60e51b815260206004820152602c60248201527f4552433732313a20617070726f76656420717565727920666f72206e6f6e657860448201526b34b9ba32b73a103a37b5b2b760a11b60648201526084015b60405180910390fd5b506000908152606960205260409020546001600160a01b031690565b6000610ee2826120a4565b9050806001600160a01b0316836001600160a01b03161415610f505760405162461bcd60e51b815260206004820152602160248201527f4552433732313a20617070726f76616c20746f2063757272656e74206f776e656044820152603960f91b6064820152608401610eb2565b336001600160a01b0382161480610f6c5750610f6c8133610c5f565b610fde5760405162461bcd60e51b815260206004820152603860248201527f4552433732313a20617070726f76652063616c6c6572206973206e6f74206f7760448201527f6e6572206e6f7220617070726f76656420666f7220616c6c00000000000000006064820152608401610eb2565b610fe883836138c3565b505050565b60026101915414156110115760405162461bcd60e51b8152600401610eb2906157ba565b60026101915560c95460ff161561103a5760405162461bcd60e51b8152600401610eb2906155f7565b6101cf5460ff161561105e5760405162461bcd60e51b8152600401610eb2906156cf565b60006101ca54116110815760405162461bcd60e51b8152600401610eb290615621565b34156111095760405162461bcd60e51b815260206004820152604b60248201527f4465706f73697473206f662065726332302063616e6e6f7420616c736f20696e60448201527f636c756465206e617469766520746f6b656e7320696e207468652073616d652060648201526a3a3930b739b0b1ba34b7b760a91b608482015260a401610eb2565b6111156101d983613931565b506001600160a01b03821660009081526101d8602052604090205461113b9082906157ff565b6001600160a01b0383811660008181526101d860209081526040808320959095556101d754855160c08101875281815243818401908152818801858152606080840188815260808086018d81524260a0808901918252898c526101d68b528e8c2089518155975160018901559551600288015592516003870180546001600160a01b03191691909d1617909b55995160048501555160059093019290925588513081529485018490528489019590955283019490945293810186905293519293919233927fce3ede2e266c8c5ec60064c2a65ba25bd2899a334c42b39b742129c49b1ef1c492908290030190a26112376101d780546001019055565b60405163095ea7b360e01b81523060048201526024810184905284906001600160a01b0382169063095ea7b390604401602060405180830381600087803b15801561128157600080fd5b505af1158015611295573d6000803e3d6000fd5b505050506040513d601f19601f820116820180604052508101906112b9919061507e565b506040516323b872dd60e01b8152336004820152306024820152604481018590526001600160a01b038216906323b872dd90606401602060405180830381600087803b15801561130857600080fd5b505af115801561131c573d6000803e3d6000fd5b505050506040513d601f19601f82011682018060405250810190611340919061507e565b505060016101915550505050565b60008060026101915414156113755760405162461bcd60e51b8152600401610eb2906157ba565b60026101915560c95460ff161561139e5760405162461bcd60e51b8152600401610eb2906155f7565b6101cf5461010090046001600160a01b03163314156113ff5760405162461bcd60e51b815260206004820181905260248201527f54726561737572792063616e6e6f74207075726368617365207469636b6574736044820152606401610eb2565b6101cf5460ff16151560011461147d5760405162461bcd60e51b815260206004820152603860248201527f5469636b6574732063616e6e6f7420626520707572636861736564206166746560448201527f72207468652066756e6472616973696e6720706572696f6400000000000000006064820152608401610eb2565b60006114883461349d565b9050611492613657565b81106115065760405162461bcd60e51b815260206004820152603d60248201527f4e6f7420656e6f756768207368617265732072656d61696e696e6720746f207060448201527f757263686173652c20747279206120736d616c6c657220616d6f756e740000006064820152608401610eb2565b60006115126101d15490565b90506115236101d180546001019055565b60008181526101d0602052604090208290556115416101cd33613931565b50816101ca5461155191906157ff565b6101ca556101cc546115649034906157ff565b6101cc556101cf546101c954604080513081526020810185905290810185905260608101919091526101009091046001600160a01b03169033907faec7d08bcb5e515903dbbba83c84bb270bdbdc5ad261ce0709da4d20226d40639060800160405180910390a360006305f5e1006101d554346115e19190615947565b6115eb919061583c565b905060006305f5e1006101d5546101d4546116069190615966565b6116109034615947565b61161a919061583c565b90506000826116298334615966565b6116339190615966565b6101d3546101cf546101d2546101c954604080516001600160a01b0393841681523060208201528082018b90523460608201526080810187905260a0810189905260c081018a905260e081018c9052610100808201939093529051959650938216949204169133917fec9b5b63774dd77ef3e9b139dcae71f2128bd20e0b2d55e2f405302581d4821a918190036101200190a46101cf5460405160009161010090046001600160a01b03169083908381818185875af1925050503d8060008114611719576040519150601f19603f3d011682016040523d82523d6000602084013e61171e565b606091505b505090508061177a5760405162461bcd60e51b815260206004820152602260248201527f547265617375727920636f756c64206e6f742072656365697665207061796d656044820152611b9d60f21b6064820152608401610eb2565b6101d2546040516000916001600160a01b03169085908381818185875af1925050503d80600081146117c8576040519150601f19603f3d011682016040523d82523d6000602084013e6117cd565b606091505b505090508061181e5760405162461bcd60e51b815260206004820181905260248201527f42726f6b657220636f756c64206e6f742072656365697665207061796d656e746044820152606401610eb2565b6101d3546040516000916001600160a01b03169087908381818185875af1925050503d806000811461186c576040519150601f19603f3d011682016040523d82523d6000602084013e611871565b606091505b50509050806118ce5760405162461bcd60e51b815260206004820152602360248201527f416666696c6961746520636f756c64206e6f742072656365697665207061796d604482015262195b9d60ea1b6064820152608401610eb2565b6118d83388613946565b5094975094955050505050506001610191559091565b6118f83382613960565b6119145760405162461bcd60e51b8152600401610eb29061567e565b610fe8838383613a57565b600080516020615a618339815191526119388133613bfe565b600261019154141561195c5760405162461bcd60e51b8152600401610eb2906157ba565b60026101915560c95460ff16156119855760405162461bcd60e51b8152600401610eb2906155f7565b6101cf5460ff16156119a95760405162461bcd60e51b8152600401610eb290615720565b60006119b483611f6f565b9050828115611a4b576101cf5460405163a9059cbb60e01b81526101009091046001600160a01b0390811660048301526024820184905282169063a9059cbb90604401602060405180830381600087803b158015611a1157600080fd5b505af1158015611a25573d6000803e3d6000fd5b505050506040513d601f19601f82011682018060405250810190611a49919061507e565b505b50506001610191555050565b600082815260fb6020526040902060010154611a738133613bfe565b610fe88383613c62565b6000611a8883612df0565b8210611aea5760405162461bcd60e51b815260206004820152602b60248201527f455243373231456e756d657261626c653a206f776e657220696e646578206f7560448201526a74206f6620626f756e647360a81b6064820152608401610eb2565b506001600160a01b03919091166000908152609760209081526040808320938352929052205490565b6001600160a01b0381163314611b835760405162461bcd60e51b815260206004820152602f60248201527f416363657373436f6e74726f6c3a2063616e206f6e6c792072656e6f756e636560448201526e103937b632b9903337b91039b2b63360891b6064820152608401610eb2565b611b8d8282613ce8565b5050565b306001600160a01b037f0000000000000000000000000000000000000000000000000000000000000000161415611bda5760405162461bcd60e51b8152600401610eb29061555f565b7f00000000000000000000000000000000000000000000000000000000000000006001600160a01b0316611c23600080516020615a81833981519152546001600160a01b031690565b6001600160a01b031614611c495760405162461bcd60e51b8152600401610eb2906155ab565b611c5281613d4f565b60408051600080825260208201909252611c6e91839190613d68565b50565b600080516020615a61833981519152611c8a8133613bfe565b611c6e613ee2565b610fe883838360405180602001604052806000815250613597565b306001600160a01b037f0000000000000000000000000000000000000000000000000000000000000000161415611cf65760405162461bcd60e51b8152600401610eb29061555f565b7f00000000000000000000000000000000000000000000000000000000000000006001600160a01b0316611d3f600080516020615a81833981519152546001600160a01b031690565b6001600160a01b031614611d655760405162461bcd60e51b8152600401610eb2906155ab565b611d6e82613d4f565b611b8d82826001613d68565b6000611d8560995490565b8210611de85760405162461bcd60e51b815260206004820152602c60248201527f455243373231456e756d657261626c653a20676c6f62616c20696e646578206f60448201526b7574206f6620626f756e647360a01b6064820152608401610eb2565b60998281548110611e0957634e487b7160e01b600052603260045260246000fd5b90600052602060002001549050919050565b600080805b6101d754811015611eb65760008181526101d66020908152604091829020825160c0810184528154815260018201549281019290925260028101549282019290925260038201546001600160a01b0316606082018190526004830154608083015260059092015460a082015290611ea3576040810151611ea090846157ff565b92505b5080611eae816159f5565b915050611e20565b50919050565b6000306001600160a01b037f00000000000000000000000000000000000000000000000000000000000000001614611f5c5760405162461bcd60e51b815260206004820152603860248201527f555550535570677261646561626c653a206d757374206e6f742062652063616c60448201527f6c6564207468726f7567682064656c656761746563616c6c00000000000000006064820152608401610eb2565b50600080516020615a8183398151915290565b600080805b6101d7548110156120125760008181526101d66020908152604091829020825160c0810184528154815260018201549281019290925260028101549282019290925260038201546001600160a01b03908116606083018190526004840154608084015260059093015460a083015290919086161415611fff576080810151611ffc90846157ff565b92505b508061200a816159f5565b915050611f74565b506040516370a0823160e01b8152306004820152839060009083906001600160a01b038416906370a082319060240160206040518083038186803b15801561205957600080fd5b505afa15801561206d573d6000803e3d6000fd5b505050506040513d601f19601f8201168201806040525081019061209191906150b2565b61209b9190615966565b95945050505050565b6000818152606760205260408120546001600160a01b031680610d165760405162461bcd60e51b815260206004820152602960248201527f4552433732313a206f776e657220717565727920666f72206e6f6e657869737460448201526832b73a103a37b5b2b760b91b6064820152608401610eb2565b600054610100900460ff166121365760005460ff161561213a565b303b155b61219d5760405162461bcd60e51b815260206004820152602e60248201527f496e697469616c697a61626c653a20636f6e747261637420697320616c72656160448201526d191e481a5b9a5d1a585b1a5e995960921b6064820152608401610eb2565b600054610100900460ff161580156121bf576000805461ffff19166101011790555b60408051808201909152600780825266125b9cdd185b9d60ca1b60209092019182526121ee916101c391614d55565b508b518c908c906122385760405162461bcd60e51b81526020600482015260146024820152734e616d652063616e6e6f7420626520656d70747960601b6044820152606401610eb2565b805161227f5760405162461bcd60e51b815260206004820152601660248201527553796d626f6c2063616e6e6f7420626520656d70747960501b6044820152606401610eb2565b6305f5e10087106122f15760405162461bcd60e51b815260206004820152603660248201527f5075726368617365207469636b657420666565206d757374206265206c657373604482015275207468616e203130303030303030302028313030252960501b6064820152608401610eb2565b868611156123765760405162461bcd60e51b815260206004820152604660248201527f416666696c69617465207469636b657420666565206d757374206265206c657360448201527f73207468616e206f7220657175616c20746f207075726368617365207469636b60648201526565742066656560d01b608482015260a401610eb2565b6001600160a01b038a166123d85760405162461bcd60e51b815260206004820152602360248201527f54726561737572792063616e6e6f7420626520746865207a65726f206164647260448201526265737360e81b6064820152608401610eb2565b6001600160a01b0389166124385760405162461bcd60e51b815260206004820152602160248201527f4973737565722063616e6e6f7420626520746865207a65726f206164647265736044820152607360f81b6064820152608401610eb2565b6001600160a01b03881661249a5760405162461bcd60e51b815260206004820152602360248201527f4e617469766520746f6b656e20707269636520666565642069732072657175696044820152621c995960ea1b6064820152608401610eb2565b60008c116124fc5760405162461bcd60e51b815260206004820152602960248201527f4d61782073686172657320736f6c64206d7573742062652067726561746572206044820152687468616e207a65726f60b81b6064820152608401610eb2565b60008b1161255a5760405162461bcd60e51b815260206004820152602560248201527f5368617265207072696365206d7573742062652067726561746572207468616e604482015264207a65726f60d81b6064820152608401610eb2565b6001600160a01b0385166125ba5760405162461bcd60e51b815260206004820152602160248201527f42726f6b65722063616e6e6f7420626520746865207a65726f206164647265736044820152607360f81b6064820152608401610eb2565b6001600160a01b03841661261c5760405162461bcd60e51b8152602060048201526024808201527f416666696c696174652063616e6e6f7420626520746865207a65726f206164646044820152637265737360e01b6064820152608401610eb2565b6126268e8e613f75565b61262e613fa6565b612636613fcf565b61263e613fa6565b612646613fa6565b426101c65560126101c45560086101c55560006101cc556101c98b90556101cb8c90556101c880546001600160a01b03199081166001600160a01b038c8116919091179092556101c7805482168b84161790556101cf80546001600160a81b0319166101008e8516021760011790556101d48990556101d58890556101d2805482168884161790556101d380549091169186169190911790556126f7600080516020615a618339815191528a613c62565b5050801561270b576000805461ff00191690555b505050505050505050505050565b6060600061272683612df0565b905060008167ffffffffffffffff81111561275157634e487b7160e01b600052604160045260246000fd5b60405190808252806020026020018201604052801561277a578160200160208202803683370190505b50905060005b828110156127cf576127928582611a7d565b8282815181106127b257634e487b7160e01b600052603260045260246000fd5b6020908102919091010152806127c7816159f5565b915050612780565b509392505050565b60026101915414156127fb5760405162461bcd60e51b8152600401610eb2906157ba565b60026101915560c95460ff16156128245760405162461bcd60e51b8152600401610eb2906155f7565b6101cf5460ff16156128955760405162461bcd60e51b815260206004820152603460248201527f5769746864726177616c732063616e6e6f74206265206d61646520647572696e60448201527319c8199d5b991c985a5cda5b99c81c195c9a5bd960621b6064820152608401610eb2565b3361289f826120a4565b6001600160a01b0316146128f55760405162461bcd60e51b815260206004820152601a60248201527f596f7520646f206e6f74206f776e2074686973207469636b65740000000000006044820152606401610eb2565b60008181526101d06020526040812054905b6101d754811015612c1a5760008181526101d660209081526040808320815160c081018352815481526001808301548286015260028301548285015260038301546001600160a01b031660608301526004830154608083015260059092015460a08201528785526101dc845282852081518652909352922054909160ff909116151514612c075760008481526101dc60209081526040808320845184529091529020805460ff1916600117905560608101516001600160a01b031615612ae05760006101ca548483608001516129dd9190615947565b6129e7919061583c565b8251606084015160405192935033927f981eda60172361092f12c75de05c753d28c928d6fb0b4b6492e685a44265fc0a92612a2b9230928b929160009189906153ac565b60405180910390a260608201516001600160a01b0381166323b872dd30612a51896120a4565b6040516001600160e01b031960e085901b1681526001600160a01b0392831660048201529116602482015260448101859052606401602060405180830381600087803b158015612aa057600080fd5b505af1158015612ab4573d6000803e3d6000fd5b505050506040513d601f19601f82011682018060405250810190612ad8919061507e565b505050612c07565b60006101ca54848360400151612af69190615947565b612b00919061583c565b825160405191925033917f981eda60172361092f12c75de05c753d28c928d6fb0b4b6492e685a44265fc0a91612b409130918a91879060009081906153ac565b60405180910390a26000612b53866120a4565b6001600160a01b03168260405160006040518083038185875af1925050503d8060008114612b9d576040519150601f19603f3d011682016040523d82523d6000602084013e612ba2565b606091505b5050905080612c045760405162461bcd60e51b815260206004820152602860248201527f5469636b657420686f6c64657220636f756c64206e6f742072656365697665206044820152676561726e696e677360c01b6064820152608401610eb2565b50505b5080612c12816159f5565b915050612907565b505060016101915550565b612c2d614dd5565b5060009081526101d66020908152604091829020825160c0810184528154815260018201549281019290925260028101549282019290925260038201546001600160a01b031660608201526004820154608082015260059091015460a082015290565b600080516020615a61833981519152612ca98133613bfe565b6002610191541415612ccd5760405162461bcd60e51b8152600401610eb2906157ba565b60026101915560c95460ff1615612cf65760405162461bcd60e51b8152600401610eb2906155f7565b6101cf5460ff1615612d1a5760405162461bcd60e51b8152600401610eb290615720565b6000612d2461306d565b90508015612de6576101cf5460405160009161010090046001600160a01b03169083908381818185875af1925050503d8060008114612d7f576040519150601f19603f3d011682016040523d82523d6000602084013e612d84565b606091505b5050905080612c1a5760405162461bcd60e51b815260206004820152602860248201527f5472617375727920636f756c64206e6f742072656365697665207472617070656044820152676420746f6b656e7360c01b6064820152608401610eb2565b5050600161019155565b60006001600160a01b038216612e5b5760405162461bcd60e51b815260206004820152602a60248201527f4552433732313a2062616c616e636520717565727920666f7220746865207a65604482015269726f206164647265737360b01b6064820152608401610eb2565b506001600160a01b031660009081526068602052604090205490565b60008181526101d06020526040902054606090612e946101d75490565b67ffffffffffffffff811115612eba57634e487b7160e01b600052604160045260246000fd5b604051908082528060200260200182016040528015612f3657816020015b612f236040518060e0016040528060008152602001600081526020016000151581526020016000815260200160006001600160a01b0316815260200160008152602001600081525090565b815260200190600190039081612ed85790505b50915060005b6101d754811015613066576101ca5460008281526101d66020526040812060020154909190612f6c908590615947565b612f76919061583c565b6101ca5460008481526101d6602052604081206004015492935091612f9c908690615947565b612fa6919061583c565b6040805160e08101825288815260008681526101d6602081815284832080548286018190528d85526101dc835286852090855282528584205460ff161515958501959095526060840188905260038501546001600160a01b0316608085015260a0840186905291889052905260059091015460c0820152865191925090819087908690811061304557634e487b7160e01b600052603260045260246000fd5b6020026020010181905250505050808061305e906159f5565b915050612f3c565b5050919050565b600080805b6101d7548110156131085760008181526101d66020908152604091829020825160c0810184528154815260018201549281019290925260028101549282019290925260038201546001600160a01b0316606082018190526004830154608083015260059092015460a0820152906130f55760408101516130f290846157ff565b92505b5080613100816159f5565b915050613072565b5060006131158247615966565b9392505050565b600080516020615a618339815191526131358133613bfe565b611c6e613ffe565b60026101915414156131615760405162461bcd60e51b8152600401610eb2906157ba565b60026101915560c95460ff161561318a5760405162461bcd60e51b8152600401610eb2906155f7565b6101cf5460ff16156131ae5760405162461bcd60e51b8152600401610eb2906156cf565b60006101ca54116131d15760405162461bcd60e51b8152600401610eb290615621565b346101db546131e091906157ff565b6101db5560006131f06101d75490565b6040805160c081018252828152436020808301918252348385018181526000606080870182815260808089018481524260a0808c019182528d87526101d68a528c87208c5181559a5160018c0155965160028b0155925160038a0180546001600160a01b0319166001600160a01b039092169190911790555160048901559051600590970196909655875130815294850189905296840192909252948201819052918101919091529293509133917fce3ede2e266c8c5ec60064c2a65ba25bd2899a334c42b39b742129c49b1ef1c4910160405180910390a26132d86101d780546001019055565b604051600090309034908381818185875af1925050503d806000811461331a576040519150601f19603f3d011682016040523d82523d6000602084013e61331f565b606091505b5050905080612c1a5760405162461bcd60e51b815260206004820152602160248201527f4c6f6f74626f7820636f756c64206e6f742072656365697665207061796d656e6044820152601d60fa1b6064820152608401610eb2565b600091825260fb602090815260408084206001600160a01b0393909316845291905290205460ff1690565b606060668054610dba906159c0565b600080516020615a618339815191526133cd8133613bfe565b60026101915414156133f15760405162461bcd60e51b8152600401610eb2906157ba565b60026101915560c95460ff161561341a5760405162461bcd60e51b8152600401610eb2906155f7565b6101cf5460ff16151560011461347e5760405162461bcd60e51b8152602060048201526024808201527f46756e6472616973696e6720706572696f642068617320616c726561647920656044820152631b99195960e21b6064820152608401610eb2565b506101cf805460ff19169055600161019155565b611b8d338383614056565b6000806000806000806101c760009054906101000a90046001600160a01b03166001600160a01b031663feaf968c6040518163ffffffff1660e01b815260040160a06040518083038186803b1580156134f557600080fd5b505afa158015613509573d6000803e3d6000fd5b505050506040513d601f19601f8201168201806040525081019061352d9190615223565b93985091965094509250905060128261357d5760405162461bcd60e51b8152602060048201526012602482015271526f756e64206e6f7420636f6d706c65746560701b6044820152606401610eb2565b600061358a898388614125565b9998505050505050505050565b6135a13383613960565b6135bd5760405162461bcd60e51b8152600401610eb29061567e565b6135c984848484614163565b50505050565b6060610d1682614196565b6101d980546040805160208084028201810190925282815260609390929091830182828015610e3357602002820191906000526020600020905b815481526020019060010190808311613614575050505050905090565b600082815260fb602052604090206001015461364d8133613bfe565b610fe88383613ce8565b60006101ca546101cb5461366b9190615966565b905090565b606061367c6101d75490565b67ffffffffffffffff8111156136a257634e487b7160e01b600052604160045260246000fd5b6040519080825280602002602001820160405280156136db57816020015b6136c8614dd5565b8152602001906001900390816136c05790505b50905060005b6101d75481101561378b5760008181526101d66020908152604091829020825160c0810184528154815260018201549281019290925260028101549282019290925260038201546001600160a01b031660608201526004820154608082015260059091015460a0820152825183908390811061376d57634e487b7160e01b600052603260045260246000fd5b60200260200101819052508080613783906159f5565b9150506136e1565b5090565b600080805b6101d7548110156138325760008181526101d66020908152604091829020825160c0810184528154815260018201549281019290925260028101549282019290925260038201546001600160a01b03908116606083018190526004840154608084015260059093015460a08301529091908616141561381f57608081015161381c90846157ff565b92505b508061382a816159f5565b915050613794565b5092915050565b6101cd80546040805160208084028201810190925282815260609390929091830182828015610e335760200282019190600052602060002090815481526020019060010190808311613614575050505050905090565b6001600160a01b03163b151590565b60006001600160e01b03198216637965db0b60e01b1480610d165750610d16826142db565b600081815260696020526040902080546001600160a01b0319166001600160a01b03841690811790915581906138f8826120a4565b6001600160a01b03167f8c5be1e5ebec7d5bd14f71427d1e84f3dd0314c0f7b2291e5b200ac8c7c3b92560405160405180910390a45050565b6000613115836001600160a01b038416614300565b611b8d82826040518060200160405280600081525061434f565b6000818152606760205260408120546001600160a01b03166139d95760405162461bcd60e51b815260206004820152602c60248201527f4552433732313a206f70657261746f7220717565727920666f72206e6f6e657860448201526b34b9ba32b73a103a37b5b2b760a11b6064820152608401610eb2565b60006139e4836120a4565b9050806001600160a01b0316846001600160a01b03161480613a1f5750836001600160a01b0316613a1484610e3d565b6001600160a01b0316145b80613a4f57506001600160a01b038082166000908152606a602090815260408083209388168352929052205460ff165b949350505050565b826001600160a01b0316613a6a826120a4565b6001600160a01b031614613ace5760405162461bcd60e51b815260206004820152602560248201527f4552433732313a207472616e736665722066726f6d20696e636f72726563742060448201526437bbb732b960d91b6064820152608401610eb2565b6001600160a01b038216613b305760405162461bcd60e51b8152602060048201526024808201527f4552433732313a207472616e7366657220746f20746865207a65726f206164646044820152637265737360e01b6064820152608401610eb2565b613b3b838383614382565b613b466000826138c3565b6001600160a01b0383166000908152606860205260408120805460019290613b6f908490615966565b90915550506001600160a01b0382166000908152606860205260408120805460019290613b9d9084906157ff565b909155505060008181526067602052604080822080546001600160a01b0319166001600160a01b0386811691821790925591518493918716917fddf252ad1be2c89b69c2b068fc378daa952ba7f163c4a11628f55a4df523b3ef91a4505050565b613c08828261337a565b611b8d57613c20816001600160a01b031660146143b0565b613c2b8360206143b0565b604051602001613c3c9291906152fa565b60408051601f198184030181529082905262461bcd60e51b8252610eb2916004016154fa565b613c6c828261337a565b611b8d57600082815260fb602090815260408083206001600160a01b03851684529091529020805460ff19166001179055613ca43390565b6001600160a01b0316816001600160a01b0316837f2f8788117e7eff1d82e926ec794901d17c78024a50270940304540a733656f0d60405160405180910390a45050565b613cf2828261337a565b15611b8d57600082815260fb602090815260408083206001600160a01b0385168085529252808320805460ff1916905551339285917ff6391f5c32d9c69d2a47ea670b442974b53935d1edc7fd64eb21e047a839171b9190a45050565b600080516020615a61833981519152611b8d8133613bfe565b7f4910fdfa16fed3260ed0e7147f7cc6da11a60208b5b9406d12a635614ffd91435460ff1615613d9b57610fe883614592565b826001600160a01b03166352d1902d6040518163ffffffff1660e01b815260040160206040518083038186803b158015613dd457600080fd5b505afa925050508015613e04575060408051601f3d908101601f19168201909252613e01918101906150b2565b60015b613e675760405162461bcd60e51b815260206004820152602e60248201527f45524331393637557067726164653a206e657720696d706c656d656e7461746960448201526d6f6e206973206e6f74205555505360901b6064820152608401610eb2565b600080516020615a818339815191528114613ed65760405162461bcd60e51b815260206004820152602960248201527f45524331393637557067726164653a20756e737570706f727465642070726f786044820152681a58589b195555525160ba1b6064820152608401610eb2565b50610fe883838361462e565b60c95460ff16613f2b5760405162461bcd60e51b815260206004820152601460248201527314185d5cd8589b194e881b9bdd081c185d5cd95960621b6044820152606401610eb2565b60c9805460ff191690557f5db9ee0a495bf2e6ff9c91a7834c1ba4fdd244a5e8aa4e537bd38aeae4b073aa335b6040516001600160a01b03909116815260200160405180910390a1565b600054610100900460ff16613f9c5760405162461bcd60e51b8152600401610eb29061576f565b611b8d8282614653565b600054610100900460ff16613fcd5760405162461bcd60e51b8152600401610eb29061576f565b565b600054610100900460ff16613ff65760405162461bcd60e51b8152600401610eb29061576f565b613fcd6146a1565b60c95460ff16156140215760405162461bcd60e51b8152600401610eb2906155f7565b60c9805460ff191660011790557f62e78cea01bee320cd4e420270b5ea74000d11b0c9f74754ebdbfc544b05a258613f583390565b816001600160a01b0316836001600160a01b031614156140b85760405162461bcd60e51b815260206004820152601960248201527f4552433732313a20617070726f766520746f2063616c6c6572000000000000006044820152606401610eb2565b6001600160a01b038381166000818152606a6020908152604080832094871680845294825291829020805460ff191686151590811790915591519182527f17307eab39ab6107e8899845ad3d59bd9653f200f220920489ca2b5937696c31910160405180910390a3505050565b60006101c954836101c45461413a9190615966565b61414590600a61589f565b61414f8487615947565b6141599190615947565b613a4f919061583c565b61416e848484613a57565b61417a848484846146d4565b6135c95760405162461bcd60e51b8152600401610eb29061550d565b6060816141ba5750506040805180820190915260018152600360fc1b602082015290565b8160005b81156141e457806141ce816159f5565b91506141dd9050600a8361583c565b91506141be565b60008167ffffffffffffffff81111561420d57634e487b7160e01b600052604160045260246000fd5b6040519080825280601f01601f191660200182016040528015614237576020820181803683370190505b509050815b85156142d25761424d600182615966565b9050600061425c600a8861583c565b61426790600a615947565b6142719088615966565b61427c906030615817565b905060008160f81b9050808484815181106142a757634e487b7160e01b600052603260045260246000fd5b60200101906001600160f81b031916908160001a9053506142c9600a8961583c565b9750505061423c565b50949350505050565b60006001600160e01b0319821663780e9d6360e01b1480610d165750610d16826147e1565b600081815260018301602052604081205461434757508154600181810184556000848152602080822090930184905584548482528286019093526040902091909155610d16565b506000610d16565b6143598383614831565b61436660008484846146d4565b610fe85760405162461bcd60e51b8152600401610eb29061550d565b60c95460ff16156143a55760405162461bcd60e51b8152600401610eb2906155f7565b610fe883838361497f565b606060006143bf836002615947565b6143ca9060026157ff565b67ffffffffffffffff8111156143f057634e487b7160e01b600052604160045260246000fd5b6040519080825280601f01601f19166020018201604052801561441a576020820181803683370190505b509050600360fc1b8160008151811061444357634e487b7160e01b600052603260045260246000fd5b60200101906001600160f81b031916908160001a905350600f60fb1b8160018151811061448057634e487b7160e01b600052603260045260246000fd5b60200101906001600160f81b031916908160001a90535060006144a4846002615947565b6144af9060016157ff565b90505b6001811115614543576f181899199a1a9b1b9c1cb0b131b232b360811b85600f16601081106144f157634e487b7160e01b600052603260045260246000fd5b1a60f81b82828151811061451557634e487b7160e01b600052603260045260246000fd5b60200101906001600160f81b031916908160001a90535060049490941c9361453c816159a9565b90506144b2565b5083156131155760405162461bcd60e51b815260206004820181905260248201527f537472696e67733a20686578206c656e67746820696e73756666696369656e746044820152606401610eb2565b6001600160a01b0381163b6145ff5760405162461bcd60e51b815260206004820152602d60248201527f455243313936373a206e657720696d706c656d656e746174696f6e206973206e60448201526c1bdd08184818dbdb9d1c9858dd609a1b6064820152608401610eb2565b600080516020615a8183398151915280546001600160a01b0319166001600160a01b0392909216919091179055565b61463783614a37565b6000825111806146445750805b15610fe8576135c98383614a77565b600054610100900460ff1661467a5760405162461bcd60e51b8152600401610eb29061576f565b815161468d906065906020850190614d55565b508051610fe8906066906020840190614d55565b600054610100900460ff166146c85760405162461bcd60e51b8152600401610eb29061576f565b60c9805460ff19169055565b60006001600160a01b0384163b156147d657604051630a85bd0160e11b81526001600160a01b0385169063150b7a029061471890339089908890889060040161536f565b602060405180830381600087803b15801561473257600080fd5b505af1925050508015614762575060408051601f3d908101601f1916820190925261475f91810190615108565b60015b6147bc573d808015614790576040519150601f19603f3d011682016040523d82523d6000602084013e614795565b606091505b5080516147b45760405162461bcd60e51b8152600401610eb29061550d565b805181602001fd5b6001600160e01b031916630a85bd0160e11b149050613a4f565b506001949350505050565b60006001600160e01b031982166380ac58cd60e01b148061481257506001600160e01b03198216635b5e139f60e01b145b80610d1657506301ffc9a760e01b6001600160e01b0319831614610d16565b6001600160a01b0382166148875760405162461bcd60e51b815260206004820181905260248201527f4552433732313a206d696e7420746f20746865207a65726f20616464726573736044820152606401610eb2565b6000818152606760205260409020546001600160a01b0316156148ec5760405162461bcd60e51b815260206004820152601c60248201527f4552433732313a20746f6b656e20616c7265616479206d696e746564000000006044820152606401610eb2565b6148f860008383614382565b6001600160a01b03821660009081526068602052604081208054600192906149219084906157ff565b909155505060008181526067602052604080822080546001600160a01b0319166001600160a01b03861690811790915590518392907fddf252ad1be2c89b69c2b068fc378daa952ba7f163c4a11628f55a4df523b3ef908290a45050565b6001600160a01b0383166149da576149d581609980546000838152609a60205260408120829055600182018355919091527f72a152ddfb8e864297c917af52ea6c1c68aead0fee1a62673fcc7e0c94979d000155565b6149fd565b816001600160a01b0316836001600160a01b0316146149fd576149fd8382614b62565b6001600160a01b038216614a1457610fe881614bff565b826001600160a01b0316826001600160a01b031614610fe857610fe88282614cd8565b614a4081614592565b6040516001600160a01b038216907fbc7cd75a20ee27fd9adebab32041f755214dbc6bffa90cc0225b39da2e5c2d3b90600090a250565b60606001600160a01b0383163b614adf5760405162461bcd60e51b815260206004820152602660248201527f416464726573733a2064656c65676174652063616c6c20746f206e6f6e2d636f6044820152651b9d1c9858dd60d21b6064820152608401610eb2565b600080846001600160a01b031684604051614afa91906152de565b600060405180830381855af49150503d8060008114614b35576040519150601f19603f3d011682016040523d82523d6000602084013e614b3a565b606091505b509150915061209b8282604051806060016040528060278152602001615aa160279139614d1c565b60006001614b6f84612df0565b614b799190615966565b600083815260986020526040902054909150808214614bcc576001600160a01b03841660009081526097602090815260408083208584528252808320548484528184208190558352609890915290208190555b5060009182526098602090815260408084208490556001600160a01b039094168352609781528383209183525290812055565b609954600090614c1190600190615966565b6000838152609a602052604081205460998054939450909284908110614c4757634e487b7160e01b600052603260045260246000fd5b906000526020600020015490508060998381548110614c7657634e487b7160e01b600052603260045260246000fd5b6000918252602080832090910192909255828152609a90915260408082208490558582528120556099805480614cbc57634e487b7160e01b600052603160045260246000fd5b6001900381819060005260206000200160009055905550505050565b6000614ce383612df0565b6001600160a01b039093166000908152609760209081526040808320868452825280832085905593825260989052919091209190915550565b60608315614d2b575081613115565b825115614d3b5782518084602001fd5b8160405162461bcd60e51b8152600401610eb291906154fa565b828054614d61906159c0565b90600052602060002090601f016020900481019282614d835760008555614dc9565b82601f10614d9c57805160ff1916838001178555614dc9565b82800160010185558215614dc9579182015b82811115614dc9578251825591602001919060010190614dae565b5061378b929150614e14565b6040518060c0016040528060008152602001600081526020016000815260200160006001600160a01b0316815260200160008152602001600081525090565b5b8082111561378b5760008155600101614e15565b80356001600160a01b0381168114614e4057600080fd5b919050565b600082601f830112614e55578081fd5b813567ffffffffffffffff80821115614e7057614e70615a26565b604051601f8301601f19908116603f01168101908282118183101715614e9857614e98615a26565b81604052838152866020858801011115614eb0578485fd5b8360208701602083013792830160200193909352509392505050565b805169ffffffffffffffffffff81168114614e4057600080fd5b600060208284031215614ef7578081fd5b61311582614e29565b60008060408385031215614f12578081fd5b614f1b83614e29565b9150614f2960208401614e29565b90509250929050565b600080600060608486031215614f46578081fd5b614f4f84614e29565b9250614f5d60208501614e29565b9150604084013590509250925092565b60008060008060808587031215614f82578081fd5b614f8b85614e29565b9350614f9960208601614e29565b925060408501359150606085013567ffffffffffffffff811115614fbb578182fd5b614fc787828801614e45565b91505092959194509250565b60008060408385031215614fe5578182fd5b614fee83614e29565b91506020830135614ffe81615a3c565b809150509250929050565b6000806040838503121561501b578182fd5b61502483614e29565b9150602083013567ffffffffffffffff81111561503f578182fd5b61504b85828601614e45565b9150509250929050565b60008060408385031215615067578182fd5b61507083614e29565b946020939093013593505050565b60006020828403121561508f578081fd5b815161311581615a3c565b6000602082840312156150ab578081fd5b5035919050565b6000602082840312156150c3578081fd5b5051919050565b600080604083850312156150dc578081fd5b82359150614f2960208401614e29565b6000602082840312156150fd578081fd5b813561311581615a4a565b600060208284031215615119578081fd5b815161311581615a4a565b60008060008060008060008060008060006101608c8e031215615145578889fd5b67ffffffffffffffff808d35111561515b57898afd5b6151688e8e358f01614e45565b9b508060208e0135111561517a57898afd5b5061518b8d60208e01358e01614e45565b995060408c0135985060608c013597506151a760808d01614e29565b96506151b560a08d01614e29565b95506151c360c08d01614e29565b945060e08c013593506101008c013592506151e16101208d01614e29565b91506151f06101408d01614e29565b90509295989b509295989b9093969950565b60008060408385031215615214578182fd5b50508035926020909101359150565b600080600080600060a0868803121561523a578283fd5b61524386614ecc565b945060208601519350604086015192506060860151915061526660808701614ecc565b90509295509295909350565b6000815180845261528a81602086016020860161597d565b601f01601f19169290920160200192915050565b8051825260208082015190830152604080820151908301526060808201516001600160a01b0316908301526080808201519083015260a090810151910152565b600082516152f081846020870161597d565b9190910192915050565b7f416363657373436f6e74726f6c3a206163636f756e742000000000000000000081526000835161533281601785016020880161597d565b7001034b99036b4b9b9b4b733903937b6329607d1b601791840191820152835161536381602884016020880161597d565b01602801949350505050565b6001600160a01b03858116825284166020820152604081018390526080606082018190526000906153a290830184615272565b9695505050505050565b6001600160a01b039687168152602081019590955260408501939093526060840191909152909216608082015260a081019190915260c00190565b6020808252825182820181905260009190848201906040850190845b8181101561541f57835183529284019291840191600101615403565b50909695505050505050565b602080825282518282018190526000919060409081850190868401855b828110156154ab57815180518552868101518786015285810151151586860152606080820151908601526080808201516001600160a01b03169086015260a0808201519086015260c0908101519085015260e09093019290850190600101615448565b5091979650505050505050565b6020808252825182820181905260009190848201906040850190845b8181101561541f576154e783855161529e565b9284019260c092909201916001016154d4565b6020815260006131156020830184615272565b60208082526032908201527f4552433732313a207472616e7366657220746f206e6f6e20455243373231526560408201527131b2b4bb32b91034b6b83632b6b2b73a32b960711b606082015260800190565b6020808252602c908201527f46756e6374696f6e206d7573742062652063616c6c6564207468726f7567682060408201526b19195b1959d85d1958d85b1b60a21b606082015260800190565b6020808252602c908201527f46756e6374696f6e206d7573742062652063616c6c6564207468726f7567682060408201526b6163746976652070726f787960a01b606082015260800190565b60208082526010908201526f14185d5cd8589b194e881c185d5cd95960821b604082015260600190565b60208082526037908201527f4e6f207368617265732068617665206265656e20736f6c642e204465706f736960408201527f74732077696c6c206e6f74206265206163636570746564000000000000000000606082015260800190565b60208082526031908201527f4552433732313a207472616e736665722063616c6c6572206973206e6f74206f6040820152701ddb995c881b9bdc88185c1c1c9bdd9959607a1b606082015260800190565b60208082526031908201527f4465706f736974732063616e6e6f74206265206d61646520647572696e6720666040820152701d5b991c985a5cda5b99c81c195c9a5bd9607a1b606082015260800190565b6020808252602f908201527f5265736375652063616e6e6f74206265206d61646520647572696e672066756e60408201526e191c985a5cda5b99c81c195c9a5bd9608a1b606082015260800190565b6020808252602b908201527f496e697469616c697a61626c653a20636f6e7472616374206973206e6f74206960408201526a6e697469616c697a696e6760a81b606082015260800190565b6020808252601f908201527f5265656e7472616e637947756172643a207265656e7472616e742063616c6c00604082015260600190565b60c08101610d16828461529e565b6000821982111561581257615812615a10565b500190565b600060ff821660ff84168060ff0382111561583457615834615a10565b019392505050565b60008261585757634e487b7160e01b81526012600452602481fd5b500490565b600181815b8085111561589757816000190482111561587d5761587d615a10565b8085161561588a57918102915b93841c9390800290615861565b509250929050565b600061311583836000826158b557506001610d16565b816158c257506000610d16565b81600181146158d857600281146158e2576158fe565b6001915050610d16565b60ff8411156158f3576158f3615a10565b50506001821b610d16565b5060208310610133831016604e8410600b8410161715615921575081810a610d16565b61592b838361585c565b806000190482111561593f5761593f615a10565b029392505050565b600081600019048311821515161561596157615961615a10565b500290565b60008282101561597857615978615a10565b500390565b60005b83811015615998578181015183820152602001615980565b838111156135c95750506000910152565b6000816159b8576159b8615a10565b506000190190565b600181811c908216806159d457607f821691505b60208210811415611eb657634e487b7160e01b600052602260045260246000fd5b6000600019821415615a0957615a09615a10565b5060010190565b634e487b7160e01b600052601160045260246000fd5b634e487b7160e01b600052604160045260246000fd5b8015158114611c6e57600080fd5b6001600160e01b031981168114611c6e57600080fdfe3b5d4cc60d3ec3516ee8ae083bd60934f6eb2a6c54b1229985c41bfb092b2603360894a13ba1a3210667c828492db98dca3e2076cc3735a920a3ca505d382bbc416464726573733a206c6f772d6c6576656c2064656c65676174652063616c6c206661696c6564a26469706673582212208fcb8200a0f7c0993f64bfb46d4355b56accac92fc02697f83345263066bbac364736f6c63430008040033",
  "linkReferences": {},
  "deployedLinkReferences": {}
}