{
  "_format": "hh-sol-artifact-1",
  "contractName": "LootboxEscrowFactory",
  "sourceName": "contracts/LootboxEscrowFactory.sol",
  "abi": [
    {
      "inputs": [
        {
          "internalType": "address",
          "name": "_lootboxDao",
          "type": "address"
        },
        {
          "internalType": "address",
          "name": "_nativeTokenPriceFeed",
          "type": "address"
        },
        {
          "internalType": "uint256",
          "name": "_ticketPurchaseFee",
          "type": "uint256"
        },
        {
          "internalType": "address",
          "name": "_brokerAddress",
          "type": "address"
        }
      ],
      "stateMutability": "nonpayable",
      "type": "constructor"
    },
    {
      "anonymous": false,
      "inputs": [
        {
          "indexed": true,
          "internalType": "address",
          "name": "lootbox",
          "type": "address"
        },
        {
          "indexed": true,
          "internalType": "address",
          "name": "affiliate",
          "type": "address"
        },
        {
          "indexed": false,
          "internalType": "uint256",
          "name": "affiliateFee",
          "type": "uint256"
        },
        {
          "indexed": false,
          "internalType": "uint256",
          "name": "ticketPurchaseFee",
          "type": "uint256"
        },
        {
          "indexed": false,
          "internalType": "address",
          "name": "lootboxIssuer",
          "type": "address"
        },
        {
          "indexed": false,
          "internalType": "address",
          "name": "lootboxTreasury",
          "type": "address"
        }
      ],
      "name": "AffiliateReceipt",
      "type": "event"
    },
    {
      "anonymous": false,
      "inputs": [
        {
          "indexed": true,
          "internalType": "address",
          "name": "affiliate",
          "type": "address"
        },
        {
          "indexed": true,
          "internalType": "address",
          "name": "whitelistedBy",
          "type": "address"
        },
        {
          "indexed": false,
          "internalType": "uint256",
          "name": "ticketAffiliateFee",
          "type": "uint256"
        },
        {
          "indexed": false,
          "internalType": "uint256",
          "name": "timestamp",
          "type": "uint256"
        }
      ],
      "name": "AffiliateWhitelisted",
      "type": "event"
    },
    {
      "anonymous": false,
      "inputs": [
        {
          "indexed": false,
          "internalType": "string",
          "name": "lootboxName",
          "type": "string"
        },
        {
          "indexed": true,
          "internalType": "address",
          "name": "lootbox",
          "type": "address"
        },
        {
          "indexed": true,
          "internalType": "address",
          "name": "issuer",
          "type": "address"
        },
        {
          "indexed": true,
          "internalType": "address",
          "name": "treasury",
          "type": "address"
        },
        {
          "indexed": false,
          "internalType": "uint256",
          "name": "targetSharesSold",
          "type": "uint256"
        },
        {
          "indexed": false,
          "internalType": "uint256",
          "name": "maxSharesSold",
          "type": "uint256"
        },
        {
          "indexed": false,
          "internalType": "uint256",
          "name": "sharePriceUSD",
          "type": "uint256"
        },
        {
          "indexed": false,
          "internalType": "string",
          "name": "_data",
          "type": "string"
        }
      ],
      "name": "LootboxCreated",
      "type": "event"
    },
    {
      "anonymous": false,
      "inputs": [
        {
          "indexed": false,
          "internalType": "address",
          "name": "account",
          "type": "address"
        }
      ],
      "name": "Paused",
      "type": "event"
    },
    {
      "anonymous": false,
      "inputs": [
        {
          "indexed": true,
          "internalType": "bytes32",
          "name": "role",
          "type": "bytes32"
        },
        {
          "indexed": true,
          "internalType": "bytes32",
          "name": "previousAdminRole",
          "type": "bytes32"
        },
        {
          "indexed": true,
          "internalType": "bytes32",
          "name": "newAdminRole",
          "type": "bytes32"
        }
      ],
      "name": "RoleAdminChanged",
      "type": "event"
    },
    {
      "anonymous": false,
      "inputs": [
        {
          "indexed": true,
          "internalType": "bytes32",
          "name": "role",
          "type": "bytes32"
        },
        {
          "indexed": true,
          "internalType": "address",
          "name": "account",
          "type": "address"
        },
        {
          "indexed": true,
          "internalType": "address",
          "name": "sender",
          "type": "address"
        }
      ],
      "name": "RoleGranted",
      "type": "event"
    },
    {
      "anonymous": false,
      "inputs": [
        {
          "indexed": true,
          "internalType": "bytes32",
          "name": "role",
          "type": "bytes32"
        },
        {
          "indexed": true,
          "internalType": "address",
          "name": "account",
          "type": "address"
        },
        {
          "indexed": true,
          "internalType": "address",
          "name": "sender",
          "type": "address"
        }
      ],
      "name": "RoleRevoked",
      "type": "event"
    },
    {
      "anonymous": false,
      "inputs": [
        {
          "indexed": false,
          "internalType": "address",
          "name": "account",
          "type": "address"
        }
      ],
      "name": "Unpaused",
      "type": "event"
    },
    {
      "inputs": [],
      "name": "DAO_ROLE",
      "outputs": [
        {
          "internalType": "bytes32",
          "name": "",
          "type": "bytes32"
        }
      ],
      "stateMutability": "view",
      "type": "function"
    },
    {
      "inputs": [],
      "name": "DEFAULT_ADMIN_ROLE",
      "outputs": [
        {
          "internalType": "bytes32",
          "name": "",
          "type": "bytes32"
        }
      ],
      "stateMutability": "view",
      "type": "function"
    },
    {
      "inputs": [
        {
          "internalType": "address",
          "name": "affiliate",
          "type": "address"
        },
        {
          "internalType": "uint256",
          "name": "ticketAffiliateFee",
          "type": "uint256"
        }
      ],
      "name": "addAffiliate",
      "outputs": [],
      "stateMutability": "nonpayable",
      "type": "function"
    },
    {
      "inputs": [],
      "name": "brokerAddress",
      "outputs": [
        {
          "internalType": "address",
          "name": "",
          "type": "address"
        }
      ],
      "stateMutability": "view",
      "type": "function"
    },
    {
      "inputs": [
        {
          "internalType": "address",
          "name": "lootbox",
          "type": "address"
        }
      ],
      "name": "checkLootboxAffiliate",
      "outputs": [
        {
          "internalType": "address",
          "name": "",
          "type": "address"
        }
      ],
      "stateMutability": "view",
      "type": "function"
    },
    {
      "inputs": [
        {
          "internalType": "string",
          "name": "_lootboxName",
          "type": "string"
        },
        {
          "internalType": "string",
          "name": "_lootboxSymbol",
          "type": "string"
        },
        {
          "internalType": "uint256",
          "name": "_targetSharesSold",
          "type": "uint256"
        },
        {
          "internalType": "uint256",
          "name": "_maxSharesSold",
          "type": "uint256"
        },
        {
          "internalType": "address",
          "name": "_treasury",
          "type": "address"
        },
        {
          "internalType": "address",
          "name": "_affiliate",
          "type": "address"
        },
        {
          "internalType": "string",
          "name": "_data",
          "type": "string"
        }
      ],
      "name": "createLootbox",
      "outputs": [
        {
          "internalType": "address",
          "name": "_lootbox",
          "type": "address"
        }
      ],
      "stateMutability": "nonpayable",
      "type": "function"
    },
    {
      "inputs": [
        {
          "internalType": "bytes32",
          "name": "role",
          "type": "bytes32"
        }
      ],
      "name": "getRoleAdmin",
      "outputs": [
        {
          "internalType": "bytes32",
          "name": "",
          "type": "bytes32"
        }
      ],
      "stateMutability": "view",
      "type": "function"
    },
    {
      "inputs": [
        {
          "internalType": "bytes32",
          "name": "role",
          "type": "bytes32"
        },
        {
          "internalType": "address",
          "name": "account",
          "type": "address"
        }
      ],
      "name": "grantRole",
      "outputs": [],
      "stateMutability": "nonpayable",
      "type": "function"
    },
    {
      "inputs": [
        {
          "internalType": "bytes32",
          "name": "role",
          "type": "bytes32"
        },
        {
          "internalType": "address",
          "name": "account",
          "type": "address"
        }
      ],
      "name": "hasRole",
      "outputs": [
        {
          "internalType": "bool",
          "name": "",
          "type": "bool"
        }
      ],
      "stateMutability": "view",
      "type": "function"
    },
    {
      "inputs": [],
      "name": "listAffiliates",
      "outputs": [
        {
          "internalType": "bytes32[]",
          "name": "_affiliates",
          "type": "bytes32[]"
        }
      ],
      "stateMutability": "view",
      "type": "function"
    },
    {
      "inputs": [],
      "name": "lootboxImplementation",
      "outputs": [
        {
          "internalType": "address",
          "name": "",
          "type": "address"
        }
      ],
      "stateMutability": "view",
      "type": "function"
    },
    {
      "inputs": [],
      "name": "nativeTokenPriceFeed",
      "outputs": [
        {
          "internalType": "address",
          "name": "",
          "type": "address"
        }
      ],
      "stateMutability": "view",
      "type": "function"
    },
    {
      "inputs": [],
      "name": "pause",
      "outputs": [],
      "stateMutability": "nonpayable",
      "type": "function"
    },
    {
      "inputs": [],
      "name": "paused",
      "outputs": [
        {
          "internalType": "bool",
          "name": "",
          "type": "bool"
        }
      ],
      "stateMutability": "view",
      "type": "function"
    },
    {
      "inputs": [
        {
          "internalType": "bytes32",
          "name": "role",
          "type": "bytes32"
        },
        {
          "internalType": "address",
          "name": "account",
          "type": "address"
        }
      ],
      "name": "renounceRole",
      "outputs": [],
      "stateMutability": "nonpayable",
      "type": "function"
    },
    {
      "inputs": [
        {
          "internalType": "bytes32",
          "name": "role",
          "type": "bytes32"
        },
        {
          "internalType": "address",
          "name": "account",
          "type": "address"
        }
      ],
      "name": "revokeRole",
      "outputs": [],
      "stateMutability": "nonpayable",
      "type": "function"
    },
    {
      "inputs": [],
      "name": "sharePriceUSD",
      "outputs": [
        {
          "internalType": "uint256",
          "name": "",
          "type": "uint256"
        }
      ],
      "stateMutability": "view",
      "type": "function"
    },
    {
      "inputs": [
        {
          "internalType": "bytes4",
          "name": "interfaceId",
          "type": "bytes4"
        }
      ],
      "name": "supportsInterface",
      "outputs": [
        {
          "internalType": "bool",
          "name": "",
          "type": "bool"
        }
      ],
      "stateMutability": "view",
      "type": "function"
    },
    {
      "inputs": [],
      "name": "ticketPurchaseFee",
      "outputs": [
        {
          "internalType": "uint256",
          "name": "",
          "type": "uint256"
        }
      ],
      "stateMutability": "view",
      "type": "function"
    },
    {
      "inputs": [],
      "name": "unpause",
      "outputs": [],
      "stateMutability": "nonpayable",
      "type": "function"
    },
    {
      "inputs": [],
      "name": "viewLootboxes",
      "outputs": [
        {
          "internalType": "bytes32[]",
          "name": "",
          "type": "bytes32[]"
        }
      ],
      "stateMutability": "view",
      "type": "function"
    }
  ],
  "bytecode": "0x6101006040523480156200001257600080fd5b50604051620081b4380380620081b483398101604081905262000035916200032f565b6000805460ff191690556001600160a01b038416620000a65760405162461bcd60e51b815260206004820152602260248201527f44414f204c6f6f74626f7820616464726573732063616e6e6f74206265207a65604482015261726f60f01b60648201526084015b60405180910390fd5b6001600160a01b038116620000fe5760405162461bcd60e51b815260206004820152601d60248201527f42726f6b657220616464726573732063616e6e6f74206265207a65726f00000060448201526064016200009d565b6001600160a01b0383166200016a5760405162461bcd60e51b815260206004820152602b60248201527f6e6174697665546f6b656e50726963654665656420616464726573732063616e60448201526a6e6f74206265207a65726f60a81b60648201526084016200009d565b6305f5e1008210620001e55760405162461bcd60e51b815260206004820152603660248201527f5075726368617365207469636b657420666565206d757374206265206c65737360448201527f207468616e20313030303030303030202831303025290000000000000000000060648201526084016200009d565b604051620001f39062000304565b604051809103906000f08015801562000210573d6000803e3d6000fd5b5060601b6001600160601b0319166080526200024d7f3b5d4cc60d3ec3516ee8ae083bd60934f6eb2a6c54b1229985c41bfb092b2603856200027b565b624c4b406002556001600160601b0319606093841b811660a05260c09290925290911b1660e0525062000382565b60008281526001602090815260408083206001600160a01b038516845290915290205460ff16620003005760008281526001602081815260408084206001600160a01b0386168086529252808420805460ff19169093179092559051339285917f2f8788117e7eff1d82e926ec794901d17c78024a50270940304540a733656f0d9190a45b5050565b615f80806200223483390190565b80516001600160a01b03811681146200032a57600080fd5b919050565b6000806000806080858703121562000345578384fd5b620003508562000312565b9350620003606020860162000312565b925060408501519150620003776060860162000312565b905092959194509250565b60805160601c60a05160601c60c05160e05160601c611e45620003ef6000396000818161026901526108550152600081816102ff0152818161080e015281816109a60152610a5d01526000818161033e01526107ed0152600081816101a101526107be0152611e456000f3fe60806040523480156200001157600080fd5b5060043610620001515760003560e01c8063565bae8d11620000c7578063a217fddf1162000086578063a217fddf14620002f0578063a7c721c514620002f9578063d547741f1462000321578063d7c28bb21462000338578063e9c265181462000360578063fd9e62a9146200037757600080fd5b8063565bae8d14620002955780635c975abb14620002ac578063737d568714620002b85780638456cb5914620002cf57806391d1485414620002d957600080fd5b806336568abe116200011457806336568abe146200022b578063372c64d514620002425780633f4ba83a14620002595780635089f79614620002635780635225b69c146200028b57600080fd5b806301ffc9a7146200015657806317088631146200018257806319dd5657146200019b578063248a9ca314620001dc5780632f2ff15d1462000212575b600080fd5b6200016d62000167366004620012ad565b62000381565b60405190151581526020015b60405180910390f35b6200018c620003b9565b60405162000179919062001473565b620001c37f000000000000000000000000000000000000000000000000000000000000000081565b6040516001600160a01b03909116815260200162000179565b62000203620001ed36600462001266565b6000908152600160208190526040909120015490565b60405190815260200162000179565b62000229620002233660046200127f565b62000412565b005b620002296200023c3660046200127f565b62000442565b620001c362000253366004620012d7565b620004c8565b6200022962000a16565b620001c37f000000000000000000000000000000000000000000000000000000000000000081565b6200020360025481565b62000229620002a63660046200123a565b62000a3f565b60005460ff166200016d565b620001c3620002c93660046200121d565b62000b75565b6200022962000bb3565b6200016d620002ea3660046200127f565b62000bd9565b62000203600081565b620002037f000000000000000000000000000000000000000000000000000000000000000081565b62000229620003323660046200127f565b62000c04565b620001c37f000000000000000000000000000000000000000000000000000000000000000081565b6200020360008051602062001df083398151915281565b6200018c62000c2f565b60006001600160e01b03198216637965db0b60e01b1480620003b357506301ffc9a760e01b6001600160e01b03198316145b92915050565b6007805460408051602080840282018101909252828152606093909290918301828280156200040857602002820191906000526020600020905b815481526020019060010190808311620003f3575b5050505050905090565b6000828152600160208190526040909120015462000431813362000ca3565b6200043d838362000d12565b505050565b6001600160a01b0381163314620004b85760405162461bcd60e51b815260206004820152602f60248201527f416363657373436f6e74726f6c3a2063616e206f6e6c792072656e6f756e636560448201526e103937b632b9903337b91039b2b63360891b60648201526084015b60405180910390fd5b620004c4828262000d80565b5050565b6000805460ff1615620005115760405162461bcd60e51b815260206004820152601060248201526f14185d5cd8589b194e881c185d5cd95960821b6044820152606401620004af565b8751620005615760405162461bcd60e51b815260206004820152601c60248201527f4c6f6f74626f78206e616d652063616e6e6f7420626520656d707479000000006044820152606401620004af565b8651620005b15760405162461bcd60e51b815260206004820152601e60248201527f4c6f6f74626f782073796d626f6c2063616e6e6f7420626520656d70747900006044820152606401620004af565b6001600160a01b038316620006095760405162461bcd60e51b815260206004820181905260248201527f416666696c6961746520616464726573732063616e6e6f74206265207a65726f6044820152606401620004af565b60008611620006705760405162461bcd60e51b815260206004820152602c60248201527f5461726765742073686172657320736f6c64206d75737420626520677265617460448201526b6572207468616e207a65726f60a01b6064820152608401620004af565b60008511620006d45760405162461bcd60e51b815260206004820152602960248201527f4d61782073686172657320736f6c64206d7573742062652067726561746572206044820152687468616e207a65726f60b81b6064820152608401620004af565b85851015620007585760405162461bcd60e51b815260206004820152604360248201527f4d61782073686172657320736f6c64206d75737420626520677265617465722060448201527f7468616e206f7220657175616c20746f207461726765742073686172657320736064820152621bdb1960ea1b608482015260a401620004af565b6001600160a01b038416620007ba5760405162461bcd60e51b815260206004820152602160248201527f54726561737572792061646472657373206d7573742062652070726f766964656044820152601960fa1b6064820152608401620004af565b60007f00000000000000000000000000000000000000000000000000000000000000006364fcac4060e01b8a8a8a8a8a337f00000000000000000000000000000000000000000000000000000000000000007f0000000000000000000000000000000000000000000000000000000000000000600360008f6001600160a01b03166001600160a01b03168152602001908152602001600020547f00000000000000000000000000000000000000000000000000000000000000008f604051602401620008919b9a99989796959493929190620014ce565b60408051601f198184030181529181526020820180516001600160e01b03166001600160e01b0319909416939093179092529051620008d09062001163565b620008dd92919062001445565b604051809103906000f080158015620008fa573d6000803e3d6000fd5b5090506200090a60078262000dea565b506001600160a01b038181166000818152600460205260409081902080546001600160a01b0319168885161790556002549051928816923392917fd80450a217cc6610088de7c965dda0dcd24f55a93c4308932fdb6b3fa03202829162000979918f918e918e918c9062001550565b60405180910390a46001600160a01b038481166000818152600360209081526040918290205482519081527f00000000000000000000000000000000000000000000000000000000000000009181019190915233818301528884166060820152905191928416917f0b4c73cb9afffcc1a8fe5a90b0072b37bb1da3a9256116b10867b2115bd6c48b9181900360800190a398975050505050505050565b60008051602062001df083398151915262000a32813362000ca3565b62000a3c62000e08565b50565b60008051602062001df083398151915262000a5b813362000ca3565b7f000000000000000000000000000000000000000000000000000000000000000082111562000b025760405162461bcd60e51b815260206004820152604660248201527f416666696c69617465207469636b657420666565206d757374206265206c657360448201527f73207468616e206f7220657175616c20746f207075726368617365207469636b60648201526565742066656560d01b608482015260a401620004af565b6001600160a01b038316600090815260036020526040902082905562000b2a60058462000dea565b506040805183815242602082015233916001600160a01b038616917f92b63ef4b711e706248082654091a6c515ca36d749b6008a128776a88f03830e910160405180910390a3505050565b600060008051602062001df083398151915262000b93813362000ca3565b50506001600160a01b039081166000908152600460205260409020541690565b60008051602062001df083398151915262000bcf813362000ca3565b62000a3c62000e9d565b60009182526001602090815260408084206001600160a01b0393909316845291905290205460ff1690565b6000828152600160208190526040909120015462000c23813362000ca3565b6200043d838362000d80565b606060008051602062001df083398151915262000c4d813362000ca3565b600580546040805160208084028201810190925282815292919083018282801562000c9857602002820191906000526020600020905b81548152602001906001019080831162000c83575b505050505091505090565b62000caf828262000bd9565b620004c45762000cca816001600160a01b0316601462000f1b565b62000cd783602062000f1b565b60405160200162000cea929190620013cc565b60408051601f198184030181529082905262461bcd60e51b8252620004af91600401620014b9565b62000d1e828262000bd9565b620004c45760008281526001602081815260408084206001600160a01b0386168086529252808420805460ff19169093179092559051339285917f2f8788117e7eff1d82e926ec794901d17c78024a50270940304540a733656f0d9190a45050565b62000d8c828262000bd9565b15620004c45760008281526001602090815260408083206001600160a01b0385168085529252808320805460ff1916905551339285917ff6391f5c32d9c69d2a47ea670b442974b53935d1edc7fd64eb21e047a839171b9190a45050565b600062000e01836001600160a01b03841662001111565b9392505050565b60005460ff1662000e535760405162461bcd60e51b815260206004820152601460248201527314185d5cd8589b194e881b9bdd081c185d5cd95960621b6044820152606401620004af565b6000805460ff191690557f5db9ee0a495bf2e6ff9c91a7834c1ba4fdd244a5e8aa4e537bd38aeae4b073aa335b6040516001600160a01b03909116815260200160405180910390a1565b60005460ff161562000ee55760405162461bcd60e51b815260206004820152601060248201526f14185d5cd8589b194e881c185d5cd95960821b6044820152606401620004af565b6000805460ff191660011790557f62e78cea01bee320cd4e420270b5ea74000d11b0c9f74754ebdbfc544b05a25862000e803390565b6060600062000f2c836002620015b2565b62000f3990600262001597565b67ffffffffffffffff81111562000f6057634e487b7160e01b600052604160045260246000fd5b6040519080825280601f01601f19166020018201604052801562000f8b576020820181803683370190505b509050600360fc1b8160008151811062000fb557634e487b7160e01b600052603260045260246000fd5b60200101906001600160f81b031916908160001a905350600f60fb1b8160018151811062000ff357634e487b7160e01b600052603260045260246000fd5b60200101906001600160f81b031916908160001a905350600062001019846002620015b2565b6200102690600162001597565b90505b6001811115620010c0576f181899199a1a9b1b9c1cb0b131b232b360811b85600f16601081106200106a57634e487b7160e01b600052603260045260246000fd5b1a60f81b8282815181106200108f57634e487b7160e01b600052603260045260246000fd5b60200101906001600160f81b031916908160001a90535060049490941c93620010b88162001607565b905062001029565b50831562000e015760405162461bcd60e51b815260206004820181905260248201527f537472696e67733a20686578206c656e67746820696e73756666696369656e746044820152606401620004af565b60008181526001830160205260408120546200115a57508154600181810184556000848152602080822090930184905584548482528286019093526040902091909155620003b3565b506000620003b3565b6107a2806200164e83390190565b80356001600160a01b03811681146200118957600080fd5b919050565b600082601f8301126200119f578081fd5b813567ffffffffffffffff80821115620011bd57620011bd62001637565b604051601f8301601f19908116603f01168101908282118183101715620011e857620011e862001637565b8160405283815286602085880101111562001201578485fd5b8360208701602083013792830160200193909352509392505050565b6000602082840312156200122f578081fd5b62000e018262001171565b600080604083850312156200124d578081fd5b620012588362001171565b946020939093013593505050565b60006020828403121562001278578081fd5b5035919050565b6000806040838503121562001292578182fd5b82359150620012a46020840162001171565b90509250929050565b600060208284031215620012bf578081fd5b81356001600160e01b03198116811462000e01578182fd5b600080600080600080600060e0888a031215620012f2578283fd5b873567ffffffffffffffff808211156200130a578485fd5b620013188b838c016200118e565b985060208a01359150808211156200132e578485fd5b6200133c8b838c016200118e565b975060408a0135965060608a013595506200135a60808b0162001171565b94506200136a60a08b0162001171565b935060c08a013591508082111562001380578283fd5b506200138f8a828b016200118e565b91505092959891949750929550565b60008151808452620013b8816020860160208601620015d4565b601f01601f19169290920160200192915050565b7f416363657373436f6e74726f6c3a206163636f756e742000000000000000000081526000835162001406816017850160208801620015d4565b7001034b99036b4b9b9b4b733903937b6329607d1b601791840191820152835162001439816028840160208801620015d4565b01602801949350505050565b6001600160a01b03831681526040602082018190526000906200146b908301846200139e565b949350505050565b6020808252825182820181905260009190848201906040850190845b81811015620014ad578351835292840192918401916001016200148f565b50909695505050505050565b60208152600062000e0160208301846200139e565b6000610160808352620014e48184018f6200139e565b90508281036020840152620014fa818e6200139e565b604084019c909c52505060608101989098526001600160a01b03968716608089015294861660a088015292851660c087015260e08601919091526101008501528216610120840152166101409091015292915050565b60a0815260006200156560a08301886200139e565b86602084015285604084015284606084015282810360808401526200158b81856200139e565b98975050505050505050565b60008219821115620015ad57620015ad62001621565b500190565b6000816000190483118215151615620015cf57620015cf62001621565b500290565b60005b83811015620015f1578181015183820152602001620015d7565b8381111562001601576000848401525b50505050565b60008162001619576200161962001621565b506000190190565b634e487b7160e01b600052601160045260246000fd5b634e487b7160e01b600052604160045260246000fdfe60806040526040516107a23803806107a283398101604081905261002291610315565b61004d60017f360894a13ba1a3210667c828492db98dca3e2076cc3735a920a3ca505d382bbd61042d565b60008051602061075b8339815191521461007757634e487b7160e01b600052600160045260246000fd5b6100838282600061008a565b5050610492565b610093836100c0565b6000825111806100a05750805b156100bb576100b9838361010060201b6100291760201c565b505b505050565b6100c98161012c565b6040516001600160a01b038216907fbc7cd75a20ee27fd9adebab32041f755214dbc6bffa90cc0225b39da2e5c2d3b90600090a250565b6060610125838360405180606001604052806027815260200161077b602791396101ec565b9392505050565b61013f816102ca60201b6100551760201c565b6101a65760405162461bcd60e51b815260206004820152602d60248201527f455243313936373a206e657720696d706c656d656e746174696f6e206973206e60448201526c1bdd08184818dbdb9d1c9858dd609a1b60648201526084015b60405180910390fd5b806101cb60008051602061075b83398151915260001b6102d960201b6100641760201c565b80546001600160a01b0319166001600160a01b039290921691909117905550565b60606001600160a01b0384163b6102545760405162461bcd60e51b815260206004820152602660248201527f416464726573733a2064656c65676174652063616c6c20746f206e6f6e2d636f6044820152651b9d1c9858dd60d21b606482015260840161019d565b600080856001600160a01b03168560405161026f91906103de565b600060405180830381855af49150503d80600081146102aa576040519150601f19603f3d011682016040523d82523d6000602084013e6102af565b606091505b5090925090506102c08282866102dc565b9695505050505050565b6001600160a01b03163b151590565b90565b606083156102eb575081610125565b8251156102fb5782518084602001fd5b8160405162461bcd60e51b815260040161019d91906103fa565b60008060408385031215610327578182fd5b82516001600160a01b038116811461033d578283fd5b60208401519092506001600160401b0380821115610359578283fd5b818501915085601f83011261036c578283fd5b81518181111561037e5761037e61047c565b604051601f8201601f19908116603f011681019083821181831017156103a6576103a661047c565b816040528281528860208487010111156103be578586fd5b6103cf836020830160208801610450565b80955050505050509250929050565b600082516103f0818460208701610450565b9190910192915050565b6020815260008251806020840152610419816040850160208701610450565b601f01601f19169190910160400192915050565b60008282101561044b57634e487b7160e01b81526011600452602481fd5b500390565b60005b8381101561046b578181015183820152602001610453565b838111156100b95750506000910152565b634e487b7160e01b600052604160045260246000fd5b6102ba806104a16000396000f3fe60806040523661001357610011610017565b005b6100115b610027610022610067565b61009f565b565b606061004e838360405180606001604052806027815260200161025e602791396100c3565b9392505050565b6001600160a01b03163b151590565b90565b600061009a7f360894a13ba1a3210667c828492db98dca3e2076cc3735a920a3ca505d382bbc546001600160a01b031690565b905090565b3660008037600080366000845af43d6000803e8080156100be573d6000f35b3d6000fd5b60606001600160a01b0384163b6101305760405162461bcd60e51b815260206004820152602660248201527f416464726573733a2064656c65676174652063616c6c20746f206e6f6e2d636f6044820152651b9d1c9858dd60d21b60648201526084015b60405180910390fd5b600080856001600160a01b03168560405161014b91906101de565b600060405180830381855af49150503d8060008114610186576040519150601f19603f3d011682016040523d82523d6000602084013e61018b565b606091505b509150915061019b8282866101a5565b9695505050505050565b606083156101b457508161004e565b8251156101c45782518084602001fd5b8160405162461bcd60e51b815260040161012791906101fa565b600082516101f081846020870161022d565b9190910192915050565b602081526000825180602084015261021981604085016020870161022d565b601f01601f19169190910160400192915050565b60005b83811015610248578181015183820152602001610230565b83811115610257576000848401525b5050505056fe416464726573733a206c6f772d6c6576656c2064656c65676174652063616c6c206661696c6564a2646970667358221220e14c3fee28687df8af621b132b9789cfe2ceb6f7d6de514bb73c2956ffe9d6dd64736f6c63430008040033360894a13ba1a3210667c828492db98dca3e2076cc3735a920a3ca505d382bbc416464726573733a206c6f772d6c6576656c2064656c65676174652063616c6c206661696c65643b5d4cc60d3ec3516ee8ae083bd60934f6eb2a6c54b1229985c41bfb092b2603a26469706673582212209a844e2e3c97e382f0cd5011cd26b05c6fb88381f6c9f1019ee764000fce2eb764736f6c6343000804003360a06040523060601b6080523480156200001857600080fd5b50600054610100900460ff16620000365760005460ff161562000040565b62000040620000e5565b620000a85760405162461bcd60e51b815260206004820152602e60248201527f496e697469616c697a61626c653a20636f6e747261637420697320616c72656160448201526d191e481a5b9a5d1a585b1a5e995960921b606482015260840160405180910390fd5b600054610100900460ff16158015620000cb576000805461ffff19166101011790555b8015620000de576000805461ff00191690555b5062000112565b6000620000fd306200010360201b62003b281760201c565b15905090565b6001600160a01b03163b151590565b60805160601c615e336200014d60003960008181611b3e01528181611b7e01528181611c5a01528181611c9a0152611e6b0152615e336000f3fe6080604052600436106104355760003560e01c806370a0823111610229578063a7485cf11161012e578063da3537a8116100b6578063e985e9c51161007a578063e985e9c514610ca8578063e9c2651814610cf1578063fbf97c5914610d13578063fdf27dba14610d41578063ff7808e914610d5857600080fd5b8063da3537a814610c25578063dd13745514610c3a578063dd7af03514610c5c578063e6deb18d14610c73578063e88e3f9314610c9357600080fd5b8063b88d4fde116100fd578063b88d4fde14610b99578063c87b56dd14610bb9578063ca11016d14610bd9578063cc0f178614610bee578063d547741f14610c0557600080fd5b8063a7485cf114610ab0578063a7c721c514610ad0578063abff011014610ae7578063ae501c0414610b0857600080fd5b806391d14854116101b157806399087d341161018057806399087d3414610a3a5780639f79234014610a4f578063a07ae16a14610a66578063a217fddf14610a7b578063a22cb46514610a9057600080fd5b806391d14854146109d757806393a057cd146109f757806395d89b4114610a0e5780639792641f14610a2357600080fd5b80638240b777116101f85780638240b777146109515780638456cb59146109665780638802255f1461097b5780638c824949146109935780639088feba1461099b57600080fd5b806370a08231146108d657806378d85c4e146108f65780637eee380314610923578063816c42f61461093a57600080fd5b806342842e0e1161033a578063588dae3c116102c257806369d85d541161028657806369d85d54146108195780636c9d3b3a146108465780636e70096e146108745780636f2ef95b146108945780636fcf1e65146108c157600080fd5b8063588dae3c146107805780635c975abb146107a057806361d027b3146107b85780636352211e146107d957806364fcac40146107f957600080fd5b806351f0a93f1161030957806351f0a93f1461070c5780635225b69c14610721578063522c21781461073857806352d1902d14610753578063533573fe1461076857600080fd5b806342842e0e1461069857806345e05f43146106b85780634f1ef286146106d95780634f6ccce7146106ec57600080fd5b806323b872dd116103bd5780632f745c591161038c5780632f745c591461060c57806336568abe1461062c5780633659cfe61461064c5780633af8e5eb1461066c5780633f4ba83a1461068357600080fd5b806323b872dd1461057c578063248a9ca31461059c5780632a4c03cc146105cc5780632f2ff15d146105ec57600080fd5b8063095ea7b311610404578063095ea7b3146104e557806318160ddd1461050757806318fc77ae146105265780631d1438481461053957806321846c761461055f57600080fd5b806301ffc9a71461044157806305bc64eb1461047657806306fdde0314610498578063081812fc146104ad57600080fd5b3661043c57005b600080fd5b34801561044d57600080fd5b5061046161045c366004615385565b610d6f565b60405190151581526020015b60405180910390f35b34801561048257600080fd5b5061048b610d80565b60405161046d91906157ec565b3480156104a457600080fd5b5061048b610e0f565b3480156104b957600080fd5b506104cd6104c8366004615333565b610ea1565b6040516001600160a01b03909116815260200161046d565b3480156104f157600080fd5b506105056105003660046152ee565b610f3b565b005b34801561051357600080fd5b506099545b60405190815260200161046d565b6105056105343660046152ee565b611051565b34801561054557600080fd5b506101d0546104cd9061010090046001600160a01b031681565b6105676113b0565b6040805192835260208301919091520161046d565b34801561058857600080fd5b506105056105973660046151cb565b611895565b3480156105a857600080fd5b506105186105b7366004615333565b600090815260fb602052604090206001015490565b3480156105d857600080fd5b506105056105e736600461517f565b6118c6565b3480156105f857600080fd5b50610505610607366004615363565b6119f9565b34801561061857600080fd5b506105186106273660046152ee565b611a1f565b34801561063857600080fd5b50610505610647366004615363565b611ab5565b34801561065857600080fd5b5061050561066736600461517f565b611b33565b34801561067857600080fd5b506105186101c45481565b34801561068f57600080fd5b50610505611c13565b3480156106a457600080fd5b506105056106b33660046151cb565b611c34565b3480156106c457600080fd5b506101d5546104cd906001600160a01b031681565b6105056106e73660046152a2565b611c4f565b3480156106f857600080fd5b50610518610707366004615333565b611d1c565b34801561071857600080fd5b50610518611dbd565b34801561072d57600080fd5b506105186101c85481565b34801561074457600080fd5b506101d0546104619060ff1681565b34801561075f57600080fd5b50610518611e5e565b34801561077457600080fd5b506101d9546105189081565b34801561078c57600080fd5b5061051861079b36600461517f565b611f11565b3480156107ac57600080fd5b5060c95460ff16610461565b3480156107c457600080fd5b506101d1546104cd906001600160a01b031681565b3480156107e557600080fd5b506104cd6107f4366004615333565b612046565b34801561080557600080fd5b506105056108143660046153bd565b6120bd565b34801561082557600080fd5b5061083961083436600461517f565b61266b565b60405161046d91906156d9565b34801561085257600080fd5b5061051861086136600461517f565b6101da6020526000908152604090205481565b34801561088057600080fd5b5061050561088f366004615333565b612729565b3480156108a057600080fd5b506108b46108af366004615333565b612b77565b60405161046d9190615b27565b3480156108cd57600080fd5b50610505612be2565b3480156108e257600080fd5b506105186108f136600461517f565b612d3d565b34801561090257600080fd5b50610916610911366004615333565b612dc4565b60405161046d919061571d565b34801561092f57600080fd5b506105186101d75481565b34801561094657600080fd5b506105186101cb5481565b34801561095d57600080fd5b50610518612fba565b34801561097257600080fd5b50610505613069565b34801561098757600080fd5b506101d3546105189081565b61050561308a565b3480156109a757600080fd5b506104616109b636600461549b565b6101de60209081526000928352604080842090915290825290205460ff1681565b3480156109e357600080fd5b506104616109f2366004615363565b6132b8565b348015610a0357600080fd5b506105186101ca5481565b348015610a1a57600080fd5b5061048b6132e3565b348015610a2f57600080fd5b506105186101cd5481565b348015610a4657600080fd5b506105056132f2565b348015610a5b57600080fd5b506105186101dd5481565b348015610a7257600080fd5b506105056134ef565b348015610a8757600080fd5b50610518600081565b348015610a9c57600080fd5b50610505610aab36600461526c565b61372b565b348015610abc57600080fd5b50610518610acb366004615333565b613736565b348015610adc57600080fd5b506105186101d65481565b348015610af357600080fd5b506101d4546104cd906001600160a01b031681565b348015610b1457600080fd5b50610b63610b23366004615333565b6101d8602052600090815260409020805460018201546002830154600384015460048501546005909501549394929391926001600160a01b039091169186565b604080519687526020870195909552938501929092526001600160a01b03166060840152608083015260a082015260c00161046d565b348015610ba557600080fd5b50610505610bb4366004615206565b613830565b348015610bc557600080fd5b5061048b610bd4366004615333565b613868565b348015610be557600080fd5b50610839613873565b348015610bfa57600080fd5b506105186101c55481565b348015610c1157600080fd5b50610505610c20366004615363565b6138ca565b348015610c3157600080fd5b506105186138f0565b348015610c4657600080fd5b50610c4f613909565b60405161046d91906157aa565b348015610c6857600080fd5b506105186101c95481565b348015610c7f57600080fd5b50610518610c8e36600461517f565b613a28565b348015610c9f57600080fd5b50610839613ad2565b348015610cb457600080fd5b50610461610cc3366004615199565b6001600160a01b039182166000908152606a6020908152604080832093909416825291909152205460ff1690565b348015610cfd57600080fd5b50610518600080516020615d9783398151915281565b348015610d1f57600080fd5b50610518610d2e366004615333565b6101d26020526000908152604090205481565b348015610d4d57600080fd5b506105186101c65481565b348015610d6457600080fd5b506105186101cc5481565b6000610d7a82613b37565b92915050565b6101c38054610d8e90615cf6565b80601f0160208091040260200160405190810160405280929190818152602001828054610dba90615cf6565b8015610e075780601f10610ddc57610100808354040283529160200191610e07565b820191906000526020600020905b815481529060010190602001808311610dea57829003601f168201915b505050505081565b606060658054610e1e90615cf6565b80601f0160208091040260200160405190810160405280929190818152602001828054610e4a90615cf6565b8015610e975780601f10610e6c57610100808354040283529160200191610e97565b820191906000526020600020905b815481529060010190602001808311610e7a57829003601f168201915b5050505050905090565b6000818152606760205260408120546001600160a01b0316610f1f5760405162461bcd60e51b815260206004820152602c60248201527f4552433732313a20617070726f76656420717565727920666f72206e6f6e657860448201526b34b9ba32b73a103a37b5b2b760a11b60648201526084015b60405180910390fd5b506000908152606960205260409020546001600160a01b031690565b6000610f4682612046565b9050806001600160a01b0316836001600160a01b03161415610fb45760405162461bcd60e51b815260206004820152602160248201527f4552433732313a20617070726f76616c20746f2063757272656e74206f776e656044820152603960f91b6064820152608401610f16565b336001600160a01b0382161480610fd05750610fd08133610cc3565b6110425760405162461bcd60e51b815260206004820152603860248201527f4552433732313a20617070726f76652063616c6c6572206973206e6f74206f7760448201527f6e6572206e6f7220617070726f76656420666f7220616c6c00000000000000006064820152608401610f16565b61104c8383613b5c565b505050565b60026101915414156110755760405162461bcd60e51b8152600401610f1690615af0565b60026101915560c95460ff161561109e5760405162461bcd60e51b8152600401610f16906158e9565b6101d05460ff16156110c25760405162461bcd60e51b8152600401610f16906159c1565b60006101c954116110e55760405162461bcd60e51b8152600401610f1690615913565b341561116d5760405162461bcd60e51b815260206004820152604b60248201527f4465706f73697473206f662065726332302063616e6e6f7420616c736f20696e60448201527f636c756465206e617469766520746f6b656e7320696e207468652073616d652060648201526a3a3930b739b0b1ba34b7b760a91b608482015260a401610f16565b6111796101db83613bca565b506001600160a01b03821660009081526101da602052604090205461119f908290615b35565b6001600160a01b03831660009081526101da60205260408120919091556101d9546040805160c08101825282815243602080830191825260008385018181526001600160a01b038a811660608701908152608087018b81524260a089019081528a86526101d8909652888520885181559651600188015592516002870155516003860180546001600160a01b03191691909216179055516004840155905160059092019190915591519293509133917fce3ede2e266c8c5ec60064c2a65ba25bd2899a334c42b39b742129c49b1ef1c4916112829130918791908a908a90615645565b60405180910390a26112996101d980546001019055565b60405163095ea7b360e01b81523060048201526024810184905284906001600160a01b0382169063095ea7b390604401602060405180830381600087803b1580156112e357600080fd5b505af11580156112f7573d6000803e3d6000fd5b505050506040513d601f19601f8201168201806040525081019061131b9190615317565b506040516323b872dd60e01b8152336004820152306024820152604481018590526001600160a01b038216906323b872dd90606401602060405180830381600087803b15801561136a57600080fd5b505af115801561137e573d6000803e3d6000fd5b505050506040513d601f19601f820116820180604052508101906113a29190615317565b505060016101915550505050565b60008060026101915414156113d75760405162461bcd60e51b8152600401610f1690615af0565b60026101915560c95460ff16156114005760405162461bcd60e51b8152600401610f16906158e9565b6101d1546001600160a01b031633141561145c5760405162461bcd60e51b815260206004820181905260248201527f54726561737572792063616e6e6f74207075726368617365207469636b6574736044820152606401610f16565b6101d05460ff1615156001146114da5760405162461bcd60e51b815260206004820152603860248201527f5469636b6574732063616e6e6f7420626520707572636861736564206166746560448201527f72207468652066756e6472616973696e6720706572696f6400000000000000006064820152608401610f16565b60006114e534613736565b90506114ef6138f0565b81106115635760405162461bcd60e51b815260206004820152603d60248201527f4e6f7420656e6f756768207368617265732072656d61696e696e6720746f207060448201527f757263686173652c20747279206120736d616c6c657220616d6f756e740000006064820152608401610f16565b600061156f6101d35490565b90506115806101d380546001019055565b60008181526101d26020526040902082905561159e6101ce33613bca565b50816101c9546115ae9190615b35565b6101c9556101cc546115c1903490615b35565b6101cc556101d1546101c8546040516001600160a01b039092169133917faec7d08bcb5e515903dbbba83c84bb270bdbdc5ad261ce0709da4d20226d40639161160f913091879189916156b3565b60405180910390a360006305f5e1006101d7543461162d9190615c7d565b6116379190615b72565b905060006305f5e1006101d7546101d6546116529190615c9c565b61165c9034615c7d565b6116669190615b72565b90506000826116758334615c9c565b61167f9190615c9c565b6101d5546101d1546101d4546101c854604080516001600160a01b0393841681523060208201528082018b90523460608201526080810187905260a0810189905260c081018a905260e081018c9052610100810192909252519495509281169391169133917fec9b5b63774dd77ef3e9b139dcae71f2128bd20e0b2d55e2f405302581d4821a918190036101200190a4806101cd5461171e9190615b35565b6101cd556101d4546040516000916001600160a01b03169084908381818185875af1925050503d8060008114611770576040519150601f19603f3d011682016040523d82523d6000602084013e611775565b606091505b50509050806117c65760405162461bcd60e51b815260206004820181905260248201527f42726f6b657220636f756c64206e6f742072656365697665207061796d656e746044820152606401610f16565b6101d5546040516000916001600160a01b03169086908381818185875af1925050503d8060008114611814576040519150601f19603f3d011682016040523d82523d6000602084013e611819565b606091505b50509050806118765760405162461bcd60e51b815260206004820152602360248201527f416666696c6961746520636f756c64206e6f742072656365697665207061796d604482015262195b9d60ea1b6064820152608401610f16565b6118803387613bdf565b50939650939450505050506001610191559091565b61189f3382613bf9565b6118bb5760405162461bcd60e51b8152600401610f1690615970565b61104c838383613cf0565b600080516020615d978339815191526118df8133613e97565b60026101915414156119035760405162461bcd60e51b8152600401610f1690615af0565b60026101915560c95460ff161561192c5760405162461bcd60e51b8152600401610f16906158e9565b6101d05460ff16156119505760405162461bcd60e51b8152600401610f1690615a12565b600061195b83611f11565b90508281156119ed576101d15460405163a9059cbb60e01b81526001600160a01b039182166004820152602481018490529082169063a9059cbb90604401602060405180830381600087803b1580156119b357600080fd5b505af11580156119c7573d6000803e3d6000fd5b505050506040513d601f19601f820116820180604052508101906119eb9190615317565b505b50506001610191555050565b600082815260fb6020526040902060010154611a158133613e97565b61104c8383613efb565b6000611a2a83612d3d565b8210611a8c5760405162461bcd60e51b815260206004820152602b60248201527f455243373231456e756d657261626c653a206f776e657220696e646578206f7560448201526a74206f6620626f756e647360a81b6064820152608401610f16565b506001600160a01b03919091166000908152609760209081526040808320938352929052205490565b6001600160a01b0381163314611b255760405162461bcd60e51b815260206004820152602f60248201527f416363657373436f6e74726f6c3a2063616e206f6e6c792072656e6f756e636560448201526e103937b632b9903337b91039b2b63360891b6064820152608401610f16565b611b2f8282613f81565b5050565b306001600160a01b037f0000000000000000000000000000000000000000000000000000000000000000161415611b7c5760405162461bcd60e51b8152600401610f1690615851565b7f00000000000000000000000000000000000000000000000000000000000000006001600160a01b0316611bc5600080516020615db7833981519152546001600160a01b031690565b6001600160a01b031614611beb5760405162461bcd60e51b8152600401610f169061589d565b611bf481613fe8565b60408051600080825260208201909252611c1091839190614001565b50565b600080516020615d97833981519152611c2c8133613e97565b611c1061417b565b61104c83838360405180602001604052806000815250613830565b306001600160a01b037f0000000000000000000000000000000000000000000000000000000000000000161415611c985760405162461bcd60e51b8152600401610f1690615851565b7f00000000000000000000000000000000000000000000000000000000000000006001600160a01b0316611ce1600080516020615db7833981519152546001600160a01b031690565b6001600160a01b031614611d075760405162461bcd60e51b8152600401610f169061589d565b611d1082613fe8565b611b2f82826001614001565b6000611d2760995490565b8210611d8a5760405162461bcd60e51b815260206004820152602c60248201527f455243373231456e756d657261626c653a20676c6f62616c20696e646578206f60448201526b7574206f6620626f756e647360a01b6064820152608401610f16565b60998281548110611dab57634e487b7160e01b600052603260045260246000fd5b90600052602060002001549050919050565b600080805b6101d954811015611e585760008181526101d86020908152604091829020825160c0810184528154815260018201549281019290925260028101549282019290925260038201546001600160a01b0316606082018190526004830154608083015260059092015460a082015290611e45576040810151611e429084615b35565b92505b5080611e5081615d2b565b915050611dc2565b50919050565b6000306001600160a01b037f00000000000000000000000000000000000000000000000000000000000000001614611efe5760405162461bcd60e51b815260206004820152603860248201527f555550535570677261646561626c653a206d757374206e6f742062652063616c60448201527f6c6564207468726f7567682064656c656761746563616c6c00000000000000006064820152608401610f16565b50600080516020615db783398151915290565b600080805b6101d954811015611fb45760008181526101d86020908152604091829020825160c0810184528154815260018201549281019290925260028101549282019290925260038201546001600160a01b03908116606083018190526004840154608084015260059093015460a083015290919086161415611fa1576080810151611f9e9084615b35565b92505b5080611fac81615d2b565b915050611f16565b506040516370a0823160e01b8152306004820152839060009083906001600160a01b038416906370a082319060240160206040518083038186803b158015611ffb57600080fd5b505afa15801561200f573d6000803e3d6000fd5b505050506040513d601f19601f82011682018060405250810190612033919061534b565b61203d9190615c9c565b95945050505050565b6000818152606760205260408120546001600160a01b031680610d7a5760405162461bcd60e51b815260206004820152602960248201527f4552433732313a206f776e657220717565727920666f72206e6f6e657869737460448201526832b73a103a37b5b2b760b91b6064820152608401610f16565b600054610100900460ff166120d85760005460ff16156120dc565b303b155b61213f5760405162461bcd60e51b815260206004820152602e60248201527f496e697469616c697a61626c653a20636f6e747261637420697320616c72656160448201526d191e481a5b9a5d1a585b1a5e995960921b6064820152608401610f16565b600054610100900460ff16158015612161576000805461ffff19166101011790555b60408051808201909152600680825265457363726f7760d01b602090920191825261218f916101c391614fee565b508b518c908c906121d95760405162461bcd60e51b81526020600482015260146024820152734e616d652063616e6e6f7420626520656d70747960601b6044820152606401610f16565b80516122205760405162461bcd60e51b815260206004820152601660248201527553796d626f6c2063616e6e6f7420626520656d70747960501b6044820152606401610f16565b6305f5e10087106122925760405162461bcd60e51b815260206004820152603660248201527f5075726368617365207469636b657420666565206d757374206265206c657373604482015275207468616e203130303030303030302028313030252960501b6064820152608401610f16565b868611156123175760405162461bcd60e51b815260206004820152604660248201527f416666696c69617465207469636b657420666565206d757374206265206c657360448201527f73207468616e206f7220657175616c20746f207075726368617365207469636b60648201526565742066656560d01b608482015260a401610f16565b6001600160a01b038a166123795760405162461bcd60e51b815260206004820152602360248201527f54726561737572792063616e6e6f7420626520746865207a65726f206164647260448201526265737360e81b6064820152608401610f16565b6001600160a01b0389166123d95760405162461bcd60e51b815260206004820152602160248201527f4973737565722063616e6e6f7420626520746865207a65726f206164647265736044820152607360f81b6064820152608401610f16565b6001600160a01b03881661243b5760405162461bcd60e51b815260206004820152602360248201527f4e617469766520746f6b656e20707269636520666565642069732072657175696044820152621c995960ea1b6064820152608401610f16565b60008b1161249d5760405162461bcd60e51b815260206004820152602960248201527f4d61782073686172657320736f6c64206d7573742062652067726561746572206044820152687468616e207a65726f60b81b6064820152608401610f16565b6001600160a01b0385166124fd5760405162461bcd60e51b815260206004820152602160248201527f42726f6b65722063616e6e6f7420626520746865207a65726f206164647265736044820152607360f81b6064820152608401610f16565b6001600160a01b03841661255f5760405162461bcd60e51b8152602060048201526024808201527f416666696c696174652063616e6e6f7420626520746865207a65726f206164646044820152637265737360e01b6064820152608401610f16565b6125698e8e61420e565b61257161423f565b612579614268565b61258161423f565b61258961423f565b426101c65560126101c45560086101c555624c4b406101c85560006101cc556101ca8c90556101cb8b90556101d080546101c780546001600160a01b03199081166001600160a01b038d8116919091179092556001600160a81b03199092166101008d83160260ff1916176001179092556101d1805482168d84161790556101d68990556101d78890556101d4805482168884161790556101d58054909116918616919091179055612649600080516020615d978339815191528a613efb565b5050801561265d576000805461ff00191690555b505050505050505050505050565b6060600061267883612d3d565b905060008167ffffffffffffffff8111156126a357634e487b7160e01b600052604160045260246000fd5b6040519080825280602002602001820160405280156126cc578160200160208202803683370190505b50905060005b82811015612721576126e48582611a1f565b82828151811061270457634e487b7160e01b600052603260045260246000fd5b60209081029190910101528061271981615d2b565b9150506126d2565b509392505050565b600261019154141561274d5760405162461bcd60e51b8152600401610f1690615af0565b60026101915560c95460ff16156127765760405162461bcd60e51b8152600401610f16906158e9565b6101d05460ff16156127e75760405162461bcd60e51b815260206004820152603460248201527f5769746864726177616c732063616e6e6f74206265206d61646520647572696e60448201527319c8199d5b991c985a5cda5b99c81c195c9a5bd960621b6064820152608401610f16565b336127f182612046565b6001600160a01b0316146128475760405162461bcd60e51b815260206004820152601a60248201527f596f7520646f206e6f74206f776e2074686973207469636b65740000000000006044820152606401610f16565b60008181526101d26020526040812054905b6101d954811015612b6c5760008181526101d860209081526040808320815160c081018352815481526001808301548286015260028301548285015260038301546001600160a01b031660608301526004830154608083015260059092015460a08201528785526101de845282852081518652909352922054909160ff909116151514612b595760008481526101de60209081526040808320845184529091529020805460ff1916600117905560608101516001600160a01b031615612a325760006101c95484836080015161292f9190615c7d565b6129399190615b72565b8251606084015160405192935033927f981eda60172361092f12c75de05c753d28c928d6fb0b4b6492e685a44265fc0a9261297d9230928b92916000918990615678565b60405180910390a260608201516001600160a01b0381166323b872dd306129a389612046565b6040516001600160e01b031960e085901b1681526001600160a01b0392831660048201529116602482015260448101859052606401602060405180830381600087803b1580156129f257600080fd5b505af1158015612a06573d6000803e3d6000fd5b505050506040513d601f19601f82011682018060405250810190612a2a9190615317565b505050612b59565b60006101c954848360400151612a489190615c7d565b612a529190615b72565b825160405191925033917f981eda60172361092f12c75de05c753d28c928d6fb0b4b6492e685a44265fc0a91612a929130918a9187906000908190615678565b60405180910390a26000612aa586612046565b6001600160a01b03168260405160006040518083038185875af1925050503d8060008114612aef576040519150601f19603f3d011682016040523d82523d6000602084013e612af4565b606091505b5050905080612b565760405162461bcd60e51b815260206004820152602860248201527f5469636b657420686f6c64657220636f756c64206e6f742072656365697665206044820152676561726e696e677360c01b6064820152608401610f16565b50505b5080612b6481615d2b565b915050612859565b505060016101915550565b612b7f61506e565b5060009081526101d86020908152604091829020825160c0810184528154815260018201549281019290925260028101549282019290925260038201546001600160a01b031660608201526004820154608082015260059091015460a082015290565b600080516020615d97833981519152612bfb8133613e97565b6002610191541415612c1f5760405162461bcd60e51b8152600401610f1690615af0565b60026101915560c95460ff1615612c485760405162461bcd60e51b8152600401610f16906158e9565b6101d05460ff1615612c6c5760405162461bcd60e51b8152600401610f1690615a12565b6000612c76612fba565b90508015612d33576101d1546040516000916001600160a01b03169083908381818185875af1925050503d8060008114612ccc576040519150601f19603f3d011682016040523d82523d6000602084013e612cd1565b606091505b5050905080612b6c5760405162461bcd60e51b815260206004820152602860248201527f5472617375727920636f756c64206e6f742072656365697665207472617070656044820152676420746f6b656e7360c01b6064820152608401610f16565b5050600161019155565b60006001600160a01b038216612da85760405162461bcd60e51b815260206004820152602a60248201527f4552433732313a2062616c616e636520717565727920666f7220746865207a65604482015269726f206164647265737360b01b6064820152608401610f16565b506001600160a01b031660009081526068602052604090205490565b60008181526101d26020526040902054606090612de16101d95490565b67ffffffffffffffff811115612e0757634e487b7160e01b600052604160045260246000fd5b604051908082528060200260200182016040528015612e8357816020015b612e706040518060e0016040528060008152602001600081526020016000151581526020016000815260200160006001600160a01b0316815260200160008152602001600081525090565b815260200190600190039081612e255790505b50915060005b6101d954811015612fb3576101c95460008281526101d86020526040812060020154909190612eb9908590615c7d565b612ec39190615b72565b6101c95460008481526101d8602052604081206004015492935091612ee9908690615c7d565b612ef39190615b72565b6040805160e08101825288815260008681526101d8602081815284832080548286018190528d85526101de835286852090855282528584205460ff161515958501959095526060840188905260038501546001600160a01b0316608085015260a0840186905291889052905260059091015460c08201528651919250908190879086908110612f9257634e487b7160e01b600052603260045260246000fd5b60200260200101819052505050508080612fab90615d2b565b915050612e89565b5050919050565b600080805b6101d9548110156130555760008181526101d86020908152604091829020825160c0810184528154815260018201549281019290925260028101549282019290925260038201546001600160a01b0316606082018190526004830154608083015260059092015460a08201529061304257604081015161303f9084615b35565b92505b508061304d81615d2b565b915050612fbf565b5060006130628247615c9c565b9392505050565b600080516020615d978339815191526130828133613e97565b611c10614297565b60026101915414156130ae5760405162461bcd60e51b8152600401610f1690615af0565b60026101915560c95460ff16156130d75760405162461bcd60e51b8152600401610f16906158e9565b6101d05460ff16156130fb5760405162461bcd60e51b8152600401610f16906159c1565b60006101c9541161311e5760405162461bcd60e51b8152600401610f1690615913565b346101dd5461312d9190615b35565b6101dd55600061313d6101d95490565b6040805160c08101825282815243602080830191825234838501818152600060608601818152608087018281524260a089019081528a84526101d8909652888320885181559651600188015592516002870155516003860180546001600160a01b0319166001600160a01b039092169190911790559051600485015591516005909301929092559251939450909233927fce3ede2e266c8c5ec60064c2a65ba25bd2899a334c42b39b742129c49b1ef1c4926131ff9230928892918190615645565b60405180910390a26132166101d980546001019055565b604051600090309034908381818185875af1925050503d8060008114613258576040519150601f19603f3d011682016040523d82523d6000602084013e61325d565b606091505b5050905080612b6c5760405162461bcd60e51b815260206004820152602160248201527f4c6f6f74626f7820636f756c64206e6f742072656365697665207061796d656e6044820152601d60fa1b6064820152608401610f16565b600091825260fb602090815260408084206001600160a01b0393909316845291905290205460ff1690565b606060668054610e1e90615cf6565b600080516020615d9783398151915261330b8133613e97565b600261019154141561332f5760405162461bcd60e51b8152600401610f1690615af0565b60026101915560c95460ff16156133585760405162461bcd60e51b8152600401610f16906158e9565b6101d05460ff1615156001146133805760405162461bcd60e51b8152600401610f1690615aac565b6101d0805460ff191690556101cd805460009091556101dd546133a4908290615b35565b6101dd5560006133b46101d95490565b6040805160c081018252828152436020808301918252828401878152600060608501818152608086018281524260a088019081528984526101d8909552878320875181559551600187015592516002860155516003850180546001600160a01b0319166001600160a01b0390921691909117905590516004840155905160059092019190915591519293509133917fce3ede2e266c8c5ec60064c2a65ba25bd2899a334c42b39b742129c49b1ef1c491613475913091879189918190615645565b60405180910390a261348c6101d980546001019055565b6101d0546101cc546101c9546040516101009093046001600160a01b0316927f87550133e5e9a6d009b8215a93d43b1511a87921372d21060f998133bd9be4b7926134db9230928991906156b3565b60405180910390a250506001610191555050565b600080516020615d978339815191526135088133613e97565b600261019154141561352c5760405162461bcd60e51b8152600401610f1690615af0565b60026101915560c95460ff16156135555760405162461bcd60e51b8152600401610f16906158e9565b6101d05460ff16151560011461357d5760405162461bcd60e51b8152600401610f1690615aac565b6101ca546101c954116136065760405162461bcd60e51b815260206004820152604560248201527f46756e6472616973696e6720706572696f642063616e206f6e6c7920656e642060448201527f6966203e353025206f662074686520736861726573536f6c644d617820617265606482015264081cdbdb1960da1b608482015260a401610f16565b6101d0805460ff1916908190556101cd805460009091556101d1546101cc546101c95460405193946001600160a01b0393841694610100909104909316927f27f5bdb31297d70b551a9b987c293026b2377a1eacd5bf8adac76067d1fcd0b2926136749230928891906156b3565b60405180910390a36101d1546040516000916001600160a01b03169083908381818185875af1925050503d80600081146136ca576040519150601f19603f3d011682016040523d82523d6000602084013e6136cf565b606091505b5050905080612b6c5760405162461bcd60e51b815260206004820152602260248201527f547265617375727920636f756c64206e6f742072656365697665207061796d656044820152611b9d60f21b6064820152608401610f16565b611b2f3383836142ef565b6000806000806000806101c760009054906101000a90046001600160a01b03166001600160a01b031663feaf968c6040518163ffffffff1660e01b815260040160a06040518083038186803b15801561378e57600080fd5b505afa1580156137a2573d6000803e3d6000fd5b505050506040513d601f19601f820116820180604052508101906137c691906154bc565b9398509196509450925090506012826138165760405162461bcd60e51b8152602060048201526012602482015271526f756e64206e6f7420636f6d706c65746560701b6044820152606401610f16565b60006138238983886143be565b9998505050505050505050565b61383a3383613bf9565b6138565760405162461bcd60e51b8152600401610f1690615970565b613862848484846143fc565b50505050565b6060610d7a8261442f565b6101db80546040805160208084028201810190925282815260609390929091830182828015610e9757602002820191906000526020600020905b8154815260200190600101908083116138ad575050505050905090565b600082815260fb60205260409020600101546138e68133613e97565b61104c8383613f81565b60006101c9546101cb546139049190615c9c565b905090565b60606139156101d95490565b67ffffffffffffffff81111561393b57634e487b7160e01b600052604160045260246000fd5b60405190808252806020026020018201604052801561397457816020015b61396161506e565b8152602001906001900390816139595790505b50905060005b6101d954811015613a245760008181526101d86020908152604091829020825160c0810184528154815260018201549281019290925260028101549282019290925260038201546001600160a01b031660608201526004820154608082015260059091015460a08201528251839083908110613a0657634e487b7160e01b600052603260045260246000fd5b60200260200101819052508080613a1c90615d2b565b91505061397a565b5090565b600080805b6101d954811015613acb5760008181526101d86020908152604091829020825160c0810184528154815260018201549281019290925260028101549282019290925260038201546001600160a01b03908116606083018190526004840154608084015260059093015460a083015290919086161415613ab8576080810151613ab59084615b35565b92505b5080613ac381615d2b565b915050613a2d565b5092915050565b6101ce80546040805160208084028201810190925282815260609390929091830182828015610e9757602002820191906000526020600020908154815260200190600101908083116138ad575050505050905090565b6001600160a01b03163b151590565b60006001600160e01b03198216637965db0b60e01b1480610d7a5750610d7a82614574565b600081815260696020526040902080546001600160a01b0319166001600160a01b0384169081179091558190613b9182612046565b6001600160a01b03167f8c5be1e5ebec7d5bd14f71427d1e84f3dd0314c0f7b2291e5b200ac8c7c3b92560405160405180910390a45050565b6000613062836001600160a01b038416614599565b611b2f8282604051806020016040528060008152506145e8565b6000818152606760205260408120546001600160a01b0316613c725760405162461bcd60e51b815260206004820152602c60248201527f4552433732313a206f70657261746f7220717565727920666f72206e6f6e657860448201526b34b9ba32b73a103a37b5b2b760a11b6064820152608401610f16565b6000613c7d83612046565b9050806001600160a01b0316846001600160a01b03161480613cb85750836001600160a01b0316613cad84610ea1565b6001600160a01b0316145b80613ce857506001600160a01b038082166000908152606a602090815260408083209388168352929052205460ff165b949350505050565b826001600160a01b0316613d0382612046565b6001600160a01b031614613d675760405162461bcd60e51b815260206004820152602560248201527f4552433732313a207472616e736665722066726f6d20696e636f72726563742060448201526437bbb732b960d91b6064820152608401610f16565b6001600160a01b038216613dc95760405162461bcd60e51b8152602060048201526024808201527f4552433732313a207472616e7366657220746f20746865207a65726f206164646044820152637265737360e01b6064820152608401610f16565b613dd483838361461b565b613ddf600082613b5c565b6001600160a01b0383166000908152606860205260408120805460019290613e08908490615c9c565b90915550506001600160a01b0382166000908152606860205260408120805460019290613e36908490615b35565b909155505060008181526067602052604080822080546001600160a01b0319166001600160a01b0386811691821790925591518493918716917fddf252ad1be2c89b69c2b068fc378daa952ba7f163c4a11628f55a4df523b3ef91a4505050565b613ea182826132b8565b611b2f57613eb9816001600160a01b03166014614649565b613ec4836020614649565b604051602001613ed5929190615593565b60408051601f198184030181529082905262461bcd60e51b8252610f16916004016157ec565b613f0582826132b8565b611b2f57600082815260fb602090815260408083206001600160a01b03851684529091529020805460ff19166001179055613f3d3390565b6001600160a01b0316816001600160a01b0316837f2f8788117e7eff1d82e926ec794901d17c78024a50270940304540a733656f0d60405160405180910390a45050565b613f8b82826132b8565b15611b2f57600082815260fb602090815260408083206001600160a01b0385168085529252808320805460ff1916905551339285917ff6391f5c32d9c69d2a47ea670b442974b53935d1edc7fd64eb21e047a839171b9190a45050565b600080516020615d97833981519152611b2f8133613e97565b7f4910fdfa16fed3260ed0e7147f7cc6da11a60208b5b9406d12a635614ffd91435460ff16156140345761104c8361482b565b826001600160a01b03166352d1902d6040518163ffffffff1660e01b815260040160206040518083038186803b15801561406d57600080fd5b505afa92505050801561409d575060408051601f3d908101601f1916820190925261409a9181019061534b565b60015b6141005760405162461bcd60e51b815260206004820152602e60248201527f45524331393637557067726164653a206e657720696d706c656d656e7461746960448201526d6f6e206973206e6f74205555505360901b6064820152608401610f16565b600080516020615db7833981519152811461416f5760405162461bcd60e51b815260206004820152602960248201527f45524331393637557067726164653a20756e737570706f727465642070726f786044820152681a58589b195555525160ba1b6064820152608401610f16565b5061104c8383836148c7565b60c95460ff166141c45760405162461bcd60e51b815260206004820152601460248201527314185d5cd8589b194e881b9bdd081c185d5cd95960621b6044820152606401610f16565b60c9805460ff191690557f5db9ee0a495bf2e6ff9c91a7834c1ba4fdd244a5e8aa4e537bd38aeae4b073aa335b6040516001600160a01b03909116815260200160405180910390a1565b600054610100900460ff166142355760405162461bcd60e51b8152600401610f1690615a61565b611b2f82826148ec565b600054610100900460ff166142665760405162461bcd60e51b8152600401610f1690615a61565b565b600054610100900460ff1661428f5760405162461bcd60e51b8152600401610f1690615a61565b61426661493a565b60c95460ff16156142ba5760405162461bcd60e51b8152600401610f16906158e9565b60c9805460ff191660011790557f62e78cea01bee320cd4e420270b5ea74000d11b0c9f74754ebdbfc544b05a2586141f13390565b816001600160a01b0316836001600160a01b031614156143515760405162461bcd60e51b815260206004820152601960248201527f4552433732313a20617070726f766520746f2063616c6c6572000000000000006044820152606401610f16565b6001600160a01b038381166000818152606a6020908152604080832094871680845294825291829020805460ff191686151590811790915591519182527f17307eab39ab6107e8899845ad3d59bd9653f200f220920489ca2b5937696c31910160405180910390a3505050565b60006101c854836101c4546143d39190615c9c565b6143de90600a615bd5565b6143e88487615c7d565b6143f29190615c7d565b613ce89190615b72565b614407848484613cf0565b6144138484848461496d565b6138625760405162461bcd60e51b8152600401610f16906157ff565b6060816144535750506040805180820190915260018152600360fc1b602082015290565b8160005b811561447d578061446781615d2b565b91506144769050600a83615b72565b9150614457565b60008167ffffffffffffffff8111156144a657634e487b7160e01b600052604160045260246000fd5b6040519080825280601f01601f1916602001820160405280156144d0576020820181803683370190505b509050815b851561456b576144e6600182615c9c565b905060006144f5600a88615b72565b61450090600a615c7d565b61450a9088615c9c565b614515906030615b4d565b905060008160f81b90508084848151811061454057634e487b7160e01b600052603260045260246000fd5b60200101906001600160f81b031916908160001a905350614562600a89615b72565b975050506144d5565b50949350505050565b60006001600160e01b0319821663780e9d6360e01b1480610d7a5750610d7a82614a7a565b60008181526001830160205260408120546145e057508154600181810184556000848152602080822090930184905584548482528286019093526040902091909155610d7a565b506000610d7a565b6145f28383614aca565b6145ff600084848461496d565b61104c5760405162461bcd60e51b8152600401610f16906157ff565b60c95460ff161561463e5760405162461bcd60e51b8152600401610f16906158e9565b61104c838383614c18565b60606000614658836002615c7d565b614663906002615b35565b67ffffffffffffffff81111561468957634e487b7160e01b600052604160045260246000fd5b6040519080825280601f01601f1916602001820160405280156146b3576020820181803683370190505b509050600360fc1b816000815181106146dc57634e487b7160e01b600052603260045260246000fd5b60200101906001600160f81b031916908160001a905350600f60fb1b8160018151811061471957634e487b7160e01b600052603260045260246000fd5b60200101906001600160f81b031916908160001a905350600061473d846002615c7d565b614748906001615b35565b90505b60018111156147dc576f181899199a1a9b1b9c1cb0b131b232b360811b85600f166010811061478a57634e487b7160e01b600052603260045260246000fd5b1a60f81b8282815181106147ae57634e487b7160e01b600052603260045260246000fd5b60200101906001600160f81b031916908160001a90535060049490941c936147d581615cdf565b905061474b565b5083156130625760405162461bcd60e51b815260206004820181905260248201527f537472696e67733a20686578206c656e67746820696e73756666696369656e746044820152606401610f16565b6001600160a01b0381163b6148985760405162461bcd60e51b815260206004820152602d60248201527f455243313936373a206e657720696d706c656d656e746174696f6e206973206e60448201526c1bdd08184818dbdb9d1c9858dd609a1b6064820152608401610f16565b600080516020615db783398151915280546001600160a01b0319166001600160a01b0392909216919091179055565b6148d083614cd0565b6000825111806148dd5750805b1561104c576138628383614d10565b600054610100900460ff166149135760405162461bcd60e51b8152600401610f1690615a61565b8151614926906065906020850190614fee565b50805161104c906066906020840190614fee565b600054610100900460ff166149615760405162461bcd60e51b8152600401610f1690615a61565b60c9805460ff19169055565b60006001600160a01b0384163b15614a6f57604051630a85bd0160e11b81526001600160a01b0385169063150b7a02906149b1903390899088908890600401615608565b602060405180830381600087803b1580156149cb57600080fd5b505af19250505080156149fb575060408051601f3d908101601f191682019092526149f8918101906153a1565b60015b614a55573d808015614a29576040519150601f19603f3d011682016040523d82523d6000602084013e614a2e565b606091505b508051614a4d5760405162461bcd60e51b8152600401610f16906157ff565b805181602001fd5b6001600160e01b031916630a85bd0160e11b149050613ce8565b506001949350505050565b60006001600160e01b031982166380ac58cd60e01b1480614aab57506001600160e01b03198216635b5e139f60e01b145b80610d7a57506301ffc9a760e01b6001600160e01b0319831614610d7a565b6001600160a01b038216614b205760405162461bcd60e51b815260206004820181905260248201527f4552433732313a206d696e7420746f20746865207a65726f20616464726573736044820152606401610f16565b6000818152606760205260409020546001600160a01b031615614b855760405162461bcd60e51b815260206004820152601c60248201527f4552433732313a20746f6b656e20616c7265616479206d696e746564000000006044820152606401610f16565b614b916000838361461b565b6001600160a01b0382166000908152606860205260408120805460019290614bba908490615b35565b909155505060008181526067602052604080822080546001600160a01b0319166001600160a01b03861690811790915590518392907fddf252ad1be2c89b69c2b068fc378daa952ba7f163c4a11628f55a4df523b3ef908290a45050565b6001600160a01b038316614c7357614c6e81609980546000838152609a60205260408120829055600182018355919091527f72a152ddfb8e864297c917af52ea6c1c68aead0fee1a62673fcc7e0c94979d000155565b614c96565b816001600160a01b0316836001600160a01b031614614c9657614c968382614dfb565b6001600160a01b038216614cad5761104c81614e98565b826001600160a01b0316826001600160a01b03161461104c5761104c8282614f71565b614cd98161482b565b6040516001600160a01b038216907fbc7cd75a20ee27fd9adebab32041f755214dbc6bffa90cc0225b39da2e5c2d3b90600090a250565b60606001600160a01b0383163b614d785760405162461bcd60e51b815260206004820152602660248201527f416464726573733a2064656c65676174652063616c6c20746f206e6f6e2d636f6044820152651b9d1c9858dd60d21b6064820152608401610f16565b600080846001600160a01b031684604051614d939190615577565b600060405180830381855af49150503d8060008114614dce576040519150601f19603f3d011682016040523d82523d6000602084013e614dd3565b606091505b509150915061203d8282604051806060016040528060278152602001615dd760279139614fb5565b60006001614e0884612d3d565b614e129190615c9c565b600083815260986020526040902054909150808214614e65576001600160a01b03841660009081526097602090815260408083208584528252808320548484528184208190558352609890915290208190555b5060009182526098602090815260408084208490556001600160a01b039094168352609781528383209183525290812055565b609954600090614eaa90600190615c9c565b6000838152609a602052604081205460998054939450909284908110614ee057634e487b7160e01b600052603260045260246000fd5b906000526020600020015490508060998381548110614f0f57634e487b7160e01b600052603260045260246000fd5b6000918252602080832090910192909255828152609a90915260408082208490558582528120556099805480614f5557634e487b7160e01b600052603160045260246000fd5b6001900381819060005260206000200160009055905550505050565b6000614f7c83612d3d565b6001600160a01b039093166000908152609760209081526040808320868452825280832085905593825260989052919091209190915550565b60608315614fc4575081613062565b825115614fd45782518084602001fd5b8160405162461bcd60e51b8152600401610f1691906157ec565b828054614ffa90615cf6565b90600052602060002090601f01602090048101928261501c5760008555615062565b82601f1061503557805160ff1916838001178555615062565b82800160010185558215615062579182015b82811115615062578251825591602001919060010190615047565b50613a249291506150ad565b6040518060c0016040528060008152602001600081526020016000815260200160006001600160a01b0316815260200160008152602001600081525090565b5b80821115613a2457600081556001016150ae565b80356001600160a01b03811681146150d957600080fd5b919050565b600082601f8301126150ee578081fd5b813567ffffffffffffffff8082111561510957615109615d5c565b604051601f8301601f19908116603f0116810190828211818310171561513157615131615d5c565b81604052838152866020858801011115615149578485fd5b8360208701602083013792830160200193909352509392505050565b805169ffffffffffffffffffff811681146150d957600080fd5b600060208284031215615190578081fd5b613062826150c2565b600080604083850312156151ab578081fd5b6151b4836150c2565b91506151c2602084016150c2565b90509250929050565b6000806000606084860312156151df578081fd5b6151e8846150c2565b92506151f6602085016150c2565b9150604084013590509250925092565b6000806000806080858703121561521b578081fd5b615224856150c2565b9350615232602086016150c2565b925060408501359150606085013567ffffffffffffffff811115615254578182fd5b615260878288016150de565b91505092959194509250565b6000806040838503121561527e578182fd5b615287836150c2565b9150602083013561529781615d72565b809150509250929050565b600080604083850312156152b4578182fd5b6152bd836150c2565b9150602083013567ffffffffffffffff8111156152d8578182fd5b6152e4858286016150de565b9150509250929050565b60008060408385031215615300578182fd5b615309836150c2565b946020939093013593505050565b600060208284031215615328578081fd5b815161306281615d72565b600060208284031215615344578081fd5b5035919050565b60006020828403121561535c578081fd5b5051919050565b60008060408385031215615375578081fd5b823591506151c2602084016150c2565b600060208284031215615396578081fd5b813561306281615d80565b6000602082840312156153b2578081fd5b815161306281615d80565b60008060008060008060008060008060006101608c8e0312156153de578889fd5b67ffffffffffffffff808d3511156153f457898afd5b6154018e8e358f016150de565b9b508060208e0135111561541357898afd5b506154248d60208e01358e016150de565b995060408c0135985060608c0135975061544060808d016150c2565b965061544e60a08d016150c2565b955061545c60c08d016150c2565b945060e08c013593506101008c0135925061547a6101208d016150c2565b91506154896101408d016150c2565b90509295989b509295989b9093969950565b600080604083850312156154ad578182fd5b50508035926020909101359150565b600080600080600060a086880312156154d3578283fd5b6154dc86615165565b94506020860151935060408601519250606086015191506154ff60808701615165565b90509295509295909350565b60008151808452615523816020860160208601615cb3565b601f01601f19169290920160200192915050565b8051825260208082015190830152604080820151908301526060808201516001600160a01b0316908301526080808201519083015260a090810151910152565b60008251615589818460208701615cb3565b9190910192915050565b7f416363657373436f6e74726f6c3a206163636f756e74200000000000000000008152600083516155cb816017850160208801615cb3565b7001034b99036b4b9b9b4b733903937b6329607d1b60179184019182015283516155fc816028840160208801615cb3565b01602801949350505050565b6001600160a01b038581168252841660208201526040810183905260806060820181905260009061563b9083018461550b565b9695505050505050565b6001600160a01b039586168152602081019490945260408401929092529092166060820152608081019190915260a00190565b6001600160a01b039687168152602081019590955260408501939093526060840191909152909216608082015260a081019190915260c00190565b6001600160a01b0394909416845260208401929092526040830152606082015260800190565b6020808252825182820181905260009190848201906040850190845b81811015615711578351835292840192918401916001016156f5565b50909695505050505050565b602080825282518282018190526000919060409081850190868401855b8281101561579d57815180518552868101518786015285810151151586860152606080820151908601526080808201516001600160a01b03169086015260a0808201519086015260c0908101519085015260e0909301929085019060010161573a565b5091979650505050505050565b6020808252825182820181905260009190848201906040850190845b81811015615711576157d9838551615537565b9284019260c092909201916001016157c6565b602081526000613062602083018461550b565b60208082526032908201527f4552433732313a207472616e7366657220746f206e6f6e20455243373231526560408201527131b2b4bb32b91034b6b83632b6b2b73a32b960711b606082015260800190565b6020808252602c908201527f46756e6374696f6e206d7573742062652063616c6c6564207468726f7567682060408201526b19195b1959d85d1958d85b1b60a21b606082015260800190565b6020808252602c908201527f46756e6374696f6e206d7573742062652063616c6c6564207468726f7567682060408201526b6163746976652070726f787960a01b606082015260800190565b60208082526010908201526f14185d5cd8589b194e881c185d5cd95960821b604082015260600190565b60208082526037908201527f4e6f207368617265732068617665206265656e20736f6c642e204465706f736960408201527f74732077696c6c206e6f74206265206163636570746564000000000000000000606082015260800190565b60208082526031908201527f4552433732313a207472616e736665722063616c6c6572206973206e6f74206f6040820152701ddb995c881b9bdc88185c1c1c9bdd9959607a1b606082015260800190565b60208082526031908201527f4465706f736974732063616e6e6f74206265206d61646520647572696e6720666040820152701d5b991c985a5cda5b99c81c195c9a5bd9607a1b606082015260800190565b6020808252602f908201527f5265736375652063616e6e6f74206265206d61646520647572696e672066756e60408201526e191c985a5cda5b99c81c195c9a5bd9608a1b606082015260800190565b6020808252602b908201527f496e697469616c697a61626c653a20636f6e7472616374206973206e6f74206960408201526a6e697469616c697a696e6760a81b606082015260800190565b60208082526024908201527f46756e6472616973696e6720706572696f642068617320616c726561647920656040820152631b99195960e21b606082015260800190565b6020808252601f908201527f5265656e7472616e637947756172643a207265656e7472616e742063616c6c00604082015260600190565b60c08101610d7a8284615537565b60008219821115615b4857615b48615d46565b500190565b600060ff821660ff84168060ff03821115615b6a57615b6a615d46565b019392505050565b600082615b8d57634e487b7160e01b81526012600452602481fd5b500490565b600181815b80851115615bcd578160001904821115615bb357615bb3615d46565b80851615615bc057918102915b93841c9390800290615b97565b509250929050565b60006130628383600082615beb57506001610d7a565b81615bf857506000610d7a565b8160018114615c0e5760028114615c1857615c34565b6001915050610d7a565b60ff841115615c2957615c29615d46565b50506001821b610d7a565b5060208310610133831016604e8410600b8410161715615c57575081810a610d7a565b615c618383615b92565b8060001904821115615c7557615c75615d46565b029392505050565b6000816000190483118215151615615c9757615c97615d46565b500290565b600082821015615cae57615cae615d46565b500390565b60005b83811015615cce578181015183820152602001615cb6565b838111156138625750506000910152565b600081615cee57615cee615d46565b506000190190565b600181811c90821680615d0a57607f821691505b60208210811415611e5857634e487b7160e01b600052602260045260246000fd5b6000600019821415615d3f57615d3f615d46565b5060010190565b634e487b7160e01b600052601160045260246000fd5b634e487b7160e01b600052604160045260246000fd5b8015158114611c1057600080fd5b6001600160e01b031981168114611c1057600080fdfe3b5d4cc60d3ec3516ee8ae083bd60934f6eb2a6c54b1229985c41bfb092b2603360894a13ba1a3210667c828492db98dca3e2076cc3735a920a3ca505d382bbc416464726573733a206c6f772d6c6576656c2064656c65676174652063616c6c206661696c6564a2646970667358221220d33bc021454deb7b408ae5cc386d81528033b336a69f920e9ee7c577ab9feba364736f6c63430008040033",
  "linkReferences": {},
  "deployedLinkReferences": {}
}