{
  "_format": "hh-sol-artifact-1",
  "contractName": "GuildFactory",
  "sourceName": "contracts/GuildFactory.sol",
  "abi": [
    {
      "inputs": [
        {
          "internalType": "address",
          "name": "dao",
          "type": "address"
        },
        {
          "internalType": "address",
          "name": "_fxConstants",
          "type": "address"
        }
      ],
      "stateMutability": "nonpayable",
      "type": "constructor"
    },
    {
      "anonymous": false,
      "inputs": [
        {
          "indexed": false,
          "internalType": "address",
          "name": "staffMember",
          "type": "address"
        },
        {
          "indexed": false,
          "internalType": "address",
          "name": "whitelistedBy",
          "type": "address"
        },
        {
          "indexed": false,
          "internalType": "bool",
          "name": "isActive",
          "type": "bool"
        }
      ],
      "name": "FactoryStaffWhitelist",
      "type": "event"
    },
    {
      "anonymous": false,
      "inputs": [
        {
          "indexed": false,
          "internalType": "address",
          "name": "contractAddress",
          "type": "address"
        },
        {
          "indexed": false,
          "internalType": "string",
          "name": "guildTokenName",
          "type": "string"
        },
        {
          "indexed": false,
          "internalType": "string",
          "name": "guildTokenSymbol",
          "type": "string"
        },
        {
          "indexed": false,
          "internalType": "address",
          "name": "dao",
          "type": "address"
        },
        {
          "indexed": false,
          "internalType": "address",
          "name": "developer",
          "type": "address"
        },
        {
          "indexed": false,
          "internalType": "address",
          "name": "creator",
          "type": "address"
        },
        {
          "indexed": false,
          "internalType": "address",
          "name": "guildFactory",
          "type": "address"
        }
      ],
      "name": "GuildCreated",
      "type": "event"
    },
    {
      "anonymous": false,
      "inputs": [
        {
          "indexed": false,
          "internalType": "address",
          "name": "guildOwner",
          "type": "address"
        },
        {
          "indexed": false,
          "internalType": "address",
          "name": "whitelistedBy",
          "type": "address"
        },
        {
          "indexed": false,
          "internalType": "bool",
          "name": "isActive",
          "type": "bool"
        }
      ],
      "name": "GuildOwnerWhitelist",
      "type": "event"
    },
    {
      "anonymous": false,
      "inputs": [
        {
          "indexed": false,
          "internalType": "address",
          "name": "account",
          "type": "address"
        }
      ],
      "name": "Paused",
      "type": "event"
    },
    {
      "anonymous": false,
      "inputs": [
        {
          "indexed": true,
          "internalType": "bytes32",
          "name": "role",
          "type": "bytes32"
        },
        {
          "indexed": true,
          "internalType": "bytes32",
          "name": "previousAdminRole",
          "type": "bytes32"
        },
        {
          "indexed": true,
          "internalType": "bytes32",
          "name": "newAdminRole",
          "type": "bytes32"
        }
      ],
      "name": "RoleAdminChanged",
      "type": "event"
    },
    {
      "anonymous": false,
      "inputs": [
        {
          "indexed": true,
          "internalType": "bytes32",
          "name": "role",
          "type": "bytes32"
        },
        {
          "indexed": true,
          "internalType": "address",
          "name": "account",
          "type": "address"
        },
        {
          "indexed": true,
          "internalType": "address",
          "name": "sender",
          "type": "address"
        }
      ],
      "name": "RoleGranted",
      "type": "event"
    },
    {
      "anonymous": false,
      "inputs": [
        {
          "indexed": true,
          "internalType": "bytes32",
          "name": "role",
          "type": "bytes32"
        },
        {
          "indexed": true,
          "internalType": "address",
          "name": "account",
          "type": "address"
        },
        {
          "indexed": true,
          "internalType": "address",
          "name": "sender",
          "type": "address"
        }
      ],
      "name": "RoleRevoked",
      "type": "event"
    },
    {
      "anonymous": false,
      "inputs": [
        {
          "indexed": false,
          "internalType": "address",
          "name": "account",
          "type": "address"
        }
      ],
      "name": "Unpaused",
      "type": "event"
    },
    {
      "inputs": [],
      "name": "DAO_ROLE",
      "outputs": [
        {
          "internalType": "bytes32",
          "name": "",
          "type": "bytes32"
        }
      ],
      "stateMutability": "view",
      "type": "function"
    },
    {
      "inputs": [],
      "name": "DEFAULT_ADMIN_ROLE",
      "outputs": [
        {
          "internalType": "bytes32",
          "name": "",
          "type": "bytes32"
        }
      ],
      "stateMutability": "view",
      "type": "function"
    },
    {
      "inputs": [],
      "name": "GFX_STAFF_ROLE",
      "outputs": [
        {
          "internalType": "bytes32",
          "name": "",
          "type": "bytes32"
        }
      ],
      "stateMutability": "view",
      "type": "function"
    },
    {
      "inputs": [],
      "name": "GUILD_OWNER_ROLE",
      "outputs": [
        {
          "internalType": "bytes32",
          "name": "",
          "type": "bytes32"
        }
      ],
      "stateMutability": "view",
      "type": "function"
    },
    {
      "inputs": [],
      "name": "GUILD_TOKEN_GOVERNOR_ROLE",
      "outputs": [
        {
          "internalType": "bytes32",
          "name": "",
          "type": "bytes32"
        }
      ],
      "stateMutability": "view",
      "type": "function"
    },
    {
      "inputs": [
        {
          "internalType": "string",
          "name": "guildName",
          "type": "string"
        },
        {
          "internalType": "string",
          "name": "guildSymbol",
          "type": "string"
        },
        {
          "internalType": "address",
          "name": "guildDao",
          "type": "address"
        },
        {
          "internalType": "address",
          "name": "guildDev",
          "type": "address"
        }
      ],
      "name": "createGuild",
      "outputs": [
        {
          "internalType": "address",
          "name": "_guildToken",
          "type": "address"
        }
      ],
      "stateMutability": "nonpayable",
      "type": "function"
    },
    {
      "inputs": [],
      "name": "fxConstants",
      "outputs": [
        {
          "internalType": "address",
          "name": "",
          "type": "address"
        }
      ],
      "stateMutability": "view",
      "type": "function"
    },
    {
      "inputs": [
        {
          "internalType": "bytes32",
          "name": "role",
          "type": "bytes32"
        }
      ],
      "name": "getRoleAdmin",
      "outputs": [
        {
          "internalType": "bytes32",
          "name": "",
          "type": "bytes32"
        }
      ],
      "stateMutability": "view",
      "type": "function"
    },
    {
      "inputs": [
        {
          "internalType": "bytes32",
          "name": "role",
          "type": "bytes32"
        },
        {
          "internalType": "address",
          "name": "account",
          "type": "address"
        }
      ],
      "name": "grantRole",
      "outputs": [],
      "stateMutability": "nonpayable",
      "type": "function"
    },
    {
      "inputs": [
        {
          "internalType": "bytes32",
          "name": "role",
          "type": "bytes32"
        },
        {
          "internalType": "address",
          "name": "account",
          "type": "address"
        }
      ],
      "name": "hasRole",
      "outputs": [
        {
          "internalType": "bool",
          "name": "",
          "type": "bool"
        }
      ],
      "stateMutability": "view",
      "type": "function"
    },
    {
      "inputs": [],
      "name": "pause",
      "outputs": [],
      "stateMutability": "nonpayable",
      "type": "function"
    },
    {
      "inputs": [],
      "name": "paused",
      "outputs": [
        {
          "internalType": "bool",
          "name": "",
          "type": "bool"
        }
      ],
      "stateMutability": "view",
      "type": "function"
    },
    {
      "inputs": [
        {
          "internalType": "bytes32",
          "name": "role",
          "type": "bytes32"
        },
        {
          "internalType": "address",
          "name": "account",
          "type": "address"
        }
      ],
      "name": "renounceRole",
      "outputs": [],
      "stateMutability": "nonpayable",
      "type": "function"
    },
    {
      "inputs": [
        {
          "internalType": "bytes32",
          "name": "role",
          "type": "bytes32"
        },
        {
          "internalType": "address",
          "name": "account",
          "type": "address"
        }
      ],
      "name": "revokeRole",
      "outputs": [],
      "stateMutability": "nonpayable",
      "type": "function"
    },
    {
      "inputs": [
        {
          "internalType": "bytes4",
          "name": "interfaceId",
          "type": "bytes4"
        }
      ],
      "name": "supportsInterface",
      "outputs": [
        {
          "internalType": "bool",
          "name": "",
          "type": "bool"
        }
      ],
      "stateMutability": "view",
      "type": "function"
    },
    {
      "inputs": [],
      "name": "unpause",
      "outputs": [],
      "stateMutability": "nonpayable",
      "type": "function"
    },
    {
      "inputs": [],
      "name": "viewGuildTokens",
      "outputs": [
        {
          "internalType": "bytes32[]",
          "name": "",
          "type": "bytes32[]"
        }
      ],
      "stateMutability": "view",
      "type": "function"
    },
    {
      "inputs": [
        {
          "internalType": "address",
          "name": "staffMember",
          "type": "address"
        },
        {
          "internalType": "bool",
          "name": "isActive",
          "type": "bool"
        }
      ],
      "name": "whitelistGFXStaff",
      "outputs": [],
      "stateMutability": "nonpayable",
      "type": "function"
    },
    {
      "inputs": [
        {
          "internalType": "address",
          "name": "guildOwner",
          "type": "address"
        },
        {
          "internalType": "bool",
          "name": "isActive",
          "type": "bool"
        }
      ],
      "name": "whitelistGuildOwner",
      "outputs": [],
      "stateMutability": "nonpayable",
      "type": "function"
    }
  ],
  "bytecode": "0x60a06040523480156200001157600080fd5b506040516200601838038062006018833981016040819052620000349162000268565b6000805460ff191690556001600160a01b0382166200009a5760405162461bcd60e51b815260206004820152601a60248201527f44414f20616464726573732063616e6e6f74206265207a65726f00000000000060448201526064015b60405180910390fd5b6001600160a01b038116620000fd5760405162461bcd60e51b815260206004820152602260248201527f4658436f6e7374616e747320616464726573732063616e6e6f74206265207a65604482015261726f60f01b606482015260840162000091565b6040516200010b906200023d565b604051809103906000f08015801562000128573d6000803e3d6000fd5b5060601b6001600160601b031916608052600280546001600160a01b0319166001600160a01b038316179055620001807f3b5d4cc60d3ec3516ee8ae083bd60934f6eb2a6c54b1229985c41bfb092b260383620001b4565b620001ac7f8ae1611d7daa1c9c873feaa39afeb6b3d7220120561f34503d5a3e228d4bd8cc83620001b4565b50506200029f565b60008281526001602090815260408083206001600160a01b038516845290915290205460ff16620002395760008281526001602081815260408084206001600160a01b0386168086529252808420805460ff19169093179092559051339285917f2f8788117e7eff1d82e926ec794901d17c78024a50270940304540a733656f0d9190a45b5050565b61427f8062001d9983390190565b80516001600160a01b03811681146200026357600080fd5b919050565b600080604083850312156200027b578182fd5b62000286836200024b565b915062000296602084016200024b565b90509250929050565b60805160601c611adb620002be60003960006108e00152611adb6000f3fe60806040523480156200001157600080fd5b5060043610620001395760003560e01c806391d1485411620000bb578063d9dbee6a116200007a578063d9dbee6a14620002aa578063e4a79db314620002c1578063e62802b414620002d8578063e9c2651814620002f1578063f1e26b0c146200030857600080fd5b806391d148541462000237578063a217fddf146200024e578063a2d8459e1462000257578063bb926061146200027f578063d547741f146200029357600080fd5b806336568abe116200010857806336568abe14620001e95780633f4ba83a14620002005780635c975abb146200020a5780638456cb5914620002165780638d280a09146200022057600080fd5b806301ffc9a7146200013e578063103c1c53146200016a578063248a9ca3146200019a5780632f2ff15d14620001d0575b600080fd5b620001556200014f36600462000f50565b6200031f565b60405190151581526020015b60405180910390f35b620001816200017b36600462000f7a565b62000357565b6040516001600160a01b03909116815260200162000161565b620001c1620001ab36600462000f09565b6000908152600160208190526040909120015490565b60405190815260200162000161565b620001e7620001e136600462000f22565b620003bf565b005b620001e7620001fa36600462000f22565b620003ef565b620001e762000471565b60005460ff1662000155565b620001e76200049a565b620001e76200023136600462000ecb565b620004c0565b620001556200024836600462000f22565b62000598565b620001c1600081565b620001c17f7935bd0ae54bc31f548c14dba4d37c5c64b3f8ca900cb468fb8abd54d5894f5581565b60025462000181906001600160a01b031681565b620001e7620002a436600462000f22565b620005c3565b620001c160008051602062001a6683398151915281565b620001c160008051602062001a8683398151915281565b620002e2620005ee565b6040516200016191906200113e565b620001c160008051602062001a4683398151915281565b620001e76200031936600462000ecb565b62000647565b60006001600160e01b03198216637965db0b60e01b14806200035157506301ffc9a760e01b6001600160e01b03198316145b92915050565b600060008051602062001a6683398151915262000375813362000717565b60005460ff1615620003a45760405162461bcd60e51b81526004016200039b90620011e7565b60405180910390fd5b6000620003b48787878762000786565b979650505050505050565b60008281526001602081905260409091200154620003de813362000717565b620003ea8383620009e8565b505050565b6001600160a01b0381163314620004615760405162461bcd60e51b815260206004820152602f60248201527f416363657373436f6e74726f6c3a2063616e206f6e6c792072656e6f756e636560448201526e103937b632b9903337b91039b2b63360891b60648201526084016200039b565b6200046d828262000a56565b5050565b60008051602062001a468339815191526200048d813362000717565b6200049762000ac0565b50565b60008051602062001a46833981519152620004b6813362000717565b6200049762000b55565b60008051602062001a86833981519152620004dc813362000717565b60005460ff1615620005025760405162461bcd60e51b81526004016200039b90620011e7565b81156200052a576200052460008051602062001a6683398151915284620009e8565b62000545565b6200054560008051602062001a668339815191528462000a56565b604080516001600160a01b0385168152336020820152831515918101919091527f6a35acef00b26637e7fb728cc3feaeef68efbd3b6d1c45b2c4c130917adf3730906060015b60405180910390a1505050565b60009182526001602090815260408084206001600160a01b0393909316845291905290205460ff1690565b60008281526001602081905260409091200154620005e2813362000717565b620003ea838362000a56565b6003805460408051602080840282018101909252828152606093909290918301828280156200063d57602002820191906000526020600020905b81548152602001906001019080831162000628575b5050505050905090565b60008051602062001a4683398151915262000663813362000717565b60005460ff1615620006895760405162461bcd60e51b81526004016200039b90620011e7565b8115620006b157620006ab60008051602062001a8683398151915284620009e8565b620006cc565b620006cc60008051602062001a868339815191528462000a56565b604080516001600160a01b0385168152336020820152831515918101919091527fb543a87c6e9bb29fedbfa2e18b546a7472d439f3066c9e43d255e5fb6f5edf9d906060016200058b565b62000723828262000598565b6200046d576200073e816001600160a01b0316601462000bb1565b6200074b83602062000bb1565b6040516020016200075e92919062001035565b60408051601f198184030181529082905262461bcd60e51b82526200039b9160040162001184565b6000845160001415620007dc5760405162461bcd60e51b815260206004820152601a60248201527f4775696c64206e616d652063616e6e6f7420626520656d70747900000000000060448201526064016200039b565b83516200082c5760405162461bcd60e51b815260206004820152601c60248201527f4775696c642073796d626f6c2063616e6e6f7420626520656d7074790000000060448201526064016200039b565b6001600160a01b038316620008845760405162461bcd60e51b815260206004820152601a60248201527f44414f20616464726573732063616e6e6f74206265207a65726f00000000000060448201526064016200039b565b6001600160a01b038216620008dc5760405162461bcd60e51b815260206004820181905260248201527f446576656c6f70657220616464726573732063616e6e6f74206265207a65726f60448201526064016200039b565b60007f000000000000000000000000000000000000000000000000000000000000000063db0ed6a060e01b8787878760405160240162000920949392919062001199565b60408051601f198184030181529181526020820180516001600160e01b03166001600160e01b03199094169390931790925290516200095f9062000e11565b6200096c929190620010ae565b604051809103906000f08015801562000989573d6000803e3d6000fd5b5090506200099960038262000dae565b507fa979d552cd7a2f55b8343eaa57612acf9aa805d98b25e98b8d1b511afefac86a81878787873330604051620009d79796959493929190620010dc565b60405180910390a195945050505050565b620009f4828262000598565b6200046d5760008281526001602081815260408084206001600160a01b0386168086529252808420805460ff19169093179092559051339285917f2f8788117e7eff1d82e926ec794901d17c78024a50270940304540a733656f0d9190a45050565b62000a62828262000598565b156200046d5760008281526001602090815260408083206001600160a01b0385168085529252808320805460ff1916905551339285917ff6391f5c32d9c69d2a47ea670b442974b53935d1edc7fd64eb21e047a839171b9190a45050565b60005460ff1662000b0b5760405162461bcd60e51b815260206004820152601460248201527314185d5cd8589b194e881b9bdd081c185d5cd95960621b60448201526064016200039b565b6000805460ff191690557f5db9ee0a495bf2e6ff9c91a7834c1ba4fdd244a5e8aa4e537bd38aeae4b073aa335b6040516001600160a01b03909116815260200160405180910390a1565b60005460ff161562000b7b5760405162461bcd60e51b81526004016200039b90620011e7565b6000805460ff191660011790557f62e78cea01bee320cd4e420270b5ea74000d11b0c9f74754ebdbfc544b05a25862000b383390565b6060600062000bc28360026200122c565b62000bcf90600262001211565b67ffffffffffffffff81111562000bf657634e487b7160e01b600052604160045260246000fd5b6040519080825280601f01601f19166020018201604052801562000c21576020820181803683370190505b509050600360fc1b8160008151811062000c4b57634e487b7160e01b600052603260045260246000fd5b60200101906001600160f81b031916908160001a905350600f60fb1b8160018151811062000c8957634e487b7160e01b600052603260045260246000fd5b60200101906001600160f81b031916908160001a905350600062000caf8460026200122c565b62000cbc90600162001211565b90505b600181111562000d56576f181899199a1a9b1b9c1cb0b131b232b360811b85600f166010811062000d0057634e487b7160e01b600052603260045260246000fd5b1a60f81b82828151811062000d2557634e487b7160e01b600052603260045260246000fd5b60200101906001600160f81b031916908160001a90535060049490941c9362000d4e8162001281565b905062000cbf565b50831562000da75760405162461bcd60e51b815260206004820181905260248201527f537472696e67733a20686578206c656e67746820696e73756666696369656e7460448201526064016200039b565b9392505050565b600062000da7836001600160a01b038416600081815260018301602052604081205462000e085750815460018181018455600084815260208082209093018490558454848252828601909352604090209190915562000351565b50600062000351565b61077e80620012c883390190565b80356001600160a01b038116811462000e3757600080fd5b919050565b600082601f83011262000e4d578081fd5b813567ffffffffffffffff8082111562000e6b5762000e6b620012b1565b604051601f8301601f19908116603f0116810190828211818310171562000e965762000e96620012b1565b8160405283815286602085880101111562000eaf578485fd5b8360208701602083013792830160200193909352509392505050565b6000806040838503121562000ede578182fd5b62000ee98362000e1f565b91506020830135801515811462000efe578182fd5b809150509250929050565b60006020828403121562000f1b578081fd5b5035919050565b6000806040838503121562000f35578182fd5b8235915062000f476020840162000e1f565b90509250929050565b60006020828403121562000f62578081fd5b81356001600160e01b03198116811462000da7578182fd5b6000806000806080858703121562000f90578182fd5b843567ffffffffffffffff8082111562000fa8578384fd5b62000fb68883890162000e3c565b9550602087013591508082111562000fcc578384fd5b5062000fdb8782880162000e3c565b93505062000fec6040860162000e1f565b915062000ffc6060860162000e1f565b905092959194509250565b60008151808452620010218160208601602086016200124e565b601f01601f19169290920160200192915050565b7f416363657373436f6e74726f6c3a206163636f756e74200000000000000000008152600083516200106f8160178501602088016200124e565b7001034b99036b4b9b9b4b733903937b6329607d1b6017918401918201528351620010a28160288401602088016200124e565b01602801949350505050565b6001600160a01b0383168152604060208201819052600090620010d49083018462001007565b949350505050565b600060018060a01b03808a16835260e060208401526200110060e084018a62001007565b838103604085015262001114818a62001007565b97821660608501525094851660808301525091831660a083015290911660c0909101529392505050565b6020808252825182820181905260009190848201906040850190845b8181101562001178578351835292840192918401916001016200115a565b50909695505050505050565b60208152600062000da7602083018462001007565b608081526000620011ae608083018762001007565b8281036020840152620011c2818762001007565b6001600160a01b03958616604085015293909416606090920191909152509392505050565b60208082526010908201526f14185d5cd8589b194e881c185d5cd95960821b604082015260600190565b600082198211156200122757620012276200129b565b500190565b60008160001904831182151516156200124957620012496200129b565b500290565b60005b838110156200126b57818101518382015260200162001251565b838111156200127b576000848401525b50505050565b6000816200129357620012936200129b565b506000190190565b634e487b7160e01b600052601160045260246000fd5b634e487b7160e01b600052604160045260246000fdfe608060405260405161077e38038061077e83398101604081905261002291610303565b61004d60017f360894a13ba1a3210667c828492db98dca3e2076cc3735a920a3ca505d382bbd61041b565b6000805160206107378339815191521461007757634e487b7160e01b600052600160045260246000fd5b6100838282600061008a565b5050610480565b610093836100c0565b6000825111806100a05750805b156100bb576100b9838361010060201b6100291760201c565b505b505050565b6100c98161012c565b6040516001600160a01b038216907fbc7cd75a20ee27fd9adebab32041f755214dbc6bffa90cc0225b39da2e5c2d3b90600090a250565b60606101258383604051806060016040528060278152602001610757602791396101ec565b9392505050565b61013f816102c160201b6100551760201c565b6101a65760405162461bcd60e51b815260206004820152602d60248201527f455243313936373a206e657720696d706c656d656e746174696f6e206973206e60448201526c1bdd08184818dbdb9d1c9858dd609a1b60648201526084015b60405180910390fd5b806101cb60008051602061073783398151915260001b6102c760201b61005b1760201c565b80546001600160a01b0319166001600160a01b039290921691909117905550565b6060833b61024b5760405162461bcd60e51b815260206004820152602660248201527f416464726573733a2064656c65676174652063616c6c20746f206e6f6e2d636f6044820152651b9d1c9858dd60d21b606482015260840161019d565b600080856001600160a01b03168560405161026691906103cc565b600060405180830381855af49150503d80600081146102a1576040519150601f19603f3d011682016040523d82523d6000602084013e6102a6565b606091505b5090925090506102b78282866102ca565b9695505050505050565b3b151590565b90565b606083156102d9575081610125565b8251156102e95782518084602001fd5b8160405162461bcd60e51b815260040161019d91906103e8565b60008060408385031215610315578182fd5b82516001600160a01b038116811461032b578283fd5b60208401519092506001600160401b0380821115610347578283fd5b818501915085601f83011261035a578283fd5b81518181111561036c5761036c61046a565b604051601f8201601f19908116603f011681019083821181831017156103945761039461046a565b816040528281528860208487010111156103ac578586fd5b6103bd83602083016020880161043e565b80955050505050509250929050565b600082516103de81846020870161043e565b9190910192915050565b602081526000825180602084015261040781604085016020870161043e565b601f01601f19169190910160400192915050565b60008282101561043957634e487b7160e01b81526011600452602481fd5b500390565b60005b83811015610459578181015183820152602001610441565b838111156100b95750506000910152565b634e487b7160e01b600052604160045260246000fd5b6102a88061048f6000396000f3fe60806040523661001357610011610017565b005b6100115b61002761002261005e565b610096565b565b606061004e838360405180606001604052806027815260200161024c602791396100ba565b9392505050565b3b151590565b90565b60006100917f360894a13ba1a3210667c828492db98dca3e2076cc3735a920a3ca505d382bbc546001600160a01b031690565b905090565b3660008037600080366000845af43d6000803e8080156100b5573d6000f35b3d6000fd5b6060833b61011e5760405162461bcd60e51b815260206004820152602660248201527f416464726573733a2064656c65676174652063616c6c20746f206e6f6e2d636f6044820152651b9d1c9858dd60d21b60648201526084015b60405180910390fd5b600080856001600160a01b03168560405161013991906101cc565b600060405180830381855af49150503d8060008114610174576040519150601f19603f3d011682016040523d82523d6000602084013e610179565b606091505b5091509150610189828286610193565b9695505050505050565b606083156101a257508161004e565b8251156101b25782518084602001fd5b8160405162461bcd60e51b815260040161011591906101e8565b600082516101de81846020870161021b565b9190910192915050565b602081526000825180602084015261020781604085016020870161021b565b601f01601f19169190910160400192915050565b60005b8381101561023657818101518382015260200161021e565b83811115610245576000848401525b5050505056fe416464726573733a206c6f772d6c6576656c2064656c65676174652063616c6c206661696c6564a2646970667358221220e81a0599646281ed22237c6e1a71af27aae7c9778a3595bc0dc875135584b7d564736f6c63430008040033360894a13ba1a3210667c828492db98dca3e2076cc3735a920a3ca505d382bbc416464726573733a206c6f772d6c6576656c2064656c65676174652063616c6c206661696c65643b5d4cc60d3ec3516ee8ae083bd60934f6eb2a6c54b1229985c41bfb092b2603a2a0f3abc8d1cdd438391ba04f95e521ce8fb935744f22815da1c0326e73a5fb8ae1611d7daa1c9c873feaa39afeb6b3d7220120561f34503d5a3e228d4bd8cca2646970667358221220bc363d0499a49de2c5fc13b38fb363a6f363ff11574d05b98e296b6fad4b9f7064736f6c6343000804003360a06040523060601b6080523480156200001857600080fd5b50600054610100900460ff16620000365760005460ff161562000040565b62000040620000e5565b620000a85760405162461bcd60e51b815260206004820152602e60248201527f496e697469616c697a61626c653a20636f6e747261637420697320616c72656160448201526d191e481a5b9a5d1a585b1a5e995960921b606482015260840160405180910390fd5b600054610100900460ff16158015620000cb576000805461ffff19166101011790555b8015620000de576000805461ff00191690555b5062000109565b6000620000fd306200010360201b62001b361760201c565b15905090565b3b151590565b60805160601c6141426200013d60003960008181610c4601528181610c8601528181610e410152610e8101526141426000f3fe6080604052600436106102935760003560e01c80637ba295bf1161015a578063a8e0eb89116100c1578063d53913931161007a578063d539139314610842578063d547741f14610864578063db0ed6a014610884578063dd62ed3e146108a4578063e9c26518146108ea578063f1127ed81461090c57600080fd5b8063a8e0eb891461077f578063a9059cbb1461079f578063bb926061146107bf578063c3cda520146107e0578063ccc5749014610800578063d505accf1461082257600080fd5b80639469b2f7116101135780639469b2f7146106d557806395d89b41146106f55780639a65797c1461070a5780639ab24eb01461072a578063a217fddf1461074a578063a457c2d71461075f57600080fd5b80637ba295bf146105e85780637ecebe001461062c5780638456cb591461064c5780638e539e8c146106615780639103a0e01461068157806391d14854146106b557600080fd5b80633a46b1a8116101fe5780635c19a95c116101b75780635c19a95c1461050d5780635c975abb1461052d5780636fcfff451461054557806370a082311461057a5780637200469b146105b057806379cc6790146105c857600080fd5b80633a46b1a8146104315780633f4ba83a1461045157806342966c6814610466578063448710e4146104865780634f1ef286146104a8578063587cde1e146104bb57600080fd5b80632f2ff15d116102505780632f2ff15d1461037e578063313ce567146103a05780633644e515146103bc57806336568abe146103d15780633659cfe6146103f1578063395093511461041157600080fd5b806301ffc9a71461029857806306fdde03146102cd578063095ea7b3146102ef57806318160ddd1461030f57806323b872dd1461032e578063248a9ca31461034e575b600080fd5b3480156102a457600080fd5b506102b86102b3366004613b55565b610956565b60405190151581526020015b60405180910390f35b3480156102d957600080fd5b506102e261098d565b6040516102c49190613d21565b3480156102fb57600080fd5b506102b861030a366004613a5e565b610a1f565b34801561031b57600080fd5b506035545b6040519081526020016102c4565b34801561033a57600080fd5b506102b861034936600461391c565b610a35565b34801561035a57600080fd5b50610320610369366004613b19565b600090815260fb602052604090206001015490565b34801561038a57600080fd5b5061039e610399366004613b31565b610ae6565b005b3480156103ac57600080fd5b50604051601281526020016102c4565b3480156103c857600080fd5b50610320610bae565b3480156103dd57600080fd5b5061039e6103ec366004613b31565b610bbd565b3480156103fd57600080fd5b5061039e61040c3660046138ac565b610c3b565b34801561041d57600080fd5b506102b861042c366004613a5e565b610d04565b34801561043d57600080fd5b5061032061044c366004613a5e565b610d40565b34801561045d57600080fd5b5061039e610db4565b34801561047257600080fd5b5061039e610481366004613b19565b610dd5565b34801561049257600080fd5b5061049b610ddf565b6040516102c49190613cdd565b61039e6104b63660046139fd565b610e36565b3480156104c757600080fd5b506104f56104d63660046138ac565b6001600160a01b0390811660009081526101f860205260409020541690565b6040516001600160a01b0390911681526020016102c4565b34801561051957600080fd5b5061039e6105283660046138ac565b610eec565b34801561053957600080fd5b5060975460ff166102b8565b34801561055157600080fd5b506105656105603660046138ac565b610ef6565b60405163ffffffff90911681526020016102c4565b34801561058657600080fd5b506103206105953660046138ac565b6001600160a01b031660009081526033602052604090205490565b3480156105bc57600080fd5b5061022b546103209081565b3480156105d457600080fd5b5061039e6105e3366004613a5e565b610f19565b3480156105f457600080fd5b50610608610603366004613b19565b610f9a565b6040805193845260208401929092526001600160a01b0316908201526060016102c4565b34801561063857600080fd5b506103206106473660046138ac565b61116a565b34801561065857600080fd5b5061039e611189565b34801561066d57600080fd5b5061032061067c366004613b19565b6111aa565b34801561068d57600080fd5b506103207f4504b9dfd7400a1522f49a8b4a100552da9236849581fd59b7363eb48c6a474c81565b3480156106c157600080fd5b506102b86106d0366004613b31565b611207565b3480156106e157600080fd5b5061039e6106f03660046138ac565b611232565b34801561070157600080fd5b506102e2611263565b34801561071657600080fd5b5061039e610725366004613a5e565b611272565b34801561073657600080fd5b506103206107453660046138ac565b6113f9565b34801561075657600080fd5b50610320600081565b34801561076b57600080fd5b506102b861077a366004613a5e565b611490565b34801561078b57600080fd5b5061039e61079a3660046139cc565b611529565b3480156107ab57600080fd5b506102b86107ba366004613a5e565b611613565b3480156107cb57600080fd5b5061022a546104f5906001600160a01b031681565b3480156107ec57600080fd5b5061039e6107fb366004613a89565b611620565b34801561080c57600080fd5b506103206000805160206140a683398151915281565b34801561082e57600080fd5b5061039e61083d36600461395c565b611756565b34801561084e57600080fd5b506103206000805160206140ed83398151915281565b34801561087057600080fd5b5061039e61087f366004613b31565b61189d565b34801561089057600080fd5b5061039e61089f366004613b7d565b6118c3565b3480156108b057600080fd5b506103206108bf3660046138e4565b6001600160a01b03918216600090815260346020908152604080832093909416825291909152205490565b3480156108f657600080fd5b5061032060008051602061408683398151915281565b34801561091857600080fd5b5061092c610927366004613ae4565b611aa3565b60408051825163ffffffff1681526020928301516001600160e01b031692810192909252016102c4565b60006001600160e01b03198216637965db0b60e01b148061098757506301ffc9a760e01b6001600160e01b03198316145b92915050565b60606036805461099c90614000565b80601f01602080910402602001604051908101604052809291908181526020018280546109c890614000565b8015610a155780601f106109ea57610100808354040283529160200191610a15565b820191906000526020600020905b8154815290600101906020018083116109f857829003601f168201915b5050505050905090565b6000610a2c338484611b3c565b50600192915050565b6000610a42848484611c60565b6001600160a01b038416600090815260346020908152604080832033845290915290205482811015610acc5760405162461bcd60e51b815260206004820152602860248201527f45524332303a207472616e7366657220616d6f756e74206578636565647320616044820152676c6c6f77616e636560c01b60648201526084015b60405180910390fd5b610ad98533858403611b3c565b60019150505b9392505050565b600082815260fb6020526040902060010154610b028133611e45565b610b1a6000805160206140a683398151915283611207565b15610b715760405162461bcd60e51b815260206004820152602160248201527f4163636f756e7420616c72656164792068617320474f5645524e4f525f524f4c6044820152604560f81b6064820152608401610ac3565b610b7b8383611ea9565b6000805160206140a6833981519152831415610ba957610ba96000805160206140a683398151915233611ecf565b505050565b6000610bb8611f36565b905090565b6001600160a01b0381163314610c2d5760405162461bcd60e51b815260206004820152602f60248201527f416363657373436f6e74726f6c3a2063616e206f6e6c792072656e6f756e636560448201526e103937b632b9903337b91039b2b63360891b6064820152608401610ac3565b610c378282611ecf565b5050565b306001600160a01b037f0000000000000000000000000000000000000000000000000000000000000000161415610c845760405162461bcd60e51b8152600401610ac390613d54565b7f00000000000000000000000000000000000000000000000000000000000000006001600160a01b0316610cb6611fb3565b6001600160a01b031614610cdc5760405162461bcd60e51b8152600401610ac390613da0565b610ce581611fe1565b60408051600080825260208201909252610d019183919061200c565b50565b3360008181526034602090815260408083206001600160a01b03871684529091528120549091610a2c918590610d3b908690613e61565b611b3c565b6000438210610d915760405162461bcd60e51b815260206004820152601f60248201527f4552433230566f7465733a20626c6f636b206e6f7420796574206d696e6564006044820152606401610ac3565b6001600160a01b03831660009081526101f960205260409020610adf9083612157565b600080516020614086833981519152610dcd8133611e45565b610d01612230565b610d0133826122c3565b61022c80546040805160208084028201810190925282815260609390929091830182828015610a1557602002820191906000526020600020905b815481526020019060010190808311610e19575050505050905090565b306001600160a01b037f0000000000000000000000000000000000000000000000000000000000000000161415610e7f5760405162461bcd60e51b8152600401610ac390613d54565b7f00000000000000000000000000000000000000000000000000000000000000006001600160a01b0316610eb1611fb3565b6001600160a01b031614610ed75760405162461bcd60e51b8152600401610ac390613da0565b610ee082611fe1565b610c378282600161200c565b610d0133826122cd565b6001600160a01b03811660009081526101f9602052604081205461098790612348565b6000610f2583336108bf565b905081811015610f835760405162461bcd60e51b8152602060048201526024808201527f45524332303a206275726e20616d6f756e74206578636565647320616c6c6f77604482015263616e636560e01b6064820152608401610ac3565b610f908333848403611b3c565b610ba983836122c3565b60008060008061022a60009054906101000a90046001600160a01b031690506000816001600160a01b0316632d2c55656040518163ffffffff1660e01b815260040160206040518083038186803b158015610ff457600080fd5b505afa158015611008573d6000803e3d6000fd5b505050506040513d601f19601f8201168201806040525081019061102c91906138c8565b90506000826001600160a01b031663a8c2add96040518163ffffffff1660e01b815260040160206040518083038186803b15801561106957600080fd5b505afa15801561107d573d6000803e3d6000fd5b505050506040513d601f19601f820116820180604052508101906110a19190613c18565b90506000836001600160a01b03166314e78b8b6040518163ffffffff1660e01b815260040160206040518083038186803b1580156110de57600080fd5b505afa1580156110f2573d6000803e3d6000fd5b505050506040513d601f19601f820116820180604052508101906111169190613c30565b905060008861112683600a613edc565b8461113285600a613edc565b61113c9190613fa6565b611146908c613e79565b6111509190613f87565b61115a9190613fa6565b9992985092965090945050505050565b6001600160a01b03811660009081526101c56020526040812054610987565b6000805160206140868339815191526111a28133611e45565b610d016123b1565b60004382106111fb5760405162461bcd60e51b815260206004820152601f60248201527f4552433230566f7465733a20626c6f636b206e6f7420796574206d696e6564006044820152606401610ac3565b6109876101fa83612157565b600091825260fb602090815260408084206001600160a01b0393909316845291905290205460ff1690565b6000805160206140a683398151915261124b8133611e45565b610c376000805160206140a683398151915283610ae6565b60606037805461099c90614000565b6000805160206140ed83398151915261128b8133611e45565b60975460ff16156112ae5760405162461bcd60e51b8152600401610ac390613dec565b6112ba61022c33612409565b61131c5760405162461bcd60e51b815260206004820152602d60248201527f41646472657373206d7573742062652077686974656c697374656420746f207260448201526c195c5d595cdd0818481b5a5b9d609a1b6064820152608401610ac3565b6000821161136c5760405162461bcd60e51b815260206004820152601760248201527f43616e6e6f74206d696e74207a65726f20746f6b656e730000000000000000006044820152606401610ac3565b611376838361242b565b600080600061138485612435565b919450925090506001600160a01b038616337f88e2276b6b80f0295b70c9df7bdd594e01128b425a24bba1d0ccd67f33a3269f8388866113c48983613e61565b604080516001600160a01b039095168552602085019390935291830152606082015260800160405180910390a3505050505050565b6001600160a01b03811660009081526101f96020526040812054801561147d576001600160a01b03831660009081526101f96020526040902061143d600183613fa6565b8154811061145b57634e487b7160e01b600052603260045260246000fd5b60009182526020909120015464010000000090046001600160e01b0316611480565b60005b6001600160e01b03169392505050565b3360009081526034602090815260408083206001600160a01b0386168452909152812054828110156115125760405162461bcd60e51b815260206004820152602560248201527f45524332303a2064656372656173656420616c6c6f77616e63652062656c6f77604482015264207a65726f60d81b6064820152608401610ac3565b61151f3385858403611b3c565b5060019392505050565b6000805160206140a68339815191526115428133611e45565b60975460ff16156115655760405162461bcd60e51b8152600401610ac390613dec565b81156115a45761157761022c84612464565b506115906000805160206140ed83398151915284612479565b61159f61022b80546001019055565b6115c9565b6115b061022c846124ff565b506115c96000805160206140ed83398151915284611ecf565b826001600160a01b03167f9b947a4a73918df1b41f159e25294b2d92be81a04d73b15a2cef31e6823df95d83604051611606911515815260200190565b60405180910390a2505050565b6000610a2c338484611c60565b834211156116705760405162461bcd60e51b815260206004820152601d60248201527f4552433230566f7465733a207369676e617475726520657870697265640000006044820152606401610ac3565b604080517fe48329057bfd03d55e49b547132e39cffd9c1820ad7b9d4c5307691425d15adf60208201526001600160a01b0388169181019190915260608101869052608081018590526000906116ea906116e29060a00160405160208183030381529060405280519060200120612514565b858585612562565b90506116f58161258a565b86146117435760405162461bcd60e51b815260206004820152601960248201527f4552433230566f7465733a20696e76616c6964206e6f6e6365000000000000006044820152606401610ac3565b61174d81886122cd565b50505050505050565b834211156117a65760405162461bcd60e51b815260206004820152601d60248201527f45524332305065726d69743a206578706972656420646561646c696e650000006044820152606401610ac3565b60006101c6548888886117b88c61258a565b6040805160208101969096526001600160a01b0394851690860152929091166060840152608083015260a082015260c0810186905260e001604051602081830303815290604052805190602001209050600061181382612514565b9050600061182382878787612562565b9050896001600160a01b0316816001600160a01b0316146118865760405162461bcd60e51b815260206004820152601e60248201527f45524332305065726d69743a20696e76616c6964207369676e617475726500006044820152606401610ac3565b6118918a8a8a611b3c565b50505050505050505050565b600082815260fb60205260409020600101546118b98133611e45565b610ba98383611ecf565b600054610100900460ff166118de5760005460ff16156118e2565b303b155b6119455760405162461bcd60e51b815260206004820152602e60248201527f496e697469616c697a61626c653a20636f6e747261637420697320616c72656160448201526d191e481a5b9a5d1a585b1a5e995960921b6064820152608401610ac3565b600054610100900460ff16158015611967576000805461ffff19166101011790555b6001600160a01b0382166119c85760405162461bcd60e51b815260206004820152602260248201527f4658436f6e7374616e747320616464726573732063616e6e6f74206265207a65604482015261726f60f01b6064820152608401610ac3565b6119d286866125b3565b6119db866125ec565b6119e3612647565b6119eb612680565b6119f36126b7565b6119fb612647565b611a1360008051602061408683398151915285612479565b611a2b6000805160206140a683398151915285612479565b611a557f4504b9dfd7400a1522f49a8b4a100552da9236849581fd59b7363eb48c6a474c84612479565b611a6d6000805160206140a6833981519152806126e6565b61022a80546001600160a01b0319166001600160a01b0384161790558015611a9b576000805461ff00191690555b505050505050565b60408051808201909152600080825260208201526001600160a01b03831660009081526101f960205260409020805463ffffffff8416908110611af657634e487b7160e01b600052603260045260246000fd5b60009182526020918290206040805180820190915291015463ffffffff8116825264010000000090046001600160e01b0316918101919091529392505050565b3b151590565b6001600160a01b038316611b9e5760405162461bcd60e51b8152602060048201526024808201527f45524332303a20617070726f76652066726f6d20746865207a65726f206164646044820152637265737360e01b6064820152608401610ac3565b6001600160a01b038216611bff5760405162461bcd60e51b815260206004820152602260248201527f45524332303a20617070726f766520746f20746865207a65726f206164647265604482015261737360f01b6064820152608401610ac3565b6001600160a01b0383811660008181526034602090815260408083209487168084529482529182902085905590518481527f8c5be1e5ebec7d5bd14f71427d1e84f3dd0314c0f7b2291e5b200ac8c7c3b925910160405180910390a3505050565b6001600160a01b038316611cc45760405162461bcd60e51b815260206004820152602560248201527f45524332303a207472616e736665722066726f6d20746865207a65726f206164604482015264647265737360d81b6064820152608401610ac3565b6001600160a01b038216611d265760405162461bcd60e51b815260206004820152602360248201527f45524332303a207472616e7366657220746f20746865207a65726f206164647260448201526265737360e81b6064820152608401610ac3565b611d31838383612731565b6001600160a01b03831660009081526033602052604090205481811015611da95760405162461bcd60e51b815260206004820152602660248201527f45524332303a207472616e7366657220616d6f756e7420657863656564732062604482015265616c616e636560d01b6064820152608401610ac3565b6001600160a01b03808516600090815260336020526040808220858503905591851681529081208054849290611de0908490613e61565b92505081905550826001600160a01b0316846001600160a01b03167fddf252ad1be2c89b69c2b068fc378daa952ba7f163c4a11628f55a4df523b3ef84604051611e2c91815260200190565b60405180910390a3611e3f848484612754565b50505050565b611e4f8282611207565b610c3757611e67816001600160a01b0316601461275f565b611e7283602061275f565b604051602001611e83929190613c68565b60408051601f198184030181529082905262461bcd60e51b8252610ac391600401613d21565b600082815260fb6020526040902060010154611ec58133611e45565b610ba98383612479565b611ed98282611207565b15610c3757600082815260fb602090815260408083206001600160a01b0385168085529252808320805460ff1916905551339285917ff6391f5c32d9c69d2a47ea670b442974b53935d1edc7fd64eb21e047a839171b9190a45050565b6000610bb87f8b73c3c69bb8fe3d512ecc4cf759cc79239f7b179b0ffacaa9a75d522b39400f611f666101915490565b610192546040805160208101859052908101839052606081018290524660808201523060a082015260009060c0016040516020818303038152906040528051906020012090509392505050565b7f360894a13ba1a3210667c828492db98dca3e2076cc3735a920a3ca505d382bbc546001600160a01b031690565b7f4504b9dfd7400a1522f49a8b4a100552da9236849581fd59b7363eb48c6a474c610c378133611e45565b6000612016611fb3565b905061202184612941565b60008351118061202e5750815b1561203f5761203d84846129e6565b505b7f4910fdfa16fed3260ed0e7147f7cc6da11a60208b5b9406d12a635614ffd9143805460ff1661215057805460ff191660011781556040516001600160a01b03831660248201526120be90869060440160408051601f198184030181529190526020810180516001600160e01b0316631b2ce7f360e11b1790526129e6565b50805460ff191681556120cf611fb3565b6001600160a01b0316826001600160a01b0316146121475760405162461bcd60e51b815260206004820152602f60248201527f45524331393637557067726164653a207570677261646520627265616b73206660448201526e75727468657220757067726164657360881b6064820152608401610ac3565b61215085612ad1565b5050505050565b8154600090815b818110156121c95760006121728284612b11565b90508486828154811061219557634e487b7160e01b600052603260045260246000fd5b60009182526020909120015463ffffffff1611156121b5578092506121c3565b6121c0816001613e61565b91505b5061215e565b811561221b57846121db600184613fa6565b815481106121f957634e487b7160e01b600052603260045260246000fd5b60009182526020909120015464010000000090046001600160e01b031661221e565b60005b6001600160e01b031695945050505050565b60975460ff166122795760405162461bcd60e51b815260206004820152601460248201527314185d5cd8589b194e881b9bdd081c185d5cd95960621b6044820152606401610ac3565b6097805460ff191690557f5db9ee0a495bf2e6ff9c91a7834c1ba4fdd244a5e8aa4e537bd38aeae4b073aa335b6040516001600160a01b03909116815260200160405180910390a1565b610c378282612b2c565b6001600160a01b0382811660008181526101f86020818152604080842080546033845282862054949093528787166001600160a01b03198416811790915590519190951694919391928592917f3134e8a2e6d97e929a7e54011ea5485d7d196dd5f0ba4d4ef95803e8e3fc257f9190a4611e3f828483612b45565b600063ffffffff8211156123ad5760405162461bcd60e51b815260206004820152602660248201527f53616665436173743a2076616c756520646f65736e27742066697420696e203360448201526532206269747360d01b6064820152608401610ac3565b5090565b60975460ff16156123d45760405162461bcd60e51b8152600401610ac390613dec565b6097805460ff191660011790557f62e78cea01bee320cd4e420270b5ea74000d11b0c9f74754ebdbfc544b05a2586122a63390565b6001600160a01b03811660009081526001830160205260408120541515610adf565b610c378282612c84565b60008060008060008061244787610f9a565b925092509250612457818461242b565b9196909550909350915050565b6000610adf836001600160a01b038416612d0f565b6124838282611207565b610c3757600082815260fb602090815260408083206001600160a01b03851684529091529020805460ff191660011790556124bb3390565b6001600160a01b0316816001600160a01b0316837f2f8788117e7eff1d82e926ec794901d17c78024a50270940304540a733656f0d60405160405180910390a45050565b6000610adf836001600160a01b038416612d5e565b6000610987612521611f36565b8360405161190160f01b6020820152602281018390526042810182905260009060620160405160208183030381529060405280519060200120905092915050565b600080600061257387878787612e7b565b9150915061258081612f68565b5095945050505050565b6001600160a01b03811660009081526101c5602052604090208054600181018255905b50919050565b600054610100900460ff166125da5760405162461bcd60e51b8152600401610ac390613e16565b6125e2613169565b610c378282613190565b600054610100900460ff166126135760405162461bcd60e51b8152600401610ac390613e16565b61261b613169565b61263e81604051806040016040528060018152602001603160f81b8152506131de565b610d0181613221565b600054610100900460ff1661266e5760405162461bcd60e51b8152600401610ac390613e16565b612676613169565b61267e613169565b565b600054610100900460ff166126a75760405162461bcd60e51b8152600401610ac390613e16565b6126af613169565b61267e613270565b600054610100900460ff166126de5760405162461bcd60e51b8152600401610ac390613e16565b61266e613169565b600082815260fb6020526040808220600101805490849055905190918391839186917fbd79b86ffe0ab8e8776151514217cd7cacd52c909f66475c3af44e129f0b00ff9190a4505050565b60975460ff1615610ba95760405162461bcd60e51b8152600401610ac390613dec565b610ba98383836132a3565b6060600061276e836002613f87565b612779906002613e61565b67ffffffffffffffff81111561279f57634e487b7160e01b600052604160045260246000fd5b6040519080825280601f01601f1916602001820160405280156127c9576020820181803683370190505b509050600360fc1b816000815181106127f257634e487b7160e01b600052603260045260246000fd5b60200101906001600160f81b031916908160001a905350600f60fb1b8160018151811061282f57634e487b7160e01b600052603260045260246000fd5b60200101906001600160f81b031916908160001a9053506000612853846002613f87565b61285e906001613e61565b90505b60018111156128f2576f181899199a1a9b1b9c1cb0b131b232b360811b85600f16601081106128a057634e487b7160e01b600052603260045260246000fd5b1a60f81b8282815181106128c457634e487b7160e01b600052603260045260246000fd5b60200101906001600160f81b031916908160001a90535060049490941c936128eb81613fe9565b9050612861565b508315610adf5760405162461bcd60e51b815260206004820181905260248201527f537472696e67733a20686578206c656e67746820696e73756666696369656e746044820152606401610ac3565b803b6129a55760405162461bcd60e51b815260206004820152602d60248201527f455243313936373a206e657720696d706c656d656e746174696f6e206973206e60448201526c1bdd08184818dbdb9d1c9858dd609a1b6064820152608401610ac3565b7f360894a13ba1a3210667c828492db98dca3e2076cc3735a920a3ca505d382bbc80546001600160a01b0319166001600160a01b0392909216919091179055565b6060823b612a455760405162461bcd60e51b815260206004820152602660248201527f416464726573733a2064656c65676174652063616c6c20746f206e6f6e2d636f6044820152651b9d1c9858dd60d21b6064820152608401610ac3565b600080846001600160a01b031684604051612a609190613c4c565b600060405180830381855af49150503d8060008114612a9b576040519150601f19603f3d011682016040523d82523d6000602084013e612aa0565b606091505b5091509150612ac882826040518060600160405280602781526020016140c6602791396132d6565b95945050505050565b612ada81612941565b6040516001600160a01b038216907fbc7cd75a20ee27fd9adebab32041f755214dbc6bffa90cc0225b39da2e5c2d3b90600090a250565b6000612b206002848418613e79565b610adf90848416613e61565b612b36828261330f565b611e3f6101fa6134708361347c565b816001600160a01b0316836001600160a01b031614158015612b675750600081115b15610ba9576001600160a01b03831615612bf6576001600160a01b03831660009081526101f9602052604081208190612ba3906134708561347c565b91509150846001600160a01b03167fdec2bacdd2f05b59de34da9b523dff8be42e5e38e818c82fdb0bae774387a7248383604051612beb929190918252602082015260400190565b60405180910390a250505b6001600160a01b03821615610ba9576001600160a01b03821660009081526101f9602052604081208190612c2d9061361f8561347c565b91509150836001600160a01b03167fdec2bacdd2f05b59de34da9b523dff8be42e5e38e818c82fdb0bae774387a7248383604051612c75929190918252602082015260400190565b60405180910390a25050505050565b612c8e828261362b565b6035546001600160e01b031015612d005760405162461bcd60e51b815260206004820152603060248201527f4552433230566f7465733a20746f74616c20737570706c79207269736b73206f60448201526f766572666c6f77696e6720766f74657360801b6064820152608401610ac3565b611e3f6101fa61361f8361347c565b6000818152600183016020526040812054612d5657508154600181810184556000848152602080822090930184905584548482528286019093526040902091909155610987565b506000610987565b60008181526001830160205260408120548015612e71576000612d82600183613fa6565b8554909150600090612d9690600190613fa6565b9050818114612e17576000866000018281548110612dc457634e487b7160e01b600052603260045260246000fd5b9060005260206000200154905080876000018481548110612df557634e487b7160e01b600052603260045260246000fd5b6000918252602080832090910192909255918252600188019052604090208390555b8554869080612e3657634e487b7160e01b600052603160045260246000fd5b600190038181906000526020600020016000905590558560010160008681526020019081526020016000206000905560019350505050610987565b6000915050610987565b6000807f7fffffffffffffffffffffffffffffff5d576e7357a4501ddfe92f46681b20a0831115612eb25750600090506003612f5f565b8460ff16601b14158015612eca57508460ff16601c14155b15612edb5750600090506004612f5f565b6040805160008082526020820180845289905260ff881692820192909252606081018690526080810185905260019060a0016020604051602081039080840390855afa158015612f2f573d6000803e3d6000fd5b5050604051601f1901519150506001600160a01b038116612f5857600060019250925050612f5f565b9150600090505b94509492505050565b6000816004811115612f8a57634e487b7160e01b600052602160045260246000fd5b1415612f935750565b6001816004811115612fb557634e487b7160e01b600052602160045260246000fd5b14156130035760405162461bcd60e51b815260206004820152601860248201527f45434453413a20696e76616c6964207369676e617475726500000000000000006044820152606401610ac3565b600281600481111561302557634e487b7160e01b600052602160045260246000fd5b14156130735760405162461bcd60e51b815260206004820152601f60248201527f45434453413a20696e76616c6964207369676e6174757265206c656e677468006044820152606401610ac3565b600381600481111561309557634e487b7160e01b600052602160045260246000fd5b14156130ee5760405162461bcd60e51b815260206004820152602260248201527f45434453413a20696e76616c6964207369676e6174757265202773272076616c604482015261756560f01b6064820152608401610ac3565b600481600481111561311057634e487b7160e01b600052602160045260246000fd5b1415610d015760405162461bcd60e51b815260206004820152602260248201527f45434453413a20696e76616c6964207369676e6174757265202776272076616c604482015261756560f01b6064820152608401610ac3565b600054610100900460ff1661267e5760405162461bcd60e51b8152600401610ac390613e16565b600054610100900460ff166131b75760405162461bcd60e51b8152600401610ac390613e16565b81516131ca906036906020850190613787565b508051610ba9906037906020840190613787565b600054610100900460ff166132055760405162461bcd60e51b8152600401610ac390613e16565b8151602092830120815191909201206101919190915561019255565b600054610100900460ff166132485760405162461bcd60e51b8152600401610ac390613e16565b507f6e71edae12b1b97f4d1f60370fef10105fa2faae0126114a169c64845d6126c96101c655565b600054610100900460ff166132975760405162461bcd60e51b8152600401610ac390613e16565b6097805460ff19169055565b6001600160a01b0383811660009081526101f86020526040808220548584168352912054610ba992918216911683612b45565b606083156132e5575081610adf565b8251156132f55782518084602001fd5b8160405162461bcd60e51b8152600401610ac39190613d21565b6001600160a01b03821661336f5760405162461bcd60e51b815260206004820152602160248201527f45524332303a206275726e2066726f6d20746865207a65726f206164647265736044820152607360f81b6064820152608401610ac3565b61337b82600083612731565b6001600160a01b038216600090815260336020526040902054818110156133ef5760405162461bcd60e51b815260206004820152602260248201527f45524332303a206275726e20616d6f756e7420657863656564732062616c616e604482015261636560f01b6064820152608401610ac3565b6001600160a01b038316600090815260336020526040812083830390556035805484929061341e908490613fa6565b90915550506040518281526000906001600160a01b038516907fddf252ad1be2c89b69c2b068fc378daa952ba7f163c4a11628f55a4df523b3ef9060200160405180910390a3610ba983600084612754565b6000610adf8284613fa6565b8254600090819080156134d55785613495600183613fa6565b815481106134b357634e487b7160e01b600052603260045260246000fd5b60009182526020909120015464010000000090046001600160e01b03166134d8565b60005b6001600160e01b031692506134f183858763ffffffff16565b915060008111801561353d5750438661350b600184613fa6565b8154811061352957634e487b7160e01b600052603260045260246000fd5b60009182526020909120015463ffffffff16145b156135ab5761354b8261371e565b86613557600184613fa6565b8154811061357557634e487b7160e01b600052603260045260246000fd5b9060005260206000200160000160046101000a8154816001600160e01b0302191690836001600160e01b03160217905550613616565b8560405180604001604052806135c043612348565b63ffffffff1681526020016135d48561371e565b6001600160e01b0390811690915282546001810184556000938452602093849020835194909301519091166401000000000263ffffffff909316929092179101555b50935093915050565b6000610adf8284613e61565b6001600160a01b0382166136815760405162461bcd60e51b815260206004820152601f60248201527f45524332303a206d696e7420746f20746865207a65726f2061646472657373006044820152606401610ac3565b61368d60008383612731565b806035600082825461369f9190613e61565b90915550506001600160a01b038216600090815260336020526040812080548392906136cc908490613e61565b90915550506040518181526001600160a01b038316906000907fddf252ad1be2c89b69c2b068fc378daa952ba7f163c4a11628f55a4df523b3ef9060200160405180910390a3610c3760008383612754565b60006001600160e01b038211156123ad5760405162461bcd60e51b815260206004820152602760248201527f53616665436173743a2076616c756520646f65736e27742066697420696e20326044820152663234206269747360c81b6064820152608401610ac3565b82805461379390614000565b90600052602060002090601f0160209004810192826137b557600085556137fb565b82601f106137ce57805160ff19168380011785556137fb565b828001600101855582156137fb579182015b828111156137fb5782518255916020019190600101906137e0565b506123ad9291505b808211156123ad5760008155600101613803565b600067ffffffffffffffff808411156138325761383261404b565b604051601f8501601f19908116603f0116810190828211818310171561385a5761385a61404b565b8160405280935085815286868601111561387357600080fd5b858560208301376000602087830101525050509392505050565b600082601f83011261389d578081fd5b610adf83833560208501613817565b6000602082840312156138bd578081fd5b8135610adf81614061565b6000602082840312156138d9578081fd5b8151610adf81614061565b600080604083850312156138f6578081fd5b823561390181614061565b9150602083013561391181614061565b809150509250929050565b600080600060608486031215613930578081fd5b833561393b81614061565b9250602084013561394b81614061565b929592945050506040919091013590565b600080600080600080600060e0888a031215613976578283fd5b873561398181614061565b9650602088013561399181614061565b9550604088013594506060880135935060808801356139af81614076565b9699959850939692959460a0840135945060c09093013592915050565b600080604083850312156139de578182fd5b82356139e981614061565b915060208301358015158114613911578182fd5b60008060408385031215613a0f578182fd5b8235613a1a81614061565b9150602083013567ffffffffffffffff811115613a35578182fd5b8301601f81018513613a45578182fd5b613a5485823560208401613817565b9150509250929050565b60008060408385031215613a70578182fd5b8235613a7b81614061565b946020939093013593505050565b60008060008060008060c08789031215613aa1578182fd5b8635613aac81614061565b955060208701359450604087013593506060870135613aca81614076565b9598949750929560808101359460a0909101359350915050565b60008060408385031215613af6578182fd5b8235613b0181614061565b9150602083013563ffffffff81168114613911578182fd5b600060208284031215613b2a578081fd5b5035919050565b60008060408385031215613b43578182fd5b82359150602083013561391181614061565b600060208284031215613b66578081fd5b81356001600160e01b031981168114610adf578182fd5b600080600080600060a08688031215613b94578283fd5b853567ffffffffffffffff80821115613bab578485fd5b613bb789838a0161388d565b96506020880135915080821115613bcc578485fd5b50613bd98882890161388d565b9450506040860135613bea81614061565b92506060860135613bfa81614061565b91506080860135613c0a81614061565b809150509295509295909350565b600060208284031215613c29578081fd5b5051919050565b600060208284031215613c41578081fd5b8151610adf81614076565b60008251613c5e818460208701613fbd565b9190910192915050565b7f416363657373436f6e74726f6c3a206163636f756e7420000000000000000000815260008351613ca0816017850160208801613fbd565b7001034b99036b4b9b9b4b733903937b6329607d1b6017918401918201528351613cd1816028840160208801613fbd565b01602801949350505050565b6020808252825182820181905260009190848201906040850190845b81811015613d1557835183529284019291840191600101613cf9565b50909695505050505050565b6020815260008251806020840152613d40816040850160208701613fbd565b601f01601f19169190910160400192915050565b6020808252602c908201527f46756e6374696f6e206d7573742062652063616c6c6564207468726f7567682060408201526b19195b1959d85d1958d85b1b60a21b606082015260800190565b6020808252602c908201527f46756e6374696f6e206d7573742062652063616c6c6564207468726f7567682060408201526b6163746976652070726f787960a01b606082015260800190565b60208082526010908201526f14185d5cd8589b194e881c185d5cd95960821b604082015260600190565b6020808252602b908201527f496e697469616c697a61626c653a20636f6e7472616374206973206e6f74206960408201526a6e697469616c697a696e6760a81b606082015260800190565b60008219821115613e7457613e74614035565b500190565b600082613e9457634e487b7160e01b81526012600452602481fd5b500490565b600181815b80851115613ed4578160001904821115613eba57613eba614035565b80851615613ec757918102915b93841c9390800290613e9e565b509250929050565b6000610adf60ff841683600082613ef557506001610987565b81613f0257506000610987565b8160018114613f185760028114613f2257613f3e565b6001915050610987565b60ff841115613f3357613f33614035565b50506001821b610987565b5060208310610133831016604e8410600b8410161715613f61575081810a610987565b613f6b8383613e99565b8060001904821115613f7f57613f7f614035565b029392505050565b6000816000190483118215151615613fa157613fa1614035565b500290565b600082821015613fb857613fb8614035565b500390565b60005b83811015613fd8578181015183820152602001613fc0565b83811115611e3f5750506000910152565b600081613ff857613ff8614035565b506000190190565b600181811c9082168061401457607f821691505b602082108114156125ad57634e487b7160e01b600052602260045260246000fd5b634e487b7160e01b600052601160045260246000fd5b634e487b7160e01b600052604160045260246000fd5b6001600160a01b0381168114610d0157600080fd5b60ff81168114610d0157600080fdfe3b5d4cc60d3ec3516ee8ae083bd60934f6eb2a6c54b1229985c41bfb092b26037935bd0ae54bc31f548c14dba4d37c5c64b3f8ca900cb468fb8abd54d5894f55416464726573733a206c6f772d6c6576656c2064656c65676174652063616c6c206661696c65649f2df0fed2c77648de5860a4cc508cd0818c85b8b8a1ab4ceeef8d981c8956a6a2646970667358221220f481ace97abc762df2c87974beafd4a283655615c478f7a767f52fc772a6c8cf64736f6c63430008040033",
  "linkReferences": {},
  "deployedLinkReferences": {}
}